:100000000C94A5100C94D6100C94D6100C94D61009
:100010000C94D6100C94D6100C94D6100C94D610C8
:100020000C94D6100C94D6100C94D6100C94D610B8
:100030000C94D6100C94D6100C94D6100C94D610A8
:100040000C94D6100C94D6100C94D6100C94D61098
:100050000C94D6100C94D6100C94D6100C94EC4A38
:100060000C94D6100C94444F0C947A4F0C94D610E8
:100070000C94D6100C94D6100C94D6100C94D61068
:100080000C94D6100C94D6100C94D6100C94D61058
:100090000C94D6100C94D6100C94D6100C94B44931
:1000A0000C94D6100C94D6100C94D6100C94D61038
:1000B0000C94D6100C94D6100C94D6100C94D61028
:1000C0000C94D6100C94D6100C94D6100C94D61018
:1000D0000C94D6100C94D6100C94D6100C94D61008
:1000E0000C94D6105A1E681E681E2A1E2A1E341E24
:1000F000341E441E441E501E501E501E501E5A1EBA
:100100005A1EA020A820A820051F051F131F131F7B
:100110001E1F1E1F921F921F921F921FA020A02021
:10012000C224C924C224C924C224C924C224C92483
:10013000C224C924C224C924C624444C494C4E4C70
:10014000584C624CDB4C6C4C744C7C4C864C904C48
:100150009A4CA94CB34CDB4CBD4CC74CD14CFD4C1C
:10016000004DEF4CF34CF94C374D044D084D0E4DFE
:10017000124D164D1C4D204D244D374D2A4D2E4D00
:10018000324D07634236B79BD8A71A39685618AE66
:10019000BAAB558C1D3CB7CC5763BD6DEDFD753EBC
:1001A000F6177231BF000000803F08000000BE92C9
:1001B0002449123EABAAAA2ABECDCCCC4C3E0000AC
:1001C0000080BEABAAAAAA3E00000000BF0000004B
:1001D000803F0000000000084178D3BB4387D11363
:1001E0003D190E3CC3BD4282AD2B3E68EC8276BE0B
:1001F000D98FE1A93E4C80EFFFBE01C4FF7F3F00D5
:10020000000000000C94D53C0C94374D0C94DC3568
:100210000C9456360C941D380C949A4C0C946C4CDF
:100220000C94CD3C0C9463370C94131F0C94F43550
:100230000C947C4C0C94CC360C9473350C94D33CBD
:100240000C949A330C94FD4C0C946E330C94341E25
:100250000C94C74C0C94B3330C94501E0C94703314
:100260000C94D13C0C94E1360C944E4C0C94164DED
:100270000C94864C0C94324D0C94584C0C94D03504
:100280000C94E2350C94FD4D0C94A2350C94593F1E
:100290000C94CF3C0C94441E0C94AF330C94741803
:1002A0000C94043A0C94244D0C94F94C0C946F3734
:1002B0000C9442340C9403370C94444C0C94EE355B
:1002C0000C945F370C9470180C94DB4C0C94921FB8
:1002D0000C945A1E0C942E4D0C94004D0C942948ED
:1002E0000C9418370C94B34C0C9400360C94124DAB
:1002F0000C940A360C9497380C94EF4C0C94051F10
:100300000C94D04D0C94EF330C9447360C946F330F
:100310000C94A44F0C944E340C941A480C94D14C69
:100320000C94204D0C94DB4D0C94D3330C942A1E6A
:100330000C9436340C94AE4F0C94B13B0C94B73300
:100340000C94F9470C94904C0C94FA350C94A94CED
:100350000C947D4E0C94AA360C94BD4C0C948036B3
:100360000C942A480C94A8200C94B2370C94624C3C
:100370000C94084D0C94F1380C94E1330C9407481C
:100380000C943E360C94D2480C94CA350C944D39DA
:100390000C94C5330C943A370C944B370C9485333A
:1003A0000C94044D0C9401500C9452340C942A4D2E
:1003B0000C9453370C94CF380C94FF470C94A02026
:1003C0000C94C2240C94C9240C941E390C94744CC3
:1003D0000C94E8350C94E94D0C941C4D0C94D635D6
:1003E0000C941E1F0C94F34C0C94B7420C940E4DBD
:1003F0000C94C6240C9478180C94494C0C94063632
:100400000C94681E0C9457480C945B4E53617669AB
:100410006E6720436F6E6669672E00F5031600F362
:10042000031900F1031E00E9032800E2033200D2A1
:10043000033C00C2034600AD03500091035A006F15
:1004400003640048036E0016037800E4028200AAE9
:10045000028C00710296004302A0000102AA00CAA9
:1004600001B4008B01BE005201C8002C01D200096A
:1004700001DC00EB00E600C800F000AC00FA0096DA
:1004800000040182000E0172001801630022015372
:10049000002C014229204E6F00412920596573002C
:1004A000536176652053657474696E67733F0069A4
:1004B0006E207468652073706F6F6C6572206D6557
:1004C0006E75007468652073706F6F6C2044696D81
:1004D000656E73696F6E7300446F6E277420666F6C
:1004E0007267657420746F20736574200042292040
:1004F000457869740041292053746F7000707265EB
:1005000073732053746F702061742031207265768C
:100510002E004229204578697400412920426567F0
:10052000696E0070726573732053746F702061740C
:100530002031207265762E00506C61636520726FE9
:100540006C6C6572206F6E204469736B00526F6C27
:100550006C65722F4469736B2054657374006D6908
:1005600063726F737465702073657474696E6773FA
:100570000074686520776972696E6720616E640037
:100580006D616B652031207265762C206368656330
:100590006B0049662073706F6F6C657220646964CC
:1005A0006E277400526F746174696E672031207217
:1005B00065762E2E2E004229204578697400412947
:1005C00020426567696E00417474656D7074696E70
:1005D00067203120726576004D61726B207468650A
:1005E00020526F6C6C65722E20004D6963726F73C0
:1005F000746570696E6720546573740044292045E2
:10060000786974004229204E6F0041292059657392
:100610000073706F6F6C657220646972204F4B3F7E
:10062000004229204E6F0041292059657300436F15
:100630006E74696E75653F0073706F6F6C657220C4
:10064000446972656374696F6E2E2E2E00442920F2
:1006500045584954004329205768656E2044697302
:1006600061626C656400412920456E61626C652F92
:1006700044697361626C65004229204E6F00412914
:100680002059657300436F6E74696E75653F00662F
:100690006F6C6C6F77696E672074657374732E006E
:1006A000746F20706572666F726D20746865006D7E
:1006B000757374206265206672656520746F206DA5
:1006C0006F7665005741524E494E473A205468654F
:1006D0002053706F6F6C6572004229204E6F00418D
:1006E00029205965730053617665205365747469D8
:1006F0006E67733F004229204578697400412920C4
:1007000053746F700070726573732053746F702030
:10071000617420313066742E004229204578697456
:1007200000412920426567696E007072657373200D
:1007300053746F7020617420313046742E004C6FFA
:10074000616420313066742066696C616D656E7419
:100750002E00526F6C6C6572204469616D65746522
:10076000722054657374006D6963726F7374657081
:100770002073657474696E677300746865207769A7
:1007800072696E6720616E64006D616B6520312057
:100790007265762C20636865636B004966206F750F
:1007A0007466656564206469646E277400526F74B2
:1007B0006174696E672031207265762E2E2E00429C
:1007C00029204578697400412920426567696E00D7
:1007D000417474656D7074696E672031207265763E
:1007E000004D61726B2074686520526F6C6C65728D
:1007F0002E20004D6963726F73746570696E672097
:100800005465737400442920457869740042292096
:100810004E6F00412920596573004F7574666565F8
:100820006420646972204F4B3F004229204E6F00C4
:1008300041292059657300436F6E74696E75653F79
:10084000004F7574666565642044697265637469F8
:100850006F6E2E2E2E0044292045584954004329FE
:10086000205768656E2044697361626C656400415D
:100870002920456E61626C652F44697361626C6505
:10088000004229204E6F0041292059657300436FB3
:100890006E74696E75653F00666F6C6C6F77696E1C
:1008A000672074657374732E00746F2070657266B0
:1008B0006F726D20746865006D75737420626520B9
:1008C0006672656520746F206D6F766500574152C2
:1008D0004E494E473A20546865204F7574666565E9
:1008E00064004229204E6F0041292059657300534E
:1008F0006176652053657474696E67733F006D6936
:1009000063726F737465702073657474696E677356
:100910000074686520776972696E6720616E640093
:100920006D616B652031207265762C20636865638C
:100930006B00496620746865206175676572206484
:1009400069646E277400526F746174696E67203138
:10095000207265762E2E2E0042292045786974007B
:10096000412920426567696E00417474656D707439
:10097000696E67203120726576004D61726B20745C
:1009800068652073686166742E20004D6963726F1C
:1009900073746570696E6720546573740044292010
:1009A00045786974004229204E6F0041292059651D
:1009B0007300417567657220646972656374696F5D
:1009C0006E204F4B3F004229204E6F004129205995
:1009D000657300436F6E74696E75653F004175679E
:1009E000657220446972656374696F6E2054657323
:1009F000740044292045584954004329205768650C
:100A00006E2044697361626C656400412920456E03
:100A100061626C652F44697361626C6500422920D4
:100A20004E6F0041292059657300436F6E74696EE3
:100A300075653F00666F6C6C6F77696E67207465D3
:100A40007374732E00746F20706572666F726D2000
:100A5000746865006D7573742062652066726565E3
:100A600020746F206D6F7665005741524E494E4796
:100A70003A20546865204175676572004229204E0E
:100A80006F004129205965730053746F70204578B9
:100A900074727564696E673F00526573657474693A
:100AA0006E6720454550524F4D2E2E2E00526573D5
:100AB000657474696E672074686520454550524FAF
:100AC0004D2E2E2E004229204E6F004129205965BF
:100AD0007300576F756C6420796F75206C696B6556
:100AE00020746F2070726F636565643F0074686581
:100AF0002064656661756C742073657474696E67D3
:100B0000730073746F7265642070726F66696C65D0
:100B10007320776974680077696C6C206F766572F2
:100B2000777269746520616C6C20005741524E49A0
:100B30004E473A205468697320616374696F6E0090
:100B40005741524E494E473A2054686973206163B9
:100B500074696F6E2077696C6C206F766572776947
:100B600072746520616C6C2073746F7265642070A0
:100B7000726F66696C657320776974682074686544
:100B80002064656661756C742053657474696E6762
:100B9000732E0050726F66696C65205361766564D0
:100BA00000536176696E672070726F66696C652E9E
:100BB0002E2E00536176696E672053657474696EDA
:100BC000677320666F722070726F66696C65206E45
:100BD000756D6265723A2000436F6E666967757263
:100BE0006174696F6E205361766564005361766944
:100BF0006E672E2E2E0046696E69736865642053F9
:100C00006F616B696E670054696D652873292C20CC
:100C1000446961286D6D292C206F75746665656463
:100C200052504D2C2073746172766546656564651B
:100C30007252504D2C2020617567657252504D2CB8
:100C4000204D6F64652C2042617272656C20546582
:100C50006D702843292C2042617272656C44757452
:100C6000794379636C652825292C204E6F7A7A6C3C
:100C7000652054656D702843292C204E6F7A7A6C5C
:100C800065447574794379636C652825292C206F38
:100C90007574666565644B702C206F757466656548
:100CA000644B692C206F7574666565644B642C20F9
:100CB0006665656452617465286D2F6D696E292CB7
:100CC000206D65746572734578747275646564002F
:100CD0005F19FFFF010000000000000047365A19AD
:100CE0000000FFFF0000000003004B375519000013
:100CF000FFFF0000000003004E344E1A0000FFFF0B
:100D0000BD0200000F00F13849190000FFFF00008C
:100D10000000030063373A190000FFFFC302000020
:100D20000600000030190000FFFF00000000030073
:100D30006F3723190000FFFFC1020000060000000A
:100D40005B1E0000FFFF8F0B02000A0000001E194F
:100D50000000FFFF0000000003003E36741D00008D
:100D6000FFFF230C0000060000006A1D0000FFFFCB
:100D7000250C02000A0000005C1D0000FFFF290C8A
:100D80000000060000004E1D0000FFFF2B0C0000BD
:100D900006000000431D0000FFFF2D0C00000600B0
:100DA0000000361D0000FFFF2F0C000006000000B1
:100DB000281D0000FFFF310C0000060000001E1D72
:100DC0000000FFFF330C000004000000141D0000B1
:100DD000FFFF340C000006000000021D0000FFFFB2
:100DE000360C000006000000F51C0000FFFF380C68
:100DF000000006000000E81C0000FFFF3A0C0000A5
:100E000006000000DC1C0000FFFF3C0C0000060098
:100E10000000D01C0000FFFF3E0C00000600000098
:100E2000C31C0000FFFF400C000006000000B51CC2
:100E30000000FFFF420C0000060000007919FFFFD0
:100E40000100000000000000CC36741A0000FFFF13
:100E50006D0B01000D0000000A1E0000FFFFB50B26
:100E600000000C00000072190000FFFF550B00008D
:100E70000F0056368C19FFFF010000000000000033
:100E80000337681A0000FFFF690B01000D00000026
:100E9000FA1D0000FFFFB90B00000C0000008519CF
:100EA0000000FFFF590B00000F008036B019FFFF54
:100EB0000100000000000000CD3CA7190000FFFF6A
:100EC000C50200000F0000005B1E0000FFFF8F0B3B
:100ED00002000A00533798190000FFFF530B00006F
:100EE00007000000741A0000FFFF6D0B01000D00E9
:100EF0000000681A0000FFFF690B01000D000000F0
:100F0000511E0000FFFF930B01000A003634451EFE
:100F10000000FFFF970B01000C004234BD190000D8
:100F2000FFFFC90200000F0018374E1A0000FFFF34
:100F3000BD0200000F00F1380A1E0000FFFFB50BD4
:100F400000000C000000FA1D0000FFFFB90B0000BC
:100F50000C000000781E0000FFFF730B00000E0065
:100F600000006F1E0000FFFF870B02000C00000056
:100F7000651E0000FFFF8B0B02000A0000003A1EF6
:100F80000000FFFF9F0B02000C005F372F1E0000C8
:100F9000FFFF9B0B02000C005F37241E0000FFFFC9
:100FA000A30B02000C005F371A1E0000FFFFB10BFD
:100FB00000000C000000F11D0000FFFFBD0B000051
:100FC0000C000000E81D0000FFFFC10B00000C003A
:100FD0000000D91D0000FFFFC50B00000800000045
:100FE000F319FFFF0100000000000000D33CE419EA
:100FF0000000FFFF630B00000F000000D419000089
:10100000FFFF000000000300E133CB190000FFFFE9
:101010000000000003009A33BD190000FFFFC90261
:1010200000000F0018370A1E0000FFFFB50B00007C
:101030000C000000FA1D0000FFFFB90B00000C00BF
:101040000000781E0000FFFF730B00000E00000080
:101050006F1E0000FFFF870B02000C000000651EE2
:101060000000FFFF8B0B02000A0000005B1E000067
:10107000FFFF8F0B02000A0053374E1A0000FFFFDC
:10108000BD0200000F00F138511E0000FFFF930B5E
:1010900001000A003634451E0000FFFF970B0100D7
:1010A0000C0042343A1E0000FFFF9F0B02000C00B0
:1010B0005F372F1E0000FFFF9B0B02000C005F3705
:1010C000241E0000FFFFA30B02000C005F371A1E56
:1010D0000000FFFFB10B00000C000000F11D00003C
:1010E000FFFFBD0B00000C000000E81D0000FFFF2B
:1010F000C10B00000C000000D91D0000FFFFC50B54
:10110000000008000000431AFFFF0100000000007B
:101110000000D13C341A0000FFFF5D0B00000F00FF
:101120000000741A0000FFFF6D0B01000D000000AD
:10113000681A0000FFFF690B01000D000000211A72
:101140000000FFFF00000000030070330E1A0000D3
:10115000FFFF0000000003008533041A0000FFFFBA
:10116000000000000300D3330A1E0000FFFFB50B90
:1011700000000C000000FA1D0000FFFFB90B00008A
:101180000C000000781E0000FFFF730B00000E0033
:1011900000006F1E0000FFFF870B02000C00000024
:1011A000651E0000FFFF8B0B02000A0000005B1EA3
:1011B0000000FFFF8F0B02000A0000004E1A000023
:1011C000FFFFBD0200000F00F138511E0000FFFFBD
:1011D000930B01000A000000451E0000FFFF970B63
:1011E00001000C0000003A1E0000FFFF9F0B0200F0
:1011F0000C0000002F1E0000FFFF9B0B02000C00E4
:101200000000241E0000FFFFA30B02000C000000E2
:101210001A1E0000FFFFB10B00000C000000F11DC2
:101220000000FFFFBD0B00000C000000E81D0000E7
:10123000FFFFC10B00000C000000D91D0000FFFFE4
:10124000C50B000008000000801AFFFF010000002D
:1012500000000000CF3C741A0000FFFF6D0B01007E
:101260000D000000681A0000FFFF690B01000D006F
:1012700000000A1E0000FFFFB50B00000C0000007C
:10128000FA1D0000FFFFB90B00000C0000005B1A04
:101290000000FFFF000000000300C533781E0000BF
:1012A000FFFF730B00000E0000006F1E0000FFFF29
:1012B000870B02000C000000651E0000FFFF8B0B77
:1012C00002000A0000005B1E0000FFFF8F0B0200FF
:1012D0000A0000004E1A0000FFFFBD0200000F00D0
:1012E000F138511E0000FFFF930B01000A000000BF
:1012F000451E0000FFFF970B01000C0000003A1E86
:101300000000FFFF9F0B02000C0000002F1E0000DA
:10131000FFFF9B0B02000C000000241E0000FFFFDB
:10132000A30B02000C0000001A1E0000FFFFB10B0F
:1013300000000C000000F11D0000FFFFBD0B0000CD
:101340000C000000E81D0000FFFFC10B00000C00B6
:101350000000D91D0000FFFFC50B000008000000C1
:10136000E41EFFFF01000000000000000000D51E89
:10137000000004000000000000000000CB1E000080
:1013800020000000000000000000C11E00006700F7
:101390000000000000000000BE1E01000F00DC0C79
:1013A00000000100CA35BB1E01000F00F00C000058
:1013B0000100D035B81E01000F00040D000001002F
:1013C000D635B51E01000F00180D00000100DC35F8
:1013D000B21E01000F002C0D00000100E235AF1E0F
:1013E00001000F00400D00000100E835AC1E0100B7
:1013F0000F00540D00000100EE35A91E01000F0082
:10140000680D00000100F435A61E01000F007C0DE0
:1014100000000100FA35A21E01000F00900D00002F
:1014200001000036921E01000F00000000000000C5
:1014300006368A1E0400FFFF000000000000B733DC
:101440007D1E0400FFFF0000000000000A36781E29
:101450000400FFFF730B00000E0000006F1E04006D
:10146000FFFF870B02000C000000651E0400FFFF59
:101470008B0B02000A0000005B1E0400FFFF8F0BB5
:1014800002000A000000511E0400FFFF930B010040
:101490000A000000451E0400FFFF970B01000C002E
:1014A00000003A1E0400FFFF9F0B02000C0000002A
:1014B0002F1E0400FFFF9B0B02000C000000241EE7
:1014C0000400FFFFA30B02000C0000001A1E040022
:1014D000FFFFB10B00000C0000000A1E0400FFFF1C
:1014E000B50B00000C000000FA1D0400FFFFB90B53
:1014F00000000C000000F11D0400FFFFBD0B000008
:101500000C000000E81D0400FFFFC10B00000C00F0
:101510000000D91D0400FFFFC50B000008000000FB
:10152000C61D0200FFFF000000000300A235B91D28
:10153000020027000000000000000000B31D0200B0
:1015400037000000000000000000AC1D02003D005C
:101550000000000000000000A51D0200490000007E
:101560000000000000009D1D020056000000000069
:1015700000000000951D02005E0000000000000059
:101580000000821D2100FFFF0000000003003A3729
:10159000741D2100FFFF230C0000060000006A1DDF
:1015A0002100FFFF250C02000A0000004E1D210053
:1015B000FFFF2B0C000006000000431D2100FFFF71
:1015C0002D0C000006000000361D2100FFFF2F0C2F
:1015D000000006000000281D2100FFFF310C000064
:1015E000060000001E1D2100FFFF330C0000040058
:1015F0000000141D2100FFFF340C00000600000055
:10160000021D2100FFFF360C000006000000F51C43
:101610002100FFFF380C000006000000E81C21003C
:10162000FFFF3A0C000006000000DC1C2100FFFF59
:101630003C0C000006000000D01C2100FFFF3E0C07
:10164000000006000000C31C2100FFFF400C00004A
:1016500006000000B51C2100FFFF420C0000060040
:101660000000AA1C2200FFFF000000000300D53C80
:10167000A21C2200FFFF440C000006000000981C82
:101680002200FFFF460C0000060000008E1C220016
:10169000FFFF480C000004000000871C2200FFFF31
:1016A000490C0000040000007B1C2200FFFF4A0CD4
:1016B00002000A0000006F1C2300FFFF0000000072
:1016C0000300AA36651C2300FFFF860C00000600FD
:1016D0000000561C2300FFFF880C00000C000000D7
:1016E000471C2300FFFF8C0C00000C000000441C72
:1016F0002300FFFF900C02000C000000411C23009F
:10170000FFFF940C02000C0000003E1C2300FFFFB2
:10171000980C02000C0000002E1C2300FFFF9C0C04
:10172000000008000000201C2300FFFFA00C0000A8
:10173000060000000F1C2300FFFFA20C00000600A3
:101740000000021C2300FFFFA40C000006000000A4
:10175000EF1B2300FFFFA60C000006000000E31BA8
:101760002400FFFF000000000000E136DF1B240022
:10177000FFFFA80C000006000000D01B2400FFFFA4
:10178000AA0C00000C000000C11B2400FFFFAE0CDF
:1017900000000C000000BE1B2400FFFFB20C020082
:1017A0000C000000BB1B2400FFFFB60C02000C0065
:1017B0000000B81B2400FFFFBA0C02000C00000060
:1017C000AC1B2400FFFFBE0C0000060000009C1BA9
:1017D0002400FFFFC00C0000080000008E1B240046
:1017E000FFFFC40C0000060000007D1B2400FFFF6B
:1017F000C60C000006000000701B2400FFFFC80C90
:101800000000060000005D1B2400FFFFCA0C000062
:1018100006000000501B2500FFFF00000000030031
:10182000593F481B2500FFFF4E0C0000060000003A
:101830003E1B2500FFFF500C000006000000341B7B
:101840002500FFFF520C0000040000002D1B2500A6
:10185000FFFF530C0000040000001F1B2500FFFFCA
:10186000540C02000A000000171B2500FFFF580C53
:1018700002000C0000000F1B2500FFFF5C0C0200A3
:101880000C000000021B2600FFFF00000000030008
:10189000B742FA1A2600FFFF600C000006000000A5
:1018A000F01A2600FFFF620C000006000000E61A96
:1018B0002600FFFF640C000004000000DF1A260071
:1018C000FFFF650C000004000000D31A2600FFFF94
:1018D000660C02000A000000C71A2600FFFF6A0C0F
:1018E00002000A000000BA1A2600FFFF6E0C020078
:1018F0000A000000AC1A2600FFFF720C02000A006A
:1019000000009B1A0300FFFF0000FFFF03006E337F
:101910008E1A0300FFFF000000000300B13B537468
:101920006F700054696D6520746F2073656E64007C
:1019300053656E642054696D65004379636C65730B
:1019400020746F2073656E640053656E6420437964
:10195000636C65730044756D7000486F6D6500536E
:10196000746172766520466565646572205465739E
:1019700074005374617475730042617272656C20F7
:101980005465737400537461747573004E6F7A7A82
:101990006C652054657374004772616D73204578DF
:1019A000747275646564004469616D657465720084
:1019B000457874727564696E67EFBFBD00537461DA
:1019C00072766520466565646572004164642054E2
:1019D000696D650046696C616D656E74204C6F6160
:1019E0006465640054696D652052656D61696E6956
:1019F0006E67004C6F61642046696C616D656E7442
:101A0000EFBFBD00536B697020536F616B0044657D
:101A100063726561736520536F616B2054696D65F6
:101A200000496E63726561736520536F616B20546A
:101A3000696D650054696D652052656D61696E69F7
:101A40006E6700536F616B696E67EFBFBD004665DF
:101A5000656420506C617374696300536B69702016
:101A600050726568656174004E6F7A7A6C652054B7
:101A7000656D700042617272656C2054656D700016
:101A800050726568656174696E67EFBFBD0052652D
:101A900073657420454550524F4D004D6561737517
:101AA00072652046696C616D656E7400526F6C6C76
:101AB0006572205261646975730054726176657253
:101AC0007365204C656E00436F72652052616469D6
:101AD0007573004469736B205261646975730045C6
:101AE0006E61626C6500446972656374696F6E0053
:101AF00053746570204D6F64650050696E205365A6
:101B00007400546573742053706F6F6C6572004D70
:101B1000696E2052504D004D61782052504D005258
:101B20006F6C6C65722052616469757300456E61FB
:101B3000626C6500446972656374696F6E0053740A
:101B40006570204D6F64650050696E2053657400A8
:101B500054657374204F75746665656400546865D8
:101B600072205365726965732052657369737400DE
:101B700054686572204220436F656666005468654C
:101B800072204E756D2053616D706C6573005468E2
:101B900065722054656D70204E6F6D0054686572DB
:101BA00020526573697374204E6F6D0053616D70C0
:101BB0006C652054696D65004B64004B69004B7087
:101BC000004D696E2044757479204379636C65001B
:101BD0004D61782044757479204379636C650050B9
:101BE000696E0054657374204E6F7A7A6C65005488
:101BF00068657220536572696573205265736973F5
:101C0000740054686572204220436F656666005414
:101C1000686572204E756D2053616D706C65730040
:101C2000546865722054656D70204E6F6D00546865
:101C3000657220526573697374204E6F6D004B643A
:101C4000004B69004B70004D696E2044757479201B
:101C50004379636C65004D61782044757479204345
:101C600079636C650054696D652042617365005449
:101C70006573742042617272656C00476561722001
:101C8000526174696F6E00456E61626C65004469F3
:101C900072656374696F6E0053746570204D6F6474
:101CA000650050696E20536574005465737420415B
:101CB00075676572004465626F756E63652054696F
:101CC0006D6500537461727475702054696D6500A0
:101CD0004D617846696C6C54696D65004D696E465E
:101CE000696C6C54696D65004D696E447574794317
:101CF00079636C65004D6178447574794379636CE0
:101D000065005374617274757020447574794379F9
:101D1000636C6500447574794379636C650044694C
:101D200072656374696F6E004F76657220526F74CE
:101D30006174696F6E00486F6D696E672044656CF1
:101D4000617900537465702044656C617900447555
:101D50006D7020506F736974696F6E00486F6D65A8
:101D600020506F736974696F6E004C756D70204DF3
:101D700061737300536C61766520416464726573AE
:101D800073005465737420537461727665204665E0
:101D9000656465720053706F6F6C6572004F757487
:101DA00066656564004E6F7A7A6C65004261727296
:101DB000656C0041756765720053746172766546A3
:101DC0006565646572005361766520436F6E666970
:101DD0006775726174696F6E004D617850726568E5
:101DE00065617454696D65004D61782054656D704E
:101DF000004D696E2054656D70004E6F7A7A6C6587
:101E0000205365742054656D700042617272656C78
:101E1000205365742054656D7000536F616B2054BE
:101E2000696D65004F757466656564205064004F88
:101E3000757466656564204B69004F7574666565E9
:101E400064204B70004F7574666565642052504D78
:101E50000041756765722052504D004772616D7385
:101E60002F4D696E00546F6C6572616E636500443E
:101E700069616D65746572004E616D6500536176D0
:101E8000652050726F66696C650045787472756480
:101E9000650044656661756C742050726F66696C8C
:101EA00065003130290039290038290037290036EA
:101EB000290035290034290033290032290031292D
:101EC00000417578696C696172790043616C69627F
:101ED000726174650053656C6563742050726F663F
:101EE000696C65004D61696E204D656E750000007E
:101EF0000A0B02090C0D0E08070304010000000084
:101F000000000000000000000000000000000000D1
:101F1000000000000000000000001211100000008E
:101F200000000000000000000000000000000000B1
:101F3000000000000102102020080810204010209E
:101F4000408002010201080402010102040810207D
:101F5000408080402010080402018004020180407B
:101F600020100804020108040201010204081020E4
:101F70004080010204081020408005050505070582
:101F800008080808020202020A0A080804040404F5
:101F90000101010101010101030303030303030321
:101FA000040707070C0C0C0C0C0C0C0C02020202B0
:101FB00006060606060606060B0B0B0B0B0B0B0B99
:101FC000000020002300260029002C002F003200F2
:101FD00000010000030106010901000022002500A4
:101FE00028002B002E003100340002010000050102
:101FF00008010B0100002100240027002A002D0009
:102000003000330001010000040107010A014E41C4
:102010004E494E495459494E46CDCCCC3D0AD72362
:102020003C17B7D13877CC2B329595E6241FB14FAA
:102030000A000020410000C84200401C4620BCBEEF
:102040004CCA1B0E5AAEC59D7400407A10F35A005C
:10205000A0724E18090010A5D4E80000E8764817D1
:102060000000E40B54020000CA9A3B000000E1F5B6
:1020700005000080969800000040420F000000A07C
:102080008601000000102700000000E803000000A7
:10209000006400000000000A0000000000010000D1
:1020A0000000002C76D888DC674F0823DFC1DFAE44
:1020B00059E1B1B796E5E3E453C63AE6519976960D
:1020C000E8E6C28426EB898C9B62ED407C6FFCEFD6
:1020D000BC9C9F40F2BAA56FA5F490055A2AF75C04
:1020E000936B6CF9676DC11BFCE0E40D47FEF520B6
:1020F000E6B500D0ED902E0300943577050080847E
:102100001E080000204E0A000000C80C3333333391
:102110000F986E12831141EF8D2114893BE65516FD
:10212000CFFEE6DB18D1844B381BF77C1D901DA435
:10213000BBE424203284725E228100C9F124ECA128
:10214000E53D2700043AD248AE4F11241FBECFEF21
:10215000D1E2DEBFCDBF00E00CBF15E0A0E0B2E0F1
:10216000E4E3F6EB00E00BBF02C007900D92AC3643
:10217000B107D9F72FE0ACE6B5E001C01D92A3325C
:10218000B207E1F711E2CAE4D1E200E006C022970B
:102190000109FE010BBF0E947E56C434D10780E0C6
:1021A0000807A9F70E94F24F0C94185B0C940000EA
:1021B0002F923F924F925F926F927F928F929F9257
:1021C000AF92BF92CF92DF92EF92FF920F931F9345
:1021D000CF93DF9300D01F92CDB7DEB74C017C8345
:1021E0006B83FB01EB5CFE4FA080B1803297C08017
:1021F000D1803297E080F18032970081118134974D
:10220000208131814281538161E070E00E94B131CF
:1022100034018EE2680E711C2B803C809DED291AE2
:102220009EEF390AF101A080B180C280D3808B81FA
:102230009C81815E9E4F9A838983FC01E080F180BE
:10224000028113812B813C812C5B3F4FA4014759B4
:102250005F4F1F921F924B805C80F9ED4F1AFEEF8B
:102260005F0AF20183818F9382818F9381818F93A3
:1022700080818F93B401C3010E945C2BD401A959C2
:10228000BF4FEB81FC81EB5EFE4F1196FC93EE930A
:1022900016968D929C9260817181C3010E94002AE2
:1022A000F201C080D180E280F380F10100811181D0
:1022B00022813381E981FA81408151816281738178
:1022C000C3010E944D29EB81FC81E95EFE4F008134
:1022D000118122813381EB81FC81E55EFE4F4081DB
:1022E000518162817381C3010E944E2A61E070E0D6
:1022F000C3010E940A2B0F900F900F900F900F9028
:102300000F9061E087E00F900F900F900F90DF919A
:10231000CF911F910F91FF90EF90DF90CF90BF90E2
:10232000AF909F908F907F906F905F904F903F9075
:102330002F900C94384DCF92DF92EF92FF920F9333
:102340001F93CF93DF937C010E94364B60937405FB
:10235000709375058093760590937705C7010E9469
:10236000F7328091740590917505A0917605B09132
:102370007705E701C959DF4FE881F9814081518133
:10238000662757FD6095762F0091700510917105B5
:102390002091720530917305400F511F621F731F0A
:1023A00084179507A607B70708F445C08093700502
:1023B00090937105A0937205B0937305F701E359EB
:1023C000FF4FF182E082C7018E960E942D28F7010F
:1023D000E759FF4FC080D180E280F380E881F98126
:1023E00060817181882777FD8095982F0E946B53BB
:1023F000A70196010E94725420E030E048EC52E4BC
:102400000E94D0520E943D5360936C0570936D05FD
:1024100080936E0590936F0520E030E040E85FE325
:10242000C701B6010E946E5418162CF48091020167
:1024300080618093020180916C0590916D05A0915F
:102440006E05B0916F0540917005509171056091D6
:10245000720570917305840F951FA61FB71F4091D9
:102460007405509175056091760570917705481750
:1024700059076A077B0728F0809102018F7E8093BD
:102480000201DF91CF911F910F91FF90EF90DF90AC
:10249000CF900895CF92DF92EF92FF920F931F9308
:1024A000CF93DF93EC016A017B018C01025D1F4F2A
:1024B000C8010E94C92B019729F460E070E0C801AF
:1024C0000E940A2B20E030E0A901C701B6010E945A
:1024D000CC5287FD11C020E030E048EC52E4C70147
:1024E000B6010E946E54181654F4C12CD12C88ECFD
:1024F000E82E82E4F82E03C0C12CD12C7601C759F6
:10250000DF4FC882D982EA82FB82DF91CF911F918F
:102510000F91FF90EF90DF90CF900895E2E0F1E00F
:1025200080818F7E808308958E960C940A2BFC0107
:1025300060817181828193810895CF93DF93EC0153
:1025400061E081E10E94384D1B861A86DF91CF91B0
:102550000895FC01738762870895CF92DF92EF920E
:10256000FF92CF93DF93EC018A859B85892B09F439
:1025700043C0CC80DD80EE80FF800E94364B6C151E
:102580007D058E059F05C0F18885998580FD0BC06E
:102590000A972CF0198618861B861A862DC0809102
:1025A0000201816003C0809102018E7F809302014D
:1025B0000E94364B288539854A855B85AAE0A49F11
:1025C000F001A59FF00D1124E20FF31FEE0FFF1F86
:1025D000E050FE4FC080D180EE24D7FCE094FE2C6A
:1025E0006C0D7D1D8E1D9F1D6C837D838E839F834F
:1025F0002F5F3F4F39872887DF91CF91FF90EF9072
:10260000DF90CF900895FC01118610861386128604
:1026100008959B01255A3E4FFC0135872487615A56
:102620007E4F7787668708950F931F93CF93DF932D
:102630008C0144E050E062E070E08AEB9DE00E9493
:10264000AD48C0E0D0E08AEB9DE00E94FF47892BB7
:1026500051F08AEB9DE00E940748F801EC0FFD1F46
:1026600084832196F0CF8AEB9DE00E94CF48F80149
:102670006481758186819781DF91CF911F910F9140
:102680000895CF92DF92EF92FF92CF93DF93EC0108
:10269000EC85FD85C080D180E280F3800E94141318
:1026A0009B01AC01C701B6010E947254EE85FF8503
:1026B00020813181428153810E94685268837983ED
:1026C0008A839B83DF91CF91FF90EF90DF90CF9033
:1026D00008950F931F93CF93DF93EC012FEF3FEFFC
:1026E000FC0121933193CF016EE273E00E94D15639
:1026F00040E050E060EE7FE34E8B5F8B688F798F18
:102700004DEC5CEC6CE47DE34A8F5B8F6C8F7D8FCE
:1027100040E050E060E271E44E8F5F8F68A379A3E0
:1027200040E050E060E272E44AA35BA36CA37DA3A7
:1027300040E050E060E772E44EA35FA368A779A78A
:102740001EA61FA618AA19AA40E050E060E470E493
:102750004AA75BA76CA77DA71AAA1BAA1CAA1DAA39
:1027600040E050E068E473E44EAB5FAB68AF79AF34
:102770001AAE1BAE1CAE1DAE80ED97E09FAF8EAFC4
:10278000FE01E05CFF4F00E010E020E031E4008358
:10279000118322833383349640835183628373830E
:1027A00034964083518362837383349640E050E0D3
:1027B00064E373E44083518362837383349640E01F
:1027C00050E060E773E44083518362837383CC5AA3
:1027D000DF4F4AE050E060E070E0488359836A834D
:1027E0007B83DF91CF911F910F9108956F927F921C
:1027F0008F929F92AF92BF92CF92DF92EF92FF9211
:102800000F931F93CF93DF93FC01EF54FF4F108280
:102810003196A2E0B0E0B183A083329643E353E364
:1028200063EF70E44083518362837383779628EE6D
:1028300033E031832083329620E137E231832083F5
:10284000329620EB34E031832083329620E530E06D
:1028500031832083799724E630E0318320833296D8
:1028600020E436E03183208332962BE430E031835C
:102870002083EC01C254DF4FE0EDF7E0F983E883F9
:1028800022962AE530E03983288322961882219601
:1028900025E530E039832883249620EA30E0398327
:1028A0002883229728E730E0398328832E961982DF
:1028B0001882229620E130E039832883229641E075
:1028C000488321964883219640E050E060E470E41C
:1028D000488359836A837B83249641E050E059837F
:1028E000488322963983288322961882219618825B
:1028F000219648E451EE6EEA70E4488359836A8376
:102900007B83249640E050E068E473E44883598375
:102910006A837B832496188219821A821B822496EA
:10292000B983A883DC01AF50BF4F11963C932E931F
:1029300012961C9211961C9211964DEC5CE46AE082
:1029400073E44D935D936D937C931397149640E0DD
:1029500050E06CE372E44D935D936D937C93139719
:10296000149640E050E06AEF71E44D935D936D93EF
:102970007C931397149640E050E060EF70E44D9321
:102980005D936D937C93139714964DEC5CE462E930
:1029900072E44D935D936D937C931397149649E283
:1029A0005CED67E972E44D935D936D937C931397AF
:1029B000149640E050E064E671E44D935D936D93AE
:1029C0007C931397149643E353E363E672E44D93C9
:1029D0005D936D937C93139714961196FC93EE93ED
:1029E000129640E050E068EC72E44D935D936D9375
:1029F0007C93139714961D921D921D921C9213970F
:102A000014964AE959E969E570E44D935D936D9335
:102A10007C93139714960AE919E929E13EE30D9393
:102A20001D932D933C93139714961D921D921D9206
:102A30001C921397149640EA56E861E070E04D93BB
:102A40005D936D937C9313971496C9E1D0E0CD9379
:102A5000DC937C01AFECEA1AAEEFFA0AA4E16A2E2D
:102A6000712CD7016D927C927C01BDECEB1ABEEF0C
:102A7000FB0ABCEFCB2EBFE0DB2ED701CD92DC9260
:102A80007C01BBECEB1ABEEFFB0AA2EAAA2EA6E27F
:102A9000BA2ED701AD92BC927C01B9ECEB1ABEEF15
:102AA000FB0AB5E0AB2EB12CD701AD92BC927C01F4
:102AB000B7ECEB1ABEEFFB0A812C912CAFE7AA2EE4
:102AC000A3E4BA2ED7018D929D92AD92BC9213973A
:102AD0007C01B3ECEB1ABEEFFB0AD7011D921D92ED
:102AE0001D921C9213977C01BFEBEB1ABEEFFB0A01
:102AF000812C912CB0E6AB2EB0E4BB2ED7018D9289
:102B00009D92AD92BC9213977C01BBEBEB1ABEEF8A
:102B1000FB0AD7010D931D932D933C9313979C01B2
:102B2000275B3E4FD9011D921D921D921C92139757
:102B30002C5F3F4FD901ED93FC93FC01E15BFE4F0D
:102B400040835183628373833496D183C0833296EA
:102B5000718260823296D182C082329626EB36E252
:102B600031832083329646EC54E464E17AE3408377
:102B7000518362837383349649EA54EA66EC7FE3B7
:102B80004083518362837383349640E050E06AE768
:102B900073E44083518362837383349642E050E050
:102BA00060E070E04083518362837383DF91CF9153
:102BB0001F910F91FF90EF90DF90CF90BF90AF905B
:102BC0009F908F907F906F9008950F931F93CF9356
:102BD000DF93EC016CE074E084E89EE00E946B50AF
:102BE000C055DF4F81E0888360E070E049918B0140
:102BF0000F5F1F4F8AE79EE00E94E84A0B3B1105DA
:102C000011F0B801F3CFDF91CF911F910F9108958B
:102C10000F931F93CF93DF938C0100551F4FC0E09C
:102C2000D0E0BE018AE79EE00E94E54AF801819368
:102C30008F012196CB3BD105A1F7DF91CF911F9159
:102C40000F910895EF92FF920F931F93CF93DF930D
:102C5000FC014081518168E5649F9001659F300DC2
:102C60001124B90165547F4FEC017901FDEEEF1A93
:102C7000FEEFFF0A49918B010F5F1F4F8AE79EE02D
:102C80000E94E84A0E151F0511F0B801F3CFDF913D
:102C9000CF911F910F91FF90EF900895EF92FF92C7
:102CA0000F931F93CF93DF937C018B01C0E0D0E0A3
:102CB000BE016E0D7F1D8AE79EE00E94E54AF80185
:102CC00081938F012196C835D10591F788E590E071
:102CD000DF91CF911F910F91FF90EF90089548E5FC
:102CE000469F9001479F300D1124BC01C9018554B6
:102CF0009F4F0E944E1608950F931F93CF93DF931B
:102D0000EC018B01BC01685A7F4F28E5249FC0016C
:102D1000259F900D112485549F4F0E944E16BE0191
:102D2000665A7F4FC801DF91CF911F910F910C948C
:102D3000D156EF92FF920F931F93CF93DF937C01B5
:102D40008C0105591E4FC0E0D0E0AE01B801C701AB
:102D50000E947C1621960C5E1F4FCA30D105A9F740
:102D6000DF91CF911F910F91FF90EF900895CF9336
:102D7000DF93EC010E949916CE01DF91CF910C9464
:102D80000816FC01778366836130710581F01CF4BD
:102D9000672B41F008956230710549F06330710589
:102DA00031F0089584E090E09183808308957183E9
:102DB000608308954F925F926F927F928F929F925D
:102DC000AF92BF92CF92DF92EF92FF920F931F9339
:102DD000CF93DF93CDB7DEB72E970FB6F894DEBF53
:102DE0000FBECDBFFC01CB01BA0162837383848324
:102DF0009583E080F18022E0E216F10409F083C0BF
:102E00002EE0EEECF2E0DE01119601900D922A9593
:102E1000E1F79B01AC010E9468522B013C01CE01FD
:102E200001967C015E019FE0A90EB11CF701C190E3
:102E3000D1907F01B601882777FD8095982F0E9459
:102E40006B539B01AC01C301B2010E9472549B0100
:102E5000AC0160E074E284E79BE40E94D05220E081
:102E600030E04FE753E40E94CC5287FD04C0EA14DF
:102E7000FB04E1F601C0860100341105E9F05CF4C1
:102E800008301105A9F000321105A1F0013011053B
:102E9000C9F481E018C00115F1E01F0779F00115B0
:102EA00024E0120769F00038110561F485E00BC0D9
:102EB00082E009C083E007C084E005C086E003C06B
:102EC00087E001C080E093E49093B0008860809335
:102ED000B100B801882777FD8095982F0E946B5329
:102EE0009B01AC01C301B2010E9472549B01AC0171
:102EF00060E074E284E79BE40E94D0520E943D535C
:102F00006093B300D0C02AE0ECEDF2E0DE01119650
:102F100001900D922A95E1F79B01AC010E94685245
:102F20002B013C01CE0101966C014E019BE0890E04
:102F3000911CF601A190B1906F01B501882777FD32
:102F40008095982F0E946B539B01AC01C301B20185
:102F50000E9472549B01AC0160E074E284E79BE440
:102F60000E94D05220E03FEF4FE757E40E94CC523E
:102F700087FD04C0C814D904E1F601C085010034FE
:102F80001105A1F03CF40130110571F00830110574
:102F9000A9F010C00115F1E01F0751F0011524E060
:102FA000120741F485E00DC081E00BC083E009C049
:102FB00084E007C017FD04C080E003C082E001C0C8
:102FC00087E093E0E916F10459F1E4E0EE16F1042C
:102FD00009F448C0EA94EF2809F065C093E490939F
:102FE0008000886180938100B801882777FD8095F3
:102FF000982F0E946B539B01AC01C301B2010E9448
:1030000072549B01AC0160E074E284E79BE40E948F
:10301000D0520E943853709389006093880043C057
:1030200093E490939000886180939100B801882781
:1030300077FD8095982F0E946B539B01AC01C301D3
:10304000B2010E9472549B01AC0160E074E284E71B
:103050009BE40E94D0520E94385370939900609371
:10306000980021C093E49093A00088618093A10010
:10307000B801882777FD8095982F0E946B539B019C
:10308000AC01C301B2010E9472549B01AC0160E02B
:1030900074E284E79BE40E94D0520E9438537093FC
:1030A000A9006093A8002E960FB6F894DEBF0FBE5D
:1030B000CDBFDF91CF911F910F91FF90EF90DF90E7
:1030C000CF90BF90AF909F908F907F906F905F90C8
:1030D0004F900895FC011082148213821582089586
:1030E000862F642F0C94384D862F642F0C94714DCD
:1030F000862F0C94A74D4F925F926F927F928F9282
:103100009F92AF92BF92CF92DF92EF920F93CF93A5
:10311000DF93EC014B013A01590102960E946A18B3
:1031200083E493E0998388836E018CE1C80ED11CFF
:1031300026018CE3480E511CC6010E946A1886E0E5
:10314000C80ED11CC414D504B9F7FE01EE59FF4FC7
:10315000718260823296B182A0823296008331966B
:10316000E08237979182808238968AE090E091835E
:103170008083329684EF91E091838083329611822E
:103180001082C45ADF4F188219821A821B82DF9183
:10319000CF910F91EF90DF90CF90BF90AF909F9025
:1031A0008F907F906F905F904F9008952F923F92F5
:1031B0004F925F926F927F928F929F92AF92BF9247
:1031C000CF92DF92EF92FF920F931F93CF93DF93F3
:1031D000CDB7DEB728970FB6F894DEBF0FBECDBFD0
:1031E00098878F83F12C4C0186E6880E911C0F8105
:1031F00018850E591F4FD4018C91F816A0F4AF8199
:10320000B8858D919C91F801A081B181AF0DB11D60
:10321000FC012081318142E06C918F819885F90118
:103220001995F394E8CF512CEF81F885E959FF4FB8
:10323000FA83E9830F8118850C591F4FC12CD12CBB
:103240007601C3948F8198858E599F4F9C838B8381
:10325000A981BA818C91581608F088C0A52CB12C90
:10326000AF81B8858D919C91F801A081B181AA0DA3
:10327000BB1DFC012081318141E06C918F819885DB
:10328000F9011995AF81B8858D919C91F801A081C4
:10329000B181AA0DBB1DFC012281338140E06C91FC
:1032A0008F819885F9011995D701C601052C04C0B5
:1032B000880F991FAA1FBB1F0A94D2F79C011C01FB
:1032C00020943094412CD4018C91EF81F885408179
:1032D0005181481648F5642C712CEB81FC81A0814A
:1032E000B181A60DB71DFA01448155816C918F8182
:1032F00098852D833E83FA011995660C771C2D81E4
:103300003E81EF81F885E60DF71D892B29F4808534
:103310009185822B932B04C08085918582219321F6
:10332000918780874394CFCFF801A081B181AA0D06
:10333000BB1DFA012281338141E06C918F81988518
:10334000F9011995AF81B8858D919C91F801A08103
:10335000B181AA0DBB1DFC012081318140E06C913F
:103360008F819885F9011995539472CF28960FB6DD
:10337000F894DEBF0FBECDBFDF91CF911F910F91AB
:10338000FF90EF90DF90CF90BF90AF909F908F9085
:103390007F906F905F904F903F902F900895FC0129
:1033A00080E090E0258D368D2617370739F001969D
:1033B00036968A309105B1F78FEF9FEF0895FC01A3
:1033C00026E0629FE00DF11D112450A3478F21E0FC
:1033D00021A3FC01E459FF4F0190F081E02D3097CB
:1033E00021F0DC015C968C9119940895CF92DF92C4
:1033F000FF920F931F93CF93DF931F92CDB7DEB74A
:103400006C01F62EFC0186E0689FE00DF11D112491
:1034100011A2878D90A181309105F1F01CF4892BC8
:1034200051F046C08230910599F1039709F040C0F0
:1034300040E050E031C04423D9F141E050E0C60102
:103440000E94DF190E94364BF601E85AFF4F608355
:103450007183828393832CC049830E94364BF6018B
:10346000E85AFF4F0081118122813381601B710B6B
:10347000820B930B72960081118120E030E049812C
:10348000061717072807390718F442E050E004C070
:1034900041110EC043E050E06F2DC6010F90DF9147
:1034A000CF911F910F91FF90DF90CF900C94DF1977
:1034B0000F90DF91CF911F910F91FF90DF90CF90F0
:1034C00008952F923F924F925F926F927F928F92C8
:1034D0009F92AF92BF92CF92DF92EF92FF920F93A3
:1034E0001F93CF93DF931F92CDB7DEB71C01FC0172
:1034F0004AE08FEF9FEF278D30A1232B21F4148E0C
:10350000968F858F11A2415036964111F4CF712CC0
:10351000610126E6C20ED11C510187E6A80EB11C3E
:103520004101A0E68A0E911C46E0442ED6018C9102
:10353000781608F055C0612C8101070D111D070D8B
:10354000111D085F1F4FF501E0806E1408F046C0A2
:10355000F80140815181062C02C0569547950A9486
:10356000E2F741707E9C70011124E60CF11CD4013D
:10357000ED91FC91EE0DFF1D5080B701C101498313
:103580000E94CF19498197FD02C0682F1BC0019688
:1035900019F5442309F180E090E060E070E0F1016A
:1035A000E80FF91F248D211111C0469EF001479E9E
:1035B000F00D1124E20DF31D548EF68EE58E10A24F
:1035C000178E41E0C1010E94F61906C06F5F7F4F60
:1035D00006966A30710519F76394B5CF7394A6CF38
:1035E00020E030E080E0F101E20FF31F91A19111A2
:1035F00081E02A5F3F4F2C333105A9F70F90DF910F
:10360000CF911F910F91FF90EF90DF90CF90BF90DF
:10361000AF909F908F907F906F905F904F903F9072
:103620002F900895CF92DF92EF92FF920F931F9306
:10363000CF93DF938C010E94364BE801C45ADF4FD1
:10364000C880D980EA80FB806C197D098E099F09AA
:10365000F801E859FF4FC080D180E12CF12CC6164B
:10366000D706E806F90670F4C8010E94D618C8010A
:103670000E94611A182F0E94364B688379838A83CF
:103680009B8301C010E0812FDF91CF911F910F919B
:10369000FF90EF90DF90CF900895CF93DF93EC01F0
:1036A0000E94121B882339F089A1882321F08F8D75
:1036B00098A1019711F080E001C08C8DDF91CF912E
:1036C00008950F931F93FC01518340837583648396
:1036D000358F248F178F068F158A148A81E090E02A
:1036E00097838683978B868B978786879387828736
:1036F0001F910F910895FC01CB010196208131812A
:10370000821793071CF08FEF9FEF0895A481B58176
:103710002EE0269FA001279F500D11249D01240F0C
:10372000351F2E5F3F4FF90165917491FD01E40F44
:10373000F51F7096259134916217730721F708954C
:1037400016161706E4F4FC01448155818EE0869F2D
:103750009001879F300D1124CA01820F931F02969A
:10376000FC01A591B491FA01E20FF31F3C978591FA
:103770009491A817B90719F4CB01019708958FEF19
:103780009FEF08954EE0469F9001479F300D112412
:10379000DC011496ED91FC911597E20FF31F329620
:1037A0008591949108954EE0469F9001479F300D7A
:1037B0001124DC011496ED91FC911597E20FF31F93
:1037C0003496859194910895CF93DF93EB016EE049
:1037D000649F9001659F300D1124DC011496ED91DA
:1037E000FC911597E20FF31F65917491CE010E9431
:1037F000CA56CE01DF91CF910895CF93DF93EC01AC
:103800006C857D857D8B6C8B888999896817790794
:1038100021F4CE010E94D31B03C0CE010E947B1B6A
:103820009F8B8E8B6E897F89CE010E947B1B998F27
:10383000888FBC01CE010E947B1B9B8F8A8FDF91FA
:10384000CF9108954EE0469F9001479F300D11247F
:10385000DC011496ED91FC911597E20FF31F3A9657
:103860008591949108954EE0469F9001479F300DB9
:103870001124DC011496ED91FC911597E20FF31FD2
:1038800038968591949108954EE0469F9001479F08
:10389000300D1124DC011496ED91FC911597E20F87
:1038A000F31F36968591949108950F931F93CF93AC
:1038B000DF938C01FC01628573850E94221C863097
:1038C0009105F9F0B4F4049709F075C0F801628528
:1038D0007385C8010E94441CEC01F8016285738560
:1038E000C8010E94441CFC01808191E089278883E3
:1038F00062C08A30910509F442C00C9709F43FC0B8
:103900005AC0F80162857385C8010E94441CFC01FD
:1039100080819181F801628573850B9794F4C801C9
:103920000E94441CEC01F80162857385C8010E9465
:10393000441CFC01208131812F5F3F4F3983288354
:103940003AC0C8010E94441CEC01F80162857385ED
:10395000C8010E94441CFC0160817181882777FDA9
:103960008095982F0E946B532DEC3CEC4CE85FE364
:103970000E9472540E943853798368831CC0F801F6
:1039800062857385C8010E94441CEC01F8016285C0
:103990007385C8010E94441C2DEC3CEC4CE85FE3AD
:1039A000FC0160817181828193810E9472546883DD
:1039B00079838A839B83DF91CF911F910F91089523
:1039C0000F931F93CF93DF938C01FC016285738566
:1039D0000E94221C86309105F9F0B4F4049709F096
:1039E00075C0F80162857385C8010E94441CEC0112
:1039F000F80162857385C8010E94441CFC01808126
:103A000091E08927888362C08A30910509F442C019
:103A10000C9709F43FC05AC0F80162857385C8014C
:103A20000E94441CFC0180819181F80162857385AC
:103A30000B9794F4C8010E94441CEC01F8016285C4
:103A40007385C8010E94441CFC01208131812150F2
:103A50003109398328833AC0C8010E94441CEC0113
:103A6000F80162857385C8010E94441CFC016081D5
:103A70007181882777FD8095982F0E946B532DECDC
:103A80003CEC4CE85FE30E94D0520E9438537983AB
:103A900068831CC0F80162857385C8010E94441CBC
:103AA000EC01F80162857385C8010E94441C2DEC6D
:103AB0003CEC4CE85FE3FC01608171818281938181
:103AC0000E94D052688379838A839B83DF91CF9150
:103AD0001F910F910895EF92FF920F931F93CF9331
:103AE000DF93EC018B017A010E94221C8830910542
:103AF00009F454C0ACF484309105D9F1069709F06B
:103B00007AC0B801CE010E94441CEC01F70160812B
:103B10007181828193810E943853798368836BC05D
:103B20008C30910509F44BC08E30910509F456C0D4
:103B30000A9709F060C0B801CE010E94441CF70149
:103B40004081518162817381FC0140835183628392
:103B50007383B801CE010E94441CFC014081518155
:103B60006281738122E030E084E89EE00E9454523A
:103B700026C0B801CE010E94441CEC0111E020E0F7
:103B800030E0A901F70160817181828193810E94F7
:103B9000CC52811101C010E018832DC0B801CE01B4
:103BA0000E94441CEC01F701608171818281938144
:103BB0000E943D53688379838A839B831CC0B8012C
:103BC000CE010E94441CF7014081518162817381C2
:103BD000FC0140835183628373830DC0B801CE0121
:103BE0000E94441CB701DF91CF911F910F91FF906C
:103BF000EF900C94D156DF91CF911F910F91FF90D0
:103C0000EF9008952F923F924F925F926F927F9222
:103C10008F929F92AF92BF92CF92DF92EF92FF92DC
:103C20000F931F93CF93DF93CDB7DEB7A8970FB64F
:103C3000F894DEBF0FBECDBF8C015B010E94221C39
:103C400001978F30910508F043C08E589F4FFC01BB
:103C50000C946656B501C8010E94441CDC016C91AD
:103C600070E080E090E019C0B501C8010E94441CDA
:103C7000FC0160817181882777FD8095982F0E94D3
:103C80006B536B017C0124C0B501C8010E94441C28
:103C9000DC016D917D918D919C910E946953F1CFD2
:103CA000B501C8010E94441CFC01C080D180E280A3
:103CB000F3800EC0B501C8010E94441CFC01DC0168
:103CC0000D900020E9F7CD0101978E1B9F0B5AC084
:103CD00084E2E6EEF2E0DE01119601900D928A9503
:103CE000E1F720E030E0A901C701B6010E946E545F
:103CF00026013701181624F077FA709477F870943B
:103D00001E01B5E02B0E311C88248394912CF10107
:103D100021913191419151911F01C301B2012DA314
:103D20003EA34FA358A70E943D532DA13EA14FA1F2
:103D300058A50E944456232B242B252B39F0FFEF46
:103D40008F1A9F0A89E08816910409F720E030E075
:103D5000A901C701B6010E94CC5287FF03C0AFEF93
:103D60008A1A9A0AB501C8010E94331C181619064E
:103D700044F4B501C8010E94331C880D991D0196B9
:103D800001C0C401A8960FB6F894DEBF0FBECDBF28
:103D9000DF91CF911F910F91FF90EF90DF90CF9027
:103DA000BF90AF909F908F907F906F905F904F905B
:103DB0003F902F9008952F923F924F925F926F9273
:103DC0007F928F929F92AF92BF92CF92DF92EF92AB
:103DD000FF920F931F93CF93DF93CDB7DEB7AA97D0
:103DE0000FB6F894DEBF0FBECDBF8C016B017A0118
:103DF000BA010E94221C01978F30910508F0A8C1DA
:103E00008F579F4FFC010C946656B701C8010E9462
:103E1000441CFC018081882311F081E301C080E310
:103E2000F601808395C1B701C8010E94441C4AE095
:103E300050E0B601FC01808191817FC1B701C801CA
:103E40000E94441CFC012081318142815381B701D1
:103E5000C8012FA338A749A75AA70E94441CFC01F8
:103E600080809180A280B38081E02FA138A549A5F0
:103E70005AA5211531054105510509F080E000E002
:103E800010E0E82EF12C6AE0462E512C612C712CAA
:103E9000C8018E0D9F1D0F5F1F4F21153105410574
:103EA000510539F0CA01B901A30192010E9444569B
:103EB000EFCF7601E80EF91EF7011082C501B401BB
:103EC0002AE030E040E050E00E94445629013A01E7
:103ED000AAE0B0E00E94735695018401061B170BFF
:103EE000280B390BB901A8010A301105210531054C
:103EF00010F480E30AC0D901C8010A97A109B109E9
:103F00000697A105B10528F487E3840FF701829392
:103F10007F01411451046104710409F419C1530172
:103F20004201CCCF84E2EAE0F3E0DE011196019099
:103F30000D928A95E1F7B701C8010E94441CFC016B
:103F400060817181828193810E9438532B013C01F1
:103F50004AE050E0B601C2010E94D856C6015C0199
:103F60000196F50120812111FACFB701C8010E9405
:103F7000331C892B09F4ECC01501FFEF2F1A3F0AFF
:103F80008EE2F5018083B701C8010E94441C5C01E8
:103F9000C301B2010E946B532B013C019B01AC0198
:103FA000F50160817181828193810E9467524B018A
:103FB0005C01B701C8010E94331CFC01EE0FFF1F1A
:103FC000EE0FFF1F21E030E02C0F3D1FE20FF31F2B
:103FD00060817181828193810E946B539B01AC014E
:103FE000C501B4010E94725420E030E0A9010E9492
:103FF0006E54B701181684F5C8010E94441CA30131
:104000009201FC0160817181828193810E946752DB
:104010004B015C01B701C8010E94331CFC01EE0F8B
:10402000FF1FEE0FFF1F21E030E02C0F3D1FE20FBE
:10403000F31F60817181828193810E946B539B0188
:10404000AC01C501B4010E94725420E030E040E0B0
:104050005FE30E94685231C0C8010E94441CA30162
:104060009201FC0160817181828193810E9467527B
:104070004B015C01B701C8010E94331CFC01EE0F2B
:10408000FF1FEE0FFF1F21E030E02C0F3D1FE20F5E
:10409000F31F60817181828193810E946B539B0128
:1040A000AC01C501B4010E9472549B01AC0160E0F7
:1040B00070E080E09FE30E9467520E94A6530E9436
:1040C00038532B013C017EA36DA3B701C8010E94A8
:1040D000331CB101AC01440F551F440F551FE1E0E3
:1040E000F0E0EC0FFD1F4E0F5F1F20E030E0EDA170
:1040F000FEA17F010027F7FC0095102FA0E3FA0135
:10410000E20FF31F349780809180A280B3808E14D9
:104110009F04A006B10644F40DA11EA1012BC1F01D
:104120004AE050E0C20109C024503109019797FDCF
:10413000F3CFFB01A193BF01E2CF0E94D85608C084
:10414000B701C8010E94441CBC01C6010E94D1569F
:10415000C601AA960FB6F894DEBF0FBECDBFDF91A1
:10416000CF911F910F91FF90EF90DF90CF90BF9074
:10417000AF909F908F907F906F905F904F903F9007
:104180002F9008952F923F924F925F926F927F925D
:104190008F929F92AF92BF92CF92DF92EF92FF9257
:1041A0000F931F93CF93DF93EC018C8D9D8D0E9415
:1041B000E8468E01C12CD12C7E012BE4E20EF11CCD
:1041C00070E2372EE4E14E2E512C5E018CE4A80EF5
:1041D000B11CFEE32F2EF801848995898F3FFFEFF4
:1041E0009F0709F474C0288939892817390769F0AD
:1041F0002A853B85F7012817390721F42082DB82C5
:10420000CA8201C03082B50101C0B701F8014489FA
:104210005589CE010E94E41BF80164897589FEE08E
:10422000F69FC001F79F900D1124EC81FD81E80FEE
:10423000F91F369685919491892BF1F1F7013F0191
:104240006E187F0881918111FACFCE010E94021E63
:104250004C01F80164897589CE010E94221C0197E6
:10426000C1F0F80164897589CE010E94221C892B56
:1042700081F0B20168197909661677069CF4FE018F
:10428000E60DF71DE55BFF4F3082FFEF6F1A7F0AE7
:10429000F3CFFE01E60DF71DE55BFF4F3082B30162
:1042A0006F5F7F4FF80144895589655B7F4F6C0FC5
:1042B0007D1FCE010E94DB1E4C2D60E08C8D9D8DFC
:1042C0000E94EF46B7018C8D9D8D0E944E50FFEFEE
:1042D000CF1ADF0A0E5F1F4F24E0C216D10409F087
:1042E0007ACFDF91CF911F910F91FF90EF90DF90E8
:1042F000CF90BF90AF909F908F907F906F905F9086
:104300004F903F902F900895CF93DF93EC016A85F3
:104310007B858C859D8568177907A9F4CE010E945D
:10432000A01B2E813F8182179307F9F06A857B8558
:1043300062177307D1F0CE010E94A01B9D878C8766
:104340006A857B8505C08E819F816817790729F072
:10435000CE010E94A01B9B878A87CE010E94FD1B75
:10436000CE01DF91CF910C94C220888999899D87D5
:104370008C873B872A87F1CFCF93DF93EC016A8D3F
:104380007B8D8A859B856817790729F4CE010E9469
:104390007B1B0196B1F46A857B85CE010E947B1B55
:1043A000019639F06A857B85CE010E947B1B9B8735
:1043B0008A87CE010E94FD1BCE01DF91CF910C9424
:1043C000C2206C857D85888999896817790719F4D9
:1043D0008E819F8103C0CE010E947B1B9D878C87AD
:1043E000E1CFCF93DF93EC01688979890E94C21BEA
:1043F00068897989019681F0CE010E94C21B998B50
:10440000888B9D878C87BC01CE010E94D31B9F8324
:104410008E839B878A8717C08EE0869F9001879F37
:10442000300D11248C819D81820F931F0C96FC010D
:1044300025913491232B39F0FC0125913491F90118
:10444000DF91CF911994CE010E94FD1BCE01DF9127
:10445000CF910C94C220CF93DF93EC0181E090E0E8
:104460009F838E831D861C869B878A871D8A1C8A54
:104470009F8B8E8B61E070E0CE010E947B1B998F39
:10448000888FBC01CE010E947B1B9B8F8A8FCE013F
:10449000DF91CF910C94C2207F928F929F92AF9226
:1044A000BF92CF92DF92EF92FF920F931F93CF9321
:1044B000DF93CDB7DEB7AE970FB6F894DEBF0FBE71
:1044C000CDBF8C01DC011A966D917C911B970E94E7
:1044D000021E6C0164E1681BF8014281848D958D98
:1044E0000E94EF46E12CF12CEC14FD048CF4D80171
:1044F0005C968D919C915D97DC01ED91FC91019012
:10450000F081E02D60E21995BFEFEB1AFB0AECCFCA
:10451000F80142855385CE0101967C01BC01C8019A
:104520000E94E41BF70101900020E9F7BE2EBE189F
:10453000B394B394D80112964C9112976B2D5C965C
:104540008D919C915D970E94EF46F801848D958D29
:104550000E94F147882483947E01F6E1EF0EF11C5E
:104560006701ADE2AA2EBEE29B2ED8015E968D9128
:104570009C915F970E944D1BF80180A384E89EE008
:104580000E94D04D181619063CF484E89EE00E9463
:10459000E94DD80190968C93F80160A1662329F328
:1045A0006A3364F460330CF0AEC06D3209F47CC041
:1045B0006E3209F48FC06A32C1F68CC0623409F4DD
:1045C00073C0643419F0613481F626C0B60184E802
:1045D0009EE00E947D50EC14FD04D1F0C6010E94C3
:1045E000C656AB01BC014BA75CA76DA77EA722E016
:1045F00030E084E89EE00E945452D8011A966D91F2
:104600007C911B97AE01455D5F4FC8010E946B1DF9
:10461000F801848D958D2FC0848D958DCE14DF0487
:1046200050F5B1E0EB1AF108B7016C197D097B2C4C
:10463000760EF8014281672D0E94EF46D8015C9604
:104640008D919C915D97DC01ED91FC910190F08141
:10465000E02D60E21995F8014281672D848D958DDA
:104660000E94EF46D7018C918E3211F488248394F6
:10467000F70110827ACF0E94EA47C8010E94C22047
:10468000AE960FB6F894DEBF0FBECDBFDF91CF91CF
:104690001F910F91FF90EF90DF90CF90BF90AF9060
:1046A0009F908F907F900895EC14FD0409F05DCFEA
:1046B000AE8AD8015C968D919C915D97DC01ED915D
:1046C000FC910190F081E02D6DE21995FE01779645
:1046D0007F014BCFC7018C199D0943970CF045CF43
:1046E000882009F442CFD7019D927D01F801848D85
:1046F000958DDC01ED91FC910190F081E02D6EE251
:104700001995812C32CFC7018C199D0944970CF063
:104710002CCFF70161937F01D8015C968D919C911C
:104720005D97DC01ED91FC910190F081E02D1995F0
:104730001CCF9F92AF92BF92CF92DF92EF92FF92E7
:104740000F931F93CF93DF93CDB7DEB72E970FB69E
:10475000F894DEBF0FBECDBF8C01DC0112964C91E8
:10476000129766E05C968D919C915D970E94EF4652
:104770004EE0E42EF12CF801848D958DDC01ED9155
:10478000FC910190F081E02D60E21995B1E0EB1A07
:10479000F10889F7F801428166E0848D958D0E94C9
:1047A000EF46D8015C968D919C915D97DC01ED916F
:1047B000FC910190F081E02D60E41995F8014281AF
:1047C00066E0848D958D0E94EF46D8015C968D91B0
:1047D0009C915D970E94F14726E0E22EF12C30E497
:1047E000932EFE0131966F015F01D8015E968D9187
:1047F0009C915F970E944D1BF80180A384E89EE086
:104800000E94D04D181619063CF484E89EE00E94E0
:10481000E94DD80190968C93F80180A1882329F363
:104820008234A9F034F4833209F475C0813439F04C
:10483000DCCF8334E1F0843409F440C0D6CFFDE707
:10484000F91514F093940AC090E2992E07C0F0E293
:10485000F91514F49A9402C08EE7982E692DD801A8
:104860005C968D919C915D970E9450504CC0F4E1F4
:10487000EF16F1040CF0B9CF80E4981609F4B5CF27
:10488000D6019D926D01BFEFEB1AFB0AF801848DF2
:10489000958DDC01ED91FC910190F081E02D692D69
:1048A0001995F80142816E2D848D958D0E94EF46F9
:1048B000D8015C968D919C915D971DC0848D958DDE
:1048C000AC14BD04B0F5DC01ED91FC910190F081D8
:1048D000E02D60E21995B1E0EB1AF108F801428190
:1048E0006E2D848D958D0E94EF46D6019E906D01B0
:1048F000F801848D958DDC01ED91FC910190F081A2
:10490000E02D692D1995F80142816E2D848D958DCC
:104910000E94EF466ACFD6011C92F801628573852A
:10492000A501C8010E946B1DD8015C968D919C91D8
:104930005D970E94EA47C8010E94C2202E960FB6DA
:10494000F894DEBF0FBECDBFDF91CF911F910F91C5
:10495000FF90EF90DF90CF90BF90AF909F90089521
:10496000CF93DF93EC016A857B850E94221C02971E
:104970008D30910570F480579F4F6A857B85FC01CF
:104980000C946656CE010E944C2203C0CE010E94B8
:1049900099238A859B854EE0489F9001499F300D61
:1049A00011248C819D81820F931F0C96FC0125910F
:1049B0003491232B29F0FC0125913491F9011995AB
:1049C0006A857B85CE010E94221C892B39F06A857D
:1049D0007B85CE010E94221C0197E1F46A857B85CC
:1049E000CE010E94D31B0196A9F06A857B85798B45
:1049F000688B7D876C87CE010E94D31B9B878A873B
:104A00009F838E83CE010E94FD1BCE01DF91CF914B
:104A10000C94C220DF91CF9108952F923F924F9234
:104A20005F926F927F928F929F92AF92BF92CF923E
:104A3000DF92EF92FF920F931F93CF93DF9300D0FB
:104A40001F92CDB7DEB74C017C836B83FB01E75A25
:104A5000FE4FA080B1803297C080D1803297E08035
:104A6000F180329700811181349720813181428118
:104A7000538160E070E00E94B13134018EE2680E33
:104A8000711C2B803C809BEB291A9EEF390AF101A7
:104A9000A080B180C280D3808B819C818F5B9E4F30
:104AA0009A838983FC01E080F180028113812B814C
:104AB0003C81285B3F4FA40145595F4F1F921F92D5
:104AC0004B805C80F7EB4F1AFEEF5F0AF2018381A7
:104AD0008F9382818F9381818F9380818F93B40193
:104AE000C3010E945C2B5401F1E7AF0EB11CEB81B6
:104AF000FC81E95CFE4F80819181F5019183808387
:104B00003A978B819C8191838083D401A759BF4FB1
:104B1000FC01E35BFE4F1196FC93EE9316968D928B
:104B20009C9260817181C3010E94002AF201C080C1
:104B3000D180E280F380F1010081118122813381F3
:104B4000E981FA814081518162817381C3010E94B0
:104B50004D29EB81FC81E75CFE4F008111812281B0
:104B60003381EB81FC81E35CFE4F408151816281A6
:104B70007381C3010E944E2A61E070E0C3010E946C
:104B80000A2B0F900F900F900F900F900F9061E0F5
:104B9000F50180810F900F900F900F90DF91CF91D2
:104BA0001F910F91FF90EF90DF90CF90BF90AF904B
:104BB0009F908F907F906F905F904F903F902F903D
:104BC0000C94384DCF93DF93EC010E94364B6093E9
:104BD0007C0570937D0580937E0590937F05CE01C3
:104BE0000E94F73240917C0550917D0560917E05D1
:104BF00070917F058091780590917905A0917A0553
:104C0000B0917B0584179507A607B70788F5CE01F5
:104C10008E960E942D28FE01E559FF4F608171811B
:104C2000828193810E943853FE01EF58FF4F8081AB
:104C30000E941E4CC759DF4FE881F9818081918124
:104C4000AA2797FDA095BA2F40917C0550917D052C
:104C500060917E0570917F05840F951FA61FB71F79
:104C60008093780590937905A0937A05B0937B059E
:104C7000DF91CF910895CF92DF92EF92FF920F9341
:104C80001F93CF93DF93EC016A017B018C01025DDE
:104C90001F4FC8010E94C92B019729F460E070E002
:104CA000C8010E940A2B20E030E0A901C701B6012B
:104CB0000E94CC5287FD11C020E030E04FE753E462
:104CC000C701B6010E946E54181654F4C12CD12CA1
:104CD0008FE7E82E83E4F82E03C0C12CD12C760197
:104CE000C559DF4FC882D982EA82FB82DF91CF911A
:104CF0001F910F91FF90EF90DF90CF9008958E96C7
:104D00000C940A2BFC01E559FF4F1082118212828C
:104D10001382369660E070E080810C941E4CFC019A
:104D2000608171818281938108956F927F928F92C9
:104D30009F92AF92BF92CF92DF92EF92FF920F932A
:104D40001F93CF93DF934C01EB01FB01E352FF4F25
:104D50004081518102960E94DB30340186E1680E69
:104D6000711CBE01C3010E940913AAA4BBA4CCA458
:104D7000DDA4EEA4FFA408A919A99E012A5E3F4F55
:104D8000A4014C5F5F4F1F9281E08F938DA98F9399
:104D90008CA98F938BA98F938AA98F93B301C40198
:104DA000C6960E945C2BF401D183C083ED58FF4F5F
:104DB000EE96D183C0830F900F900F900F900F90BD
:104DC0000F90DF91CF911F910F91FF90EF90DF90A7
:104DD000CF90BF90AF909F908F907F906F900895ED
:104DE00002960C945830C6960C940A2BCF92DF9200
:104DF000EF92FF920F931F93DC01ED91FC91C2A8FB
:104E0000D3A8E4A8F5A802A513A524A535A546A511
:104E100057A560A971A9C6960E944D291F910F91AF
:104E2000FF90EF90DF90CF90089502960C9497300A
:104E300002960C945E3087589F4FFC01608171810F
:104E4000828193810895CF93DF93EC01FC01E758B1
:104E5000FF4F10821182128213820E94364BCF576D
:104E6000DF4F688379838A839B83DF91CF91089595
:104E70002F923F924F925F926F927F928F929F926A
:104E8000AF92BF92CF92DF92EF92FF920F931F9358
:104E9000CF93DF93EC010E94364B8E0103581F4FD6
:104EA000D8016D937D938D939C931397DE01ED91C3
:104EB000FD915D01ED51FF4F408051806280738014
:104EC000CD010E9458309B01AC01F801C080D18017
:104ED000E280F3804E01F9E78F0E911CC301B2010D
:104EE0000E9472549B01AC010E9468522BED3FE07E
:104EF00049E450E40E94725420E030E040E752E47C
:104F00000E94D0522B013C011E0121E8220E311CCF
:104F1000F10180819181A281B381A7019601281BB3
:104F2000390B4A0B5B0BCA01B9010E9469539B0103
:104F3000AC01C301B2010E94725420E030E04AE7A4
:104F400054E40E94D0529B01AC01D4016D917D913B
:104F50008D919C910E946852F401608371838283D9
:104F600093834E01F5E78F0E911CF40180819181AE
:104F7000A281B381C816D906EA06FB0678F1CE01F4
:104F800046960E9441137E01F6E3EF0EF11CC70125
:104F90000E94C92B019751F4C7010E942D284C8112
:104FA0005D816E817F81C5010E942330CD58DF4F26
:104FB000E881F98180819181AA2797FDA095BA2F78
:104FC000F8014081518162817381840F951FA61F72
:104FD000B71FF40180839183A283B383F80180819A
:104FE0009181A281B381F10180839183A283B383F4
:104FF000DF91CF911F910F91FF90EF90DF90CF90B5
:10500000BF90AF909F908F907F906F905F904F90E8
:105010003F902F9008950F931F93CF93DF9300D06D
:105020001F92CDB7DEB78C0149835A836B837C8393
:105030000E94382749815A816B817C81C801029680
:105040000F900F900F900F90DF91CF911F910F91C4
:105050000C94233002960C9472312F923F924F920F
:105060005F926F927F928F929F92AF92BF92CF92F8
:10507000DF92EF92FF920F931F93CF93DF93CDB701
:10508000DEB72B970FB6F894DEBF0FBECDBF9B8760
:105090008A87DC01D896BC91B983B11102C019820C
:1050A000E2C00E94364B6A837B838C839D83EA85B2
:1050B000FB8580A191A1A2A1B3A14A815B816C81F2
:1050C0007D81481B590B6A0B7B0B84A595A5A6A572
:1050D000B7A5481759076A077B0708F3028CF38DB9
:1050E000E02D80809180A280B380AA85BB855E96EA
:1050F000ED91FC915F97A50194016081718182819E
:1051000093810E9467522B013C01EA85FB8520892F
:105110003189428953890E947254AA85BB8594962D
:105120002D913D914D915C9197970E9468526B0132
:105130007C01EA85FB8564A375A386A397A324A8B5
:1051400035A806A917A99101A8010E946E54181646
:105150001CF4C101D80118C0AA85BB85D0968D91D9
:105160009D910D90BC91A02D8E839F83A887B987B8
:105170009C01AD01C701B6010E94CC5287FF0AC055
:105180008E819F81A885B985EA85FB8584A395A337
:10519000A6A3B7A3AA85BB851C962D913D914D91E1
:1051A0005C911F97C301B2010E947254EA85FB858E
:1051B00024A135A146A157A10E9468526B017C0130
:1051C000AA85BB8598962D913D914D915C919B97B9
:1051D000C501B4010E946752EA85FB85248935899F
:1051E000468957890E9472549B01AC01C701B601E0
:1051F0000E9467526B017C019101A8010E946E54CC
:105200001816BCF0AA85BB85D0962C90D097D19665
:105210003C90D197D2960C91D297D3961C91910144
:10522000A801B601C7010E94CC5287FD02C0160139
:105230008701AA85BB855C96ED91FC915D97C101C4
:10524000D80180839183A283B383EA85FB8580A6FE
:1052500091A6A2A6B3A68A819B81AC81BD8180A3C1
:1052600091A3A2A3B3A389812B960FB6F894DEBFB6
:105270000FBECDBFDF91CF911F910F91FF90EF90A7
:10528000DF90CF90BF90AF909F908F907F906F9066
:105290005F904F903F902F9008952F923F924F92A2
:1052A0005F926F927F928F929F92AF92BF92CF92B6
:1052B000DF92EF92FF920F931F93CF93DF9300D073
:1052C0001F92CDB7DEB71C012A013B0148015901ED
:1052D00020E030E0A901C301B2010E94CC5287FD59
:1052E00078C020E030E0A901C501B4010E94CC5291
:1052F00087FD6FC020E030E0A901C701B6010E9420
:10530000CC5287FD66C0F101408251826282738275
:1053100084829582A682B782C086D186E286F38691
:1053200064A575A586A597A50E94695320E030E085
:105330004AE754E40E94D05269837A838B839C832A
:10534000F10144865586668677869B01AC01C501CE
:10535000B4010E9472544B015C01F101608B718BAE
:10536000828B938B29813A814B815C81C701B60185
:105370000E94D0526B017C01F101648B758B868B8E
:10538000978B808D918D019721F5A301920160E0AB
:1053900070E0CB010E946752F101648775878687B0
:1053A0009787A501940160E070E0CB010E946752ED
:1053B000F101608B718B828B938BA701960160E06A
:1053C00070E0CB010E946752F101648B758B868B74
:1053D000978B0F900F900F900F90DF91CF911F91AF
:1053E0000F91FF90EF90DF90CF90BF90AF909F9084
:1053F0008F907F906F905F904F903F902F90089587
:105400008F929F92AF92BF92CF92DF92EF92FF92D4
:10541000CF93DF93EC0116161706ACF56B01EE2463
:10542000D7FCE094FE2CC701B6010E946B534B01E0
:105430005C016CA57DA58EA59FA50E9469539B016B
:10544000AC01C501B4010E94D0524B015C019B012B
:10545000AC01688979898A899B890E947254688B1A
:10546000798B8A8B9B8BA50194016C897D898E89B0
:105470009F890E94D0526C8B7D8B8E8B9F8BCCA68C
:10548000DDA6EEA6FFA6DF91CF91FF90EF90DF9013
:10549000CF90BF90AF909F908F9008952F923F92A2
:1054A0004F925F926F927F928F929F92AF92BF9234
:1054B000CF92DF92EF92FF920F931F93CF93DF93E0
:1054C000EC016A017B0148015901A9019801C7015A
:1054D000B6010E946E5487FF4EC0C8AAD9AAEAAA94
:1054E000FBAA8CAA9DAAAEAABFAA88AD882309F4FC
:1054F00042C02C8C3D8CF1014080518062807380D1
:10550000A5019401C301B2010E946E54181634F42F
:10551000F10180829182A282B3820DC0A70196011F
:10552000C301B2010E94CC5287FF05C0F101C082C5
:10553000D182E282F3828CA09DA0AEA0BFA0CCA8B5
:10554000DDA8EEA8FFA8A7019601C501B4010E943D
:105550006E54181664F0C8A8D9A8EAA8FBA8A70139
:105560009601C501B4010E94CC5287FF04C0CCA2B1
:10557000DDA2EEA2FFA2DF91CF911F910F91FF90CC
:10558000EF90DF90CF90BF90AF909F908F907F90E3
:105590006F905F904F903F902F9008958F929F92C1
:1055A000AF92BF92CF92DF92EF92FF92CF93DF93B1
:1055B000EC01EC8DFD8DC080D180E280F380CCA227
:1055C000DDA2EEA2FFA28CA89DA8AEA8BFA8A5014F
:1055D0009401C701B6010E946E54181664F088A8A1
:1055E00099A8AAA8BBA8A5019401C701B6010E9469
:1055F000CC5287FF04C08CA29DA2AEA2BFA2DF91B5
:10560000CF91FF90EF90DF90CF90BF90AF909F90A1
:105610008F9008951F93CF93DF93EC0111E06130D9
:10562000710509F010E088AD91E08927181303C0D7
:10563000CE010E94CE2A18AFDF91CF911F9108951D
:105640000F931F93CF93DF93EC018B0188AD8823D9
:1056500061F1888D998D6817790739F12C853D8521
:105660004E855F8560E070E0CB010E9467526C87D9
:105670007D878E879F87288939894A895B8960E081
:1056800070E0CB010E946752688B798B8A8B9B8B71
:105690002C893D894E895F8960E070E0CB010E94D2
:1056A00067526C8B7D8B8E8B9F8B198F088FDF9150
:1056B000CF911F910F9108954F925F926F927F92B9
:1056C0008F929F92AF92BF92CF92DF92EF92FF9212
:1056D0000F931F93CF93DF9300D01F92CDB7DEB708
:1056E0004C0127013801A982BA82CB82DC82FC01FD
:1056F000558F448F738F628F378F268F10AE10AA0D
:1057000011AA12AA13AA80E090E0AFE7B3E484AB39
:1057100095ABA6ABB7AB84E690E0A0E0B0E084A781
:1057200095A7A6A7B7A76C8D7D8DC4010E94202BDD
:10573000C88CD98CEA8CFB8C09811A812B813C8125
:10574000B301A201C4010E944D290E94364BF4010D
:1057500044A455A466A477A4641975098609970919
:1057600060A371A382A393A30F900F900F900F904B
:10577000DF91CF911F910F91FF90EF90DF90CF902D
:10578000BF90AF909F908F907F906F905F904F9061
:105790000895FC0180AD90E00895FC0181E08683CE
:1057A0007183608353834283358324830895CF9329
:1057B000DF93EC010E94364B69AB7AAB8BAB9CABB1
:1057C0008A819B810E949712E881F981E05BFF4FFB
:1057D00020813181428153810E946E54181664F4F5
:1057E00069E473E0CE0107960E94D1566EE573E03E
:1057F000CE014C960E94D1568A819B810E949712BD
:10580000E881F981ED59FE4F208131814281538138
:105810000E946E54181664F461E773E0CE01079697
:105820000E94D1566EE573E0CE014C960E94D1568F
:105830008C819D810E948F26E881F981E05BFF4F7A
:1058400020813181428153810E946E54181664F484
:1058500065E873E0CE0107960E94D1566AE973E0CD
:10586000CE014C960E94D1568C819D810E948F263C
:10587000E881F981ED59FE4F2081318142815381C8
:105880000E946E54181674F46CEA73E0CE01079609
:105890000E94D1566EE573E0CE014C96DF91CF9118
:1058A0000C94D156DF91CF9108954F925F926F92F1
:1058B0007F928F929F92AF92BF92CF92DF92EF92A0
:1058C000FF920F931F93CF93DF938C01EB017A012B
:1058D000FB01E151FF4F4081518180960E94DB30F6
:1058E000D8011196FC92EE921E96ED91FC911F97B5
:1058F00086899789A08DB18DF80186839783A087CB
:10590000B187D787C687FE01ED51FF4F8080918018
:10591000A280B380349760817181882777FD80955C
:10592000982F0E946B536B017C01FE01EB50FF4FDF
:105930002081318142815381C501B4010E9472549A
:105940002B013C01FE01EF50FF4F608171818827E0
:1059500077FD8095982F0E946B539B01AC01C3018A
:10596000B2010E9472542B013C01FE01EF5FFE4F19
:105970002081318142815381C701B6010E94725456
:105980009B01AC01C301B2010E94D052D8015096D4
:105990006D937D938D939C935397FE01E350FF4F3E
:1059A0002BED3FE049E450E4608171818281938175
:1059B0000E9472549B01AC016E897F89888D998DFC
:1059C0000E94D052F801648B758B868B978BC750E1
:1059D000DF4F688179818A819B819B01AC010E94A4
:1059E0007254D80158966D937D938D939C935B97D9
:1059F0002BED3FE049E450E4C501B4010E9472542C
:105A00004B015C0120E030E048EC52E4C701B601F4
:105A10000E9472549B01AC01C501B4010E94D05296
:105A2000F801648F758F868F978FDF91CF911F91CB
:105A30000F91FF90EF90DF90CF90BF90AF909F902D
:105A40008F907F906F905F904F9008954F925F92EC
:105A50006F927F928F929F92AF92BF92CF92DF927E
:105A6000EF92FF920F931F93CF93DF938C01FC0172
:105A7000C685D785FE01ED51FF4F80809180A280C1
:105A8000B380349760817181882777FD8095982F46
:105A90000E946B536B017C01FE01EB50FF4F208194
:105AA000318142815381C501B4010E9472542B019E
:105AB0003C01FE01EF50FF4F60817181882777FD27
:105AC0008095982F0E946B539B01AC01C301B201DA
:105AD0000E9472542B013C01FE01EF5FFE4F2081BA
