:100000000C94D00D0C94010E0C94010E0C94010E66
:100010000C94010E0C94010E0C94010E0C94010E24
:100020000C94010E0C94010E0C94010E0C94010E14
:100030000C94010E0C94010E0C94010E0C94010E04
:100040000C94010E0C94010E0C94010E0C94010EF4
:100050000C94010E0C94010E0C94010E0C94484665
:100060000C94010E0C94944A0C94CA4A0C94010E00
:100070000C94010E0C94010E0C94010E0C94010EC4
:100080000C94010E0C94010E0C94010E0C94010EB4
:100090000C94010E0C94010E0C94010E0C94791129
:1000A0000C94010E0C94010E0C94010E0C94010E94
:1000B0000C94010E0C94010E0C94010E0C94010E84
:1000C0000C94010E0C94010E0C94010E0C94010E74
:1000D0000C94010E0C94010E0C94010E0C94010E64
:1000E0000C94010E42324F324F32163216321F320A
:1000F0001F322E322E3239323932393239324232CF
:10010000423274347B347B34E932E932F632F632EF
:10011000FF32FF327133713371337133743474349D
:10012000A238A738A238A738A238A738A238A738EB
:10013000A238A738A238A738A5389C47A147A647B8
:10014000B047BA473348C447CC47D447DE47E847AF
:10015000F24701480B48334815481F48294854487E
:10016000574846484A4850488E485B485F4865486B
:1001700069486D48734877487B488E488148854870
:1001800089484229204E6F00412920596573005348
:100190006176652053657474696E67733F006D699D
:1001A00063726F737465702073657474696E6773BE
:1001B0000074686520776972696E6720616E6400FB
:1001C0006D616B652031207265762C2063686563F4
:1001D0006B004966207468652061756765722064EC
:1001E00069646E277400526F746174696E672031A0
:1001F000207265762E2E2E004229204578697400E3
:10020000412920426567696E00417474656D7074A0
:10021000696E67203120726576004D61726B2074C3
:1002200068652073686166742E20004D6963726F83
:1002300073746570696E6720546573740044292077
:1002400045786974004229204E6F00412920596584
:100250007300417567657220646972656374696FC4
:100260006E204F4B3F004229204E6F0041292059FC
:10027000657300436F6E74696E75653F0041756705
:10028000657220446972656374696F6E205465738A
:100290007400442920455849540043292057686573
:1002A0006E2044697361626C656400412920456E6B
:1002B00061626C652F44697361626C65004229203C
:1002C0004E6F0041292059657300436F6E74696E4B
:1002D00075653F00666F6C6C6F77696E672074653B
:1002E0007374732E00746F20706572666F726D2068
:1002F000746865006D75737420626520667265654B
:1003000020746F206D6F7665005741524E494E47FD
:100310003A20546865204175676572004229204E75
:100320006F004129205965730053746F7020457820
:1003300074727564696E673F0052657365747469A1
:100340006E6720454550524F4D2E2E2E005265733C
:10035000657474696E672074686520454550524F16
:100360004D2E2E2E004229204E6F00412920596526
:100370007300576F756C6420796F75206C696B65BD
:1003800020746F2070726F636565643F00746865E8
:100390002064656661756C742073657474696E673A
:1003A000730073746F7265642070726F66696C6538
:1003B0007320776974680077696C6C206F7665725A
:1003C000777269746520616C6C20005741524E4908
:1003D0004E473A205468697320616374696F6E00F8
:1003E0005741524E494E473A205468697320616321
:1003F00074696F6E2077696C6C206F7665727769AF
:1004000072746520616C6C2073746F726564207007
:10041000726F66696C6573207769746820746865AB
:100420002064656661756C742053657474696E67C9
:10043000732E0050726F66696C6520536176656437
:1004400000536176696E672070726F66696C652E05
:100450002E2E00536176696E672053657474696E41
:10046000677320666F722070726F66696C65206EAC
:10047000756D6265723A2000436F6E6669677572CA
:100480006174696F6E2053617665640053617669AB
:100490006E672E2E2E002C20002C20002C20002CED
:1004A00020002C200046696E697368656420536FD4
:1004B000616B696E670054696D652873292C204152
:1004C000444356616C2C20446961286D6D292C20B1
:1004D0006F75746665656452504D2C206175676553
:1004E0007252504D2C204D6F64652C205A6F6E65F2
:1004F000312054656D702863292C205A6F6E653247
:100500002054656D702863292C205A6F6E65332046
:1005100054656D702863292C205A6F6E6534205401
:10052000656D702863292C205A6F6E6535205465DF
:100530006D702863292C2073746172766546656539
:1005400064657247504D2C20206665656452617465
:1005500065286D2F6D696E292C206D657465727329
:100560004578747275646564286D292C206F7574E4
:10057000666565644B702C206F7574666565644BA9
:10058000692C206F7574666565644B6400F012FF1A
:10059000FF01000000000000008020E7120000FFC3
:1005A000FF330200000F00000022180000FFFF19B7
:1005B0000D02000A001219FF120000FFFF370200AF
:1005C000000F00E418D8120000FFFFD10C00000754
:1005D000000000C8120000FFFF3F0200000F0020D3
:1005E0001ABB120000FFFF430200000F00C518AD48
:1005F000120000FFFF3B0200000F0022199C1500B3
:1006000000FFFFF30C01000D00000090150000FF3B
:10061000FFEF0C01000D00000084150000FFFFEB50
:100620000C01000D00000078150000FFFFE70C0131
:10063000000D0000006C150000FFFFE30C01000D31
:1006400000000084170000FFFF570D00000C00E7BA
:100650001274170000FFFF5B0D00000C000A13640A
:10066000170000FFFF5F0D00000C002D1354170052
:1006700000FFFF630D00000C00501344170000FF43
:10068000FF670D00000C00731318180000FFFF1D1A
:100690000D01000A008A1500180000FFFF250D015A
:1006A000000C009615E9160000FFFF2B0200000F5A
:1006B000000F1A47180000FFFFF90C00000E0000A1
:1006C000003E180000FFFF0D0D02000C0000002C82
:1006D000180000FFFF150D02000A000000F51700CA
:1006E00000FFFF2D0D02000C001E19EA170000FF8D
:1006F000FF290D02000C001E19DF170000FFFF315B
:100700000D02000C001E19D5170000FFFF3F0D0061
:10071000000C0000003513FFFF0100000000000086
:1007200000832026130000FFFFD90C00000F0000FB
:100730000016130000FFFF00000000030067140D07
:10074000130000FFFF000000000300D212FF1200A0
:1007500000FFFF370200000F00E4189C150000FFA7
:10076000FFF30C01000D00000090150000FFFFEFEB
:100770000C01000D00000084150000FFFFEB0C01D0
:10078000000D00000078150000FFFFE70C01000DD0
:100790000000006C150000FFFFE30C01000D0000DD
:1007A0000084170000FFFF570D00000C00E71274D3
:1007B000170000FFFF5B0D00000C000A1364170018
:1007C00000FFFF5F0D00000C002D1354170000FF09
:1007D000FF630D00000C00501344170000FFFF677B
:1007E0000D00000C00731347180000FFFFF90C0008
:1007F000000E0000003E180000FFFF0D0D02000C6F
:100800000000002C180000FFFF150D02000A000078
:100810000022180000FFFF190D02000A001219E95A
:10082000160000FFFF2B0200000F000F1A1818001F
:1008300000FFFF1D0D01000A008A1500180000FFCF
:10084000FF250D01000C009615F5170000FFFF2D88
:100850000D02000C001E19EA170000FFFF290D020F
:10086000000C001E19DF170000FFFF310D02000C05
:10087000001E19D5170000FFFF3F0D00000C0000FF
:10088000008713FFFF0100000000000000822078B5
:10089000130000FFFFD30C00000F0000009C1500A8
:1008A00000FFFFF30C01000D00000090150000FF99
:1008B000FFEF0C01000D00000084150000FFFFEBAE
:1008C0000C01000D00000078150000FFFFE70C018F
:1008D000000D0000006C150000FFFFE30C01000D8F
:1008E000000000C8170000FFFF430D00000C00E7E8
:1008F00012BB170000FFFF470D00000C000A13AEEB
:10090000170000FFFF4B0D00000C002D13A1170076
:1009100000FFFF4F0D00000C00501394170000FF64
:10092000FF530D00000C00731365130000FFFF0060
:100930000000000300A81252130000FFFF00000097
:10094000000300BD1248130000FFFF000000000379
:10095000005914FB160000FFFF0000000003000612
:1009600019F6160000FFFF0000000003000E19E951
:10097000160000FFFF2B0200000F000F1A4718009F
:1009800000FFFFF90C00000E0000003E180000FF01
:10099000FF0D0D02000C0000002C180000FFFF15D9
:1009A0000D02000A00000022180000FFFF190D02CE
:1009B000000A00000018180000FFFF1D0D01000ACA
:1009C00000000000180000FFFF250D01000C0000D2
:1009D00000F5170000FFFF2D0D02000C000000EADB
:1009E000170000FFFF290D02000C000000DF1700B8
:1009F00000FFFF310D02000C000000D5170000FFC2
:100A0000FF3F0D00000C000000A113FFFF010000DC
:100A1000000000000081209C150000FFFFF30C0186
:100A2000000D00000090150000FFFFEF0C01000D0D
:100A300000000084150000FFFFEB0C01000D00001A
:100A40000078150000FFFFE70C01000D0000006CAE
:100A5000150000FFFFE30C01000D000000C81700A7
:100A600000FFFF430D00000C00E712BB170000FF62
:100A7000FF470D00000C000A13AE170000FFFF4BEC
:100A80000D00000C002D13A1170000FFFF4F0D00FB
:100A9000000C00501394170000FFFF530D00000CD2
:100AA00000731394130000FFFF0000000003004BCD
:100AB0001447180000FFFFF90C00000E0000003E74
:100AC000180000FFFF0D0D02000C0000002C1800A4
:100AD00000FFFF150D02000A00000022180000FFB1
:100AE000FF190D02000A000000E9160000FFFF2BAD
:100AF0000200000F000F1A18180000FFFF1D0D0163
:100B0000000A00000000180000FFFF250D01000C86
:100B1000000000F5170000FFFF2D0D02000C000083
:100B200000EA170000FFFF290D02000C000000DFA3
:100B3000170000FFFF310D02000C000000D5170068
:100B400000FFFF3F0D00000C000000B318FFFF0185
:100B5000000000000000000000A4180000040000D5
:100B6000000000000000009A1800002700000000AC
:100B70000000000000901800008400000000000049
:100B80000000008D1801000F00420F00000100AAB4
:100B9000178A1801000F00560F0000010074178714
:100BA0001801000F006A0F000001007A1784180175
:100BB000000F007E0F000001008017811801000F58
:100BC00000920F0000010086177E1801000F00A69A
:100BD0000F000001008C177B1801000F00BA0F00F6
:100BE0000001009217781801000F00CE0F000001DD
:100BF000009817751801000F00E20F000001009E19
:100C000017711801000F00F60F00000100A4176112
:100C10001801000F00000000000000EC1759180434
:100C200000FFFF0000000000003D144C180400FF0E
:100C3000FF000000000000F01747180400FFFFF954
:100C40000C00000E0000003E180400FFFF0D0D0216
:100C5000000C00000036180400FFFF110D02000C0C
:100C60000000002C180400FFFF150D02000A000010
:100C70000022180400FFFF190D02000A00000018EE
:100C8000180400FFFF1D0D01000A0000000C1804ED
:100C900000FFFF210D01000C00000000180400FF00
:100CA000FF250D01000C000000F5170400FFFF2DCB
:100CB0000D04000C000000EA170400FFFF290D04DA
:100CC000000C000000DF170400FFFF310D04000CD2
:100CD000000000D5170400FFFF3F0D00000C0000CE
:100CE00000C8170400FFFF430D00000C000000BB0C
:100CF000170400FFFF470D00000C000000AE1704B2
:100D000000FFFF4B0D00000C000000A1170400FFC6
:100D1000FF4F0D00000C00000094170400FFFF536C
:100D20000D00000C00000084170400FFFF570D00A9
:100D3000000C00000074170400FFFF5B0D00000CA6
:100D400000000064170400FFFF5F0D00000C0000AE
:100D50000054170400FFFF630D00000C0000004466
:100D6000170400FFFF670D00000C000000311702A0
:100D700000FFFF0000000003004C17241702002DA5
:100D80000000000000000000001E170200450000E7
:100D900000000000000000101702004B00000000DF
:100DA00000000000000817020071000000000000B1
:100DB000000000001702007B00000000000000009F
:100DC00000FB162800FFFF0000000003000619F6D4
:100DD000162800FFFF0000000003000E19E9162886
:100DE00000FFFF2B0200000F000F1ADD162800FF86
:100DF000FF0000000003006B19CE162800FFFF3132
:100E000002000006000000C4162800FFFF000000DA
:100E10000003007719B7162800FFFF2F0200000615
:100E200000000022182800FFFF190D02000A000030
:100E300000B2162800FFFF0000000003002717A4DF
:100E4000162800FFFFF90D0000060000009A162882
:100E500000FFFFFB0D02000A0000008C162800FFB7
:100E6000FFFF0D0000060000007E162800FFFF01B6
:100E70000E00000600000073162800FFFF030E009E
:100E8000000600000066162800FFFF050E000006A1
:100E900000000058162800FFFF070E0000060000A3
:100EA000004E162800FFFF090E0000040000004459
:100EB000162800FFFF0A0E00000600000032162868
:100EC00000FFFF0C0E00000600000025162800FFA2
:100ED000FF0E0E00000600000019162800FFFF128A
:100EE0000E0000060000000D162800FFFF140E0083
:100EF000000600000000162800FFFF160E00000686
:100F0000000000F2152800FFFF180E000006000088
:100F100000E7152900FFFF0000000003008420DF28
:100F2000152900FFFF1A0E000006000000D5152944
:100F300000FFFF1C0E000006000000CB152900FF7B
:100F4000FF1E0E000004000000C4152900FFFF1F53
:100F50000E000004000000B9152900FFFF200E025A
:100F6000000A000000A8152A00FFFF4B0200000F36
:100F70000024189C152A00FFFFF30C01000D00004F
:100F80000090152A00FFFFEF0C01000D0000008407
:100F9000152A00FFFFEB0C01000D00000078152A58
:100FA00000FFFFE70C01000D0000006C152A00FF98
:100FB000FFE30C01000D00000084172A00FFFF74FE
:100FC0000E00000C00000074172A00FFFFA20E00A4
:100FD000000C00000064172A00FFFFD00E00000C78
:100FE00000000054172A00FFFFFE0E00000C000056
:100FF0000044172A00FFFF2C0F00000C0000005FC8
:10100000152A00FFFF4C0E00000600000055152AAF
:1010100000FFFF4E0E00000C0000004B152A00FFE1
:10102000FF520E00000C00000045152A00FFFF567D
:101030000E02000C0000003F152A00FFFF5A0E02AE
:10104000000C00000039152A00FFFF5E0E02000CA4
:101050000000002C152A00FFFF7A0E000006000099
:101060000022152A00FFFF7C0E00000C0000001873
:10107000152A00FFFF800E00000C00000012152A48
:1010800000FFFF840E02000C0000000C152A00FF78
:10109000FF880E02000C00000006152A00FFFF8CDE
:1010A0000E02000C000000FC142A00FFFFAA0E0034
:1010B000000C000000F2142A00FFFFAE0E00000C2E
:1010C000000000EC142A00FFFFB20E02000C00002A
:1010D00000E6142A00FFFFB60E02000C000000E03C
:1010E000142A00FFFFBA0E02000C000000D6142ADA
:1010F00000FFFFD80E00000C000000CC142A00FFF7
:10110000FFDC0E00000C000000C6142A00FFFFE008
:101110000E02000C000000C0142A00FFFFE40E02C3
:10112000000C000000BA142A00FFFFE80E02000CB9
:10113000000000B0142A00FFFF060F00000C0000A2
:1011400000A6142A00FFFF0A0F00000C000000A0F8
:10115000142A00FFFF0E0F02000C0000009A142A50
:1011600000FFFF120F02000C00000094142A00FF81
:10117000FF160F02000C00000088142B00FFFF4731
:101180000200000F009A1884142B00FFFFDF0C00F0
:10119000000A00000079142B00FFFF00000000038C
:1011A00000451971142B00FFFF240E0000060000FB
:1011B0000067142B00FFFF260E0000060000005DF4
:1011C000142B00FFFF280E00000400000050142B19
:1011D00000FFFF290E00000400000042142B00FF56
:1011E000FF2A0E02000A0000003A142B00FFFF2E17
:1011F0000E02000C00000032142B00FFFF320E0222
:10120000000C00000025142C00FFFF00000000036C
:101210000030171D142C00FFFF360E0000060000E2
:101220000013142C00FFFF380E0000060000000918
:10123000142C00FFFF3A0E00000400000002142CE2
:1012400000FFFF3B0E000004000000F6132C00FF1F
:10125000FF3C0E02000A000000EA132C00FFFF40D2
:101260000E02000A000000DD132C00FFFF440E02F6
:10127000000A000000CF132C00FFFF480E02000AF6
:10128000000000E9160300FFFF2B0200000F000F13
:101290001ABE130300FFFF0000FFFF0300201CB174
:1012A000130300FFFF0000000003005C1F53706F7A
:1012B0006F6C6572205374617465004F7574666558
:1012C0006564204D6F646500526564756365204FE9
:1012D00046205370656564004772616D73204578E0
:1012E000747275646564004469616D65746572004B
:1012F000457874727564696E672E202E202E005317
:101300007461727665204665656465720041646447
:101310002054696D650046696C616D656E74204C82
:101320006F616465640054696D652052656D616923
:101330006E696E67004C6F61642046696C616D6513
:101340006E742E202E202E00536B697020536F6117
:101350006B00446563726561736520536F616B2038
:1013600054696D6500496E63726561736520536FE2
:10137000616B2054696D650054696D652052656D1F
:1013800061696E696E6700536F616B696E672E20CD
:101390002E202E00536B6970205072656865617451
:1013A0000050726568656174696E672E202E202E6C
:1013B00000526573657420454550524F4D004D6590
:1013C00061737572652046696C616D656E7400525B
:1013D0006F6C6C6572205261646975730054726140
:1013E0007665727365204C656E00436F726520529E
:1013F0006164697573004469736B20526164697537
:101400007300456E61626C6500446972656374695E
:101410006F6E0053746570204D6F64650050696E87
:101420002053657400546573742053706F6F6C653E
:1014300072004D696E2052504D004D61782052501F
:101440004D00526F6C6C6572205261646975730057
:10145000456E61626C65204C6F6769630044697218
:10146000656374696F6E0053746570204D6F6465B9
:101470000050696E205365740053656E64203120FE
:101480005265760052504D0052756E204F7574664D
:10149000656564005A35204B64005A35204B69005D
:1014A0005A35204B70005A35204D696E2044430058
:1014B0005A35204D6178204443005A34204B640053
:1014C0005A34204B69005A34204B70005A34204D56
:1014D000696E204443005A34204D61782044430013
:1014E0005A33204B64005A33204B69005A33204B47
:1014F00070005A33204D696E204443005A33204D0A
:101500006178204443005A32204B64005A32204B09
:1015100069005A32204B70005A32204D696E2044C7
:1015200043005A32204D6178204443005A322054FF
:10153000696D652062617365005A31204B64005A01
:1015400031204B69005A31204B70005A31204D69CF
:101550006E204443005A31204D6178204443005AA4
:10156000312054696D652062617365005A6F6E6544
:1015700020352054656D70005A6F6E6520342054FC
:10158000656D70005A6F6E6520332054656D700074
:101590005A6F6E6520322054656D70005A6F6E650B
:1015A00020312054656D7000416374697661746503
:1015B00020486561746572730047656172205261ED
:1015C00074696F00456E61626C65004469726563A1
:1015D00074696F6E0053746570204D6F64650050C0
:1015E000696E205365740054657374204175676596
:1015F00072004465626F756E63652054696D6500A5
:10160000537461727475702054696D65004D617812
:1016100046696C6C54696D65004D696E46696C6C09
:1016200054696D65004D6178447574794379636CD4
:1016300065005374617274757020447574794379D0
:10164000636C6500447574794379636C6500446923
:1016500072656374696F6E004F76657220526F74A5
:101660006174696F6E00486F6D696E672044656CC8
:10167000617900537465702044656C61790044752C
:101680006D7020506F736974696F6E00486F6D657F
:1016900020506F736974696F6E004C756D70204DCA
:1016A00061737300536C6176652041646472657385
:1016B000730053746F700054696D6520746F2073EC
:1016C000656E640053656E642054696D65004379EE
:1016D000636C657320746F2073656E640053656E70
:1016E00064204379636C6573004665656420506CC3
:1016F00061737469630044756D7000486F6D6500B7
:1017000053706F6F6C6572004F7574666565640029
:1017100048656174657220436F6E66696700417544
:1017200067657200537461727665466565646572BB
:10173000005361766520436F6E66696775726174E8
:10174000696F6E005A6F6E652035205365742054A2
:10175000656D70005A6F6E65203420536574205497
:10176000656D70005A6F6E65203320536574205488
:10177000656D70005A6F6E65203220536574205479
:10178000656D70005A6F6E6520312053657420546A
:10179000656D70005A3520496E69742054656D700E
:1017A000005A3420496E69742054656D70005A33B4
:1017B00020496E69742054656D70005A3220496E5C
:1017C00069742054656D70005A3120496E69742027
:1017D00054656D7000536F616B2054696D65004FE7
:1017E000757466656564205064004F757466656540
:1017F00064204B69004F757466656564204B70000A
:101800004F7574666565642052504D004F462049FF
:101810006E69742052504D004175676572205250B8
:101820004D004772616D732F4D696E00546F6C658A
:1018300072616E63650044656E7369747900446912
:10184000616D65746572004E616D6500536176650A
:101850002050726F66696C650045787472756465B6
:101860000044656661756C742050726F66696C65C2
:10187000003130290039290038290037290036295C
:10188000003529003429003329003229003129008C
:10189000417578696C696172790043616C69627243
:1018A0006174650053656C6563742050726F66697E
:1018B0006C65004D61696E204D656E7500536176F3
:1018C000696E6720436F6E6669672E00F503160028
:1018D000F3031900F1031E00E9032800E2033200BC
:1018E000D2033C00C2034600AD03500091035A00EE
:1018F0006F03640048036E0016037800E402820060
:10190000AA028C00710296004302A0000102AA0004
:10191000CA01B4008B01BE005201C8002C01D200E4
:101920000901DC00EB00E600C800F000AC00FA00A2
:101930009600040182000E0172001801630022016A
:1019400053002C0100000A0B02090C0D0E080703BE
:101950000401000000000000000000000000000082
:101960000000000000000000000000000000000077
:101970001211100000000000000000000000000034
:1019800000000000000000000000010210202008FC
:1019900008102040102040800201020108040201CA
:1019A0000102040810204080804020100804020139
:1019B0008004020180402010080402010804020192
:1019C0000102040810204080010204081020408019
:1019D00005050505070508080808020202020A0AAB
:1019E00008080404040401010101010101010303C9
:1019F000030303030303040707070C0C0C0C0C0C74
:101A00000C0C0202020206060606060606060B0B70
:101A10000B0B0B0B0B0B00002000230026002900F2
:101A20002C002F0032000001000003010601090113
:101A300000002200250028002B002E003100340079
:101A400002010000050108010B0100002100240033
:101A500027002A002D00300033000101000004019E
:101A600007010A014E414E494E495459494E46CD4F
:101A7000CCCC3D0AD7233C17B7D13877CC2B329545
:101A800095E6241FB14F0A000020410000C8420023
:101A9000401C4620BCBE4CCA1B0E5AAEC59D7400ED
:101AA000407A10F35A00A0724E18090010A5D4E82D
:101AB0000000E87648170000E40B54020000CA9AC0
:101AC0003B000000E1F50500008096980000004012
:101AD000420F000000A08601000000102700000057
:101AE00000E803000000006400000000000A00009D
:101AF0000000000100000000002C76D888DC674F51
:101B00000823DFC1DFAE59E1B1B796E5E3E453C680
:101B10003AE651997696E8E6C28426EB898C9B6278
:101B2000ED407C6FFCEFBC9C9F40F2BAA56FA5F422
:101B300090055A2AF75C936B6CF9676DC11BFCE04A
:101B4000E40D47FEF520E6B500D0ED902E0300949D
:101B50003577050080841E080000204E0A00000032
:101B6000C80C333333330F986E12831141EF8D213C
:101B700014893BE65516CFFEE6DB18D1844B381BA3
:101B8000F77C1D901DA4BBE424203284725E228168
:101B900000C9F124ECA1E53D27009010831BFC4A0D
:101BA00011241FBECFEFD1E2DEBFCDBF00E00CBFDE
:101BB00015E0A0E0B2E0E8E5F9EA00E00BBF02C002
:101BC00007900D92A231B107D9F720E1A2E1B5E06B
:101BD00001C01D92A83CB207E1F71BE1C0EADBE1BE
:101BE00000E006C022970109FE010BBF0E942950A8
:101BF000CA39D10780E00807A9F70E94404B0C942E
:101C0000AA540C940000CF93DF93EC0160E08E8126
:101C10000E94C84881E090E00E94E64661E08E8123
:101C20000E94C84881E090E00E94E64660E08E8114
:101C30000E94C84884E690E0DF91CF910C94E6467C
:101C4000EF92FF920F931F93CF93DF938C01C0E02D
:101C5000D0E0E62EF12CB7010C2E02C075956795E9
:101C60000A94E2F76170F801EC0FFD1F87810E9472
:101C7000C8482196C430D10571F7C801DF91CF91D2
:101C80001F910F91FF90EF90BECFEF92FF920F93B5
:101C90001F93CF93DF938C01C0E0D0E0E62EF12CB0
:101CA000B7010C2E02C0759567950A94E2F7617032
:101CB000F801EC0FFD1F87810E94C8482196C830AB
:101CC000D10571F7C801DF91CF911F910F91FF905E
:101CD000EF9099CF1F93CF93DF93EC01162F642FD2
:101CE0008C810E94C8488D818F3F19F060E00E946E
:101CF000C8488F85612F84FF05C0CE01DF91CF9149
:101D00001F91C3CF70E084E0759567958A95E1F7E0
:101D1000CE0196DF612FCE01DF91CF911F9190CF41
:101D200040E0D8CF61E0FCDF80ED97E00C94E64620
:101D3000443008F043E0FC012389421710F04FEFD4
:101D4000420FFC01E40FF11D2489260F2068622F49
:101D5000E7CFFC016089262F2460208B6C60E0CFE8
:101D60000F931F93CF93DF93EC01423018F08F85D0
:101D700088608F874B8B1C8A80E48D8B6E8B70E024
:101D8000605C7F4F6F8B222329F0413019F48F85DF
:101D900084608F8761E08C810E948F488D818F3FA6
:101DA00019F061E00E948F4861E08E810E948F48A7
:101DB00000E010E08F8584FF03C088E090E002C05F
:101DC00084E090E00817190754F4FE01E00FF11FBA
:101DD00061E087810E948F480F5F1F4FEBCF80E546
:101DE00093EC0E94E64660E08C810E94C84860E067
:101DF0008E810E94C8488D818F3F19F060E00E945B
:101E0000C8486F8564FD19C063E0CE0119DF84E91D
:101E100091E10E94E64663E0CE0112DF84E991E1A0
:101E20000E94E64663E0CE010BDF86E990E00E9467
:101E3000E64662E0CE0104DF13C06062CE0170DFCF
:101E400084E991E10E94E6466F856062CE0168DF19
:101E500086E990E00E94E6466F856062CE0160DF11
:101E60006F856062CE015CDF84E0888BCE0171DF1C
:101E7000CE0158DF82E0898B66E0CE01DF91CF9101
:101E80001F910F914DCFCF92EF920F93FC011382D0
:101E9000128280E493E09183808364838FEF858353
:101EA000468327830087E186C286138614861586BB
:101EB0001686178620E041E060E1CF010F91EF9098
:101EC000CF904ECFFC0160896E7F608B686028CF19
:101ED000FC016089262F2160208B696021CF41E0C1
:101EE000F9DE81E090E008958091420590E0209134
:101EF0004305821B91090895209143058091420575
:101F0000281750F4E22FF0E0EC5BFA4F808190E06C
:101F10002F5F2093430508958FEF9FEF0895E09181
:101F2000430580914205E81730F4F0E0EC5BFA4F8E
:101F3000808190E008958FEF9FEF08950895CF92EC
:101F4000DF92EF92FF920F931F93CF93DF937C0169
:101F5000CB018A0120911E05222389F0EB016B0140
:101F6000C40ED51ECC15DD0561F06991D701ED9148
:101F7000FC910190F081E02DC7011995F3CF642FFA
:101F80008FD1C801DF91CF911F910F91FF90EF90FA
:101F9000DF90CF900895CF93DF931F92CDB7DEB738
:101FA000698320911E052223D1F020911F05203244
:101FB00040F021E030E0FC013383228380E090E0B8
:101FC00014C080912005E82FF0E0EF5DFA4F998171
:101FD00090838F5F8093200580931F0504C061E08C
:101FE000CE0101965DD181E090E00F90DF91CF911D
:101FF0000895FC011382128248EE53E060E070E025
:10200000448355836683778388E493E09183808358
:1020100008951092430510924205109220051092E7
:102020001F0581C081E080931E05609341051092D9
:10203000200510921F050895F5CF0F93062F21E07C
:1020400040911F0561E275E080914105D2D0109268
:10205000200510921F0510921E050F9108958F9272
:102060009F92AF92BF92CF92DF92EF92FF920F9327
:102070001F93CF93DF93EC01F62ED42E4801590124
:10208000EE2009F1CFDF1E2D143008F013E01150BF
:10209000B8F0E881F98128E0129FB0011124A50170
:1020A000940104C056954795379527956A95D2F7C0
:1020B000CA01B9010190F081E02DCE011995E7CF59
:1020C00060E0CE01BADF4D2D413208F040E22C2D08
:1020D00064E475E08F2D45D010924305809342054E
:1020E000DF91CF911F910F91FF90EF90DF90CF90F4
:1020F000BF90AF909F908F900895CF92EF920F93E3
:102100001F93C22EE12C00E010E09801A8DF1F9180
:102110000F91EF90CF90089521E0EFCF61E08DCF48
:1021200082E195E066CF1092D10581E08093CF05E2
:102130001092CE0561E084E10E94C84861E085E12B
:102140000E94C848E9EBF0E080818E7F8083808127
:102150008D7F808388E48093B80085E48093BC0001
:102160000895413208F043C09091D1059111FCCF00
:1021700091E09093D1052093CF052FEF2093640534
:102180001092A905240F2093A8059093D005909153
:10219000D005880F892B8093D0058091CE058130A2
:1021A00061F41092CE058091D0058093BB008091A0
:1021B000BC0083FDF8CF85EC01C085EE8093BC00A8
:1021C0008091D1058130E1F38091A905841710F445
:1021D0004091A9052AEA35E0FB01D9018A2F821B2B
:1021E000841718F48D918193F9CF842F089580E09E
:1021F00008950F93413208F04AC09091D105911192
:10220000FCCF92E09093D1050093CF059FEF909380
:1022100064051092A9054093A805FB016AEA75E0E0
:10222000DB019A2F961B941718F491919D93F9CF87
:102230001092D0059091D005880F892B8093D005FE
:102240008091CE05813061F41092CE058091D00549
:102250008093BB008091BC0083FDF8CF85EC01C06A
:1022600085EE8093BC00222321F08091D10582303D
:10227000E1F3809164058F3F61F0809164058032C5
:1022800051F080916405803341F483E007C081E020
:1022900005C080E003C082E001C084E00F91089592
:1022A000613298F42091D105243089F46093860539
:1022B000FC0188E895E0DC012A2F281B261718F47A
:1022C00021912D93F9CF80E0089581E0089582E077
:1022D000089585ED8093BC008091BC0084FDFCCF07
:1022E0001092D105089585EC8093BC001092D10521
:1022F00008951F920F920FB60F9211240BB60F92F2
:102300002F933F934F935F936F937F938F939F93FD
:10231000AF93BF93EF93FF938091B900887F80368E
:1023200009F49DC070F5883209F45CC090F48031E6
:1023300009F455C038F4882309F4F3C0883009F44F
:102340004EC0F2C0883109F44DC0803209F45EC03D
:10235000EBC0803409F469C050F4803309F456C0EE
:10236000883309F0E1C080936405BDDFDDC08035AE
:1023700009F44FC0883509F45DC0883409F0D4C031
:10238000D2C0883909F4C3C0A8F4883709F467C0FB
:1023900038F4883609F463C0803709F460C0C4C0DB
:1023A000883809F4B4C0803909F45FC0803809F076
:1023B000BBC05BC0803B09F482C038F4803A09F4AA
:1023C00066C0883A09F47BC0AFC0803C09F4A3C062
:1023D000883C09F4A0C0883B09F486C0A5C0809160
:1023E000D00510C09091A9058091A805981770F5A7
:1023F000E091A90581E08E0F8093A905F0E0E655F4
:10240000FA4F80818093BB0085EC82C08093640585
:102410008AC0E091A90581E08E0F8093A905809183
:10242000BB00F0E0E655FA4F80839091A9058091BA
:10243000A8056AC0E091A90581E08E0F8093A905E7
:102440008091BB00F0E0E655FA4F80838091CF0584
:10245000811169C081E08093CE0584EA5DC083E08C
:102460008093D10510926505CFCF809165058032AC
:1024700008F04DC0E091650581E08E0F8093650501
:102480008091BB00F0E0EA59FA4F8083BDCF2BDF8B
:1024900080916505803230F4E0916505F0E0EA59FD
:1024A000FA4F10826091650570E0E091CA05F091E5
:1024B000CB0586E695E019951092650535C084E058
:1024C0008093D1051092870510928605E091CC0586
:1024D000F091CD05199580918605811105C081E0A7
:1024E0008093860510928805E091870581E08E0F24
:1024F00080938705F0E0E857FA4F80818093BB0016
:102500009091870580918605981708F47DCF85E81E
:102510008093BC0009C085EC8093BC001092D1056B
:1025200003C010926405D5DEFF91EF91BF91AF918A
:102530009F918F917F916F915F914F913F912F91DB
:102540000F900BBE0F900FBE0F901F90189508951F
:102550008091EE059091EF05A091F005B091F10505
:10256000805A9541AF4FBF4F8093EE059093EF0592
:10257000A093F005B093F10508958091EE05909138
:10258000EF05A091F005B091F10580569A4EA10992
:10259000B1098093EE059093EF05A093F005B093F9
:1025A000F10508958091E6059091E705A091E80571
:1025B000B091E905805A9541AF4FBF4F8093E60532
:1025C0009093E705A093E805B093E90508958091FD
:1025D000CB0C9091CC0C8230910511F0049749F40A
:1025E0008091430D9091440DA091450DB091460D01
:1025F00008C08091570D9091580DA091590DB09140
:102600005A0D8093740E9093750EA093760EB0932E
:10261000770E08958091CB0C9091CC0C823091056F
:1026200011F0049749F48091470D9091480DA091C5
:10263000490DB0914A0D08C080915B0D90915C0DE1
:10264000A0915D0DB0915E0D8093A20E9093A30EAC
:10265000A093A40EB093A50E08958091CB0C9091F9
:10266000CC0C8230910511F0049749F480914B0D08
:1026700090914C0DA0914D0DB0914E0D08C08091E0
:102680005F0D9091600DA091610DB091620D8093EE
:10269000D00E9093D10EA093D20EB093D30E089586
:1026A0008091CB0C9091CC0C8230910511F0049765
:1026B00049F480914F0D9091500DA091510DB09122
:1026C000520D08C08091630D9091640DA091650D2D
:1026D000B091660D8093FE0E9093FF0EA093000FB5
:1026E000B093010F08958091CB0C9091CC0C823067
:1026F000910511F0049749F48091530D9091540D78
:10270000A091550DB091560D08C08091670D909124
:10271000680DA091690DB0916A0D80932C0F909374
:102720002D0FA0932E0FB0932F0F08958091430D7E
:102730009091440DA091450DB091460D8093740E7B
:102740009093750EA093760EB093770E8091470DFF
:102750009091480DA091490DB0914A0D8093A20E21
:102760009093A30EA093A40EB093A50E80914B0D51
:1027700090914C0DA0914D0DB0914E0D8093D00EC7
:102780009093D10EA093D20EB093D30E80914F0DA3
:102790009091500DA091510DB091520D8093FE0E6D
:1027A0009093FF0EA093000FB093010F8091530DF3
:1027B0009091540DA091550DB091560D80932C0F12
:1027C00090932D0FA0932E0FB0932F0F0E9492463F
:1027D0006093F6057093F7058093F8059093F905DB
:1027E00040E050E064EB72E488E89BE00E94F32B49
:1027F00040E050E064EB72E480E09BE00E94F32B49
:1028000040E050E06FE773E488E79AE00E94F32B22
:1028100040E050E06FE773E480EF99E00E94F32B13
:1028200040E050E06FE773E488E699E00E94F32B04
:1028300061E070E088E89BE00E94732C61E070E04A
:1028400080E09BE00E94732C61E070E088E79AE0F2
:102850000E94732C61E070E080EF99E00E94732C7D
:1028600061E070E088E699E00E94732C82E090E0DD
:102870009093CC0C8093CB0C089581E090E09093E2
:10288000CC0C8093CB0C8FE197E09093FB05809369
:10289000FA050C94153683E090E09093CC0C80936D
:1028A000CB0C8EEB96E09093FB058093FA050C948D
:1028B000153687E090E09093CC0C8093CB0C8CEF96
:1028C00095E09093FB058093FA050C94153687E00C
:1028D00090E09093CC0C8093CB0C8CEF95E0909390
:1028E000FB058093FA050C941536CF92DF92EF9298
:1028F000FF9288E39CE00E94172388E89BE00E94F7
:102900005A2A80E09BE00E945A2A88E79AE00E94B7
:102910005A2A80EF99E00E945A2A88E699E00E949C
:102920005A2A88E89BE00E94762C6B017C0120E00B
:1029300030E040E450E46091430D7091440D80918B
:10294000450D9091460D0E946C4D9B01AC01C70155
:10295000B6010E94734F18160CF090C080E09BE007
:102960000E94762C6B017C0120E030E040E450E4D2
:102970006091470D7091480D8091490D90914A0DDD
:102980000E946C4D9B01AC01C701B6010E94734FC0
:1029900018160CF073C088E79AE00E94762C6B0141
:1029A0007C0120E030E040E450E460914B0D7091F8
:1029B0004C0D80914D0D90914E0D0E946C4D9B01E0
:1029C000AC01C701B6010E94734F18160CF056C037
:1029D00080EF99E00E94762C6B017C0120E030E0D2
:1029E00040E450E460914F0D7091500D8091510D75
:1029F0009091520D0E946C4D9B01AC01C701B60134
:102A00000E94734F1816D4F588E699E00E94762C40
:102A10006B017C0120E030E040E450E46091530D14
:102A20007091540D8091550D9091560D0E946C4DF2
:102A30009B01AC01C701B6010E94734F1816F4F454
:102A400061E070E088E39CE00E94132383E090E063
:102A50009093CC0C8093CB0C8EEB96E09093FB057F
:102A60008093FA050E9415368091FA059091FB0536
:102A7000FF90EF90DF90CF900C949534FF90EF9003
:102A8000DF90CF900895CF92DF92EF92FF9264E5AE
:102A900073E089E290E10E94B44B0E9492466093F9
:102AA000F2057093F3058093F4059093F5050E9469
:102AB0006E4E6B017C0120E030E040E752E4609113
:102AC0003F0D7091400D8091410D9091420D0E94FB
:102AD000774F20E030E04AE754E40E94774F9B01B3
:102AE000AC01C701B6010E946D4D0E94424E609339
:102AF000EE057093EF058093F0059093F10584E067
:102B000090E09093CC0C8093CB0CFF90EF90DF90F3
:102B1000CF90089540911D0D50911E0D60911F0D95
:102B20007091200D84E599E00C9406438EE998E0BD
:102B30000E940E3A4091250D5091260D6091270D6F
:102B40007091280D8EE998E00C946839CF92DF924D
:102B5000EF92FF9280910002882381F120E030E023
:102B6000A90160911D0D70911E0D80911F0D909116
:102B7000200D0E94734F1816FCF48091DC05811122
:102B80001BC081EE97E00E942F3F84E599E00E94F0
:102B9000414381E08093DC0581E090E09093DB0588
:102BA0008093DA050E9492466093D6057093D7050C
:102BB0008093D8059093D905109200028091DC058E
:102BC000882309F46FC00E949246C090D605D09029
:102BD000D705E090D805F090D9056C157D058E05D8
:102BE0009F0508F45FC08091DA059091DB0580397C
:102BF00091400CF057C088E89BE00E945A2A80E080
:102C00009BE00E945A2A88E79AE00E945A2A80EFA5
:102C100099E00E945A2A88E699E00E945A2A20E008
:102C200030E048EC53E460911D0D70911E0D8091D1
:102C30001F0D9091200D0E94D54D6B017C0160917C
:102C4000DA057091DB05882777FD8095982F0E9423
:102C5000704E9B01AC01C701B6010E94774FAB01DA
:102C6000BC0184E599E00E9406438091DA059091C9
:102C7000DB0501969093DB058093DA058091D605FC
:102C80009091D705A091D805B091D9050596A11DC1
:102C9000B11D8093D6059093D705A093D805B09326
:102CA000D90570C08091DC05882341F08091DA0558
:102CB0009091DB05803991400CF464C01092DC05E2
:102CC00081E080930002C090250DD090260DE09009
:102CD000270DF090280D20E030E0A901C701B601D2
:102CE0000E94734F1816C4F4B701A6018EE998E04C
:102CF0000E94683960E070E08EE998E00E947039C7
:102D00008EE998E00E940E3A82E198E00E94254008
:102D100082E198E00E94CE3F0E9492466B017C01C6
:102D20006093EA057093EB058093EC059093ED05B5
:102D300020913E0F30913F0F4091400F5091410F35
:102D4000A0E6BAEE0E941F506C0D7D1D8E1D9F1DCA
:102D50006093E6057093E7058093E8059093E90595
:102D600086E090E09093CC0C8093CB0C8DE596E0C0
:102D70009093FB058093FA05FF90EF90DF90CF9042
:102D80000C949534FF90EF90DF90CF9008950F93BF
:102D90001F9388E39CE00E94172388E89BE00E9431
:102DA0005A2A80E09BE00E945A2A88E79AE00E9413
:102DB0005A2A80EF99E00E945A2A88E699E00E94F8
:102DC0005A2A8EE998E00E94493A0E949246009160
:102DD000E6051091E7052091E8053091E9050053DB
:102DE000154721093109061717072807390730F455
:102DF00063E070E088E39CE00E9413231F910F9131
:102E00000C94924688E39CE00E94172388E89BE09C
:102E10000E945A2A80E09BE00E945A2A88E79AE0A2
:102E20000E945A2A80EF99E00E945A2A88E699E087
:102E30000E945A2A8EE998E00E94493A80913C0209
:102E40008E3621F482E198E00C942540089580E1CB
:102E50009CE00E948A421092CC0C1092CB0C0895F8
:102E600040E050E060E271E482E198E00E94B53F0A
:102E700082E198E00E94CE3F60E777E180E090E059
:102E80000E94C14682E198E00E94D13F8091FA05FC
:102E90009091FB050C94953483EB9CE00E94920E7C
:102EA0006CE874E083EB9CE00E94744B64EF71E08B
:102EB00080E090E00E94C14687EF9CE00E942927B5
:102EC00083EB9CE00E94920E68E774E083EB9CE049
:102ED0000E94744B60ED77E080E090E00E94C14674
:102EE00080E897E00C94953461E070E087EF9CE017
:102EF0000C94A92762E070E087EF9CE00C94A9276E
:102F000063E070E087EF9CE00C94A92764E070E038
:102F100087EF9CE00C94A92765E070E087EF9CE0C8
:102F20000C94A92766E070E087EF9CE00C94A92739
:102F300067E070E087EF9CE00C94A92768E070E000
:102F400087EF9CE00C94A92769E070E087EF9CE094
:102F50000C94A92760E070E087EF9CE00E94A9270D
:102F60006FE573E089E290E10E94974B40912D0D4F
:102F700050912E0D60912F0D7091300D26E030E0B4
:102F800089E290E10E945B4D64E673E089E290E1A2
:102F90000E94974B4091290D50912A0D60912B0D65
:102FA00070912C0D26E030E089E290E10E945B4DAB
:102FB00069E673E089E290E10E94974B4091310D00
:102FC0005091320D6091330D7091340D26E030E058
:102FD00089E290E10C945B4D87EF9CE00C94E02338
:102FE00063E574E089E290E10E94744B6091F70C14
:102FF0007091F80C4AE050E089E290E10E946B4C3D
:1030000083EB9CE00E94920E61E474E083EB9CE011
:103010000E94744B87EF9CE00E94632764EF71E08D
:1030200080E090E00E94C14683EB9CE00E94920EFB
:1030300063E374E083EB9CE00E94744B60ED77E007
:1030400080E090E00C94C14680914C02863629F5D0
:103050006EE673E08BE492E00E947A5061E070E0EB
:1030600088E89BE00E94732C61E070E080E09BE0C8
:103070000E94732C61E070E088E79AE00E94732C54
:1030800061E070E080EF99E00E94732C61E070E0F5
:1030900088E699E00E94732C47C061E773E08BE4F7
:1030A00092E00E947A5060E070E088E89BE00E9425
:1030B000732C60E070E080E09BE00E94732C60E085
:1030C00070E088E79AE00E94732C60E070E080EF87
:1030D00099E00E94732C60E070E088E699E00E941D
:1030E000732C40E050E0BA0188E89BE00E94F32B8B
:1030F00040E050E0BA0180E09BE00E94F32B40E00A
:1031000050E0BA0188E79AE00E94F32B40E050E0DB
:10311000BA0180EF99E00E94F32B40E050E0BA0141
:1031200088E699E00E94F32B8091FA059091FB05C7
:103130000C949534809148028636B9F46EE673E0BB
:1031400087E492E00E947A504091DF0C5091E00CAD
:103150006091E10C7091E20C8EE998E00E94683970
:103160008EE998E00E940E3A0AC061E773E087E4B6
:1031700092E00E947A508EE998E00E940B3A80918A
:10318000FA059091FB050C949534809143028D349F
:1031900049F465E773E083E492E00E947A5061E0CD
:1031A00070E008C069E773E083E492E00E947A501F
:1031B00060E070E08EE998E00E9470398091FA0535
:1031C0009091FB050C94953480E19CE00E94EE42C6
:1031D00067E372E080E19CE00E94114164E075E0E9
:1031E00089E290E10E94B44B6DE773E089E290E1DF
:1031F0000E94974B67E372E089E290E10E94B44B32
:1032000064E075E089E290E10C94B44B80E19CE0CD
:103210000E94164180E19CE00C949E4180E19CE07C
:103220000C94B4414091190D50911A0D60911B0DF1
:1032300070911C0D80E19CE00C94CA418EE998E0ED
:103240000C949E3980913C02863679F46EE673E0E8
:103250008BE392E00E947A508EE998E00E94343A23
:1032600082E198E00E94D63F0AC061E773E08BE3F9
:1032700092E00E947A5082E198E00E94134080918F
:10328000FA059091FB050C949534CF93DF938EE96A
:1032900098E00E940E3AC0E8DCE061E08BE00E941A
:1032A000C84888EE93E00E94E64660E08BE00E940A
:1032B000C84888EE93E00E94E646219771F78EE9B0
:1032C00098E00E940B3A8091FA059091FB05DF91FE
:1032D000CF910C94953480E19CE00E94164160915E
:1032E00031027091320280E19CE00C94FC4180E15B
:1032F0009CE00E941641A0912F02B091300220E67E
:103300003AEE0E941950AB01BC0180E19CE00C94A4
:1033100032420E9492466093DE057093DF058093EF
:10332000E0059093E10588E39CE00E94172388E87C
:103330009BE00E945A2A80E09BE00E945A2A88E77C
:103340009AE00E945A2A80EF99E00E945A2A88E661
:1033500099E00E945A2A8091EE059091EF05A09184
:10336000F005B091F10588589341A109B109409148
:10337000DE055091DF056091E0057091E105481789
:1033800059076A077B0768F08091DD05811109C044
:1033900062E070E088E39CE00E94132381E0809368
:1033A000DD054091DE055091DF056091E0057091EB
:1033B000E1058091EE059091EF05A091F005B091A7
:1033C000F105481759076A077B0740F11092DD05A0
:1033D00064E075E089E290E10E94B44B65EA74E034
:1033E00089E290E10E94A44B64E075E089E290E1FB
:1033F0000E94B44B87E090E09093CC0C8093CB0C70
:103400008CEF95E09093FB058093FA050E941536AA
:103410008091FA059091FB050C949534089580E114
:103420009CE00E94CC428091370C882319F06EE614
:1034300073E002C061E773E08BE292E00C947A5093
:103440008EE998E00E94703B80914002863619F424
:103450006EE673E002C061E773E08FE392E00C94E4
:103460007A506115710581F0DB010D900020E9F7BC
:10347000AD0141505109461B570BDC01ED91FC9108
:103480000280F381E02D199480E090E0089566EBCE
:1034900074E089E290E10C94A44B8091570D9091D7
:1034A000580DA091590DB0915A0D8093740E9093C0
:1034B000750EA093760EB093770E80915B0D909170
:1034C0005C0DA0915D0DB0915E0D8093A20E909366
:1034D000A30EA093A40EB093A50E80915F0D9091C2
:1034E000600DA091610DB091620D8093D00E90930C
:1034F000D10EA093D20EB093D30E8091630D909114
:10350000640DA091650DB091660D8093FE0E9093B1
:10351000FF0EA093000FB093010F8091670D909163
:10352000680DA091690DB0916A0D80932C0F909356
:103530002D0FA0932E0FB0932F0F84E599E00E94DA
:10354000414340911D0D50911E0D60911F0D7091D2
:10355000200D84E599E00E9406434091210D509191
:10356000220D6091230D7091240D8EE998E00E9448
:10357000683960E070E08EE998E00E9470398EE969
:1035800098E00E940E3A40E050E060E772E482E189
:1035900098E00E94B53F82E198E00E94CE3F88E328
:1035A0009CE00E946D230E9492466093CD0C709324
:1035B000CE0C8093CF0C9093D00C69DF8EE998E00D
:1035C0000E94343A88E090E09093CC0C8093CB0C2E
:1035D000089526E040E052EC61E070E089E290E17D
:1035E0000E94344A82E195E00E94091020E044E004
:1035F00064E183EB9CE00E94B00E83EB9CE00E94B0
:10360000920E80E897E09093FB058093FA0566E0C0
:1036100070E088E39CE00E9413231092CC0C10927F
:10362000CB0C84E599E00E947A4387EF9CE00E94EE
:103630004B278091FA059091FB050E94153682E197
:1036400098E00C94D13FCF92DF92EF92FF920F93CC
:103650001F93CF93DF9300D000D0CDB7DEB76C01BE
:10366000CB01BA0128EE33E040E050E00E94F14F78
:10367000C9016CE370E00E94DE4F7C01882777FD72
:103680008095982F0E94704E8E010C5F1F4F20E096
:1036900042E00E945050B701882777FD8095982F0F
:1036A0000E94704E0350110920E042E00E945050E9
:1036B000BE016C5F7F4FC6010E947A50C601FC01BB
:1036C000019620812111FBCF8AE381938AE0E816DD
:1036D000F10414F480E38983DE0111968D9188232F
:1036E00011F08193FBCFC60126960FB6F894DEBF8A
:1036F0000FBECDBFDF91CF911F910F91FF90EF9043
:10370000DF90CF900895CF92EF920F931F9387EFA2
:103710009CE00E94EE2780E2C82E9EE1E92E0CE19B
:103720002AE148E166E183EB9CE00E94430F24E03C
:10373000E22E04E021E132E045E152E061E072E096
:1037400085E49CE00E948D2C88E39CE060D767EFC5
:103750007CE080E19CE00E9409416CE47EE088E826
:103760009BE00E949F296AE77EE080E09BE00E9448
:103770009F2968EA7EE088E79AE00E949F2966ED2B
:103780007EE080EF99E00E949F2964E07FE088E678
:1037900099E00E949F2940911A0E50911B0E67EFED
:1037A0007CE084E599E00E94BD4367EF7CE08EE910
:1037B00098E00E94EA3867EF7CE082E198E00E949E
:1037C0003A3F67EF7CE081EE97E00E94293F05E4F5
:1037D0001CE023EB3CE047E850E06BE47BE080E852
:1037E00097E00E946A2F23EB3CE047E150E069E05C
:1037F0007AE08FE197E00E946A2F23EB3CE04CE1F6
:1038000050E061E878E08EEB96E00E946A2F23EBAF
:103810003CE04AE150E065E177E08DE596E00E940A
:103820006A2F23EB3CE04CE150E06DE875E08CEF53
:1038300095E00E946A2F1F910F91EF90CF9008950D
:103840008F929F92AF92BF92CF92DF92EF92FF92B0
:103850000E9492460E9492464B015C0183EB9CE0E1
:103860000E94920E87EF9CE0ABD78EE998E00E9411
:10387000BF3940E050E060E271E48EE998E00E94D8
:1038800068398EE998E00E940E3A40E050E060E22C
:1038900071E48EE998E00E94683982E198E00E9424
:1038A000D63F8EE998E00E94343A60E070E08EE9FD
:1038B00098E00E94703989E290E10E94254918162B
:1038C0001906B4F48EE998E00E940B3A82E198E080
:1038D0000E9413408091FA059091FB05FF90EF90B4
:1038E000DF90CF90BF90AF909F908F900C949534C5
:1038F0000E9492466B017C018EE998E00E94493A51
:1039000082E198E00E942540C814D904EA04FB042F
:1039100090F261E070E08EE998E00E945B39AB01C3
:10392000BC0122E030E089E290E10E945A4D60E95A
:1039300073E089E290E10E94974B62E070E08EE9CB
:1039400098E00E945B399B01AC0160E070E080E888
:1039500094E40E946C4DAB01BC0122E030E089E2AE
:1039600090E10E945A4D60E973E089E290E10E9483
:10397000974B8EE998E00E944E39AB01BC0122E0E2
:1039800030E089E290E10E945A4D60E973E089E2FB
:1039900090E10E94974B8EE998E00E944B39AB0171
:1039A000BC0122E030E089E290E10E945A4D60E9DA
:1039B00073E089E290E10E94974B8EE998E00E94C3
:1039C000113AAB01BC0122E030E089E290E10E94B3
:1039D0005A4D60E973E089E290E10E94974B82E1E1
:1039E00098E00E94D240AB01BC0122E030E089E2C5
:1039F00090E10E945A4D60E973E089E290E10E94F3
:103A0000974B82E198E00E94B23FAB01BC0122E0FB
:103A100030E089E290E10E945A4D60E973E089E26A
:103A200090E10E94974B82E198E00E94D43F4AE0E7
:103A300050E0BC0189E290E10E946B4C46015701C5
:103A400084EF880E81E0981EA11CB11C34CFCF9268
:103A5000DF92EF92FF920F931F9385E49CE00E9408
:103A6000572F8093440C89E290E10E942549181653
:103A7000190634F489E290E10E943E498093440C97
:103A80008091440C833489F1ACF48433E1F16CF41B
:103A90008A3209F43FC0813309F049C08091FA05A8
:103AA0009091FB050E945E3042C0813481F08234E7
:103AB000A9F03DC0813759F02CF48434E9F0853603
:103AC000A1F035C08237C1F0873741F030C0809116
:103AD000FA059091FB050E947E3529C08091FA0578
:103AE0009091FB050E94B13522C08091FA0590911A
:103AF000FB050E9490381BC08091FA059091FB0550
:103B00000E94E03514C08091FA059091FB050E9457
:103B1000DF300DC020E044E064E183EB9CE00E94D4
:103B2000B00E8091FA059091FB050E949534E091CA
:103B3000CB0CF091CC0CEE0FFF1FE75EFD4F019018
:103B4000F081E02D199588E89BE00E945A2A80E0D8
:103B50009BE00E945A2A88E79AE00E945A2A80EF46
:103B600099E00E945A2A88E699E00E945A2A0E9407
:103B700092466093D2057093D3058093D4059093B9
:103B8000D505C090E205D090E305E090E405F09003
:103B9000E5056C157D058E059F0508F486C188E84E
:103BA0009BE00E94762C6093F30C7093F40C80934E
:103BB000F50C9093F60C80E09BE00E94762C6093CD
:103BC000EF0C7093F00C8093F10C9093F20C88E75B
:103BD0009AE00E94762C6093EB0C7093EC0C80932F
:103BE000ED0C9093EE0C80EF99E00E94762C6093A0
:103BF000E70C7093E80C8093E90C9093EA0C88E64C
:103C000099E00E94762C6093E30C7093E40C80930F
:103C1000E50C9093E60C8091CB0C9091CC0C049722
:103C2000A9F4C090EE05D090EF05E090F005F0907B
:103C3000F1050E94924697018601061B170B280B7F
:103C4000390BB901A80183ED9CE0FDDC8091CB0C20
:103C50009091CC0C0697A9F4C090E605D090E705AA
:103C6000E090E805F090E9050E94924697018601F0
:103C7000061B170B280B390BB901A80189ED9CE035
:103C8000E2DC8091CB0C9091CC0C089709F0F3C04A
:103C900061E070E08EE998E00E945B39AB01BC0105
:103CA00022E030E089E290E10E945A4D60E973E041
:103CB00089E290E10E94974B62E070E08EE998E023
:103CC0000E945B399B01AC0160E070E080E894E405
:103CD0000E946C4DAB01BC0122E030E089E290E132
:103CE0000E945A4D60E973E089E290E10E94974B8F
:103CF0008EE998E00E944E39AB01BC0122E030E031
:103D000089E290E10E945A4D60E973E089E290E116
:103D10000E94974B8EE998E00E944B39AB01BC01A1
:103D200026E030E089E290E10E945A4D60E973E0BC
:103D300089E290E10E94974B8EE998E00E94113A47
:103D4000AB01BC0122E030E089E290E10E945A4DD3
:103D500060E973E089E290E10E94974B82E198E08C
:103D60000E94D240AB01BC0122E030E089E290E148
:103D70000E945A4D60E973E089E290E10E94974BFE
:103D800082E198E00E94B23FAB01BC0122E030E04A
:103D900089E290E10E945A4D60E973E089E290E186
:103DA0000E94974B82E198E00E94D43F4AE050E0A5
:103DB000BC0189E290E10E94644C62EA74E089E20D
:103DC00090E10E94744B88E89BE00E94762CAB0146
:103DD000BC0122E030E089E290E10E945A4D6FE997
:103DE00074E089E290E10E94744B80E09BE00E94C5
:103DF000762CAB01BC0122E030E089E290E10E9428
:103E00005A4D6CE974E089E290E10E94744B88E7B6
:103E10009AE00E94762CAB01BC0122E030E089E2FE
:103E200090E10E945A4D69E974E089E290E10E94B4
:103E3000744B80EF99E00E94762CAB01BC0122E02C
:103E400030E089E290E10E945A4D66E974E089E22F
:103E500090E10E94744B88E699E00E94762CAB01B9
:103E6000BC0122E030E089E290E10E945A4D89E2F3
:103E700090E10E94A04B0E94924668517C4F8F4F68
:103E80009F4F6093E2057093E3058093E405909360
:103E9000E5058091FA059091FB051F910F91FF9028
:103EA000EF90DF90CF900C9495341F910F91FF907D
:103EB000EF90DF90CF900895CF93DF9360EE73E0A3
:103EC00089E290E10E94A44B83EB9CE00E94920E59
:103ED0006BEC73E083EB9CE00E94744B41E060E08C
:103EE00083EB9CE00E94980E67EB73E083EB9CE011
:103EF0000E94744B42E060E083EB9CE00E94980ECD
:103F000062EA73E083EB9CE00E94744B43E060E064
:103F100083EB9CE00E94980E6DE873E083EB9CE0DD
:103F20000E94744B68E873E180E090E00E94C14613
:103F300083EB9CE00E94920E62E773E083EB9CE0CF
:103F40000E94744B41E060E083EB9CE00E94980E7D
:103F50006BE673E083EB9CE00E94744B42E060E010
:103F600083EB9CE00E94980E65E673E083EB9CE097
:103F70000E94744B85E49CE00E94572F8093440C70
:103F800089E290E10E9425491816190634F489E265
:103F900090E10E943E498093440C8091440C81340E
:103FA00039F56DE473E089E290E10E94A44B83EB64
:103FB0009CE00E94920E69E373E083EB9CE00E9418
:103FC000744B87EF9CE0D7D487EF9CE042D787EF14
:103FD0009CE0F6D3C0E0D0E0D093F80CC093F70C8F
:103FE00087EF9CE070D72196CA30D105A9F702C0AF
:103FF00081E001C080E09091440C923411F0811175
:10400000B9CF80E897E0DF91CF910C949534CF93AE
:10401000DF9383EB9CE00E94920E69E273E083EBF6
:104020009CE00E94744B41E060E083EB9CE00E94C6
:10403000980E62E273E083EB9CE00E94744B42E0D6
:1040400060E083EB9CE00E94980E6CE173E083EBF0
:104050009CE00E94744BC0E8D7E085E49CE00E949D
:10406000572F8093440C89E290E10E94254918164D
:10407000190634F489E290E10E943E498093440C91
:104080008091440C893711F0813471F584E599E011
:104090000E947A438EE998E00E940B3A80E19CE00E
:1040A0000E948A4288E89BE00E94482C80E09BE0C6
:1040B0000E94482C88E79AE00E94482C80EF99E003
:1040C0000E94482C88E699E00E94482C82E198E002
:1040D0000E94D13F1092CC0C1092CB0CD093FB05D8
:1040E000C093FA0580E001C081E09091440C9E36B7
:1040F00021F0923411F08111B0CFDF91CF9108956A
:1041000086CF85CF84CF83CFCF93DF9383EB9CE0A3
:104110000E94920E69E073E083EB9CE00E94744B76
:1041200041E060E083EB9CE00E94980E64EF72E057
:1041300083EB9CE00E94744B42E060E083EB9CE0E8
:104140000E94980E65EE72E083EB9CE00E94744B37
:1041500043E060E083EB9CE00E94980E64ED72E027
:1041600083EB9CE00E94744B68E873E180E090E090
:104170000E94C14683EB9CE00E94920E6AEC72E0C2
:1041800083EB9CE00E94744B41E060E083EB9CE099
:104190000E94980E63EC72E083EB9CE00E94744BEB
:1041A00042E060E083EB9CE00E94980E6DEB72E0D1
:1041B00083EB9CE00E94744B85E49CE00E94572FA7
:1041C0008093440C89E290E10E9425491816190653
:1041D00034F489E290E10E943E498093440C80913E
:1041E000440C813439F1823439F71CC0813409F42C
:1041F00045C085E49CE00E94572F8093440C89E2DF
:1042000090E10E9425491816190634F489E290E1DC
:104210000E943E498093440C8091440C8334C9F140
:10422000843421F78091FA059091FB05DF91CF91BD
:104230000C94953483EB9CE00E94920E6BEA72E042
:1042400083EB9CE00E94744B41E060E083EB9CE0D8
:104250000E94980E6AE972E083EB9CE00E94744B26
:1042600042E060E083EB9CE00E94980E62E972E01D
:1042700083EB9CE00E94744BC1E0BBCF84E599E0E6
:10428000CC2321F00E944143C0E0B3CF0E947A4387
:10429000F3CFC11106C080911F0E91E08927809352
:1042A0001F0E83EB9CE00E94920E6DE772E083EBA1
:1042B0009CE00E94744B68E873E180E090E00E940B
:1042C000C14683EB9CE00E94920E63E772E083EBB1
:1042D0009CE00E94744B41E060E083EB9CE00E9414
:1042E000980E6CE672E083EB9CE00E94744B42E017
:1042F00060E083EB9CE00E94980E66E672E083EB40
:104300009CE00E94744B85E49CE00E94572F8093B0
:10431000440C89E290E10E9425491816190634F4EC
:1043200089E290E10E943E498093440C8091440CC4
:10433000813419F0823439F775CF84E599E00E9411
:10434000414340E050E060E87FE384E599E00E946B
:10435000064383EB9CE00E94920E62E572E083EBE1
:104360009CE00E94744B41E060E083EB9CE00E9483
:10437000980E6BE472E083EB9CE00E94744B42E089
:1043800060E083EB9CE00E94980E65E472E083EBB2
:104390009CE00E94744B43E060E083EB9CE00E9451
:1043A000980E6DE372E083EB9CE00E94744BD1E0C9
:1043B00085E49CE00E94572F8093440C89E290E1B1
:1043C0000E9425491816190634F489E290E10E94EA
:1043D0003E498093440C8091440C823409F44AC0D5
:1043E000843409F451C0813419F7CC2309F384E5EE
:1043F00099E00E947A4383EB9CE00E94920E6BE26C
:1044000072E083EB9CE00E94744B68E873E180E00B
:1044100090E00E94C14683EB9CE00E94920E6AE10C
:1044200072E083EB9CE00E94744B41E060E083EB20
:104430009CE00E94980E69E072E083EB9CE00E9491
:10444000744B42E060E083EB9CE00E94980E60E0D9
:1044500072E083EB9CE00E94744B43E060E083EBEE
:104460009CE00E94980E68EF71E083EB9CE00E9454
:10447000744B16C080911E0E8D2780931E0E84E50E
:1044800099E00E94534494CF84E599E00E947A43D6
:10449000C9CE8091440C8134B9F0823409F4C2CE83
:1044A00085E49CE00E94572F8093440C89E290E1C0
:1044B0000E9425491816190664F789E290E10E94C6
:1044C0003E498093440CE5CF83EB9CE00E94920E22
:1044D00066EE71E083EB9CE00E94744B84E599E00A
:1044E0000E94414361E086E00E948F4884E599E0A4
:1044F0000E94414340E050E060E271E484E599E0CD
:104500000E94064360E777E180E090E00E94C146A8
:1045100084E599E00E947A4383EB9CE00E94920E2E
:1045200062ED71E083EB9CE00E94744B41E060E03F
:1045300083EB9CE00E94980E60EC71E083EB9CE0C2
:104540000E94744B42E060E083EB9CE00E94980E76
:1045500061EB71E083EB9CE00E94744B43E060E010
:1045600083EB9CE00E94980E6EE971E083EB9CE087
:104570000E94744B68E873E180E090E00E94C146BD
:1045800083EB9CE00E94920E6FE871E083EB9CE06D
:104590000E94744B41E060E083EB9CE00E94980E27
:1045A00068E871E083EB9CE00E94744B42E060E0BD
:1045B00083EB9CE00E94980E62E871E083EB9CE044
:1045C0000E94744B85E49CE00E94572F8093440C1A
:1045D00089E290E10E9425491816190634F489E20F
:1045E00090E10E943E498093440C8091440C8134B8
:1045F00029F487EF9CE02DD480E001C081E0909108
:10460000440C923409F40ECE8111DCCF0BCECF9343
:10461000DF93EC0161E081E10E948F481B861A86DE
:10462000DF91CF910895FC01738762870895CF923F
:10463000DF92EF92FF92CF93DF93EC018A859B8507
:10464000892B09F443C0CC80DD80EE80FF800E947E
:1046500092466C157D058E059F05C0F1888599856C
:1046600080FD0BC00A972CF0198618861B861A86C7
:104670002DC080910201816003C0809102018E7F74
:10468000809302010E949246288539854A855B8580
:10469000AAE0A49FF001A59FF00D1124E20FF31FE3
:1046A000EE0FFF1FE15BFD4FC080D180EE24D7FCF1
:1046B000E094FE2C6C0D7D1D8E1D9F1D6C837D83F3
:1046C0008E839F832F5F3F4F39872887DF91CF915C
:1046D000FF90EF90DF90CF900895FC011186108637
:1046E000138612860895FC01CB01855C9D4F938B48
:1046F000828B615C7D4F758B648B558744870895F1
:104700000F931F93CF93DF93EC016C857D8544E07D
:1047100050E082E195E00E948C1000E010E082E120
:1047200095E00E94740F892B59F082E195E00E9478
:104730007C0FFE01E00FF11F80870F5F1F4FEFCF4F
:1047400082E195E00E948E10688579858A859B8537
:104750006C837D838E839F83DF91CF911F910F9117
:104760000895CF92DF92EF92FF92CF93DF93EC0107
:10477000EA89FB89C080D180E280F380C1DF9B01A0
:10478000AC0160E070E080E894E40E946C4D9B0115
:10479000AC01C701B6010E94774FEC89FD892081E9
:1047A0003181428153810E946D4D688379838A8370
:1047B0009B83DF91CF91FF90EF90DF90CF90089592
:1047C0000F931F93CF93DF93EC012FEF3FEFFC018B
:1047D00021933193CF0165EC74E00E947A5040E060
:1047E00050E066EE73E44E8B5F8B688F798F47EDF8
:1047F00053EA60EB7FE34A8F5B8F6C8F7D8F4DECCC
:104800005CEC6CE47DE34E8F5F8F68A379A340E09E
:1048100050E060E071E44AA35BA36CA37DA300E0D9
:1048200010E020E232E40EA31FA328A739A700E07E
:1048300010E020EF31E40AA71BA72CA73DA700E05A
:1048400010E020E231E40EA71FA728AB39AB0AE045
:1048500017ED23EA3BE30EAB1FAB28AF39AF0FE6F2
:1048600012E123E83AE30AAB1BAB2CAB3DAB1AAE2B
:104870001BAE1CAE1DAEFE01FE9600E010E020E770
:1048800031E40083118322833383349600E010E007
:1048900020EA30E40083118322833383349684E654
:1048A00090E0918380833296408351836283738347
:1048B000349640E050E864E873E4408351836283B7
:1048C0007383349640835183628373833496408329
:1048D00051836283738334964083518362837383ED
:1048E000349640835183628373833496408351832B
:1048F00062837383349640E050E06AE773E4408358
:10490000518362837383349640E050E061E473E442
:1049100040835183628373833496408351836283DF
:104920007383349640E050E062E873E4408351833F
:1049300062837383349640E050E064E373E4408321
:10494000518362837383349640E050E86EE873E4E9
:104950004083518362837383C458DF4F4FE050E03C
:1049600060E070E0488359836A837B83DF91CF9155
:104970001F910F9108952F923F924F925F926F92E5
:104980007F928F929F92AF92BF92CF92DF92EF92DF
:10499000FF920F931F93CF93DF931F921F92CDB778
:1049A000DEB7FC01EF5FFE4F1082319622E030E06F
:1049B00031832083329640E050E060E87FE340831B
:1049C000518362837383349624E630E031832083FD
:1049D000329620E436E03183208332962BE430E0B7
:1049E00031832083329620ED222E27E0322E318231
:1049F000208232962AE530E031832083329631E0FE
:104A0000308331962FE530E03183208332962EE6D5
:104A100030E031832083329620EA30E031832083F6
:104A2000349638EE432E33E0532E51824082329634
:104A300020E137E231832083329628EC30E0318365
:104A40002083329620E530E0318320833296118234
:104A50001082329620E130E031832083329610823A
:104A6000319641E04083319640E050E060E470E4EC
:104A700040835183628373833496A1E0B0E0B183B5
:104A8000A083329631832083329610823196108231
:104A900031964FE852E460E972E4408351836283C7
:104AA0007383349640E050E068E473E440835183BC
:104AB0006283738334961082118212821382349639
:104AC00042E050E051834083329631832083329616
:104AD000108231961082319640E050E06CE073E431
:104AE0004083518362837383349640E050E060EFEB
:104AF00071E44083518362837383349640E050E0D5
:104B000066E972E44083518362837383349642E59D
:104B100058EB62E271E44083518362837383B896F9
:104B200027E030E031832083729710821182128255
:104B3000138234970AE919E929E13EE300831183DE
:104B40002283338334974AE959E969E570E4408365
:104B50005183628373833897C12CD12CA8ECEA2E41
:104B6000A2E4FA2EC082D182E282F38234961082CD
:104B70001182128213827896BEE66B2EBFE07B2EE6
:104B8000718260823297A4E1B0E0B183A08336964F
:104B9000118210823C97A0EA8A2EA6E89A2EAA24B7
:104BA000A394B12C80829182A282B3823A965182E0
:104BB0004082B09731822082B89610821182128290
:104BC00013823496108231961082B596A4E0B0E03C
:104BD000B183A0837297108211821282138234975C
:104BE000008311832283338334974083518362830C
:104BF00073833897C082D182E282F3823496108226
:104C00001182128213827896718260823297A4E1B7
:104C1000B0E0B183A0833696A1E0B0E0B183A08379
:104C20003C9780829182A282B3823A9651824082DE
:104C3000B09731822082B89610821182128213823C
:104C40003496108231961082B596A3E0B0E0B1831D
:104C5000A08372971082118212821382349700838C
:104C60001183228333833497408351836283738318
:104C70003897C12CD12CBFE7EB2EB3E4FB2EC082BA
:104C8000D182E282F38234961082118212821382E0
:104C90007896718260823297A4E1B0E0B183A083FC
:104CA0003696A2E0B0E0B183A0833C9780829182E7
:104CB000A282B3823A9651824082B097318220829A
:104CC000B8961082118212821382DC01A352BE4F69
:104CD000E1E0EC93FC01E252FE4F10829696E2E096
:104CE000F0E0ED93FC93FC01EF50FE4F1082118237
:104CF0001282138234970083118322833383349783
:104D000040835183628373833897C082D182E28269
:104D1000F382349610821182128213827896718205
:104D200060823297A4E1B0E0B183A0833696A3E01D
:104D3000B0E0B183A0833C9780829182A282B3824B
:104D40003A9651824082B09731822082B896108282
:104D50001182128213823496B1E0B08331961082B0
:104D6000B596A5E0B0E0B183A0837297108211825E
:104D70001282138234970083118322833383349702
:104D800040835183628373833897C082D182E282E9
:104D9000F382349610821182128213827896718285
:104DA0006082329724E130E031832083369644E0FC
:104DB00050E0518340833C9780829182A282B382EB
:104DC0003A9651824082B09731822082B896108202
:104DD000118212821382349651E0508331961082F0
:104DE000319646EC54E464E17AE340835183628374
:104DF0007383349649EA54EA66EC7FE34083518337
:104E000062837383349640E050E06CE873E440833F
:104E1000518362837383349642E050E060E070E037
:104E200040835183628373830F900F90DF91CF9102
:104E30001F910F91FF90EF90DF90CF90BF90AF90B8
:104E40009F908F907F906F905F904F903F902F90AA
:104E500008950F931F93CF93DF938C016DEB78E14F
:104E600089E290E10E94A44BF801F39581E08083F0
:104E70008F01C0E0D0E0F80161918F01CE010E9466
:104E8000AC502196CB34F1E0DF07A9F7DF91CF9149
:104E90001F910F9108950F931F93CF93DF938C0170
:104EA0001395C0E0D0E0CE010E94A450F801819398
:104EB0008F012196CB34F1E0DF07A9F7DF91CF9185
:104EC0001F910F910895EF92FF920F931F93CF932D
:104ED000DF93FC01C081D181D695DC2FCC27D795FB
:104EE000C7958C017E01F5E3EF1AFEEFFF0AC55B63
:104EF000DE4FF80161918F01CE010E94AC502196E6
:104F0000CE15DF05B1F7DF91CF911F910F91FF9083
:104F1000EF900895EF92FF920F931F93CF93DF933B
:104F20007C018B01C0E0D0E0CE018E0D9F1D0E9460
:104F3000A450F80181938F012196C038D105A1F7C3
:104F400080E890E0DF91CF911F910F91FF90EF905B
:104F500008959B013695322F222737952795BC015E
:104F6000C901855B9E4FD6CF08950F931F93CF93B2
:104F7000DF93EC018B01BC0160587F4F5695542F95
:104F8000442757954795CA01855B9E4FC3DFBE01F5
:104F90006E577F4FC801DF91CF911F910F910C94F5
:104FA0007A50EF92FF920F931F93CF93DF937C0180
:104FB0008C01055B1D4FC0E0D0E0AE01B801C70118
:104FC000D4DF21960C5E1F4FCA30D105B1F7DF91B7
:104FD000CF911F910F91FF90EF900895CF93DF93A2
:104FE000EC01DFDFCE01DF91CF9155CFFC0177835C
:104FF00066836130710581F01CF4672B41F00895E0
:105000006230710549F06330710531F0089584E034
:1050100090E09183808308957183608308954F9217
:105020005F926F927F928F929F92AF92BF92CF9238
:10503000DF92EF92FF920F931F93CF93DF93CDB741
:10504000DEB72E970FB6F894DEBF0FBECDBFFC01C2
:10505000CB01BA016283738384839583E080F180FE
:1050600022E0E216F10409F083C02EE0ECEDF2E05C
:10507000DE01119601900D922A95E1F79B01AC019A
:105080000E946D4D2B013C01CE0101967C015E0119
:105090009FE0A90EB11CF701C190D1907F01B6012C
:1050A000882777FD8095982F0E94704E9B01AC0158
:1050B000C301B2010E94774F9B01AC0160E074E232
:1050C00084E79BE40E94D54D20E030E04FE753E4B5
:1050D0000E94D14D87FD04C0EA14FB04E1F601C033
:1050E000860100341105E9F05CF408301105A9F0DF
:1050F00000321105A1F001301105C9F481E018C09A
:105100000115F1E01F0779F0011524E0120769F09D
:105110000038110561F485E00BC082E009C083E02E
:1051200007C084E005C086E003C087E001C080E0DE
:1051300093E49093B00088608093B100B801882711
:1051400077FD8095982F0E94704E9B01AC01C301A2
:10515000B2010E94774F9B01AC0160E074E284E7EA
:105160009BE40E94D54D0E94424E6093B300D0C094
:105170002AE0EAEEF2E0DE01119601900D922A9506
:10518000E1F79B01AC010E946D4D2B013C01CE016A
:1051900001966C014E019BE0890E911CF601A190D5
:1051A000B1906F01B501882777FD8095982F0E94F7
:1051B000704E9B01AC01C301B2010E94774F9B016D
:1051C000AC0160E074E284E79BE40E94D54D20E0EE
:1051D0003FEF4FE757E40E94D14D87FD04C0C8144C
:1051E000D904E1F601C0850100341105A1F03CF4B9
:1051F0000130110571F008301105A9F010C001153A
:10520000F1E01F0751F0011524E0120741F485E099
:105210000DC081E00BC083E009C084E007C017FD2A
:1052200004C080E003C082E001C087E093E0E9169B
:10523000F10459F1E4E0EE16F10409F448C0EA94EF
:10524000EF2809F065C093E4909380008861809313
:105250008100B801882777FD8095982F0E94704EB5
:105260009B01AC01C301B2010E94774F9B01AC01CD
:1052700060E074E284E79BE40E94D54D0E943D4EBD
:10528000709389006093880043C093E490939000EA
:10529000886180939100B801882777FD8095982FC9
:1052A0000E94704E9B01AC01C301B2010E94774F76
:1052B0009B01AC0160E074E284E79BE40E94D54D61
:1052C0000E943D4E709399006093980021C093E432
:1052D0009093A00088618093A100B801882777FD92
:1052E0008095982F0E94704E9B01AC01C301B201C2
:1052F0000E94774F9B01AC0160E074E284E79BE47D
:105300000E94D54D0E943D4E7093A9006093A80065
:105310002E960FB6F894DEBF0FBECDBFDF91CF91B2
:105320001F910F91FF90EF90DF90CF90BF90AF90C3
:105330009F908F907F906F905F904F9008954F92C5
:105340005F926F927F928F929F92AF92BF92CF9215
:10535000DF92EF92FF920F931F93CF93DF934C0155
:10536000EB01A8A0B9A0CE8CDF8CEC8CFD8C0A8D53
:105370001B8D2E893F89488D598D6AA17BA10E9482
:10538000924434018EE2680E711CAE84BF84C888DA
:10539000D988EA84FB840C851D859E01285D3F4FDA
:1053A0002401E9E64E0E511C1F921F928D898F93A6
:1053B0008C898F938B898F938A898F93A201B401F3
:1053C000C3010E94BB3EF401E959FF4FD183C08362
:1053D00036969182808268817981C3010E94563D10
:1053E000CA88DB88EC88FD880E851F852889398965
:1053F0004A855B856C857D85C3010E94A33C0A813B
:105400001B812C813D814E815F8168857985C30137
:105410000E94A43D60E070E0C3010E946A3EF20178
:1054200010821182128213827E01F4E2EF0EF11CCF
:10543000840101591F4FF801F182E082CE018D965F
:105440003696918380830F900F900F900F900F905E
:105450000F90009741F0349707979183808361E024
:105460008EA10E948F48F801F182E08261E08CA158
:105470000E948F48F401ED58FF4FCE018C96918326
:10548000808334968A979183808332962696D1833F
:10549000C083DF91CF911F910F91FF90EF90DF902C
:1054A000CF90BF90AF909F908F907F906F905F90C4
:1054B0004F9008954F925F926F927F928F929F923A
:1054C000AF92BF92CF92DF92EF92FF920F931F9312
:1054D000CF93DF93EC010E9492468E0105581F4F37
:1054E000D8016D937D938D939C931397CE010E9469
:1054F000D545F80140815181628173815E01F7E6F3
:10550000AF0EB11CD501ED91FC9180819181AA274C
:1055100097FDA095BA2F7E01E3E8EE0EF11CF7018E
:105520004080518062807380840D951DA61DB71D3B
:105530009E012D583F4F6901481759076A077B079D
:1055400008F4FEC040835183628373837697D183CE
:10555000C083CE018E960E94833BD601ED91FC91D3
:105560008081FE01E759FF4F4F01811137C0408014
:105570005180628073804E01FFE78F0E911CD50130
:10558000ED91FC9160817181882777FD8095982F3E
:105590000E94704EA30192010E94774F20E030E0FC
:1055A00048EC52E40E94D54D0E94424EF4016083C3
:1055B00071838283938320E030E040E85FE3C3019E
:1055C000B2010E94734F18160CF0BAC0FE01E159E7
:1055D000FF4F0190F081E02D61E02DC0FE01EB58FE
:1055E000FF4F0190F081E02D8081882309F498C05D
:1055F000D4014D905D906D907C9020E030E040E8CB
:105600005FE3C301B2010E94734F87FD18C0C3015D
:10561000B2010E943D4EFE01E159FF4F0190F08121
:10562000E02D80810E947847FE01EF58FF4F0190E6
:10563000F081E02D60E080810E94C84881C020E0B8
:1056400030E040E85FEBC301B2010E94D14D181673
:10565000C4F13E01B7E86B0E711CF30180819E011D
:105660002F583F4F5901882381F0D901ED91FC91CA
:1056700062E370E080810E947847F301108264E663
:1056800070E080E090E00E94C146FE01E159FF4FCA
:105690000190F081E02D60E070E080810E94784709
:1056A000D4012D913D914D915C9160E070E080E2DC
:1056B00091E40E946C4D0E943D4ED501ED91FC910C
:1056C0003CC020E030E040E85FE3C301B2010E944B
:1056D000D14D87FF35C020E030E040E85FEBC301EB
:1056E000B2010E94734F18165CF5FE01E159FF4F9D
:1056F0000190F081E02D60E070E080810E947847A9
:10570000FE01EF58FF4F0190F081E02D60E08081B5
:105710000E94C84881E0FE01E957FF4F808310C016
:10572000F40160817181828193810E943D4EFE016E
:10573000E159FF4F0190F081E02D80810E94784770
:10574000D601ED91FC91808181113CC06E01BFE6D4
:10575000CB0ED11CD601ED91FC9180810E94FD48B9
:10576000892B81F1C158DF4F88819981AA81BB8142
:10577000F7014081518162817381840F951FA61FBB
:10578000B71FF80140815181628173814817590721
:105790006A077B07B8F0D601ED91FC9160E080814B
:1057A000DF91CF911F910F91FF90EF90DF90CF90FD
:1057B000BF90AF909F908F907F906F905F904F9031
:1057C0000C94C848DF91CF911F910F91FF90EF90FB
:1057D000DF90CF90BF90AF909F908F907F906F9011
:1057E0005F904F900895AF92BF92CF92DF92EF9269
:1057F000FF920F931F93CF93DF93EC015A016B013C
:105800008C01025D1F4FC8010E94253F019729F4BA
:1058100060E070E0C8010E946A3EFE01E758FF4F59
:105820000190F081E02DE080F180028113819701E9
:10583000A801B501C6010E94D14D87FD02C07501C6
:105840008601FE01E958FF4F0190F081E02DA08014
:10585000B180C280D3809501A601B701C8010E9422
:10586000734F181614F057016801C759DF4FC5016F
:10587000D60188839983AA83BB83DF91CF911F913F
:105880000F91FF90EF90DF90CF90BF90AF90089571
:10589000CF93DF93EC0160E070E08E960E946A3E49
:1058A000FE01E759FF4F1082118212821382369651
:1058B0000190F081E02D60E080810E94C848FE01E7
:1058C000EB58FF4F80819181892B51F0CF58DF4FEA
:1058D000E881F98160E08081DF91CF910C94C84824
:1058E000DF91CF9108958E960C946A3EFC01608101
:1058F0007181828193810895FC0110821482138248
:1059000015820895862F642F0C948F48862F642F5C
:105910000C94C848862F0C94FD484F925F926F926A
:105920007F928F929F92AF92BF92CF92DF92EF922F
:105930000F93CF93DF93EC014B013A01590102968B
:10594000DBDF84ED94E0998388836E018CE1C80EDF
:10595000D11C26018CE3480E511CC601CDDF86E028
:10596000C80ED11CC414D504C1F7FE01EE59FF4F77
:10597000718260823296B182A08232960083319623
:10598000E08237979182808238968AE090E0918316
:105990008083329684EF91E09183808332961182E6
:1059A0001082C45ADF4F188219821A821B82DF913B
:1059B000CF910F91EF90DF90CF90BF90AF909F90DD
:1059C0008F907F906F905F904F9008952F923F92AD
:1059D0004F925F926F927F928F929F92AF92BF92FF
:1059E000CF92DF92EF92FF920F931F93CF93DF93AB
:1059F000CDB7DEB728970FB6F894DEBF0FBECDBF88
:105A000098878F83F12C4C0186E6880E911C0F81BC
:105A100018850E591F4FD4018C91F816A0F4AF8150
:105A2000B8858D919C91F801A081B181AF0DB11D18
:105A3000FC012081318142E06C918F819885F901D0
:105A40001995F394E8CF512CEF81F885E959FF4F70
:105A5000FA83E9830F8118850C591F4FC12CD12C73
:105A60007601C3948F8198858E599F4F9C838B8339
:105A7000A981BA818C91581608F088C0A52CB12C48
:105A8000AF81B8858D919C91F801A081B181AA0D5B
:105A9000BB1DFC012081318141E06C918F81988593
:105AA000F9011995AF81B8858D919C91F801A0817C
:105AB000B181AA0DBB1DFC012281338140E06C91B4
:105AC0008F819885F9011995D701C601052C04C06D
:105AD000880F991FAA1FBB1F0A94D2F79C011C01B3
