:100000000C94810F0C94B20F0C94B20F0C94B20F9D
:100010000C94B20F0C94B20F0C94B20F0C94B20F5C
:100020000C94B20F0C94B20F0C94B20F0C94B20F4C
:100030000C94B20F0C94B20F0C94B20F0C94B20F3C
:100040000C94B20F0C94B20F0C94B20F0C94B20F2C
:100050000C94B20F0C94B20F0C94B20F0C949C48F9
:100060000C94B20F0C94E84C0C941E4D0C94B20FEF
:100070000C94B20F0C94B20F0C94B20F0C94B20FFC
:100080000C94B20F0C94B20F0C94B20F0C94B20FEC
:100090000C94B20F0C94B20F0C94B20F0C946E47E8
:1000A0000C94B20F0C94B20F0C94B20F0C94B20FCC
:1000B0000C94B20F0C94B20F0C94B20F0C94B20FBC
:1000C0000C94B20F0C94B20F0C94B20F0C94B20FAC
:1000D0000C94B20F0C94B20F0C94B20F0C94B20F9C
:1000E0000C94B20FA92FB62FB62F7D2F7D2F862F00
:1000F000862F952F952FA02FA02FA02FA02FA92FAF
:10010000A92FDE31E531E531503050305D305D30C2
:1001100067306730D930D930D930D930DE31DE316F
:10012000EA35EF35EA35EF35EA35EF35EA35EF35C3
:10013000EA35EF35EA35EF35ED35EF49F449F94960
:10014000034A0D4A864A174A1F4A274A314A3B4A00
:10015000454A544A5E4A864A684A724A7C4AA84AD4
:10016000AB4A9A4A9E4AA44AE24AAF4AB34AB94ABB
:10017000BD4AC14AC74ACB4ACF4AE24AD54AD94AC0
:10018000DD4A07634236B79BD8A71A39685618AEBE
:10019000BAAB558C1D3CB7CC5763BD6DEDFD753EBC
:1001A000F6177231BF000000803F08000000BE92C9
:1001B0002449123EABAAAA2ABECDCCCC4C3E0000AC
:1001C0000080BEABAAAAAA3E00000000BF0000004B
:1001D000803F0000000000084178D3BB4387D11363
:1001E0003D190E3CC3BD4282AD2B3E68EC8276BE0B
:1001F000D98FE1A93E4C80EFFFBE01C4FF7F3F00D5
:10020000000000004229204E6F00412920596573EB
:1002100000536176652053657474696E67733F009F
:10022000696E207468652073706F6F6C6572206DE5
:10023000656E75007468652073706F6F6C2044691B
:100240006D656E73696F6E7300446F6E2774206600
:100250006F7267657420746F207365742000422983
:1002600020457869740041292053746F70007072C2
:100270006573732053746F70206174203120726530
:10028000762E004229204578697400412920426574
:1002900067696E0070726573732053746F702061AC
:1002A000742031207265762E00506C616365207277
:1002B0006F6C6C6572206F6E204469736B00526FB7
:1002C0006C6C65722F4469736B2054657374006D98
:1002D0006963726F737465702073657474696E6797
:1002E000730074686520776972696E6720616E6457
:1002F000006D616B652031207265762C2063686526
:10030000636B0049662073706F6F6C65722064695F
:10031000646E277400526F746174696E67203120B7
:100320007265762E2E2E0042292045786974004190
:100330002920426567696E00417474656D70746947
:100340006E67203120726576004D61726B20746893
:100350006520526F6C6C65722E20004D6963726F60
:1003600073746570696E6720546573740044292046
:1003700045786974004229204E6F00412920596553
:10038000730073706F6F6C657220646972204F4BDD
:100390003F004229204E6F004129205965730043D8
:1003A0006F6E74696E75653F0073706F6F6C657208
:1003B00020446972656374696F6E2E2E2E00442985
:1003C0002045584954004329205768656E204469E8
:1003D0007361626C656400412920456E61626C65E1
:1003E0002F44697361626C65004229204E6F0041A1
:1003F000292059657300436F6E74696E75653F00FF
:10040000666F6C6C6F77696E672074657374732E9A
:1004100000746F20706572666F726D20746865007D
:100420006D757374206265206672656520746F2037
:100430006D6F7665005741524E494E473A205468D9
:10044000652053706F6F6C6572004C6F6164207330
:10045000616D706C65207468656E20706F72657375
:1004600073202744272E205072657373202743275B
:10047000207768656E20446F6E652E00537465703A
:1004800020333A204C6F61642073616D706C65732A
:100490002077697468206B6E6F776E204469616D98
:1004A000657465722E204D696E696D756D206F667D
:1004B00020332E205468656E205265636F7264206D
:1004C0004469616D657465722E005468656E2050D4
:1004D00072657373203C656E7465723E005374657B
:1004E00070323A2041646A757374207468652073B1
:1004F000656E736F7220756E74696C206974206903
:1005000073206265747765656E2034353020616EC6
:1005100064203535302E005374657020323A204106
:10052000646A757374207468650053746570203153
:100530003A204C6F61642066696C616D656E742051
:100540007769746820746172676574206469616D8D
:10055000657465722E005072657373203C656E740D
:1005600065723E00776974682074617267657420F3
:100570004469616D65746572005374657020313A29
:100580004C6F61642066696C616D656E74004361D7
:100590006C697065722043616C6962726174696F25
:1005A0006E0043616C697065722043616C696272B0
:1005B0006174696F6E004229204E6F0041292059F5
:1005C000657300536176652053657474696E677353
:1005D0003F006D6963726F73746570207365747426
:1005E000696E67730074686520776972696E672049
:1005F000616E64006D616B652031207265762C2020
:10060000636865636B00496620746865206175677F
:100610006572206469646E277400526F7461746936
:100620006E672031207265762E2E2E0042292045DD
:1006300078697400412920426567696E00417474CD
:10064000656D7074696E67203120726576004D614A
:10065000726B207468652073686166742E20004D8B
:100660006963726F73746570696E67205465737423
:100670000044292045786974004229204E6F0041CA
:100680002920596573004175676572206469726538
:100690006374696F6E204F4B3F004229204E6F00FC
:1006A00041292059657300436F6E74696E75653F0B
:1006B00000417567657220446972656374696F6E85
:1006C0002054657374004429204558495400432937
:1006D000205768656E2044697361626C65640041EF
:1006E0002920456E61626C652F44697361626C6597
:1006F000004229204E6F0041292059657300436F45
:100700006E74696E75653F00666F6C6C6F77696EAD
:10071000672074657374732E00746F207065726641
:100720006F726D20746865006D757374206265204A
:100730006672656520746F206D6F76650057415253
:100740004E494E473A2054686520417567657200EE
:100750004229204E6F004129205965730053746F60
:100760007020457874727564696E673F00526573D6
:10077000657474696E6720454550524F4D2E2E2E7C
:1007800000526573657474696E67207468652045EE
:100790004550524F4D2E2E2E004229204E6F0041C3
:1007A000292059657300576F756C6420796F752027
:1007B0006C696B6520746F2070726F636565643F50
:1007C000007468652064656661756C742073657477
:1007D00074696E67730073746F7265642070726FF2
:1007E00066696C657320776974680077696C6C2042
:1007F0006F766572777269746520616C6C20005742
:1008000041524E494E473A205468697320616374DF
:10081000696F6E005741524E494E473A20546869FD
:100820007320616374696F6E2077696C6C206F76DA
:100830006572776972746520616C6C2073746F7275
:1008400065642070726F66696C657320776974687F
:10085000207468652064656661756C7420536574E6
:1008600074696E67732E0050726F66696C652053F1
:100870006176656400536176696E672070726F6699
:10088000696C652E2E2E00536176696E6720536564
:100890007474696E677320666F722070726F666918
:1008A0006C65206E756D6265723A2000436F6E66EE
:1008B000696775726174696F6E2053617665640053
:1008C000536176696E672E2E2E0046696E697368D5
:1008D000656420536F616B696E670054696D6528AC
:1008E00073292C20446961286D6D292C206F757443
:1008F0006665656452504D2C20737461727665464E
:10090000656564657252504D2C2020617567657273
:1009100052504D2C204D6F64652C204261727265DF
:100920006C2054656D702843292C204261727265D9
:100930006C447574794379636C652825292C204EA5
:100940006F7A7A6C652054656D702843292C204E8F
:100950006F7A7A6C65447574794379636C65282580
:10096000292C206F7574666565644B702C206F753B
:1009700074666565644B692C206F75746665656483
:100980004B642C206665656452617465286D2F6D1B
:10099000696E292C206D6574657273457874727563
:1009A000646564006F16FFFF010000000000000096
:1009B000F31231170000FFFF000000000300F713DF
:1009C0002C170000FFFF000000000300FF13D517E5
:1009D0000000FFFF310200000F00A11563160000A8
:1009E000FFFF000000000300131454160000FFFF77
:1009F00037020000060000004A160000FFFF00005A
:100A0000000003001F143D160000FFFF3502000028
:100A100006000000841B0000FFFF930B02000A0089
:100A2000000038160000FFFF000000000300EA127B
:100A30009D1A0000FFFF2B0C000006000000931A17
:100A40000000FFFF2D0C02000A000000851A0000C4
:100A5000FFFF310C000006000000771A0000FFFFC6
:100A6000330C0000060000006C1A0000FFFF350C7C
:100A70000000060000005F1A0000FFFF370C0000B6
:100A800006000000511A0000FFFF390C00000600AC
:100A90000000471A0000FFFF3B0C000004000000AC
:100AA0003D1A0000FFFF3C0C0000060000002B1A5E
:100AB0000000FFFF3E0C0000060000001E1A0000B0
:100AC000FFFF400C000006000000121A0000FFFFAC
:100AD000440C000006000000061A0000FFFF460C50
:100AE000000006000000F9190000FFFF480C00009C
:100AF00006000000EB190000FFFF4A0C0000060092
:100B000000008916FFFF01000000000000007813BC
:100B10009B170000FFFF6D0B01000D000000331B51
:100B20000000FFFFB90B00000C000000821600005F
:100B3000FFFF550B00000F0002139C16FFFF010082
:100B4000000000000000AF138F170000FFFF690BCB
:100B500001000D000000231B0000FFFFBD0B000083
:100B60000C00000095160000FFFF590B00000F005D
:100B70002C13C016FFFF01000000000000006F19D9
:100B8000B7160000FFFF390200000D000000841BB3
:100B90000000FFFF930B02000A000314A8160000D8
:100BA000FFFF530B0000070000009B170000FFFF32
:100BB0006D0B01000D0000008F170000FFFF690B97
:100BC00001000D0000007A1B0000FFFF970B0100E1
:100BD0000A007C106E1B0000FFFF9B0B01000C0045
:100BE000F610CF160000FFFF000000000300881081
:100BF000E3160000FFFF3D0200000F00C413D517ED
:100C00000000FFFF310200000F00A115331B0000A0
:100C1000FFFFB90B00000C000000231B0000FFFFCA
:100C2000BD0B00000C000000A91B0000FFFF730BB0
:100C300000000E000000A01B0000FFFF870B020059
:100C40000C0000008E1B0000FFFF8F0B02000A004B
:100C50000000631B0000FFFFA30B02000C000F1439
:100C6000581B0000FFFF9F0B02000C000F144D1BD0
:100C70000000FFFFA70B02000C000F14431B000035
:100C8000FFFFB50B00000C0000001A1B0000FFFF67
:100C9000C10B00000C000000111B0000FFFFC50B82
:100CA00000000C000000021B0000FFFFC90B000049
:100CB000080000001917FFFF0100000000000000FD
:100CC00072190A170000FFFF630B00000F000000FD
:100CD000FA160000FFFF0000000003002710F116C5
:100CE0000000FFFF000000000300E00FE31600001B
:100CF000FFFF3D0200000F00C413331B0000FFFF85
:100D0000B90B00000C000000231B0000FFFFBD0B0F
:100D100000000C000000A91B0000FFFF730B000087
:100D20000E000000A01B0000FFFF870B02000C005C
:100D300000008E1B0000FFFF8F0B02000A00000066
:100D4000841B0000FFFF930B02000A000314D51759
:100D50000000FFFF310200000F00A1157A1B000008
:100D6000FFFF970B01000A007C106E1B0000FFFFC5
:100D70009B0B01000C00F610CF160000FFFF0000D7
:100D8000000003008810631B0000FFFFA30B02009C
:100D90000C000F14581B0000FFFF9F0B02000C00FB
:100DA0000F144D1B0000FFFFA70B02000C000F14D7
:100DB000431B0000FFFFB50B00000C0000001A1BD6
:100DC0000000FFFFC10B00000C000000111B000021
:100DD000FFFFC50B00000C000000021B0000FFFF1E
:100DE000C90B0000080000007517FFFF010000009C
:100DF00000000000711966170000FFFF5D0B000086
:100E00000F0000009B170000FFFF6D0B01000D009D
:100E100000008F170000FFFF690B01000D000000AC
:100E200053170000FFFF000000000300B60F40173B
:100E30000000FFFF000000000300CB0F361700008A
:100E4000FFFF0000000003001910331B0000FFFF2C
:100E5000B90B00000C000000231B0000FFFFBD0BBE
:100E600000000C00000031170000FFFF0000000030
:100E70000300F7132C170000FFFF00000000030021
:100E8000FF13A91B0000FFFF730B00000E00000002
:100E9000A01B0000FFFF870B02000C0000008E1B50
:100EA0000000FFFF8F0B02000A000000841B0000FF
:100EB000FFFF930B02000A000000D5170000FFFFA0
:100EC000310200000F00A1157A1B0000FFFF970BF5
:100ED00001000A0000006E1B0000FFFF9B0B0100D9
:100EE0000C000000631B0000FFFFA30B02000C00BE
:100EF0000000581B0000FFFF9F0B02000C000000C9
:100F00004D1B0000FFFFA70B02000C000000431B5D
:100F10000000FFFFB50B00000C0000001A1B0000D2
:100F2000FFFFC10B00000C000000111B0000FFFFC1
:100F3000C50B00000C000000021B0000FFFFC90BE6
:100F4000000008000000A717FFFF010000000000DC
:100F5000000070199B170000FFFF6D0B01000D00D2
:100F600000008F170000FFFF690B01000D0000005B
:100F7000331B0000FFFFB90B00000C000000231B17
:100F80000000FFFFBD0B00000C00000082170000F6
:100F9000FFFF0000000003000B10A91B0000FFFF73
:100FA000730B00000E000000A01B0000FFFF870B6A
:100FB00002000C0000008E1B0000FFFF8F0B0200E0
:100FC0000A000000841B0000FFFF930B02000A00D0
:100FD0000000D5170000FFFF310200000F00A1152F
:100FE0007A1B0000FFFF970B01000A0000006E1B38
:100FF0000000FFFF9B0B01000C000000631B0000C2
:10100000FFFFA30B02000C000000581B0000FFFFB5
:101010009F0B02000C0000004D1B0000FFFFA70B00
:1010200002000C000000431B0000FFFFB50B000096
:101030000C0000001A1B0000FFFFC10B00000C0099
:101040000000111B0000FFFFC50B00000C0000009A
:10105000021B0000FFFFC90B000008000000151C68
:10106000FFFF01000000000000000000061C00005F
:1010700004000000000000000000FC1B0000210034
:101080000000000000000000F21B000068000000EB
:10109000000000000000EF1B01000F00D40C000056
:1010A00001007612EC1B01000F00E80C00000100AB
:1010B0007C12E91B01000F00FC0C000001008212F1
:1010C000E61B01000F00100D000001008812E31B59
:1010D00001000F00240D000001008E12E01B010032
:1010E0000F00380D000001009412DD1B01000F00FD
:1010F0004C0D000001009A12DA1B01000F00600D78
:1011000000000100A012D71B01000F00740D0000A9
:101110000100A612D31B01000F00880D0000010082
:10112000AC12C31B01000F00000000000000B2124F
:10113000BB1B0400FFFF000000000000FD0FAE1B02
:101140000400FFFF000000000000B612A91B04000D
:10115000FFFF730B00000E000000A01B0400FFFF48
:10116000870B02000C000000981B0400FFFF8B0B94
:1011700002000C0000008E1B0400FFFF8F0B02001A
:101180000A000000841B0400FFFF930B02000A000A
:1011900000007A1B0400FFFF970B01000A0000000B
:1011A0006E1B0400FFFF9B0B01000C000000631B83
:1011B0000400FFFFA30B02000C000000581B0400FA
:1011C000FFFF9F0B02000C0000004D1B0400FFFFFF
:1011D000A70B02000C000000431B0400FFFFB50B2F
:1011E00000000C000000331B0400FFFFB90B0000DF
:1011F0000C000000231B0400FFFFBD0B00000C00CF
:1012000000001A1B0400FFFFC10B00000C000000CF
:10121000111B0400FFFFC50B00000C000000021BA7
:101220000400FFFFC90B000008000000EF1A0200D5
:10123000FFFF0000000003004E12E21A0200280027
:101240000000000000000000DC1A0200380000006E
:10125000000000000000D51A02003E00000000005F
:1012600000000000CE1A02004A000000000000004A
:101270000000C61A02005700000000000000000035
:10128000BE1A02005F000000000000000000AB1A60
:101290002200FFFF000000000300E6139D1A220059
:1012A000FFFF2B0C000006000000931A2200FFFF36
:1012B0002D0C02000A000000851A2200FFFF310CED
:1012C000000006000000771A2200FFFF330C000028
:1012D000060000006C1A2200FFFF350C000006001B
:1012E00000005F1A2200FFFF370C0000060000001C
:1012F000511A2200FFFF390C000006000000471AB7
:101300002200FFFF3B0C0000040000003D1A2200F9
:10131000FFFF3C0C0000060000002B1A2200FFFF1C
:101320003E0C0000060000001E1A2200FFFF400CC9
:10133000000006000000121A2200FFFF440C00000B
:1013400006000000061A2200FFFF460C00000600FF
:101350000000F9192200FFFF480C00000600000001
:10136000EB192200FFFF4A0C000006000000E01904
:101370002300FFFF0000000003007319D8192300A9
:10138000FFFF4C0C000006000000CE192300FFFFF9
:101390004E0C000006000000C4192300FFFF500C93
:1013A000000004000000BD192300FFFF510C0000E5
:1013B00004000000B1192300FFFF520C02000A00D4
:1013C0000000A5192400FFFF0000000003005613D1
:1013D0009B192400FFFF7E0C0000060000008C1902
:1013E0002400FFFF800C00000C0000007D19240089
:1013F000FFFF840C00000C0000007A192400FFFF9E
:10140000880C02000C00000077192400FFFF8C0CF0
:1014100002000C00000074192400FFFF900C020071
:101420000C00000064192400FFFF940C0000080069
:10143000000056192400FFFF980C00000600000071
:1014400045192400FFFF9A0C00000600000038191F
:101450002400FFFF9C0C000006000000251924005A
:10146000FFFF9E0C00000600000019192500FFFF79
:101470000000000000008D1315192500FFFFA00CCF
:1014800000000600000006192500FFFFA20C000066
:101490000C000000F7182500FFFFA60C00000C0050
:1014A0000000F4182500FFFFAA0C02000C00000049
:1014B000F1182500FFFFAE0C02000C000000EE1832
:1014C0002500FFFFB20C02000C000000E21825000E
:1014D000FFFFB60C000006000000D2182500FFFF39
:1014E000B80C000008000000C4182500FFFFBC0C69
:1014F000000006000000B3182500FFFFBE0C00002E
:1015000006000000A6182500FFFFC00C0000060022
:10151000000093182500FFFFC20C00000600000029
:1015200086182600FFFF00000000030064227E18DA
:101530002600FFFF560C000006000000741826006D
:10154000FFFF580C0000060000006A182600FFFF8D
:101550005A0C00000400000063182600FFFF5B0C1B
:1015600000000400000055182600FFFF5C0C02007C
:101570000A0000004D182600FFFF600C02000C005E
:10158000000045182600FFFF640C02000C0000005C
:1015900038182700FFFF000000000300F71B301879
:1015A0002700FFFF680C0000060000002618270037
:1015B000FFFF6A0C0000060000001C182700FFFF58
:1015C0006C0C00000400000015182700FFFF6D0CD4
:1015D00000000400000009182700FFFF6E0C020045
:1015E0000A000000FD172700FFFF720C02000A002E
:1015F0000000F0172700FFFF760C02000A00000031
:10160000E2172700FFFF7A0C02000A000000D5173E
:101610000300FFFF310200000F00A115C4170300F3
:10162000FFFF0000FFFF0300B40FB7170300FFFF29
:10163000000000000300531853746F700054696D6C
:101640006520746F2073656E640053656E6420546A
:10165000696D65004379636C657320746F207365F1
:101660006E640053656E64204379636C6573005348
:101670007461727665204665656465722054657391
:1016800074005374617475730042617272656C20EA
:101690005465737400537461747573004E6F7A7A75
:1016A0006C652054657374004772616D73204578D2
:1016B000747275646564004469616D657465720077
:1016C000457874727564696E672E202E202E004254
:1016D000617365204F757466656564206F6E204781
:1016E000504D00537461727665204665656465727D
:1016F000004164642054696D650046696C616D65E4
:101700006E74204C6F616465640054696D6520528D
:10171000656D61696E696E67004C6F616420466932
:101720006C616D656E742E202E202E0044756D70D8
:1017300000486F6D6500536B697020536F616B00DB
:10174000446563726561736520536F616B205469F2
:101750006D6500496E63726561736520536F616BDF
:101760002054696D650054696D652052656D61692D
:101770006E696E6700536F616B696E672E202E2055
:101780002E00536B69702050726568656174004E5D
:101790006F7A7A6C652054656D7000426172726573
:1017A0006C2054656D700050726568656174696E77
:1017B000672E202E202E00526573657420454550FB
:1017C000524F4D004D6561737572652046696C61BD
:1017D0006D656E74004665656420506C6173746954
:1017E0006300526F6C6C657220526164697573009E
:1017F0005472617665727365204C656E00436F723A
:101800006520526164697573004469736B2052618D
:101810006469757300456E61626C65004469726548
:101820006374696F6E0053746570204D6F6465005A
:1018300050696E2053657400546573742053706F43
:101840006F6C6572004D696E2052504D004D61788D
:101850002052504D00526F6C6C6572205261646969
:10186000757300456E61626C6500446972656374EE
:10187000696F6E0053746570204D6F646500506928
:101880006E205365740054657374204F75746665DB
:1018900065640054686572205365726965732052EF
:1018A00065736973740054686572204220436F65E4
:1018B00066660054686572204E756D2053616D70C8
:1018C0006C657300546865722054656D70204E6FAE
:1018D0006D005468657220526573697374204E6F91
:1018E0006D0053616D706C652054696D65004B64CB
:1018F000004B69004B70004D696E2044757479206F
:101900004379636C65004D61782044757479204398
:1019100079636C650050696E0054657374204E6F76
:101920007A7A6C65005468657220536572696573D4
:1019300020526573697374005468657220422043B5
:101940006F6566660054686572204E756D20536140
:101950006D706C657300546865722054656D7020FD
:101960004E6F6D0054686572205265736973742000
:101970004E6F6D004B64004B69004B70004D696EFB
:101980002044757479204379636C65004D6178203B
:1019900044757479204379636C650054696D6520E2
:1019A0004261736500546573742042617272656CA4
:1019B000004765617220526174696F6E00456E6107
:1019C000626C6500446972656374696F6E0053747C
:1019D0006570204D6F64650050696E20536574001A
:1019E00054657374204175676572004465626F7554
:1019F0006E63652054696D6500537461727475700F
:101A00002054696D65004D617846696C6C54696D50
:101A100065004D696E46696C6C54696D65004D6179
:101A200078447574794379636C650053746172749A
:101A3000757020447574794379636C6500447574DE
:101A4000794379636C6500446972656374696F6E8C
:101A5000004F76657220526F746174696F6E004832
:101A60006F6D696E672044656C61790053746570B1
:101A70002044656C61790044756D7020506F736906
:101A800074696F6E00486F6D6520506F736974697B
:101A90006F6E004C756D70204D61737300536C61F7
:101AA00076652041646472657373005465737420B5
:101AB0005374617276652046656564657200537083
:101AC0006F6F6C6572004F757466656564004E6F6C
:101AD0007A7A6C650042617272656C004175676567
:101AE0007200537461727665466565646572005371
:101AF00061766520436F6E66696775726174696FA0
:101B00006E004D61785072656865617454696D65E9
:101B1000004D61782054656D70004D696E205465EC
:101B20006D70004E6F7A7A6C652053657420546531
:101B30006D700042617272656C205365742054654B
:101B40006D7000536F616B2054696D65004F757443
:101B500066656564205064004F7574666565642031
:101B60004B69004F757466656564204B70004F7556
:101B700074666565642052504D004175676572203A
:101B800052504D004772616D732F4D696E00546F56
:101B90006C6572616E63650044656E73697479008B
:101BA0004469616D65746572004E616D65005361D5
:101BB00076652050726F66696C6500457874727541
:101BC00064650044656661756C742050726F666967
:101BD0006C65003130290039290038290037290087
:101BE00036290035290034290033290032290031F3
:101BF0002900417578696C696172790043616C698B
:101C000062726174650053656C6563742050726F15
:101C100066696C65004D61696E204D656E75005397
:101C20006176696E6720436F6E6669672E00F50303
:101C30001600F3031900F1031E00E9032800E20374
:101C40003200D2033C00C2034600AD0350009103B2
:101C50005A006F03640048036E0016037800E40224
:101C60008200AA028C00710296004302A0000102C9
:101C7000AA00CA01B4008B01BE005201C8002C01A9
:101C8000D2000901DC00EB00E600C800F000AC0067
:101C9000FA009600040182000E0172001801630030
:101CA000220153002C0100000A0B02090C0D0E0842
:101CB0000703040100000000000000000000000015
:101CC0000000000000000000000000000000000014
:101CD00000001211100000000000000000000000D1
:101CE00000000000000000000000000001021020C1
:101CF0002008081020401020408002010201080442
:101D000002010102040810204080804020100804D5
:101D1000020180040201804020100804020108042E
:101D20000201010204081020408001020408102072
:101D3000408005050505070508080808020202029B
:101D40000A0A080804040404010101010101010157
:101D50000303030303030303040707070C0C0C0C22
:101D60000C0C0C0C0202020206060606060606060B
:101D70000B0B0B0B0B0B0B0B0000200023002600A2
:101D800029002C002F003200000100000301060191
:101D9000090100002200250028002B002E00310040
:101DA000340002010000050108010B0100002100C0
:101DB000240027002A002D0030003300010100001C
:101DC000040107010A014E414E494E495459494EFA
:101DD00046CDCCCC3D0AD7233C17B7D13877CC2B96
:101DE000329595E6241FB14F0A000020410000C83B
:101DF0004200401C4620BCBE4CCA1B0E5AAEC59DBC
:101E00007400407A10F35A00A0724E18090010A511
:101E1000D4E80000E87648170000E40B5402000004
:101E2000CA9A3B000000E1F505000080969800008A
:101E30000040420F000000A08601000000102700B3
:101E4000000000E803000000006400000000000A39
:101E500000000000000100000000002C76D888DCA3
:101E6000674F0823DFC1DFAE59E1B1B796E5E3E480
:101E700053C63AE651997696E8E6C28426EB898CF9
:101E80009B62ED407C6FFCEFBC9C9F40F2BAA56F5B
:101E9000A5F490055A2AF75C936B6CF9676DC11B2A
:101EA000FCE0E40D47FEF520E6B500D0ED902E03F2
:101EB00000943577050080841E080000204E0A003B
:101EC0000000C80C333333330F986E12831141EF87
:101ED0008D2114893BE65516CFFEE6DB18D1844BE5
:101EE000381BF77C1D901DA4BBE424203284725E55
:101EF000228100C9F124ECA1E53D2700A8168F46F8
:101F0000504D11241FBECFEFD1E2DEBFCDBF00E0A8
:101F10000CBF15E0A0E0B2E0E4E4F1EB00E00BBFA1
:101F200002C007900D92A038B107D9F72FE0A0E8C2
:101F3000B5E001C01D92AF32B207E1F71EE1C2E089
:101F4000DFE100E006C022970109FE010BBF0E94FD
:101F50001554CC3FD10780E00807A9F70E94944DA3
:101F60000C94A0580C940000089508958091A00549
:101F70009091A105A091A205B091A305805A954129
:101F8000AF4FBF4F8093A0059093A105A093A205EA
:101F9000B093A30508958091A0059091A105A0910B
:101FA000A205B091A30580569A4EA109B10980936C
:101FB000A0059093A105A093A205B093A305089551
:101FC0008091980590919905A0919A05B0919B05F3
:101FD000805A9541AF4FBF4F8093980590939905D4
:101FE000A0939A05B0939B05089580EB99E00C941B
:101FF00028238FE19AE00C94023781E090E09093DF
:102000004E0B80934D0B8EEE97E09093AD05809331
:10201000AC050C945D3383E090E090934E0B80937D
:102020004D0B8EE897E09093AD058093AC050C9432
:102030005D3385E090E090934E0B80934D0B8EE2E4
:1020400097E09093AD058093AC050C945D3387E0E9
:1020500090E090934E0B80934D0B8EEC96E0909316
:10206000AD058093AC050C945D33CF92DF92EF9277
:10207000FF926EE273E080E99EE00E94184E0E949B
:10208000E6486093A4057093A5058093A6059093F8
:10209000A7050E9403516B017C0120E030E040E77E
:1020A00052E46091B50B7091B60B8091B70B909193
:1020B000B80B0E940C5220E030E04AE754E40E9442
:1020C0000C529B01AC01C701B6010E9402500E9454
:1020D000D7506093A0057093A1058093A2059093BB
:1020E000A30584E090E090934E0B80934D0BFF90FE
:1020F000EF90DF90CF9008954091970B5091980BFF
:102100006091990B70919A0B8CE999E00C94EA40DC
:102110008F929F92AF92BF92CF92DF92EF92FF92F7
:10212000C090870BD090880BE090890BF0908A0BC1
:1021300020918B0B30918C0B40918D0B50918E0B1D
:102140006091930B7091940B8091950B9091960BED
:102150000E946A5020E030E048EC53E40E940C52A8
:102160004B015C0120ED3FE049E450E4C701B601BA
:102170000E940C52A70196010E940C529B01AC01D7
:10218000C501B4010E946A5020E030E040E251E411
:102190000E940C526B017C0120ED3FE049EC50E4C1
:1021A00060915C0C70915D0C80915E0C90915F0C65
:1021B0000E940C529B01AC01C701B6010E946A50FB
:1021C000AB01BC0140939B0B50939C0B60939D0B08
:1021D00070939E0B87E199E0FF90EF90DF90CF9096
:1021E000BF90AF909F908F900C94123887E199E048
:1021F0000E94383840919B0B50919C0B60919D0B35
:1022000070919E0B87E199E00C941238CF92DF9287
:10221000EF92FF9280910002882381F120E030E06C
:10222000A9016091970B7091980B8091990B9091F7
:102230009A0B0E9408521816FCF480918A058111AD
:102240001BC08EEA98E00E94CB3C8CE999E00E948A
:10225000254181E080938A0581E090E09093890593
:10226000809388050E94E6486093840570938505F5
:1022700080938605909387051092000280918A05CD
:10228000882309F463C00E94E648C0908405D0907A
:102290008505E0908605F09087056C157D058E0517
:1022A0009F0508F453C08091880590918905803975
:1022B00091400CF04BC080EB99E00E9428238FE105
:1022C0009AE00E94023720E030E048EC53E460914D
:1022D000970B7091980B8091990B90919A0B0E949B
:1022E0006A506B017C01609188057091890588278F
:1022F00077FD8095982F0E9405519B01AC01C70185
:10230000B6010E940C52AB01BC018CE999E00E941D
:10231000EA408091880590918905019690938905FE
:10232000809388058091840590918505A09186050C
:10233000B09187050596A11DB11D809384059093EA
:102340008505A0938605B093870574C080918A05A2
:10235000882341F0809188059091890580399140CA
:102360000CF468C010928A0581E080930002C0904E
:102370009B0BD0909C0BE0909D0BF0909E0B20E06F
:1023800030E0A901C701B6010E9408521816E4F412
:10239000B701A60187E199E00E94123860E070E081
:1023A00087E199E00E94153887E199E00E9438386A
:1023B00083EE98E00E94173E83EE98E00E94CA3EAA
:1023C00083EE98E00E94433F0E94E6486B017C0147
:1023D00060939C0570939D0580939E0590939F0547
:1023E0002091D00C3091D10C4091D20C5091D30C53
:1023F000A0E6BAEE0E940B546C0D7D1D8E1D9F1D34
:10240000609398057093990580939A0590939B0526
:1024100086E090E090934E0B80934D0B8EE297E018
:102420009093AD058093AC05FF90EF90DF90CF9037
:102430000C94FF31FF90EF90DF90CF9008950F93B1
:102440001F938AEB9AE00E943A2480EB99E00E9465
:1024500028238FE19AE00E94023787E199E00E94E9
:1024600058380E94E64800919805109199052091EE
:102470009A0530919B05005315472109310906172C
:1024800017072807390730F463E070E08AEB9AE019
:102490000E9436241F910F910C94E64885E39BE03F
:1024A0000E94CD4460EC78E085E39BE00E94C84D3B
:1024B00064EF71E080E090E00E94154981E79BE0C5
:1024C0000E945D2785E39BE00E94CD446CEA78E0A2
:1024D00085E39BE00E94C84D60ED77E080E090E0EE
:1024E0000E9415498EE498E00C94FF3160E070E0A2
:1024F00081E79BE00C94E72761E070E081E79BE0D7
:102500000C94E72762E070E081E79BE00C94E727FA
:1025100063E070E081E79BE00C94E72764E070E003
:1025200081E79BE00C94E72765E070E081E79BE0A2
:102530000C94E72766E070E081E79BE00C94E727C6
:1025400067E070E081E79BE00C94E72768E070E0CB
:1025500081E79BE00C94E72769E070E081E79BE06E
:102560000C94E72781E79BE00C94D92467E878E096
:1025700080E99EE00E94C84D6091710B7091720BD2
:102580004AE050E080E99EE00E94CF4E85E39BE068
:102590000E94CD4465E778E085E39BE00E94C84D4A
:1025A00081E79BE00E949A2764EF71E080E090E071
:1025B0000E94154985E39BE00E94CD4467E678E0E0
:1025C00085E39BE00E94C84D60ED77E080E090E0FD
:1025D0000C94154982E99AE00E94764010924E0BC5
:1025E00010924D0B089582E99AE00E947640109275
:1025F0004E0B10924D0B8EE498E09093AD058093B6
:10260000AC0508958091560B863669F469E373E052
:1026100085E59BE00E94665461E070E080EB99E004
:102620000E94212413C06CE373E085E59BE00E94C7
:10263000665460E070E080EB99E00E94212440E065
:1026400050E0BA018FE19AE00E945A378091AC05C0
:102650009091AD050C94FF3180915A0B863669F448
:1026600069E373E089E59BE00E94665461E070E0F5
:102670008FE19AE00E949C3713C06CE373E089E518
:102680009BE00E94665460E070E08FE19AE00E9457
:102690009C3740E050E0BA018FE19AE00E945A373F
:1026A0008091AC059091AD050C94FF318EE096E0E1
:1026B0009093AD058093AC050E945D3360E070E0BF
:1026C00080EB99E00E9421246CE373E085E59BE0B8
:1026D0000E94665440E050E0BA0180EB99E00E940D
:1026E000D7238BE090E090934E0B80934D0B089591
:1026F00080EB99E00E941B246CE373E085E59BE08E
:102700000E94665410924E0B10924D0B8EE498E08E
:102710009093AD058093AC0508958EE696E0909376
:10272000AD058093AC050E945D3360E070E08FE101
:102730009AE00E949C376CE373E089E59BE00E947D
:10274000665440E050E0BA018FE19AE00E945A37A7
:102750008AE090E090934E0B80934D0B08958FE1AB
:102760009AE00E949E376CE373E089E59BE00E944B
:10277000665410924E0B10924D0B8EE498E090939D
:10278000AD058093AC05089582E99AE00E94D2409D
:102790006DE372E082E99AE00E94513F66E873E0DF
:1027A00080E99EE00E94184E60E473E080E99EE0BC
:1027B0000E94ED4D6DE372E080E99EE00E94184EAC
:1027C00066E873E080E99EE00C94184E8EEA95E08E
:1027D0009093AD058093AC050E945D3382E99AE049
:1027E0000E94563F10924E0B10924D0B089582E9B5
:1027F0009AE00E94563F82E99AE00C94DA3F82E91F
:102800009AE00C94ED3F4091930B5091940B6091A2
:10281000950B7091960B82E99AE00C94004087E149
:1028200099E00C94173882E99AE00E94563F609133
:1028300037027091380282E99AE00C942A40CF92D4
:10284000DF92EF92FF9282E99AE00E94563F0E9447
:10285000E6486B017C01A0913502B091360220E67A
:102860003AEE0E940554C60ED71EE81EF91EC0920D
:102870004F0BD092500BE092510BF092520B63E54C
:1028800073E080E99EE00E94ED4D40914F0B509126
:10289000500B6091510B7091520B2AE030E080E9AF
:1028A0009EE00E94064F82E99AE00E945B4089E028
:1028B00090E090934E0B80934D0BFF90EF90DF9044
:1028C000CF900895CF92DF92EF92FF928AEB9AE039
:1028D0000E943A2480EB99E00E9428238FE19AE03D
:1028E0000E94023780EB99E00E9424246B017C0156
:1028F00020E030E040E450E46091B90B7091BA0BF5
:102900008091BB0B9091BC0B0E9401509B01AC01CC
:10291000C701B6010E9408521816D4F58FE19AE05B
:102920000E94AB376B017C0120E030E040E450E4D2
:102930006091BD0B7091BE0B8091BF0B9091C00B4D
:102940000E9401509B01AC01C701B6010E940852D0
:102950001816F4F461E070E08AEB9AE00E943624E5
:1029600083E090E090934E0B80934D0B8EE897E0C0
:102970009093AD058093AC050E945D338091AC05CA
:102980009091AD05FF90EF90DF90CF900C94FF31C8
:10299000FF90EF90DF90CF9008950E94E6486093FB
:1029A0008C0570938D0580938E0590938F058AEB2F
:1029B0009AE00E943A2480EB99E00E9428238FE15C
:1029C0009AE00E9402378091A0059091A105A09104
:1029D000A205B091A30588589341A109B10940917E
:1029E0008C0550918D0560918E0570918F0548176B
:1029F00059076A077B0768F080918B05811109C030
:102A000062E070E08AEB9AE00E94362481E08093D5
:102A10008B0540918C0550918D0560918E057091CC
:102A20008F058091A0059091A105A091A205B0917C
:102A3000A305481759076A077B0740F110928B05D9
:102A400066E873E080E99EE00E94184E6AEC78E048
:102A500080E99EE00E94084E66E873E080E99EE00F
:102A60000E94184E85E090E090934E0B80934D0BA2
:102A70008EE297E09093AD058093AC050E945D33A4
:102A80008091AC059091AD050C94FF3108950F93A2
:102A90001F9380EB99E00E9428238FE19AE00E9427
:102AA000023787E199E00E9458380E94E648009179
:102AB0008005109181052091820530918305601772
:102AC000710782079307C0F083EE98E00E94CA3E28
:102AD0008091800590918105A0918205B091830538
:102AE00088519C4FAF4FBF4F8093800590938105D5
:102AF000A0938205B09383051F910F9108950F93C2
:102B00001F930E94E64800914F0B1091500B2091AB
:102B1000510B3091520B601771078207930770F0C9
:102B20006AE673E080E99EE00E94184E82E99AE02E
:102B30000E94764010924E0B10924D0B1F910F91F8
:102B4000089582E99AE00E94B3408091B90A8823EF
:102B500019F069E373E002C06CE373E081E392E093
:102B60000C9466546115710581F0DB010D90002015
:102B7000E9F7AD0141505109461B570BDC01ED91BE
:102B8000FC910280F381E02D199480E090E008959B
:102B90006BED78E080E99EE00C94084E0E94E648D8
:102BA0006093A8057093A9058093AA059093AB053F
:102BB00040E050E064EB72E480EB99E00E94D723A0
:102BC00040E050E06FE773E48FE19AE00E945A37EB
:102BD00061E070E080EB99E00E94212461E070E008
:102BE0008FE19AE00E949C37D3DF82E090E09093DF
:102BF0004E0B80934D0B08958AEB9AE00E9490242F
:102C00000E94E6486093940570939505809396051D
:102C100090939705BDDF87E199E00E94433888E0F3
:102C200090E090934E0B80934D0B089526E040E08A
:102C300052EC61E070E080E99EE00E94884C87ECF5
:102C40009DE00E94594620E044E064E185E39BE07A
:102C50000E94EA4485E39BE00E94CD448EE498E024
:102C60009093AD058093AC0566E070E08AEB9AE046
:102C70000E94362410924E0B10924D0B8CE999E075
:102C80000E945E418091AC059091AD050C945D333E
:102C9000CF92DF92EF92FF920F931F93CF93DF9328
:102CA00000D000D0CDB7DEB76C01CB01BA0128EE61
:102CB00033E040E050E00E94DD53C9016CE370E076
:102CC0000E94CA537C01882777FD8095982F0E9427
:102CD00005518E010C5F1F4F20E042E00E943C54E2
:102CE000B701882777FD8095982F0E9405510350E2
:102CF000110920E042E00E943C54BE016C5F7F4F0E
:102D0000C6010E946654C601FC0101962081211172
:102D1000FBCF8AE381938AE0E816F10414F480E3A0
:102D20008983DE0111968D91882311F08193FBCF69
:102D3000C60126960FB6F894DEBF0FBECDBFDF9159
:102D4000CF911F910F91FF90EF90DF90CF9008955A
:102D5000CF92EF920F931F9381E79BE00E942C2864
:102D600080E2C82E9EE1E92E0CE12AE148E166E10D
:102D700085E39BE00E948D4524E0E22E04E021E102
:102D800032E045E152E061E072E087EC9AE00E94B7
:102D9000EE298AEB9AE00E942A2461E77BE082E92F
:102DA0009AE00E94493F61E77BE08FE19AE00E9450
:102DB000323661E77BE080EB99E00E94652240912A
:102DC0004C0C50914D0C61E77BE08CE999E00E943E
:102DD000A14161E77BE087E199E00E94B13747E1DB
:102DE00059E061E77BE083EE98E00E94473D2FE1E8
:102DF0003AE040EB59E061E77BE08EEA98E00E9420
:102E0000C13C07EC1AE025E33BE04BE650E06EE501
:102E100070E18EE498E00E94D52C25E33BE044E18C
:102E200050E066E47FE08EEE97E00E94D52C25E32B
:102E30003BE049E150E068EE7DE08EE897E00E94DB
:102E4000D52C25E33BE046E150E064EB7CE08EE2EC
:102E500097E00E94D52C25E33BE047E150E062E794
:102E60007BE08EEC96E00E94D52C25E33BE044E02D
:102E700050E06AE37BE08EE696E00E94D52C25E3E5
:102E80003BE044E050E062E07BE08EE096E00E94B0
:102E9000D52C25E33BE049E150E064EA79E08EEA95
:102EA00095E00E94D52C1F910F91EF90CF9008953F
:102EB000CF92DF92EF92FF920F931F9387EC9AE0ED
:102EC0000E94B82C8093C60A80E99EE00E94794B4C
:102ED0001816190634F480E99EE00E94924B809304
:102EE000C60A8091C60A833489F1ACF48433E1F1D7
:102EF0006CF48A3209F43FC0813309F049C08091F3
:102F0000AC059091AD050E94C52D42C0813481F081
:102F10008234A9F03DC0813759F02CF48434E9F0B3
:102F20008536A1F035C08237C1F0873741F030C017
:102F30008091AC059091AD050E94C63229C0809168
:102F4000AC059091AD050E94F93222C08091AC058C
:102F50009091AD050E94D8351BC08091AC05909131
:102F6000AD050E94283314C08091AC059091AD0549
:102F70000E94462E0DC020E044E064E185E39BE022
:102F80000E94EA448091AC059091AD050E94FF310A
:102F9000E0914D0BF0914E0BEE0FFF1FE75EFD4FE2
:102FA0000190F081E02D19950E94E648C0909005AF
:102FB000D0909105E0909205F09093056C157D05F9
:102FC0008E059F0508F468C080EB99E00E942424D8
:102FD00060936D0B70936E0B80936F0B9093700BDF
:102FE0008FE19AE00E94AB376093690B70936A0B94
:102FF00080936B0B90936C0B80914D0B90914E0BCB
:103000000497A9F4C090A005D090A105E090A20576
:10301000F090A3050E94E64897018601061B170B56
:10302000280B390BB901A8018DE59BE031DE8091B9
:103030004D0B90914E0B0697A9F4C0909805D09037
:103040009905E0909A05F0909B050E94E64897014B
:103050008601061B170B280B390BB901A80183E663
:103060009BE016DE0E94E64868517C4F8F4F9F4FD1
:1030700060939005709391058093920590939305CA
:103080008091AC059091AD051F910F91FF90EF904D
:10309000DF90CF900C94FF311F910F91FF90EF9034
:1030A000DF90CF900895CF93DF9364E178E080E9DB
:1030B0009EE00E94084E85E39BE00E94CD446FEFA6
:1030C00077E085E39BE00E94C84D41E060E085E346
:1030D0009BE00E94D2446BEE77E085E39BE00E9488
:1030E000C84D42E060E085E39BE00E94D24466ED7B
:1030F00077E085E39BE00E94C84D43E060E085E314
:103100009BE00E94D24461EC77E085E39BE00E9463
:10311000C84D68E873E180E090E00E94154985E3BE
:103120009BE00E94CD4466EA77E085E39BE00E9445
:10313000C84D41E060E085E39BE00E94D2446FE926
:1031400077E085E39BE00E94C84D42E060E085E3C4
:103150009BE00E94D24469E977E085E39BE00E940E
:10316000C84D87EC9AE00E94B82C8093C60A80E98B
:103170009EE00E94794B1816190634F480E99EE00F
:103180000E94924B8093C60A8091C60A813459F5F9
:1031900061E877E080E99EE00E94084E85E39BE0CD
:1031A0000E94CD446DE677E085E39BE00E94C84D28
:1031B00081E79BE00E94732581E79BE00E945D27E9
:1031C00081E79BE00E94D924C0E0D0E0D093720B4D
:1031D000C093710B81E79BE00E949A272196CA3029
:1031E000D105A1F702C081E001C080E09091C60A3C
:1031F000923411F08111B5CF8EE498E0DF91CF9138
:103200000C94FF31CF93DF9385E39BE00E94CD4484
:103210006DE577E085E39BE00E94C84D41E060E00A
:1032200085E39BE00E94D24466E577E085E39BE07E
:103230000E94C84D42E060E085E39BE00E94D244DA
:1032400060E577E085E39BE00E94C84DCEE4D8E0DE
:1032500087EC9AE00E94B82C8093C60A80E99EE031
:103260000E94794B1816190634F480E99EE00E94FA
:10327000924B8093C60A8091C60A893711F0813437
:1032800011F58CE999E00E945E4187E199E00E9486
:10329000353882E99AE00E94764080EB99E00E94FE
:1032A0001B248FE19AE00E949E3783EE98E00E94F3
:1032B000453F10924E0B10924D0BD093AD05C0932D
:1032C000AC0580E001C081E09091C60A9E3621F0F5
:1032D000923411F08111BCCFDF91CF91089592CF3C
:1032E00091CF90CF8FCFCF93DF9385E39BE00E9468
:1032F000CD446DE377E085E39BE00E94C84D41E05B
:1033000060E085E39BE00E94D24468E277E085E3D9
:103310009BE00E94C84D42E060E085E39BE00E9494
:10332000D24469E177E085E39BE00E94C84D43E029
:1033300060E085E39BE00E94D24468E077E085E3AB
:103340009BE00E94C84D68E873E180E090E00E9435
:10335000154985E39BE00E94CD446EEF76E085E35E
:103360009BE00E94C84D41E060E085E39BE00E9445
:10337000D24467EF76E085E39BE00E94C84D42E0CF
:1033800060E085E39BE00E94D24461EF76E085E354
:103390009BE00E94C84D87EC9AE00E94B82C809375
:1033A000C60A80E99EE00E94794B1816190634F48B
:1033B00080E99EE00E94924B8093C60A8091C60AE3
:1033C000813439F1823439F71CC0813409F445C0A5
:1033D00087EC9AE00E94B82C8093C60A80E99EE0B0
:1033E0000E94794B1816190634F480E99EE00E9479
:1033F000924B8093C60A8091C60A8334C9F1843403
:1034000021F78091AC059091AD05DF91CF910C949F
:10341000FF3185E39BE00E94CD446FED76E085E3CC
:103420009BE00E94C84D41E060E085E39BE00E9484
:10343000D2446EEC76E085E39BE00E94C84D42E00A
:1034400060E085E39BE00E94D24466EC76E085E391
:103450009BE00E94C84DC1E0BBCF8CE999E0CC2332
:1034600021F00E942541C0E0B3CF0E945E41F3CF1E
:10347000C11106C08091510C91E089278093510CB5
:1034800085E39BE00E94CD4461EB76E085E39BE021
:103490000E94C84D68E873E180E090E00E94154901
:1034A00085E39BE00E94CD4467EA76E085E39BE0FC
:1034B0000E94C84D41E060E085E39BE00E94D24459
:1034C00060EA76E085E39BE00E94C84D42E060E060
:1034D00085E39BE00E94D2446AE976E085E39BE0C5
:1034E0000E94C84D87EC9AE00E94B82C8093C60ACF
:1034F00080E99EE00E94794B1816190634F480E9A1
:103500009EE00E94924B8093C60A8091C60A813445
:1035100019F0823439F775CF8CE999E00E94254182
:1035200040E050E060E87FE38CE999E00E94EA40E7
:1035300085E39BE00E94CD4466E876E085E39BE06E
:103540000E94C84D41E060E085E39BE00E94D244C8
:103550006FE776E085E39BE00E94C84D42E060E0C3
:1035600085E39BE00E94D24469E776E085E39BE037
:103570000E94C84D43E060E085E39BE00E94D24496
:1035800061E776E085E39BE00E94C84DD1E087ECDF
:103590009AE00E94B82C8093C60A80E99EE00E94BF
:1035A000794B1816190634F480E99EE00E94924B7C
:1035B0008093C60A8091C60A823409F44AC08434D2
:1035C00009F451C0813419F7CC2309F38CE999E04F
:1035D0000E945E4185E39BE00E94CD446FE576E06A
:1035E00085E39BE00E94C84D68E873E180E090E0CD
:1035F0000E94154985E39BE00E94CD446EE476E08D
:1036000085E39BE00E94C84D41E060E085E39BE0DC
:103610000E94D2446DE376E085E39BE00E94C84DB2
:1036200042E060E085E39BE00E94D24464E376E000
:1036300085E39BE00E94C84D43E060E085E39BE0AA
:103640000E94D2446CE276E085E39BE00E94C84D84
:1036500016C08091500C8D278093500C8CE999E016
:103660000E94374294CF8CE999E00E945E41C9CE16
:103670008091C60A8134B9F0823409F4C2CE87EC55
:103680009AE00E94B82C8093C60A80E99EE00E94CE
:10369000794B1816190664F780E99EE00E94924B58
:1036A0008093C60AE5CF85E39BE00E94CD446AE1A2
:1036B00076E085E39BE00E94C84D8CE999E00E948A
:1036C000254161E086E00E94E34A8CE999E00E948E
:1036D000254140E050E060E271E48CE999E00E940D
:1036E000EA4060E777E180E090E00E9415498CE9CC
:1036F00099E00E945E4185E39BE00E94CD4466E034
:1037000076E085E39BE00E94C84D41E060E085E300
:103710009BE00E94D24464EF75E085E39BE00E9449
:10372000C84D42E060E085E39BE00E94D24465EE34
:1037300075E085E39BE00E94C84D43E060E085E3CF
:103740009BE00E94D24462ED75E085E39BE00E941D
:10375000C84D68E873E180E090E00E94154985E378
:103760009BE00E94CD4463EC75E085E39BE00E9402
:10377000C84D41E060E085E39BE00E94D2446CEBE1
:1037800075E085E39BE00E94C84D42E060E085E380
:103790009BE00E94D24466EB75E085E39BE00E94CB
:1037A000C84D87EC9AE00E94B82C8093C60A80E945
:1037B0009EE00E94794B1816190634F480E99EE0C9
:1037C0000E94924B8093C60A8091C60A813431F4DC
:1037D00081E79BE00E945D2780E001C081E090913D
:1037E000C60A923409F40DCE8111DBCF0ACECF92F6
:1037F000DF92EF92FF920F931F9385E39BE00E946D
:10380000CD4465E374E085E39BE00E94C84D41E050
:1038100060E085E39BE00E94D24460E274E085E3CF
:103820009BE00E94C84D42E060E085E39BE00E947F
:10383000D24461E174E085E39BE00E94C84D43E01F
:1038400060E085E39BE00E94D24460E074E085E3A1
:103850009BE00E94C84D68E873E180E090E00E9420
:10386000154985E39BE00E94CD4466EF73E085E354
:103870009BE00E94C84D41E060E085E39BE00E9430
:10388000D2446FEE73E085E39BE00E94C84D42E0B6
:1038900060E085E39BE00E94D24469EE73E085E33B
:1038A0009BE00E94C84D87EC9AE00E94B82C809360
:1038B000C60A80E99EE00E94794B1816190634F476
:1038C00080E99EE00E94924B8093C60A8091C60ACE
:1038D000813459F1823439F71CC0813409F449C06C
:1038E00087EC9AE00E94B82C8093C60A80E99EE09B
:1038F0000E94794B1816190634F480E99EE00E9464
:10390000924B8093C60A8091C60A8334E9F18434CD
:1039100021F78091AC059091AD051F910F91FF901B
:10392000EF90DF90CF900C94FF3185E39BE00E94F5
:10393000CD4467ED73E085E39BE00E94C84D41E014
:1039400060E085E39BE00E94D24466EC73E085E38F
:103950009BE00E94C84D42E060E085E39BE00E944E
:10396000D2446EEB73E085E39BE00E94C84D11E00A
:10397000B7CF83EE98E0112321F00E94433F10E07F
:10398000AFCF0E94453FF3CF111106C080916D0C5F
:1039900091E0892780936D0C85E39BE00E94CD44E4
:1039A00069EA73E085E39BE00E94C84D68E873E133
:1039B00080E090E00E94154985E39BE00E94CD44A1
:1039C0006FE973E085E39BE00E94C84D41E060E051
:1039D00085E39BE00E94D24468E973E085E39BE0C5
:1039E0000E94C84D42E060E085E39BE00E94D24423
:1039F00062E973E085E39BE00E94C84D87EC9AE0A2
:103A00000E94B82C8093C60A80E99EE00E94794B00
:103A10001816190634F480E99EE00E94924B8093B8
:103A2000C60A8091C60A813419F0823439F771CF01
:103A300083EE98E00E94433F40E050E060E87FE37F
:103A400083EE98E00E94413F85E39BE00E94CD44D5
:103A500062E873E085E39BE00E94C84D41E060E0CE
:103A600085E39BE00E94D2446BE773E085E39BE033
:103A70000E94C84D42E060E085E39BE00E94D24492
:103A800065E773E085E39BE00E94C84D43E060E09A
:103A900085E39BE00E94D2446DE673E085E39BE002
:103AA0000E94C84D01E087EC9AE00E94B82C8093F8
:103AB000C60A80E99EE00E94794B1816190634F474
:103AC00080E99EE00E94924B8093C60A8091C60ACC
:103AD000823409F44AC0843409F451C0813419F79E
:103AE000112309F383EE98E00E94453F85E39BE0B4
:103AF0000E94CD446BE573E085E39BE00E94C84DD6
:103B000068E873E180E090E00E94154985E39BE05E
:103B10000E94CD4469E473E085E39BE00E94C84DB8
:103B200041E060E085E39BE00E94D24468E373E0FB
:103B300085E39BE00E94C84D42E060E085E39BE0A6
:103B40000E94D2446FE273E085E39BE00E94C84D7F
:103B500043E060E085E39BE00E94D24467E273E0CB
:103B600085E39BE00E94C84D16C080916C0C8027B5
:103B700080936C0C83EE98E00E94473F94CF83EED5
:103B800098E00E94453FC5CE8091C60A8134B9F0C5
:103B9000823409F4BECE87EC9AE00E94B82C809360
:103BA000C60A80E99EE00E94794B1816190664F750
:103BB00080E99EE00E94924B8093C60AE5CF85E3A0
:103BC0009BE00E94CD4465E173E085E39BE00E94A9
:103BD000C84D83EE98E00E94433F61E086E00E947A
:103BE000E34A83EE98E00E94433F40E050E060E209
:103BF00071E483EE98E00E94413F60E777E180E066
:103C000090E00E94154983EE98E00E94453F85E3CD
:103C10009BE00E94CD4463E073E085E39BE00E945B
:103C2000C84D41E060E085E39BE00E94D24461EF33
:103C300072E085E39BE00E94C84D42E060E085E3CE
:103C40009BE00E94D24462EE72E085E39BE00E941A
:103C5000C84D43E060E085E39BE00E94D2446FECF6
:103C600072E085E39BE00E94C84D68E873E180E064
:103C700090E00E94154985E39BE00E94CD446EEBE5
:103C800072E085E39BE00E94C84D68E873E180E044
:103C900090E00E94154985E39BE00E94CD4469EACB
:103CA00072E085E39BE00E94C84D41E060E085E35F
:103CB0009BE00E94D24464E972E085E39BE00E94AD
:103CC000C84D42E060E085E39BE00E94D2446BE88F
:103CD00072E085E39BE00E94C84D43E060E085E32D
:103CE0009BE00E94D24463E872E085E39BE00E947F
:103CF000C84D87EC9AE00E94B82C8093C60A80E9F0
:103D00009EE00E94794B1816190634F480E99EE073
:103D10000E94924B8093C60A8091C60A813419F0A2
:103D2000823439F7F6CD83EE98E00E94433F40E0BD
:103D300050E060EA71E483EE98E00E94413F0E9407
:103D4000E6486B017C0185E39BE00E94CD446EE672
:103D500072E085E39BE00E94C84D41E060E085E3AE
:103D60009BE00E94D24466E672E085E39BE00E94FD
:103D7000C84D42E060E085E39BE00E94D2446EE5DE
:103D800072E085E39BE00E94C84D87EC9AE00E94B8
:103D9000B82C8093C60A80E99EE00E94794B1816E1
:103DA000190634F480E99EE00E94924B8093C60A83
:103DB0008091C60A813439F0823439F787E199E07D
:103DC0000E943538A6CD83EE98E00E94453F0E94C0
:103DD000E64800E010E020E83FE300937A0C1093FF
:103DE0007B0C20937C0C30937D0C6C197D098E0923
:103DF0009F090E94035120E030E040EA51E40E9414
:103E00000C5220E030E64AE657E40E946A50609384
:103E10006E0C70936F0C8093700C9093710C85E313
:103E20009BE00E94CD4469E472E085E39BE00E9440
:103E3000C84D41E060E085E39BE00E94D24464E32A
:103E400072E085E39BE00E94C84D42E060E085E3BC
:103E50009BE00E94D24460E272E085E39BE00E9416
:103E6000C84D68E873E180E090E00E94154985E361
:103E70009BE00E94CD4461E172E085E39BE00E94FB
:103E8000C84D41E060E085E39BE00E94D2446AE0D7
:103E900072E085E39BE00E94C84D42E060E085E36C
:103EA0009BE00E94D24464E072E085E39BE00E94C4
:103EB000C84D87EC9AE00E94B82C8093C60A80E92E
:103EC0009EE00E94794B1816190634F480E99EE0B2
:103ED0000E94924B8093C60A8091C60A813429F4CD
:103EE00081E79BE0EAD780E001C081E09091C60ABB
:103EF000923409F40ECD8111DCCF0BCDBF92CF925D
:103F0000DF92EF92FF920F931F93CF93DF9300D036
:103F100000D0CDB7DEB77C018B0185E39BE00E942A
:103F2000CD44B70185E39BE00E94B21541E060E01B
:103F300085E39BE00E94D244B80185E39BE00E94A8
:103F4000B21543E060E085E39BE00E94D24467E85D
:103F500073E085E39BE00E94B21542E060E085E3F8
:103F60009BE00E94D244DD24D3948E010F5F1F4F4B
:103F700078014EE2B42E87EC9AE00E94CB2C80931D
:103F8000C60A80E99EE00E94794B1816190634F49F
:103F900080E99EE00E94924B8093C60A6091C60A17
:103FA0006134E9F044F46A32F1F16E32E1F16332E6
:103FB00009F04CC0E0CF6434F4F2643409F046C038
:103FC000C7010E945C5420E030E0A9010E946650C5
:103FD000882309F449C0C7010E945C5449C0E01617
:103FE000F10608F041C0B8016E197F09CC24CA94CB
:103FF000C60E42E06C2D85E39BE00E94D24460E255
:1040000085E39BE00E94BF4542E06C2D85E39BE089
:104010000E94D244F80182918F018E3209F0ABCF19
:10402000DD24D394A8CFC8018E199F0905970CF001
:10403000A2CFDD2009F49FCFF801B1928F016EE28B
:1040400085E39BE00E94BF45D12C95CFC8018E1916
:104050009F0905970CF08FCFF80161938F0185E3DD
:104060009BE00E94BF4587CF60E070E080E89FEB57
:1040700026960FB6F894DEBF0FBECDBFDF91CF916D
:104080001F910F91FF90EF90DF90CF90BF90089518
:10409000AF92BF92CF92DF92EF92FF920F931F9356
:1040A000CF93DF931F92CDB7DEB785E39BE00E94ED
:1040B000CD4462EA75E085E39BE00E94C84D6EE85E
:1040C00075E080E99EE00E94084E60EA7FE080E0B3
:1040D00090E00E94154985E39BE00E94CD4440E0BA
:1040E00060E085E39BE00E94D24469E775E085E3E8
:1040F0009BE00E94C84D41E060E085E39BE00E94A8
:10410000D24464E675E085E39BE00E94C84D43E03D
:1041100060E085E39BE00E94D24466E575E085E3BC
:104120009BE00E94C84D6AE275E080E99EE00E9433
:10413000084E87EC9AE00E94B82C182F80E99EE088
:104140000E94794B181619062CF480E99EE00E9413
:10415000924B182F143419F0113459F7A9C185E383
:104160009BE00E94CD4467E175E085E39BE00E94FF
:10417000C84D41E060E085E39BE00E94D24466E9DF
:1041800073E085E39BE00E94B21542E060E085E3C6
:104190009BE00E94D24469EA73E085E39BE00E94C1
:1041A000B21543E060E085E39BE00E94D2446EEBF1
:1041B00073E085E39BE00E94B2156DED74E080E949
:1041C0009EE00E94084E6AEC74E080E99EE00E9446
:1041D000084E60EA7FE080E090E00E94154985E3A8
:1041E0009BE00E94CD4462ED73E085E39BE00E947A
:1041F000B21587E199E00E940F386B017C0141E024
:1042000067E085E39BE00E94D24422E030E0B70102
:10421000A60185E39BE00E94EF4F22E030E0B7016A
:10422000A60180E99EE00E94F04F68EE73E080E016
:1042300090E00E94154920E030E849E054E4C701CD
:10424000B6010E94665087FF16C020E030E041EEC4
:1042500053E4C701B6010E940852181664F443E003
:1042600060E085E39BE00E94D24460EE73E085E36A
:104270009BE00E94B21587EC9AE00E94B82C182FA0
:1042800080E99EE00E94794B181619062CF480E90B
:104290009EE00E94924B182F143421F0113409F043
:1042A000A8CF06C185E39BE00E94CD446EEE73E08B
:1042B00085E39BE00E94B21541E060E085E39BE06E
:1042C0000E94D24463E074E085E39BE00E94B21553
:1042D00042E060E085E39BE00E94D24468E174E044
:1042E00085E39BE00E94B21543E060E085E39BE03C
:1042F0000E94D24465E274E085E39BE00E94B2151F
:104300006CE774E080E99EE00E94084E60EA7FE07E
:1043100080E090E00E941549A12CB12C85E39BE040
:104320000E94CD446AE374E085E39BE00E94B215ED
:1043300085010F5F1F4F4AE050E0B80185E39BE025
:104340000E94C84E42E060E085E39BE00E94D244B8
:1043500067E474E085E39BE00E94B21543E060E00F
:1043600085E39BE00E94D24464E574E085E39BE032
:104370000E94B2156AE474E080E99EE00E94084E53
:1043800087EC9AE00E94B82C282F80E99EE02983D0
:104390000E94794B2981181619062CF480E99EE0B9
:1043A0000E94924B282F2434D1F12334A1F582E0CE
:1043B000A816B1040CF47CC085E39BE00E94CD44B8
:1043C00068E674E085E39BE00E94B21541E060E09E
:1043D00085E39BE00E94D2446DE774E085E39BE0B7
:1043E0000E94B21542E060E085E39BE00E94D24467
:1043F00065E874E085E39BE00E94B21543E060E06D
:1044000085E39BE00E94D24460EE73E085E39BE08D
:104410000E94B21547C0213409F0B2CF49C087E1EC
:1044200099E00E940F386B017C0185E39BE00E94BC
:10443000CD446CE874E080E99EE00E94184E22E0D2
:1044400030E0B701A60180E99EE00E94F04F22E033
:1044500030E0B701A60185E39BE00E94EF4F6CE4DA
:104460007DE180E090E00E94154985E39BE00E9499
:10447000CD446AE974E08AEA94E040DD20E030E06F
:1044800040E85FEB0E946650811106C0E2E0AE1684
:10449000B1040CF091CF0CC00A30110509F48CCF97
:1044A00058013CCF87EC9AE00E94B82C8823D1F3C6
:1044B0000F90DF91CF911F910F91FF90EF90DF90C0
:1044C000CF90BF90AF900895E3CD2F923F924F923F
:1044D0005F926F927F928F929F92AF92BF92CF9294
:1044E000DF92EF92FF920F931F93CF93DF9300D051
:1044F0001F92CDB7DEB74C017C836B83FB01E35D7C
:10450000FE4FA080B1803297C080D1803297E0808A
:10451000F18032970081118134972081318142816D
:10452000538161E070E00E94764234018EE2680EB1
:10453000711C2B803C8095EE291A9EEF390AF101FF
:10454000A080B180C280D3808B819C81895E9E4F88
:104550009A838983FC01E080F180028113812B81A1
:104560003C81285B3F4FA40147595F4F1F921F9228
:104570004B805C80F1EE4F1AFEEF5F0AF2018381FF
:104580008F9382818F9381818F9380818F93B401E8
:10459000C3010E94523CD401A959BF4FEB81FC8159
:1045A000E35FFE4F1196FC93EE9316968D929C92CC
:1045B00060817181C3010E94F73AF201C080D1800D
:1045C000E280F380F1010081118122813381E98150
:1045D000FA814081518162817381C3010E94443A12
:1045E000EB81FC81E15FFE4F0081118122813381EB
:1045F000EB81FC81ED5EFE4F4081518162817381D0
:10460000C3010E94453B61E070E0C3010E94013C90
:104610000F900F900F900F900F900F9061E087E038
:104620000F900F900F900F90DF91CF911F910F91EE
:10463000FF90EF90DF90CF90BF90AF909F908F90C2
:104640007F906F905F904F903F902F900C94E34A33
:10465000CF92DF92EF92FF920F931F93CF93DF934E
:104660007C010E94E6486093BA0D7093BB0D809365
:10467000BC0D9093BD0DC7010E94BB438091BA0D44
:104680009091BB0DA091BC0DB091BD0DE701C95932
:10469000DF4FE881F98140815181662757FD6095A0
:1046A000762F0091B60D1091B70D2091B80D309175
:1046B000B90D400F511F621F731F84179507A6077E
:1046C000B70708F445C08093B60D9093B70DA0933B
:1046D000B80DB093B90DF701E359FF4FF182E082B5
:1046E000C7018E960E942439F701E759FF4FC08019
:1046F000D180E280F380E881F9816081718188272F
:1047000077FD8095982F0E940551A70196010E9480
:104710000C5220E030E048EC52E40E946A500E94C3
:10472000D7506093B20D7093B30D8093B40D9093F6
:10473000B50D20E030E040E85FE3C701B6010E941C
:10474000085218162CF480910201806180930201B6
:104750008091B20D9091B30DA091B40DB091B50DB3
:104760004091B60D5091B70D6091B80D7091B90D93
:10477000840F951FA61FB71F4091BA0D5091BB0D16
:104780006091BC0D7091BD0D481759076A077B07F2
:1047900028F0809102018F7E80930201DF91CF91FA
:1047A0001F910F91FF90EF90DF90CF900895CF92DF
:1047B000DF92EF92FF920F931F93CF93DF93EC0161
:1047C0006A017B018C01025D1F4FC8010E94BD3C44
:1047D000019729F460E070E0C8010E94013C20E0EC
:1047E00030E0A901C701B6010E94665087FD11C0E3
:1047F00020E030E048EC52E4C701B6010E940852C4
:10480000181654F4C12CD12C88ECE82E82E4F82E32
:1048100003C0C12CD12C7601C759DF4FC882D98281
:10482000EA82FB82DF91CF911F910F91FF90EF9071
:10483000DF90CF900895E2E0F1E080818F7E808369
:1048400008958E960C94013CFC01608171818281F7
:1048500093810895CF93DF93EC0161E081E10E94A1
:10486000E34A1B861A86DF91CF910895FC01738776
:1048700062870895CF92DF92EF92FF92CF93DF93FA
:10488000EC018A859B85892B09F443C0CC80DD80AF
:10489000EE80FF800E94E6486C157D058E059F0521
:1048A000C0F18885998580FD0BC00A972CF0198688
:1048B00018861B861A862DC080910201816003C074
:1048C000809102018E7F809302010E94E648288534
:1048D00039854A855B85AAE0A49FF001A59FF00D6C
:1048E0001124E20FF31FEE0FFF1FEF5BFD4FC0809F
:1048F000D180EE24D7FCE094FE2C6C0D7D1D8E1D26
:104900009F1D6C837D838E839F832F5F3F4F3987ED
:104910002887DF91CF91FF90EF90DF90CF9008959F
:10492000FC01118610861386128608959B012D5A6C
:104930003E4FFC0135872487695A7E4F778766870B
:1049400008950F931F93CF93DF938C0144E050E0C1
:1049500063E070E087EC9DE00E946E46C0E0D0E02E
:1049600087EC9DE00E94C445892B89F087EC9DE08F
:104970000E94CC45F801EC0FFD1F84834AE050E013
:10498000682F80E99EE00E94F14E2196E9CF80E9F0
:104990009EE00E94F64D87EC9DE00E948D46F80156
:1049A0006481758186819781DF91CF911F910F91ED
:1049B0000895CF93DF93EC012FEF3FEFFC0121939C
:1049C0003193CF0169EB74E00E9466544DEC5CECCE
:1049D0006CEE7FE34E8B5F8B688F798F47ED53EAE8
:1049E00060EB7FE34A8F5B8F6C8F7D8F4DEC5CECCF
:1049F0006CE47DE34E8F5F8F68A379A340E050E0C5
:104A000060EA70E44AA35BA36CA37DA340E050E09E
:104A100060EF71E44EA35FA368A779A740E050E080
:104A200060E772E44AA75BA76CA77DA71AAA1BAA36
:104A30001CAA1DAA40E050E060E470E44EA75FA706
:104A400068AB79AB1EAA1FAA18AE19AE40E050E0C1
:104A500068E473E44AAF5BAF6CAF7DAFFE01FE96D6
:104A60001082118212821382349680ED97E0918336
:104A70008083329640E050E060E071E440835183EF
:104A800062837383349640E050E067E873E44083C8
:104A9000518362837383349640E050E864E873E4A2
:104AA0004083518362837383349640E050E064E333
:104AB00073E44083518362837383349640E050E80B
:104AC0006EE873E44083518362837383C85ADF4F77
:104AD0004FE050E060E070E0488359836A837B8355
:104AE000DF91CF9108952F923F924F925F926F92F4
:104AF0007F928F929F92AF92BF92CF92DF92EF926E
:104B0000FF920F931F93CF93DF93FC01E754FF4F66
:104B10001082319622E0A22EB12CB182A082329670
:104B200040E050E060E87FE3408351836283738319
:104B3000349624E630E031832083329620E436E058
:104B40003183208332962BE430E031832083329608
:104B5000A0EDB7E0B183A08332962AE530E031833F
:104B600020833296FF24F394F08231962FE530E0D3
:104B70003183208332962EE630E0318320833296D3
:104B800020EA30E0318320839C012D523F4FE8EE34
:104B9000F3E0E901F983E8832E5F3F4F00E117E27C
:104BA000E901198308832E5F3F4F08EC10E0E9010B
:104BB000198308832E5F3F4F00E510E0E901198358
:104BC00008832E5F3F4FE901198218828C0103523E
:104BD0001F4F20E130E0E801398328830E5F1F4F2B
:104BE000E80118820F5F1F4FE801F8820F5F1F4F27
:104BF000C12CD12CC0E4EC2EFE2CE801C882D98255
:104C0000EA82FB820C5F1F4FEE24E394F12CE80153
:104C1000F982E8820E5F1F4FE801398328830E5F17
:104C20001F4FE80118820F5F1F4FE80118820F5FC6
:104C30001F4FC8E4CC2EC1EEDC2ECEEAEC2EC0E431
:104C4000FC2EE801C882D982EA82FB820C5F1F4FEA
:104C5000C12CD12CD8E4ED2ED3E4FD2EE801C8827E
:104C6000D982EA82FB820C5F1F4FE8011882198209
:104C70001A821B820C5F1F4FE801B982A88222961C
:104C8000398328832296188221961882219602E57C
:104C900018EB22EE31E4088319832A833B832496A0
:104CA00000E010E020EF31E4088319832A833B837E
:104CB000249600E010E026E932E4088319832A8371
:104CC0003B832496488359836A837B832496B983E4
:104CD000A883229640E050E068EC72E44883598350
:104CE0006A837B832496188219821A821B822496F7
:104CF0004AE959E969E570E4488359836A837B830B
:104D000024960AE919E929E13EE3088319832A83F5
:104D10003B832496188219821A821B82249640EAC9
:104D200056E861E070E0488359836A837B837C01A5
:104D3000D9EDED1ADEEFFD0AC9E12C2E312CE70189
:104D4000398228827C01D7EDED1ADEEFFD0AD4E12D
:104D5000CD2ED12CE701D982C8827C01D5EDED1A88
:104D6000DEEFFD0ACEE6AC2ECFE0BC2EE701B98225
:104D7000A8827C01D3EDED1ADEEFFD0AE701F9838D
:104D8000E8837C01D1EDED1ADEEFFD0AD5E08D2E32
:104D9000912CE701998288827C01DFECED1ADEEF2D
:104DA000FD0A412C512CCFE76C2EC3E47C2EE70189
:104DB000488259826A827B827C01DBECED1ADEEF4D
:104DC000FD0AE701188219821A821B827C01D7EC46
:104DD000ED1ADEEFFD0A412C512CD0E66D2ED0E409
:104DE0007D2EE701488259826A827B827C01D3EC66
:104DF000ED1ADEEFFD0AE701088319832A833B835E
:104E00009C012F5B3E4FE901188219821A821B8296
:104E10002C5F3F4FE901B983A883DC01A95BBE4F3A
:104E20004D935D936D937C931397149611963C92DA
:104E30002E9212961196DC92CE9212961196BC92F8
:104E4000AE921296ED93FC93FC01ED5AFE4F46ECA8
:104E500054E464E17AE3408351836283738334963C
:104E600049EA54EA66EC7FE34083518362837383AB
:104E7000349640E050E06AE773E4408351836283F4
:104E80007383349642E050E060E070E040835183E9
:104E900062837383DF91CF911F910F91FF90EF9009
:104EA000DF90CF90BF90AF909F908F907F906F904A
:104EB0005F904F903F902F9008950F931F93CF9343
:104EC000DF93EC016FE17CE180E99EE00E94084EF7
:104ED000C854DF4F81E0888360E070E049918B0126
:104EE0000F5F1F4F86EC9DE00E9432440B3A110584
:104EF00011F0B801F3CFDF91CF911F910F91089579
:104F00000F931F93CF93DF938C0108541F4FC0E082
:104F1000D0E0BE0186EC9DE00E942F44F801819311
:104F20008F012196CB3AD105A1F7DF91CF911F9147
:104F30000F910895EF92FF920F931F93CF93DF93FA
:104F4000FC01408151816CE5649F9001659F300DAB
:104F50001124B90165557F4FEC017901F9EFEF1A82
:104F6000FEEFFF0A49918B010F5F1F4F86EC9DE01A
:104F70000E9432440E151F0511F0B801F3CFDF91E6
:104F8000CF911F910F91FF90EF900895EF92FF92B4
:104F90000F931F93CF93DF937C018B01C0E0D0E090
:104FA000BE016E0D7F1D86EC9DE00E942F44F8012E
:104FB00081938F012196CC35D10591F78CE590E056
:104FC000DF91CF911F910F91FF90EF9008954CE5E5
:104FD000469F9001479F300D1124BC01C9018555A2
:104FE0009F4FD4CF08950F931F93CF93DF93EC017E
:104FF0008B01BC01645A7F4F2CE5249FC001259F83
:10500000900D112485559F4FC1DFBE01625A7F4F1D
:10501000C801DF91CF911F910F910C946654EF92CC
:10502000FF920F931F93CF93DF937C018C010D5957
:105030001E4FC0E0D0E0AE01B801C701D4DF219619
:105040000C5E1F4FCA30D105B1F7DF91CF911F9190
:105050000F91FF90EF900895CF93DF93EC01DFDF86
:10506000CE01DF91CF914CCFFC0177836683613015
:10507000710581F01CF4672B41F0089562307105D1
:1050800049F06330710531F0089584E090E0918338
:10509000808308957183608308954F925F926F9229
:1050A0007F928F929F92AF92BF92CF92DF92EF92B8
:1050B000FF920F931F93CF93DF93CDB7DEB72E9759
:1050C0000FB6F894DEBF0FBECDBFFC01CB01BA0115
:1050D0006283738384839583E080F18022E0E2160B
:1050E000F10409F083C02EE0EEECF2E0DE0111964F
:1050F00001900D922A95E1F79B01AC010E940250AC
:105100002B013C01CE0101967C015E019FE0A90EBE
:10511000B11CF701C190D1907F01B601882777FDBE
:105120008095982F0E9405519B01AC01C301B201EB
:105130000E940C529B01AC0160E074E284E79BE4A6
:105140000E946A5020E030E04FE753E40E9466502E
:1051500087FD04C0EA14FB04E1F601C086010034B7
:105160001105E9F05CF408301105A9F000321105D1
:10517000A1F001301105C9F481E018C00115F1E07A
:105180001F0779F0011524E0120769F000381105B6
:1051900061F485E00BC082E009C083E007C084E0D1
:1051A00005C086E003C087E001C080E093E49093EF
:1051B000B00088608093B100B801882777FD8095A2
:1051C000982F0E9405519B01AC01C301B2010E94BE
:1051D0000C529B01AC0160E074E284E79BE40E9406
:1051E0006A500E94D7506093B300D0C02AE0ECED23
:1051F000F2E0DE01119601900D922A95E1F79B01F4
:10520000AC010E9402502B013C01CE0101966C01C1
:105210004E019BE0890E911CF601A190B1906F01A7
:10522000B501882777FD8095982F0E9405519B0135
:10523000AC01C301B2010E940C529B01AC0160E0C1
:1052400074E284E79BE40E946A5020E03FEF4FE75E
:1052500057E40E94665087FD04C0C814D904E1F6E3
:1052600001C0850100341105A1F03CF401301105A5
:1052700071F008301105A9F010C00115F1E01F0709
:1052800051F0011524E0120741F485E00DC081E0E2
:105290000BC083E009C084E007C017FD04C080E0B4
:1052A00003C082E001C087E093E0E916F10459F100
:1052B000E4E0EE16F10409F448C0EA94EF2809F09E
:1052C00065C093E490938000886180938100B80169
:1052D000882777FD8095982F0E9405519B01AC018E
:1052E000C301B2010E940C529B01AC0160E074E268
:1052F00084E79BE40E946A500E94D2507093890018
:105300006093880043C093E49093900088618093F9
:105310009100B801882777FD8095982F0E9405514C
:105320009B01AC01C301B2010E940C529B01AC0174
:1053300060E074E284E79BE40E946A500E94D250CD
:10534000709399006093980021C093E49093A0001B
:1053500088618093A100B801882777FD8095982FF8
:105360000E9405519B01AC01C301B2010E940C5285
:105370009B01AC0160E074E284E79BE40E946A5008
:105380000E94D2507093A9006093A8002E960FB689
:10539000F894DEBF0FBECDBFDF91CF911F910F916B
:1053A000FF90EF90DF90CF90BF90AF909F908F9045
:1053B0007F906F905F904F900895FC01108214824F
:1053C000138215820895862F642F0C94E34A862F4A
:1053D000642F0C941C4B862F0C94514B4F925F9270
:1053E0006F927F928F929F92AF92BF92CF92DF92F5
:1053F000EF920F93CF93DF93EC014B013A015901E8
:105400000296DBDF88EC94E0998388836E018CE15F
:10541000C80ED11C26018CE3480E511CC601CDDFFD
:1054200086E0C80ED11CC414D504C1F7FE01EE59A4
:10543000FF4F718260823296B182A08232960083E1
:105440003196E08237979182808238968AE090E0A8
:1054500091838083329684EF91E0918380833296AA
:1054600011821082C45ADF4F188219821A821B825D
:10547000DF91CF910F91EF90DF90CF90BF90AF90E1
:105480009F908F907F906F905F904F9008952F9294
:105490003F924F925F926F927F928F929F92AF92C4
:1054A000BF92CF92DF92EF92FF920F931F93CF9311
:1054B000DF93CDB7DEB728970FB6F894DEBF0FBEE7
:1054C000CDBF98878F83F12C4C0186E6880E911C06
:1054D0000F8118850E591F4FD4018C91F816A0F436
:1054E000AF81B8858D919C91F801A081B181AF0DFC
:1054F000B11DFC012081318142E06C918F81988542
:10550000F9011995F394E8CF512CEF81F885E95909
:10551000FF4FFA83E9830F8118850C591F4FC12C67
:10552000D12C7601C3948F8198858E599F4F9C838F
:105530008B83A981BA818C91581608F088C0A52C5C
:10554000B12CAF81B8858D919C91F801A081B1817A
:10555000AA0DBB1DFC012081318141E06C918F813E
:105560009885F9011995AF81B8858D919C91F801C5
:10557000A081B181AA0DBB1DFC012281338140E0D5
:105580006C918F819885F9011995D701C601052C79
:1055900004C0880F991FAA1FBB1F0A94D2F79C0151
:1055A0001C0120943094412CD4018C91EF81F8851A
:1055B00040815181481648F5642C712CEB81FC81A7
:1055C000A081B181A60DB71DFA01448155816C916E
:1055D0008F8198852D833E83FA011995660C771C7F
:1055E0002D813E81EF81F885E60DF71D892B29F489
:1055F00080859185822B932B04C0808591858221A3
:105600009321918780874394CFCFF801A081B18106
:10561000AA0DBB1DFA012281338141E06C918F817B
:105620009885F9011995AF81B8858D919C91F80104
:10563000A081B181AA0DBB1DFC012081318140E018
:105640006C918F819885F9011995539472CF2896A2
:105650000FB6F894DEBF0FBECDBFDF91CF911F9183
:105660000F91FF90EF90DF90CF90BF90AF909F9001
:105670008F907F906F905F904F903F902F90089504
:10568000FC0180E090E0258D368D2617370739F034
:10569000019636968A309105B1F78FEF9FEF089506
:1056A000FC0126E0629FE00DF11D112450A3478FFD
:1056B00021E021A3FC01E459FF4F0190F081E02D8E
:1056C000309721F0DC015C968C9119940895CF926B
:1056D000DF92FF920F931F93CF93DF931F92CDB76B
:1056E000DEB76C01F62EFC0186E0689FE00DF11D2F
:1056F000112411A2878D90A181309105E9F01CF44D
:10570000892B51F044C08230910591F1039709F043
:105710003EC040E050E030C04423C9F141E050E0D9
:10572000C601BEDF0E94E648F601E85AFF4F6083DB
:105730007183828393832BC049830E94E648F601DC
:10574000E85AFF4F0081118122813381601B710B68
:10575000820B930B72960081118120E030E0498129
:10576000061717072807390718F442E050E004C06D
:1057700041110DC043E050E06F2DC6010F90DF9145
:10578000CF911F910F91FF90DF90CF9089CF0F9015
:10579000DF91CF911F910F91FF90DF90CF900895EF
:1057A0002F923F924F925F926F927F928F929F9231
:1057B000AF92BF92CF92DF92EF92FF920F931F931F
:1057C000CF93DF931F92CDB7DEB71C01FC014AE0F7
:1057D0008FEF9FEF278D30A1232B21F4148E968F0E
:1057E000858F11A2415036964111F4CF712C610181
:1057F00026E6C20ED11C510187E6A80EB11C41015C
:10580000A0E68A0E911C46E0442ED6018C917816B3
:1058100008F053C0612C8101070D111D070D111DEA
:10582000085F1F4FF501E0806E1408F044C0F801D6
:1058300040815181062C02C0569547950A94E2F7A3
:1058400041707E9C70011124E60CF11CD401ED9195
:10585000FC91EE0DFF1D5080B701C101498310DF9F
:10586000498197FD02C0682F1BC0019611F54423A2
:1058700001F180E090E060E070E0F101E80FF91FD5
:10588000248D211110C0469EF001479EF00D112479
:10589000E20DF31D548EF68EE58E10A2178E41E0B8
:1058A000C10115DF06C06F5F7F4F06966A30710534
:1058B00021F76394B7CF7394A8CF20E030E080E065
:1058C000F101E20FF31F91A1911181E02A5F3F4F97
:1058D0002C333105A9F70F90DF91CF911F910F91D4
:1058E000FF90EF90DF90CF90BF90AF909F908F9000
:1058F0007F906F905F904F903F902F900895CF9240
:10590000DF92EF92FF920F931F93CF93DF938C015F
:105910000E94E648E801C45ADF4FC880D980EA8077
:10592000FB806C197D098E099F09F801E859FF4F2A
:10593000C080D180E12CF12CC616D706E806F90606
:1059400060F4C801A4DDC8012BDF182F0E94E648CF
:10595000688379838A839B8301C010E0812FDF9164
:10596000CF911F910F91FF90EF90DF90CF9008950E
:10597000CF93DF93EC01C3DF882339F089A188231B
:1059800021F08F8D98A1019711F080E001C08C8DDE
:10599000DF91CF910895CF93DF93EC01CE01E8DF43
:1059A0008823E1F3DF91CF9108950F931F93FC01BA
:1059B0005183408375836483358F248F178F068FBF
:1059C000158A148A81E090E097838683978B868B73
:1059D00097878687938782871F910F910895FC018F
:1059E000CB01019620813181821793071CF08FEF44
:1059F0009FEF0895A481B5812EE0269FA001279FE7
:105A0000500D11249D01240F351F2E5F3F4FF901CA
:105A100065917491FD01E40FF51F70962591349105
:105A20006217730721F7089516161706E4F4FC01B0
:105A3000448155818EE0869F9001879F300D11240F
:105A4000CA01820F931F0296FC01A591B491FA013D
:105A5000E20FF31F3C9785919491A817B90719F4A9
:105A6000CB01019708958FEF9FEF08954EE0469F79
:105A70009001479F300D1124DC011496ED91FC91AB
:105A80001597E20FF31F32968591949108954EE099
:105A9000469F9001479F300D1124DC011496ED9133
:105AA000FC911597E20FF31F349685919491089518
:105AB000CF93DF93EB016EE0649F9001659F300D03
:105AC0001124DC011496ED91FC911597E20FF31F60
:105AD00065917491CE010E945F54CE01DF91CF9108
