:100000000C94F50D0C94260E0C94260E0C94260ED2
:100010000C94260E0C94260E0C94260E0C94260E90
:100020000C94260E0C94260E0C94260E0C94260E80
:100030000C94260E0C94260E0C94260E0C94260E70
:100040000C94260E0C94260E0C94260E0C94260E60
:100050000C94260E0C94260E0C94260E0C940C4434
:100060000C94260E0C9458480C948E480C94260E32
:100070000C94260E0C94260E0C94260E0C94260E30
:100080000C94260E0C94260E0C94260E0C94260E20
:100090000C94260E0C94260E0C94260E0C94DE4224
:1000A0000C94260E0C94260E0C94260E0C94260E00
:1000B0000C94260E0C94260E0C94260E0C94260EF0
:1000C0000C94260E0C94260E0C94260E0C94260EE0
:1000D0000C94260E0C94260E0C94260E0C94260ED0
:1000E0000C94260EB52CC22CC22C892C892C922C57
:1000F000922CA12CA12CAC2CAC2CAC2CAC2CB52C67
:10010000B52CEA2EF12EF12E5C2D5C2D692D692D7A
:10011000732D732DE52DE52DE52DE52DEA2EEA2E27
:1001200018331D3318331D3318331D3318331D3363
:1001300018331D3318331D331B335F456445694540
:1001400073457D45F64587458F459745A145AB45A8
:10015000B545C445CE45F645D845E245EC4518467B
:100160001B460A460E46144652461F46234629465B
:100170002D46314637463B463F4652464546494660
:100180004D4607634236B79BD8A71A39685618AE52
:10019000BAAB558C1D3CB7CC5763BD6DEDFD753EBC
:1001A000F6177231BF000000803F08000000BE92C9
:1001B0002449123EABAAAA2ABECDCCCC4C3E0000AC
:1001C0000080BEABAAAAAA3E00000000BF0000004B
:1001D000803F0000000000084178D3BB4387D11363
:1001E0003D190E3CC3BD4282AD2B3E68EC8276BE0B
:1001F000D98FE1A93E4C80EFFFBE01C4FF7F3F00D5
:10020000000000004229204E6F00412920596573EB
:1002100000536176652053657474696E67733F009F
:10022000696E207468652073706F6F6C6572206DE5
:10023000656E75007468652073706F6F6C2044691B
:100240006D656E73696F6E7300446F6E2774206600
:100250006F7267657420746F207365742000422983
:1002600020457869740041292053746F70007072C2
:100270006573732053746F70206174203120726530
:10028000762E004229204578697400412920426574
:1002900067696E0070726573732053746F702061AC
:1002A000742031207265762E00506C616365207277
:1002B0006F6C6C6572206F6E204469736B00526FB7
:1002C0006C6C65722F4469736B2054657374006D98
:1002D0006963726F737465702073657474696E6797
:1002E000730074686520776972696E6720616E6457
:1002F000006D616B652031207265762C2063686526
:10030000636B0049662073706F6F6C65722064695F
:10031000646E277400526F746174696E67203120B7
:100320007265762E2E2E0042292045786974004190
:100330002920426567696E00417474656D70746947
:100340006E67203120726576004D61726B20746893
:100350006520526F6C6C65722E20004D6963726F60
:1003600073746570696E6720546573740044292046
:1003700045786974004229204E6F00412920596553
:10038000730073706F6F6C657220646972204F4BDD
:100390003F004229204E6F004129205965730043D8
:1003A0006F6E74696E75653F0073706F6F6C657208
:1003B00020446972656374696F6E2E2E2E00442985
:1003C0002045584954004329205768656E204469E8
:1003D0007361626C656400412920456E61626C65E1
:1003E0002F44697361626C65004229204E6F0041A1
:1003F000292059657300436F6E74696E75653F00FF
:10040000666F6C6C6F77696E672074657374732E9A
:1004100000746F20706572666F726D20746865007D
:100420006D757374206265206672656520746F2037
:100430006D6F7665005741524E494E473A205468D9
:10044000652053706F6F6C6572004229204E6F00FB
:100450004129205965730053617665205365747492
:10046000696E67733F006D6963726F7374657020A6
:1004700073657474696E6773007468652077697258
:10048000696E6720616E64006D616B65203120725A
:1004900065762C20636865636B0049662074686527
:1004A000206175676572206469646E277400526FFD
:1004B000746174696E672031207265762E2E2E006D
:1004C0004229204578697400412920426567696E98
:1004D00000417474656D7074696E672031207265B7
:1004E00076004D61726B2074686520736861667474
:1004F0002E20004D6963726F73746570696E67209A
:100500005465737400442920457869740042292099
:100510004E6F00412920596573004175676572204F
:10052000646972656374696F6E204F4B3F004229A6
:10053000204E6F0041292059657300436F6E746926
:100540006E75653F00417567657220446972656329
:1005500074696F6E205465737400442920455849AE
:1005600054004329205768656E2044697361626CAA
:10057000656400412920456E61626C652F44697392
:1005800061626C65004229204E6F00412920596547
:100590007300436F6E74696E75653F00666F6C6CB7
:1005A0006F77696E672074657374732E00746F20A3
:1005B000706572666F726D20746865006D75737416
:1005C000206265206672656520746F206D6F7665A8
:1005D000005741524E494E473A20546865204175B4
:1005E000676572004229204E6F00412920596573CA
:1005F0000053746F7020457874727564696E673F3C
:1006000000526573657474696E6720454550524F9A
:100610004D2E2E2E00526573657474696E672074BA
:10062000686520454550524F4D2E2E2E0042292000
:100630004E6F0041292059657300576F756C642017
:10064000796F75206C696B6520746F2070726F63B1
:100650006565643F007468652064656661756C74E7
:100660002073657474696E67730073746F72656468
:100670002070726F66696C657320776974680077A3
:10068000696C6C206F766572777269746520616C35
:100690006C20005741524E494E473A2054686973C6
:1006A00020616374696F6E005741524E494E473A5C
:1006B000205468697320616374696F6E2077696C78
:1006C0006C206F766572776972746520616C6C203E
:1006D00073746F7265642070726F66696C657320E5
:1006E00077697468207468652064656661756C74E8
:1006F0002053657474696E67732E0050726F66695B
:100700006C6520536176656400536176696E67207D
:1007100070726F66696C652E2E2E00536176696E5D
:10072000672053657474696E677320666F722070FA
:10073000726F66696C65206E756D6265723A200035
:10074000436F6E66696775726174696F6E2053617D
:1007500076656400536176696E672E2E2E004669B9
:100760006E697368656420536F616B696E670054CE
:10077000696D652873292C20446961286D6D292CC9
:10078000206F75746665656452504D2C20737461DA
:1007900072766546656564657252504D2C20206105
:1007A0007567657252504D2C204D6F64652C206F1B
:1007B0007574666565644B702C206F75746665652D
:1007C000644B692C206F7574666565644B642C20DE
:1007D0006665656452617465286D2F6D696E292C9C
:1007E000206D657465727345787472756465640014
:1007F000CA13FFFF01000000000000000A18C11327
:100800000000FFFF330200000F0000006D18000021
:10081000FFFF1A0B02000A00AE12B2130000FFFF26
:10082000D60A00000700000044160000FFFFF40A8B
:1008300001000D00000038160000FFFFF00A010063
:100840000D0000002C160000FFFFEC0A01000D0057
:10085000000020160000FFFFE80A01000D00000064
:100860001C180000FFFF400B00000C00690E0C1864
:100870000000FFFF440B00000C007A0EFC17000084
:10088000FFFF480B00000C008B0EEC170000FFFF71
:100890004C0B00000C009C0E63180000FFFF1E0BA9
:1008A00001000A00D90F57180000FFFF220B0100BA
:1008B0000C00E50FD9130000FFFF370200000F0006
:1008C000801291170000FFFF2B0200000F00C413DD
:1008D00092180000FFFFFA0A00000E0000008918BD
:1008E0000000FFFF0E0B02000C0000007718000054
:1008F000FFFF160B02000A0000004C180000FFFF6B
:100900002A0B02000C00BA1241180000FFFF260B50
:1009100002000C00BA1236180000FFFF2E0B020076
:100920000C00BA122C180000FFFF3C0B00000C005A
:1009300000000F14FFFF01000000000000000D1870
:1009400000140000FFFFDE0A00000F000000F0139B
:100950000000FFFF000000000300D70EE7130000B7
:10096000FFFF000000000300540ED9130000FFFF3A
:10097000370200000F00801244160000FFFFF40A47
:1009800001000D00000038160000FFFFF00A010012
:100990000D0000002C160000FFFFEC0A01000D0006
:1009A000000020160000FFFFE80A01000D00000013
:1009B0001C180000FFFF400B00000C00690E0C1813
:1009C0000000FFFF440B00000C007A0EFC17000033
:1009D000FFFF480B00000C008B0EEC170000FFFF20
:1009E0004C0B00000C009C0E92180000FFFFFA0A4E
:1009F00000000E00000089180000FFFF0E0B02002F
:100A00000C00000077180000FFFF160B02000A0020
:100A100000006D180000FFFF1A0B02000A00AE1262
:100A200091170000FFFF2B0200000F00C413631892
:100A30000000FFFF1E0B01000A00D90F571800002D
:100A4000FFFF220B01000C00E50F4C180000FFFF18
:100A50002A0B02000C00BA1241180000FFFF260BFF
:100A600002000C00BA1236180000FFFF2E0B020025
:100A70000C00BA122C180000FFFF3C0B00000C0009
:100A800000006114FFFF01000000000000000C18CE
:100A900052140000FFFFD80A00000F0000004416A7
:100AA0000000FFFFF40A01000D00000038160000EE
:100AB000FFFFF00A01000D0000002C160000FFFFF0
:100AC000EC0A01000D00000020160000FFFFE80AFC
:100AD00001000D0000001C180000FFFF400B00008B
:100AE0000C00690E0C180000FFFF440B00000C0006
:100AF0007A0EFC170000FFFF480B00000C008B0E65
:100B0000EC170000FFFF4C0B00000C009C0E3F1484
:100B10000000FFFF0000000003002A0E2C1400005C
:100B2000FFFF0000000003003F0E22140000FFFF43
:100B3000000000000300C90EA3170000FFFF000023
:100B400000000300A2129E170000FFFF000000003B
:100B50000300AA1291170000FFFF2B0200000F00F4
:100B6000C41392180000FFFFFA0A00000E000000F4
:100B700089180000FFFF0E0B02000C000000771820
:100B80000000FFFF160B02000A0000006D180000B5
:100B9000FFFF1A0B02000A00000063180000FFFFAD
:100BA0001E0B01000A00000057180000FFFF220B77
:100BB00001000C0000004C180000FFFF2A0B02008F
:100BC0000C00000041180000FFFF260B02000C0083
:100BD000000036180000FFFF2E0B02000C00000082
:100BE0002C180000FFFF3C0B00000C0000007B14E1
:100BF000FFFF01000000000000000B184416000079
:100C0000FFFFF40A01000D00000038160000FFFF8E
:100C1000F00A01000D0000002C160000FFFFEC0A96
:100C200001000D00000020160000FFFFE80A01008F
:100C30000D0000001C180000FFFF400B00000C001E
:100C4000690E0C180000FFFF440B00000C007A0E28
:100C5000FC170000FFFF480B00000C008B0EEC1788
:100C60000000FFFF4C0B00000C009C0E6E140000F7
:100C7000FFFF000000000300BB0E92180000FFFF02
:100C8000FA0A00000E00000089180000FFFF0E0B9A
:100C900002000C00000077180000FFFF160B020096
:100CA0000A0000006D180000FFFF1A0B02000A0086
:100CB000000091170000FFFF2B0200000F00C4137B
:100CC00063180000FFFF1E0B01000A000000571808
:100CD0000000FFFF220B01000C0000004C18000078
:100CE000FFFF2A0B02000C00000041180000FFFF6C
:100CF000260B02000C00000036180000FFFF2E0B30
:100D000002000C0000002C180000FFFF3C0B00004C
:100D10000C000000FE18FFFF0100000000000000B2
:100D20000000EF18000004000000000000000000B8
:100D3000E518000020000000000000000000DB18A3
:100D4000000076000000000000000000D81801003C
:100D50000F00DD0C000001007511D51801000F0017
:100D6000F10C000001007B11D21801000F00050DED
:100D7000000001008111CF1801000F00190D0000C3
:100D800001008711CC1801000F002D0D000001009B
:100D90008D11C91801000F00410D000001009311D1
:100DA000C61801000F00550D000001009911C3186D
:100DB00001000F00690D000001009F11C018010023
:100DC0000F007D0D00000100A511BC1801000F00EF
:100DD000910D00000100AB11AC1801000F000000E4
:100DE00000000000B111A4180400FFFF0000000083
:100DF0000000AD0E97180400FFFF00000000000087
:100E0000B51192180400FFFFFA0A00000E0000005E
:100E100089180400FFFF0E0B02000C00000081186F
:100E20000400FFFF120B02000C0000007718040002
:100E3000FFFF160B02000A0000006D180400FFFF00
:100E40001A0B02000A00000063180400FFFF1E0BCB
:100E500001000A00000057180400FFFF220B0100E8
:100E60000C0000004C180400FFFF2A0B02000C00CD
:100E7000000041180400FFFF260B02000C000000D8
:100E800036180400FFFF2E0B02000C0000002C1887
:100E90000400FFFF3C0B00000C0000001C180400C5
:100EA000FFFF400B00000C0000000C180400FFFFC7
:100EB000440B00000C000000FC170400FFFF480B6F
:100EC00000000C000000EC170400FFFF4C0B0000BA
:100ED0000C000000D9170200FFFF00000000030013
:100EE0004D11CC1702002600000000000000000099
:100EF000C61702003E000000000000000000B81706
:100F0000020044000000000000000000B0170200D2
:100F100063000000000000000000A81702006D0040
:100F20000000000000000000A3172100FFFF0000E8
:100F300000000300A2129E172100FFFF0000000026
:100F40000300AA1291172100FFFF2B0200000F00DF
:100F5000C41385172100FFFF000000000300E41206
:100F600076172100FFFF31020000060000006C1719
:100F70002100FFFF000000000300F0125F172100B6
:100F8000FFFF2F020000060000006D182100FFFF88
:100F90001A0B02000A0000005A172100FFFF000090
:100FA00000000300E9114C172100FFFFC20B0000F5
:100FB0000600000042172100FFFFC40B02000A00D8
:100FC000000034172100FFFFC80B000006000000DE
:100FD00026172100FFFFCA0B0000060000001B17A8
:100FE0002100FFFFCC0B0000060000000E172100BF
:100FF000FFFFCE0B00000600000000172100FFFFDE
:10100000D00B000006000000F6162100FFFFD20BF7
:10101000000004000000EC162100FFFFD30B0000CD
:1010200006000000DA162100FFFFD50B00000600C5
:101030000000CD162100FFFFD70B000006000000C6
:10104000C1162100FFFFDB0B000006000000B516F3
:101050002100FFFFDD0B000006000000A8162100A4
:10106000FFFFDF0B0000060000009A162100FFFFC3
:10107000E10B0000060000008F162200FFFF0000B9
:10108000000003000E1887162200FFFFE30B00008C
:10109000060000007D162200FFFFE50B00000600A1
:1010A000000073162200FFFFE70B000004000000A1
:1010B0006C162200FFFFE80B000004000000611620
:1010C0002200FFFFE90B02000A0000005016230077
:1010D000FFFF3F0200000F00F21144162300FFFF44
:1010E000F40A01000D00000038162300FFFFF00A8B
:1010F00001000D0000002C162300FFFFEC0A010088
:101100000D00000020162300FFFFE80A01000D007B
:1011100000001C182300FFFF3D0C00000C00000025
:101120000C182300FFFF6B0C00000C000000FC17E4
:101130002300FFFF990C00000C000000EC172300B7
:10114000FFFFC70C00000C00000013162300FFFF78
:10115000150C00000600000009162300FFFF170C05
:1011600000000C000000FF152300FFFF1B0C000017
:101170000C000000F9152300FFFF1F0C02000C00FB
:101180000000F3152300FFFF230C02000C000000F9
:10119000ED152300FFFF270C02000C000000E015F6
:1011A0002300FFFF430C000006000000D6152300BB
:1011B000FFFF450C00000C000000CC152300FFFFD2
:1011C000490C00000C000000C6152300FFFF4D0C69
:1011D00002000C000000C0152300FFFF510C0200AC
:1011E0000C000000BA152300FFFF550C02000C0094
:1011F0000000B0152300FFFF730C00000C0000007E
:10120000A6152300FFFF770C00000C000000A015BE
:101210002300FFFF7B0C02000C0000009A15230046
:10122000FFFF7F0C02000C00000094152300FFFF5D
:10123000830C02000C0000008A152300FFFFA10CA4
:1012400000000C00000080152300FFFFA50C00002B
:101250000C0000007A152300FFFFA90C02000C000F
:10126000000074152300FFFFAD0C02000C0000000D
:101270006E152300FFFFB10C02000C000000621588
:101280002400FFFF3B0200000F0055125E152400F2
:10129000FFFFE40A00000A00000053152300FFFFCF
:1012A000000000000300BE124B152400FFFFED0BF1
:1012B00000000600000041152400FFFFEF0B0000B6
:1012C0000600000037152400FFFFF10B00000400AA
:1012D00000002A152400FFFFF20B000004000000AC
:1012E0001C152400FFFFF30B02000A000000141578
:1012F0002400FFFFF70B02000C0000000C15240077
:10130000FFFFFB0B02000C000000FF142500FFFF95
:10131000000000000300911AF7142500FFFFFF0BE7
:10132000000006000000ED142500FFFF010C000086
:1013300006000000E3142500FFFF030C000004007A
:101340000000DC142500FFFF040C00000400000076
:10135000D0142500FFFF050C02000A000000C41491
:101360002500FFFF090C02000A000000B714250049
:10137000FFFF0D0C02000A000000A9142500FFFF6A
:10138000110C02000A00000091170300FFFF2B025E
:1013900000000F00C41398140300FFFF0000FFFFBC
:1013A0000300280E8B140300FFFF00000000030061
:1013B000E8164772616D73204578747275646564D0
:1013C000004469616D657465720045787472756476
:1013D000696E672E202E202E005374617276652070
:1013E000466565646572004164642054696D6500FA
:1013F00046696C616D656E74204C6F616465640054
:1014000054696D652052656D61696E696E67004C47
:101410006F61642046696C616D656E742E202E20AC
:101420002E00536B697020536F616B0044656372CB
:101430006561736520536F616B2054696D65004968
:101440006E63726561736520536F616B2054696DC3
:10145000650054696D652052656D61696E696E67DE
:1014600000536F616B696E672E202E202E00536B28
:1014700069702050726568656174005072656865B6
:101480006174696E672E202E202E0052657365747C
:1014900020454550524F4D004D6561737572652072
:1014A00046696C616D656E7400526F6C6C6572207C
:1014B0005261646975730054726176657273652058
:1014C0004C656E00436F72652052616469757300EC
:1014D0004469736B2052616469757300456E616283
:1014E0006C6500446972656374696F6E005374655E
:1014F00070204D6F64650050696E20536574005410
:101500006573742053706F6F6C6572004D696E2047
:1015100052504D004D61782052504D00526F6C6C0E
:1015200065722052616469757300456E61626C6515
:10153000204C6F67696300446972656374696F6EFC
:101540000053746570204D6F64650050696E2053C0
:1015500065740053656E64203120526576005250E8
:101560004D0052756E204F757466656564005A347F
:10157000204B64005A34204B69005A34204B7000D1
:101580005A34204D696E204443005A34204D61780E
:10159000204443005A33204B64005A33204B6900E7
:1015A0005A33204B70005A33204D696E204443005B
:1015B0005A33204D6178204443005A32204B640056
:1015C0005A32204B69005A32204B70005A32204D5B
:1015D000696E204443005A32204D61782044430014
:1015E0005A322054696D652062617365005A31205A
:1015F0004B64005A31204B69005A31204B70005A1D
:1016000031204D696E204443005A31204D617820CD
:101610004443005A312054696D652062617365004E
:101620005A6F6E6520342054656D70005A6F6E6578
:1016300020332054656D70005A6F6E65203220543F
:10164000656D70005A6F6E6520312054656D7000B5
:10165000416374697661746520486561746572736D
:10166000004765617220526174696F00456E616266
:101670006C6500446972656374696F6E00537465CC
:1016800070204D6F64650050696E2053657400547E
:10169000657374204175676572004465626F756E8D
:1016A00063652054696D65005374617274757020B0
:1016B00054696D65004D617846696C6C54696D655F
:1016C000004D696E46696C6C54696D65004D6178BA
:1016D000447574794379636C6500537461727475F1
:1016E0007020447574794379636C6500447574792E
:1016F0004379636C6500446972656374696F6E0059
:101700004F76657220526F746174696F6E00486F16
:101710006D696E672044656C617900537465702053
:1017200044656C61790044756D7020506F73697405
:10173000696F6E00486F6D6520506F736974696FD3
:101740006E004C756D70204D61737300536C617643
:101750006520416464726573730053746F70005444
:10176000696D6520746F2073656E640053656E64E7
:101770002054696D65004379636C657320746F2034
:1017800073656E640053656E64204379636C6573A2
:10179000004665656420506C61737469630044752C
:1017A0006D7000486F6D650053706F6F6C657200EF
:1017B0004F757466656564004865617465722043A1
:1017C0006F6E666967004175676572005374617278
:1017D0007665466565646572005361766520436F82
:1017E0006E66696775726174696F6E005A6F6E65B7
:1017F0002034205365742054656D70005A6F6E65F7
:101800002033205365742054656D70005A6F6E65E7
:101810002032205365742054656D70005A6F6E65D8
:101820002031205365742054656D7000536F616BD7
:101830002054696D65004F75746665656420506459
:10184000004F757466656564204B69004F7574665A
:10185000656564204B70004F757466656564205241
:10186000504D0041756765722052504D00477261BE
:101870006D732F4D696E00546F6C6572616E636598
:101880000044656E73697479004469616D657465BF
:1018900072004E616D6500536176652050726F660F
:1018A000696C6500457874727564650044656661AD
:1018B000756C742050726F66696C65003130290058
:1018C0003929003829003729003629003529003404
:1018D0002900332900322900312900417578696CCB
:1018E000696172790043616C696272617465005369
:1018F000656C6563742050726F66696C65004D613C
:10190000696E204D656E7500536176696E67204380
:101910006F6E6669672E00F5031600F3031900F178
:10192000031E00E9032800E2033200D2033C00C298
:10193000034600AD03500091035A006F0364004852
:10194000036E0016037800E4028200AA028C007184
:101950000296004302A0000102AA00CA01B4008B53
:1019600001BE005201C8002C01D2000901DC00EBCD
:1019700000E600C800F000AC00FA00960004018206
:10198000000E01720018016300220153002C0100B7
:10199000000A0B02090C0D0E0807030401000000E9
:1019A0000000000000000000000000000000000037
:1019B00000000000000000000000001211100000F4
:1019C0000000000000000000000000000000000017
:1019D0000000000000010210202008081020401024
:1019E00020408002010201080402010102040810E3
:1019F0002040808040201008040201800402018001
:101A00004020100804020108040201010204081029
:101A100020408001020408102040800505050507CC
:101A20000508080808020202020A0A080804040459
:101A30000401010101010101010303030303030385
:101A400003040707070C0C0C0C0C0C0C0C02020214
:101A50000206060606060606060B0B0B0B0B0B0B07
:101A60000B000020002300260029002C002F00324C
:101A70000000010000030106010901000022002509
:101A80000028002B002E0031003400020100000568
:101A90000108010B0100002100240027002A002D6D
:101AA000003000330001010000040107010A014E6B
:101AB000414E494E495459494E46CDCCCC3D0AD7AA
:101AC000233C17B7D13877CC2B329595E6241FB13C
:101AD0004F0A000020410000C84200401C4620BCC4
:101AE000BE4CCA1B0E5AAEC59D7400407A10F35A04
:101AF00000A0724E18090010A5D4E80000E876484E
:101B0000170000E40B54020000CA9A3B000000E1F9
:101B1000F505000080969800000040420F0000008C
:101B2000A08601000000102700000000E80300006C
:101B300000006400000000000A0000000000010036
:101B4000000000002C76D888DC674F0823DFC1DF57
:101B5000AE59E1B1B796E5E3E453C63AE65199765A
:101B600096E8E6C28426EB898C9B62ED407C6FFC94
:101B7000EFBC9C9F40F2BAA56FA5F490055A2AF7D6
:101B80005C936B6CF9676DC11BFCE0E40D47FEF5DF
:101B900020E6B500D0ED902E030094357705008047
:101BA000841E080000204E0A000000C80C333333A6
:101BB000330F986E12831141EF8D2114893BE65546
:101BC00016CFFEE6DB18D1844B381BF77C1D901D29
:101BD000A4BBE424203284725E228100C9F124EC8B
:101BE000A1E53D271115FF41C04811241FBECFEFCD
:101BF000D1E2DEBFCDBF00E00CBF14E0A0E0B2E058
:101C0000E2EBF7EA00E00BBF02C007900D92A43EA2
:101C1000B107D9F72FE0A4EEB4E001C01D92A432C1
:101C2000B207E1F71BE1CAEEDBE100E006C0229754
:101C30000109FE010BBF0E944C4FC43ED10780E05A
:101C40000807A9F70E9404490C94D7530C9400008C
:101C5000089508958091080590910905A0910A05BD
:101C6000B0910B05805A9541AF4FBF4F8093080547
:101C700090930905A0930A05B0930B0508958091F0
:101C8000080590910905A0910A05B0910B058056B1
:101C90009A4EA109B1098093080590930905A09374
:101CA0000A05B0930B0508958091000590910105F8
:101CB000A0910205B0910305805A9541AF4FBF4FE7
:101CC0008093000590930105A0930205B09303054E
:101CD00008958091400B9091410BA091420BB091DF
:101CE000430B80933D0C90933E0CA0933F0CB0931C
:101CF000400C08958091440B9091450BA091460BA8
:101D0000B091470B80936B0C90936C0CA0936D0C6F
:101D1000B0936E0C08958091480B9091490BA0915F
:101D20004A0BB0914B0B8093990C90939A0CA09313
:101D30009B0CB0939C0C089580914C0B90914D0B93
:101D4000A0914E0BB0914F0B8093C70C9093C80C91
:101D5000A093C90CB093CA0C089581E090E09093D1
:101D6000D50A8093D40A89E396E090931505809371
:101D700014050C948B3083E090E09093D50A809307
:101D8000D40A88ED95E090931505809314050C9482
:101D90008B3087E090E09093D50A8093D40A86E157
:101DA00095E090931505809314050C948B3087E093
:101DB00090E09093D50A8093D40A86E195E09093C1
:101DC0001505809314050C948B30CF92DF92EF921F
:101DD000FF9281E49AE00E94281E81E999E00E9426
:101DE000CD2489E099E00E94CD2481E898E00E940A
:101DF000CD2489EF97E00E94CD2481E999E00E94EB
:101E0000E9266B017C0120E030E040E450E4609181
:101E1000400B7091410B8091420B9091430B0E94BB
:101E2000384B9B01AC01C701B6010E943F4D18160B
:101E30000CF073C089E099E00E94E9266B017C01F7
:101E400020E030E040E450E46091440B7091450B99
:101E50008091460B9091470B0E94384B9B01AC013F
:101E6000C701B6010E943F4D18160CF056C081E81C
:101E700098E00E94E9266B017C0120E030E040E41C
:101E800050E46091480B7091490B80914A0B9091FE
:101E90004B0B0E94384B9B01AC01C701B6010E945D
:101EA0003F4D1816D4F589EF97E00E94E9266B01A3
:101EB0007C0120E030E040E450E460914C0B7091F4
:101EC0004D0B80914E0B90914F0B0E94384B9B0114
:101ED000AC01C701B6010E943F4D1816F4F461E051
:101EE00070E081E49AE00E94241E83E090E09093E9
:101EF000D50A8093D40A88ED95E0909315058093D8
:101F000014050E948B308091140590911505FF9067
:101F1000EF90DF90CF900C940B2FFF90EF90DF901D
:101F2000CF900895CF92DF92EF92FF9260E373E03B
:101F300085E89EE00E9488490E94564460930C0503
:101F400070930D0580930E0590930F050E943A4CF7
:101F50006B017C0120E030E040E752E460913C0BF3
:101F600070913D0B80913E0B90913F0B0E94434D31
:101F700020E030E04AE754E40E94434D9B01AC016D
:101F8000C701B6010E94394B0E940E4C60930805B0
:101F90007093090580930A0590930B0584E090E007
:101FA0009093D50A8093D40AFF90EF90DF90CF9062
:101FB000089540911E0B50911F0B6091200B709162
:101FC000210B85EE97E00C945A3C80E697E00E9446
:101FD000E7334091220B5091230B6091240B7091B9
:101FE000250B80E697E00C94C133CF92DF92EF92FD
:101FF000FF9280910002882381F120E030E0A90166
:1020000060911E0B70911F0B8091200B9091210B02
:102010000E943F4D1816FCF48091F20481111BC000
:102020008BEF96E00E94763885EE97E00E94953C13
:1020300081E08093F20481E090E09093F10480933A
:10204000F0040E9456446093EC047093ED04809376
:10205000EE049093EF04109200028091F204882322
:1020600009F46BC00E945644C090EC04D090ED047B
:10207000E090EE04F090EF046C157D058E059F0551
:1020800008F45BC08091F0049091F1048039914094
:102090000CF053C081E999E00E94CD2489E099E0D9
:1020A0000E94CD2481E898E00E94CD2489EF97E03A
:1020B0000E94CD2420E030E048EC53E460911E0BF8
:1020C00070911F0B8091200B9091210B0E94A14BCE
:1020D0006B017C016091F0047091F104882777FD19
:1020E0008095982F0E943C4C9B01AC01C701B60122
:1020F0000E94434DAB01BC0185EE97E00E945A3C23
:102100008091F0049091F10401969093F1048093F2
:10211000F0048091EC049091ED04A091EE04B09154
:10212000EF040596A11DB11D8093EC049093ED047E
:10213000A093EE04B093EF0474C08091F20488235E
:1021400041F08091F0049091F104803991400CF4B9
:1021500068C01092F20481E080930002C090220BCC
:10216000D090230BE090240BF090250B20E030E082
:10217000A901C701B6010E943F4D1816E4F4B7014A
:10218000A60180E697E00E94C13360E070E080E63F
:1021900097E00E94C43380E697E00E94E7338CE228
:1021A00097E00E9452398CE297E00E94053A8CE257
:1021B00097E00E947E3A0E9456446B017C01609336
:1021C00004057093050580930605909307052091FB
:1021D000D90C3091DA0C4091DB0C5091DC0CA0E66C
:1021E000BAEE0E94424F6C0D7D1D8E1D9F1D6093A7
:1021F000000570930105809302059093030586E026
:1022000090E09093D50A8093D40A87E795E0909365
:10221000150580931405FF90EF90DF90CF900C94FC
:102220000B2FFF90EF90DF90CF9008950F931F93A7
:1022300081E49AE00E94281E81E999E00E94CD2461
:1022400089E099E00E94CD2481E898E00E94CD24A5
:1022500081E898E00E94CD2480E697E00E94073450
:102260000E9456440091000510910105209102053D
:102270003091030500531547210931090617170747
:102280002807390730F463E070E081E49AE00E94A7
:10229000241E1F910F910C9456448CEB9AE00E94DF
:1022A0003D4064E577E08CEB9AE00E94384964EFAA
:1022B00071E080E090E00E94854488EF9AE00E94FF
:1022C00090218CEB9AE00E943D4060E477E08CEB3B
:1022D0009AE00E94384960ED77E080E090E00E944B
:1022E00085448AE996E00C940B2F60E070E088EF5B
:1022F0009AE00C941C2261E070E088EF9AE00C9464
:102300001C2262E070E088EF9AE00C941C2263E0EB
:1023100070E088EF9AE00C941C2264E070E088EF93
:102320009AE00C941C2265E070E088EF9AE00C942F
:102330001C2266E070E088EF9AE00C941C2267E0B3
:1023400070E088EF9AE00C941C2268E070E088EF5F
:102350009AE00C941C2269E070E088EF9AE00C94FB
:102360001C2288EF9AE00C94BC1E6BE177E085E8B4
:102370009EE00E9438496091F80A7091F90A4AE09B
:1023800050E085E89EE00E94384A8CEB9AE00E947B
:102390003D4069E077E08CEB9AE00E94384988EF95
:1023A0009AE00E94CF2164EF71E080E090E00E940B
:1023B00085448CEB9AE00E943D406BEF76E08CEB1D
:1023C0009AE00E94384960ED77E080E090E00C945C
:1023D000854489E19AE00E94E63B1092D50A10926A
:1023E000D40A0895809140028636F9F46BE373E0D5
:1023F0008FE392E00E949D4F61E070E081E999E0F7
:102400000E94E62661E070E089E099E00E94E626FD
:1024100061E070E081E898E00E94E62661E070E00B
:1024200089EF97E00E94E6263AC06EE373E08FE3FF
:1024300092E00E949D4F60E070E081E999E00E9487
:10244000E62660E070E089E099E00E94E62660E020
:1024500070E081E898E00E94E62660E070E089EF95
:1024600097E00E94E62640E050E0BA0181E999E059
:102470000E94662640E050E0BA0189E099E00E949F
:10248000662640E050E0BA0181E898E00E946626A6
:1024900040E050E0BA0189EF97E00E946626809103
:1024A0001405909115050C940B2F80913C028636F3
:1024B000B9F46BE373E08BE392E00E949D4F40918F
:1024C000E40A5091E50A6091E60A7091E70A80E615
:1024D00097E00E94C13380E697E00E94E7330AC08C
:1024E0006EE373E08BE392E00E949D4F80E697E0FD
:1024F0000E94E43380911405909115050C940B2FE4
:1025000089E19AE00E94423C67E372E089E19AE047
:102510000E948C3A67E573E085E89EE00E94884956
:1025200062E473E085E89EE00E945D4967E372E043
:1025300085E89EE00E94884967E573E085E89EE0B3
:102540000C94884989E19AE00E94913A89E19AE0E5
:102550000C94153B89E19AE00C94283B40911A0BAE
:1025600050911B0B60911C0B70911D0B89E19AE03F
:102570000C943B3B80E697E00C94C633CF93DF93FB
:1025800080E697E00E94E733C0E8DCE061E08BE0A2
:102590000E948C4688EE93E00E94AA4460E08BE0A3
:1025A0000E948C4688EE93E00E94AA44219771F71E
:1025B00080E697E00E94E433809114059091150520
:1025C000DF91CF910C940B2F89E19AE00E94913A10
:1025D000609131027091320289E19AE00C94653B7E
:1025E00089E19AE00E94913AA0912F02B0913002C5
:1025F00020E63AEE0E943C4FAB01BC0189E19AE033
:102600000C94963B0E9456446093F4047093F50436
:102610008093F6049093F70481E49AE00E94281EC8
:1026200081E999E00E94CD2489E099E00E94CD24BF
:1026300081E898E00E94CD2489EF97E00E94CD24A4
:102640008091080590910905A0910A05B0910B05AC
:1026500088589341A109B1094091F4045091F504BF
:102660006091F6047091F704481759076A077B07D1
:1026700068F08091F304811109C062E070E081E4A8
:102680009AE00E94241E81E08093F3044091F404B8
:102690005091F5046091F6047091F704809108055B
:1026A00090910905A0910A05B0910B0548175907AB
:1026B0006A077B0740F11092F30467E573E085E851
:1026C0009EE00E9488496EE577E085E89EE00E94E2
:1026D000784967E573E085E89EE00E94884987E0D5
:1026E00090E09093D50A8093D40A86E195E0909388
:1026F0001505809314050E948B30809114059091EC
:1027000015050C940B2F08950F931F9381E49AE005
:102710000E94281E81E999E00E94CD2489E099E079
:102720000E94CD2481E898E00E94CD2480E697E0C5
:102730000E9407340E9456440091E8041091E90475
:102740002091EA043091EB04601771078207930728
:10275000C0F08CE297E00E94053A8091E8049091E5
:10276000E904A091EA04B091EB0488519C4FAF4F6B
:10277000BF4F8093E8049093E904A093EA04B093D8
:10278000EB041F910F91089589E19AE00E94233C88
:102790008091400A882319F06BE373E002C06EE376
:1027A00073E08BE292E00C949D4F6115710581F00E
:1027B000DB010D900020E9F7AD0141505109461BA6
:1027C000570BDC01ED91FC910280F381E02D19940F
:1027D00080E090E008956FE677E085E89EE00C9455
:1027E000784977DA87DA97DAA7DA0E945644609355
:1027F000100570931105809312059093130540E026
:1028000050E064EB72E481E999E00E94662640E0C2
:1028100050E064EB72E489E099E00E94662640E0B3
:1028200050E06FE773E481E898E00E94662640E09C
:1028300050E06FE773E489EF97E00E94662661E05D
:1028400070E081E999E00E94E62661E070E089E0AD
:1028500099E00E94E62661E070E081E898E00E943D
:10286000E62661E070E089EF97E00E94E626B3DF9C
:1028700082E090E09093D50A8093D40A089585EE83
:1028800097E00E94953C40911E0B50911F0B609168
:10289000200B7091210B85EE97E00E945A3C4091ED
:1028A000220B5091230B6091240B7091250B80E635
:1028B00097E00E94C13360E070E080E697E00E94FC
:1028C000C43380E697E00E94E73381E49AE00E94F7
:1028D0007E1E0E9456446093FC047093FD04809316
:1028E000FE049093FF0477DF80E697E00E94F233C6
:1028F00088E090E09093D50A8093D40A089526E06A
:1029000040E052EC61E070E085E89EE00E94F8470C
:102910008CEB9DE00E94C94120E044E064E18CEB37
:102920009AE00E945A408CEB9AE00E943D408AE96E
:1029300096E0909315058093140566E070E081E4BD
:102940009AE00E94241E1092D50A1092D40A85EEB5
:1029500097E00E94CE3C80911405909115050C944F
:102960008B30CF92DF92EF92FF920F931F93CF9312
:10297000DF9300D000D0CDB7DEB76C01CB01BA0138
:1029800028EE33E040E050E00E94144FC9016CE3B0
:1029900070E00E94014F7C01882777FD8095982F79
:1029A0000E943C4C8E010C5F1F4F20E042E00E94D1
:1029B000734FB701882777FD8095982F0E943C4C74
:1029C0000350110920E042E00E94734FBE016C5F8A
:1029D0007F4FC6010E949D4FC601FC0101962081D8
:1029E0002111FBCF8AE381938AE0E816F10414F405
:1029F00080E38983DE0111968D91882311F0819304
:102A0000FBCFC60126960FB6F894DEBF0FBECDBF32
:102A1000DF91CF911F910F91FF90EF90DF90CF90BA
:102A20000895CF92EF920F931F9388EF9AE00E9440
:102A3000612280E2C82E9EE1E92E0CE12AE148E104
:102A400066E18CEB9AE00E94FD4024E0E22E04E077
:102A500021E132E045E152E061E072E08EE49AE08B
:102A60000E94002781E49AE00E94181E68EF7AE035
:102A700089E19AE00E94843A65E17CE081E999E08D
:102A80000E94122463E47CE089E099E00E94122411
:102A900061E77CE081E898E00E9412246FE97CE025
:102AA00089EF97E00E9412244091E30B5091E40BD0
:102AB00068EF7AE085EE97E00E94113D68EF7AE0DA
:102AC00080E697E00E94603340E657E068EF7AE0E6
:102AD0008CE297E00E94823868EF7AE08BEF96E014
:102AE0000E9470380EE41AE02CEB3AE049E750E01F
:102AF00064E17DE08AE996E00E94DD292CEB3AE072
:102B000045E150E06EEE7BE089E396E00E94DD292E
:102B10002CEB3AE04AE150E062E87AE088ED95E09B
:102B20000E94DD292CEB3AE048E150E062E379E0D5
:102B300087E795E00E94DD292CEB3AE047E150E081
:102B400060EF77E086E195E00E94DD291F910F910B
:102B5000EF90CF900895CF92DF92EF92FF920F9374
:102B60001F938EE49AE00E94CA2980934D0A85E85B
:102B70009EE00E94E9461816190634F485E89EE0A6
:102B80000E94024780934D0A80914D0A833489F157
:102B9000ACF48433E1F16CF48A3209F43FC0813340
:102BA00009F049C080911405909115050E94D12A21
:102BB00042C0813481F08234A9F03DC0813759F0A0
:102BC0002CF48434E9F08536A1F035C08237C1F0A9
:102BD000873741F030C080911405909115050E940F
:102BE000F42F29C080911405909115050E9427307B
:102BF00022C080911405909115050E9406331BC0D8
:102C000080911405909115050E94563014C0809152
:102C10001405909115050E94522B0DC020E044E050
:102C200064E18CEB9AE00E945A40809114059091E7
:102C300015050E940B2FE091D40AF091D50AEE0FF2
:102C4000FF1FE75EFD4F0190F081E02D199581E9AE
:102C500099E00E94CD2489E099E00E94CD2481E88A
:102C600098E00E94CD2489EF97E00E94CD240E9435
:102C700056446093E4047093E5048093E6049093D3
:102C8000E704C090F804D090F904E090FA04F090C2
:102C9000FB046C157D058E059F0508F492C081E943
:102CA00099E00E94E9266093F40A7093F50A8093F4
:102CB000F60A9093F70A89E099E00E94E92660936A
:102CC000F00A7093F10A8093F20A9093F30A81E874
:102CD00098E00E94E9266093EC0A7093ED0A8093D5
:102CE000EE0A9093EF0A89EF97E00E94E92660933D
:102CF000E80A7093E90A8093EA0A9093EB0A68E580
:102D000073E085E89EE00E945D4980E697E00E94BE
:102D1000BE33AB01BC0122E030E085E89EE00E94BA
:102D2000274B8091D40A9091D50A0497A9F4C090BA
:102D30000805D0900905E0900A05F0900B050E9467
:102D4000564497018601061B170B280B390BB90156
:102D5000A80188ED9AE005DE8091D40A9091D50A09
:102D60000697A9F4C0900005D0900105E0900205F7
:102D7000F09003050E94564497018601061B170B2D
:102D8000280B390BB901A8018EED9AE0EADD0E940B
:102D9000564468517C4F8F4F9F4F6093F804709357
:102DA000F9048093FA049093FB04809114059091A8
:102DB00015051F910F91FF90EF90DF90CF900C942D
:102DC0000B2F1F910F91FF90EF90DF90CF90089500
:102DD000CF93DF9368EA76E085E89EE00E94784929
:102DE0008CEB9AE00E943D4063E976E08CEB9AE040
:102DF0000E94384941E060E08CEB9AE00E9442403A
:102E00006FE776E08CEB9AE00E94384942E060E0A0
:102E10008CEB9AE00E9442406AE676E08CEB9AE006
:102E20000E94384943E060E08CEB9AE00E94424007
:102E300065E576E08CEB9AE00E94384968E873E13A
:102E400080E090E00E9485448CEB9AE00E943D4037
:102E50006AE376E08CEB9AE00E94384941E060E05A
:102E60008CEB9AE00E94424063E376E08CEB9AE0C0
:102E70000E94384942E060E08CEB9AE00E944240B8
:102E80006DE276E08CEB9AE00E9438498EE49AE09D
:102E90000E94CA2980934D0A85E89EE00E94E94677
:102EA0001816190634F485E89EE00E9402478093C4
:102EB0004D0A80914D0A813449F565E176E085E857
:102EC0009EE00E9478498CEB9AE00E943D4061E0D0
:102ED00076E08CEB9AE00E94384988EF9AE0ECD7D4
:102EE00088EF9AE00E94902188EF9AE045D7C0E0F1
:102EF000D0E0D093F90AC093F80A88EF9AE00E94D4
:102F0000CF212196CA30D105A1F702C081E001C0CE
:102F100080E090914D0A923411F08111B7CF8AE987
:102F200096E0DF91CF910C940B2FCF93DF938CEB36
:102F30009AE00E943D4061EF75E08CEB9AE00E94C0
:102F4000384941E060E08CEB9AE00E9442406AEE32
:102F500075E08CEB9AE00E94384942E060E08CEB2F
:102F60009AE00E94424064EE75E08CEB9AE00E9489
:102F70003849CAE9D6E08EE49AE00E94CA298093D3
:102F80004D0A85E89EE00E94E9461816190634F4B9
:102F900085E89EE00E94024780934D0A80914D0A89
:102FA000893711F0813451F585EE97E00E94CE3CCF
:102FB00080E697E00E94E43389E19AE00E94E63BD4
:102FC00081E999E00E94BB2689E099E00E94BB2636
:102FD00081E898E00E94BB2689EF97E00E94BB261B
:102FE0008CE297E00E94803A1092D50A1092D40A9F
:102FF000D0931505C093140580E001C081E0909145
:103000004D0A9E3621F0923411F08111B4CFDF9138
:10301000CF9108958ACF89CF88CF87CFCF93DF9381
:103020008CEB9AE00E943D4061ED75E08CEB9AE0FC
:103030000E94384941E060E08CEB9AE00E944240F7
:103040006CEB75E08CEB9AE00E94384942E060E05E
:103050008CEB9AE00E9442406DEA75E08CEB9AE0BE
:103060000E94384943E060E08CEB9AE00E944240C5
:103070006CE975E08CEB9AE00E94384968E873E1EE
:1030800080E090E00E9485448CEB9AE00E943D40F5
:1030900062E975E08CEB9AE00E94384941E060E01B
:1030A0008CEB9AE00E9442406BE875E08CEB9AE072
:1030B0000E94384942E060E08CEB9AE00E94424076
:1030C00065E875E08CEB9AE00E9438498EE49AE05E
:1030D0000E94CA2980934D0A85E89EE00E94E94635
:1030E0001816190634F485E89EE00E940247809382
:1030F0004D0A80914D0A813439F1823439F71CC070
:10310000813409F445C08EE49AE00E94CA29809374
:103110004D0A85E89EE00E94E9461816190634F427
:1031200085E89EE00E94024780934D0A80914D0AF7
:103130008334C9F1843421F78091140590911505E9
:10314000DF91CF910C940B2F8CEB9AE00E943D40C5
:1031500063E775E08CEB9AE00E94384941E060E05B
:103160008CEB9AE00E94424062E675E08CEB9AE0BC
:103170000E94384942E060E08CEB9AE00E944240B5
:103180006AE575E08CEB9AE00E943849C1E0BBCF5C
:1031900085EE97E0CC2321F00E94953CC0E0B3CFB0
:1031A0000E94CE3CF3CFC11106C08091E80B91E0A4
:1031B00089278093E80B8CEB9AE00E943D4065E400
:1031C00075E08CEB9AE00E94384968E873E180E092
:1031D00090E00E9485448CEB9AE00E943D406BE3B6
:1031E00075E08CEB9AE00E94384941E060E08CEB9E
:1031F0009AE00E94424064E375E08CEB9AE00E9402
:10320000384942E060E08CEB9AE00E9442406EE276
:1032100075E08CEB9AE00E9438498EE49AE00E94B7
:10322000CA2980934D0A85E89EE00E94E946181657
:10323000190634F485E89EE00E94024780934D0A07
:1032400080914D0A813419F0823439F775CF85EEBB
:1032500097E00E94953C40E050E060E87FE385EE17
:1032600097E00E945A3C8CEB9AE00E943D406AE154
:1032700075E08CEB9AE00E94384941E060E08CEB0D
:103280009AE00E94424063E175E08CEB9AE00E9474
:10329000384942E060E08CEB9AE00E9442406DE0E9
:1032A00075E08CEB9AE00E94384943E060E08CEBDB
:1032B0009AE00E94424065E075E08CEB9AE00E9443
:1032C0003849D1E08EE49AE00E94CA2980934D0AE1
:1032D00085E89EE00E94E9461816190634F485E850
:1032E0009EE00E94024780934D0A80914D0A8234ED
:1032F00009F44AC0843409F451C0813419F7CC234D
:1033000009F385EE97E00E94CE3C8CEB9AE00E9498
:103310003D4063EF74E08CEB9AE00E94384968E826
:1033200073E180E090E00E9485448CEB9AE00E947B
:103330003D4062EE74E08CEB9AE00E94384941E037
:1033400060E08CEB9AE00E94424061ED74E08CEB0F
:103350009AE00E94384942E060E08CEB9AE00E94DB
:10336000424068EC74E08CEB9AE00E94384943E0FC
:1033700060E08CEB9AE00E94424060EC74E08CEBE1
:103380009AE00E94384916C08091E70B8D27809300
:10339000E70B85EE97E00E94A73D94CF85EE97E07E
:1033A0000E94CE3CC9CE80914D0A8134B9F082345E
:1033B00009F4C2CE8EE49AE00E94CA2980934D0A95
:1033C00085E89EE00E94E9461816190664F785E82C
:1033D0009EE00E94024780934D0AE5CF8CEB9AE075
:1033E0000E943D406EEA74E08CEB9AE00E943849FE
:1033F00085EE97E00E94953C61E086E00E9453468E
:1034000085EE97E00E94953C40E050E060E271E478
:1034100085EE97E00E945A3C60E777E180E090E01B
:103420000E94854485EE97E00E94CE3C8CEB9AE0AA
:103430000E943D406AE974E08CEB9AE00E943849B2
:1034400041E060E08CEB9AE00E94424068E874E062
:103450008CEB9AE00E94384942E060E08CEB9AE005
:103460000E94424069E774E08CEB9AE00E94384980
:1034700043E060E08CEB9AE00E94424066E674E034
:103480008CEB9AE00E94384968E873E180E090E0B4
:103490000E9485448CEB9AE00E943D4067E574E011
:1034A0008CEB9AE00E94384941E060E08CEB9AE0B6
:1034B0000E94424060E574E08CEB9AE00E9438493B
:1034C00042E060E08CEB9AE00E9442406AE474E0E3
:1034D0008CEB9AE00E9438498EE49AE00E94CA2957
:1034E00080934D0A85E89EE00E94E9461816190669
:1034F00034F485E89EE00E94024780934D0A809153
:103500004D0A813429F488EF9AE00AD780E001C09F
:1035100081E090914D0A923409F40ECE8111DCCFF6
:103520000BCECF92DF92EF92FF920F931F938CEB13
:103530009AE00E943D4065E374E08CEB9AE00E94C3
:10354000384941E060E08CEB9AE00E94424060E242
:1035500074E08CEB9AE00E94384942E060E08CEB2A
:103560009AE00E94424061E174E08CEB9AE00E9494
:10357000384943E060E08CEB9AE00E94424060E012
:1035800074E08CEB9AE00E94384968E873E180E0CF
:1035900090E00E9485448CEB9AE00E943D4066EFEB
:1035A00073E08CEB9AE00E94384941E060E08CEBDC
:1035B0009AE00E9442406FEE73E08CEB9AE00E942A
:1035C000384942E060E08CEB9AE00E94424069EEAC
:1035D00073E08CEB9AE00E9438498EE49AE00E94F6
:1035E000CA2980934D0A85E89EE00E94E946181694
:1035F000190634F485E89EE00E94024780934D0A44
:1036000080914D0A813459F1823439F71CC08134DC
:1036100009F449C08EE49AE00E94CA2980934D0AB9
:1036200085E89EE00E94E9461816190634F485E8FC
:103630009EE00E94024780934D0A80914D0A833498
:10364000E9F1843421F780911405909115051F91BB
:103650000F91FF90EF90DF90CF900C940B2F8CEB9D
:103660009AE00E943D4067ED73E08CEB9AE00E9487
:10367000384941E060E08CEB9AE00E94424066EC01
:1036800073E08CEB9AE00E94384942E060E08CEBFA
:103690009AE00E9442406EEB73E08CEB9AE00E944D
:1036A000384911E0B7CF8CE297E0112321F00E9456
:1036B0007E3A10E0AFCF0E94803AF3CF111106C0DE
:1036C0008091040C91E089278093040C8CEB9AE0A4
:1036D0000E943D4069EA73E08CEB9AE00E94384911
:1036E00068E873E180E090E00E9485448CEB9AE00A
:1036F0000E943D406FE973E08CEB9AE00E943849EC
:1037000041E060E08CEB9AE00E94424068E973E09F
:103710008CEB9AE00E94384942E060E08CEB9AE042
:103720000E94424062E973E08CEB9AE00E943849C3
:103730008EE49AE00E94CA2980934D0A85E89EE0B3
:103740000E94E9461816190634F485E89EE00E94A6
:10375000024780934D0A80914D0A813419F08234DA
:1037600039F771CF8CE297E00E947E3A40E050E05A
:1037700060E87FE38CE297E00E947C3A8CEB9AE071
:103780000E943D4062E873E08CEB9AE00E94384969
:1037900041E060E08CEB9AE00E9442406BE773E00E
:1037A0008CEB9AE00E94384942E060E08CEB9AE0B2
:1037B0000E94424065E773E08CEB9AE00E94384932
:1037C00043E060E08CEB9AE00E9442406DE673E0DB
:1037D0008CEB9AE00E94384901E08EE49AE00E9466
:1037E000CA2980934D0A85E89EE00E94E946181692
:1037F000190634F485E89EE00E94024780934D0A42
:1038000080914D0A823409F44AC0843409F451C0CD
:10381000813419F7112309F38CE297E00E94803A72
:103820008CEB9AE00E943D406BE573E08CEB9AE0F4
:103830000E94384968E873E180E090E00E94854486
:103840008CEB9AE00E943D4069E473E08CEB9AE0D7
:103850000E94384941E060E08CEB9AE00E944240CF
:1038600068E373E08CEB9AE00E94384942E060E044
:103870008CEB9AE00E9442406FE273E08CEB9AE09E
:103880000E94384943E060E08CEB9AE00E9442409D
:1038900067E273E08CEB9AE00E94384916C0809191
:1038A000030C80278093030C8CE297E00E94823AFD
:1038B00094CF8CE297E00E94803AC5CE80914D0A69
:1038C0008134B9F0823409F4BECE8EE49AE00E94CD
:1038D000CA2980934D0A85E89EE00E94E9461816A1
:1038E000190664F785E89EE00E94024780934D0A1E
:1038F000E5CF8CEB9AE00E943D4065E173E08CEBF4
:103900009AE00E9438498CE297E00E947E3A61E09A
:1039100086E00E9453468CE297E00E947E3A40E0A7
:1039200050E060E271E48CE297E00E947C3A60E74C
:1039300077E180E090E00E9485448CE297E00E946D
:10394000803A8CEB9AE00E943D4063E073E08CEBA0
:103950009AE00E94384941E060E08CEB9AE00E94D6
:10396000424061EF72E08CEB9AE00E94384942E0FD
:1039700060E08CEB9AE00E94424062EE72E08CEBD9
:103980009AE00E94384943E060E08CEB9AE00E94A4
:1039900042406FEC72E08CEB9AE00E94384968E894
:1039A00073E180E090E00E9485448CEB9AE00E94F5
:1039B0003D406EEB72E08CEB9AE00E94384968E87B
:1039C00073E180E090E00E9485448CEB9AE00E94D5
:1039D0003D4069EA72E08CEB9AE00E94384941E090
:1039E00060E08CEB9AE00E94424064E972E08CEB6C
:1039F0009AE00E94384942E060E08CEB9AE00E9435
:103A000042406BE872E08CEB9AE00E94384943E058
:103A100060E08CEB9AE00E94424063E872E08CEB3D
:103A20009AE00E9438498EE49AE00E94CA29809365
:103A30004D0A85E89EE00E94E9461816190634F4FE
:103A400085E89EE00E94024780934D0A80914D0ACE
:103A5000813419F0823439F7F6CD8CE297E00E9478
:103A60007E3A40E050E060EA71E48CE297E00E9428
:103A70007C3A0E9456446B017C018CEB9AE00E94D8
:103A80003D406EE672E08CEB9AE00E94384941E0DE
:103A900060E08CEB9AE00E94424066E672E08CEBBC
:103AA0009AE00E94384942E060E08CEB9AE00E9484
:103AB00042406EE572E08CEB9AE00E9438498EE459
:103AC0009AE00E94CA2980934D0A85E89EE00E94F0
:103AD000E9461816190634F485E89EE00E9402476C
:103AE00080934D0A80914D0A813439F0823439F740
:103AF00080E697E00E94E433A6CD8CE297E00E9436
:103B0000803A0E94564400E010E020E83FE3009332
:103B1000110C1093120C2093130C3093140C6C198D
:103B20007D098E099F090E943A4C20E030E040EA6E
:103B300051E40E94434D20E030E64AE657E40E94FB
:103B4000A14B6093050C7093060C8093070C909327
:103B5000080C8CEB9AE00E943D4069E472E08CEB2B
:103B60009AE00E94384941E060E08CEB9AE00E94C4
:103B7000424064E372E08CEB9AE00E94384942E0F4
:103B800060E08CEB9AE00E94424060E272E08CEBD5
:103B90009AE00E94384968E873E180E090E00E9472
:103BA00085448CEB9AE00E943D4061E172E08CEB31
:103BB0009AE00E94384941E060E08CEB9AE00E9474
:103BC00042406AE072E08CEB9AE00E94384942E0A1
:103BD00060E08CEB9AE00E94424064E072E08CEB83
:103BE0009AE00E9438498EE49AE00E94CA298093A4
:103BF0004D0A85E89EE00E94E9461816190634F43D
:103C000085E89EE00E94024780934D0A80914D0A0C
:103C1000813429F488EF9AE083D380E001C081E009
:103C200090914D0A923409F40ECD8111DCCF0BCD69
:103C3000CF93DF93EC0161E081E10E9453461B8644
:103C40001A86DF91CF910895FC01738762870895EA
:103C5000CF92DF92EF92FF92CF93DF93EC018A85B0
:103C60009B85892B09F443C0CC80DD80EE80FF80EA
:103C70000E9456446C157D058E059F05C0F1888510
:103C8000998580FD0BC00A972CF0198618861B8633
:103C90001A862DC080910201816003C080910201CB
:103CA0008E7F809302010E945644288539854A857B
:103CB0005B85AAE0A49FF001A59FF00D1124E20FFF
:103CC000F31FEE0FFF1FED5BFD4FC080D180EE2490
:103CD000D7FCE094FE2C6C0D7D1D8E1D9F1D6C830A
:103CE0007D838E839F832F5F3F4F39872887DF91A6
:103CF000CF91FF90EF90DF90CF900895FC01118657
:103D000010861386128608959B012B523E4FFC01AC
:103D10003587248767527E4F7787668708950F938C
:103D20001F93CF93DF938C0144E050E063E070E099
:103D30008CEB9DE00E94DE41C0E0D0E08CEB9DE08A
:103D40000E943441892B51F08CEB9DE00E943C4154
:103D5000F801EC0FFD1F84832196F0CF8CEB9DE0E2
:103D60000E94FD41F8016481758186819781DF9110
:103D7000CF911F910F910895CF93DF93EC012FEF17
:103D80003FEFFC0121933193CF0164E974E00E947D
:103D90009D4F4DEC5CEC6CEE7FE34E8B5F8B688F40
:103DA000798F47ED53EA60EB7FE34A8F5B8F6C8F2F
:103DB0007D8F4DEC5CEC6CE47DE34E8F5F8F68A3F0
:103DC00079A340E050E060EA70E44AA35BA36CA3EF
:103DD0007DA340E050E060EF71E44EA35FA368A7CD
:103DE00079A740E050E060E772E44AA75BA76CA7C0
:103DF0007DA71AAA1BAA1CAA1DAA40E050E060E4F5
:103E000070E44EA75FA768AB79AB1EAA1FAA18AED5
:103E100019AE40E050E068E473E44AAF5BAF6CAFCA
:103E20007DAFFE01FE9610821182128213823496BB
:103E300080ED97E091838083329640E050E060E02F
:103E400071E44083518362837383349640E050E889
:103E500064E873E4408351836283738334964083C0
:103E60005183628373833496408351836283738367
:103E700034964083518362837383349640E050E0EC
:103E800064E373E44083518362837383349640E038
:103E900050E86EE873E44083518362837383C05AB1
:103EA000DF4F4FE050E060E070E0488359836A8361
:103EB0007B83DF91CF9108952F923F924F925F9233
:103EC0006F927F928F929F92AF92BF92CF92DF922A
:103ED000EF92FF920F931F93CF93DF931F921F9246
:103EE000CDB7DEB7FC01E753FF4F1082319602E0F9
:103EF00010E011830083329640E050E060E87FE3F9
:103F00004083518362837383349624E630E03183A7
:103F10002083329620E436E03183208332962BE4EE
:103F200030E031832083329620ED422E27E0522E5E
:103F30005182408232962AE530E0318320833296E6
:103F400011E0108331962FE530E0318320833296E3
:103F50002EE630E031832083329620EA30E0318350
:103F60002083349638EE632E33E0732E71826082A4
:103F7000329620E137E231832083329628EC30E01C
:103F800031832083329620E530E0318320833296DE
:103F900011821082329620E130E031832083329604
:103FA0001082319610833196C12CD12CA0E4EA2ED8
:103FB000FE2CC082D182E282F3823496A1E0B0E08E
:103FC000B183A0833296318320833296108231965A
:103FD00010823196B8E4CB2EB1EEDB2EBEEAEB2E8A
:103FE000B0E4FB2EC082D182E282F3823496C12CEF
:103FF000D12C18E4E12E13E4F12EC082D182E282AA
:10400000F38234961082118212821382349602E077
:1040100010E0118300833296318320833296108220
:1040200031961082319602E518EB22EE31E40083DE
:10403000118322833383349600E010E020EF31E4D3
:104040000083118322833383349600E010E026E955
:1040500032E4008311832283338334964083518377
:1040600062837383B89627E030E0318320837297B0
:10407000108211821282138234970AE919E929E128
:104080003EE3008311832283338334974AE959E95D
:1040900069E570E440835183628373833897C12C50
:1040A000D12CA8ECEA2EA2E4FA2EC082D182E282C0
:1040B000F382349610821182128213827896BEE6C1
:1040C0002B2EBFE03B2E318220823297A4E1B0E05C
:1040D000B183A0833696118210823C97A0EA8A2E83
:1040E000A6E89A2EAA24A394B12C80829182A2825F
:1040F000B3823A9671826082B09751824082B896BC
:1041000010821182128213823496108231961082AC
:10411000B596A4E0B0E0B183A083729710821182BB
:10412000128213823497008311832283338334975E
:1041300040835183628373833897C082D182E28245
:10414000F382349610821182128213827896318221
:1041500020823297A4E1B0E0B183A0833696A1E03B
:10416000B0E0B183A0833C9780829182A282B38227
:104170003A9671826082B09751824082B8961082DE
:104180001182128213823496108231961082B59673
:10419000A5E0B0E0B183A0837297108211821282F1
:1041A00013823497008311832283338334974083AF
:1041B0005183628373833897C12CD12CBFE7EB2ED8
:1041C000B3E4FB2EC082D182E282F3823496108265
:1041D0001182128213827896318220823297A4E172
:1041E000B0E0B183A0833696A2E0B0E0B183A083B3
:1041F0003C9780829182A282B3823A9671826082D9
:10420000B09751824082B896108211821282138236
:104210003496B1E0B08331961082DC01A553BE4FD5
:10422000E3E0F0E01196FC93EE9352971D921D92FD
:104230001D921C92139714970D931D932D933C93ED
:10424000139714974D935D936D937C9313971897E1
:10425000CD92DD92ED92FC92139714961D921D92D1
:104260001D921C921397589611963C922E9212977B
:1042700004E110E011961C930E931696ED93FC93B7
:10428000FC01E354FE4F80829182A282B3823A966F
:1042900071826082B09751824082B89610821182FA
:1042A00012821382349611E0108331961082319677
:1042B00046EC54E464E17AE3408351836283738380
:1042C000349649EA54EA66EC7FE340835183628383
:1042D0007383349640E050E06CE873E4408351838C
:1042E00062837383349642E050E060E070E0408384
:1042F0005183628373830F900F90DF91CF911F9151
:104300000F91FF90EF90DF90CF90BF90AF909F9074
:104310008F907F906F905F904F903F902F90089577
:104320000F931F93CF93DF93EC0168E079E185E869
:104330009EE00E947849C853DF4F81E0888360E0A7
:1043400070E049918B010F5F1F4F8BEB9DE00E9446
:10435000A23F0D3181E0180711F0B801F2CFDF91D3
:10436000CF911F910F9108950F931F93CF93DF93D8
:104370008C0108531F4FC0E0D0E0BE018BEB9DE0E5
:104380000E949F3FF80181938F012196CD31F1E08A
:10439000DF0799F7DF91CF911F910F910895EF9269
:1043A000FF920F931F93CF93DF93FC0140815181C4
:1043B00064E6649F9001659F300D1124B901635E2E
:1043C0007E4FEC017901FFE7EF1AFEEFFF0A4991FA
:1043D0008B010F5F1F4F8BEB9DE00E94A23F0E15DC
:1043E0001F0511F0B801F3CFDF91CF911F910F910D
:1043F000FF90EF900895EF92FF920F931F93CF934A
:10440000DF937C018B01C0E0D0E0BE016E0D7F1D0B
:104410008BEB9DE00E949F3FF80181938F012196D5
:10442000C436D10591F784E690E0DF91CF911F91DA
:104430000F91FF90EF90089544E6469F9001479FAB
:10444000300D1124BC01C901835E9E4FD4CF089565
:104450000F931F93CF93DF93EC018B01BC016C5939
:104460007F4F24E6249FC001259F900D1124835E79
:104470009E4FC1DFBE016A597F4FC801DF91CF91C6
:104480001F910F910C949D4FEF92FF920F931F93EA
:10449000CF93DF937C018C010B511E4FC0E0D0E025
:1044A000AE01B801C701D4DF21960C5E1F4FCA30A0
:1044B000D105B1F7DF91CF911F910F91FF90EF9050
:1044C0000895CF93DF93EC01DFDFCE01DF91CF9131
:1044D0004BCFFC01778366836130710581F01CF45A
:1044E000672B41F008956230710549F06330710522
:1044F00031F0089584E090E0918380830895718382
:10450000608308954F925F926F927F928F929F92F5
:10451000AF92BF92CF92DF92EF92FF920F931F93D1
:10452000CF93DF93CDB7DEB72E970FB6F894DEBFEB
:104530000FBECDBFFC01CB01BA01628373838483BC
:104540009583E080F18022E0E216F10409F083C057
:104550002EE0E0EDF2E0DE01119601900D922A9539
:10456000E1F79B01AC010E94394B2B013C01CE01CC
:1045700001967C015E019FE0A90EB11CF701C1907C
:10458000D1907F01B601882777FD8095982F0E94F2
:104590003C4C9B01AC01C301B2010E94434D9B0105
:1045A000AC0160E074E284E79BE40E94A14B20E050
:1045B00030E04FE753E40E949D4B87FD04C0EA14AE
:1045C000FB04E1F601C0860100341105E9F05CF45A
:1045D00008301105A9F000321105A1F001301105D4
:1045E000C9F481E018C00115F1E01F0779F0011549
:1045F00024E0120769F00038110561F485E00BC072
:1046000082E009C083E007C084E005C086E003C003
:1046100087E001C080E093E49093B00088608093CD
:10462000B100B801882777FD8095982F0E943C4CF7
:104630009B01AC01C301B2010E94434D9B01AC013F
:1046400060E074E284E79BE40E94A14B0E940E4C60
:104650006093B300D0C02AE0EEEDF2E0DE011196E7
:1046600001900D922A95E1F79B01AC010E94394B14
:104670002B013C01CE0101966C014E019BE0890E9D
:10468000911CF601A190B1906F01B501882777FDCB
:104690008095982F0E943C4C9B01AC01C301B20154
:1046A0000E94434D9B01AC0160E074E284E79BE40F
:1046B0000E94A14B20E03FEF4FE757E40E949D4B43
:1046C00087FD04C0C814D904E1F601C08501003497
:1046D0001105A1F03CF40130110571F0083011050D
:1046E000A9F010C00115F1E01F0751F0011524E0F9
:1046F000120741F485E00DC081E00BC083E009C0E2
:1047000084E007C017FD04C080E003C082E001C060
:1047100087E093E0E916F10459F1E4E0EE16F104C4
:1047200009F448C0EA94EF2809F065C093E4909337
:104730008000886180938100B801882777FD80958B
:10474000982F0E943C4C9B01AC01C301B2010E9416
:10475000434D9B01AC0160E074E284E79BE40E945E
:10476000A14B0E94094C709389006093880043C05C
:1047700093E490939000886180939100B80188271A
:1047800077FD8095982F0E943C4C9B01AC01C301A2
:10479000B2010E94434D9B01AC0160E074E284E7EA
:1047A0009BE40E94A14B0E94094C70939900609376
:1047B000980021C093E49093A00088618093A100A9
:1047C000B801882777FD8095982F0E943C4C9B016B
:1047D000AC01C301B2010E94434D9B01AC0160E0FA
:1047E00074E284E79BE40E94A14B0E94094C709301
:1047F000A9006093A8002E960FB6F894DEBF0FBEF6
:10480000CDBFDF91CF911F910F91FF90EF90DF907F
:10481000CF90BF90AF909F908F907F906F905F9060
:104820004F9008954F925F926F927F928F929F92D6
:10483000AF92BF92CF92DF92EF92FF920F931F93AE
:10484000CF93DF934C01EB01A8A0B9A0CE8CDF8CF5
:10485000EC8CFD8C0A8D1B8D2E893F89488D598DDE
:104860006AA17BA10E94E63D34018EE2680E711CB4
:10487000AE84BF84C888D988EA84FB840C851D85F2
:104880009E01285D3F4F2401E9E64E0E511C1F9208
:104890001F928D898F938C898F938B898F938A89AF
:1048A0008F93A201B401C3010E940138F401E959B8
:1048B000FF4FD183C083369691828082688179814F
:1048C000C3010E94A636CA88DB88EC88FD880E8565
:1048D0001F85288939894A855B856C857D85C3015B
:1048E0000E94F3350A811B812C813D814E815F81BD
:1048F00068857985C3010E94F43660E070E0C301E9
:104900000E94B037F20110821182128213827E015E
:10491000F4E2EF0EF11C840101591F4FF801F182FE
:10492000E082CE018D963696918380830F900F9012
:104930000F900F900F900F90009741F034970797CA
:104940009183808361E08EA10E945346F801F18239
:10495000E08261E08CA10E945346F401ED58FF4FC4
:10496000CE018C969183808334968A97918380833D
:1049700032962696D183C083DF91CF911F910F91FC
:10498000FF90EF90DF90CF90BF90AF909F908F906F
:104990007F906F905F904F9008954F925F926F92CB
:1049A0007F928F929F92AF92BF92CF92DF92EF92BF
:1049B000FF920F931F93CF93DF93EC010E94564415
:1049C0008E0105581F4FD8016D937D938D939C9355
:1049D0001397CE010E942B3FF801408151816281E3
:1049E00073815E01F7E6AF0EB11CD501ED91FC912C
:1049F00080819181AA2797FDA095BA2F7E01E3E8D7
:104A0000EE0EF11CF7014080518062807380840DAE
:104A1000951DA61DB71D9E012D583F4F69014817D2
:104A200059076A077B0708F4FEC0408351836283FD
:104A300073837697D183C083CE018E960E94D33440
:104A4000D601ED91FC918081FE01E759FF4F4F01A6
:104A5000811137C040805180628073804E01FFE732
:104A60008F0E911CD501ED91FC9160817181882799
:104A700077FD8095982F0E943C4CA30192010E94E3
:104A8000434D20E030E048EC52E40E94A14B0E94EC
:104A90000E4CF401608371838283938320E030E0C5
:104AA00040E85FE3C301B2010E943F4D18160CF0CD
:104AB000BAC0FE01E159FF4F0190F081E02D61E0A5
:104AC0002DC0FE01EB58FF4F0190F081E02D808159
:104AD000882309F498C0D4014D905D906D907C902E
:104AE00020E030E040E85FE3C301B2010E943F4DA7
:104AF00087FD18C0C301B2010E94094CFE01E159B3
:104B0000FF4F0190F081E02D80810E943B45FE0126
:104B1000EF58FF4F0190F081E02D60E080810E940E
:104B20008C4681C020E030E040E85FEBC301B20179
:104B30000E949D4B1816C4F13E01B7E86B0E711C24
:104B4000F30180819E012F583F4F5901882381F046
:104B5000D901ED91FC9162E370E080810E943B45B8
:104B6000F301108264E670E080E090E00E948544EA
:104B7000FE01E159FF4F0190F081E02D60E070E00F
:104B800080810E943B45D4012D913D914D915C91D6
:104B900060E070E080E291E40E94384B0E94094C92
:104BA000D501ED91FC913CC020E030E040E85FE3AE
:104BB000C301B2010E949D4B87FF35C020E030E069
:104BC00040E85FEBC301B2010E943F4D18165CF54F
:104BD000FE01E159FF4F0190F081E02D60E070E0AF
:104BE00080810E943B45FE01EF58FF4F0190F0810C
:104BF000E02D60E080810E948C4681E0FE01E95753
:104C0000FF4F808310C0F4016081718182819381A4
:104C10000E94094CFE01E159FF4F0190F081E02D07
:104C200080810E943B45D601ED91FC9180818111EC
:104C30003CC06E01BFE6CB0ED11CD601ED91FC91BC
:104C400080810E94C146892B81F1C158DF4F888144
:104C50009981AA81BB81F701408151816281738171
:104C6000840F951FA61FB71FF801408151816281F3
:104C70007381481759076A077B07B8F0D601ED9191
:104C8000FC9160E08081DF91CF911F910F91FF90A7
:104C9000EF90DF90CF90BF90AF909F908F907F90DC
:104CA0006F905F904F900C948C46DF91CF911F9145
:104CB0000F91FF90EF90DF90CF90BF90AF909F90BB
:104CC0008F907F906F905F904F900895AF92BF92BA
:104CD000CF92DF92EF92FF920F931F93CF93DF93C8
:104CE000EC015A016B018C01025D1F4FC8010E944B
:104CF0006C38019729F460E070E0C8010E94B03779
:104D0000FE01E758FF4F0190F081E02DE080F18037
:104D1000028113819701A801B501C6010E949D4B34
:104D200087FD02C075018601FE01E958FF4F019021
:104D3000F081E02DA080B180C280D3809501A601D2
:104D4000B701C8010E943F4D181614F057016801C1
:104D5000C759DF4FC501D60188839983AA83BB83D6
:104D6000DF91CF911F910F91FF90EF90DF90CF9047
:104D7000BF90AF900895CF93DF93EC0160E070E0B7
:104D80008E960E94B037FE01E759FF4F10821182C4
:104D90001282138236960190F081E02D60E08081CE
:104DA0000E948C46FE01EB58FF4F80819181892B38
:104DB00051F0CF58DF4FE881F98160E08081DF91C9
:104DC000CF910C948C46DF91CF9108958E960C94E0
:104DD000B037FC0160817181828193810895FC016B
:104DE00010821482138215820895862F642F0C94EA
:104DF0005346862F642F0C948C46862F0C94C14604
:104E00004F925F926F927F928F929F92AF92BF92DA
:104E1000CF92DF92EF920F93CF93DF93EC014B0190
:104E20003A0159010296DBDF83EA94E09983888393
:104E30006E018CE1C80ED11C26018CE3480E511C7A
:104E4000C601CDDF86E0C80ED11CC414D504C1F75D
:104E5000FE01EE59FF4F718260823296B182A082CC
:104E6000329600833196E08237979182808238961D
:104E70008AE090E091838083329684EF91E0918381
:104E80008083329611821082C45ADF4F18821982B1
:104E90001A821B82DF91CF910F91EF90DF90CF901C
:104EA000BF90AF909F908F907F906F905F904F904A
:104EB00008952F923F924F925F926F927F928F92BE
:104EC0009F92AF92BF92CF92DF92EF92FF920F9399
:104ED0001F93CF93DF93CDB7DEB728970FB6F89423
:104EE000DEBF0FBECDBF98878F83F12C4C0186E6C5
:104EF000880E911C0F8118850E591F4FD4018C917B
:104F0000F816A0F4AF81B8858D919C91F801A0812D
:104F1000B181AF0DB11DFC012081318142E06C9166
:104F20008F819885F9011995F394E8CF512CEF8181
:104F3000F885E959FF4FFA83E9830F8118850C59E9
:104F40001F4FC12CD12C7601C3948F8198858E5927
:104F50009F4F9C838B83A981BA818C91581608F04E
:104F600088C0A52CB12CAF81B8858D919C91F8019A
:104F7000A081B181AA0DBB1DFC012081318141E0DE
:104F80006C918F819885F9011995AF81B8858D91C4
:104F90009C91F801A081B181AA0DBB1DFC01228169
:104FA000338140E06C918F819885F9011995D70183
:104FB000C601052C04C0880F991FAA1FBB1F0A94A5
:104FC000D2F79C011C0120943094412CD4018C9187
:104FD000EF81F88540815181481648F5642C712C89
:104FE000EB81FC81A081B181A60DB71DFA0144813E
:104FF00055816C918F8198852D833E83FA01199597
:10500000660C771C2D813E81EF81F885E60DF71D3A
:10501000892B29F480859185822B932B04C0808570
:10502000918582219321918780874394CFCFF80186
:10503000A081B181AA0DBB1DFA012281338141E01B
:105040006C918F819885F9011995AF81B8858D9103
:105050009C91F801A081B181AA0DBB1DFC012081AA
:10506000318140E06C918F819885F90119955394B5
:1050700072CF28960FB6F894DEBF0FBECDBFDF917A
:10508000CF911F910F91FF90EF90DF90CF90BF9045
:10509000AF909F908F907F906F905F904F903F90D8
:1050A0002F900895FC0180E090E0258D368D261725
:1050B000370739F0019636968A309105B1F78FEFB0
:1050C0009FEF0895FC0126E0629FE00DF11D112481
:1050D00050A3478F21E021A3FC01E459FF4F019029
:1050E000F081E02D309721F0DC015C968C911994D1
:1050F0000895CF92DF92FF920F931F93CF93DF9388
:105100001F92CDB7DEB76C01F62EFC0186E0689FDA
:10511000E00DF11D112411A2878D90A18130910520
:10512000E9F01CF4892B51F044C08230910591F1D3
:10513000039709F03EC040E050E030C04423C9F17D
:1051400041E050E0C601BEDF0E945644F601E85A35
:10515000FF4F60837183828393832BC049830E94B6
:105160005644F601E85AFF4F0081118122813381B4
:10517000601B710B820B930B72960081118120E0F2
:1051800030E04981061717072807390718F442E06D
:1051900050E004C041110DC043E050E06F2DC60146
:1051A0000F90DF91CF911F910F91FF90DF90CF90E3
:1051B00089CF0F90DF91CF911F910F91FF90DF90DA
:1051C000CF9008952F923F924F925F926F927F926D
:1051D0008F929F92AF92BF92CF92DF92EF92FF9207
:1051E0000F931F93CF93DF931F92CDB7DEB71C01B0
:1051F000FC014AE08FEF9FEF278D30A1232B21F494
:10520000148E968F858F11A2415036964111F4CF9E
:10521000712C610126E6C20ED11C510187E6A80E51
:10522000B11C4101A0E68A0E911C46E0442ED60135
:105230008C91781608F053C0612C8101070D111D67
:10524000070D111D085F1F4FF501E0806E1408F077
:1052500044C0F80140815181062C02C05695479503
:105260000A94E2F741707E9C70011124E60CF11C57
:10527000D401ED91FC91EE0DFF1D5080B701C101ED
:10528000498310DF498197FD02C0682F1BC001963A
:1052900011F5442301F180E090E060E070E0F1015D
:1052A000E80FF91F248D211110C0469EF001479E82
:1052B000F00D1124E20DF31D548EF68EE58E10A232
:1052C000178E41E0C10115DF06C06F5F7F4F069664
:1052D0006A30710521F76394B7CF7394A8CF20E0AB
:1052E00030E080E0F101E20FF31F91A1911181E024
:1052F0002A5F3F4F2C333105A9F70F90DF91CF91F3
:105300001F910F91FF90EF90DF90CF90BF90AF90E3
:105310009F908F907F906F905F904F903F902F90D5
:105320000895CF92DF92EF92FF920F931F93CF9346
:10533000DF938C010E945644E801C45ADF4FC880B5
:10534000D980EA80FB806C197D098E099F09F801DC
:10535000E859FF4FC080D180E12CF12CC616D7064A
:10536000E806F90660F4C801A4DDC8012BDF182F98
:105370000E945644688379838A839B8301C010E02E
:10538000812FDF91CF911F910F91FF90EF90DF90D0
:10539000CF900895CF93DF93EC01C3DF882339F0DA
:1053A00089A1882321F08F8D98A1019711F080E0C9
:1053B00001C08C8DDF91CF9108950F931F93FC0155
:1053C000DC01A05ABF4F1C925183408375836483D4
:1053D000358F248F178F068F158A148A81E090E00D
:1053E00097838683978B868B978786879387828719
:1053F0001F910F910895FC01CB010196208131810D
:10540000821793071CF08FEF9FEF0895A481B58159
:105410002EE0269FA001279F500D11249D01240FEF
:10542000351F2E5F3F4FF90165917491FD01E40F27
:10543000F51F7096259134916217730721F708952F
:1054400016161706E4F4FC01448155818EE0869F10
:105450009001879F300D1124CA01820F931F02967D
:10546000FC01A591B491FA01E20FF31F3C978591DD
:105470009491A817B90719F4CB01019708958FEFFC
:105480009FEF08954EE0469F9001479F300D1124F5
:10549000DC011496ED91FC911597E20FF31F329603
:1054A0008591949108954EE0469F9001479F300D5D
:1054B0001124DC011496ED91FC911597E20FF31F76
:1054C0003496859194910895CF93DF93EB016EE02C
:1054D000649F9001659F300D1124DC011496ED91BD
:1054E000FC911597E20FF31F65917491CE010E9414
:1054F000964FCE01DF91CF910895CF93DF93EC01CA
:105500006C857D857D8B6C8B888999896817790777
:1055100019F4CE01C8DF02C0CE016DDF9F8B8E8BE8
:105520006E897F89CE0167DF998F888FBC01CE019C
:1055300062DF9B8F8A8FDF91CF9108954EE0469F67
:105540009001479F300D1124DC011496ED91FC91E0
:105550001597E20FF31F3A968591949108954EE0C6
:10556000469F9001479F300D1124DC011496ED9168
:10557000FC911597E20FF31F389685919491089549
:105580004EE0469F9001479F300D1124DC01149698
:10559000ED91FC911597E20FF31F3696859194914A
:1055A00008950F931F93CF93DF938C01FC016285C5
:1055B0007385C4DF86309105E9F0A4F4049709F0FF
:1055C0006CC0F80162857385C801DADFEC01F8016F
:1055D00062857385C801D4DFFC01808191E0892751
:1055E00088835BC08A30910509F43DC00C9709F4AB
:1055F0003AC053C0F80162857385C801C1DFFC0160
:1056000080819181F801628573850B9784F4C801CC
:10561000B7DFEC01F80162857385C801B1DFFC01D9
:10562000208131812F5F3F4F3983288336C0C801E5
:10563000A7DFEC01F80162857385C801A1DFFC01D9
:1056400060817181882777FD8095982F0E943C4C5E
:105650002DEC3CEC4CE85FE30E94434D0E94094C6A
:10566000798368831AC0F80162857385C80188DF71
:10567000EC01F80162857385C80182DF2DEC3CECFA
:105680004CE85FE3FC0160817181828193810E941B
:10569000434D688379838A839B83DF91CF911F91E8
:1056A0000F9108950F931F93CF93DF938C01FC010B
:1056B0006285738543DF86309105E9F0A4F4049791
:1056C00009F06CC0F80162857385C80159DFEC01EF
:1056D000F80162857385C80153DFFC01808191E088
:1056E000892788835BC08A30910509F43DC00C97F7
:1056F00009F43AC053C0F80162857385C80140DFE0
:10570000FC0180819181F801628573850B9784F497
:10571000C80136DFEC01F80162857385C80130DF0E
:10572000FC0120813181215031093983288336C021
:10573000C80126DFEC01F80162857385C80120DF0E
:10574000FC0160817181882777FD8095982F0E94E8
:105750003C4C2DEC3CEC4CE85FE30E94A14B0E94DA
:10576000094C798368831AC0F80162857385C80182
:1057700007DFEC01F80162857385C80101DF2DECBC
:105780003CEC4CE85FE3FC01608171818281938194
:105790000E94A14B688379838A839B83DF91CF9199
:1057A0001F910F910895EF92FF920F931F93CF9344
:1057B000DF93EC018B017A01C1DE8830910509F499
:1057C00050C0A4F484309105C1F1069709F073C06C
:1057D000B801CE01D5DEEC01F701608171818281D3
:1057E00093810E94094C7983688365C08C30910550
:1057F00009F447C08E30910509F451C00A9709F0A9
:105800005AC0B801CE01BCDEF701408151816281EE
:105810007381FC014083518362837383B801CE019D
:10582000AFDEFC01408151816281738122E030E072
:1058300085E89EE00E94274B24C0B801CE01A0DE7F
:10584000EC0111E020E030E0A901F70160817181F5
:10585000828193810E949D4B811101C010E01883C9
:105860002AC0B801CE018CDEEC01F70160817181A4
:10587000828193810E940E4C688379838A839B8303
:105880001AC0B801CE017CDEF701408151816281EE
:105890007381FC0140835183628373830CC0B80120
:1058A000CE016EDEB701DF91CF911F910F91FF9076
:1058B000EF900C949D4FDF91CF911F910F91FF902E
:1058C000EF9008952F923F924F925F926F927F9246
:1058D0008F929F92AF92BF92CF92DF92EF92FF9200
:1058E0000F931F93CF93DF93CDB7DEB7A8970FB673
:1058F000F894DEBF0FBECDBF8C015B011FDE0197A8
:105900008F30910508F03EC08E589F4FFC010C94DB
:10591000364FB501C80134DEDC016C9170E080E0E7
:1059200090E017C0B501C8012BDEFC0160817181D8
:10593000882777FD8095982F0E943C4C6B017C0155
:1059400021C0B501C8011CDEDC016D917D918D91F6
:105950009C910E943A4CF2CFB501C80111DEFC01C6
:10596000C080D180E280F3800DC0B501C80108DE9F
:10597000FC01DC010D900020E9F7CD0101978E1BA1
:105980009F0B58C084E2E8EEF2E0DE011196019030
:105990000D928A95E1F720E030E0A901C701B60138
:1059A0000E943F4D26013701181624F077FA7094B3
:1059B00077F870941E01B5E02B0E311C8824839477
:1059C000912CF10121913191419151911F01C3011C
:1059D000B2012DA33EA34FA358A70E940E4C2DA1A8
:1059E0003EA14FA158A50E94144F232B242B252BF9
:1059F00039F0FFEF8F1A9F0A89E08816910409F7A2
:105A000020E030E0A901C701B6010E949D4B87FF4D
:105A100003C0AFEF8A1A9A0AB501C801A0DD1816B3
:105A200019063CF4B501C8019ADD880D991D01964F
:105A300001C0C401A8960FB6F894DEBF0FBECDBF5B
:105A4000DF91CF911F910F91FF90EF90DF90CF905A
:105A5000BF90AF909F908F907F906F905F904F908E
:105A60003F902F9008952F923F924F925F926F92A6
:105A70007F928F929F92AF92BF92CF92DF92EF92DE
:105A8000FF920F931F93CF93DF93CDB7DEB7AA9703
:105A90000FB6F894DEBF0FBECDBF8C016B017A014B
:105AA000BA014CDD01978F30910508F09AC18F57EC
:105AB0009F4FFC010C94364FB701C80161DDFC011A
:105AC0008081882311F081E301C080E3F6018083A7
:105AD00088C1B701C80154DD4AE050E0B601FC01BD
