:100000000C940A0E0C943B0E0C943B0E0C943B0E7D
:100010000C943B0E0C943B0E0C943B0E0C943B0E3C
:100020000C943B0E0C943B0E0C943B0E0C943B0E2C
:100030000C943B0E0C943B0E0C943B0E0C943B0E1C
:100040000C943B0E0C943B0E0C943B0E0C943B0E0C
:100050000C943B0E0C943B0E0C943B0E0C945144B0
:100060000C943B0E0C949D480C94D3480C943B0E7E
:100070000C943B0E0C943B0E0C943B0E0C943B0EDC
:100080000C943B0E0C943B0E0C943B0E0C943B0ECC
:100090000C943B0E0C943B0E0C943B0E0C9423439F
:1000A0000C943B0E0C943B0E0C943B0E0C943B0EAC
:1000B0000C943B0E0C943B0E0C943B0E0C943B0E9C
:1000C0000C943B0E0C943B0E0C943B0E0C943B0E8C
:1000D0000C943B0E0C943B0E0C943B0E0C943B0E7C
:1000E0000C943B0E1C2D292D292DF02CF02CF92CD5
:1000F000F92C082D082D132D132D132D132D1C2D28
:100100001C2D512F582F582FC32DC32DD02DD02D3E
:10011000DA2DDA2D4C2E4C2E4C2E4C2E512F512FE9
:100120005D3362335D3362335D3362335D3362333B
:100130005D3362335D3362336033A445A945AE4518
:10014000B845C2453B46CC45D445DC45E645F0457F
:10015000FA45094613463B461D46274631465D464D
:1001600060464F46534659469746644668466E4633
:10017000724676467C468046844697468A468E4638
:10018000924607634236B79BD8A71A39685618AE0D
:10019000BAAB558C1D3CB7CC5763BD6DEDFD753EBC
:1001A000F6177231BF000000803F08000000BE92C9
:1001B0002449123EABAAAA2ABECDCCCC4C3E0000AC
:1001C0000080BEABAAAAAA3E00000000BF0000004B
:1001D000803F0000000000084178D3BB4387D11363
:1001E0003D190E3CC3BD4282AD2B3E68EC8276BE0B
:1001F000D98FE1A93E4C80EFFFBE01C4FF7F3F00D5
:10020000000000004229204E6F00412920596573EB
:1002100000536176652053657474696E67733F009F
:10022000696E207468652073706F6F6C6572206DE5
:10023000656E75007468652073706F6F6C2044691B
:100240006D656E73696F6E7300446F6E2774206600
:100250006F7267657420746F207365742000422983
:1002600020457869740041292053746F70007072C2
:100270006573732053746F70206174203120726530
:10028000762E004229204578697400412920426574
:1002900067696E0070726573732053746F702061AC
:1002A000742031207265762E00506C616365207277
:1002B0006F6C6C6572206F6E204469736B00526FB7
:1002C0006C6C65722F4469736B2054657374006D98
:1002D0006963726F737465702073657474696E6797
:1002E000730074686520776972696E6720616E6457
:1002F000006D616B652031207265762C2063686526
:10030000636B0049662073706F6F6C65722064695F
:10031000646E277400526F746174696E67203120B7
:100320007265762E2E2E0042292045786974004190
:100330002920426567696E00417474656D70746947
:100340006E67203120726576004D61726B20746893
:100350006520526F6C6C65722E20004D6963726F60
:1003600073746570696E6720546573740044292046
:1003700045786974004229204E6F00412920596553
:10038000730073706F6F6C657220646972204F4BDD
:100390003F004229204E6F004129205965730043D8
:1003A0006F6E74696E75653F0073706F6F6C657208
:1003B00020446972656374696F6E2E2E2E00442985
:1003C0002045584954004329205768656E204469E8
:1003D0007361626C656400412920456E61626C65E1
:1003E0002F44697361626C65004229204E6F0041A1
:1003F000292059657300436F6E74696E75653F00FF
:10040000666F6C6C6F77696E672074657374732E9A
:1004100000746F20706572666F726D20746865007D
:100420006D757374206265206672656520746F2037
:100430006D6F7665005741524E494E473A205468D9
:10044000652053706F6F6C6572004C6F6164207330
:10045000616D706C65207468656E20706F72657375
:1004600073202744272E205072657373202743275B
:10047000207768656E20446F6E652E00537465703A
:1004800020333A204C6F61642073616D706C65732A
:100490002077697468206B6E6F776E204469616D98
:1004A000657465722E204D696E696D756D206F667D
:1004B00020332E205468656E205265636F7264206D
:1004C0004469616D657465722E005468656E2050D4
:1004D00072657373203C656E7465723E005374657B
:1004E00070323A2041646A757374207468652073B1
:1004F000656E736F7220756E74696C206974206903
:1005000073206265747765656E2034353020616EC6
:1005100064203535302E005374657020323A204106
:10052000646A757374207468650053746570203153
:100530003A204C6F61642066696C616D656E742051
:100540007769746820746172676574206469616D8D
:10055000657465722E005072657373203C656E740D
:1005600065723E00776974682074617267657420F3
:100570004469616D65746572005374657020313A29
:100580004C6F61642066696C616D656E74004361D7
:100590006C697065722043616C6962726174696F25
:1005A0006E0043616C697065722043616C696272B0
:1005B0006174696F6E004229204E6F0041292059F5
:1005C000657300536176652053657474696E677353
:1005D0003F006D6963726F73746570207365747426
:1005E000696E67730074686520776972696E672049
:1005F000616E64006D616B652031207265762C2020
:10060000636865636B00496620746865206175677F
:100610006572206469646E277400526F7461746936
:100620006E672031207265762E2E2E0042292045DD
:1006300078697400412920426567696E00417474CD
:10064000656D7074696E67203120726576004D614A
:10065000726B207468652073686166742E20004D8B
:100660006963726F73746570696E67205465737423
:100670000044292045786974004229204E6F0041CA
:100680002920596573004175676572206469726538
:100690006374696F6E204F4B3F004229204E6F00FC
:1006A00041292059657300436F6E74696E75653F0B
:1006B00000417567657220446972656374696F6E85
:1006C0002054657374004429204558495400432937
:1006D000205768656E2044697361626C65640041EF
:1006E0002920456E61626C652F44697361626C6597
:1006F000004229204E6F0041292059657300436F45
:100700006E74696E75653F00666F6C6C6F77696EAD
:10071000672074657374732E00746F207065726641
:100720006F726D20746865006D757374206265204A
:100730006672656520746F206D6F76650057415253
:100740004E494E473A2054686520417567657200EE
:100750004229204E6F004129205965730053746F60
:100760007020457874727564696E673F00526573D6
:10077000657474696E6720454550524F4D2E2E2E7C
:1007800000526573657474696E67207468652045EE
:100790004550524F4D2E2E2E004229204E6F0041C3
:1007A000292059657300576F756C6420796F752027
:1007B0006C696B6520746F2070726F636565643F50
:1007C000007468652064656661756C742073657477
:1007D00074696E67730073746F7265642070726FF2
:1007E00066696C657320776974680077696C6C2042
:1007F0006F766572777269746520616C6C20005742
:1008000041524E494E473A205468697320616374DF
:10081000696F6E005741524E494E473A20546869FD
:100820007320616374696F6E2077696C6C206F76DA
:100830006572776972746520616C6C2073746F7275
:1008400065642070726F66696C657320776974687F
:10085000207468652064656661756C7420536574E6
:1008600074696E67732E0050726F66696C652053F1
:100870006176656400536176696E672070726F6699
:10088000696C652E2E2E00536176696E6720536564
:100890007474696E677320666F722070726F666918
:1008A0006C65206E756D6265723A2000436F6E66EE
:1008B000696775726174696F6E2053617665640053
:1008C000536176696E672E2E2E0046696E697368D5
:1008D000656420536F616B696E670054696D6528AC
:1008E00073292C20446961286D6D292C206F757443
:1008F0006665656452504D2C20737461727665464E
:10090000656564657252504D2C2020617567657273
:1009100052504D2C204D6F64652C206F75746665A8
:1009200065644B702C206F7574666565644B692C2B
:10093000206F7574666565644B642C20666565641C
:1009400052617465286D2F6D696E292C206D657458
:100950006572734578747275646564003A14FFFFBC
:100960000100000000000000DC1631140000FFFF51
:10097000330200000F00000096180000FFFF440A39
:1009800002000A00901122140000FFFF040A000078
:10099000070000006E160000FFFF1E0A01000D0098
:1009A000000062160000FFFF1A0A01000D0000009F
:1009B00056160000FFFF160A01000D000000451842
:1009C0000000FFFF6A0A00000C000000351800005C
:1009D000FFFF6E0A00000C00000025180000FFFF5A
:1009E000720A00000C0000008C180000FFFF480A8B
:1009F00001000A00FD0E80180000FFFF4C0A0100F4
:100A00000C00090F49140000FFFF370200000F001F
:100A10005E11BC170000FFFF2B0200000F00041343
:100A2000BB180000FFFF240A00000E000000B218EF
:100A30000000FFFF380A02000C000000A0180000B0
:100A4000FFFF400A02000A00000075180000FFFFC7
:100A5000540A02000C009C116A180000FFFF500AA3
:100A600002000C009C115F180000FFFF580A0200F2
:100A70000C009C1155180000FFFF660A00000C00D6
:100A800000007F14FFFF0100000000000000DF16DF
:100A900070140000FFFF0C0A00000F00000060143B
:100AA0000000FFFF000000000300A80E5714000024
:100AB000FFFF000000000300690E49140000FFFF63
:100AC000370200000F005E116E160000FFFF1E0AC5
:100AD00001000D00000062160000FFFF1A0A01006D
:100AE0000D00000056160000FFFF160A01000D0061
:100AF000000045180000FFFF6A0A00000C0000001B
:100B000035180000FFFF6E0A00000C0000002518D9
:100B10000000FFFF720A00000C000000BB1800007C
:100B2000FFFF240A00000E000000B2180000FFFFC3
:100B3000380A02000C000000A0180000FFFF400A65
:100B400002000A00000096180000FFFF440A02009D
:100B50000A009011BC170000FFFF2B0200000F00DD
:100B600004138C180000FFFF480A01000A00FD0E64
:100B700080180000FFFF4C0A01000C00090F7518D7
:100B80000000FFFF540A02000C009C116A180000CC
:100B9000FFFF500A02000C009C115F180000FFFFCD
:100BA000580A02000C009C1155180000FFFF660A4D
:100BB00000000C000000D114FFFF01000000000045
:100BC0000000DE16C2140000FFFF060A00000F003E
:100BD00000006E160000FFFF1E0A01000D0000005D
:100BE00062160000FFFF1A0A01000D0000005616F1
:100BF0000000FFFF160A01000D000000451800006C
:100C0000FFFF6A0A00000C00000035180000FFFF1B
:100C10006E0A00000C00000025180000FFFF720A99
:100C200000000C000000AF140000FFFF00000000F7
:100C300003003F0E9C140000FFFF000000000300B3
:100C4000540E92140000FFFF0000000003009A0EF3
:100C5000CE170000FFFF0000000003008411C91739
:100C60000000FFFF0000000003008C11BC17000013
:100C7000FFFF2B0200000F000413BB180000FFFF52
:100C8000240A00000E000000B2180000FFFF380A1E
:100C900002000C000000A0180000FFFF400A020044
:100CA0000A00000096180000FFFF440A02000A0034
:100CB00000008C180000FFFF480A01000A00000035
:100CC00080180000FFFF4C0A01000C00000075189E
:100CD0000000FFFF540A02000C0000006A18000028
:100CE000FFFF500A02000C0000005F180000FFFF29
:100CF000580A02000C00000055180000FFFF660AA9
:100D000000000C000000EB14FFFF010000000000D9
:100D10000000DD166E160000FFFF1E0A01000D0028
:100D2000000062160000FFFF1A0A01000D0000001B
:100D300056160000FFFF160A01000D0000004518BE
:100D40000000FFFF6A0A00000C00000035180000D8
:100D5000FFFF6E0A00000C00000025180000FFFFD6
:100D6000720A00000C000000DE140000FFFF00000B
:100D7000000003008C0EBB180000FFFF240A0000D7
:100D80000E000000B2180000FFFF380A02000C003D
:100D90000000A0180000FFFF400A02000A00000047
:100DA00096180000FFFF440A02000A000000BC176A
:100DB0000000FFFF2B0200000F0004138C1800003E
:100DC000FFFF480A01000A00000080180000FFFF32
:100DD0004C0A01000C00000075180000FFFF540AC7
:100DE00002000C0000006A180000FFFF500A020019
:100DF0000C0000005F180000FFFF580A02000C0002
:100E0000000055180000FFFF660A00000C000000FB
:100E10002719FFFF01000000000000000000181962
:100E20000000040000000000000000000E19000097
:100E30001E00000000000000000004190000640013
:100E40000000000000000000011901000F00C80BA5
:100E5000000001009110FE1801000F00DC0B0000E3
:100E600001009710FB1801000F00F00B00000100BB
:100E70009D10F81801000F00040C00000100A310E1
:100E8000F51801000F00180C00000100A910F2185D
:100E900001000F002C0C00000100AF10EF18010042
:100EA0000F00400C00000100B510EC1801000F000D
:100EB000540C00000100BB10E91801000F00680C81
:100EC00000000100C110E51801000F007C0C0000BB
:100ED0000100C710D51801000F000000000000003D
:100EE000CD10CD180400FFFF0000000000007E0EB2
:100EF000C0180400FFFF000000000000D110BB1864
:100F00000400FFFF240A00000E000000B2180400D5
:100F1000FFFF380A02000C000000AA180400FFFFBF
:100F20003C0A02000C000000A0180400FFFF400A69
:100F300002000A00000096180400FFFF440A0200A5
:100F40000A0000008C180400FFFF480A01000A0094
:100F5000000080180400FFFF4C0A01000C00000094
:100F600075180400FFFF540A02000C0000006A1804
:100F70000400FFFF500A02000C0000005F1804008C
:100F8000FFFF580A02000C00000055180400FFFF84
:100F9000660A00000C00000045180400FFFF6A0A02
:100FA00000000C00000035180400FFFF6E0A00006E
:100FB0000C00000025180400FFFF720A00000C005E
:100FC000000012180200FFFF00000000030069107B
:100FD0000518020024000000000000000000FF17B8
:100FE00002003C000000000000000000F1170200B9
:100FF00042000000000000000000E917020053005A
:101000000000000000000000E11702005B0000008B
:10101000000000000000CE171F00FFFF00000000CE
:1010200003008411C9171F00FFFF00000000030028
:101030008C11BC171F00FFFF2B0200000F000413D0
:10104000B0171F00FFFF000000000300A011A11750
:101050001F00FFFF310200000600000097171F006D
:10106000FFFF000000000300AC118A171F00FFFF04
:101070002F0200000600000096181F00FFFF440A20
:1010800002000A00000085171F00FFFF000000009B
:101090000300051177171F00FFFFE40A0000060098
:1010A00080116D171F00FFFFE60A02000A00801181
:1010B0005F171F00FFFFEA0A0000060080115117AA
:1010C0001F00FFFFEC0A00000600801146171F00FA
:1010D000FFFFEE0A00000600801139171F00FFFF16
:1010E000F00A0000060080112B171F00FFFFF20A14
:1010F00000000600801121171F00FFFFF40A000006
:101100000400801117171F00FFFFF50A00000600FA
:10111000801105171F00FFFFF70A0000060080116D
:10112000F8161F00FFFFF90A000006008011EC16F8
:101130001F00FFFFFD0A000006008011E0161F00DF
:10114000FFFFFF0A000006008011D3161F00FFFFFB
:10115000010B000006008011C5161F00FFFF030BE6
:10116000000006008011BA162000FFFF00000000FA
:101170000300E016B2162000FFFF050B000006007A
:101180000000A8162000FFFF070B0000060000006B
:101190009E162000FFFF090B0000040000009716B8
:1011A0002000FFFF0A0B0000040000008B16200047
:1011B000FFFF0B0B02000A0000007A162100FFFF60
:1011C000120A000003000E116E162100FFFF1E0A16
:1011D00001000D00000062162100FFFF1A0A010045
:1011E0000D00000056162100FFFF160A01000D0039
:1011F000000045182100FFFF6A0A00000C000000F3
:1012000035182100FFFF6E0A00000C0000002518B1
:101210002100FFFF720A00000C00000049162100A7
:10122000FFFF370B0000060000003F162100FFFF04
:10123000390B00000C00000035162100FFFF3D0BAC
:1012400000000C0000002F162100FFFF410B0200E0
:101250000C00000029162100FFFF450B02000C00C6
:10126000000023162100FFFF490B02000C000000C4
:1012700016162100FFFF620B0000060000000C168E
:101280002100FFFF640B00000C000000021621008B
:10129000FFFF680B00000C000000FC152100FFFFA1
:1012A0006C0B02000C000000F6152100FFFF700B14
:1012B00002000C000000F0152100FFFF740B02007B
:1012C0000C000000E6152100FFFF8F0B00000C0052
:1012D0000000DC152100FFFF930B00000C00000054
:1012E000D6152100FFFF970B02000C000000D0155F
:1012F0002100FFFF9B0B02000C000000CA1521001B
:10130000FFFF9F0B02000C000000BD152200FFFF35
:10131000000000000300D11FB5152200FFFF0F0BD6
:10132000000006000000AB152200FFFF110B0000BB
:1013300006000000A1152200FFFF130B00000400AF
:1013400000009A152200FFFF140B000004000000AB
:101350008C152200FFFF150B02000A000000841507
:101360002200FFFF190B02000C0000007C15220078
:10137000FFFF1D0B02000C0000006F152300FFFF94
:10138000000000000300641967152300FFFF210B14
:101390000000060000005D152300FFFF230B000086
:1013A0000600000053152300FFFF250B000004007A
:1013B00000004C152300FFFF260B00000400000076
:1013C00040152300FFFF270B02000A000000341520
:1013D0002300FFFF2B0B02000A000000271523004B
:1013E000FFFF2F0B02000A00000019152300FFFF6A
:1013F000330B02000A000000BC170300FFFF2B02A2
:1014000000000F00041308150300FFFF0000FFFF9A
:1014100003003D0EFB140300FFFF0000000003006B
:10142000BC154772616D732045787472756465648C
:10143000004469616D657465720045787472756405
:10144000696E672E202E202E0053746172766520FF
:10145000466565646572004164642054696D650089
:1014600046696C616D656E74204C6F6164656400E3
:1014700054696D652052656D61696E696E67004CD7
:101480006F61642046696C616D656E742E202E203C
:101490002E00536B697020536F616B00446563725B
:1014A0006561736520536F616B2054696D650049F8
:1014B0006E63726561736520536F616B2054696D53
:1014C000650054696D652052656D61696E696E676E
:1014D00000536F616B696E672E202E202E00536BB8
:1014E0006970205072656865617400507265686546
:1014F0006174696E672E202E202E0052657365740C
:1015000020454550524F4D004D6561737572652001
:1015100046696C616D656E7400526F6C6C6572200B
:1015200052616469757300547261766572736520E7
:101530004C656E00436F726520526164697573007B
:101540004469736B2052616469757300456E616212
:101550006C6500446972656374696F6E00537465ED
:1015600070204D6F64650050696E2053657400549F
:101570006573742053706F6F6C6572004D696E20D7
:1015800052504D004D61782052504D00526F6C6C9E
:1015900065722052616469757300456E61626C65A5
:1015A00000446972656374696F6E005374657020DE
:1015B0004D6F64650050696E205365740054657307
:1015C00074204F757466656564005A33204B64005F
:1015D0005A33204B69005A33204B70005A33204D48
:1015E000696E204443005A33204D61782044430003
:1015F0005A32204B64005A32204B69005A32204B39
:1016000070005A32204D696E204443005A32204DFA
:101610006178204443005A322054696D652062612C
:101620007365005A31204B64005A31204B69005ACF
:1016300031204B70005A31204D696E204443005ACE
:1016400031204D6178204443005A312054696D6542
:101650002062617365005A6F6E6520322054656D9B
:1016600070005A6F6E6520322054656D70005A6F9D
:101670006E6520312054656D700041637469766138
:1016800074652048656174657273004765617220F6
:10169000526174696F6E00456E61626C65004469E9
:1016A00072656374696F6E0053746570204D6F646A
:1016B000650050696E205365740054657374204151
:1016C00075676572004465626F756E636520546965
:1016D0006D6500537461727475702054696D650096
:1016E0004D617846696C6C54696D65004D696E4654
:1016F000696C6C54696D65004D617844757479430B
:1017000079636C65005374617274757020447574EC
:10171000794379636C6500447574794379636C65CA
:1017200000446972656374696F6E004F766572205C
:10173000526F746174696F6E00486F6D696E6720D7
:1017400044656C617900537465702044656C6179FF
:101750000044756D7020506F736974696F6E004836
:101760006F6D6520506F736974696F6E004C756D95
:1017700070204D61737300536C6176652041646421
:10178000726573730053746F700054696D652074D3
:101790006F2073656E640053656E642054696D65D7
:1017A000004379636C657320746F2073656E640009
:1017B00053656E64204379636C65730046656564A8
:1017C00020506C61737469630044756D70005465DA
:1017D0007374205374617276652046656564657222
:1017E0000053706F6F6C6572004F75746665656449
:1017F0000048656174657220436F6E6669670041D9
:1018000075676572005374617276654665656465D7
:1018100072005361766520436F6E66696775726109
:1018200074696F6E005A6F6E6520332053657420A3
:1018300054656D70005A6F6E6520322053657420B8
:1018400054656D70005A6F6E6520312053657420A9
:1018500054656D7000536F616B2054696D65004F66
:10186000757466656564205064004F7574666565BF
:1018700064204B69004F757466656564204B700089
:101880004F7574666565642052504D0041756765FB
:10189000722052504D004772616D732F4D696E007A
:1018A000546F6C6572616E63650044656E73697434
:1018B00079004469616D65746572004E616D650003
:1018C000536176652050726F66696C650045787467
:1018D000727564650044656661756C742050726F42
:1018E00066696C65003130290039290038290037D4
:1018F00029003629003529003429003329003229EE
:1019000000312900417578696C6961727900436121
:101910006C6962726174650053656C656374205014
:10192000726F66696C65004D61696E204D656E75FC
:1019300000536176696E6720436F6E6669672E009B
:10194000F5031600F3031900F1031E00E903280054
:10195000E2033200D2033C00C2034600AD03500054
:1019600091035A006F03640048036E001603780069
:10197000E4028200AA028C00710296004302A000D9
:101980000102AA00CA01B4008B01BE005201C800C6
:101990002C01D2000901DC00EB00E600C800F000D9
:1019A000AC00FA009600040182000E0172001801DA
:1019B0006300220153002C0100000A0B02090C0DE8
:1019C0000E080703040100000000000000000000F2
:1019D0000000000000000000000000000000000007
:1019E00000000000121110000000000000000000C4
:1019F00000000000000000000000000000000102E4
:101A00001020200808102040102040800201020110
:101A100008040201010204081020408080402010C8
:101A20000804020180040201804020100804020121
:101A30000804020101020408102040800102040889
:101A40001020408005050505070508080808020262
:101A500002020A0A08080404040401010101010148
:101A600001010303030303030303040707070C0C2B
:101A70000C0C0C0C0C0C02020202060606060606F2
:101A800006060B0B0B0B0B0B0B0B000020002300AF
:101A9000260029002C002F00320000010000030165
:101AA0000601090100002200250028002B002E005D
:101AB0003100340002010000050108010B010000A3
:101AC0002100240027002A002D00300033000101EE
:101AD0000000040107010A014E414E494E49545984
:101AE000494E46CDCCCC3D0AD7233C17B7D13877E9
:101AF000CC2B329595E6241FB14F0A0000204100FF
:101B000000C84200401C4620BCBE4CCA1B0E5AAE48
:101B1000C59D7400407A10F35A00A0724E18090057
:101B200010A5D4E80000E87648170000E40B540242
:101B30000000CA9A3B000000E1F50500008096987D
:101B400000000040420F000000A0860100000010CD
:101B50002700000000E8030000000064000000000F
:101B6000000A00000000000100000000002C76D8F0
:101B700088DC674F0823DFC1DFAE59E1B1B796E5D6
:101B8000E3E453C63AE651997696E8E6C28426EB3A
:101B9000898C9B62ED407C6FFCEFBC9C9F40F2BA4D
:101BA000A56FA5F490055A2AF75C936B6CF9676DE5
:101BB000C11BFCE0E40D47FEF520E6B500D0ED903A
:101BC0002E0300943577050080841E080000204E07
:101BD0000A000000C80C333333330F986E128311A0
:101BE00041EF8D2114893BE65516CFFEE6DB18D177
:101BF000844B381BF77C1D901DA4BBE42420328449
:101C0000725E228100C9F124ECA1E53D2700191480
:101C10004442054911241FBECFEFD1E2DEBFCDBF44
:101C200000E00CBF14E0A0E0B2E0EEE8F8EA00E06B
:101C30000BBF02C007900D92A23DB107D9F72EE06D
:101C4000A2EDB4E001C01D92AB31B207E1F71CE197
:101C5000C4E1DCE100E006C022970109FE010BBFF0
:101C60000E94BA4FCE30D10780E00807A9F70E9442
:101C700049490C9445540C940000089508958091AE
:101C8000F6049091F704A091F804B091F904805AF9
:101C90009541AF4FBF4F8093F6049093F704A09304
:101CA000F804B093F90408958091F6049091F70434
:101CB000A091F804B091F90480569A4EA109B10997
:101CC0008093F6049093F704A093F804B093F9047A
:101CD00008958091EE049091EF04A091F004B091EA
:101CE000F104805A9541AF4FBF4F8093EE0490931B
:101CF000EF04A093F004B093F104089581E090E024
:101D00009093030A8093020A84E296E0909303057D
:101D1000809302050C94D03083E090E09093030A06
:101D20008093020A84EC95E090930305809302056A
:101D30000C94D03085E090E09093030A8093020ADF
:101D400084E695E090930305809302050C94D030CF
:101D500087E090E09093030A8093020A84E095E084
:101D600090930305809302050C94D030CF92DF92BC
:101D7000EF92FF9268E273E08CE79DE00E94CD490C
:101D80000E949B446093FA047093FB048093FC04CC
:101D90009093FD040E94A84C6B017C0120E030E090
:101DA00040E752E46091660A7091670A8091680A80
:101DB0009091690A0E94B14D20E030E04AE754E476
:101DC0000E94B14D9B01AC01C701B6010E94A74B17
:101DD0000E947C4C6093F6047093F7048093F8049F
:101DE0009093F90484E090E09093030A8093020AB0
:101DF000FF90EF90DF90CF9008954091480A509166
:101E0000490A60914A0A70914B0A8EEC97E00C9453
:101E10009F3C89E497E00E942C3440914C0A5091F9
:101E20004D0A60914E0A70914F0A89E497E00C9434
:101E30000634CF92DF92EF92FF92809100028823C6
:101E400081F120E030E0A9016091480A7091490ACF
:101E500080914A0A90914B0A0E94AD4D1816FCF4ED
:101E60008091E00481111BC084EE96E00E94BB3893
:101E70008EEC97E00E94DA3C81E08093E00481E000
:101E800090E09093DF048093DE040E949B44609373
:101E9000DA047093DB048093DC049093DD041092E9
:101EA00000028091E004882309F467C00E949B44EB
:101EB000C090DA04D090DB04E090DC04F090DD0404
:101EC0006C157D058E059F0508F457C08091DE04D2
:101ED0009091DF04803991400CF04FC080ED98E084
:101EE0000E940B2689E598E00E940B2682EE97E07F
:101EF0000E940B2620E030E048EC53E46091480A51
:101F00007091490A80914A0A90914B0A0E940F4CA5
:101F10006B017C016091DE047091DF04882777FDFE
:101F20008095982F0E94AA4C9B01AC01C701B60175
:101F30000E94B14DAB01BC018EEC97E00E949F3C2A
:101F40008091DE049091DF0401969093DF048093EA
:101F5000DE048091DA049091DB04A091DC04B0915E
:101F6000DD040596A11DB11D8093DA049093DB0476
:101F7000A093DC04B093DD0474C08091E004882356
:101F800041F08091DE049091DF04803991400CF49F
:101F900068C01092E00481E080930002C0904C0A77
:101FA000D0904D0AE0904E0AF0904F0A20E030E0C9
:101FB000A901C701B6010E94AD4D1816E4F4B7019E
:101FC000A60189E497E00E94063460E070E089E4AD
:101FD00097E00E94093489E497E00E942C3485E15F
:101FE00097E00E94973985E197E00E944A3A85E19F
:101FF00097E00E94C33A0E949B446B017C0160936E
:10200000F2047093F3048093F4049093F504209108
:10201000C40B3091C50B4091C60B5091C70BA0E685
:10202000BAEE0E94B04F6C0D7D1D8E1D9F1D6093FA
:10203000EE047093EF048093F0049093F10486E033
:1020400090E09093030A8093020A84E695E09093CF
:10205000030580930205FF90EF90DF90CF900C94E2
:10206000722FFF90EF90DF90CF9008950F931F9302
:102070008FE699E00E94E21F80ED98E00E940B2617
:1020800089E598E00E940B2682EE97E00E940B26DD
:1020900089E497E00E944C340E949B440091EE0436
:1020A0001091EF042091F0043091F1040053154792
:1020B00021093109061717072807390730F463E0AB
:1020C00070E08FE699E00E94DE1F1F910F910C9443
:1020D0009B448AEE99E00E94824060EC78E08AEEB0
:1020E00099E00E947D4964EF71E080E090E00E94F9
:1020F000CA4482E29AE00E94F0228AEE99E00E94AD
:1021000082406CEA78E08AEE99E00E947D4960EDB9
:1021100077E080E090E00E94CA4484E896E00C9466
:10212000722F60E070E082E29AE00C947A2361E022
:1021300070E082E29AE00C947A2362E070E082E23E
:102140009AE00C947A2363E070E082E29AE00C94C7
:102150007A2364E070E082E29AE00C947A2365E0EE
:1021600070E082E29AE00C947A2366E070E082E20A
:102170009AE00C947A2367E070E082E29AE00C9493
:102180007A2368E070E082E29AE00C947A2369E0B6
:1021900070E082E29AE00C947A2382E29AE00C9456
:1021A000812067E878E08CE79DE00E947D4960919E
:1021B000220A7091230A4AE050E08CE79DE00E94D9
:1021C000844A8AEE99E00E94824065E778E08AEED0
:1021D00099E00E947D4982E29AE00E942D2364EFFB
:1021E00071E080E090E00E94CA448AEE99E00E948B
:1021F000824067E678E08AEE99E00E947D4960EDD2
:1022000077E080E090E00C94CA4487E499E00E9473
:102210002B3C1092030A1092020A08958091130A2F
:102220008636C9F463E373E082E19AE00E940B50C2
:1022300061E070E080ED98E00E94472761E070E087
:1022400089E598E00E94472761E070E082EE97E020
:102250000E9447272DC066E373E082E19AE00E9466
:102260000B5060E070E080ED98E00E94472760E04E
:1022700070E089E598E00E94472760E070E082EE18
:1022800097E00E94472740E050E0BA0180ED98E0D7
:102290000E94E92640E050E0BA0189E598E00E94FA
:1022A000E92640E050E0BA0182EE97E00E94E9267C
:1022B00080910205909103050C94722F87E499E0B8
:1022C0000E94873C67E372E087E499E00E94D13A7C
:1022D0006FE473E08CE79DE00E94CD496AE373E010
:1022E0008CE79DE00E94A24967E372E08CE79DE0E5
:1022F0000E94CD496FE473E08CE79DE00C94CD49DA
:1023000087E499E00C94D63A87E499E00E94D63AA3
:1023100087E499E00C945A3B87E499E00C946D3B78
:102320004091440A5091450A6091460A7091470ACB
:1023300087E499E00C94803B89E497E00C940B349B
:1023400087E499E00E94D63A60913102709132029E
:1023500087E499E00C94AA3B87E499E00E94D63A7E
:10236000A0912F02B091300220E63AEE0E94AA4FCF
:10237000AB01BC0187E499E00C94DB3BCF92DF9288
:10238000EF92FF928FE699E00E94E21F80ED98E0C5
:102390000E940B2689E598E00E940B2682EE97E0CA
:1023A0000E940B2680ED98E00E944A276B017C0179
:1023B00020E030E040E450E460916A0A70916B0ADA
:1023C00080916C0A90916D0A0E94A64B9B01AC0112
:1023D000C701B6010E94AD4D18160CF056C089E534
:1023E00098E00E944A276B017C0120E030E040E445
:1023F00050E460916E0A70916F0A8091700A90911A
:10240000710A0E94A64B9B01AC01C701B6010E9454
:10241000AD4D1816D4F582EE97E00E944A276B0165
:102420007C0120E030E040E450E46091720A709159
:10243000730A8091740A9091750A0E94A64B9B01C1
:10244000AC01C701B6010E94AD4D1816F4F461E06D
:1024500070E08FE699E00E94DE1F83E090E09093A9
:10246000030A8093020A84EC95E09093030580931D
:1024700002050E94D0308091020590910305FF90E3
:10248000EF90DF90CF900C94722FFF90EF90DF9041
:10249000CF9008950E949B446093E2047093E304FC
:1024A0008093E4049093E5048FE699E00E94E21F94
:1024B00080ED98E00E940B2689E598E00E940B26AB
:1024C00082EE97E00E940B268091F6049091F7042B
:1024D000A091F804B091F90488589341A109B10979
:1024E0004091E2045091E3046091E4047091E504AA
:1024F000481759076A077B0768F08091E10481114A
:1025000009C062E070E08FE699E00E94DE1F81E082
:102510008093E1044091E2045091E3046091E4046B
:102520007091E5048091F6049091F704A091F8046D
:10253000B091F904481759076A077B0740F11092D8
:10254000E1046FE473E08CE79DE00E94CD496AEC02
:1025500078E08CE79DE00E94BD496FE473E08CE772
:102560009DE00E94CD4985E090E09093030A80931E
:10257000020A84E695E090930305809302050E9489
:10258000D03080910205909103050C94722F08952C
:102590000F931F9380ED98E00E940B2689E598E049
:1025A0000E940B2682EE97E00E940B2689E497E0BA
:1025B0000E944C340E949B440091D6041091D70491
:1025C0002091D8043091D9046017710782079307CE
:1025D000C0F085E197E00E944A3A8091D60490913C
:1025E000D704A091D804B091D90488519C4FAF4F23
:1025F000BF4F8093D6049093D704A093D804B09390
:10260000D9041F910F91089587E499E00E94683CD6
:1026100080916E09882319F063E373E002C066E3DA
:1026200073E08BE292E00C940B506115710581F020
:10263000DB010D900020E9F7AD0141505109461B27
:10264000570BDC01ED91FC910280F381E02D199490
:1026500080E090E008956BED78E08CE79DE00C94CD
:10266000BD490E949B446093FE047093FF048093D5
:1026700000059093010540E050E064EB72E480EDCA
:1026800098E00E94E92640E050E064EB72E489E5BE
:1026900098E00E94E92640E050E06FE773E482EEA4
:1026A00097E00E94E92661E070E080ED98E00E94EA
:1026B000472761E070E089E598E00E94472761E0E4
:1026C00070E082EE97E00E944727C5DF82E090E04D
:1026D0009093030A8093020A08958FE699E00E947E
:1026E00038200E949B446093EA047093EB0480932B
:1026F000EC049093ED04AFDF89E497E00E94373457
:1027000088E090E09093030A8093020A089526E0FF
:1027100040E052EC61E070E08CE79DE00E943D48B3
:1027200083EB9CE00E940E4220E044E064E18AEEEC
:1027300099E00E949F408AEE99E00E94824084E8DE
:1027400096E0909303058093020566E070E08FE6C3
:1027500099E00E94DE1F1092030A1092020A8EEC8A
:1027600097E00E94133D80910205909103050C941F
:10277000D030CF92DF92EF92FF920F931F93CF93BF
:10278000DF9300D000D0CDB7DEB76C01CB01BA012A
:1027900028EE33E040E050E00E94824FC9016CE334
:1027A00070E00E946F4F7C01882777FD8095982FFD
:1027B0000E94AA4C8E010C5F1F4F20E042E00E9455
:1027C000E14FB701882777FD8095982F0E94AA4C8A
:1027D0000350110920E042E00E94E14FBE016C5F0E
:1027E0007F4FC6010E940B50C601FC01019620815B
:1027F0002111FBCF8AE381938AE0E816F10414F4F7
:1028000080E38983DE0111968D91882311F08193F5
:10281000FBCFC60126960FB6F894DEBF0FBECDBF24
:10282000DF91CF911F910F91FF90EF90DF90CF90AC
:102830000895CF92EF920F931F9382E29AE00E9445
:10284000BF2380E2C82E9EE1E92E0CE12AE148E197
:1028500066E18AEE99E00E94424124E0E22E04E023
:1028600021E132E045E152E061E072E08CE799E07D
:102870000E9461278FE699E00E94D21F62E27AE00F
:1028800087E499E00E94C93A67E37BE080ED98E035
:102890000E94702562E67BE089E598E00E94702541
:1028A0006DE87BE082EE97E00E9470254091050B79
:1028B0005091060B62E27AE08EEC97E00E94563D62
:1028C00062E27AE089E497E00E94A53349E457E0A8
:1028D00062E27AE085E197E00E94C73862E27AE03E
:1028E00084EE96E00E94B5380CE719E02AEE39E054
:1028F0004FE650E060E17EE084E896E00E94482ADE
:102900002AEE39E043E150E066E07DE084E296E0C3
:102910000E94482A2AEE39E048E150E066EB7BE06D
:1029200084EC95E00E94482A2AEE39E046E150E026
:1029300062E87AE084E695E00E94482A2AEE39E0CF
:1029400045E150E06CE579E084E095E00E94482A9A
:102950001F910F91EF90CF900895CF92DF92EF9259
:10296000FF920F931F938CE799E00E942B2A80938C
:102970007B098CE79DE00E942E471816190634F457
:102980008CE79DE00E94474780937B0980917B09FB
:10299000833489F1ACF48433E1F16CF48A3209F4C4
:1029A0003FC0813309F049C0809102059091030531
:1029B0000E94382B42C0813481F08234A9F03DC09E
:1029C000813759F02CF48434E9F08536A1F035C014
:1029D0008237C1F0873741F030C080910205909175
:1029E00003050E94393029C08091020590910305AA
:1029F0000E946C3022C080910205909103050E94D4
:102A00004B331BC080910205909103050E949B30BF
:102A100014C080910205909103050E94B92B0DC04E
:102A200020E044E064E18AEE99E00E949F408091BA
:102A30000205909103050E94722FE091020AF09125
:102A4000030AEE0FFF1FE75EFD4F0190F081E02DBE
:102A500019950E949B446093D2047093D304809391
:102A6000D4049093D504C090E604D090E704E0909D
:102A7000E804F090E9046C157D058E059F0508F4C7
:102A800074C080ED98E00E944A2760931E0A7093FC
:102A90001F0A8093200A9093210A89E598E00E94FA
:102AA0004A2760931A0A70931B0A80931C0A90931A
:102AB0001D0A82EE97E00E944A276093160A7093DF
:102AC000170A8093180A9093190A8091020A90912C
:102AD000030A0497A9F4C090F604D090F704E0909C
:102AE000F804F090F9040E949B4497018601061BAC
:102AF000170B280B390BB901A80186E09AE039DEE3
:102B00008091020A9091030A0697A9F4C090EE04FE
:102B1000D090EF04E090F004F090F1040E949B4408
:102B200097018601061B170B280B390BB901A80169
:102B30008CE09AE01EDE0E949B4468517C4F8F4FD0
:102B40009F4F6093E6047093E7048093E8049093AA
:102B5000E90480910205909103051F910F91FF9068
:102B6000EF90DF90CF900C94722F1F910F91FF90F8
:102B7000EF90DF90CF900895CF93DF9364E178E0FA
:102B80008CE79DE00E94BD498AEE99E00E94824058
:102B90006FEF77E08AEE99E00E947D4941E060E0C6
:102BA0008AEE99E00E9487406BEE77E08AEE99E02A
:102BB0000E947D4942E060E08AEE99E00E948740F1
:102BC00066ED77E08AEE99E00E947D4943E060E09F
:102BD0008AEE99E00E94874061EC77E08AEE99E006
:102BE0000E947D4968E873E180E090E00E94CA4459
:102BF0008AEE99E00E94824066EA77E08AEE99E0E8
:102C00000E947D4941E060E08AEE99E00E948740A1
:102C10006FE977E08AEE99E00E947D4942E060E04A
:102C20008AEE99E00E94874069E977E08AEE99E0B0
:102C30000E947D498CE799E00E942B2A80937B09B2
:102C40008CE79DE00E942E471816190634F48CE795
:102C50009DE00E94474780937B0980917B098134E6
:102C600059F561E877E08CE79DE00E94BD498AEE66
:102C700099E00E9482406DE677E08AEE99E00E943A
:102C80007D4982E29AE00E941C2182E29AE00E9441
:102C9000F02282E29AE00E948120C0E0D0E0D0934E
:102CA000230AC093220A82E29AE00E942D232196F1
:102CB000CA30D105A1F702C081E001C080E0909147
:102CC0007B09923411F08111B5CF84E896E0DF9151
:102CD000CF910C94722FCF93DF938AEE99E00E94EC
:102CE00082406DE577E08AEE99E00E947D4941E0FF
:102CF00060E08AEE99E00E94874066E577E08AEE20
:102D000099E00E947D4942E060E08AEE99E00E94ED
:102D1000874060E577E08AEE99E00E947D49C4E84B
:102D2000D6E08CE799E00E942B2A80937B098CE700
:102D30009DE00E942E471816190634F48CE79DE09A
:102D40000E94474780937B0980917B09893711F066
:102D5000813431F58EEC97E00E94133D89E497E0D1
:102D60000E94293487E499E00E942B3C80ED98E092
:102D70000E943E2789E598E00E943E2782EE97E078
:102D80000E943E2785E197E00E94C53A1092030A0F
:102D90001092020AD0930305C093020580E001C09F
:102DA00081E090917B099E3621F0923411F08111DF
:102DB000B8CFDF91CF9108958ECF8DCF8CCF8BCFB1
:102DC000CF93DF938AEE99E00E9482406DE377E033
:102DD0008AEE99E00E947D4941E060E08AEE99E048
:102DE0000E94874068E277E08AEE99E00E947D4980
:102DF00042E060E08AEE99E00E94874069E177E076
:102E00008AEE99E00E947D4943E060E08AEE99E015
:102E10000E94874068E077E08AEE99E00E947D4951
:102E200068E873E180E090E00E94CA448AEE99E08D
:102E30000E9482406EEF76E08AEE99E00E947D4922
:102E400041E060E08AEE99E00E94874067EF76E01B
:102E50008AEE99E00E947D4942E060E08AEE99E0C6
:102E60000E94874061EF76E08AEE99E00E947D49FA
:102E70008CE799E00E942B2A80937B098CE79DE0E8
:102E80000E942E471816190634F48CE79DE00E9424
:102E9000474780937B0980917B09813439F18234E3
:102EA00039F71CC0813409F445C08CE799E00E94D1
:102EB0002B2A80937B098CE79DE00E942E471816F1
:102EC000190634F48CE79DE00E94474780937B0904
:102ED00080917B098334C9F1843421F78091020504
:102EE00090910305DF91CF910C94722F8AEE99E0B7
:102EF0000E9482406FED76E08AEE99E00E947D4963
:102F000041E060E08AEE99E00E9487406EEC76E056
:102F10008AEE99E00E947D4942E060E08AEE99E005
:102F20000E94874066EC76E08AEE99E00E947D4937
:102F3000C1E0BBCF8EEC97E0CC2321F00E94DA3CBD
:102F4000C0E0B3CF0E94133DF3CFC11106C0809102
:102F50000A0B91E0892780930A0B8AEE99E00E9480
:102F6000824061EB76E08AEE99E00E947D4968E854
:102F700073E180E090E00E94CA448AEE99E00E94EA
:102F8000824067EA76E08AEE99E00E947D4941E05E
:102F900060E08AEE99E00E94874060EA76E08AEE7F
:102FA00099E00E947D4942E060E08AEE99E00E944B
:102FB00087406AE976E08AEE99E00E947D498CE7D5
:102FC00099E00E942B2A80937B098CE79DE00E9468
:102FD0002E471816190634F48CE79DE00E944747E7
:102FE00080937B0980917B09813419F0823439F711
:102FF00075CF8EEC97E00E94DA3C40E050E060E84C
:103000007FE38EEC97E00E949F3C8AEE99E00E945D
:10301000824066E876E08AEE99E00E947D4941E0D0
:1030200060E08AEE99E00E9487406FE776E08AEEE2
:1030300099E00E947D4942E060E08AEE99E00E94BA
:10304000874069E776E08AEE99E00E947D4943E097
:1030500060E08AEE99E00E94874061E776E08AEEC0
:1030600099E00E947D49D1E08CE799E00E942B2AEB
:1030700080937B098CE79DE00E942E471816190665
:1030800034F48CE79DE00E94474780937B09809150
:103090007B09823409F44AC0843409F451C0813474
:1030A00019F7CC2309F38EEC97E00E94133D8AEECA
:1030B00099E00E9482406FE576E08AEE99E00E94F6
:1030C0007D4968E873E180E090E00E94CA448AEE9E
:1030D00099E00E9482406EE476E08AEE99E00E94D8
:1030E0007D4941E060E08AEE99E00E9487406DE30F
:1030F00076E08AEE99E00E947D4942E060E08AEE47
:1031000099E00E94874064E376E08AEE99E00E94AD
:103110007D4943E060E08AEE99E00E9487406CE2DE
:1031200076E08AEE99E00E947D4916C08091090BF5
:103130008D278093090B8EEC97E00E94EC3D94CF95
:103140008EEC97E00E94133DC9CE80917B098134BB
:10315000B9F0823409F4C2CE8CE799E00E942B2AA0
:1031600080937B098CE79DE00E942E471816190674
:1031700064F78CE79DE00E94474780937B09E5CF89
:103180008AEE99E00E9482406AE176E08AEE99E058
:103190000E947D498EEC97E00E94DA3C61E086E077
:1031A0000E9498468EEC97E00E94DA3C40E050E0A6
:1031B00060E271E48EEC97E00E949F3C60E777E16B
:1031C00080E090E00E94CA448EEC97E00E94133D9C
:1031D0008AEE99E00E94824066E076E08AEE99E00D
:1031E0000E947D4941E060E08AEE99E00E948740BC
:1031F00064EF75E08AEE99E00E947D4942E060E06C
:103200008AEE99E00E94874065EE75E08AEE99E0CB
:103210000E947D4943E060E08AEE99E00E94874089
:1032200062ED75E08AEE99E00E947D4968E873E1FD
:1032300080E090E00E94CA448AEE99E00E948240B9
:1032400063EC75E08AEE99E00E947D4941E060E020
:103250008AEE99E00E9487406CEB75E08AEE99E077
:103260000E947D4942E060E08AEE99E00E9487403A
:1032700066EB75E08AEE99E00E947D498CE799E063
:103280000E942B2A80937B098CE79DE00E942E47A9
:103290001816190634F48CE79DE00E944747809386
:1032A0007B0980917B09813431F482E29AE00E94AB
:1032B000F02280E001C081E090917B09923409F412
:1032C0000DCE8111DBCF0ACECF92DF92EF92FF922B
:1032D0000F931F938AEE99E00E94824065E374E0A9
:1032E0008AEE99E00E947D4941E060E08AEE99E033
:1032F0000E94874060E274E08AEE99E00E947D4976
:1033000042E060E08AEE99E00E94874061E174E06B
:103310008AEE99E00E947D4943E060E08AEE99E000
:103320000E94874060E074E08AEE99E00E947D4947
:1033300068E873E180E090E00E94CA448AEE99E078
:103340000E94824066EF73E08AEE99E00E947D4918
:1033500041E060E08AEE99E00E9487406FEE73E002
:103360008AEE99E00E947D4942E060E08AEE99E0B1
:103370000E94874069EE73E08AEE99E00E947D49E1
:103380008CE799E00E942B2A80937B098CE79DE0D3
:103390000E942E471816190634F48CE79DE00E940F
:1033A000474780937B0980917B09813459F18234AE
:1033B00039F71CC0813409F449C08CE799E00E94B8
:1033C0002B2A80937B098CE79DE00E942E471816DC
:1033D000190634F48CE79DE00E94474780937B09EF
:1033E00080917B098334E9F1843421F780910205CF
:1033F000909103051F910F91FF90EF90DF90CF9078
:103400000C94722F8AEE99E00E94824067ED73E07F
:103410008AEE99E00E947D4941E060E08AEE99E001
:103420000E94874066EC73E08AEE99E00E947D4935
:1034300042E060E08AEE99E00E9487406EEB73E024
:103440008AEE99E00E947D4911E0B7CF85E197E0CF
:10345000112321F00E94C33A10E0AFCF0E94C53A79
:10346000F3CF111106C08091260B91E0892780933C
:10347000260B8AEE99E00E94824069EA73E08AEEA8
:1034800099E00E947D4968E873E180E090E00E9445
:10349000CA448AEE99E00E9482406FE973E08AEEA6
:1034A00099E00E947D4941E060E08AEE99E00E9447
:1034B000874068E973E08AEE99E00E947D4942E026
:1034C00060E08AEE99E00E94874062E973E08AEE4C
:1034D00099E00E947D498CE799E00E942B2A809315
:1034E0007B098CE79DE00E942E471816190634F4DC
:1034F0008CE79DE00E94474780937B0980917B0980
:10350000813419F0823439F771CF85E197E00E9458
:10351000C33A40E050E060E87FE385E197E00E9435
:10352000C13A8AEE99E00E94824062E873E08AEE36
:1035300099E00E947D4941E060E08AEE99E00E94B6
:1035400087406BE773E08AEE99E00E947D4942E094
:1035500060E08AEE99E00E94874065E773E08AEEBA
:1035600099E00E947D4943E060E08AEE99E00E9484
:1035700087406DE673E08AEE99E00E947D4901E0A4
:103580008CE799E00E942B2A80937B098CE79DE0D1
:103590000E942E471816190634F48CE79DE00E940D
:1035A000474780937B0980917B09823409F44AC0A4
:1035B000843409F451C0813419F7112309F385E1EA
:1035C00097E00E94C53A8AEE99E00E9482406BE53E
:1035D00073E08AEE99E00E947D4968E873E180E03B
:1035E00090E00E94CA448AEE99E00E94824069E419
:1035F00073E08AEE99E00E947D4941E060E08AEE46
:1036000099E00E94874068E373E08AEE99E00E94A7
:103610007D4942E060E08AEE99E00E9487406FE2D7
:1036200073E08AEE99E00E947D4943E060E08AEE13
:1036300099E00E94874067E273E08AEE99E00E9479
:103640007D4916C08091250B80278093250B85E14D
:1036500097E00E94C73A94CF85E197E00E94C53A6F
:10366000C5CE80917B098134B9F0823409F4BECE95
:103670008CE799E00E942B2A80937B098CE79DE0E0
:103680000E942E471816190664F78CE79DE00E94E9
:10369000474780937B09E5CF8AEE99E00E948240FC
:1036A00065E173E08AEE99E00E947D4985E197E04B
:1036B0000E94C33A61E086E00E94984685E197E067
:1036C0000E94C33A40E050E060E271E485E197E097
:1036D0000E94C13A60E777E180E090E00E94CA442E
:1036E00085E197E00E94C53A8AEE99E00E94824007
:1036F00063E073E08AEE99E00E947D4941E060E07A
:103700008AEE99E00E94874061EF72E08AEE99E0CC
:103710000E947D4942E060E08AEE99E00E94874085
:1037200062EE72E08AEE99E00E947D4943E060E03B
:103730008AEE99E00E9487406FEC72E08AEE99E091
:103740000E947D4968E873E180E090E00E94CA44ED
:103750008AEE99E00E9482406EEB72E08AEE99E078
:103760000E947D4968E873E180E090E00E94CA44CD
:103770008AEE99E00E94824069EA72E08AEE99E05E
:103780000E947D4941E060E08AEE99E00E94874016
:1037900064E972E08AEE99E00E947D4942E060E0CF
:1037A0008AEE99E00E9487406BE872E08AEE99E029
:1037B0000E947D4943E060E08AEE99E00E948740E4
:1037C00063E872E08AEE99E00E947D498CE799E017
:1037D0000E942B2A80937B098CE79DE00E942E4754
:1037E0001816190634F48CE79DE00E944747809331
:1037F0007B0980917B09813419F0823439F7F6CD49
:1038000085E197E00E94C33A40E050E060EA71E44D
:1038100085E197E00E94C13A0E949B446B017C01C4
:103820008AEE99E00E9482406EE672E08AEE99E0AC
:103830000E947D4941E060E08AEE99E00E94874065
:1038400066E672E08AEE99E00E947D4942E060E01F
:103850008AEE99E00E9487406EE572E08AEE99E078
:103860000E947D498CE799E00E942B2A80937B0976
:103870008CE79DE00E942E471816190634F48CE759
:103880009DE00E94474780937B0980917B098134AA
:1038900039F0823439F789E497E00E942934A6CDC3
:1038A00085E197E00E94C53A0E949B4400E010E049
:1038B00020E83FE30093330B1093340B2093350B38
:1038C0003093360B6C197D098E099F090E94A84C14
:1038D00020E030E040EA51E40E94B14D20E030E6C3
:1038E0004AE657E40E940F4C6093270B7093280B15
:1038F0008093290B90932A0B8AEE99E00E948240D4
:1039000069E472E08AEE99E00E947D4941E060E05E
:103910008AEE99E00E94874064E372E08AEE99E0C3
:103920000E947D4942E060E08AEE99E00E94874073
:1039300060E272E08AEE99E00E947D4968E873E1F6
:1039400080E090E00E94CA448AEE99E00E948240A2
:1039500061E172E08AEE99E00E947D4941E060E019
:103960008AEE99E00E9487406AE072E08AEE99E070
:103970000E947D4942E060E08AEE99E00E94874023
:1039800064E072E08AEE99E00E947D498CE799E05C
:103990000E942B2A80937B098CE79DE00E942E4792
:1039A0001816190634F48CE79DE00E94474780936F
:1039B0007B0980917B09813429F482E29AE010D658
:1039C00080E001C081E090917B09923409F40ECD32
:1039D0008111DCCF0BCDBF92CF92DF92EF92FF929D
:1039E0000F931F93CF93DF9300D000D0CDB7DEB7F6
:1039F0007C018B018AEE99E00E948240B7018AEE39
:103A000099E00E94151341E060E08AEE99E00E947F
:103A10008740B8018AEE99E00E94151343E060E008
:103A20008AEE99E00E94874060E573E08AEE99E0B3
:103A30000E94151342E060E08AEE99E00E94874000
:103A4000DD24D3948E010F5F1F4F78014EE2B42E18
:103A50008CE799E00E943E2A80937B098CE79DE0E9
:103A60000E942E471816190634F48CE79DE00E9438
:103A7000474780937B0960917B096134E9F044F406
:103A80006A32F1F16E32E1F1633209F04CC0E0CFFD
:103A90006434F4F2643409F046C0C7010E94015056
:103AA00020E030E0A9010E940B4C882309F449C0B2
:103AB000C7010E94015049C0E016F10608F041C05C
:103AC000B8016E197F09CC24CA94C60E42E06C2D51
:103AD0008AEE99E00E94874060E28AEE99E00E94B7
:103AE000744142E06C2D8AEE99E00E948740F80113
:103AF00082918F018E3209F0ABCFDD24D394A8CF11
:103B0000C8018E199F0905970CF0A2CFDD2009F49A
:103B10009FCFF801B1928F016EE28AEE99E00E9488
:103B20007441D12C95CFC8018E199F0905970CF0CF
:103B30008FCFF80161938F018AEE99E00E94744162
:103B400087CF60E070E080E89FEB26960FB6F89490
:103B5000DEBF0FBECDBFDF91CF911F910F91FF90C0
:103B6000EF90DF90CF90BF900895AF92BF92CF9229
:103B7000DF92EF92FF920F931F93CF93DF931F92E9
:103B8000CDB7DEB78AEE99E00E94824062EA75E026
:103B90008AEE99E00E947D496EE875E08CE79DE031
:103BA0000E94BD4960EA7FE080E090E00E94CA4444
:103BB0008AEE99E00E94824040E060E08AEE99E05F
:103BC0000E94874069E775E08AEE99E00E947D498E
:103BD00041E060E08AEE99E00E94874064E675E08B
:103BE0008AEE99E00E947D4943E060E08AEE99E028
:103BF0000E94874066E575E08AEE99E00E947D4963
:103C00006AE275E08CE79DE00E94BD498CE799E08F
:103C10000E942B2A182F8CE79DE00E942E47181631
:103C200019062CF48CE79DE00E944747182F1434A6
:103C300019F0113459F7A9C18AEE99E00E94824027
:103C400067E175E08AEE99E00E947D4941E060E01D
:103C50008AEE99E00E9487406FE573E08AEE99E072
:103C60000E94151342E060E08AEE99E00E948740CE
:103C700062E773E08AEE99E00E94151343E060E08A
:103C80008AEE99E00E94874067E873E08AEE99E047
:103C90000E9415136DED74E08CE79DE00E94BD4914
:103CA0006AEC74E08CE79DE00E94BD4960EA7FE029
:103CB00080E090E00E94CA448AEE99E00E9482402F
:103CC0006BE973E08AEE99E00E94151389E497E0AE
:103CD0000E9403346B017C0141E067E08AEE99E0C9
:103CE0000E94874022E030E0B701A6018AEE99E009
:103CF0000E94944B22E030E0B701A6018CE79DE0E2
:103D00000E94954B68EE73E080E090E00E94CA4408
:103D100020E030E849E054E4C701B6010E940B4CB2
:103D200087FF16C020E030E041EE53E4C701B60142
:103D30000E94AD4D181664F443E060E08AEE99E00D
:103D40000E94874069EA73E08AEE99E00E941513A9
:103D50008CE799E00E942B2A182F8CE79DE00E94A7
:103D60002E47181619062CF48CE79DE00E94474751
:103D7000182F143421F0113409F0A8CF06C18AEEAF
:103D800099E00E94824067EB73E08AEE99E00E941E
:103D9000151341E060E08AEE99E00E9487406CECE8
:103DA00073E08AEE99E00E94151342E060E08AEE2B
:103DB00099E00E94874061EE73E08AEE99E00E94EC
:103DC000151343E060E08AEE99E00E9487406EEEB2
:103DD00073E08AEE99E00E9415136CE774E08CE7BB
:103DE0009DE00E94BD4960EA7FE080E090E00E9493
:103DF000CA44A12CB12C8AEE99E00E94824063E073
:103E000074E08AEE99E00E94151385010F5F1F4F41
:103E10004AE050E0B8018AEE99E00E947D4A42E013
:103E200060E08AEE99E00E94874060E174E08AEEEB
:103E300099E00E94151343E060E08AEE99E00E9449
:103E400087406DE174E08AEE99E00E9415136AE400
:103E500074E08CE79DE00E94BD498CE799E00E94E8
:103E60002B2A282F8CE79DE029830E942E47298149
:103E7000181619062CF48CE79DE00E944747282F5E
:103E80002434D1F12334A1F582E0A816B1040CF456
:103E90007CC08AEE99E00E94824061E374E08AEE81
:103EA00099E00E94151341E060E08AEE99E00E94DB
:103EB000874066E474E08AEE99E00E94151342E0C0
:103EC00060E08AEE99E00E9487406EE474E08AEE3A
:103ED00099E00E94151343E060E08AEE99E00E94A9
:103EE000874069EA73E08AEE99E00E94151347C0A3
:103EF000213409F0B2CF49C089E497E00E9403342D
:103F00006B017C018AEE99E00E94824065E574E0D5
:103F10008CE79DE00E94CD4922E030E0B701A60188
:103F20008CE79DE00E94954B22E030E0B701A601AE
:103F30008AEE99E00E94944B6CE47DE180E090E091
:103F40000E94CA448AEE99E00E94824063E674E0CF
:103F500083E794E040DD20E030E040E85FEB0E9442
:103F60000B4C811106C0E2E0AE16B1040CF091CF0B
:103F70000CC00A30110509F48CCF58013CCF8CE7F6
:103F800099E00E942B2A8823D1F30F90DF91CF91E3
:103F90001F910F91FF90EF90DF90CF90BF90AF9067
:103FA0000895E3CDCF93DF93EC0161E081E10E94BE
:103FB00098461B861A86DF91CF910895FC0173877E
:103FC00062870895CF92DF92EF92FF92CF93DF93B3
:103FD000EC018A859B85892B09F443C0CC80DD8068
:103FE000EE80FF800E949B446C157D058E059F0529
:103FF000C0F18885998580FD0BC00A972CF0198641
:1040000018861B861A862DC080910201816003C02C
:10401000809102018E7F809302010E949B4428853B
:1040200039854A855B85AAE0A49FF001A59FF00D24
:104030001124E20FF31FEE0FFF1FE55CFD4FC08060
:10404000D180EE24D7FCE094FE2C6C0D7D1D8E1DDE
:104050009F1D6C837D838E839F832F5F3F4F3987A6
:104060002887DF91CF91FF90EF90DF90CF90089558
:10407000FC01118610861386128608959B012A562C
:104080003E4FFC013587248766567E4F77876687CB
:1040900008950F931F93CF93DF938C0144E050E07A
:1040A00063E070E083EB9CE00E942342C0E0D0E03C
:1040B00083EB9CE00E947941892B89F083EB9CE0A3
:1040C0000E948141F801EC0FFD1F84834AE050E01B
:1040D000682F8CE79DE00E94A64A2196E9CF8CE7E5
:1040E0009DE00E94AB4983EB9CE00E944242F801B4
:1040F0006481758186819781DF91CF911F910F91A6
:104100000895CF93DF93EC012FEF3FEFFC01219354
:104110003193CF0162E874E00E940B504DEC5CECEF
:104120006CEE7FE34E8B5F8B688F798F47ED53EAA0
:1041300060EB7FE34A8F5B8F6C8F7D8F4DEC5CEC87
:104140006CE47DE34E8F5F8F68A379A340E050E07D
:1041500060EA70E44AA35BA36CA37DA340E050E057
:1041600060EF71E44EA35FA368A779A740E050E039
:1041700060E772E44AA75BA76CA77DA71AAA1BAAEF
:104180001CAA1DAA40E050E060E470E44EA75FA7BF
:1041900068AB79AB1EAA1FAA18AE19AE40E050E07A
:1041A00068E473E44AAF5BAF6CAF7DAFFE01FE968F
:1041B0001082118212821382349680ED97E09183EF
:1041C0008083329640E050E060E071E440835183A8
:1041D00062837383349640E050E864E873E440837C
:1041E00051836283738334964083518362837383E4
:1041F00034964083518362837383349640E050E069
:1042000064E373E44083518362837383349640E0B4
:1042100050E86EE873E44083518362837383C45A29
:10422000DF4F4FE050E060E070E0488359836A83DD
:104230007B83DF91CF9108952F923F924F925F92AF
:104240006F927F928F929F92AF92BF92CF92DF92A6
:10425000EF92FF920F931F93CF93DF93FC01EF53E5
:10426000FF4F10823196C2E0D0E0D183C0833296F6
:1042700040E050E060E87FE34083518362837383D2
:10428000349624E630E031832083329620E436E011
:104290003183208332962BE430E0318320833296C1
:1042A00080ED482E87E0582E5182408232962AE5D2
:1042B00030E031832083329621E0208331962FE550
:1042C00030E03183208332962EE630E03183208344
:1042D000329620EA30E031832083349698EE692EBE
:1042E00093E0792E71826082329620E137E2318349
:1042F0002083329628EC30E031832083329620E50B
:1043000030E031832083329611821082329620E190
:1043100030E031832083329610823196A1E0A08371
:104320003196C12CD12CA0E4EA2EFE2CC082D18281
:10433000E282F3823496A1E0B0E0B183A0833296AA
:104340003183208332961082319610823196B8E400
:10435000CB2EB1EEDB2EBEEAEB2EB0E4FB2EC082FC
:10436000D182E282F3823496C12CD12C18E4E12E62
:1043700013E4F12EC082D182E282F382349610825D
:104380001182128213823496D183C0833296318394
:1043900020833296108231961082319602E518EB16
:1043A00022EE31E40083118322833383349600E0CC
:1043B00010E020EF31E400831183228333833496AD
:1043C00000E010E026E932E4008311832283338386
:1043D00034964083518362837383B896A7E0B0E03C
:1043E000B183A08372971082118212821382349754
:1043F0000AE9C02E09E9D02E09E1E02E0EE3F02EE5
:10440000C082D182E282F38234970AE919E929E570
:1044100030E400831183228333833897812C912CDD
:1044200088ECA82E82E4B82E80829182A282B38288
:104430003496108211821282138278969EE6292E7B
:104440009FE0392E31822082329744E150E051833F
:1044500040833696118210823C9740EA56E861E02C
:1044600070E040835183628373833A9671826082E5
:10447000B09751824082B6961082118212821382C6
:1044800034961082B596B183A08372971082118200
:10449000128213823497C082D182E282F3823497EF
:1044A0000083118322833383389780829182A28292
:1044B000B3823496108211821282138278963182EE
:1044C00020823297A4E1B0E0B183A0833696A1E0C8
:1044D000B0E0B183A0833C974083518362837383B0
:1044E0003A9671826082B09751824082B69610826D
:1044F00011821282138234961082B596A5E0B0E044
:10450000B183A08372971082118212821382349732
:10451000C082D182E282F3823497008311832283A6
:104520003383389780829182A282B382349610823C
:10453000118212821382789631822082329724E18E
:1045400030E0318320833696D183C0833C9740830B
:104550005183628373833A9671826082B09711822D
:104560001082B6961082118212821382349631E044
:104570003083319646EC54E464E17AE3408351831E
:1045800062837383349649EA54EA66EC7FE340839E
:10459000518362837383349640E050E06CE873E4A7
:1045A0004083518362837383349642E050E060E03D
:1045B00070E04083518362837383DF91CF911F91B9
:1045C0000F91FF90EF90DF90CF90BF90AF909F90B2
:1045D0008F907F906F905F904F903F902F900895B5
:1045E0000F931F93CF93DF93EC0161E379E18CE7A5
:1045F0009DE00E94BD49C054DF4F81E0888360E0A8
:1046000070E049918B010F5F1F4F82EB9CE00E948D
:10461000E73F063E110511F0B801F3CFDF91CF91CE
:104620001F910F9108950F931F93CF93DF938C01E8
:1046300000541F4FC0E0D0E0BE0182EB9CE00E941E
:10464000E43FF80181938F012196C63ED105A1F781
:10465000DF91CF911F910F910895EF92FF920F93E9
:104660001F93CF93DF93FC014081518160E6649FEB
:104670009001659F300D1124B9016A517F4FEC0103
:104680007901FAEBEF1AFEEFFF0A49918B010F5FF8
:104690001F4F82EB9CE00E94E73F0E151F0511F0B3
:1046A000B801F3CFDF91CF911F910F91FF90EF9061
:1046B0000895EF92FF920F931F93CF93DF937C01A6
:1046C0008B01C0E0D0E0BE016E0D7F1D82EB9CE04F
:1046D0000E94E43FF80181938F012196C036D105F5
:1046E00091F780E690E0DF91CF911F910F91FF90BD
:1046F000EF90089540E6469F9001479F300D1124AA
:10470000BC01C9018A519F4FD4CF08950F931F93C5
:10471000CF93DF93EC018B01BC01605A7F4F20E601
:10472000249FC001259F900D11248A519F4FC1DF06
:10473000BE016E597F4FC801DF91CF911F910F913C
:104740000C940B50EF92FF920F931F93CF93DF9334
:104750007C018C010A551E4FC0E0D0E0AE01B801CB
:10476000C701D4DF21960C5E1F4FCA30D105B1F7C7
:10477000DF91CF911F910F91FF90EF900895CF930C
:10478000DF93EC01DFDFCE01DF91CF914CCFFC0155
:10479000778366836130710581F01CF4672B41F0EB
:1047A00008956230710549F06330710531F0089564
:1047B00084E090E0918380830895718360830895FD
:1047C0004F925F926F927F928F929F92AF92BF9221
:1047D000CF92DF92EF92FF920F931F93CF93DF93CD
:1047E000CDB7DEB72E970FB6F894DEBF0FBECDBFA4
:1047F000FC01CB01BA016283738384839583E080DB
:10480000F18022E0E216F10409F083C02EE0E8EC2A
:10481000F2E0DE01119601900D922A95E1F79B01DD
:10482000AC010E94A74B2B013C01CE0101967C01FB
:104830005E019FE0A90EB11CF701C190D1907F01EC
:10484000B601882777FD8095982F0E94AA4C9B017E
:10485000AC01C301B2010E94B14D9B01AC0160E00B
:1048600074E284E79BE40E940F4C20E030E04FE7C5
:1048700053E40E940B4C87FD04C0EA14FB04E1F6EC
:1048800001C0860100341105E9F05CF4083011051F
:10489000A9F000321105A1F001301105C9F481E041
:1048A00018C00115F1E01F0779F0011524E0120787
:1048B00069F00038110561F485E00BC082E009C0A1
:1048C00083E007C084E005C086E003C087E001C044
:1048D00080E093E49093B00088608093B100B801C9
:1048E000882777FD8095982F0E94AA4C9B01AC01E8
:1048F000C301B2010E94B14D9B01AC0160E074E2C2
:1049000084E79BE40E940F4C0E947C4C6093B300B0
:10491000D0C02AE0E6EDF2E0DE01119601900D92A2
:104920002A95E1F79B01AC010E94A74B2B013C01AA
:10493000CE0101966C014E019BE0890E911CF6019F
:10494000A190B1906F01B501882777FD8095982FD0
:104950000E94AA4C9B01AC01C301B2010E94B14D5F
:104960009B01AC0160E074E284E79BE40E940F4C81
:1049700020E03FEF4FE757E40E940B4C87FD04C057
:10498000C814D904E1F601C0850100341105A1F075
:104990003CF40130110571F008301105A9F010C088
:1049A0000115F1E01F0751F0011524E0120741F451
:1049B00085E00DC081E00BC083E009C084E007C042
:1049C00017FD04C080E003C082E001C087E093E0EF
:1049D000E916F10459F1E4E0EE16F10409F448C0D7
:1049E000EA94EF2809F065C093E490938000886111
:1049F00080938100B801882777FD8095982F0E94C9
:104A0000AA4C9B01AC01C301B2010E94B14D9B01B4
:104A1000AC0160E074E284E79BE40E940F4C0E94CA
:104A2000774C709389006093880043C093E490931F
:104A30009000886180939100B801882777FD809568
:104A4000982F0E94AA4C9B01AC01C301B2010E94A5
:104A5000B14D9B01AC0160E074E284E79BE40E94ED
:104A60000F4C0E94774C709399006093980021C07E
:104A700093E49093A00088618093A100B8018827F7
:104A800077FD8095982F0E94AA4C9B01AC01C30131
:104A9000B2010E94B14D9B01AC0160E074E284E779
:104AA0009BE40E940F4C0E94774C7093A900609386
:104AB000A8002E960FB6F894DEBF0FBECDBFDF91D3
:104AC000CF911F910F91FF90EF90DF90CF90BF900B
:104AD000AF909F908F907F906F905F904F900895D0
:104AE0006F927F928F929F92AF92BF92CF92DF92FE
:104AF000EF92FF920F931F93CF93DF934C01EB0143
:104B0000A8A0B9A0CE8CDF8CEC8CFD8C0A8D1B8DFF
:104B10002E893F89488D598D6AA17BA10E942B3E29
:104B200034018EE2680E711CAE84BF84C888D988B7
:104B3000EA84FB840C851D859E012A5D3F4FA401FC
:104B400047595F4F1F921F928D898F938C898F9346
:104B50008B898F938A898F93B401C3010E94463851
:104B6000F401E959FF4FD183C08336969182808248
:104B700068817981C3010E94EB36CA88DB88EC88A2
:104B8000FD880E851F85288939894A855B856C8556
:104B90007D85C3010E9438360A811B812C813D81AD
:104BA0004E815F8168857985C3010E94393761E054
:104BB00070E0C3010E94F537F401E159FF4FCE01C7
:104BC00084969183808361E08CA10E949846F401D1
:104BD000EF58FF4FCE018A96918380833296889753
:104BE0009183808332962696D183C0830F900F9055
:104BF0000F900F900F900F90DF91CF911F910F9119
:104C0000FF90EF90DF90CF90BF90AF909F908F90EC
:104C10007F906F900895CF92DF92EF92FF920F9363
:104C20001F93CF93DF93EC010E949B446093AE0CE3
:104C30007093AF0C8093B00C9093B10CCE010E9496
:104C4000703F4091AE0C5091AF0C6091B00C7091E0
:104C5000B10C8E0109591F4FD801ED91FC91808153
:104C60009181AA2797FDA095BA2FC090AA0CD09049
:104C7000AB0CE090AC0CF090AD0C8C0D9D1DAE1DFE
:104C8000BF1D481759076A077B0708F481C0409386
:104C9000AA0C5093AB0C6093AC0C7093AD0CFE015E
:104CA000E359FF4FD183C083CE018E960E94183501
:104CB000FE01EF58FF4F80819181892BC1F5389714
:104CC000C080D180E280F380D801ED91FC916081B9
:104CD0007181882777FD8095982F0E94AA4CA701A3
:104CE00096010E94B14D20E030E048EC52E40E9471
:104CF0000F4C0E947C4C6093A60C7093A70C809381
:104D0000A80C9093A90C20E030E040E85FE3C701D5
:104D1000B6010E94AD4D181654F4FE01E159FF4F43
:104D20000190F081E02D61E080810E94D1464091A8
:104D3000A60C5091A70C6091A80C7091A90C8091C1
:104D4000AA0C9091AB0CA091AC0CB091AD0C480F9B
:104D5000591F6A1F7B1F8091AE0C9091AF0CA091E0
:104D6000B00CB091B10C84179507A607B70740F1B6
:104D7000C159DF4FE881F98160E08081DF91CF91F7
:104D80001F910F91FF90EF90DF90CF900C94D14640
:104D9000FE01E759FF4F60817181828193810E94FA
:104DA000774CC159DF4FE881F9818081DF91CF9144
:104DB0001F910F91FF90EF90DF90CF900C94804562
:104DC000DF91CF911F910F91FF90EF90DF90CF90E7
:104DD0000895AF92BF92CF92DF92EF92FF920F931E
:104DE0001F93CF93DF93EC015A016B018C01025D9D
:104DF0001F4FC8010E94B138019729F460E070E0AC
:104E0000C8010E94F537FE01EB58FF4F0190F08179
:104E1000E02DE080F180028113819701A801B501A6
:104E2000C6010E940B4C87FD02C075018601FE0180
:104E3000ED58FF4F0190F081E02DA080B180C2803D
:104E4000D3809501A601B701C8010E94AD4D181687
:104E500014F057016801C759DF4FC501D601888397
:104E60009983AA83BB83DF91CF911F910F91FF900C
:104E7000EF90DF90CF90BF90AF90089581599F4FF2
:104E8000DC01ED91FC9160E080810C94D1468E961E
:104E90000C94F537FC0160817181828193810895C2
:104EA000FC0110821482138215820895862F642FCC
:104EB0000C949846862F642F0C94D146862F0C9420
:104EC00006474F925F926F927F928F929F92AF921E
:104ED000BF92CF92DF92EF920F93CF93DF93EC01CB
:104EE0004B013A0159010296DBDF81E994E0998395
:104EF00088836E018CE1C80ED11C26018CE3480E1C
:104F0000511CC601CDDF86E0C80ED11CC414D504E7
:104F1000C1F7FE01EE59FF4F718260823296B18275
:104F2000A082329600833196E08237979182808208
:104F300038968AE090E091838083329684EF91E006
:104F400091838083329611821082C45ADF4F188277
:104F500019821A821B82DF91CF910F91EF90DF901F
:104F6000CF90BF90AF909F908F907F906F905F9009
:104F70004F9008952F923F924F925F926F927F923F
:104F80008F929F92AF92BF92CF92DF92EF92FF9259
:104F90000F931F93CF93DF93CDB7DEB728970FB64C
:104FA000F894DEBF0FBECDBF98878F83F12C4C01E4
:104FB00086E6880E911C0F8118850E591F4FD4016B
:104FC0008C91F816A0F4AF81B8858D919C91F80171
:104FD000A081B181AF0DB11DFC012081318142E082
:104FE0006C918F819885F9011995F394E8CF512C34
:104FF000EF81F885E959FF4FFA83E9830F8118851E
:105000000C591F4FC12CD12C7601C3948F819885E8
:105010008E599F4F9C838B83A981BA818C9158169E
:1050200008F088C0A52CB12CAF81B8858D919C91DA
:10503000F801A081B181AA0DBB1DFC012081318145
:1050400041E06C918F819885F9011995AF81B88500
:105050008D919C91F801A081B181AA0DBB1DFC012D
:105060002281338140E06C918F819885F9011995F7
:10507000D701C601052C04C0880F991FAA1FBB1FAA
:105080000A94D2F79C011C0120943094412CD40145
:105090008C91EF81F88540815181481648F5642C48
:1050A000712CEB81FC81A081B181A60DB71DFA01A5
:1050B000448155816C918F8198852D833E83FA01BF
:1050C0001995660C771C2D813E81EF81F885E60DE0
:1050D000F71D892B29F480859185822B932B04C0A1
:1050E0008085918582219321918780874394CFCFBA
:1050F000F801A081B181AA0DBB1DFA012281338183
:1051000041E06C918F819885F9011995AF81B8853F
:105110008D919C91F801A081B181AA0DBB1DFC016C
:105120002081318140E06C918F819885F90119953A
:10513000539472CF28960FB6F894DEBF0FBECDBF42
:10514000DF91CF911F910F91FF90EF90DF90CF9063
:10515000BF90AF909F908F907F906F905F904F9097
:105160003F902F900895FC0180E090E0258D368DD2
:105170002617370739F0019636968A309105B1F730
:105180008FEF9FEF0895FC0126E0629FE00DF11D77
:10519000112450A3478F21E021A3FC01E459FF4FC4
:1051A0000190F081E02D309721F0DC015C968C912C
:1051B00019940895CF92DF92FF920F931F93CF938C
:1051C000DF931F92CDB7DEB76C01F62EFC0186E0AF
:1051D000689FE00DF11D112411A2878D90A18130EF
:1051E0009105E9F01CF4892B51F044C082309105FF
:1051F00091F1039709F03EC040E050E030C04423F5
:10520000C9F141E050E0C601BEDF0E949B44F601B7
:10521000E85AFF4F60837183828393832BC0498355
:105220000E949B44F601E85AFF4F008111812281C0
:105230003381601B710B820B930B7296008111817D
:1052400020E030E04981061717072807390718F4CE
:1052500042E050E004C041110DC043E050E06F2D2A
:10526000C6010F90DF91CF911F910F91FF90DF90BA
:10527000CF9089CF0F90DF91CF911F910F91FF9029
:10528000DF90CF9008952F923F924F925F926F924E
:105290007F928F929F92AF92BF92CF92DF92EF92C6
:1052A000FF920F931F93CF93DF931F92CDB7DEB77B
:1052B0001C01FC014AE08FEF9FEF278D30A1232BCB
:1052C00021F4148E968F858F11A24150369641118C
:1052D000F4CF712C610126E6C20ED11C510187E684
:1052E000A80EB11C4101A0E68A0E911C46E0442E96
:1052F000D6018C91781608F053C0612C8101070DFE
:10530000111D070D111D085F1F4FF501E0806E1480
:1053100008F044C0F80140815181062C02C0569526
:1053200047950A94E2F741707E9C70011124E60CC7
:10533000F11CD401ED91FC91EE0DFF1D5080B701E1
:10534000C101498310DF498197FD02C0682F1BC04E
:10535000019611F5442301F180E090E060E070E0F7
:10536000F101E80FF91F248D211110C0469EF001B4
:10537000479EF00D1124E20DF31D548EF68EE58E3E
:1053800010A2178E41E0C10115DF06C06F5F7F4F8D
:1053900006966A30710521F76394B7CF7394A8CF4E
:1053A00020E030E080E0F101E20FF31F91A19111C4
:1053B00081E02A5F3F4F2C333105A9F70F90DF9131
:1053C000CF911F910F91FF90EF90DF90CF90BF9002
:1053D000AF909F908F907F906F905F904F903F9095
:1053E0002F900895CF92DF92EF92FF920F931F9329
:1053F000CF93DF938C010E949B44E801C45ADF4F96
:10540000C880D980EA80FB806C197D098E099F09CC
:10541000F801E859FF4FC080D180E12CF12CC6166D
:10542000D706E806F90660F4C801A4DDC8012BDF41
:10543000182F0E949B44688379838A839B8301C0D1
:1054400010E0812FDF91CF911F910F91FF90EF908E
:10545000DF90CF900895CF93DF93EC01C3DF8823D3
:1054600039F089A1882321F08F8D98A1019711F03F
:1054700080E001C08C8DDF91CF910895CF93DF93B1
:10548000EC01CE01E8DF8823E1F3DF91CF910895AD
:105490000F931F93FC015183408375836483358F81
:1054A000248F178F068F158A148A81E090E09783E6
:1054B0008683978B868B97878687938782871F91B2
:1054C0000F910895FC01CB01019620813181821753
:1054D00093071CF08FEF9FEF0895A481B5812EE014
:1054E000269FA001279F500D11249D01240F351FD9
:1054F0002E5F3F4FF90165917491FD01E40FF51F97
:105500007096259134916217730721F70895161646
:105510001706E4F4FC01448155818EE0869F9001DA
:10552000879F300D1124CA01820F931F0296FC0140
:10553000A591B491FA01E20FF31F3C9785919491E4
:10554000A817B90719F4CB01019708958FEF9FEFC2
:1055500008954EE0469F9001479F300D1124DC01D5
:105560001496ED91FC911597E20FF31F32968591F9
:10557000949108954EE0469F9001479F300D11246D
:10558000DC011496ED91FC911597E20FF31F349610
:10559000859194910895CF93DF93EB016EE0649F22
:1055A0009001659F300D1124DC011496ED91FC9162
:1055B0001597E20FF31F65917491CE010E9404507C
:1055C000CE01DF91CF910895CF93DF93EC016C85ED
:1055D0007D857D8B6C8B888999896817790719F48B
:1055E000CE01C8DF02C0CE016DDF9F8B8E8B6E892E
:1055F0007F89CE0167DF998F888FBC01CE0162DF82
:105600009B8F8A8FDF91CF9108954EE0469F900146
:10561000479F300D1124DC011496ED91FC911597F4
:10562000E20FF31F3A968591949108954EE0469FBC
:105630009001479F300D1124DC011496ED91FC91EF
:105640001597E20FF31F38968591949108954EE0D7
:10565000469F9001479F300D1124DC011496ED9177
:10566000FC911597E20FF31F36968591949108955A
:105670000F931F93CF93DF938C01FC016285738599
:10568000C4DF86309105E9F0A4F4049709F06CC0FA
:10569000F80162857385C801DADFEC01F8016285E3
:1056A0007385C801D4DFFC01808191E0892788835C
:1056B0005BC08A30910509F43DC00C9709F43AC0EB
:1056C00053C0F80162857385C801C1DFFC01808188
:1056D0009181F801628573850B9784F4C801B7DF67
:1056E000EC01F80162857385C801B1DFFC012081FE
:1056F00031812F5F3F4F3983288336C0C801A7DF30
:10570000EC01F80162857385C801A1DFFC016081AD
:105710007181882777FD8095982F0E94AA4C2DECE7
:105720003CEC4CE85FE30E94B14D0E94774C7983DA
:1057300068831AC0F80162857385C80188DFEC01AF
:10574000F80162857385C80182DF2DEC3CEC4CE8E2
:105750005FE3FC0160817181828193810E94B14D80
:10576000688379838A839B83DF91CF911F910F9107
:1057700008950F931F93CF93DF938C01FC016285F3
:10578000738543DF86309105E9F0A4F4049709F0AE
:105790006CC0F80162857385C80159DFEC01F8011E
:1057A00062857385C80153DFFC01808191E0892700
:1057B00088835BC08A30910509F43DC00C9709F4D9
:1057C0003AC053C0F80162857385C80140DFFC010F
:1057D00080819181F801628573850B9784F4C801FB
:1057E00036DFEC01F80162857385C80130DFFC010A
:1057F00020813181215031093983288336C0C80185
:1058000026DFEC01F80162857385C80120DFFC0109
:1058100060817181882777FD8095982F0E94AA4C1E
:105820002DEC3CEC4CE85FE30E940F4C0E94774C5F
:10583000798368831AC0F80162857385C80107DF20
:10584000EC01F80162857385C80101DF2DEC3CECA9
:105850004CE85FE3FC0160817181828193810E9449
:105860000F4C688379838A839B83DF91CF911F914B
:105870000F910895EF92FF920F931F93CF93DF93B1
:10588000EC018B017A01C1DE8830910509F450C02A
:10589000A4F484309105C1F1069709F073C0B801F2
:1058A000CE01D5DEEC01F7016081718182819381A7
:1058B0000E94774C7983688365C08C30910509F428
:1058C00047C08E30910509F451C00A9709F05AC0BB
:1058D000B801CE01BCDEF701408151816281738144
:1058E000FC014083518362837383B801CE01AFDE34
:1058F000FC01408151816281738122E030E08CE7BC
:105900009DE00E94954B24C0B801CE01A0DEEC01C1
:1059100011E020E030E0A901F7016081718182810E
:1059200093810E940B4C811101C010E018832AC0A2
:10593000B801CE018CDEEC01F701608171818281BA
:1059400093810E947C4C688379838A839B831AC0ED
:10595000B801CE017CDEF701408151816281738103
:10596000FC0140835183628373830CC0B801CE0174
:105970006EDEB701DF91CF911F910F91FF90EF90F5
:105980000C940B50DF91CF911F910F91FF90EF90EE
:1059900008952F923F924F925F926F927F928F92D3
:1059A0009F92AF92BF92CF92DF92EF92FF920F93AE
:1059B0001F93CF93DF93CDB7DEB7A8970FB6F894B8
:1059C000DEBF0FBECDBF8C015B011FDE01978F30A4
:1059D000910508F03EC08E589F4FFC010C94A44FD7
:1059E000B501C80134DEDC016C9170E080E090E02C
:1059F00017C0B501C8012BDEFC01608171818827C9
:105A000077FD8095982F0E94AA4C6B017C0121C0E4
:105A1000B501C8011CDEDC016D917D918D919C91D9
:105A20000E94A84CF2CFB501C80111DEFC01C08074
:105A3000D180E280F3800DC0B501C80108DEFC0111
:105A4000DC010D900020E9F7CD0101978E1B9F0B23
:105A500058C084E2E0EEF2E0DE01119601900D9272
:105A60008A95E1F720E030E0A901C701B6010E9464
:105A7000AD4D26013701181624F077FA709477F8A7
:105A800070941E01B5E02B0E311C88248394912C58
:105A9000F10121913191419151911F01C301B20155
:105AA0002DA33EA34FA358A70E947C4C2DA13EA13D
:105AB0004FA158A50E94824F232B242B252B39F070
:105AC000FFEF8F1A9F0A89E08816910409F720E0FA
:105AD00030E0A901C701B6010E940B4C87FF03C04B
