:100000000C94F50D0C94260E0C94260E0C94260ED2
:100010000C94260E0C94260E0C94260E0C94260E90
:100020000C94260E0C94260E0C94260E0C94260E80
:100030000C94260E0C94260E0C94260E0C94260E70
:100040000C94260E0C94260E0C94260E0C94260E60
:100050000C94260E0C94260E0C94260E0C94A4439D
:100060000C94260E0C94F0470C9426480C94260E03
:100070000C94260E0C94260E0C94260E0C94260E30
:100080000C94260E0C94260E0C94260E0C94260E20
:100090000C94260E0C94260E0C94260E0C9476428C
:1000A0000C94260E0C94260E0C94260E0C94260E00
:1000B0000C94260E0C94260E0C94260E0C94260EF0
:1000C0000C94260E0C94260E0C94260E0C94260EE0
:1000D0000C94260E0C94260E0C94260E0C94260ED0
:1000E0000C94260E722C7F2C7F2C462C462C4F2CE9
:1000F0004F2C5E2C5E2C692C692C692C692C722C7F
:10010000722CA72EAE2EAE2E192D192D262D262D92
:10011000302D302DA22DA22DA22DA22DA72EA72E3F
:10012000B332B832B332B832B332B832B332B83293
:10013000B332B832B332B832B632F744FC44014578
:100140000B4515458E451F4527452F4539454345E8
:100150004D455C4566458E4570457A458445B045BC
:10016000B345A245A645AC45EA45B745BB45C145A3
:10017000C545C945CF45D345D745EA45DD45E145A8
:10018000E54507634236B79BD8A71A39685618AEBB
:10019000BAAB558C1D3CB7CC5763BD6DEDFD753EBC
:1001A000F6177231BF000000803F08000000BE92C9
:1001B0002449123EABAAAA2ABECDCCCC4C3E0000AC
:1001C0000080BEABAAAAAA3E00000000BF0000004B
:1001D000803F0000000000084178D3BB4387D11363
:1001E0003D190E3CC3BD4282AD2B3E68EC8276BE0B
:1001F000D98FE1A93E4C80EFFFBE01C4FF7F3F00D5
:10020000000000004229204E6F00412920596573EB
:1002100000536176652053657474696E67733F009F
:10022000696E207468652073706F6F6C6572206DE5
:10023000656E75007468652073706F6F6C2044691B
:100240006D656E73696F6E7300446F6E2774206600
:100250006F7267657420746F207365742000422983
:1002600020457869740041292053746F70007072C2
:100270006573732053746F70206174203120726530
:10028000762E004229204578697400412920426574
:1002900067696E0070726573732053746F702061AC
:1002A000742031207265762E00506C616365207277
:1002B0006F6C6C6572206F6E204469736B00526FB7
:1002C0006C6C65722F4469736B2054657374006D98
:1002D0006963726F737465702073657474696E6797
:1002E000730074686520776972696E6720616E6457
:1002F000006D616B652031207265762C2063686526
:10030000636B0049662073706F6F6C65722064695F
:10031000646E277400526F746174696E67203120B7
:100320007265762E2E2E0042292045786974004190
:100330002920426567696E00417474656D70746947
:100340006E67203120726576004D61726B20746893
:100350006520526F6C6C65722E20004D6963726F60
:1003600073746570696E6720546573740044292046
:1003700045786974004229204E6F00412920596553
:10038000730073706F6F6C657220646972204F4BDD
:100390003F004229204E6F004129205965730043D8
:1003A0006F6E74696E75653F0073706F6F6C657208
:1003B00020446972656374696F6E2E2E2E00442985
:1003C0002045584954004329205768656E204469E8
:1003D0007361626C656400412920456E61626C65E1
:1003E0002F44697361626C65004229204E6F0041A1
:1003F000292059657300436F6E74696E75653F00FF
:10040000666F6C6C6F77696E672074657374732E9A
:1004100000746F20706572666F726D20746865007D
:100420006D757374206265206672656520746F2037
:100430006D6F7665005741524E494E473A205468D9
:10044000652053706F6F6C6572004229204E6F00FB
:100450004129205965730053617665205365747492
:10046000696E67733F006D6963726F7374657020A6
:1004700073657474696E6773007468652077697258
:10048000696E6720616E64006D616B65203120725A
:1004900065762C20636865636B0049662074686527
:1004A000206175676572206469646E277400526FFD
:1004B000746174696E672031207265762E2E2E006D
:1004C0004229204578697400412920426567696E98
:1004D00000417474656D7074696E672031207265B7
:1004E00076004D61726B2074686520736861667474
:1004F0002E20004D6963726F73746570696E67209A
:100500005465737400442920457869740042292099
:100510004E6F00412920596573004175676572204F
:10052000646972656374696F6E204F4B3F004229A6
:10053000204E6F0041292059657300436F6E746926
:100540006E75653F00417567657220446972656329
:1005500074696F6E205465737400442920455849AE
:1005600054004329205768656E2044697361626CAA
:10057000656400412920456E61626C652F44697392
:1005800061626C65004229204E6F00412920596547
:100590007300436F6E74696E75653F00666F6C6CB7
:1005A0006F77696E672074657374732E00746F20A3
:1005B000706572666F726D20746865006D75737416
:1005C000206265206672656520746F206D6F7665A8
:1005D000005741524E494E473A20546865204175B4
:1005E000676572004229204E6F00412920596573CA
:1005F0000053746F7020457874727564696E673F3C
:1006000000526573657474696E6720454550524F9A
:100610004D2E2E2E00526573657474696E672074BA
:10062000686520454550524F4D2E2E2E0042292000
:100630004E6F0041292059657300576F756C642017
:10064000796F75206C696B6520746F2070726F63B1
:100650006565643F007468652064656661756C74E7
:100660002073657474696E67730073746F72656468
:100670002070726F66696C657320776974680077A3
:10068000696C6C206F766572777269746520616C35
:100690006C20005741524E494E473A2054686973C6
:1006A00020616374696F6E005741524E494E473A5C
:1006B000205468697320616374696F6E2077696C78
:1006C0006C206F766572776972746520616C6C203E
:1006D00073746F7265642070726F66696C657320E5
:1006E00077697468207468652064656661756C74E8
:1006F0002053657474696E67732E0050726F66695B
:100700006C6520536176656400536176696E67207D
:1007100070726F66696C652E2E2E00536176696E5D
:10072000672053657474696E677320666F722070FA
:10073000726F66696C65206E756D6265723A200035
:10074000436F6E66696775726174696F6E2053617D
:1007500076656400536176696E672E2E2E004669B9
:100760006E697368656420536F616B696E670054CE
:10077000696D652873292C20446961286D6D292CC9
:10078000206F75746665656452504D2C20737461DA
:1007900072766546656564657252504D2C20206105
:1007A0007567657252504D2C204D6F64652C206F1B
:1007B0007574666565644B702C206F75746665652D
:1007C000644B692C206F7574666565644B642C20DE
:1007D0006665656452617465286D2F6D696E292C9C
:1007E000206D657465727345787472756465640014
:1007F000CA13FFFF0100000000000000F817C1133A
:100800000000FFFF330200000F0000006D18000021
:10081000FFFF0B0B02000A00AE12B2130000FFFF35
:10082000C70A00000700000044160000FFFFE50AA9
:1008300001000D00000038160000FFFFE10A010072
:100840000D0000002C160000FFFFDD0A01000D0066
:10085000000020160000FFFFD90A01000D00000073
:100860001C180000FFFF310B00000C00690E0C1873
:100870000000FFFF350B00000C007A0EFC17000093
:10088000FFFF390B00000C008B0EEC170000FFFF80
:100890003D0B00000C009C0E63180000FFFF0F0BC7
:1008A00001000A00D90F57180000FFFF130B0100C9
:1008B0000C00E50FD9130000FFFF370200000F0006
:1008C000801291170000FFFF2B0200000F00C413DD
:1008D00092180000FFFFEB0A00000E0000008918CC
:1008E0000000FFFFFF0A02000C0000007718000064
:1008F000FFFF070B02000A0000004C180000FFFF7A
:100900001B0B02000C00BA1241180000FFFF170B6E
:1009100002000C00BA1236180000FFFF1F0B020085
:100920000C00BA122C180000FFFF2D0B00000C0069
:1009300000000F14FFFF0100000000000000FB1783
:1009400000140000FFFFCF0A00000F000000F013AA
:100950000000FFFF000000000300D70EE7130000B7
:10096000FFFF000000000300540ED9130000FFFF3A
:10097000370200000F00801244160000FFFFE50A56
:1009800001000D00000038160000FFFFE10A010021
:100990000D0000002C160000FFFFDD0A01000D0015
:1009A000000020160000FFFFD90A01000D00000022
:1009B0001C180000FFFF310B00000C00690E0C1822
:1009C0000000FFFF350B00000C007A0EFC17000042
:1009D000FFFF390B00000C008B0EEC170000FFFF2F
:1009E0003D0B00000C009C0E92180000FFFFEB0A6C
:1009F00000000E00000089180000FFFFFF0A02003F
:100A00000C00000077180000FFFF070B02000A002F
:100A100000006D180000FFFF0B0B02000A00AE1271
:100A200091170000FFFF2B0200000F00C413631892
:100A30000000FFFF0F0B01000A00D90F571800003C
:100A4000FFFF130B01000C00E50F4C180000FFFF27
:100A50001B0B02000C00BA1241180000FFFF170B1D
:100A600002000C00BA1236180000FFFF1F0B020034
:100A70000C00BA122C180000FFFF2D0B00000C0018
:100A800000006114FFFF0100000000000000FA17E1
:100A900052140000FFFFC90A00000F0000004416B6
:100AA0000000FFFFE50A01000D00000038160000FD
:100AB000FFFFE10A01000D0000002C160000FFFFFF
:100AC000DD0A01000D00000020160000FFFFD90A1A
:100AD00001000D0000001C180000FFFF310B00009A
:100AE0000C00690E0C180000FFFF350B00000C0015
:100AF0007A0EFC170000FFFF390B00000C008B0E74
:100B0000EC170000FFFF3D0B00000C009C0E3F1493
:100B10000000FFFF0000000003002A0E2C1400005C
:100B2000FFFF0000000003003F0E22140000FFFF43
:100B3000000000000300C90EA3170000FFFF000023
:100B400000000300A2129E170000FFFF000000003B
:100B50000300AA1291170000FFFF2B0200000F00F4
:100B6000C41392180000FFFFEB0A00000E00000003
:100B700089180000FFFFFF0A02000C000000771830
:100B80000000FFFF070B02000A0000006D180000C4
:100B9000FFFF0B0B02000A00000063180000FFFFBC
:100BA0000F0B01000A00000057180000FFFF130B95
:100BB00001000C0000004C180000FFFF1B0B02009E
:100BC0000C00000041180000FFFF170B02000C0092
:100BD000000036180000FFFF1F0B02000C00000091
:100BE0002C180000FFFF2D0B00000C0000007B14F0
:100BF000FFFF0100000000000000F917441600008C
:100C0000FFFFE50A01000D00000038160000FFFF9D
:100C1000E10A01000D0000002C160000FFFFDD0AB4
:100C200001000D00000020160000FFFFD90A01009E
:100C30000D0000001C180000FFFF310B00000C002D
:100C4000690E0C180000FFFF350B00000C007A0E37
:100C5000FC170000FFFF390B00000C008B0EEC1797
:100C60000000FFFF3D0B00000C009C0E6E14000006
:100C7000FFFF000000000300BB0E92180000FFFF02
:100C8000EB0A00000E00000089180000FFFFFF0AB9
:100C900002000C00000077180000FFFF070B0200A5
:100CA0000A0000006D180000FFFF0B0B02000A0095
:100CB000000091170000FFFF2B0200000F00C4137B
:100CC00063180000FFFF0F0B01000A000000571817
:100CD0000000FFFF130B01000C0000004C18000087
:100CE000FFFF1B0B02000C00000041180000FFFF7B
:100CF000170B02000C00000036180000FFFF1F0B4E
:100D000002000C0000002C180000FFFF2D0B00005B
:100D10000C000000FE18FFFF0100000000000000B2
:100D20000000EF18000004000000000000000000B8
:100D3000E518000020000000000000000000DB18A3
:100D4000000076000000000000000000D81801003C
:100D50000F00CE0C000001007511D51801000F0026
:100D6000E20C000001007B11D21801000F00F60C0C
:100D7000000001008111CF1801000F000A0D0000D2
:100D800001008711CC1801000F001E0D00000100AA
:100D90008D11C91801000F00320D000001009311E0
:100DA000C61801000F00460D000001009911C3187C
:100DB00001000F005A0D000001009F11C018010032
:100DC0000F006E0D00000100A511BC1801000F00FE
:100DD000820D00000100AB11AC1801000F000000F3
:100DE00000000000B111A4180400FFFF0000000083
:100DF0000000AD0E97180400FFFF00000000000087
:100E0000B51192180400FFFFEB0A00000E0000006D
:100E100089180400FFFFFF0A02000C00000081187F
:100E20000400FFFF030B02000C0000007718040011
:100E3000FFFF070B02000A0000006D180400FFFF0F
:100E40000B0B02000A00000063180400FFFF0F0BE9
:100E500001000A00000057180400FFFF130B0100F7
:100E60000C0000004C180400FFFF1B0B02000C00DC
:100E7000000041180400FFFF170B02000C000000E7
:100E800036180400FFFF1F0B02000C0000002C1896
:100E90000400FFFF2D0B00000C0000001C180400D4
:100EA000FFFF310B00000C0000000C180400FFFFD6
:100EB000350B00000C000000FC170400FFFF390B8D
:100EC00000000C000000EC170400FFFF3D0B0000C9
:100ED0000C000000D9170200FFFF00000000030013
:100EE0004D11CC1702002600000000000000000099
:100EF000C61702003E000000000000000000B81706
:100F0000020044000000000000000000B0170200D2
:100F100063000000000000000000A81702006D0040
:100F20000000000000000000A3172100FFFF0000E8
:100F300000000300A2129E172100FFFF0000000026
:100F40000300AA1291172100FFFF2B0200000F00DF
:100F5000C41385172100FFFF000000000300E41206
:100F600076172100FFFF31020000060000006C1719
:100F70002100FFFF000000000300F0125F172100B6
:100F8000FFFF2F020000060000006D182100FFFF88
:100F90000B0B02000A0000005A172100FFFF00009F
:100FA00000000300E9114C172100FFFFB30B000004
:100FB0000600000042172100FFFFB50B02000A00E7
:100FC000000034172100FFFFB90B000006000000ED
:100FD00026172100FFFFBB0B0000060000001B17B7
:100FE0002100FFFFBD0B0000060000000E172100CE
:100FF000FFFFBF0B00000600000000172100FFFFED
:10100000C10B000006000000F6162100FFFFC30B15
:10101000000004000000EC162100FFFFC40B0000DC
:1010200006000000DA162100FFFFC60B00000600D4
:101030000000CD162100FFFFC80B000006000000D5
:10104000C1162100FFFFCC0B000006000000B51602
:101050002100FFFFCE0B000006000000A8162100B3
:10106000FFFFD00B0000060000009A162100FFFFD2
:10107000D20B0000060000008F162200FFFF0000C8
:1010800000000300FC1787162200FFFFD40B0000AE
:10109000060000007D162200FFFFD60B00000600B0
:1010A000000073162200FFFFD80B000004000000B0
:1010B0006C162200FFFFD90B00000400000061162F
:1010C0002200FFFFDA0B02000A0000005016230086
:1010D000FFFF3F0200000F00F21144162300FFFF44
:1010E000E50A01000D00000038162300FFFFE10AA9
:1010F00001000D0000002C162300FFFFDD0A010097
:101100000D00000020162300FFFFD90A01000D008A
:1011100000001C182300FFFF2E0C00000C00000034
:101120000C182300FFFF5C0C00000C000000FC17F3
:101130002300FFFF8A0C00000C000000EC172300C6
:10114000FFFFB80C00000C00000013162300FFFF87
:10115000060C00000600000009162300FFFF080C23
:1011600000000C000000FF152300FFFF0C0C000026
:101170000C000000F9152300FFFF100C02000C000A
:101180000000F3152300FFFF140C02000C00000008
:10119000ED152300FFFF180C02000C000000E01505
:1011A0002300FFFF340C000006000000D6152300CA
:1011B000FFFF360C00000C000000CC152300FFFFE1
:1011C0003A0C00000C000000C6152300FFFF3E0C87
:1011D00002000C000000C0152300FFFF420C0200BB
:1011E0000C000000BA152300FFFF460C02000C00A3
:1011F0000000B0152300FFFF640C00000C0000008D
:10120000A6152300FFFF680C00000C000000A015CD
:101210002300FFFF6C0C02000C0000009A15230055
:10122000FFFF700C02000C00000094152300FFFF6C
:10123000740C02000C0000008A152300FFFF920CC2
:1012400000000C00000080152300FFFF960C00003A
:101250000C0000007A152300FFFF9A0C02000C001E
:10126000000074152300FFFF9E0C02000C0000001C
:101270006E152300FFFFA20C02000C000000621597
:101280002400FFFF3B0200000F0055125E152400F2
:10129000FFFFD50A00000A00000053152300FFFFDE
:1012A000000000000300BE124B152400FFFFDE0B00
:1012B00000000600000041152400FFFFE00B0000C5
:1012C0000600000037152400FFFFE20B00000400B9
:1012D00000002A152400FFFFE30B000004000000BB
:1012E0001C152400FFFFE40B02000A000000141587
:1012F0002400FFFFE80B02000C0000000C15240086
:10130000FFFFEC0B02000C000000FF142500FFFFA4
:101310000000000003007F1AF7142500FFFFF00B08
:10132000000006000000ED142500FFFFF20B000096
:1013300006000000E3142500FFFFF40B000004008A
:101340000000DC142500FFFFF50B00000400000086
:10135000D0142500FFFFF60B02000A000000C414A1
:101360002500FFFFFA0B02000A000000B714250059
:10137000FFFFFE0B02000A000000A9142500FFFF7A
:10138000020C02000A00000091170300FFFF2B026D
:1013900000000F00C41398140300FFFF0000FFFFBC
:1013A0000300280E8B140300FFFF00000000030061
:1013B000D6164772616D73204578747275646564E2
:1013C000004469616D657465720045787472756476
:1013D000696E672E202E202E005374617276652070
:1013E000466565646572004164642054696D6500FA
:1013F00046696C616D656E74204C6F616465640054
:1014000054696D652052656D61696E696E67004C47
:101410006F61642046696C616D656E742E202E20AC
:101420002E00536B697020536F616B0044656372CB
:101430006561736520536F616B2054696D65004968
:101440006E63726561736520536F616B2054696DC3
:10145000650054696D652052656D61696E696E67DE
:1014600000536F616B696E672E202E202E00536B28
:1014700069702050726568656174005072656865B6
:101480006174696E672E202E202E0052657365747C
:1014900020454550524F4D004D6561737572652072
:1014A00046696C616D656E7400526F6C6C6572207C
:1014B0005261646975730054726176657273652058
:1014C0004C656E00436F72652052616469757300EC
:1014D0004469736B2052616469757300456E616283
:1014E0006C6500446972656374696F6E005374655E
:1014F00070204D6F64650050696E20536574005410
:101500006573742053706F6F6C6572004D696E2047
:1015100052504D004D61782052504D00526F6C6C0E
:1015200065722052616469757300456E61626C6515
:10153000204C6F67696300446972656374696F6EFC
:101540000053746570204D6F64650050696E2053C0
:1015500065740053656E64203120526576005250E8
:101560004D0052756E204F757466656564005A347F
:10157000204B64005A34204B69005A34204B7000D1
:101580005A34204D696E204443005A34204D61780E
:10159000204443005A33204B64005A33204B6900E7
:1015A0005A33204B70005A33204D696E204443005B
:1015B0005A33204D6178204443005A32204B640056
:1015C0005A32204B69005A32204B70005A32204D5B
:1015D000696E204443005A32204D61782044430014
:1015E0005A322054696D652062617365005A31205A
:1015F0004B64005A31204B69005A31204B70005A1D
:1016000031204D696E204443005A31204D617820CD
:101610004443005A312054696D652062617365004E
:101620005A6F6E6520342054656D70005A6F6E6578
:1016300020332054656D70005A6F6E65203220543F
:10164000656D70005A6F6E6520312054656D7000B5
:10165000416374697661746520486561746572736D
:10166000004765617220526174696F00456E616266
:101670006C6500446972656374696F6E00537465CC
:1016800070204D6F64650050696E2053657400547E
:10169000657374204175676572004465626F756E8D
:1016A00063652054696D65005374617274757020B0
:1016B00054696D65004D617846696C6C54696D655F
:1016C000004D696E46696C6C54696D65004D6178BA
:1016D000447574794379636C6500537461727475F1
:1016E0007020447574794379636C6500447574792E
:1016F0004379636C6500446972656374696F6E0059
:101700004F76657220526F746174696F6E00486F16
:101710006D696E672044656C617900537465702053
:1017200044656C61790044756D7020506F73697405
:10173000696F6E00486F6D6520506F736974696FD3
:101740006E004C756D70204D61737300536C617643
:101750006520416464726573730053746F70005444
:10176000696D6520746F2073656E640053656E64E7
:101770002054696D65004379636C657320746F2034
:1017800073656E640053656E64204379636C6573A2
:10179000004665656420506C61737469630044752C
:1017A0006D7000486F6D650053706F6F6C657200EF
:1017B0004F757466656564004865617465722043A1
:1017C0006F6E666967004175676572005374617278
:1017D0007665466565646572005361766520436F82
:1017E0006E66696775726174696F6E005A6F6E65B7
:1017F0002034205365742054656D70005A6F6E65F7
:101800002033205365742054656D70005A6F6E65E7
:101810002032205365742054656D70005A6F6E65D8
:101820002031205365742054656D7000536F616BD7
:101830002054696D65004F75746665656420506459
:10184000004F757466656564204B69004F7574665A
:10185000656564204B70004F757466656564205241
:10186000504D0041756765722052504D00477261BE
:101870006D732F4D696E00546F6C6572616E636598
:101880000044656E73697479004469616D657465BF
:1018900072004E616D6500536176652050726F660F
:1018A000696C6500457874727564650044656661AD
:1018B000756C742050726F66696C65003130290058
:1018C0003929003829003729003629003529003404
:1018D0002900332900322900312900417578696CCB
:1018E000696172790043616C696272617465005369
:1018F000656C6563742050726F66696C65004D613C
:10190000696E204D656E7500536176696E67204380
:101910006F6E6669672E00F5031600F3031900F178
:10192000031E00E9032800E2033200D2033C00C298
:10193000034600AD03500091035A006F0364004852
:10194000036E0016037800E4028200AA028C007184
:101950000296004302A0000102AA00CA01B4008B53
:1019600001BE005201C8002C01D2000901DC00EBCD
:1019700000E600C800F000AC00FA00960004018206
:10198000000E01720018016300220153002C0100B7
:10199000000A0B02090C0D0E0807030401000000E9
:1019A0000000000000000000000000000000000037
:1019B00000000000000000000000001211100000F4
:1019C0000000000000000000000000000000000017
:1019D0000000000000010210202008081020401024
:1019E00020408002010201080402010102040810E3
:1019F0002040808040201008040201800402018001
:101A00004020100804020108040201010204081029
:101A100020408001020408102040800505050507CC
:101A20000508080808020202020A0A080804040459
:101A30000401010101010101010303030303030385
:101A400003040707070C0C0C0C0C0C0C0C02020214
:101A50000206060606060606060B0B0B0B0B0B0B07
:101A60000B000020002300260029002C002F00324C
:101A70000000010000030106010901000022002509
:101A80000028002B002E0031003400020100000568
:101A90000108010B0100002100240027002A002D6D
:101AA000003000330001010000040107010A014E6B
:101AB000414E494E495459494E46CDCCCC3D0AD7AA
:101AC000233C17B7D13877CC2B329595E6241FB13C
:101AD0004F0A000020410000C84200401C4620BCC4
:101AE000BE4CCA1B0E5AAEC59D7400407A10F35A04
:101AF00000A0724E18090010A5D4E80000E876484E
:101B0000170000E40B54020000CA9A3B000000E1F9
:101B1000F505000080969800000040420F0000008C
:101B2000A08601000000102700000000E80300006C
:101B300000006400000000000A0000000000010036
:101B4000000000002C76D888DC674F0823DFC1DF57
:101B5000AE59E1B1B796E5E3E453C63AE65199765A
:101B600096E8E6C28426EB898C9B62ED407C6FFC94
:101B7000EFBC9C9F40F2BAA56FA5F490055A2AF7D6
:101B80005C936B6CF9676DC11BFCE0E40D47FEF5DF
:101B900020E6B500D0ED902E030094357705008047
:101BA000841E080000204E0A000000C80C333333A6
:101BB000330F986E12831141EF8D2114893BE65546
:101BC00016CFFEE6DB18D1844B381BF77C1D901D29
:101BD000A4BBE424203284725E228100C9F124EC8B
:101BE000A1E53D2711159741584811241FBECFEF9D
:101BF000D1E2DEBFCDBF00E00CBF14E0A0E0B2E058
:101C0000E2EEF6EA00E00BBF02C007900D92AA3D9B
:101C1000B107D9F72FE0AAEDB4E001C01D92A531BC
:101C2000B207E1F71BE1CAEEDBE100E006C0229754
:101C30000109FE010BBF0E94E44EC43ED10780E0C3
:101C40000807A9F70E949C480C946F530C9400005D
:101C5000089508958091FE049091FF04A0910005DD
:101C6000B0910105805A9541AF4FBF4F8093FE045C
:101C70009093FF04A0930005B0930105089580910F
:101C8000FE049091FF04A0910005B09101058056DB
:101C90009A4EA109B1098093FE049093FF04A0938A
:101CA0000005B093010508958091F6049091F70422
:101CB000A091F804B091F904805A9541AF4FBF4FFD
:101CC0008093F6049093F704A093F804B093F9047A
:101CD00008958091310B9091320BA091330BB0910C
:101CE000340B80932E0C90932F0CA093300CB09358
:101CF000310C08958091350B9091360BA091370BE4
:101D0000B091380B80935C0C90935D0CA0935E0CAB
:101D1000B0935F0C08958091390B90913A0BA0918C
:101D20003B0BB0913C0B80938A0C90938B0CA0934F
:101D30008C0CB0938D0C089580913D0B90913E0BCF
:101D4000A0913F0BB091400B8093B80C9093B90CCD
:101D5000A093BA0CB093BB0C089581E090E09093EF
:101D6000C60A8093C50A8CE296E090930B05809397
:101D70000A050C94263083E090E09093C60A809385
:101D8000C50A8CEC95E090930B0580930A050C94A2
:101D9000263087E090E09093C60A8093C50A8CE0D5
:101DA00095E090930B0580930A050C94263087E00C
:101DB00090E09093C60A8093C50A8CE095E09093DA
:101DC0000B0580930A050C942630CF92DF92EF9298
:101DD000FF9282E39AE00E94161E82E899E00E9438
:101DE0008E248AEF98E00E948E2482E798E00E9479
:101DF0008E248AEE97E00E948E2482E899E00E9469
:101E0000AA266B017C0120E030E040E450E46091C0
:101E1000310B7091320B8091330B9091340B0E94F7
:101E2000D04A9B01AC01C701B6010E94D74C1816DD
:101E30000CF073C08AEF98E00E94AA266B017C0127
:101E400020E030E040E450E46091350B7091360BB7
:101E50008091370B9091380B0E94D04A9B01AC01C6
:101E6000C701B6010E94D74C18160CF056C082E785
:101E700098E00E94AA266B017C0120E030E040E45B
:101E800050E46091390B70913A0B80913B0B90912B
:101E90003C0B0E94D04A9B01AC01C701B6010E94D5
:101EA000D74C1816D4F58AEE97E00E94AA266B014B
:101EB0007C0120E030E040E450E460913D0B709103
:101EC0003E0B80913F0B9091400B0E94D04A9B01AA
:101ED000AC01C701B6010E94D74C1816F4F461E0BA
:101EE00070E082E39AE00E94121E83E090E09093FB
:101EF000C60A8093C50A8CEC95E090930B058093FD
:101F00000A050E94263080910A0590910B05FF90EA
:101F1000EF90DF90CF900C94C82EFF90EF90DF9061
:101F2000CF900895CF92DF92EF92FF9260E373E03B
:101F300086E79EE00E9420490E94EE4360930205DE
:101F40007093030580930405909305050E94D24B7E
:101F50006B017C0120E030E040E752E460912D0B02
:101F600070912E0B80912F0B9091300B0E94DB4CC7
:101F700020E030E04AE754E40E94DB4C9B01AC01D6
:101F8000C701B6010E94D14A0E94A64B6093FE048D
:101F90007093FF04809300059093010584E090E026
:101FA0009093C60A8093C50AFF90EF90DF90CF9080
:101FB000089540910F0B5091100B6091110B70918F
:101FC000120B86ED97E00C94F23B81E597E00E94BE
:101FD0007F334091130B5091140B6091150B70914E
:101FE000160B81E597E00C945933CF92DF92EF9274
:101FF000FF9280910002882381F120E030E0A90166
:1020000060910F0B7091100B8091110B9091120B3E
:102010000E94D74C1816FCF48091E80481111BC073
:102020008CEE96E00E940E3886ED97E00E942D3CE3
:1020300081E08093E80481E090E09093E70480934E
:10204000E6040E94EE436093E2047093E3048093FD
:10205000E4049093E504109200028091E804882340
:1020600009F46BC00E94EE43C090E204D090E304F8
:10207000E090E404F090E5046C157D058E059F0565
:1020800008F45BC08091E6049091E70480399140A8
:102090000CF053C082E899E00E948E248AEF98E009
:1020A0000E948E2482E798E00E948E248AEE97E0B8
:1020B0000E948E2420E030E048EC53E460910F0B46
:1020C0007091100B8091110B9091120B0E94394B63
:1020D0006B017C016091E6047091E704882777FD2D
:1020E0008095982F0E94D44B9B01AC01C701B6018B
:1020F0000E94DB4CAB01BC0186ED97E00E94F23BF5
:102100008091E6049091E70401969093E704809310
:10211000E6048091E2049091E304A091E404B0917C
:10212000E5040596A11DB11D8093E2049093E3049C
:10213000A093E404B093E50474C08091E80488237C
:1021400041F08091E6049091E704803991400CF4CD
:1021500068C01092E80481E080930002C090130BE5
:10216000D090140BE090150BF090160B20E030E0AF
:10217000A901C701B6010E94D74C1816E4F4B701B3
:10218000A60181E597E00E94593360E070E081E5A7
:1021900097E00E945C3381E597E00E947F338DE1F8
:1021A00097E00E94EA388DE197E00E949D398DE129
:1021B00097E00E94163A0E94EE436B017C01609307
:1021C000FA047093FB048093FC049093FD04209127
:1021D000CA0C3091CB0C4091CC0C5091CD0CA0E6A8
:1021E000BAEE0E94DA4E6C0D7D1D8E1D9F1D609310
:1021F000F6047093F7048093F8049093F90486E052
:1022000090E09093C60A8093C50A8CE695E090937F
:102210000B0580930A05FF90EF90DF90CF900C9410
:10222000C82EFF90EF90DF90CF9008950F931F93EB
:1022300082E39AE00E94161E82E899E00E948E24B2
:102240008AEF98E00E948E2482E798E00E948E2414
:1022500082E798E00E948E2481E597E00E949F33F8
:102260000E94EE430091F6041091F7042091F804C7
:102270003091F90400531547210931090617170752
:102280002807390730F463E070E082E39AE00E94A7
:10229000121E1F910F910C94EE438DEA9AE00E945A
:1022A000D53F64E577E08DEA9AE00E94D04864EF7C
:1022B00071E080E090E00E941D4489EE9AE00E9467
:1022C00051218DEA9AE00E94D53F60E477E08DEAE3
:1022D0009AE00E94D04860ED77E080E090E00E94B4
:1022E0001D448CE896E00C94C82E60E070E089EE06
:1022F0009AE00C94DD2161E070E089EE9AE00C94A4
:10230000DD2162E070E089EE9AE00C94DD2163E06B
:1023100070E089EE9AE00C94DD2164E070E089EED3
:102320009AE00C94DD2165E070E089EE9AE00C946F
:10233000DD2166E070E089EE9AE00C94DD2167E033
:1023400070E089EE9AE00C94DD2168E070E089EE9F
:102350009AE00C94DD2169E070E089EE9AE00C943B
:10236000DD2189EE9AE00C947D1E6BE177E086E733
:102370009EE00E94D0486091E90A7091EA0A4AE022
:1023800050E086E79EE00E94D0498DEA9AE00E94E4
:10239000D53F69E077E08DEA9AE00E94D04889EE67
:1023A0009AE00E94902164EF71E080E090E00E944A
:1023B0001D448DEA9AE00E94D53F6BEF76E08DEAEE
:1023C0009AE00E94D04860ED77E080E090E00C94C5
:1023D0001D448AE09AE00E947E3B1092C60A109249
:1023E000C50A0895809140028636F9F46BE373E0E4
:1023F0008FE392E00E94354F61E070E082E899E05F
:102400000E94A72661E070E08AEF98E00E94A7266C
:1024100061E070E082E798E00E94A72661E070E04A
:102420008AEE97E00E94A7263AC06EE373E08FE33E
:1024300092E00E94354F60E070E082E899E00E94EF
:10244000A72660E070E08AEF98E00E94A72660E08F
:1024500070E082E798E00E94A72660E070E08AEED4
:1024600097E00E94A72640E050E0BA0182E899E098
:102470000E94272640E050E0BA018AEF98E00E94CF
:10248000272640E050E0BA0182E798E00E94272624
:1024900040E050E0BA018AEE97E00E942726809142
:1024A0000A0590910B050C94C82E80913C0286364B
:1024B000B9F46BE373E08BE392E00E94354F4091F7
:1024C000D50A5091D60A6091D70A7091D80A81E551
:1024D00097E00E94593381E597E00E947F330AC05C
:1024E0006EE373E08BE392E00E94354F81E597E065
:1024F0000E947C3380910A0590910B050C94C82EA4
:102500008AE09AE00E94DA3B67E372E08AE09AE0B0
:102510000E94243A67E573E086E79EE00E94204926
:1025200062E473E086E79EE00E94F54867E372E0AC
:1025300086E79EE00E94204967E573E086E79EE01B
:102540000C9420498AE09AE00E94293A8AE09AE0B5
:102550000C94AD3A8AE09AE00C94C03A40910B0B8F
:1025600050910C0B60910D0B70910E0B8AE09AE06C
:102570000C94D33A81E597E00C945E33CF93DF93CC
:1025800081E597E00E947F33C0E8DCE061E08BE00A
:102590000E94244688EE93E00E94424460E08BE073
:1025A0000E94244688EE93E00E944244219771F7EE
:1025B00081E597E00E947C3380910A0590910B059C
:1025C000DF91CF910C94C82E8AE09AE00E94293ABC
:1025D00060913102709132028AE09AE00C94FD3AE7
:1025E0008AE09AE00E94293AA0912F02B09130022D
:1025F00020E63AEE0E94D44EAB01BC018AE09AE09C
:102600000C942E3B0E94EE436093EA047093EB041B
:102610008093EC049093ED0482E39AE00E94161EEE
:1026200082E899E00E948E248AEF98E00E948E242E
:1026300082E798E00E948E248AEE97E00E948E2422
:102640008091FE049091FF04A0910005B0910105D6
:1026500088589341A109B1094091EA045091EB04D3
:102660006091EC047091ED04481759076A077B07E5
:1026700068F08091E904811109C062E070E082E3B2
:102680009AE00E94121E81E08093E9044091EA04DE
:102690005091EB046091EC047091ED048091FE0484
:1026A0009091FF04A0910005B091010548175907CA
:1026B0006A077B0740F11092E90467E573E086E75B
:1026C0009EE00E9420496EE577E086E79EE00E944A
:1026D000104967E573E086E79EE00E94204987E0A5
:1026E00090E09093C60A8093C50A8CE095E09093A1
:1026F0000B0580930A050E94263080910A0590916F
:102700000B050C94C82E08950F931F9382E39AE053
:102710000E94161E82E899E00E948E248AEF98E0BB
:102720000E948E2482E798E00E948E2481E597E043
:102730000E949F330E94EE430091DE041091DF045B
:102740002091E0043091E10460177107820793073C
:10275000C0F08DE197E00E949D398091DE04909158
:10276000DF04A091E004B091E10488519C4FAF4F89
:10277000BF4F8093DE049093DF04A093E004B093F6
:10278000E1041F910F9108958AE09AE00E94BB3BFB
:102790008091310A882319F06BE373E002C06EE385
:1027A00073E08BE292E00C94354F6115710581F076
:1027B000DB010D900020E9F7AD0141505109461BA6
:1027C000570BDC01ED91FC910280F381E02D19940F
:1027D00080E090E008956FE677E086E79EE00C9455
:1027E000104977DA87DA97DAA7DA0E94EE43609326
:1027F000060570930705809308059093090540E04E
:1028000050E064EB72E482E899E00E94272640E001
:1028100050E064EB72E48AEF98E00E94272640E0E3
:1028200050E06FE773E482E798E00E94272640E0DB
:1028300050E06FE773E48AEE97E00E94272661E09C
:1028400070E082E899E00E94A72661E070E08AEFDC
:1028500098E00E94A72661E070E082E798E00E947D
:10286000A72661E070E08AEE97E00E94A726B3DF1A
:1028700082E090E09093C60A8093C50A089586EDA1
:1028800097E00E942D3C40910F0B5091100B6091EE
:10289000110B7091120B86ED97E00E94F23B409174
:1028A000130B5091140B6091150B7091160B81E571
:1028B00097E00E94593360E070E081E597E00E9464
:1028C0005C3381E597E00E947F3382E39AE00E94C7
:1028D0006C1E0E94EE436093F2047093F3048093A5
:1028E000F4049093F50477DF81E597E00E948A3342
:1028F00088E090E09093C60A8093C50A089526E088
:1029000040E052EC61E070E086E79EE00E94904774
:102910008DEA9DE00E94614120E044E064E18DEA9F
:102920009AE00E94F23F8DEA9AE00E94D53F8CE83F
:1029300096E090930B0580930A0566E070E082E3D1
:102940009AE00E94121E1092C60A1092C50A86EDE5
:1029500097E00E94663C80910A0590910B050C94CB
:102960002630CF92DF92EF92FF920F931F93CF9377
:10297000DF9300D000D0CDB7DEB76C01CB01BA0138
:1029800028EE33E040E050E00E94AC4EC9016CE319
:1029900070E00E94994E7C01882777FD8095982FE2
:1029A0000E94D44B8E010C5F1F4F20E042E00E943A
:1029B0000B4FB701882777FD8095982F0E94D44B45
:1029C0000350110920E042E00E940B4FBE016C5FF2
:1029D0007F4FC6010E94354FC601FC010196208140
:1029E0002111FBCF8AE381938AE0E816F10414F405
:1029F00080E38983DE0111968D91882311F0819304
:102A0000FBCFC60126960FB6F894DEBF0FBECDBF32
:102A1000DF91CF911F910F91FF90EF90DF90CF90BA
:102A20000895CF92EF920F931F9389EE9AE00E9440
:102A3000222280E2C82E9EE1E92E0CE12AE148E143
:102A400066E18DEA9AE00E94954024E0E22E04E0DF
:102A500021E132E045E152E061E072E08FE39AE08B
:102A60000E94C12682E39AE00E94061E69EE7AE087
:102A70008AE09AE00E941C3A66E07CE082E899E0F5
:102A80000E94D32364E37CE08AEF98E00E94D32382
:102A900062E67CE082E798E00E94D32360E97CE074
:102AA0008AEE97E00E94D3234091D40B5091D50B2E
:102AB00069EE7AE086ED97E00E94A93C69EE7AE043
:102AC00081E597E00E94FB3241E557E069EE7AE04C
:102AD0008DE197E00E941A3869EE7AE08CEE96E07C
:102AE0000E9408380FE31AE02DEA3AE049E750E087
:102AF00064E17DE08CE896E00E949E292DEA3AE0B0
:102B000045E150E06EEE7BE08CE296E00E949E296B
:102B10002DEA3AE04AE150E062E87AE08CEC95E098
:102B20000E949E292DEA3AE048E150E062E379E014
:102B30008CE695E00E949E292DEA3AE047E150E0BC
:102B400060EF77E08CE095E00E949E291F910F9145
:102B5000EF90CF900895CF92DF92EF92FF920F9374
:102B60001F938FE39AE00E948B2980933E0A86E7A9
:102B70009EE00E9481461816190634F486E79EE00E
:102B80000E949A4680933E0A80913E0A833489F1DE
:102B9000ACF48433E1F16CF48A3209F43FC0813340
:102BA00009F049C080910A0590910B050E948E2A78
:102BB00042C0813481F08234A9F03DC0813759F0A0
:102BC0002CF48434E9F08536A1F035C08237C1F0A9
:102BD000873741F030C080910A0590910B050E9423
:102BE0008F2F29C080910A0590910B050E94C22F5A
:102BF00022C080910A0590910B050E94A1321BC052
:102C000080910A0590910B050E94F12F14C08091CC
:102C10000A0590910B050E940F2B0DC020E044E0A7
:102C200064E18DEA9AE00E94F23F80910A0590915A
:102C30000B050E94C82EE091C50AF091C60AEE0F5E
:102C4000FF1FE75EFD4F0190F081E02D199582E8AE
:102C500099E00E948E248AEF98E00E948E2482E7F9
:102C600098E00E948E248AEE97E00E948E240E94B3
:102C7000EE436093DA047093DB048093DC0490935A
:102C8000DD04C090EE04D090EF04E090F004F090EA
:102C9000F1046C157D058E059F0508F480C082E85F
:102CA00099E00E94AA266093E50A7093E60A809351
:102CB000E70A9093E80A8AEF98E00E94AA266093B8
:102CC000E10A7093E20A8093E30A9093E40A82E7B0
:102CD00098E00E94AA266093DD0A7093DE0A809332
:102CE000DF0A9093E00A8AEE97E00E94AA2660939A
:102CF000D90A7093DA0A8093DB0A9093DC0A8091F8
:102D0000C50A9091C60A0497A9F4C090FE04D09019
:102D1000FF04E0900005F09001050E94EE4397014A
:102D20008601061B170B280B390BB901A80189EC8A
:102D30009AE017DE8091C50A9091C60A0697A9F419
:102D4000C090F604D090F704E090F804F090F904F5
:102D50000E94EE4397018601061B170B280B390BC7
:102D6000B901A8018FEC9AE0FCDD0E94EE436851A6
:102D70007C4F8F4F9F4F6093EE047093EF048093CE
:102D8000F0049093F10480910A0590910B051F9136
:102D90000F91FF90EF90DF90CF900C94C82E1F9171
:102DA0000F91FF90EF90DF90CF900895CF93DF9336
:102DB00068EA76E086E79EE00E9410498DEA9AE094
:102DC0000E94D53F63E976E08DEA9AE00E94D04800
:102DD00041E060E08DEA9AE00E94DA3F6FE776E03A
:102DE0008DEA9AE00E94D04842E060E08DEA9AE0E5
:102DF0000E94DA3F6AE676E08DEA9AE00E94D048C7
:102E000043E060E08DEA9AE00E94DA3F65E576E013
:102E10008DEA9AE00E94D04868E873E180E090E093
:102E20000E941D448DEA9AE00E94D53F6AE376E055
:102E30008DEA9AE00E94D04841E060E08DEA9AE095
:102E40000E94DA3F63E376E08DEA9AE00E94D04880
:102E500042E060E08DEA9AE00E94DA3F6DE276E0BF
:102E60008DEA9AE00E94D0488FE39AE00E948B2975
:102E700080933E0A86E79EE00E9481461816190656
:102E800034F486E79EE00E949A4680933E0A809141
:102E90003E0A813449F565E176E086E79EE00E94CE
:102EA00010498DEA9AE00E94D53F61E076E08DEA14
:102EB0009AE00E94D04889EE9AE0BFD789EE9AE066
:102EC0000E94512189EE9AE018D7C0E0D0E0D0935B
:102ED000EA0AC093E90A89EE9AE00E9490212196BD
:102EE000CA30D105A1F702C081E001C080E0909115
:102EF0003E0A923411F08111B7CF8CE896E0DF9151
:102F0000CF910C94C82ECF93DF938DEA9AE00E9464
:102F1000D53F61EF75E08DEA9AE00E94D04841E02C
:102F200060E08DEA9AE00E94DA3F6AEE75E08DEA91
:102F30009AE00E94D04842E060E08DEA9AE00E9468
:102F4000DA3F64EE75E08DEA9AE00E94D048CCE862
:102F5000D6E08FE39AE00E948B2980933E0A86E7B1
:102F60009EE00E9481461816190634F486E79EE01A
:102F70000E949A4680933E0A80913E0A893711F05A
:102F8000813451F586ED97E00E94663C81E597E03B
:102F90000E947C338AE09AE00E947E3B82E899E0BE
:102FA0000E947C268AEF98E00E947C2682E798E0C7
:102FB0000E947C268AEE97E00E947C268DE197E0B5
:102FC0000E94183A1092C60A1092C50AD0930B05B7
:102FD000C0930A0580E001C081E090913E0A9E36D0
:102FE00021F0923411F08111B4CFDF91CF91089587
:102FF0008ACF89CF88CF87CFCF93DF938DEA9AE0AE
:103000000E94D53F61ED75E08DEA9AE00E94D048BC
:1030100041E060E08DEA9AE00E94DA3F6CEB75E0F7
:103020008DEA9AE00E94D04842E060E08DEA9AE0A2
:103030000E94DA3F6DEA75E08DEA9AE00E94D0487E
:1030400043E060E08DEA9AE00E94DA3F6CE975E0C7
:103050008DEA9AE00E94D04868E873E180E090E051
:103060000E941D448DEA9AE00E94D53F62E975E016
:103070008DEA9AE00E94D04841E060E08DEA9AE053
:103080000E94DA3F6BE875E08DEA9AE00E94D04832
:1030900042E060E08DEA9AE00E94DA3F65E875E080
:1030A0008DEA9AE00E94D0488FE39AE00E948B2933
:1030B00080933E0A86E79EE00E9481461816190614
:1030C00034F486E79EE00E949A4680933E0A8091FF
:1030D0003E0A813439F1823439F71CC0813409F455
:1030E00045C08FE39AE00E948B2980933E0A86E7D1
:1030F0009EE00E9481461816190634F486E79EE089
:103100000E949A4680933E0A80913E0A8334C9F118
:10311000843421F780910A0590910B05DF91CF91BE
:103120000C94C82E8DEA9AE00E94D53F63E775E0C3
:103130008DEA9AE00E94D04841E060E08DEA9AE092
:103140000E94DA3F62E675E08DEA9AE00E94D0487C
:1031500042E060E08DEA9AE00E94DA3F6AE575E0BD
:103160008DEA9AE00E94D048C1E0BBCF86ED97E09F
:10317000CC2321F00E942D3CC0E0B3CF0E94663CDE
:10318000F3CFC11106C08091D90B91E089278093BC
:10319000D90B8DEA9AE00E94D53F65E475E08DEA8F
:1031A0009AE00E94D04868E873E180E090E00E94D5
:1031B0001D448DEA9AE00E94D53F6BE375E08DEAED
:1031C0009AE00E94D04841E060E08DEA9AE00E94D7
:1031D000DA3F64E375E08DEA9AE00E94D04842E06D
:1031E00060E08DEA9AE00E94DA3F6EE275E08DEAD7
:1031F0009AE00E94D0488FE39AE00E948B29809346
:103200003E0A86E79EE00E9481461816190634F4AD
:1032100086E79EE00E949A4680933E0A80913E0A8D
:10322000813419F0823439F775CF86ED97E00E942A
:103230002D3C40E050E060E87FE386ED97E00E949F
:10324000F23B8DEA9AE00E94D53F6AE175E08DEA93
:103250009AE00E94D04841E060E08DEA9AE00E9446
:10326000DA3F63E175E08DEA9AE00E94D04842E0DF
:1032700060E08DEA9AE00E94DA3F6DE075E08DEA49
:103280009AE00E94D04843E060E08DEA9AE00E9414
:10329000DA3F65E075E08DEA9AE00E94D048D1E01F
:1032A0008FE39AE00E948B2980933E0A86E79EE096
:1032B0000E9481461816190634F486E79EE00E94A3
:1032C0009A4680933E0A80913E0A823409F44AC0AD
:1032D000843409F451C0813419F7CC2309F386ED05
:1032E00097E00E94663C8DEA9AE00E94D53F63EF2A
:1032F00074E08DEA9AE00E94D04868E873E180E0CB
:1033000090E00E941D448DEA9AE00E94D53F62EE53
:1033100074E08DEA9AE00E94D04841E060E08DEAD6
:103320009AE00E94DA3F61ED74E08DEA9AE00E9433
:10333000D04842E060E08DEA9AE00E94DA3F68EC13
:1033400074E08DEA9AE00E94D04843E060E08DEAA4
:103350009AE00E94DA3F60EC74E08DEA9AE00E9405
:10336000D04816C08091D80B8D278093D80B86ED5E
:1033700097E00E943F3D94CF86ED97E00E94663C27
:10338000C9CE80913E0A8134B9F0823409F4C2CEAC
:103390008FE39AE00E948B2980933E0A86E79EE0A5
:1033A0000E9481461816190664F786E79EE00E947F
:1033B0009A4680933E0AE5CF8DEA9AE00E94D53F77
:1033C0006EEA74E08DEA9AE00E94D04886ED97E0BC
:1033D0000E942D3C61E086E00E94EB4586ED97E07F
:1033E0000E942D3C40E050E060E271E486ED97E001
:1033F0000E94F23B60E777E180E090E00E941D448C
:1034000086ED97E00E94663C8DEA9AE00E94D53FE7
:103410006AE974E08DEA9AE00E94D04841E060E0F9
:103420008DEA9AE00E94DA3F68E874E08DEA9AE05B
:103430000E94D04842E060E08DEA9AE00E94DA3FC4
:1034400069E774E08DEA9AE00E94D04843E060E0CA
:103450008DEA9AE00E94DA3F66E674E08DEA9AE02F
:103460000E94D04868E873E180E090E00E941D442B
:103470008DEA9AE00E94D53F67E574E08DEA9AE014
:103480000E94D04841E060E08DEA9AE00E94DA3F75
:1034900060E574E08DEA9AE00E94D04842E060E086
:1034A0008DEA9AE00E94DA3F6AE474E08DEA9AE0DD
:1034B0000E94D0488FE39AE00E948B2980933E0AB5
:1034C00086E79EE00E9481461816190634F486E7C6
:1034D0009EE00E949A4680933E0A80913E0A813483
:1034E00029F489EE9AE0DDD680E001C081E0909178
:1034F0003E0A923409F40ECE8111DCCF0BCECF926E
:10350000DF92EF92FF920F931F938DEA9AE00E9451
:10351000D53F65E374E08DEA9AE00E94D04841E02F
:1035200060E08DEA9AE00E94DA3F60E274E08DEAA2
:103530009AE00E94D04842E060E08DEA9AE00E9462
:10354000DA3F61E174E08DEA9AE00E94D04843E0FE
:1035500060E08DEA9AE00E94DA3F60E074E08DEA74
:103560009AE00E94D04868E873E180E090E00E9411
:103570001D448DEA9AE00E94D53F66EF73E08DEA24
:103580009AE00E94D04841E060E08DEA9AE00E9413
:10359000DA3F6FEE73E08DEA9AE00E94D04842E095
:1035A00060E08DEA9AE00E94DA3F69EE73E08DEA0E
:1035B0009AE00E94D0488FE39AE00E948B29809382
:1035C0003E0A86E79EE00E9481461816190634F4EA
:1035D00086E79EE00E949A4680933E0A80913E0ACA
:1035E000813459F1823439F71CC0813409F449C05F
:1035F0008FE39AE00E948B2980933E0A86E79EE043
:103600000E9481461816190634F486E79EE00E944F
:103610009A4680933E0A80913E0A8334E9F18434CD
:1036200021F780910A0590910B051F910F91FF9052
:10363000EF90DF90CF900C94C82E8DEA9AE00E9414
:10364000D53F67ED73E08DEA9AE00E94D04841E0F3
:1036500060E08DEA9AE00E94DA3F66EC73E08DEA62
:103660009AE00E94D04842E060E08DEA9AE00E9431
:10367000DA3F6EEB73E08DEA9AE00E94D04811E0E9
:10368000B7CF8DE197E0112321F00E94163A10E0A8
:10369000AFCF0E94183AF3CF111106C08091F50BFD
:1036A00091E089278093F50B8DEA9AE00E94D53F3F
:1036B00069EA73E08DEA9AE00E94D04868E873E115
:1036C00080E090E00E941D448DEA9AE00E94D53F80
:1036D0006FE973E08DEA9AE00E94D04841E060E033
:1036E0008DEA9AE00E94DA3F68E973E08DEA9AE099
:1036F0000E94D04842E060E08DEA9AE00E94DA3F02
:1037000062E973E08DEA9AE00E94D0488FE39AE084
:103710000E948B2980933E0A86E79EE00E948146A4
:103720001816190634F486E79EE00E949A468093A4
:103730003E0A80913E0A813419F0823439F771CF04
:103740008DE197E00E94163A40E050E060E87FE3A8
:103750008DE197E00E94143A8DEA9AE00E94D53FED
:1037600062E873E08DEA9AE00E94D04841E060E0B0
:103770008DEA9AE00E94DA3F6BE773E08DEA9AE007
:103780000E94D04842E060E08DEA9AE00E94DA3F71
:1037900065E773E08DEA9AE00E94D04843E060E07C
:1037A0008DEA9AE00E94DA3F6DE673E08DEA9AE0D6
:1037B0000E94D04801E08FE39AE00E948B29809319
:1037C0003E0A86E79EE00E9481461816190634F4E8
:1037D00086E79EE00E949A4680933E0A80913E0AC8
:1037E000823409F44AC0843409F451C0813419F791
:1037F000112309F38DE197E00E94183A8DEA9AE0CF
:103800000E94D53F6BE573E08DEA9AE00E94D048B4
:1038100068E873E180E090E00E941D448DEA9AE040
:103820000E94D53F69E473E08DEA9AE00E94D04897
:1038300041E060E08DEA9AE00E94DA3F68E373E0DD
:103840008DEA9AE00E94D04842E060E08DEA9AE07A
:103850000E94DA3F6FE273E08DEA9AE00E94D0485E
:1038600043E060E08DEA9AE00E94DA3F67E273E0AD
:103870008DEA9AE00E94D04816C08091F40B802710
:103880008093F40B8DE197E00E941A3A94CF8DE17A
:1038900097E00E94183AC5CE80913E0A8134B9F073
:1038A000823409F4BECE8FE39AE00E948B29809384
:1038B0003E0A86E79EE00E9481461816190664F7C4
:1038C00086E79EE00E949A4680933E0AE5CF8DEA05
:1038D0009AE00E94D53F65E173E08DEA9AE00E948C
:1038E000D0488DE197E00E94163A61E086E00E94A0
:1038F000EB458DE197E00E94163A40E050E060E22F
:1039000071E48DE197E00E94143A60E777E180E08E
:1039100090E00E941D448DE197E00E94183A8DEAE4
:103920009AE00E94D53F63E073E08DEA9AE00E943E
:10393000D04841E060E08DEA9AE00E94DA3F61EF12
:1039400072E08DEA9AE00E94D04842E060E08DEAA1
:103950009AE00E94DA3F62EE72E08DEA9AE00E94FD
:10396000D04843E060E08DEA9AE00E94DA3F6FECD5
:1039700072E08DEA9AE00E94D04868E873E180E046
:1039800090E00E941D448DEA9AE00E94D53F6EEBC4
:1039900072E08DEA9AE00E94D04868E873E180E026
:1039A00090E00E941D448DEA9AE00E94D53F69EAAA
:1039B00072E08DEA9AE00E94D04841E060E08DEA32
:1039C0009AE00E94DA3F64E972E08DEA9AE00E9490
:1039D000D04842E060E08DEA9AE00E94DA3F6BE86E
:1039E00072E08DEA9AE00E94D04843E060E08DEA00
:1039F0009AE00E94DA3F63E872E08DEA9AE00E9462
:103A0000D0488FE39AE00E948B2980933E0A86E794
:103A10009EE00E9481461816190634F486E79EE05F
:103A20000E949A4680933E0A80913E0A813419F0A2
:103A3000823439F7F6CD8DE197E00E94163A40E0E6
:103A400050E060EA71E48DE197E00E94143A0E9430
:103A5000EE436B017C018DEA9AE00E94D53F6EE651
:103A600072E08DEA9AE00E94D04841E060E08DEA81
:103A70009AE00E94DA3F66E672E08DEA9AE00E94E0
:103A8000D04842E060E08DEA9AE00E94DA3F6EE5BD
:103A900072E08DEA9AE00E94D0488FE39AE00E949B
:103AA0008B2980933E0A86E79EE00E948146181685
:103AB000190634F486E79EE00E949A4680933E0AF7
:103AC00080913E0A813439F0823439F781E597E0FC
:103AD0000E947C33A6CD8DE197E00E94183A0E94A7
:103AE000EE4300E010E020E83FE30093020C109367
:103AF000030C2093040C3093050C6C197D098E097E
:103B00009F090E94D24B20E030E040EA51E40E943D
:103B1000DB4C20E030E64AE657E40E94394B6093E4
:103B2000F60B7093F70B8093F80B9093F90B8DEADB
:103B30009AE00E94D53F69E472E08DEA9AE00E9423
:103B4000D04841E060E08DEA9AE00E94DA3F64E309
:103B500072E08DEA9AE00E94D04842E060E08DEA8F
:103B60009AE00E94DA3F60E272E08DEA9AE00E94F9
:103B7000D04868E873E180E090E00E941D448DEA3F
:103B80009AE00E94D53F61E172E08DEA9AE00E94DE
:103B9000D04841E060E08DEA9AE00E94DA3F6AE0B6
:103BA00072E08DEA9AE00E94D04842E060E08DEA3F
:103BB0009AE00E94DA3F64E072E08DEA9AE00E94A7
:103BC000D0488FE39AE00E948B2980933E0A86E7D3
:103BD0009EE00E9481461816190634F486E79EE09E
:103BE0000E949A4680933E0A80913E0A813429F4CD
:103BF00089EE9AE056D380E001C081E090913E0AC0
:103C0000923409F40ECD8111DCCF0BCDCF93DF932D
:103C1000EC0161E081E10E94EB451B861A86DF9191
:103C2000CF910895FC01738762870895CF92DF9248
:103C3000EF92FF92CF93DF93EC018A859B85892BCE
:103C400009F443C0CC80DD80EE80FF800E94EE430B
:103C50006C157D058E059F05C0F18885998580FDD1
:103C60000BC00A972CF0198618861B861A862DC061
:103C700080910201816003C0809102018E7F809358
:103C800002010E94EE43288539854A855B85AAE0BA
:103C9000A49FF001A59FF00D1124E20FF31FEE0F7A
:103CA000FF1FED5BFD4FC080D180EE24D7FCE09478
:103CB000FE2C6C0D7D1D8E1D9F1D6C837D838E8360
:103CC0009F832F5F3F4F39872887DF91CF91FF90E8
:103CD000EF90DF90CF900895FC0111861086138637
:103CE000128608959B012B523E4FFC013587248795
:103CF00067527E4F778766870895CF93DF93EC01F5
:103D00002FEF3FEFFC0121933193CF016AE874E07C
:103D10000E94354F4DEC5CEC6CEE7FE34E8B5F8B7D
:103D2000688F798F47ED53EA60EB7FE34A8F5B8FB3
:103D30006C8F7D8F4DEC5CEC6CE47DE34E8F5F8F80
:103D400068A379A340E050E060EA70E44AA35BA373
:103D50006CA37DA340E050E060EF71E44EA35FA34D
:103D600068A779A740E050E060E772E44AA75BA744
:103D70006CA77DA71AAA1BAA1CAA1DAA40E050E0A6
:103D800060E470E44EA75FA768AB79AB1EAA1FAAD8
:103D900018AE19AE40E050E068E473E44AAF5BAFA0
:103DA0006CAF7DAFFE01FE961082118212821382EB
:103DB000349680ED97E091838083329640E050E026
:103DC00060E071E44083518362837383349640E002
:103DD00050E864E873E440835183628373833496CC
:103DE000408351836283738334964083518362831B
:103DF000738334964083518362837383349640E0A7
:103E000050E064E373E440835183628373833496A8
:103E100040E050E86EE873E440835183628373832B
:103E2000C05ADF4F4FE050E060E070E048835983B4
:103E30006A837B83DF91CF9108952F923F924F92B7
:103E40005F926F927F928F929F92AF92BF92CF922A
:103E5000DF92EF92FF920F931F93CF93DF931F9206
:103E60001F92CDB7DEB7FC01E753FF4F10823196AA
:103E700002E010E011830083329640E050E060E8F9
:103E80007FE34083518362837383349624E630E07A
:103E900031832083329620E436E0318320833296CA
:103EA0002BE430E031832083329620ED422E27E050
:103EB000522E5182408232962AE530E031832083AF
:103EC000329611E0108331962FE530E03183208364
:103ED00032962EE630E031832083329620EA30E0BD
:103EE00031832083349638EE632E33E0732E718253
:103EF0006082329620E137E231832083329628ECCB
:103F000030E031832083329620E530E03183208316
:103F1000329611821082329620E130E03183208384
:103F200032961082319610833196C12CD12CA0E4A8
:103F3000EA2EFE2CC082D182E282F3823496A1E086
:103F4000B0E0B183A0833296318320833296108211
:103F5000319610823196B8E4CB2EB1EEDB2EBEEA5C
:103F6000EB2EB0E4FB2EC082D182E282F382349643
:103F7000C12CD12C18E4E12E13E4F12EC082D182A1
:103F8000E282F38234961082118212821382349676
:103F900002E010E011830083329631832083329651
:103FA000108231961082319602E518EB22EE31E450
:103FB0000083118322833383349600E010E020EFE6
:103FC00031E40083118322833383349600E010E0D0
:103FD00026E932E4008311832283338334964083BD
:103FE000518362837383B89627E030E03183208366
:103FF0007297108211821282138234970AE919E9AA
:1040000029E13EE3008311832283338334974AE915
:1040100059E969E570E4408351836283738338977B
:10402000C12CD12CA8ECEA2EA2E4FA2EC082D182B7
:10403000E282F38234961082118212821382789681
:10404000BEE62B2EBFE03B2E318220823297A4E1C8
:10405000B0E0B183A0833696118210823C97A0EA2B
:104060008A2EA6E89A2EAA24A394B12C808291824B
:10407000A282B3823A9671826082B0975182408266
:10408000B896108211821282138234961082319671
:104090001082B596A4E0B0E0B183A083729710823D
:1040A0001182128213823497008311832283338317
:1040B000349740835183628373833897C082D1825F
:1040C000E282F382349610821182128213827896F1
:1040D000318220823297A4E1B0E0B183A08336968A
:1040E000A1E0B0E0B183A0833C9780829182A2825C
:1040F000B3823A9671826082B09751824082B896BC
:1041000010821182128213823496108231961082AC
:10411000B596A5E0B0E0B183A083729710821182BA
:10412000128213823497008311832283338334975E
:1041300040835183628373833897C12CD12CBFE7AE
:10414000EB2EB3E4FB2EC082D182E282F38234965E
:1041500010821182128213827896318220823297E5
:10416000A4E1B0E0B183A0833696A2E0B0E0B183D1
:10417000A0833C9780829182A282B3823A96718218
:104180006082B09751824082B8961082118212826A
:1041900013823496B1E0B08331961082DC01A553CE
:1041A000BE4FE3E0F0E01196FC93EE9352971D9220
:1041B0001D921D921C92139714970D931D932D938E
:1041C0003C93139714974D935D936D937C93139742
:1041D0001897CD92DD92ED92FC92139714961D9252
:1041E0001D921D921C921397589611963C922E92F6
:1041F000129704E110E011961C930E931696ED931E
:10420000FC93FC01E354FE4F80829182A282B38230
:104210003A9671826082B09751824082B89610823D
:10422000118212821382349611E01083319610822B
:10423000319646EC54E464E17AE34083518362832F
:104240007383349649EA54EA66EC7FE340835183F2
:1042500062837383349640E050E06CE873E44083FB
:10426000518362837383349642E050E060E070E0F3
:1042700040835183628373830F900F90DF91CF91BE
:104280001F910F91FF90EF90DF90CF90BF90AF9074
:104290009F908F907F906F905F904F903F902F9066
:1042A00008950F931F93CF93DF93EC0168E079E1BA
:1042B00086E79EE00E941049C853DF4F81E0888363
:1042C00060E070E049918B010F5F1F4F8CEA9DE029
:1042D0000E943A3F0D3181E0180711F0B801F2CF8A
:1042E000DF91CF911F910F9108950F931F93CF935B
:1042F000DF938C0108531F4FC0E0D0E0BE018CEA71
:104300009DE00E94373FF80181938F012196CD31C6
:10431000F1E0DF0799F7DF91CF911F910F91089599
:10432000EF92FF920F931F93CF93DF93FC01408195
:10433000518164E6649F9001659F300D1124B9019D
:10434000635E7E4FEC017901FFE7EF1AFEEFFF0A93
:1043500049918B010F5F1F4F8CEA9DE00E943A3F0D
:104360000E151F0511F0B801F3CFDF91CF911F910A
:104370000F91FF90EF900895EF92FF920F931F938C
:10438000CF93DF937C018B01C0E0D0E0BE016E0DC6
:104390007F1D8CEA9DE00E94373FF80181938F01D9
:1043A0002196C436D10591F784E690E0DF91CF9154
:1043B0001F910F91FF90EF90089544E6469F900162
:1043C000479F300D1124BC01C901835E9E4FD4CF9D
:1043D00008950F931F93CF93DF93EC018B01BC01E2
:1043E0006C597F4F24E6249FC001259F900D112416
:1043F000835E9E4FC1DFBE016A597F4FC801DF91C6
:10440000CF911F910F910C94354FEF92FF920F9324
:104410001F93CF93DF937C018C010B511E4FC0E0A3
:10442000D0E0AE01B801C701D4DF21960C5E1F4F6A
:10443000CA30D105B1F7DF91CF911F910F91FF9055
:10444000EF900895CF93DF93EC01DFDFCE01DF9192
:10445000CF914BCFFC01778366836130710581F08A
:104460001CF4672B41F008956230710549F0633008
:10447000710531F0089584E090E091838083089580
:104480007183608308954F925F926F927F928F92B3
:104490009F92AF92BF92CF92DF92EF92FF920F93D3
:1044A0001F93CF93DF93CDB7DEB72E970FB6F89457
:1044B000DEBF0FBECDBFFC01CB01BA0162837383A7
:1044C00084839583E080F18022E0E216F10409F014
:1044D00083C02EE0E0EDF2E0DE01119601900D9236
:1044E0002A95E1F79B01AC010E94D14A2B013C01C6
:1044F000CE0101967C015E019FE0A90EB11CF7017F
:10450000C190D1907F01B601882777FD8095982FC3
:104510000E94D44B9B01AC01C301B2010E94DB4C51
:104520009B01AC0160E074E284E79BE40E94394B9C
:1045300020E030E04FE753E40E94354B87FD04C094
:10454000EA14FB04E1F601C0860100341105E9F02C
:104550005CF408301105A9F000321105A1F001301A
:104560001105C9F481E018C00115F1E01F0779F0C9
:10457000011524E0120769F00038110561F485E0A7
:104580000BC082E009C083E007C084E005C086E07C
:1045900003C087E001C080E093E49093B00088609E
:1045A0008093B100B801882777FD8095982F0E94ED
:1045B000D44B9B01AC01C301B2010E94DB4C9B01B7
:1045C000AC0160E074E284E79BE40E94394B0E94F6
:1045D000A64B6093B300D0C02AE0EEEDF2E0DE011E
:1045E000119601900D922A95E1F79B01AC010E9472
:1045F000D14A2B013C01CE0101966C014E019BE09A
:10460000890E911CF601A190B1906F01B501882728
:1046100077FD8095982F0E94D44B9B01AC01C3017C
:10462000B2010E94DB4C9B01AC0160E074E284E7C4
:104630009BE40E94394B20E03FEF4FE757E40E9494
:10464000354B87FD04C0C814D904E1F601C08501CB
:1046500000341105A1F03CF40130110571F008306F
:104660001105A9F010C00115F1E01F0751F0011567
:1046700024E0120741F485E00DC081E00BC083E027
:1046800009C084E007C017FD04C080E003C082E0D9
:1046900001C087E093E0E916F10459F1E4E0EE1679
:1046A000F10409F448C0EA94EF2809F065C093E4E6
:1046B00090938000886180938100B801882777FDFE
:1046C0008095982F0E94D44B9B01AC01C301B2018D
:1046D0000E94DB4C9B01AC0160E074E284E79BE448
:1046E0000E94394B0E94A14B70938900609388000F
:1046F00043C093E490939000886180939100B80147
:10470000882777FD8095982F0E94D44B9B01AC01A0
:10471000C301B2010E94DB4C9B01AC0160E074E27A
:1047200084E79BE40E94394B0E94A14B709399004F
:104730006093980021C093E49093A00088618093D7
:10474000A100B801882777FD8095982F0E94D44B4F
:104750009B01AC01C301B2010E94DB4C9B01AC0187
:1047600060E074E284E79BE40E94394B0E94A14B15
:104770007093A9006093A8002E960FB6F894DEBF40
:104780000FBECDBFDF91CF911F910F91FF90EF90A2
:10479000DF90CF90BF90AF909F908F907F906F9061
:1047A0005F904F9008954F925F926F927F928F9299
:1047B0009F92AF92BF92CF92DF92EF92FF920F93B0
:1047C0001F93CF93DF934C01EB01A8A0B9A0CE8C2F
:1047D000DF8CEC8CFD8C0A8D1B8D2E893F89488DDA
:1047E000598D6AA17BA10E947E3D34018EE2680E44
:1047F000711CAE84BF84C888D988EA84FB840C8588
:104800001D859E01285D3F4F2401E9E64E0E511C97
:104810001F921F928D898F938C898F938B898F9391
:104820008A898F93A201B401C3010E949937F401D0
:10483000E959FF4FD183C083369691828082688187
:104840007981C3010E943E36CA88DB88EC88FD88E6
:104850000E851F85288939894A855B856C857D850C
:10486000C3010E948B350A811B812C813D814E81C1
:104870005F8168857985C3010E948C3660E070E0B5
:10488000C3010E944837F201108211821282138202
:104890007E01F4E2EF0EF11C840101591F4FF80173
:1048A000F182E082CE018D963696918380830F90BF
:1048B0000F900F900F900F900F90009741F034974A
:1048C00007979183808361E08EA10E94EB45F801F8
:1048D000F182E08261E08CA10E94EB45F401ED5889
:1048E000FF4FCE018C969183808334968A97918373
:1048F000808332962696D183C083DF91CF911F911A
:104900000F91FF90EF90DF90CF90BF90AF909F906E
:104910008F907F906F905F904F9008954F925F922D
:104920006F927F928F929F92AF92BF92CF92DF92BF
:10493000EF92FF920F931F93CF93DF93EC010E94AE
:10494000EE438E0105581F4FD8016D937D938D93D3
:104950009C931397CE010E94C33EF8014081518180
:10496000628173815E01F7E6AF0EB11CD501ED9156
:10497000FC9180819181AA2797FDA095BA2F7E0195
:10498000E3E8EE0EF11CF7014080518062807380F5
:10499000840D951DA61DB71D9E012D583F4F690121
:1049A000481759076A077B0708F4FEC04083518304
:1049B000628373837697D183C083CE018E960E94E3
:1049C0006B34D601ED91FC918081FE01E759FF4FD8
:1049D0004F01811137C040805180628073804E0149
:1049E000FFE78F0E911CD501ED91FC9160817181E3
:1049F000882777FD8095982F0E94D44BA3019201C0
:104A00000E94DB4C20E030E048EC52E40E94394B3D
:104A10000E94A64BF401608371838283938320E01C
:104A200030E040E85FE3C301B2010E94D74C1816A2
:104A30000CF0BAC0FE01E159FF4F0190F081E02D6A
:104A400061E02DC0FE01EB58FF4F0190F081E02D99
:104A50008081882309F498C0D4014D905D906D90B9
:104A60007C9020E030E040E85FE3C301B2010E94A7
:104A7000D74C87FD18C0C301B2010E94A14BFE01B3
:104A8000E159FF4F0190F081E02D80810E94D344D5
:104A9000FE01EF58FF4F0190F081E02D60E0808132
:104AA0000E94244681C020E030E040E85FEBC30173
:104AB000B2010E94354B1816C4F13E01B7E86B0EE7
:104AC000711CF30180819E012F583F4F59018823AB
:104AD00081F0D901ED91FC9162E370E080810E9448
:104AE000D344F301108264E670E080E090E00E941D
:104AF0001D44FE01E159FF4F0190F081E02D60E07F
:104B000070E080810E94D344D4012D913D914D915C
:104B10005C9160E070E080E291E40E94D04A0E94E3
:104B2000A14BD501ED91FC913CC020E030E040E884
:104B30005FE3C301B2010E94354B87FF35C020E01F
:104B400030E040E85FEBC301B2010E94D74C181679
:104B50005CF5FE01E159FF4F0190F081E02D60E02E
:104B600070E080810E94D344FE01EF58FF4F019016
:104B7000F081E02D60E080810E94244681E0FE010A
:104B8000E957FF4F808310C0F401608171818281F9
:104B900093810E94A14BFE01E159FF4F0190F081EA
:104BA000E02D80810E94D344D601ED91FC9180815B
:104BB00081113CC06E01BFE6CB0ED11CD601ED9138
:104BC000FC9180810E945946892B81F1C158DF4FA9
:104BD00088819981AA81BB81F701408151816281DD
:104BE0007381840F951FA61FB71FF8014081518163
:104BF00062817381481759076A077B07B8F0D601AD
:104C0000ED91FC9160E08081DF91CF911F910F9138
:104C1000FF90EF90DF90CF90BF90AF909F908F90DC
:104C20007F906F905F904F900C942446DF91CF91CE
:104C30001F910F91FF90EF90DF90CF90BF90AF90BA
:104C40009F908F907F906F905F904F900895AF925C
:104C5000BF92CF92DF92EF92FF920F931F93CF9369
:104C6000DF93EC015A016B018C01025D1F4FC801FB
:104C70000E940438019729F460E070E0C8010E94A6
:104C80004837FE01E758FF4F0190F081E02DE080AA
:104C9000F180028113819701A801B501C6010E942C
:104CA000354B87FD02C075018601FE01E958FF4FB3
:104CB0000190F081E02DA080B180C280D380950169
:104CC000A601B701C8010E94D74C181614F057016D
:104CD0006801C759DF4FC501D60188839983AA832C
:104CE000BB83DF91CF911F910F91FF90EF90DF90E9
:104CF000CF90BF90AF900895CF93DF93EC0160E029
:104D000070E08E960E944837FE01E759FF4F1082EF
:104D100011821282138236960190F081E02D60E0BC
:104D200080810E942446FE01EB58FF4F80819181D3
:104D3000892B51F0CF58DF4FE881F98160E0808105
:104D4000DF91CF910C942446DF91CF9108958E96F8
:104D50000C944837FC0160817181828193810895B0
:104D6000FC0110821482138215820895862F642F0D
:104D70000C94EB45862F642F0C942446862F0C94BC
:104D800059464F925F926F927F928F929F92AF920D
:104D9000BF92CF92DF92EF920F93CF93DF93EC010C
:104DA0004B013A0159010296DBDF89E994E09983CE
:104DB00088836E018CE1C80ED11C26018CE3480E5D
:104DC000511CC601CDDF86E0C80ED11CC414D50429
:104DD000C1F7FE01EE59FF4F718260823296B182B7
:104DE000A082329600833196E0823797918280824A
:104DF00038968AE090E091838083329684EF91E048
:104E000091838083329611821082C45ADF4F1882B8
:104E100019821A821B82DF91CF910F91EF90DF9060
:104E2000CF90BF90AF909F908F907F906F905F904A
:104E30004F9008952F923F924F925F926F927F9280
:104E40008F929F92AF92BF92CF92DF92EF92FF929A
:104E50000F931F93CF93DF93CDB7DEB728970FB68D
:104E6000F894DEBF0FBECDBF98878F83F12C4C0125
:104E700086E6880E911C0F8118850E591F4FD401AC
:104E80008C91F816A0F4AF81B8858D919C91F801B2
:104E9000A081B181AF0DB11DFC012081318142E0C3
:104EA0006C918F819885F9011995F394E8CF512C75
:104EB000EF81F885E959FF4FFA83E9830F8118855F
:104EC0000C591F4FC12CD12C7601C3948F8198852A
:104ED0008E599F4F9C838B83A981BA818C915816E0
:104EE00008F088C0A52CB12CAF81B8858D919C911C
:104EF000F801A081B181AA0DBB1DFC012081318187
:104F000041E06C918F819885F9011995AF81B88541
:104F10008D919C91F801A081B181AA0DBB1DFC016E
:104F20002281338140E06C918F819885F901199538
:104F3000D701C601052C04C0880F991FAA1FBB1FEB
:104F40000A94D2F79C011C0120943094412CD40186
:104F50008C91EF81F88540815181481648F5642C89
:104F6000712CEB81FC81A081B181A60DB71DFA01E6
:104F7000448155816C918F8198852D833E83FA0100
:104F80001995660C771C2D813E81EF81F885E60D21
:104F9000F71D892B29F480859185822B932B04C0E2
:104FA0008085918582219321918780874394CFCFFB
:104FB000F801A081B181AA0DBB1DFA0122813381C4
:104FC00041E06C918F819885F9011995AF81B88581
:104FD0008D919C91F801A081B181AA0DBB1DFC01AE
:104FE0002081318140E06C918F819885F90119957C
:104FF000539472CF28960FB6F894DEBF0FBECDBF84
:10500000DF91CF911F910F91FF90EF90DF90CF90A4
:10501000BF90AF909F908F907F906F905F904F90D8
:105020003F902F900895FC0180E090E0258D368D13
:105030002617370739F0019636968A309105B1F771
:105040008FEF9FEF0895FC0126E0629FE00DF11DB8
:10505000112450A3478F21E021A3FC01E459FF4F05
:105060000190F081E02D309721F0DC015C968C916D
:1050700019940895CF92DF92FF920F931F93CF93CD
:10508000DF931F92CDB7DEB76C01F62EFC0186E0F0
:10509000689FE00DF11D112411A2878D90A1813030
:1050A0009105E9F01CF4892B51F044C08230910540
:1050B00091F1039709F03EC040E050E030C0442336
:1050C000C9F141E050E0C601BEDF0E94EE43F601A7
:1050D000E85AFF4F60837183828393832BC0498397
:1050E0000E94EE43F601E85AFF4F008111812281B0
:1050F0003381601B710B820B930B729600811181BF
:1051000020E030E04981061717072807390718F40F
:1051100042E050E004C041110DC043E050E06F2D6B
:10512000C6010F90DF91CF911F910F91FF90DF90FB
:10513000CF9089CF0F90DF91CF911F910F91FF906A
:10514000DF90CF9008952F923F924F925F926F928F
:105150007F928F929F92AF92BF92CF92DF92EF9207
:10516000FF920F931F93CF93DF931F92CDB7DEB7BC
:105170001C01FC014AE08FEF9FEF278D30A1232B0C
:1051800021F4148E968F858F11A2415036964111CD
:10519000F4CF712C610126E6C20ED11C510187E6C5
:1051A000A80EB11C4101A0E68A0E911C46E0442ED7
:1051B000D6018C91781608F053C0612C8101070D3F
:1051C000111D070D111D085F1F4FF501E0806E14C2
:1051D00008F044C0F80140815181062C02C0569568
:1051E00047950A94E2F741707E9C70011124E60C09
:1051F000F11CD401ED91FC91EE0DFF1D5080B70123
:10520000C101498310DF498197FD02C0682F1BC08F
:10521000019611F5442301F180E090E060E070E038
:10522000F101E80FF91F248D211110C0469EF001F5
:10523000479EF00D1124E20DF31D548EF68EE58E7F
:1052400010A2178E41E0C10115DF06C06F5F7F4FCE
:1052500006966A30710521F76394B7CF7394A8CF8F
:1052600020E030E080E0F101E20FF31F91A1911105
:1052700081E02A5F3F4F2C333105A9F70F90DF9172
:10528000CF911F910F91FF90EF90DF90CF90BF9043
:10529000AF909F908F907F906F905F904F903F90D6
:1052A0002F900895CF92DF92EF92FF920F931F936A
:1052B000CF93DF938C010E94EE43E801C45ADF4F85
:1052C000C880D980EA80FB806C197D098E099F090E
:1052D000F801E859FF4FC080D180E12CF12CC616AF
:1052E000D706E806F90660F4C801A4DDC8012BDF83
:1052F000182F0E94EE43688379838A839B8301C0C1
:1053000010E0812FDF91CF911F910F91FF90EF90CF
:10531000DF90CF900895CF93DF93EC01C3DF882314
:1053200039F089A1882321F08F8D98A1019711F080
:1053300080E001C08C8DDF91CF9108950F931F9372
:10534000FC015183408375836483358F248F178FCD
:10535000068F158A148A81E090E097838683978B65
:10536000868B97878687938782871F910F910895F1
:10537000FC01CB01019620813181821793071CF03B
:105380008FEF9FEF0895A481B5812EE0269FA001A5
:10539000279F500D11249D01240F351F2E5F3F4F75
:1053A000F90165917491FD01E40FF51F7096259147
:1053B00034916217730721F7089516161706E4F45F
:1053C000FC01448155818EE0869F9001879F300DBE
:1053D0001124CA01820F931F0296FC01A591B4917A
:1053E000FA01E20FF31F3C9785919491A817B90732
:1053F00019F4CB01019708958FEF9FEF08954EE0C8
:10540000469F9001479F300D1124DC011496ED91C9
:10541000FC911597E20FF31F3296859194910895B0
:105420004EE0469F9001479F300D1124DC011496F9
:10543000ED91FC911597E20FF31F349685919491AD
:105440000895CF93DF93EB016EE0649F9001659F19
:10545000300D1124DC011496ED91FC911597E20FAB
:10546000F31F65917491CE010E942E4FCE01DF9102
:10547000CF910895CF93DF93EC016C857D857D8B73
:105480006C8B888999896817790719F4CE01C8DF70
:1054900002C0CE016DDF9F8B8E8B6E897F89CE011E
:1054A00067DF998F888FBC01CE0162DF9B8F8A8F67
:1054B000DF91CF9108954EE0469F9001479F300DB8
:1054C0001124DC011496ED91FC911597E20FF31F66
:1054D0003A968591949108954EE0469F9001479F9A
:1054E000300D1124DC011496ED91FC911597E20F1B
:1054F000F31F38968591949108954EE0469F900150
:10550000479F300D1124DC011496ED91FC91159705
:10551000E20FF31F36968591949108950F931F9390
:10552000CF93DF938C01FC0162857385C4DF8630E5
:105530009105E9F0A4F4049709F06CC0F8016285C4
:105540007385C801DADFEC01F80162857385C80153
:10555000D4DFFC01808191E0892788835BC08A3099
:10556000910509F43DC00C9709F43AC053C0F80105
:1055700062857385C801C1DFFC0180819181F801DA
:10558000628573850B9784F4C801B7DFEC01F801DD
:1055900062857385C801B1DFFC01208131812F5FF5
:1055A0003F4F3983288336C0C801A7DFEC01F801DB
:1055B00062857385C801A1DFFC0160817181882744
:1055C00077FD8095982F0E94D44B2DEC3CEC4CE855
:1055D0005FE30E94DB4C0E94A14B798368831AC071
:1055E000F80162857385C80188DFEC01F8016285E6
:1055F0007385C80182DF2DEC3CEC4CE85FE3FC01D5
:1056000060817181828193810E94DB4C6883798300
:105610008A839B83DF91CF911F910F9108950F9300
:105620001F93CF93DF938C01FC016285738543DF69
:1056300086309105E9F0A4F4049709F06CC0F801F4
:1056400062857385C80159DFEC01F80162857385B5
:10565000C80153DFFC01808191E0892788835BC00A
:105660008A30910509F43DC00C9709F43AC053C043
:10567000F80162857385C80140DFFC01808191815A
:10568000F801628573850B9784F4C80136DFEC015D
:10569000F80162857385C80130DFFC01208131810A
:1056A000215031093983288336C0C80126DFEC0137
:1056B000F80162857385C80120DFFC01608171817A
:1056C000882777FD8095982F0E94D44B2DEC3CECD9
:1056D0004CE85FE30E94394B0E94A14B79836883B9
:1056E0001AC0F80162857385C80107DFEC01F80173
:1056F00062857385C80101DF2DEC3CEC4CE85FE36B
:10570000FC0160817181828193810E94394B6883A1
:1057100079838A839B83DF91CF911F910F910895A5
:10572000EF92FF920F931F93CF93DF93EC018B01C6
:105730007A01C1DE8830910509F450C0A4F48430A8
:105740009105C1F1069709F073C0B801CE01D5DE0D
:10575000EC01F70160817181828193810E94A14BEC
:105760007983688365C08C30910509F447C08E3019
:10577000910509F451C00A9709F05AC0B801CE0149
:10578000BCDEF7014081518162817381FC0140835D
:10579000518362837383B801CE01AFDEFC01408187
:1057A00051816281738122E030E086E79EE00E94B1
:1057B000BF4A24C0B801CE01A0DEEC0111E020E018
:1057C00030E0A901F70160817181828193810E949B
:1057D000354B811101C010E018832AC0B801CE01F9
:1057E0008CDEEC01F70160817181828193810E94DE
:1057F000A64B688379838A839B831AC0B801CE0144
:105800007CDEF7014081518162817381FC0140831C
:105810005183628373830CC0B801CE016EDEB70181
:10582000DF91CF911F910F91FF90EF900C94354F26
:10583000DF91CF911F910F91FF90EF9008952F92DC
:105840003F924F925F926F927F928F929F92AF9210
:10585000BF92CF92DF92EF92FF920F931F93CF935D
:10586000DF93CDB7DEB7A8970FB6F894DEBF0FBEB3
:10587000CDBF8C015B011FDE01978F30910508F0D1
:105880003EC08E589F4FFC010C94CE4EB501C8010E
:1058900034DEDC016C9170E080E090E017C0B5016F
:1058A000C8012BDEFC0160817181882777FD80951E
:1058B000982F0E94D44B6B017C0121C0B501C80117
:1058C0001CDEDC016D917D918D919C910E94D24BEB
:1058D000F2CFB501C80111DEFC01C080D180E280A9
:1058E000F3800DC0B501C80108DEFC01DC010D909C
:1058F0000020E9F7CD0101978E1B9F0B58C084E271
:10590000E8EEF2E0DE01119601900D928A95E1F742
:1059100020E030E0A901C701B6010E94D74C260162
:105920003701181624F077FA709477F870941E01F6
:10593000B5E02B0E311C88248394912CF101219128
:105940003191419151911F01C301B2012DA33EA399
:105950004FA358A70E94A64B2DA13EA14FA158A529
:105960000E94AC4E232B242B252B39F0FFEF8F1AEE
:105970009F0A89E08816910409F720E030E0A90128
:10598000C701B6010E94354B87FF03C0AFEF8A1AEB
:105990009A0AB501C801A0DD181619063CF4B50134
:1059A000C8019ADD880D991D019601C0C401A89611
:1059B0000FB6F894DEBF0FBECDBFDF91CF911F9120
:1059C0000F91FF90EF90DF90CF90BF90AF909F909E
:1059D0008F907F906F905F904F903F902F900895A1
:1059E0002F923F924F925F926F927F928F929F92EF
:1059F000AF92BF92CF92DF92EF92FF920F931F93DD
:105A0000CF93DF93CDB7DEB7AA970FB6F894DEBF7A
:105A10000FBECDBF8C016B017A01BA014CDD01973D
:105A20008F30910508F09AC18F579F4FFC010C945D
:105A3000CE4EB701C80161DDFC018081882311F0E1
:105A400081E301C080E3F601808388C1B701C8010A
:105A500054DD4AE050E0B601FC018081918174C1BF
:105A6000B701C8014ADDFC012081318142815381A7
:105A7000B701C8012FA338A749A75AA73EDDFC01EB
:105A800080809180A280B38081E02FA138A549A5B4
:105A90005AA5211531054105510509F080E000E0C6
:105AA00010E0E82EF12C6AE0462E512C612C712C6E
:105AB000C8018E0D9F1D0F5F1F4F21153105410538
:105AC000510539F0CA01B901A30192010E94AC4EFF
:105AD000EFCF7601E80EF91EF7011082C501B4017F
