:100000000C94470D0C94780D0C94780D0C94780D8D
:100010000C94780D0C94780D0C94780D0C94780D4C
:100020000C94780D0C94780D0C94780D0C94780D3C
:100030000C94780D0C94780D0C94780D0C94780D2C
:100040000C94780D0C94780D0C94780D0C94780D1C
:100050000C94780D0C94780D0C94780D0C94A746A4
:100060000C94780D0C94F34A0C94294B0C94780D55
:100070000C94780D0C94780D0C94780D0C94780DEC
:100080000C94780D0C94780D0C94780D0C94780DDC
:100090000C94780D0C94780D0C94780D0C94F01051
:1000A0000C94780D0C94780D0C94780D0C94780DBC
:1000B0000C94780D0C94780D0C94780D0C94780DAC
:1000C0000C94780D0C94780D0C94780D0C94780D9C
:1000D0000C94780D0C94780D0C94780D0C94780D8C
:1000E0000C94780DD233DF33DF33A633A633AF332E
:1000F000AF33BE33BE33C933C933C933C933D23347
:10010000D23304360B360B36793479348634863460
:100110008F348F340135013501350135043604360D
:10012000323A373A323A373A323A373A323A373A5B
:10013000323A373A323A373A353AFB4700480548BF
:100140000F481948924823482B4833483D484748B0
:10015000514860486A48924874487E488848B34885
:10016000B648A548A948AF48ED48BA48BE48C44873
:10017000C848CC48D248D648DA48ED48E048E44878
:10018000E8484C6F61642073616D706C6520746821
:10019000656E207072657373202744272E2050727D
:1001A00065737320274327207768656E20446F6E40
:1001B000652E005374657020333A204C6F616420C3
:1001C00073616D706C65732077697468206B6E6FF6
:1001D000776E204469616D657465722E204D696E7D
:1001E000696D756D206F6620332E205468656E2012
:1001F0005265636F7264204469616D657465722E27
:10020000005468656E205072657373203C656E748F
:1002100065723E0053746570323A2041646A7573AA
:1002200074207468652073656E736F7220756E74C8
:10023000696C206974206973206265747765656EE6
:100240002034353020616E64203535302E005374F3
:10025000657020323A2041646A7573742074686551
:10026000005374657020313A204C6F6164206669D8
:100270006C616D656E742077697468207461726753
:100280006574206469616D657465722E00507265D5
:100290007373203C656E7465723E007769746820E4
:1002A000746172676574204469616D65746572007C
:1002B0005374657020313A4C6F61642066696C61DB
:1002C0006D656E740043616C697065722043616C8A
:1002D0006962726174696F6E0043616C6970657206
:1002E0002043616C6962726174696F6E00422920FB
:1002F0004E6F004129205965730053617665205384
:10030000657474696E67733F006D6963726F7374AF
:1003100065702073657474696E6773007468652016
:10032000776972696E6720616E64006D616B65202C
:1003300031207265762C20636865636B0049662006
:10034000746865206175676572206469646E2774DE
:1003500000526F746174696E672031207265762E69
:100360002E2E0042292045786974004129204265DB
:1003700067696E00417474656D7074696E672031D1
:1003800020726576004D61726B2074686520736819
:100390006166742E20004D6963726F7374657069B5
:1003A0006E67205465737400442920457869740091
:1003B0004229204E6F00412920596573004175671D
:1003C000657220646972656374696F6E204F4B3F7C
:1003D000004229204E6F0041292059657300436F68
:1003E0006E74696E75653F0041756765722044697A
:1003F00072656374696F6E205465737400442920BC
:1004000045584954004329205768656E2044697354
:1004100061626C656400412920456E61626C652FE4
:1004200044697361626C65004229204E6F00412966
:100430002059657300436F6E74696E75653F006681
:100440006F6C6C6F77696E672074657374732E00C0
:10045000746F20706572666F726D20746865006DD0
:10046000757374206265206672656520746F206DF7
:100470006F7665005741524E494E473A20546865A1
:10048000204175676572004229204E6F0041292086
:100490005965730053746F70204578747275646980
:1004A0006E673F00526573657474696E67204545D9
:1004B00050524F4D2E2E2E00526573657474696E26
:1004C000672074686520454550524F4D2E2E2E00F2
:1004D0004229204E6F0041292059657300576F75DE
:1004E0006C6420796F75206C696B6520746F207067
:1004F000726F636565643F0074686520646566615A
:10050000756C742073657474696E67730073746FAF
:100510007265642070726F66696C657320776974A8
:10052000680077696C6C206F7665727772697465A4
:1005300020616C6C20005741524E494E473A20547E
:1005400068697320616374696F6E005741524E4948
:100550004E473A205468697320616374696F6E2056
:1005600077696C6C206F766572776972746520614B
:100570006C6C2073746F7265642070726F66696C46
:1005800065732077697468207468652064656661A6
:10059000756C742053657474696E67732E005072A5
:1005A0006F66696C65205361766564005361766996
:1005B0006E672070726F66696C652E2E2E00536117
:1005C00076696E672053657474696E677320666F11
:1005D000722070726F66696C65206E756D626572EF
:1005E0003A2000436F6E66696775726174696F6E59
:1005F00020536176656400536176696E672E2E2EF6
:100600000046696E697368656420536F616B696E3B
:10061000670054696D652873292C20446961286D31
:100620006D292C206F75746665656452504D2C20C1
:1006300073746172766546656564657252504D2CBF
:100640002020617567657252504D2C204D6F646596
:100650002C206F7574666565644B702C206F757403
:10066000666565644B692C206F7574666565644BBF
:10067000642C206665656452617465286D2F6D6910
:100680006E292C206D65746572734578747275647B
:100690006564006D12FFFF0100000000000000E231
:1006A0001C64120000FFFF330200000F0000001066
:1006B000170000FFFFD70C02000A009B165512001E
:1006C00000FFFF930C000007000000E7140000FF8C
:1006D000FFB10C01000D000000DB140000FFFFADB6
:1006E0000C01000D000000CF140000FFFFA90C0159
:1006F000000D000000C3140000FFFFA50C01000D59
:10070000000000BF160000FFFFFD0C00000C005EA3
:1007100012AF160000FFFF010D00000C006F129FCA
:10072000160000FFFF050D00000C0080128F160060
:1007300000FFFF090D00000C00911206170000FFDA
:10074000FFDB0C01000A00CE13FA160000FFFFDFEA
:100750000C01000C00DA137C120000FFFF370200CE
:10076000000F006D1634160000FFFF2B0200000F73
:1007700000A71735170000FFFFB70C00000E0000A0
:10078000002C170000FFFFCB0C02000C0000001A29
:10079000170000FFFFD30C02000A000000EF160054
:1007A00000FFFFE70C02000C00A716E4160000FF94
:1007B000FFE30C02000C00A716D9160000FFFFEBA8
:1007C0000C02000C00A716CF160000FFFFF90C006A
:1007D000000C000000B212FFFF010000000000004A
:1007E00000E51CA3120000FFFF9B0C00000F00009F
:1007F0000093120000FFFF000000000300CC128AEB
:10080000120000FFFF00000000030049127C1200EC
:1008100000FFFF370200000F006D16E7140000FF15
:10082000FFB10C01000D000000DB140000FFFFAD64
:100830000C01000D000000CF140000FFFFA90C0107
:10084000000D000000C3140000FFFFA50C01000D07
:10085000000000BF160000FFFFFD0C00000C005E52
:1008600012AF160000FFFF010D00000C006F129F79
:10087000160000FFFF050D00000C0080128F16000F
:1008800000FFFF090D00000C00911235170000FF5A
:10089000FFB70C00000E0000002C170000FFFFCB7C
:1008A0000C02000C0000001A170000FFFFD30C021E
:1008B000000A00000010170000FFFFD70C02000A1A
:1008C000009B1634160000FFFF2B0200000F00A74C
:1008D0001706170000FFFFDB0C01000A00CE13FA19
:1008E000160000FFFFDF0C01000C00DA13EF16000A
:1008F00000FFFFE70C02000C00A716E4160000FF43
:10090000FFE30C02000C00A716D9160000FFFFEB56
:100910000C02000C00A716CF160000FFFFF90C0018
:10092000000C0000000413FFFF01000000000000A5
:1009300000E41CF5120000FFFF950C00000F000002
:1009400000E7140000FFFFB10C01000D000000DB08
:10095000140000FFFFAD0C01000D000000CF1400DB
:1009600000FFFFA90C01000D000000C3140000FFF0
:10097000FFA50C01000D000000BF160000FFFFFDE9
:100980000C00000C005E12AF160000FFFF010D000E
:10099000000C006F129F160000FFFF050D00000CF9
:1009A0000080128F160000FFFF090D00000C00915F
:1009B00012E2120000FFFF0000000003001F12CF30
:1009C000120000FFFF0000000003003412C51200F7
:1009D00000FFFF000000000300BE1246160000FFEB
:1009E000FF0000000003008F1641160000FFFF000B
:1009F0000000000300971634160000FFFF2B0200D2
:100A0000000F00A71735170000FFFFB70C00000EFE
:100A10000000002C170000FFFFCB0C02000C0000B0
:100A2000001A170000FFFFD30C02000A000000109C
:100A3000170000FFFFD70C02000A00000006170095
:100A400000FFFFDB0C01000A000000FA160000FFA7
:100A5000FFDF0C01000C000000EF160000FFFFE7B5
:100A60000C02000C000000E4160000FFFFE30C0283
:100A7000000C000000D9160000FFFFEB0C02000C78
:100A8000000000CF160000FFFFF90C00000C000072
:100A9000001E13FFFF0100000000000000E31CE740
:100AA000140000FFFFB10C01000D000000DB14007A
:100AB00000FFFFAD0C01000D000000CF140000FF8F
:100AC000FFA90C01000D000000C3140000FFFFA5EA
:100AD0000C01000D000000BF160000FFFFFD0C0020
:100AE000000C005E12AF160000FFFF010D00000CAD
:100AF000006F129F160000FFFF050D00000C008024
:100B0000128F160000FFFF090D00000C009112115A
:100B1000130000FFFF000000000300B012351700B3
:100B200000FFFFB70C00000E0000002C170000FFB4
:100B3000FFCB0C02000C0000001A170000FFFFD3CF
:100B40000C02000A00000010170000FFFFD70C0283
:100B5000000A00000034160000FFFF2B0200000F07
:100B600000A71706170000FFFFDB0C01000A0000BA
:100B700000FA160000FFFFDF0C01000C000000EF80
:100B8000160000FFFFE70C02000C000000E4160056
:100B900000FFFFE30C02000C000000D9160000FF6C
:100BA000FFEB0C02000C000000CF160000FFFFF965
:100BB0000C00000C000000A117FFFF010000000066
:100BC0000000000000921700000400000000000078
:100BD0000000008817000020000000000000000056
:100BE000007E170000760000000000000000007B7F
:100BF0001701000F009A0E0000010064157817011C
:100C0000000F00AE0E000001006A15751701000FFD
:100C100000C20E000001007015721701000F00D60F
:100C20000E0000010076156F1701000F00EA0E009C
:100C30000001007C156C1701000F00FE0E00000182
:100C4000008215691701000F00120F0000010088D3
:100C500015661701000F00260F000001008E1563B6
:100C60001701000F003A0F0000010094155F1701F3
:100C7000000F004E0F000001009A154F1701000FE2
:100C800000000000000000A01547170400FFFF004F
:100C90000000000000A2123A170400FFFF0000004D
:100CA000000000A41535170400FFFFB70C00000E6C
:100CB0000000002C170400FFFFCB0C02000C00000A
:100CC0000024170400FFFFCF0C02000C0000001AE4
:100CD000170400FFFFD30C02000A000000101704E5
:100CE00000FFFFD70C02000A00000006170400FFF7
:100CF000FFDB0C01000A000000FA160400FFFFDF12
:100D00000C01000C000000EF160400FFFFE70C02CE
:100D1000000C000000E4160400FFFFE30C02000CCE
:100D2000000000D9160400FFFFEB0C02000C0000CD
:100D300000CF160400FFFFF90C00000C000000BFFC
:100D4000160400FFFFFD0C00000C000000AF1604AD
:100D500000FFFF010D00000C0000009F160400FFC3
:100D6000FF050D00000C0000008F160400FFFF09B6
:100D70000D00000C0000007C160200FFFF000000C8
:100D80000003003E156F1602002600000000000060
:100D9000000000691602003E000000000000000094
:100DA000005B160200440000000000000000005339
:100DB000160200630000000000000000004B160255
:100DC000006D00000000000000000046162100FF3A
:100DD000FF0000000003008F1641162100FFFF00F6
:100DE0000000000300971634162100FFFF2B0200BD
:100DF000000F00A71728162100FFFF0000000003C6
:100E000000C71619162100FFFF310200000600007E
:100E1000000F162100FFFF000000000300D31602A0
:100E2000162100FFFF2F020000060000001017210E
:100E300000FFFFD70C02000A000000FD152100FF93
:100E4000FF000000000300D615EF152100FFFF7F13
:100E50000D000006000000E5152100FFFF810D02D6
:100E6000000A000000D7152100FFFF850D000006D5
:100E7000000000C9152100FFFF870D0000060000DB
:100E800000BE152100FFFF890D000006000000B123
:100E9000152100FFFF8B0D000006000000A31521A7
:100EA00000FFFF8D0D00000600000099152100FFD6
:100EB000FF8F0D0000040000008F152100FFFF9040
:100EC0000D0000060000007D152100FFFF920D00BF
:100ED000000600000070152100FFFF940D000006C1
:100EE00000000064152100FFFF980D0000060000BF
:100EF0000058152100FFFF9A0D0000060000004B6E
:100F0000152100FFFF9C0D0000060000003D15218B
:100F100000FFFF9E0D00000600000032152200FFBA
:100F2000FF000000000300E61C2A152200FFFFA0BE
:100F30000D00000600000020152200FFFFA20D009A
:100F4000000600000016152200FFFFA40D0000049B
:100F50000000000F152200FFFFA50D000004000097
:100F60000004152200FFFFA60D02000A000000F396
:100F7000142300FFFF3F0200000F00DF15E71423DA
:100F800000FFFFB10C01000D000000DB142300FF87
:100F9000FFAD0C01000D000000CF142300FFFFA9DE
:100FA0000C01000D000000C3142300FFFFA50C017D
:100FB000000D000000BF162300FFFFFA0D00000C1B
:100FC000000000AF162300FFFF280E00000C0000F9
:100FD000009F162300FFFF560E00000C0000008F3C
:100FE000162300FFFF840E00000C000000B614233F
:100FF00000FFFFD20D000006000000AC142300FF2C
:10100000FFD40D00000C000000A2142300FFFFD845
:101010000D00000C0000009C142300FFFFDC0D02FB
:10102000000C00000096142300FFFFE00D02000CEE
:1010300000000090142300FFFFE40D02000C0000EC
:101040000083142300FFFF000E000006000000795B
:10105000142300FFFF020E00000C0000006F142399
:1010600000FFFF060E00000C00000069142300FFC3
:10107000FF0A0E02000C00000063142300FFFF0EA5
:101080000E02000C0000005D142300FFFF120E0290
:10109000000C00000053142300FFFF300E00000C72
:1010A00000000049142300FFFF340E00000C000074
:1010B0000043142300FFFF380E02000C0000003D27
:1010C000142300FFFF3C0E02000C00000037142325
:1010D00000FFFF400E02000C0000002D142300FF53
:1010E000FF5E0E00000C00000023142300FFFF62CF
:1010F0000E00000C0000001D142300FFFF660E020E
:10110000000C00000017142300FFFF6A0E02000C01
:1011100000000011142300FFFF6E0E02000C0000FF
:101120000005142400FFFF3B0200000F00421601DF
:10113000142400FFFFA10C00000A000000F6132495
:1011400000FFFF0000000003003120EE132400FF29
:10115000FFAA0D000006000000E4132400FFFFAC0E
:101160000D000006000000DA132400FFFFAE0D00A2
:101170000004000000CD132400FFFFAF0D000004A9
:10118000000000BF132400FFFFB00D02000A0000A2
:1011900000B7132400FFFFB40D02000C000000AFE5
:1011A000132400FFFFB80D02000C000000A213255D
:1011B00000FFFF000000000300AB169A132500FF9C
:1011C000FFBC0D00000600000090132500FFFFBECD
:1011D0000D00000600000086132500FFFFC00D0073
:1011E00000040000007F132500FFFFC10D00000474
:1011F00000000073132500FFFFC20D02000A00006B
:101200000067132500FFFFC60D02000A0000005A08
:10121000132500FFFFCA0D02000A0000004C132531
:1012200000FFFFCE0D02000A00000034160300FF8D
:10123000FF2B0200000F00A7173B130300FFFF0066
:1012400000FFFF0300B8192E130300FFFF0000008A
:10125000000300BE1B4772616D7320457874727580
:10126000646564004469616D6574657200457874F5
:10127000727564696E672E202E202E005374617281
:101280007665204665656465720041646420546932
:101290006D650046696C616D656E74204C6F6164AC
:1012A00065640054696D652052656D61696E696E93
:1012B00067004C6F61642046696C616D656E742EC9
:1012C000202E202E00536B697020536F616B0044F9
:1012D0006563726561736520536F616B2054696D3E
:1012E0006500496E63726561736520536F616B20A1
:1012F00054696D650054696D652052656D61696E54
:10130000696E6700536F616B696E672E202E202E09
:1013100000536B697020507265686561740050728B
:101320006568656174696E672E202E202E005265F7
:1013300073657420454550524F4D004D656173757E
:1013400072652046696C616D656E7400526F6C6CDD
:1013500065722052616469757300547261766572BA
:101360007365204C656E00436F726520526164693D
:101370007573004469736B2052616469757300452D
:101380006E61626C6500446972656374696F6E00BA
:1013900053746570204D6F64650050696E2053650D
:1013A0007400546573742053706F6F6C6572004DD8
:1013B000696E2052504D004D61782052504D0052C0
:1013C0006F6C6C65722052616469757300456E6163
:1013D000626C65204C6F6769630044697265637471
:1013E000696F6E0053746570204D6F6465005069BD
:1013F0006E205365740053656E642031205265760B
:101400000052504D0052756E204F757466656564CC
:10141000005A34204B64005A34204B69005A34205F
:101420004B70005A34204D696E204443005A3420DA
:101430004D6178204443005A33204B64005A3320D6
:101440004B69005A33204B70005A33204D696E208F
:101450004443005A33204D6178204443005A3220DF
:101460004B64005A32204B69005A32204B70005AAC
:1014700032204D696E204443005A32204D6178205D
:101480004443005A322054696D65206261736500DF
:101490005A31204B64005A31204B69005A31204B9D
:1014A00070005A31204D696E204443005A31204D5E
:1014B0006178204443005A312054696D652062618F
:1014C0007365005A6F6E6520342054656D70005A44
:1014D0006F6E6520332054656D70005A6F6E652005
:1014E000322054656D70005A6F6E6520312054654E
:1014F0006D7000416374697661746520486561743C
:10150000657273004765617220526174696F0045AE
:101510006E61626C6500446972656374696F6E0028
:1015200053746570204D6F64650050696E2053657B
:101530007400546573742041756765720044656278
:101540006F756E63652054696D65005374617274C4
:1015500075702054696D65004D617846696C6C54F6
:10156000696D65004D696E46696C6C54696D650006
:101570004D6178447574794379636C650053746187
:101580007274757020447574794379636C65004496
:101590007574794379636C65004469726563746935
:1015A0006F6E004F76657220526F746174696F6E52
:1015B00000486F6D696E672044656C6179005374F3
:1015C00065702044656C61790044756D7020506FC2
:1015D000736974696F6E00486F6D6520506F736931
:1015E00074696F6E004C756D70204D61737300539C
:1015F0006C61766520416464726573730053746F27
:10160000700054696D6520746F2073656E640053BB
:10161000656E642054696D65004379636C65732061
:10162000746F2073656E640053656E642043796344
:101630006C6573004665656420506C617374696302
:101640000044756D7000486F6D650053706F6F6C6E
:101650006572004F75746665656400486561746500
:101660007220436F6E66696700417567657200534B
:10167000746172766546656564657200536176656E
:1016800020436F6E66696775726174696F6E005A88
:101690006F6E652034205365742054656D70005A58
:1016A0006F6E652033205365742054656D70005A49
:1016B0006F6E652032205365742054656D70005A3A
:1016C0006F6E652031205365742054656D70005332
:1016D0006F616B2054696D65004F75746665656454
:1016E000205064004F757466656564204B69004F37
:1016F000757466656564204B70004F75746665652A
:10170000642052504D0041756765722052504D0063
:101710004772616D732F4D696E00546F6C65726115
:101720006E63650044656E73697479004469616D28
:1017300065746572004E616D650053617665205079
:10174000726F66696C6500457874727564650044F3
:10175000656661756C742050726F66696C650031E6
:101760003029003929003829003729003629003569
:10177000290034290033290032290031290041751C
:1017800078696C696172790043616C696272617435
:10179000650053656C6563742050726F66696C6593
:1017A000004D61696E204D656E7500536176696EFE
:1017B0006720436F6E6669672E00F5031600F3031A
:1017C0001900F1031E00E9032800E2033200D203EE
:1017D0003C00C2034600AD03500091035A006F0362
:1017E000640048036E0016037800E4028200AA0237
:1017F0008C00710296004302A0000102AA00CA01F7
:10180000B4008B01BE005201C8002C01D2000901B6
:10181000DC00EB00E600C800F000AC00FA00960027
:10182000040182000E0172001801630022015300BE
:101830002C0100000A0B02090C0D0E08070304011D
:101840000000000000000000000000000000000098
:101850000000000000000000000000000000121165
:101860001000000000000000000000000000000068
:1018700000000000000000000102102020080810F5
:1018800020401020408002010201080402010102F0
:1018900004081020408080402010080402018004C9
:1018A0000201804020100804020108040201010224
:1018B0000408102040800102040810204080050523
:1018C0000505070508080808020202020A0A0808B6
:1018D00004040404010101010101010103030303E4
:1018E00003030303040707070C0C0C0C0C0C0C0C73
:1018F0000202020206060606060606060B0B0B0B84
:101900000B0B0B0B000020002300260029002C00ED
:101910002F00320000010000030106010901000050
:101920002200250028002B002E0031003400020187
:101930000000050108010B01000021002400270020
:101940002A002D00300033000101000004010701CE
:101950000A014E414E494E495459494E46CDCCCCD0
:101960003D0AD7233C17B7D13877CC2B329595E673
:10197000241FB14F0A000020410000C84200401C53
:101980004620BCBE4CCA1B0E5AAEC59D7400407AA0
:1019900010F35A00A0724E18090010A5D4E80000F8
:1019A000E87648170000E40B54020000CA9A3B0096
:1019B0000000E1F505000080969800000040420F0D
:1019C000000000A08601000000102700000000E8D1
:1019D00003000000006400000000000A0000000096
:1019E000000100000000002C76D888DC674F082337
:1019F000DFC1DFAE59E1B1B796E5E3E453C63AE69D
:101A000051997696E8E6C28426EB898C9B62ED407C
:101A10007C6FFCEFBC9C9F40F2BAA56FA5F49005CB
:101A20005A2AF75C936B6CF9676DC11BFCE0E40DFF
:101A300047FEF520E6B500D0ED902E0300943577F3
:101A4000050080841E080000204E0A000000C80C1B
:101A5000333333330F986E12831141EF8D21148984
:101A60003BE65516CFFEE6DB18D1844B381BF77CDE
:101A70001D901DA4BBE424203284725E228100C923
:101A8000F124ECA1E53D2700071020195B4B112440
:101A90001FBECFEFD1E2DEBFCDBF00E00CBF15E02F
:101AA000A0E0B2E0E6E1FAEA00E00BBF02C0079076
:101AB0000D92AE35B107D9F720E1AEE5B5E001C032
:101AC0001D92A032B207E1F71AE1CEE8DAE100E0B8
:101AD00006C022970109FE010BBF0E948850C8383A
:101AE000D10780E00807A9F70E949F4B0C94095585
:101AF0000C940000CF93DF93EC0160E08E810E9494
:101B0000274981E090E00E94454761E08E810E9474
:101B1000274981E090E00E94454760E08E810E9465
:101B2000274984E690E0DF91CF910C944547EF92EE
:101B3000FF920F931F93CF93DF938C01C0E0D0E00F
:101B4000E62EF12CB7010C2E02C0759567950A940C
:101B5000E2F76170F801EC0FFD1F87810E942749B1
:101B60002196C430D10571F7C801DF91CF911F9143
:101B70000F91FF90EF90BECFEF92FF920F931F93C4
:101B8000CF93DF938C01C0E0D0E0E62EF12CB701BB
:101B90000C2E02C0759567950A94E2F76170F80102
:101BA000EC0FFD1F87810E9427492196C830D1057F
:101BB00071F7C801DF91CF911F910F91FF90EF90C6
:101BC00099CF1F93CF93DF93EC01162F642F8C8155
:101BD0000E9427498D818F3F19F060E00E942749BC
:101BE0008F85612F84FF05C0CE01DF91CF911F91BA
:101BF000C3CF70E084E0759567958A95E1F7CE01D3
:101C000096DF612FCE01DF91CF911F9190CF40E001
:101C1000D8CF61E0FCDF80ED97E00C94454744307D
:101C200008F043E0FC012389421710F04FEF420F08
:101C3000FC01E40FF11D2489260F2068622FE7CFF5
:101C4000FC016089262F2460208B6C60E0CF0F930D
:101C50001F93CF93DF93EC01423018F08F8588609B
:101C60008F874B8B1C8A80E48D8B6E8B70E0605C61
:101C70007F4F6F8B222329F0413019F48F858460C8
:101C80008F8761E08C810E94EE488D818F3F19F033
:101C900061E00E94EE4861E08E810E94EE4800E023
:101CA00010E08F8584FF03C088E090E002C084E0EC
:101CB00090E00817190754F4FE01E00FF11F61E0EE
:101CC00087810E94EE480F5F1F4FEBCF80E593ECBA
:101CD0000E94454760E08C810E94274960E08E8128
:101CE0000E9427498D818F3F19F060E00E942749AB
:101CF0006F8564FD19C063E0CE0119DF84E991E1CD
:101D00000E94454763E0CE0112DF84E991E10E9421
:101D1000454763E0CE010BDF86E990E00E9445472E
:101D200062E0CE0104DF13C06062CE0170DF84E99F
:101D300091E10E9445476F856062CE0168DF86E9C8
:101D400090E00E9445476F856062CE0160DF6F853D
:101D50006062CE015CDF84E0888BCE0171DFCE0152
:101D600058DF82E0898B66E0CE01DF91CF911F9131
:101D70000F914DCFCF92EF920F93FC0113821282FD
:101D800084E393E09183808364838FEF858346832C
:101D900027830087E186C2861386148615861686F9
:101DA000178620E041E060E1CF010F91EF90CF90E6
:101DB0004ECFFC0160896E7F608B686028CFFC018C
:101DC0006089262F2160208B696021CF41E0F9DEF8
:101DD00081E090E0089580918E0590E020918F053C
:101DE000821B9109089520918F0580918E052817F7
:101DF00050F4E22FF0E0E057FA4F808190E02F5F3F
:101E000020938F0508958FEF9FEF0895E0918F0540
:101E100080918E05E81730F4F0E0E057FA4F8081AA
:101E200090E008958FEF9FEF08950895CF92DF928D
:101E3000EF92FF920F931F93CF93DF937C01CB011F
:101E40008A0120916A05222389F0EB016B01C40EFF
:101E5000D51ECC15DD0561F06991D701ED91FC919E
:101E60000190F081E02DC7011995F3CF642F8FD138
:101E7000C801DF91CF911F910F91FF90EF90DF90FC
:101E8000CF900895CF93DF931F92CDB7DEB76983CC
:101E900020916A052223D1F020916B05203240F079
:101EA00021E030E0FC013383228380E090E014C025
:101EB00080916C05E82FF0E0E359FA4F9981908307
:101EC0008F5F80936C0580936B0504C061E0CE0149
:101ED00001965DD181E090E00F90DF91CF91089560
:101EE000FC011382128248EE53E060E070E044830C
:101EF0005583668377838CE393E091838083089591
:101F000010928F0510928E0510926C0510926B0541
:101F100081C081E080936A0560938D0510926C0505
:101F200010926B050895F5CF0F93062F21E0409195
:101F30006B056DE675E080918D05D2D010926C0531
:101F400010926B0510926A050F9108958F929F92DF
:101F5000AF92BF92CF92DF92EF92FF920F931F93B7
:101F6000CF93DF93EC01F62ED42E48015901EE20D9
:101F700009F1CFDF1E2D143008F013E01150B8F036
:101F8000E881F98128E0129FB0011124A501940194
:101F900004C056954795379527956A95D2F7CA019B
:101FA000B9010190F081E02DCE011995E7CF60E0F5
:101FB000CE01BADF4D2D413208F040E22C2D60E910
:101FC00075E08F2D45D010928F0580938E05DF919F
:101FD000CF911F910F91FF90EF90DF90CF90BF9026
:101FE000AF909F908F900895CF92EF920F931F9391
:101FF000C22EE12C00E010E09801A8DF1F910F91A4
:10200000EF90CF90089521E0EFCF61E08DCF8EE586
:1020100095E066CF10921D0681E080931B0610921A
:102020001A0661E084E10E94274961E085E10E948F
:102030002749E9EBF0E080818E7F808380818D7F6E
:10204000808388E48093B80085E48093BC00089581
:10205000413208F043C090911D069111FCCF91E0F0
:1020600090931D0620931B062FEF2093B00510922E
:10207000F505240F2093F40590931C0690911C06FF
:10208000880F892B80931C0680911A06813061F499
:1020900010921A0680911C068093BB008091BC00B0
:1020A00083FDF8CF85EC01C085EE8093BC00809164
:1020B0001D068130E1F38091F505841710F44091FD
:1020C000F50526EF35E0FB01D9018A2F821B841725
:1020D00018F48D918193F9CF842F089580E00895AD
:1020E0000F93413208F04AC090911D069111FCCF28
:1020F00092E090931D0600931B069FEF9093B0050E
:102100001092F5054093F405FB0166EF75E0DB01E5
:102110009A2F961B941718F491919D93F9CF1092D2
:102120001C0690911C06880F892B80931C068091B9
:102130001A06813061F410921A0680911C06809371
:10214000BB008091BC0083FDF8CF85EC01C085EE1B
:102150008093BC00222321F080911D068230E1F3A0
:102160008091B0058F3F61F08091B005803251F0D1
:102170008091B005803341F483E007C081E005C061
:1021800080E003C082E001C084E00F9108956132D5
:1021900098F420911D06243089F46093D205FC0147
:1021A00084ED95E0DC012A2F281B261718F42191D5
:1021B0002D93F9CF80E0089581E0089582E008959D
:1021C00085ED8093BC008091BC0084FDFCCF109213
:1021D0001D06089585EC8093BC0010921D0608959D
:1021E0001F920F920FB60F9211240BB60F922F93DE
:1021F0003F934F935F936F937F938F939F93AF938F
:10220000BF93EF93FF938091B900887F803609F4E4
:102210009DC070F5883209F45CC090F4803109F4F7
:1022200055C038F4882309F4F3C0883009F44EC04F
:10223000F2C0883109F44DC0803209F45EC0EBC0B1
:10224000803409F469C050F4803309F456C08833EF
:1022500009F0E1C08093B005BDDFDDC0803509F431
:102260004FC0883509F45DC0883409F0D4C0D2C0AD
:10227000883909F4C3C0A8F4883709F467C038F472
:10228000883609F463C0803709F460C0C4C0883858
:1022900009F4B4C0803909F45FC0803809F0BBC0CC
:1022A0005BC0803B09F482C038F4803A09F466C010
:1022B000883A09F47BC0AFC0803C09F4A3C0883CD5
:1022C00009F4A0C0883B09F486C0A5C080911C0613
:1022D00010C09091F5058091F405981770F5E09184
:1022E000F50581E08E0F8093F505F0E0EA50FA4F96
:1022F00080818093BB0085EC82C08093B0058AC04A
:10230000E091F50581E08E0F8093F5058091BB008B
:10231000F0E0EA50FA4F80839091F5058091F40542
:102320006AC0E091F50581E08E0F8093F5058091FC
:10233000BB00F0E0EA50FA4F808380911B068111C8
:1023400069C081E080931A0684EA5DC083E08093CF
:102350001D061092B105CFCF8091B105803208F0F3
:102360004DC0E091B10581E08E0F8093B105809161
:10237000BB00F0E0EE54FA4F8083BDCF2BDF80919D
:10238000B105803230F4E091B105F0E0EE54FA4F3F
:1023900010826091B10570E0E0911606F091170689
:1023A00082EB95E019951092B10535C084E08093D9
:1023B0001D061092D3051092D205E0911806F091F7
:1023C000190619958091D205811105C081E080938D
:1023D000D2051092D405E091D30581E08E0F809351
:1023E000D305F0E0EC52FA4F80818093BB009091CE
:1023F000D3058091D205981708F47DCF85E88093A6
:10240000BC0009C085EC8093BC0010921D0603C07F
:102410001092B005D5DEFF91EF91BF91AF919F91E2
:102420008F917F916F915F914F913F912F910F907D
:102430000BBE0F900FBE0F901F90189508958091BE
:10244000420690914306A0914406B0914506805AF9
:102450009541AF4FBF4F8093420690934306A093A0
:102460004406B09345060895809142069091430634
:10247000A0914406B091450680569A4EA109B10933
:102480008093420690934306A0934406B09345067A
:10249000089580913A0690913B06A0913C06B09138
:1024A0003D06805A9541AF4FBF4F80933A069093B7
:1024B0003B06A0933C06B0933D0608958091FD0C29
:1024C0009091FE0CA091FF0CB091000D8093FA0D3D
:1024D0009093FB0DA093FC0DB093FD0D089580919A
:1024E000010D9091020DA091030DB091040D809308
:1024F000280E9093290EA0932A0EB0932B0E0895C8
:102500008091050D9091060DA091070DB091080DD9
:102510008093560E9093570EA093580EB093590E79
:1025200008958091090D90910A0DA0910B0DB09125
:102530000C0D8093840E9093850EA093860EB0931D
:10254000870E089581E090E09093920C8093910C17
:1025500083E797E090934F0680934E060C94A5373F
:1025600083E090E09093920C8093910C82E197E04D
:1025700090934F0680934E060C94A53787E090E029
:102580009093920C8093910C80E596E090934F0687
:1025900080934E060C94A53787E090E09093920CC0
:1025A0008093910C80E596E090934F0680934E06C1
:1025B0000C94A537CF92DF92EF92FF928EEF9BE0C3
:1025C0000E9416238EE49BE00E94E02B86EC9AE0AA
:1025D0000E94E02B8EE39AE00E94E02B86EB99E0CC
:1025E0000E94E02B8EE49BE00E94FC2D6B017C019D
:1025F00020E030E040E450E46091FD0C7091FE0C6E
:102600008091FF0C9091000D0E94CB4D9B01AC017D
:10261000C701B6010E94D24F18160CF073C086ECA9
:102620009AE00E94FC2D6B017C0120E030E040E448
:1026300050E46091010D7091020D8091030D909115
:10264000040D0E94CB4D9B01AC01C701B6010E9455
:10265000D24F18160CF056C08EE39AE00E94FC2D63
:102660006B017C0120E030E040E450E46091050D16
:102670007091060D8091070D9091080D0E94CB4D31
:102680009B01AC01C701B6010E94D24F1816D4F5C8
:1026900086EB99E00E94FC2D6B017C0120E030E08C
:1026A00040E450E46091090D70910A0D80910B0D8A
:1026B00090910C0D0E94CB4D9B01AC01C701B6015E
:1026C0000E94D24F1816F4F461E070E08EEF9BE0A8
:1026D0000E94122383E090E09093920C8093910CDF
:1026E00082E197E090934F0680934E060E94A537B3
:1026F00080914E0690914F06FF90EF90DF90CF9023
:102700000C942536FF90EF90DF90CF900895CF92F4
:10271000DF92EF92FF9268E473E081E89FE00E940D
:10272000134C0E94F14660934606709347068093CF
:102730004806909349060E94CD4E6B017C0120E033
:1027400030E040E752E46091F90C7091FA0C80910E
:10275000FB0C9091FC0C0E94D64F20E030E04AE741
:1027600054E40E94D64F9B01AC01C701B6010E9400
:10277000CC4D0E94A14E6093420670934306809315
:1027800044069093450684E090E09093920C8093E9
:10279000910CFF90EF90DF90CF9008954091DB0C6B
:1027A0005091DC0C6091DD0C7091DE0C82EA99E0B6
:1027B0000C94654381EF98E00E946E3B4091DF0CE2
:1027C0005091E00C6091E10C7091E20C81EF98E087
:1027D0000C94FD3ACF92DF92EF92FF92809100022B
:1027E000882381F120E030E0A9016091DB0C709139
:1027F000DC0C8091DD0C9091DE0C0E94D24F1816FB
:10280000FCF480912C0681111BC085E398E00E94A6
:10281000184082EA99E00E94A04381E080932C0650
:1028200081E090E090932B0680932A060E94F14667
:1028300060932606709327068093280690932906B6
:102840001092000280912C06882309F46BC00E942C
:10285000F146C0902606D0902706E0902806F0901A
:1028600029066C157D058E059F0508F45BC08091D7
:102870002A0690912B06803991400CF053C08EE4CB
:102880009BE00E94E02B86EC9AE00E94E02B8EE316
:102890009AE00E94E02B86EB99E00E94E02B20E07A
:1028A00030E048EC53E46091DB0C7091DC0C8091DB
:1028B000DD0C9091DE0C0E94344E6B017C01609126
:1028C0002A0670912B06882777FD8095982F0E9405
:1028D000CF4E9B01AC01C701B6010E94D64FAB01A0
:1028E000BC0182EA99E00E94654380912A0690919A
:1028F0002B06019690932B0680932A06809126063C
:1029000090912706A0912806B09129060596A11D51
:10291000B11D8093260690932706A0932806B093B6
:10292000290670C080912C06882341F080912A06E8
:1029300090912B06803991400CF464C010922C06C3
:1029400081E080930002C090DF0CD090E00CE0901A
:10295000E10CF090E20C20E030E0A901C701B601E3
:102960000E94D24F1816C4F4B701A60181EF98E077
:102970000E94FD3A60E070E081EF98E00E94053B24
:1029800081EF98E00E946E3B86E698E00E94B0409E
:1029900086E698E00E94AA400E94F1466B017C0105
:1029A00060933E0670933F068093400690934106E5
:1029B0002091960E3091970E4091980E5091990E5D
:1029C000A0E6BAEE0E947E506C0D7D1D8E1D9F1DEF
:1029D00060933A0670933B0680933C0690933D06C5
:1029E00086E090E09093920C8093910C81EB96E0BE
:1029F00090934F0680934E06FF90EF90DF90CF901C
:102A00000C942536FF90EF90DF90CF9008950F93B0
:102A10001F938EEF9BE00E9416238EE49BE00E94A2
:102A2000E02B86EC9AE00E94E02B8EE39AE00E9475
:102A3000E02B8EE39AE00E94E02B81EF98E00E9469
:102A4000A93B0E94F14600913A0610913B06209165
:102A50003C0630913D060053154721093109061700
:102A600017072807390730F463E070E08EEF9BE02A
:102A70000E9412231F910F910C94F14689E79CE06C
:102A8000C8D867EF75E089E79CE00E94D34B64EFFC
:102A900071E080E090E00E94204785EB9CE00E947E
:102AA000AC2889E79CE0B5D863EE75E089E79CE047
:102AB0000E94D34B60ED77E080E090E00E942047D9
:102AC00084ED97E00C94253660E070E085EB9CE0A7
:102AD0000C942F2961E070E085EB9CE00C942F2989
:102AE00062E070E085EB9CE00C942F2963E070E0DD
:102AF00085EB9CE00C942F2964E070E085EB9CE072
:102B00000C942F2965E070E085EB9CE00C942F2954
:102B100066E070E085EB9CE00C942F2967E070E0A4
:102B200085EB9CE00C942F2968E070E085EB9CE03D
:102B30000C942F2969E070E085EB9CE00C942F2920
:102B400085EB9CE00C94D2256EEB75E081E89FE06C
:102B50000E94D34B6091B50C7091B60C4AE050E0E6
:102B600081E89FE00E94CA4C89E79CE052D86CEA59
:102B700075E089E79CE00E94D34B85EB9CE00E94C6
:102B8000E82864EF71E080E090E00E94204789E748
:102B90009CE03FD86EE975E089E79CE00E94D34B4A
:102BA00060ED77E080E090E00C94204786ED9BE0BC
:102BB0000E94E9421092920C1092910C089580911B
:102BC00040028636F9F463E573E08FE392E00E94F9
:102BD000D95061E070E08EE49BE00E94F92D61E045
:102BE00070E086EC9AE00E94F92D61E070E08EE3DF
:102BF0009AE00E94F92D61E070E086EB99E00E9476
:102C0000F92D3AC066E573E08FE392E00E94D95057
:102C100060E070E08EE49BE00E94F92D60E070E0DF
:102C200086EC9AE00E94F92D60E070E08EE39AE075
:102C30000E94F92D60E070E086EB99E00E94F92D8A
:102C400040E050E0BA018EE49BE00E94792D40E024
:102C500050E0BA0186EC9AE00E94792D40E050E005
:102C6000BA018EE39AE00E94792D40E050E0BA016B
:102C700086EB99E00E94792D80914E0690914F0647
:102C80000C94253680913C028636B9F463E573E0F6
:102C90008BE392E00E94D9504091A10C5091A20C7C
:102CA0006091A30C7091A40C81EF98E00E94FD3A12
:102CB00081EF98E00E946E3B0AC066E573E08BE30B
:102CC00092E00E94D95081EF98E00E946B3B809186
:102CD0004E0690914F060C94253686ED9BE00E949F
:102CE0004D4367E372E086ED9BE00E94744161E52D
:102CF00075E081E89FE00E94134C6AE573E081E88B
:102D00009FE00E94F64B67E372E081E89FE00E943B
:102D1000134C61E575E081E89FE00C94134C86ED5F
:102D20009BE00E94794186ED9BE00C94014286ED88
:102D30009BE00C9417424091D70C5091D80C6091B5
:102D4000D90C7091DA0C86ED9BE00C942D4281EF4A
:102D500098E00C94083B40E050E060E271E486E6C5
:102D600098E00E94864086E698E00E94AA4060E7CC
:102D700077E180E090E00E94204786E698E00E949C
:102D8000AD4080914E0690914F060C94253686ED0D
:102D90009BE00E947941609131027091320286ED90
:102DA0009BE00C945B4286ED9BE00E947941A091F0
:102DB0002F02B091300220E63AEE0E947850AB012B
:102DC000BC0186ED9BE00C9491420E94F146609319
:102DD0002E0670932F0680933006909331068EEF67
:102DE0009BE00E9416238EE49BE00E94E02B86EC81
:102DF0009AE00E94E02B8EE39AE00E94E02B86EBA3
:102E000099E00E94E02B8091420690914306A091A8
:102E10004406B091450688589341A109B1094091F3
:102E20002E0650912F06609130067091310648179A
:102E300059076A077B0768F080912D06811109C048
:102E400062E070E08EEF9BE00E94122381E08093AD
:102E50002D0640912E0650912F06609130067091FC
:102E600031068091420690914306A0914406B091AC
:102E70004506481759076A077B0740F110922D064F
:102E800061E575E081E89FE00E94134C61E076E027
:102E900081E89FE00E94034C61E575E081E89FE0D6
:102EA0000E94134C87E090E09093920C8093910CD9
:102EB00080E596E090934F0680934E060E94A537DA
:102EC00080914E0690914F060C94253608950F93ED
:102ED0001F938EEF9BE00E9416238EE49BE00E94DE
:102EE000E02B86EC9AE00E94E02B8EE39AE00E94B1
:102EF000E02B81EF98E00E94A93B0E94F1460091EF
:102F00002206109123062091240630912506601791
:102F1000710782079307C0F086E698E00E94B040F0
:102F20008091220690912306A0912406B091250657
:102F300088519C4FAF4FBF4F80932206909323063A
:102F4000A0932406B09325061F910F91089586ED56
:102F50009BE00E942B438091FD0B882319F063E5D1
:102F600073E002C066E573E08BE292E00C94D95006
:102F70006115710581F0DB010D900020E9F7AD01CD
:102F800041505109461B570BDC01ED91FC91028029
:102F9000F381E02D199480E090E0089562E176E0FD
:102FA00081E89FE00C94034C89DA99DAA9DAB9DA5E
:102FB0000E94F14660934A0670934B0680934C063C
:102FC00090934D0640E050E064EB72E48EE49BE0A9
:102FD0000E94792D40E050E064EB72E486EC9AE0C8
:102FE0000E94792D40E050E06FE773E48EE39AE0B1
:102FF0000E94792D40E050E06FE773E486EB99E0A2
:103000000E94792D61E070E08EE49BE00E94F92D32
:1030100061E070E086EC9AE00E94F92D61E070E0DA
:103020008EE39AE00E94F92D61E070E086EB99E072
:103030000E94F92DB3DF82E090E09093920C809390
:10304000910C089582EA99E00E94A0434091DB0C24
:103050005091DC0C6091DD0C7091DE0C82EA99E0FD
:103060000E9465434091DF0C5091E00C6091E10CAF
:103070007091E20C81EF98E00E94FD3A60E070E010
:1030800081EF98E00E94053B81EF98E00E946E3B43
:103090008EEF9BE00E946C230E94F14660933606FF
:1030A00070933706809338069093390677DF81EF67
:1030B00098E00E94943B88E090E09093920C80937B
:1030C000910C089526E040E052EC61E070E081E868
:1030D0009FE00E94934A8EE595E00E94800F20E0D9
:1030E00044E064E189E79CE00E94270E89E79CE0C8
:1030F0000E94090E84ED97E090934F0680934E0650
:1031000066E070E08EEF9BE00E9412231092920C1A
:103110001092910C82EA99E00E94D94385EB9CE0E1
:103120000E94CF2880914E0690914F060E94A537AD
:1031300060E773E081E89FE00E94F64B40918A0EC1
:1031400050918B0E60918C0E70918D0E26E030E0C8
:1031500081E89FE00E94BA4D6FE873E081E89FE04C
:103160000E94F64B40918E0E50918F0E6091900E02
:103170007091910E24E030E081E89FE00C94BA4D0C
:10318000CF92DF92EF92FF920F931F93CF93DF9333
:1031900000D000D0CDB7DEB76C01CB01BA0128EE6C
:1031A00033E040E050E00E945050C9016CE370E011
:1031B0000E943D507C01882777FD8095982F0E94C2
:1031C000CF4E8E010C5F1F4F20E042E00E94AF50B7
:1031D000B701882777FD8095982F0E94CF4E035026
:1031E000110920E042E00E94AF50BE016C5F7F4FAA
:1031F000C6010E94D950C601FC010196208121110F
:10320000FBCF8AE381938AE0E816F10414F480E3AB
:103210008983DE0111968D91882311F08193FBCF74
:10322000C60126960FB6F894DEBF0FBECDBFDF9164
:10323000CF911F910F91FF90EF90DF90CF90089565
:10324000CF92EF920F931F9385EB9CE00E9474291D
:1032500080E2C82E9EE1E92E0CE12AE148E166E118
:1032600089E79CE00E94BA0E24E0E22E04E021E10E
:1032700032E045E152E061E072E08BE09CE00E94C8
:10328000132E8EEF9BE00E94062365EB7CE086ED1B
:103290009BE00E946C4162ED7DE08EE49BE00E9429
:1032A000252B60E07EE086EC9AE00E94252B6EE202
:1032B0007EE08EE39AE00E94252B6CE57EE086EBB3
:1032C00099E00E94252B4091A00D5091A10D65EB36
:1032D0007CE082EA99E00E941C4465EB7CE081EF8F
:1032E00098E00E947A3A65EB7CE086E698E00E94DE
:1032F000234065EB7CE085E398E00E9412400BE000
:103300001CE029E73CE049E750E067EB7BE084ED17
:1033100097E00E94FA3029E73CE045E150E061E99E
:103320007AE083E797E00E94FA3029E73CE04AE13F
:1033300050E065E279E082E197E00E94FA3029E707
:103340003CE048E150E065ED77E081EB96E00E94DB
:10335000FA3029E73CE047E150E063E976E080E5B8
:1033600096E00E94FA301F910F91EF90CF90089550
:103370008F929F92AF92BF92CF92DF92EF92FF9285
:103380000E94F1460E94F1464B015C0189E79CE0F6
:103390000E94090E85EB9CE00E94D22581EF98E007
:1033A0000E94273B40E050E060E271E481EF98E04A
:1033B0000E94FD3A86E698E00E94B04081EF98E0D6
:1033C0000E946E3B86E698E00E94AA4081EF98E05A
:1033D0000E94943B61E070E081EF98E00E94053B21
:1033E00081E89FE00E94844918161906B4F481EF21
:1033F00098E00E946B3B86E698E00E94AD40809189
:103400004E0690914F06FF90EF90DF90CF90BF90C7
:10341000AF909F908F900C9425360E94F1466B01DF
:103420007C0181EF98E00E94A93B86E698E00E942B
:10343000B040C814D904EA04FB0490F261E070E0E3
:1034400081EF98E00E94E93AAB01BC0122E030E054
:1034500081E89FE00E94B94D6DE673E081E89FE04E
:103460000E94F64B62E070E081EF98E00E94E93A3A
:103470009B01AC0160E070E080E894E40E94CB4DD9
:10348000AB01BC0122E030E081E89FE00E94B94D31
:103490006DE673E081E89FE00E94F64B81EF98E0D3
:1034A0000E94DC3AAB01BC0122E030E081E89FE001
:1034B0000E94B94D6DE673E081E89FE00E94F64BF3
:1034C00081EF98E00E94D93AAB01BC0122E030E0E4
:1034D00081E89FE00E94B94D6DE673E081E89FE0CE
:1034E0000E94F64B81EF98E00E94713BAB01BC015A
:1034F00022E030E081E89FE00E94BA4D460157018A
:1035000084EF880E81E0981EA11CB11C69CFCF9278
:10351000DF92EF92FF920F931F938BE09CE00E944B
:10352000DD3080930A0C81E89FE00E9484491816E0
:10353000190634F481E89FE00E949D4980930A0CAB
:1035400080910A0C833489F1ACF48433E1F16CF49A
:103550008A3209F43FC0813309F049C080914E0698
:1035600090914F060E94EE3142C0813481F0823446
:10357000A9F03DC0813759F02CF48434E9F0853648
:10358000A1F035C08237C1F0873741F030C080915B
:103590004E0690914F060E940E3729C080914E062C
:1035A00090914F060E94413722C080914E06909123
:1035B0004F060E94203A1BC080914E0690914F0604
:1035C0000E94703714C080914E0690914F060E9461
:1035D0006F320DC020E044E064E189E79CE00E9486
:1035E000270E80914E0690914F060E942536E0915D
:1035F000910CF091920CEE0FFF1FE75EFD4F0190D2
:10360000F081E02D19958EE49BE00E94E02B86EC82
:103610009AE00E94E02B8EE39AE00E94E02B86EB7A
:1036200099E00E94E02B0E94F14660931E06709381
:103630001F068093200690932106C0903206D090FA
:103640003306E0903406F09035066C157D058E0546
:103650009F0508F48CC08EE49BE00E94FC2D6093D3
:10366000B10C7093B20C8093B30C9093B40C86ECB5
:103670009AE00E94FC2D6093AD0C7093AE0C809389
:10368000AF0C9093B00C8EE39AE00E94FC2D6093F7
:10369000A90C7093AA0C8093AB0C9093AC0C86EBA6
:1036A00099E00E94FC2D6093A50C7093A60C80936A
:1036B000A70C9093A80C86E698E00E943541AB01D8
:1036C000BC0122E030E081E89FE00E94BA4D809189
:1036D000910C9091920C0497A9F4C0904206D0905E
:1036E0004306E0904406F09045060E94F14697019B
:1036F0008601061B170B280B390BB901A80185E9B8
:103700009CE03EDD8091910C9091920C0697A9F47B
:10371000C0903A06D0903B06E0903C06F0903D0603
:103720000E94F14697018601061B170B280B390BE7
:10373000B901A8018BE99CE023DD0E94F1466851A4
:103740007C4F8F4F9F4F6093320670933306809368
:1037500034069093350680914E0690914F061F9146
:103760000F91FF90EF90DF90CF900C9425361F9132
:103770000F91FF90EF90DF90CF900895CF93DF935C
:103780006BE475E081E89FE00E94034C89E79CE0D0
:103790000E94090E66E375E089E79CE00E94D34B26
:1037A00041E060E089E79CE00E940F0E62E275E074
:1037B00089E79CE00E94D34B42E060E089E79CE00F
:1037C0000E940F0E6DE075E089E79CE00E94D34BEC
:1037D00043E060E089E79CE00E940F0E68EF74E030
:1037E00089E79CE00E94D34B68E873E180E090E0B9
:1037F0000E94204789E79CE00E94090E6DED74E06D
:1038000089E79CE00E94D34B41E060E089E79CE0BF
:103810000E940F0E66ED74E089E79CE00E94D34B96
:1038200042E060E089E79CE00E940F0E60ED74E0EA
:1038300089E79CE00E94D34B8BE09CE00E94DD3046
:1038400080930A0C81E89FE00E94844918161906AB
:1038500034F481E89FE00E949D4980930A0C809196
:103860000A0C813459F568EB74E081E89FE00E940E
:10387000034C89E79CE00E94090E64EA74E089E742
:103880009CE00E94D34B85EB9CE00E947A2685EB5E
:103890009CE00E94AC2885EB9CE00E94D225C0E011
:1038A000D0E0D093B60CC093B50C85EB9CE00E94A1
:1038B000E8282196CA30D105A1F702C081E001C0F5
:1038C00080E090910A0C923411F08111B5CF84ED13
:1038D00097E0DF91CF910C942536CF93DF9389E762
:1038E0009CE00E94090E64E974E089E79CE00E9474
:1038F000D34B41E060E089E79CE00E940F0E6DE849
:1039000074E089E79CE00E94D34B42E060E089E7E5
:103910009CE00E940F0E67E874E089E79CE00E943B
:10392000D34BC4EDD7E08BE09CE00E94DD30809368
:103930000A0C81E89FE00E9484491816190634F4A5
:1039400081E89FE00E949D4980930A0C80910A0CB7
:10395000893711F0813451F582EA99E00E94D94308
:1039600081EF98E00E946B3B86ED9BE00E94E9426C
:103970008EE49BE00E94CE2D86EC9AE00E94CE2D34
:103980008EE39AE00E94CE2D86EB99E00E94CE2D28
:1039900086E698E00E94AD401092920C1092910C35
:1039A000D0934F06C0934E0680E001C081E0909115
:1039B0000A0C9E3621F0923411F08111B4CFDF91C0
:1039C000CF9108958ACF89CF88CF87CFCF93DF93C8
:1039D00089E79CE00E94090E64E774E089E79CE0B7
:1039E0000E94D34B41E060E089E79CE00E940F0E0B
:1039F0006FE574E089E79CE00E94D34B42E060E011
:103A000089E79CE00E940F0E60E574E089E79CE086
:103A10000E94D34B43E060E089E79CE00E940F0ED8
:103A20006FE374E089E79CE00E94D34B68E873E1A0
:103A300080E090E00E94204789E79CE00E94090E08
:103A400065E374E089E79CE00E94D34B41E060E0CD
:103A500089E79CE00E940F0E6EE274E089E79CE02B
:103A60000E94D34B42E060E089E79CE00E940F0E89
:103A700068E274E089E79CE00E94D34B8BE09CE015
:103A80000E94DD3080930A0C81E89FE00E94844907
:103A90001816190634F481E89FE00E949D4980932E
:103AA0000A0C80910A0C813439F1823439F71CC038
:103AB000813409F445C08BE09CE00E94DD308093A6
:103AC0000A0C81E89FE00E9484491816190634F414
:103AD00081E89FE00E949D4980930A0C80910A0C26
:103AE0008334C9F1843421F780914E0690914F06BA
:103AF000DF91CF910C94253689E79CE00E94090E56
:103B000066E174E089E79CE00E94D34B41E060E00D
:103B100089E79CE00E940F0E65E074E089E79CE075
:103B20000E94D34B42E060E089E79CE00E940F0EC8
:103B30006DEF73E089E79CE00E94D34BC1E0BBCFFF
:103B400082EA99E0CC2321F00E94A043C0E0B3CFE9
:103B50000E94D943F3CFC11106C08091A50D91E019
:103B600089278093A50D89E79CE00E94090E68EEE5
:103B700073E089E79CE00E94D34B68E873E180E042
:103B800090E00E94204789E79CE00E94090E6EEDBC
:103B900073E089E79CE00E94D34B41E060E089E755
:103BA0009CE00E940F0E67ED73E089E79CE00E94A5
:103BB000D34B42E060E089E79CE00E940F0E61ED8C
:103BC00073E089E79CE00E94D34B8BE09CE00E946D
:103BD000DD3080930A0C81E89FE00E94844918162A
:103BE000190634F481E89FE00E949D4980930A0CF5
:103BF00080910A0C813419F0823439F775CF82EA4A
:103C000099E00E94A04340E050E060E87FE382EA50
:103C100099E00E94654389E79CE00E94090E6DEBE4
:103C200073E089E79CE00E94D34B41E060E089E7C4
:103C30009CE00E940F0E66EB73E089E79CE00E9417
:103C4000D34B42E060E089E79CE00E940F0E60EBFE
:103C500073E089E79CE00E94D34B43E060E089E792
:103C60009CE00E940F0E68EA73E089E79CE00E94E6
:103C7000D34BD1E08BE09CE00E94DD3080930A0CB6
:103C800081E89FE00E9484491816190634F481E8FF
:103C90009FE00E949D4980930A0C80910A0C823417
:103CA00009F44AC0843409F451C0813419F7CC2393
:103CB00009F382EA99E00E94D94389E79CE00E94D7
:103CC000090E66E973E089E79CE00E94D34B68E83F
:103CD00073E180E090E00E94204789E79CE00E9429
:103CE000090E65E873E089E79CE00E94D34B41E050
:103CF00060E089E79CE00E940F0E64E773E089E7CB
:103D00009CE00E94D34B42E060E089E79CE00E9487
:103D10000F0E6BE673E089E79CE00E94D34B43E013
:103D200060E089E79CE00E940F0E63E673E089E79C
:103D30009CE00E94D34B16C08091A40D8D278093E8
:103D4000A40D82EA99E00E94B24494CF82EA99E0FD
:103D50000E94D943C9CE80910A0C8134B9F08234D3
:103D600009F4C2CE8BE09CE00E94DD3080930A0C07
:103D700081E89FE00E9484491816190664F781E8DB
:103D80009FE00E949D4980930A0CE5CF89E79CE063
:103D90000E94090E61E573E089E79CE00E94D34B25
:103DA00082EA99E00E94A04361E086E00E94EE482A
:103DB00082EA99E00E94A04340E050E060E271E4B2
:103DC00082EA99E00E94654360E777E180E090E055
:103DD0000E94204782EA99E00E94D94389E79CE04B
:103DE0000E94090E6DE373E089E79CE00E94D34BCB
:103DF00041E060E089E79CE00E940F0E6BE273E017
:103E000089E79CE00E94D34B42E060E089E79CE0B8
:103E10000E940F0E6CE173E089E79CE00E94D34B97
:103E200043E060E089E79CE00E940F0E69E073E0E8
:103E300089E79CE00E94D34B68E873E180E090E062
:103E40000E94204789E79CE00E94090E6AEF72E019
:103E500089E79CE00E94D34B41E060E089E79CE069
:103E60000E940F0E63EF72E089E79CE00E94D34B43
:103E700042E060E089E79CE00E940F0E6DEE72E088
:103E800089E79CE00E94D34B8BE09CE00E94DD30F0
:103E900080930A0C81E89FE00E9484491816190655
:103EA00034F481E89FE00E949D4980930A0C809140
:103EB0000A0C813431F485EB9CE00E94AC2880E050
:103EC00001C081E090910A0C923409F40DCE811169
:103ED000DBCF0ACEBF92CF92DF92EF92FF920F9389
:103EE0001F93CF93DF9300D000D0CDB7DEB77C0116
:103EF0008B0189E79CE00E94090EB70189E79CE0ED
:103F000037D841E060E089E79CE00E940F0EB801DD
:103F100089E79CE02DD843E060E089E79CE00E94BF
:103F20000F0E63EB73E089E79CE022D842E060E08B
:103F300089E79CE00E940F0EDD24D3948E010F5F71
:103F40001F4F78014EE2B42E8BE09CE00E94F030CF
:103F500080930A0C81E89FE00E9484491816190694
:103F600034F481E89FE00E949D4980930A0C60919F
:103F70000A0C6134E9F044F46A32F1F16E32E1F195
:103F8000633209F04CC0E0CF6434F4F2643409F0D9
:103F900046C0C7010E94CF5020E030E0A9010E9436
:103FA000304E882309F449C0C7010E94CF5049C050
:103FB000E016F10608F041C0B8016E197F09CC2463
:103FC000CA94C60E42E06C2D89E79CE00E940F0E59
:103FD00060E289E79CE00E94E60E42E06C2D89E7F2
:103FE0009CE00E940F0EF80182918F018E3209F041
:103FF000ABCFDD24D394A8CFC8018E199F090597B4
:104000000CF0A2CFDD2009F49FCFF801B1928F010F
:104010006EE289E79CE00E94E60ED12C95CFC801A4
:104020008E199F0905970CF08FCFF80161938F01CE
:1040300089E79CE00E94E60E87CF60E070E080E8B0
:104040009FEB26960FB6F894DEBF0FBECDBFDF9173
:10405000CF911F910F91FF90EF90DF90CF90BF9085
:104060000895CF92DF92EF92FF920F931F93CF9319
:10407000DF93CDB7DEB7CA55D1090FB6F894DEBFCE
:104080000FBECDBF89E79CE00E94090E69ED72E08A
:1040900089E79CE00E94D34B65EC72E081E89FE0E9
:1040A0000E94034C60EA7FE080E090E00E9420479D
:1040B00089E79CE00E94090E40E060E089E79CE00F
:1040C0000E940F0E60EB72E089E79CE00E94D34BE8
:1040D00041E060E089E79CE00E940F0E6BE972E02E
:1040E00089E79CE00E94D34B43E060E089E79CE0D5
:1040F0000E940F0E6DE872E089E79CE00E94D34BAE
:1041000061E672E081E89FE00E94034C8BE09CE056
:104110000E94DD30182F81E89FE00E948449181624
:1041200019062CF481E89FE00E949D49182F143451
:1041300019F0113459F75AC289E79CE00E94090E20
:104140006EE472E089E79CE00E94D34B41E060E0BE
:1041500089E79CE00E940F0E62EC73E089E79CE027
:104160000E94B81742E060E089E79CE00E940F0ED1
:1041700065ED73E089E79CE00E94B81743E060E0DA
:1041800089E79CE00E940F0E6AEE73E089E79CE0ED
:104190000E94B81764E172E081E89FE00E94034C3E
:1041A00061E072E081E89FE00E94034C60EA7FE0FA
:1041B00080E090E00E94204789E79CE00E94090E81
:1041C0006EEF73E089E79CE00E94B81762E070E050
:1041D00081EF98E00E94E93A6B017C0141E067E0E1
:1041E00089E79CE00E940F0E22E030E0B701A601B3
:1041F00089E79CE00E94B94D22E030E0B701A601BA
:1042000081E89FE00E94BA4D68EE73E080E090E0A4
:104210000E94204720E030E849E054E4C701B6019D
:104220000E94304E87FF16C020E030E041EE53E49C
:10423000C701B6010E94D24F181664F443E060E053
:1042400089E79CE00E940F0E6CE074E089E79CE037
:104250000E94B8178BE09CE00E94DD30182F81E8A7
:104260009FE00E948449181619062CF481E89FE00B
:104270000E949D49182F143421F0113409F0A6CF63
:10428000B5C189E79CE00E94090E6AE174E089E704
:104290009CE00E94B81741E060E089E79CE00E9442
:1042A0000F0E6FE274E089E79CE00E94B81742E0CD
:1042B00060E089E79CE00E940F0E64E474E089E707
:1042C0009CE00E94B81743E060E089E79CE00E9410
:1042D0000F0E61E574E089E79CE00E94B81763EB7C
:1042E00071E081E89FE00E94034C60EA7FE080E09B
:1042F00090E00E9420476B961FAE1EAE6B976B96A8
:104300008EAD9FAD6B970A970CF052C089E79CE089
:104310000E94090E66E674E089E79CE00E94B817E7
:104320006B966EAD7FAD6B976F5F7F4F4AE050E04D
:1043300089E79CE00E94C34C42E060E089E79CE092
:104340000E940F0E63E774E089E79CE00E94B817B3
:1043500043E060E089E79CE00E940F0E60E874E0B3
:1043600089E79CE00E94B81762E871E081E89FE06D
:104370000E94034C8BE09CE00E94DD30182F81E806
:104380009FE00E948449181619062CF481E89FE0EA
:104390000E949D49182F143409F488C0133409F081
:1043A00081C06B968EAD9FAD6B9702970CF41EC1CA
:1043B0008E01075A1F4F9E01275D3F4FAE014F5F91
:1043C0005F4FBE016F5A7F4F81EF98E00E94F53A30
:1043D00065968CAD9DADAEADBFAD659780938A0EF1
:1043E00090938B0EA0938C0EB0938D0E69968CAD2E
:1043F0009DADAEADBFAD699780938E0E90938F0E3D
:10440000A093900EB093910E89E79CE00E94090E54
:1044100064E974E089E79CE00E94B81741E060E03D
:1044200089E79CE00E940F0E69EA74E089E79CE04E
:104430000E94B81740918A0E50918B0E60918C0E9D
:1044400070918D0E26E030E089E79CE00E94B94D26
:1044500042E060E089E79CE00E940F0E61EB74E0AF
:1044600089E79CE00E94B81740918E0E50918F0E04
:104470006091900E7091910E24E030E089E79CE00D
:104480000E94B94D43E060E089E79CE00E940F0E76
:104490006CE074E089E79CE00E94B81785EB9CE033
:1044A0005BD69EC0113409F065CFA0C06B96EEAC10
:1044B000FFAC6B9762E070E081EF98E00E94E93A10
:1044C000F701EE0FFF1FEE0FFF1F21E030E02C0F72
:1044D0003D1FE20FF31F608371838283938389E71B
:1044E0009CE00E94090E68EB74E081E89FE00E9466
:1044F000134C6B96EEADFFAD6B97EE0FFF1FEE0FFB
:10450000FF1F81E090E08C0F9D1FE80FF91F408195
:1045100051816281738122E030E081E89FE00E9456
:10452000BA4D6B96EEADFFAD6B97EE0FFF1FEE0F22
:10453000FF1F21E030E02C0F3D1FE20FF31F4081F1
:1045400051816281738122E030E089E79CE00E9422
:10455000B94D6CE47DE180E090E00E94204789E75E
:104560009CE00E94090E6B96EEACFFAC6B9766EC7C
:1045700074E086ED94E0AEDCF701EE0FFF1FEE0F66
:10458000FF1F21E030E02C0F3D1FE20FF31F60A75B
:1045900071A782A793A76B96EEACFFAC6B97F70160
:1045A000EE0FFF1FEE0FFF1FE20FF31F20E030E0C2
:1045B00040E85FEB60A571A582A593A50E94304EEF
:1045C000811106C032E0E316F1040CF0F1CE0EC00A
:1045D0008FEFE81AF80A6B96FFAEEEAE6B978FCEB0
:1045E0008BE09CE00E94DD308823D1F3C65ADF4F78
:1045F0000FB6F894DEBF0FBECDBFDF91CF911F91F4
:104600000F91FF90EF90DF90CF900895CF93DF93BD
:10461000EC0161E081E10E94EE481B861A86DF9181
:10462000CF910895FC01738762870895CF92DF923E
:10463000EF92FF92CF93DF93EC018A859B85892BC4
:1046400009F443C0CC80DD80EE80FF800E94F146FB
:104650006C157D058E059F05C0F18885998580FDC7
:104660000BC00A972CF0198618861B861A862DC057
:1046700080910201816003C0809102018E7F80934E
:1046800002010E94F146288539854A855B85AAE0AA
:10469000A49FF001A59FF00D1124E20FF31FEE0F70
:1046A000FF1FED5BFD4FC080D180EE24D7FCE0946E
:1046B000FE2C6C0D7D1D8E1D9F1D6C837D838E8356
:1046C0009F832F5F3F4F39872887DF91CF91FF90DE
:1046D000EF90DF90CF900895FC011186108613862D
:1046E00012860895FC01CB018B529E4F938B828BD7
:1046F00067527E4F758B648B5587448708952F9240
:104700003F924F925F926F927F928F929F92AF9261
:10471000BF92CF92DF92EF92FF920F931F93CF93AE
:10472000DF93CDB7DEB7A2970FB6F894DEBF0FBE0A
:10473000CDBF7E8B6D8B342E252E2F8F38A3F801A5
:104740000190F081E02DF88FEF8B2D833E8349831C
:104750005A831AA219A21B8E1C8E1D8E1E8E198AB8
:104760001A8A1B8A1C8A1D861E861F86188A19862D
:104770001A861B861C86412C512C320189A19AA1D4
:10478000EF89F88D8E179F070CF061C0E981FA81DF
:1047900081909190A190B190FA83E983A501940151
:1047A000C301B2010E94CC4D2B013C01ED81FE8181
:1047B000C190D190E190F190FE83ED83A701960125
:1047C00069857A858B859C850E94CC4D69877A871F
:1047D0008B879C87A7019601C501B4010E94D64F23
:1047E0009B01AC016D857E858F8598890E94CC4D9B
:1047F0006D877E878F87988BA5019401C501B401D1
:104800000E94D64F9B01AC0169897A898B899C896A
:104810000E94CC4D698B7A8B8B8B9C8BA701960168
:10482000C701B6010E94D64F9B01AC016B8D7C8DF8
:104830008D8D9E8D0E94CC4D6B8F7C8F8D8F9E8F2A
:1048400029A13AA12F5F3F4F3AA329A397CFBF01D8
:10485000882777FD8095982F0E94CF4E6B017C01B1
:1048600029853A854B855C85C301B2010E94D64FEC
:10487000A70196010E94344E9B01AC016D857E8597
:104880008F8598890E94CB4D69837A838B839C8323
:10489000A3019201C301B2010E94D64FA701960164
:1048A0000E94344E9B01AC0169897A898B899C896D
:1048B0000E94CB4D6D837E838F8398879B01AC01D3
:1048C00069817A818B819C810E94344E4B015C010D
:1048D000ED89FE896083718382839383A7019601AA
:1048E00069857A858B859C850E94344E6F8B788F85
:1048F000898F9A8FA7019601C301B2010E94344E9D
:104900009B01AC01C501B4010E94D64F9B01AC01D3
:104910006F89788D898D9A8D0E94CB4DED89FE89A6
:10492000648375838683978365EE74E081E89FE0F6
:104930000E94134CEF8CF8A0C32CD22CA12CB12CCC
:10494000F80180819181A816B90614F5F60141910C
:104950005191619171916F0122E030E081E89FE017
:104960000E94B94D6DE673E081E89FE00E94F64B2E
:10497000F70141915191619171917F0122E030E005
:1049800081E89FE00E94BA4DFFEFAF1ABF0AD8CF6F
:1049900081E89FE00E94FF4B61EF74E081E89FE0B7
:1049A0000E94F64B22E030E0B301A20181E89FE0D3
:1049B0000E94BA4D68EF74E081E89FE00E94F64BD8
:1049C00022E030E049855A856B857C8581E89FE04F
:1049D0000E94BA4D6FEF74E081E89FE00E94F64BB1
:1049E00022E030E04D855E856F85788981E89FE023
:1049F0000E94BA4D67E075E081E89FE00E94F64BA7
:104A000022E030E049895A896B897C8981E89FE0FE
:104A10000E94BA4D6FE075E081E89FE00E94F64B7E
:104A200022E030E04B8D5C8D6D8D7E8D81E89FE0C6
:104A30000E94BA4D81E89FE00E94FF4B67E175E05C
:104A400081E89FE00E94F64B22E030E049815A81E4
:104A50006B817C8181E89FE00E94BA4D6DE175E039
:104A600081E89FE00E94F64B22E030E04D815E81BC
:104A70006F81788581E89FE00E94BA4D67E873E016
:104A800081E89FE00E94F64BED89FE8940815181CB
:104A90006281738126E030E081E89FE00E94BA4D98
:104AA00067EA73E081E89FE00E94F64BED89FE899A
:104AB000448155816681778126E030E081E89FE07E
:104AC000A2960FB6F894DEBF0FBECDBFDF91CF9197
:104AD0001F910F91FF90EF90DF90CF90BF90AF901C
:104AE0009F908F907F906F905F904F903F902F900E
:104AF0000C94BA4D0F931F93CF93DF93EC016C8509
:104B00007D8544E050E08EE595E00E94031000E0D2
:104B100010E08EE595E00E94EB0E892B59F08EE5B2
:104B200095E00E94F30EFE01E00FF11F80870F5FFA
:104B30001F4FEFCF8EE595E00E94051068857985BF
:104B40008A859B856C837D838E839F83DF91CF9144
:104B50001F910F910895CF92DF92EF92FF92CF9322
:104B6000DF93EC01EA89FB89C080D180E280F38089
:104B7000C1DF9B01AC01C701B6010E94D64FEC8991
:104B8000FD8920813181428153810E94CC4D68830F
:104B900079838A839B83DF91CF91FF90EF90DF90A1
:104BA000CF9008950F931F93CF93DF93EC012FEFD6
:104BB0003FEFFC0121933193CF0163E275E00E9446
:104BC000D95040E050E067ED73E44E8B5F8B688F07
:104BD000798F47ED53EA60EB7FE34A8F5B8F6C8FF1
:104BE0007D8F4DEC5CEC6CE47DE34E8F5F8F68A3B2
:104BF00079A340E050E060EA70E44AA35BA36CA3B1
:104C00007DA300E010E020EF31E40EA31FA328A74E
:104C100039A700E010E020E732E40AA71BA72CA781
:104C20003DA70AE017ED23EA3BE30AAB1BAB2CAB35
:104C30003DAB0FE612E123E83AE30EA71FA728AB2E
:104C400039AB1EAA1FAA18AE19AE00E010E020E78B
:104C500031E40AAF1BAF2CAF3DAFFE01FE9640839F
:104C6000518362837383349684E690E091838083DA
:104C7000329640E050E060E071E44083518362830B
:104C80007383349640E050E864E873E440835183D2
:104C90006283738334964083518362837383349633
:104CA000408351836283738334964083518362834C
:104CB0007383349640E050E064E373E440835183AF
:104CC00062837383349640E050E86EE873E4408377
:104CD000518362837383C05ADF4F4FE050E060E03E
:104CE00070E0488359836A837B83DF91CF911F9162
:104CF0000F9108952F923F924F925F926F927F9201
:104D00008F929F92AF92BF92CF92DF92EF92FF92DB
:104D10000F931F93CF93DF931F921F92CDB7DEB7F0
:104D2000FC01E753FF4F1082319622E030E03183DF
:104D30002083329640E050E060E87FE34083518377
:104D400062837383349624E630E031832083329685
:104D500020E436E03183208332962BE430E0318347
:104D60002083329620ED422E27E0522E518240823F
:104D700032962AE530E031832083329631E0308369
:104D800031962FE530E03183208332962EE630E0F5
:104D900031832083329620EA30E0318320833496B9
:104DA00038EE632E33E0732E71826082329620E1FA
:104DB00037E231832083329628EC30E03183208340
:104DC000329620E530E031832083329611821082C2
:104DD000329620E130E03183208332961082319682
:104DE00041E04083319640E050E060E470E440836D
:104DF0005183628373833496A1E0B0E0B183A083D2
:104E00003296318320833296108231961082319609
:104E10004FE852E460E972E4408351836283738314
:104E2000349640E050E068E473E440835183628349
:104E3000738334961082118212821382349642E078
:104E400050E0518340833296318320833296108222
:104E500031961082319640E050E06CE073E440837C
:104E6000518362837383349640E050E060EF71E4D5
:104E70004083518362837383349640E050E066E957
:104E800072E44083518362837383349642E558EB26
:104E900062E271E44083518362837383B89627E0B2
:104EA00030E0318320837297108211821282138244
:104EB00034970AE919E929E13EE30083118322834B
:104EC000338334974AE959E969E570E440835183B3
:104ED000628373833897C12CD12CA8ECEA2EA2E40C
:104EE000FA2EC082D182E282F3823496108211823D
:104EF000128213827896BEE62B2EBFE03B2E3182C3
:104F000020823297A4E1B0E0B183A083369611826B
:104F100010823C97A0EA8A2EA6E89A2EAA24A3948F
:104F2000B12C80829182A282B3823A967182608291
:104F3000B09751824082B8961082118212821382F9
:104F40003496108231961082B596A4E0B0E0B18319
:104F5000A083729710821182128213823497008389
:104F60001183228333833497408351836283738315
:104F70003897C082D182E282F38234961082118205
:104F8000128213827896318220823297A4E1B0E0B7
:104F9000B183A0833696A1E0B0E0B183A0833C97B3
:104FA00080829182A282B3823A9671826082B097A7
:104FB00051824082B89610821182128213823496F6
:104FC000108231961082B596A5E0B0E0B183A0833F
:104FD0007297108211821282138234970083118398
:104FE000228333833497408351836283738338975A
:104FF000C12CD12CBFE7EB2EB3E4FB2EC082D182B3
:10500000E282F382349610821182128213827896A1
:10501000318220823297A4E1B0E0B183A08336963A
:10502000A2E0B0E0B183A0833C9780829182A2820B
:10503000B3823A9671826082B09751824082B8966C
:1050400010821182128213823496B1E0B0833196BD
:105050001082DC01A553BE4FE3E0F0E01196FC9313
:10506000EE9352971D921D921D921C9213971497C6
:105070000D931D932D933C93139714974D935D932C
:105080006D937C9313971897CD92DD92ED92FC92DD
:10509000139714961D921D921D921C921397589669
:1050A00011963C922E92129724E130E011963C9397
:1050B0002E931696ED93FC93FC01E354FE4F8082F1
:1050C0009182A282B3823A9671826082B0975182B5
:1050D0004082B8961082118212821382349631E097
:1050E000308331961082319646EC54E464E17AE3E1
:1050F0004083518362837383349649EA54EA66ECB1
:105100007FE34083518362837383349640E050E0B1
:105110006CE873E44083518362837383349642E086
:1051200050E060E070E040835183628373830F90AE
:105130000F90DF91CF911F910F91FF90EF90DF9033
:10514000CF90BF90AF909F908F907F906F905F9027
:105150004F903F902F9008950F931F93CF93DF931D
:105160008C016BEA77E181E89FE00E94034CF80133
:10517000E853FF4F81E080838F01C0E0D0E0F80169
:1051800061918F01CE010E940B512196CD31F1E04A
:10519000DF07A9F7DF91CF911F910F9108950F932A
:1051A0001F93CF93DF938C0108531F4FC0E0D0E0D3
:1051B000CE010E940351F80181938F012196CD31D8
:1051C000F1E0DF07A9F7DF91CF911F910F910895CB
:1051D000EF92FF920F931F93CF93DF93FC012081F7
:1051E000318144E6429FE001439FD00D11248C01A0
:1051F0007E01FFE7EF1AFEEFFF0AC35EDE4FF80104
:1052000061918F01CE010E940B512196CE15DF05D1
:10521000B1F7DF91CF911F910F91FF90EF9008951B
:10522000EF92FF920F931F93CF93DF937C018B013B
:10523000C0E0D0E0CE018E0D9F1D0E940351F80109
:1052400081938F012196C436D105A1F784E690E0C1
:10525000DF91CF911F910F91FF90EF90089544E659
:10526000469F9001479F300D1124BC01C901835E08
:105270009E4FD6CF08950F931F93CF93DF93EC01EA
:105280008B01BC016C597F4F24E6249FC001259FF0
:10529000900D1124835E9E4FC3DFBE016A597F4F7C
:1052A000C801DF91CF911F910F910C94D950EF92CB
:1052B000FF920F931F93CF93DF937C018C010B51CF
:1052C0001E4FC0E0D0E0AE01B801C701D4DF219687
:1052D0000C5E1F4FCA30D105B1F7DF91CF911F91FE
:1052E0000F91FF90EF900895CF93DF93EC01DFDFF4
:1052F000CE01DF91CF9153CFFC017783668361307C
:10530000710581F01CF4672B41F00895623071053E
:1053100049F06330710531F0089584E090E09183A5
:10532000808308957183608308954F925F926F9296
:105330007F928F929F92AF92BF92CF92DF92EF9225
:10534000FF920F931F93CF93DF93CDB7DEB72E97C6
:105350000FB6F894DEBF0FBECDBFFC01CB01BA0182
:105360006283738384839583E080F18022E0E21678
:10537000F10409F083C02EE0E0EDF2E0DE011196C9
:1053800001900D922A95E1F79B01AC010E94CC4D52
:105390002B013C01CE0101967C015E019FE0A90E2C
:1053A000B11CF701C190D1907F01B601882777FD2C
:1053B0008095982F0E94CF4E9B01AC01C301B20192
:1053C0000E94D64F9B01AC0160E074E284E79BE44D
:1053D0000E94344E20E030E04FE753E40E94304E0C
:1053E00087FD04C0EA14FB04E1F601C08601003425
:1053F0001105E9F05CF408301105A9F0003211053F
:10540000A1F001301105C9F481E018C00115F1E0E7
:105410001F0779F0011524E0120769F00038110523
:1054200061F485E00BC082E009C083E007C084E03E
:1054300005C086E003C087E001C080E093E490935C
:10544000B00088608093B100B801882777FD80950F
:10545000982F0E94CF4E9B01AC01C301B2010E9464
:10546000D64F9B01AC0160E074E284E79BE40E94AC
:10547000344E0E94A14E6093B300D0C02AE0EEEDFE
:10548000F2E0DE01119601900D922A95E1F79B0161
:10549000AC010E94CC4D2B013C01CE0101966C0168
:1054A0004E019BE0890E911CF601A190B1906F0115
:1054B000B501882777FD8095982F0E94CF4E9B01DC
:1054C000AC01C301B2010E94D64F9B01AC0160E068
:1054D00074E284E79BE40E94344E20E03FEF4FE704
:1054E00057E40E94304E87FD04C0C814D904E1F689
:1054F00001C0850100341105A1F03CF40130110513
:1055000071F008301105A9F010C00115F1E01F0776
:1055100051F0011524E0120741F485E00DC081E04F
:105520000BC083E009C084E007C017FD04C080E021
:1055300003C082E001C087E093E0E916F10459F16D
:10554000E4E0EE16F10409F448C0EA94EF2809F00B
:1055500065C093E490938000886180938100B801D6
:10556000882777FD8095982F0E94CF4E9B01AC0134
:10557000C301B2010E94D64F9B01AC0160E074E20E
:1055800084E79BE40E94344E0E949C4E70938900F5
:105590006093880043C093E4909390008861809367
:1055A0009100B801882777FD8095982F0E94CF4EF3
:1055B0009B01AC01C301B2010E94D64F9B01AC011B
:1055C00060E074E284E79BE40E94344E0E949C4EAB
:1055D000709399006093980021C093E49093A00089
:1055E00088618093A100B801882777FD8095982F66
:1055F0000E94CF4E9B01AC01C301B2010E94D64F65
:105600009B01AC0160E074E284E79BE40E94344EAD
:105610000E949C4E7093A9006093A8002E960FB62E
:10562000F894DEBF0FBECDBFDF91CF911F910F91D8
:10563000FF90EF90DF90CF90BF90AF909F908F90B2
:105640007F906F905F904F9008954F925F926F920E
:105650007F928F929F92AF92BF92CF92DF92EF9202
:10566000FF920F931F93CF93DF934C01EB01A8A000
:10567000B9A0CE8CDF8CEC8CFD8C0A8D1B8D2E8915
:105680003F89488D598D6AA17BA10E94F144340164
:105690008EE2680E711CAE84BF84C888D988EA8403
:1056A000FB840C851D859E01285D3F4F2401E9E6A2
:1056B0004E0E511C1F921F928D898F938C898F9350
:1056C0008B898F938A898F93A201B401C3010E94B1
:1056D000A43FF401E959FF4FD183C08336969182EC
:1056E000808268817981C3010E94493ECA88DB8833
:1056F000EC88FD880E851F85288939894A855B8558
:105700006C857D85C3010E94963D0A811B812C8199
:105710003D814E815F8168857985C3010E94973EF6
:1057200060E070E0C3010E94533FF20110821182D9
:10573000128213827E01F4E2EF0EF11C8401015902
:105740001F4FF801F182E082CE018D96369691834B
:1057500080830F900F900F900F900F900F900097F5
:1057600041F0349707979183808361E08EA10E9476
:10577000EE48F801F182E08261E08CA10E94EE48DF
:10578000F401ED58FF4FCE018C96918380833496BF
:105790008A979183808332962696D183C083DF9146
:1057A000CF911F910F91FF90EF90DF90CF90BF901E
:1057B000AF909F908F907F906F905F904F900895E3
:1057C0004F925F926F927F928F929F92AF92BF9211
:1057D000CF92DF92EF92FF920F931F93CF93DF93BD
:1057E000EC010E94F1468E0105581F4FD8016D93C0
:1057F0007D938D939C931397CE010E943446F801BC
:1058000040815181628173815E01F7E6AF0EB11C68
:10581000D501ED91FC9180819181AA2797FDA095FA
:10582000BA2F7E01E3E8EE0EF11CF70140805180B3
:1058300062807380840D951DA61DB71D9E012D5895
:105840003F4F6901481759076A077B0708F4FEC0F4
:1058500040835183628373837697D183C083CE0163
:105860008E960E94763CD601ED91FC918081FE01DE
:10587000E759FF4F4F01811137C04080518062804E
:1058800073804E01FFE78F0E911CD501ED91FC91C5
:1058900060817181882777FD8095982F0E94CF4E77
:1058A000A30192010E94D64F20E030E048EC52E480
:1058B0000E94344E0E94A14EF40160837183828362
:1058C000938320E030E040E85FE3C301B2010E942F
:1058D000D24F18160CF0BAC0FE01E159FF4F0190EB
:1058E000F081E02D61E02DC0FE01EB58FF4F0190EB
:1058F000F081E02D8081882309F498C0D4014D9077
:105900005D906D907C9020E030E040E85FE3C30163
:10591000B2010E94D24F87FD18C0C301B2010E949C
:105920009C4EFE01E159FF4F0190F081E02D8081F6
:105930000E94D747FE01EF58FF4F0190F081E02D04
:1059400060E080810E94274981C020E030E040E88B
:105950005FEBC301B2010E94304E1816C4F13E0144
:10596000B7E86B0E711CF30180819E012F583F4FE9
:105970005901882381F0D901ED91FC9162E370E037
:1059800080810E94D747F301108264E670E080E0D6
:1059900090E00E942047FE01E159FF4F0190F08105
:1059A000E02D60E070E080810E94D747D4012D9106
:1059B0003D914D915C9160E070E080E291E40E9445
:1059C000CB4D0E949C4ED501ED91FC913CC020E056
:1059D00030E040E85FE3C301B2010E94304E87FF30
:1059E00035C020E030E040E85FEBC301B2010E9427
:1059F000D24F18165CF5FE01E159FF4F0190F0817E
:105A0000E02D60E070E080810E94D747FE01EF58F2
:105A1000FF4F0190F081E02D60E080810E942749D6
:105A200081E0FE01E957FF4F808310C0F4016081DF
:105A30007181828193810E949C4EFE01E159FF4F4A
:105A40000190F081E02D80810E94D747D601ED9131
:105A5000FC91808181113CC06E01BFE6CB0ED11C50
:105A6000D601ED91FC9180810E945C49892B81F1E6
:105A7000C158DF4F88819981AA81BB81F70140819C
:105A8000518162817381840F951FA61FB71FF80192
:105A90004081518162817381481759076A077B07EA
:105AA000B8F0D601ED91FC9160E08081DF91CF915B
:105AB0001F910F91FF90EF90DF90CF90BF90AF902C
:105AC0009F908F907F906F905F904F900C9427499C
:105AD000DF91CF911F910F91FF90EF90DF90CF90CA
