:100000000C94880D0C94B90D0C94B90D0C94B90D89
:100010000C94B90D0C94B90D0C94B90D0C94B90D48
:100020000C94B90D0C94B90D0C94B90D0C94B90D38
:100030000C94B90D0C94B90D0C94B90D0C94B90D28
:100040000C94B90D0C94B90D0C94B90D0C94B90D18
:100050000C94B90D0C94B90D0C94B90D0C94504638
:100060000C94B90D0C949C4A0C94D24A0C94B90D82
:100070000C94B90D0C94B90D0C94B90D0C94B90DE8
:100080000C94B90D0C94B90D0C94B90D0C94B90DD8
:100090000C94B90D0C94B90D0C94B90D0C94224527
:1000A0000C94B90D0C94B90D0C94B90D0C94B90DB8
:1000B0000C94B90D0C94B90D0C94B90D0C94B90DA8
:1000C0000C94B90D0C94B90D0C94B90D0C94B90D98
:1000D0000C94B90D0C94B90D0C94B90D0C94B90D88
:1000E0000C94B90DD82EE52EE52EAC2EAC2EB52EE7
:1000F000B52EC42EC42ECF2ECF2ECF2ECF2ED82E3F
:10010000D82E0D31143114317F2F7F2F8C2F8C2F4F
:10011000962F962F08300830083008300D310D31F9
:100120003B3540353B3540353B3540353B3540353B
:100130003B3540353B3540353E35A347A847AD47B5
:10014000B747C1473A48CB47D347DB47E547EF4777
:10015000F947084812483A481C48264830485C4845
:100160005F484E48524858489648634867486D482B
:10017000714875487B487F488348964889488D4830
:10018000914807634236B79BD8A71A39685618AE0C
:10019000BAAB558C1D3CB7CC5763BD6DEDFD753EBC
:1001A000F6177231BF000000803F08000000BE92C9
:1001B0002449123EABAAAA2ABECDCCCC4C3E0000AC
:1001C0000080BEABAAAAAA3E00000000BF0000004B
:1001D000803F0000000000084178D3BB4387D11363
:1001E0003D190E3CC3BD4282AD2B3E68EC8276BE0B
:1001F000D98FE1A93E4C80EFFFBE01C4FF7F3F00D5
:10020000000000004C6F61642073616D706C6520AC
:100210007468656E207072657373202744272E20E2
:10022000507265737320274327207768656E2044DA
:100230006F6E652E005374657020333A204C6F61E9
:10024000642073616D706C65732077697468206BCE
:100250006E6F776E204469616D657465722E204DF6
:10026000696E696D756D206F6620332E2054686548
:100270006E205265636F7264204469616D657465B8
:10028000722E005468656E205072657373203C6551
:100290006E7465723E0053746570323A2041646A30
:1002A000757374207468652073656E736F72207542
:1002B0006E74696C20697420697320626574776557
:1002C000656E2034353020616E64203535302E0067
:1002D0005374657020323A2041646A7573742074D7
:1002E0006865005374657020313A204C6F6164205A
:1002F00066696C616D656E742077697468207461DD
:1003000072676574206469616D657465722E005052
:1003100072657373203C656E7465723E0077697414
:100320006820746172676574204469616D657465E5
:1003300072005374657020313A4C6F6164206669B5
:100340006C616D656E740043616C69706572204309
:10035000616C6962726174696F6E0043616C69708F
:1003600065722043616C6962726174696F6E0042EC
:1003700029204E6F0041292059657300536176652D
:100380002053657474696E67733F006D6963726FA3
:10039000737465702073657474696E677300746834
:1003A0006520776972696E6720616E64006D616BAC
:1003B000652031207265762C20636865636B004987
:1003C0006620746865206175676572206469646E73
:1003D000277400526F746174696E672031207265F2
:1003E000762E2E2E0042292045786974004129205E
:1003F000426567696E00417474656D7074696E67FB
:10040000203120726576004D61726B207468652022
:1004100073686166742E20004D6963726F73746532
:1004200070696E67205465737400442920457869AB
:1004300074004229204E6F00412920596573004104
:100440007567657220646972656374696F6E204FA9
:100450004B3F004229204E6F00412920596573000F
:10046000436F6E74696E75653F00417567657220F4
:10047000446972656374696F6E20546573740044D7
:10048000292045584954004329205768656E204467
:10049000697361626C656400412920456E61626C1C
:1004A000652F44697361626C65004229204E6F00BC
:1004B00041292059657300436F6E74696E75653FFD
:1004C00000666F6C6C6F77696E6720746573747308
:1004D0002E00746F20706572666F726D207468658F
:1004E000006D757374206265206672656520746F97
:1004F000206D6F7665005741524E494E473A205461
:100500006865204175676572004229204E6F004181
:1005100029205965730053746F7020457874727583
:1005200064696E673F00526573657474696E672015
:10053000454550524F4D2E2E2E00526573657474F2
:10054000696E672074686520454550524F4D2E2EC8
:100550002E004229204E6F00412920596573005713
:100560006F756C6420796F75206C696B6520746F92
:100570002070726F636565643F0074686520646510
:100580006661756C742073657474696E677300734B
:10059000746F7265642070726F66696C6573207722
:1005A0006974680077696C6C206F76657277726920
:1005B000746520616C6C20005741524E494E473A99
:1005C000205468697320616374696F6E00574152EB
:1005D0004E494E473A205468697320616374696FCD
:1005E0006E2077696C6C206F7665727769727465BE
:1005F00020616C6C2073746F7265642070726F661A
:10060000696C657320776974682074686520646517
:100610006661756C742053657474696E67732E001F
:1006200050726F66696C6520536176656400536132
:1006300076696E672070726F66696C652E2E2E006B
:10064000536176696E672053657474696E677320B1
:10065000666F722070726F66696C65206E756D6270
:1006600065723A2000436F6E6669677572617469DE
:100670006F6E20536176656400536176696E672EF4
:100680002E2E0046696E697368656420536F616B36
:10069000696E670054696D652873292C204469616F
:1006A000286D6D292C206F75746665656452504DF8
:1006B0002C2073746172766546656564657252506C
:1006C0004D2C2020617567657252504D2C204D6F66
:1006D00064652C206F7574666565644B702C206FA3
:1006E0007574666565644B692C206F757466656505
:1006F000644B642C206665656452617465286D2FB7
:100700006D696E292C206D657465727345787472FD
:100710007564656400EF12FFFF0100000000000037
:10072000000F18E6120000FFFF330200000F000068
:100730000092170000FFFF980B02000A004012D73A
:10074000120000FFFF540B000007000000691500B5
:1007500000FFFF720B01000D0000005D150000FF9F
:10076000FF6E0B01000D00000051150000FFFF6A35
:100770000B01000D00000045150000FFFF660B0196
:10078000000D00000041170000FFFFBE0B00000C31
:1007900000FB0D31170000FFFFC20B00000C000C26
:1007A0000E21170000FFFFC60B00000C001D0E11EC
:1007B000170000FFFFCA0B00000C002E0E88170068
:1007C00000FFFF9C0B01000A006B0F7C170000FF6D
:1007D000FFA00B01000C00770FFE120000FFFF3797
:1007E0000200000F001212B6160000FFFF2B0200DD
:1007F000000F004C13B7170000FFFF780B00000E2E
:10080000000000AE170000FFFF8C0B02000C000080
:10081000009C170000FFFF940B02000A000000710B
:10082000170000FFFFA80B02000C004C1266170017
:1008300000FFFFA40B02000C004C125B170000FF2E
:10084000FFAC0B02000C004C1251170000FFFFBA66
:100850000B00000C0000003413FFFF01000000003B
:10086000000000121825130000FFFF5C0B00000FB2
:1008700000000015130000FFFF00000000030069E6
:100880000E0C130000FFFF000000000300E60DFE49
:10089000120000FFFF370200000F0012126915005E
:1008A00000FFFF720B01000D0000005D150000FF4E
:1008B000FF6E0B01000D00000051150000FFFF6AE4
:1008C0000B01000D00000045150000FFFF660B0145
:1008D000000D00000041170000FFFFBE0B00000CE0
:1008E00000FB0D31170000FFFFC20B00000C000CD5
:1008F0000E21170000FFFFC60B00000C001D0E119B
:10090000170000FFFFCA0B00000C002E0EB71700E7
:1009100000FFFF780B00000E000000AE170000FF84
:10092000FF8C0B02000C0000009C170000FFFF94DE
:100930000B02000A00000092170000FFFF980B0254
:10094000000A004012B6160000FFFF2B0200000F45
:10095000004C1388170000FFFF9C0B01000A006B7E
:100960000F7C170000FFFFA00B01000C00770F7138
:10097000170000FFFFA80B02000C004C12661700C6
:1009800000FFFFA40B02000C004C125B170000FFDD
:10099000FFAC0B02000C004C1251170000FFFFBA15
:1009A0000B00000C0000008613FFFF010000000098
:1009B000000000111877130000FFFF560B00000F16
:1009C00000000069150000FFFF720B01000D000020
:1009D000005D150000FFFF6E0B01000D00000051CF
:1009E000150000FFFF6A0B01000D00000045150017
:1009F00000FFFF660B01000D00000041170000FF23
:100A0000FFBE0B00000C00FB0D31170000FFFFC202
:100A10000B00000C000C0E21170000FFFFC60B009E
:100A2000000C001D0E11170000FFFFCA0B00000C88
:100A3000002E0E64130000FFFF000000000300BC46
:100A40000D51130000FFFF000000000300D10D470F
:100A5000130000FFFF0000000003005B0EC816003B
:100A600000FFFF0000000003003412C3160000FF67
:100A7000FF0000000003003C12B6160000FFFF2B31
:100A80000200000F004C13B7170000FFFF780B00A7
:100A9000000E000000AE170000FFFF8C0B02000CE0
:100AA0000000009C170000FFFF940B02000A0000EA
:100AB0000092170000FFFF980B02000A0000008858
:100AC000170000FFFF9C0B01000A0000007C1700CC
:100AD00000FFFFA00B01000C00000071170000FFD9
:100AE000FFA80B02000C00000066170000FFFFA427
:100AF0000B02000C0000005B170000FFFFAC0B02B4
:100B0000000C00000051170000FFFFBA0B00000CA2
:100B1000000000A013FFFF01000000000000001013
:100B20001869150000FFFF720B01000D0000005D49
:100B3000150000FFFF6E0B01000D000000511500B5
:100B400000FFFF6A0B01000D00000045150000FFCB
:100B5000FF660B01000D00000041170000FFFFBE03
:100B60000B00000C00FB0D31170000FFFFC20B0053
:100B7000000C000C0E21170000FFFFC60B00000C3C
:100B8000001D0E11170000FFFFCA0B00000C002E05
:100B90000E93130000FFFF0000000003004D0EB78E
:100BA000170000FFFF780B00000E000000AE1700DA
:100BB00000FFFF8C0B02000C0000009C170000FFE0
:100BC000FF940B02000A00000092170000FFFF983C
:100BD0000B02000A000000B6160000FFFF2B020007
:100BE000000F004C1388170000FFFF9C0B01000A48
:100BF0000000007C170000FFFFA00B01000C0000AC
:100C00000071170000FFFFA80B02000C0000006637
:100C1000170000FFFFA40B02000C0000005B170090
:100C200000FFFFAC0B02000C00000051170000FF9A
:100C3000FFBA0B00000C0000002318FFFF010000AA
:100C40000000000000000014180000040000000074
:100C500000000000000A1800002000000000000052
:100C600000000000180000760000000000000000F6
:100C700000FD1701000F005B0D000001000711FAD5
:100C80001701000F006F0D000001000D11F7170193
:100C9000000F00830D000001001311F41701000F75
:100CA00000970D000001001911F11701000F00ABB2
:100CB0000D000001001F11EE1701000F00BF0D0015
:100CC0000001002511EB1701000F00D30D000001FA
:100CD000002B11E81701000F00E70D0000010031A3
:100CE00011E51701000F00FB0D000001003711E1B5
:100CF0001701000F000F0E000001003D11D1170178
:100D0000000F000000000000004311C9170400FF9D
:100D1000FF0000000000003F0EBC170400FFFF00B2
:100D200000000000004711B7170400FFFF780B0018
:100D3000000E000000AE170400FFFF8C0B02000C39
:100D4000000000A6170400FFFF900B02000C00003B
:100D5000009C170400FFFF940B02000A00000092A1
:100D6000170400FFFF980B02000A00000088170418
:100D700000FFFF9C0B01000A0000007C170400FF2D
:100D8000FFA00B01000C00000071170400FFFFA87A
:100D90000B02000C00000066170400FFFFA40B020A
:100DA000000C0000005B170400FFFFAC0B02000CFE
:100DB00000000051170400FFFFBA0B00000C0000F8
:100DC0000041170400FFFFBE0B00000C00000031C3
:100DD000170400FFFFC20B00000C000000211704E5
:100DE00000FFFFC60B00000C00000011170400FFFD
:100DF000FFCA0B00000C000000FE160200FFFF00FF
:100E00000000000300DF10F11602002600000000C1
:100E10000000000000EB1602003E00000000000091
:100E2000000000DD16020044000000000000000089
:100E300000D516020063000000000000000000CD95
:100E40001602006D000000000000000000C816211E
:100E500000FFFF0000000003003412C3162100FF52
:100E6000FF0000000003003C12B6162100FFFF2B1C
:100E70000200000F004C13AA162100FFFF00000023
:100E80000003006C129B162100FFFF3102000006D8
:100E900000000091162100FFFF0000000003007811
:100EA0001284162100FFFF2F0200000600000092AE
:100EB000172100FFFF980B02000A0000007F162197
:100EC00000FFFF0000000003007B1171162100FFEE
:100ED000FF400C00000600000067162100FFFF42E3
:100EE0000C02000A00000059162100FFFF460C000A
:100EF00000060000004B162100FFFF480C00000612
:100F000000000040162100FFFF4A0C000006000010
:100F10000033162100FFFF4C0C00000600000025E6
:100F2000162100FFFF4E0C0000060000001B1621DA
:100F300000FFFF500C00000400000011162100FF0C
:100F4000FF510C000006000000FF152100FFFF53B9
:100F50000C000006000000F2152100FFFF550C00F8
:100F60000006000000E6152100FFFF590C000006F6
:100F7000000000DA152100FFFF5B0C0000060000F6
:100F800000CD152100FFFF5D0C000006000000BF32
:100F9000152100FFFF5F0C000006000000B41522C1
:100FA00000FFFF0000000003001318AC152200FF33
:100FB000FF610C000006000000A2152200FFFF6385
:100FC0000C00000600000098152200FFFF650C00D1
:100FD000000400000091152200FFFF660C000004D1
:100FE00000000086152200FFFF670C02000A0000C7
:100FF0000075152300FFFF3F0200000F00841169F8
:10100000152300FFFF720B01000D0000005D15238A
:1010100000FFFF6E0B01000D00000051152300FFC3
:10102000FF6A0B01000D00000045152300FFFF665D
:101030000B01000D00000041172300FFFFBB0C0057
:10104000000C00000031172300FFFFE90C00000C2A
:1010500000000021172300FFFF170D00000C000007
:101060000011172300FFFF450D00000C00000038A1
:10107000152300FFFF930C0000060000002E15232F
:1010800000FFFF950C00000C00000024152300FF5A
:10109000FF990C00000C0000001E152300FFFF9DAF
:1010A0000C02000C00000018152300FFFFA10C0229
:1010B000000C00000012152300FFFFA50C02000C1D
:1010C00000000005152300FFFFC10C000006000012
:1010D00000FB142300FFFFC30C00000C000000F114
:1010E000142300FFFFC70C00000C000000EB1423CA
:1010F00000FFFFCB0C02000C000000E5142300FFF2
:10110000FFCF0C02000C000000DF142300FFFFD310
:101110000C02000C000000D5142300FFFFF10C00AE
:10112000000C000000CB142300FFFFF50C00000CA6
:10113000000000C5142300FFFFF90C02000C0000A2
:1011400000BF142300FFFFFD0C02000C000000B9DB
:10115000142300FFFF010D02000C000000AF142358
:1011600000FFFF1F0D00000C000000A5142300FF6E
:10117000FF230D00000C0000009F142300FFFF2739
:101180000D02000C00000099142300FFFF2B0D023C
:10119000000C00000093142300FFFF2F0D02000C31
:1011A00000000087142400FFFF3B0200000F00E74F
:1011B0001183142400FFFF620B00000A0000007876
:1011C000142300FFFF0000000003005E1B701424C6
:1011D00000FFFF6B0C00000600000066142400FFF7
:1011E000FF6D0C0000060000005C142400FFFF6F80
:1011F0000C0000040000004F142400FFFF700C00DE
:10120000000400000041142400FFFF710C02000ADA
:1012100000000039142400FFFF750C02000C0000D0
:101220000031142400FFFF790C02000C00000024A0
:10123000142500FFFF00000000030050121C1425BD
:1012400000FFFF7D0C00000600000012142500FFC7
:10125000FF7F0C00000600000008142500FFFF813E
:101260000C00000400000001142500FFFF820C00A8
:101270000004000000F5132500FFFF830C02000AA4
:10128000000000E9132500FFFF870C02000A0000A0
:1012900000DC132500FFFF8B0C02000A000000CECB
:1012A000132500FFFF8F0C02000A000000B6160392
:1012B00000FFFF2B0200000F004C13BD130300FFC3
:1012C000FF0000FFFF03003315B0130300FFFF0012
:1012D0000000000300EB164772616D7320457874BF
:1012E0007275646564004469616D6574657200457A
:1012F0007874727564696E672E202E202E005374E8
:10130000617276652046656564657200416464209B
:1013100054696D650046696C616D656E74204C6F33
:10132000616465640054696D652052656D61696E24
:10133000696E67004C6F61642046696C616D656E13
:10134000742E202E202E00536B697020536F616B1A
:1013500000446563726561736520536F616B20544F
:10136000696D6500496E63726561736520536F61D5
:101370006B2054696D650054696D652052656D611F
:10138000696E696E6700536F616B696E672E202E00
:10139000202E00536B69702050726568656174007F
:1013A00050726568656174696E672E202E202E006C
:1013B000526573657420454550524F4D004D65612F
:1013C000737572652046696C616D656E7400526F4D
:1013D0006C6C657220526164697573005472617639
:1013E00065727365204C656E00436F7265205261B3
:1013F00064697573004469736B2052616469757325
:1014000000456E61626C6500446972656374696F62
:101410006E0053746570204D6F64650050696E20D6
:1014200053657400546573742053706F6F6C6572EC
:10143000004D696E2052504D004D61782052504D44
:1014400000526F6C6C65722052616469757300455F
:101450006E61626C65204C6F6769630044697265F8
:101460006374696F6E0053746570204D6F6465001E
:1014700050696E205365740053656E6420312052AC
:1014800065760052504D0052756E204F757466653A
:101490006564005A34204B64005A34204B69005A6A
:1014A00034204B70005A34204D696E204443005A5A
:1014B00034204D6178204443005A33204B64005A55
:1014C00033204B69005A33204B70005A33204D694A
:1014D0006E204443005A33204D6178204443005A23
:1014E00032204B64005A32204B69005A32204B7034
:1014F000005A32204D696E204443005A32204D611B
:1015000078204443005A322054696D65206261732B
:1015100065005A31204B64005A31204B69005A3122
:10152000204B70005A31204D696E204443005A31DF
:10153000204D6178204443005A312054696D652064
:1015400062617365005A6F6E6520342054656D705A
:10155000005A6F6E6520332054656D70005A6F6EAF
:101560006520322054656D70005A6F6E6520312001
:1015700054656D70004163746976617465204865D7
:101580006174657273004765617220526174696F9E
:1015900000456E61626C6500446972656374696FD1
:1015A0006E0053746570204D6F64650050696E2045
:1015B0005365740054657374204175676572004407
:1015C00065626F756E63652054696D650053746163
:1015D000727475702054696D65004D617846696C50
:1015E0006C54696D65004D696E46696C6C54696D2B
:1015F00065004D6178447574794379636C65005377
:1016000074617274757020447574794379636C6584
:1016100000447574794379636C650044697265634D
:1016200074696F6E004F76657220526F74617469D1
:101630006F6E00486F6D696E672044656C6179005C
:10164000537465702044656C61790044756D702039
:10165000506F736974696F6E00486F6D6520506FCD
:10166000736974696F6E004C756D70204D61737392
:1016700000536C6176652041646472657373005336
:10168000746F700054696D6520746F2073656E64AB
:101690000053656E642054696D65004379636C6521
:1016A0007320746F2073656E640053656E6420430D
:1016B00079636C6573004665656420506C61737472
:1016C00069630044756D7000486F6D650053706FFD
:1016D0006F6C6572004F757466656564004865617E
:1016E00074657220436F6E66696700417567657245
:1016F0000053746172766546656564657200536176
:10170000766520436F6E66696775726174696F6E86
:10171000005A6F6E652034205365742054656D70D7
:10172000005A6F6E652033205365742054656D70C8
:10173000005A6F6E652032205365742054656D70B9
:10174000005A6F6E652031205365742054656D70AA
:1017500000536F616B2054696D65004F7574666549
:101760006564205064004F757466656564204B693C
:10177000004F757466656564204B70004F75746624
:101780006565642052504D00417567657220525066
:101790004D004772616D732F4D696E00546F6C651B
:1017A00072616E63650044656E73697479004469A3
:1017B000616D65746572004E616D6500536176659B
:1017C0002050726F66696C65004578747275646547
:1017D0000044656661756C742050726F66696C6553
:1017E00000313029003929003829003729003629ED
:1017F000003529003429003329003229003129001D
:10180000417578696C696172790043616C696272D3
:101810006174650053656C6563742050726F66690E
:101820006C65004D61696E204D656E750053617683
:10183000696E6720436F6E6669672E00F5031600B8
:10184000F3031900F1031E00E9032800E20332004C
:10185000D2033C00C2034600AD03500091035A007E
:101860006F03640048036E0016037800E4028200F0
:10187000AA028C00710296004302A0000102AA0095
:10188000CA01B4008B01BE005201C8002C01D20075
:101890000901DC00EB00E600C800F000AC00FA0033
:1018A0009600040182000E017200180163002201FB
:1018B00053002C0100000A0B02090C0D0E0807034F
:1018C0000401000000000000000000000000000013
:1018D0000000000000000000000000000000000008
:1018E00012111000000000000000000000000000C5
:1018F000000000000000000000000102102020088D
:10190000081020401020408002010201080402015A
:1019100001020408102040808040201008040201C9
:101920008004020180402010080402010804020122
:1019300001020408102040800102040810204080A9
:1019400005050505070508080808020202020A0A3B
:101950000808040404040101010101010101030359
:10196000030303030303040707070C0C0C0C0C0C04
:101970000C0C0202020206060606060606060B0B01
:101980000B0B0B0B0B0B0000200023002600290083
:101990002C002F00320000010000030106010901A4
:1019A00000002200250028002B002E00310034000A
:1019B00002010000050108010B01000021002400C4
:1019C00027002A002D00300033000101000004012F
:1019D00007010A014E414E494E495459494E46CDE0
:1019E000CCCC3D0AD7233C17B7D13877CC2B3295D6
:1019F00095E6241FB14F0A000020410000C84200B4
:101A0000401C4620BCBE4CCA1B0E5AAEC59D74007D
:101A1000407A10F35A00A0724E18090010A5D4E8BD
:101A20000000E87648170000E40B54020000CA9A50
:101A30003B000000E1F505000080969800000040A2
:101A4000420F000000A086010000001027000000E7
:101A500000E803000000006400000000000A00002D
:101A60000000000100000000002C76D888DC674FE1
:101A70000823DFC1DFAE59E1B1B796E5E3E453C611
:101A80003AE651997696E8E6C28426EB898C9B6209
:101A9000ED407C6FFCEFBC9C9F40F2BAA56FA5F4B3
:101AA00090055A2AF75C936B6CF9676DC11BFCE0DB
:101AB000E40D47FEF520E6B500D0ED902E0300942E
:101AC0003577050080841E080000204E0A000000C3
:101AD000C80C333333330F986E12831141EF8D21CD
:101AE00014893BE65516CFFEE6DB18D1844B381B34
:101AF000F77C1D901DA4BBE424203284725E2281F9
:101B000000C9F124ECA1E53D270099144344044B9E
:101B100011241FBECFEFD1E2DEBFCDBF00E00CBF6E
:101B200015E0A0E0B2E0EAE4FCEA00E00BBF02C08E
:101B300007900D92A633B107D9F72FE0A6E3B5E0E1
:101B400001C01D92A23AB207E1F71BE1C0E1DBE15F
:101B500000E006C022970109FE010BBF0E949851C8
:101B6000CA30D10780E00807A9F70E94484B0C94BF
:101B700023560C940000089580915A0590915B05BE
:101B8000A0915C05B0915D05805A9541AF4FBF4F64
:101B900080935A0590935B05A0935C05B0935D0517
:101BA000089580915A0590915B05A0915C05B091D4
:101BB0005D0580569A4EA109B10980935A0590930C
:101BC0005B05A0935C05B0935D0508958091520577
:101BD00090915305A0915405B0915505805A9541B7
:101BE000AF4FBF4F8093520590935305A093540578
:101BF000B093550508958091BE0B9091BF0BA091B5
:101C0000C00BB091C10B8093BB0C9093BC0CA09304
:101C1000BD0CB093BE0C08958091C20B9091C30B84
:101C2000A091C40BB091C50B8093E90C9093EA0C82
:101C3000A093EB0CB093EC0C08958091C60B90919F
:101C4000C70BA091C80BB091C90B8093170D90934F
:101C5000180DA093190DB0931A0D08958091CA0B19
:101C60009091CB0BA091CC0BB091CD0B8093450DF7
:101C70009093460DA093470DB093480D089581E0D1
:101C800090E09093530B8093520B8BE896E09093E7
:101C90006705809366050C94AE3283E090E09093E4
:101CA000530B8093520B8AE296E0909367058093E2
:101CB00066050C94AE3287E090E09093530B8093CE
:101CC000520B88E695E090936705809366050C9427
:101CD000AE3287E090E09093530B8093520B88E6EE
:101CE00095E090936705809366050C94AE32CF9291
:101CF000DF92EF92FF928FEB9AE00E94401E8FE0FE
:101D00009AE00E94E62687E899E00E94E6268FEF97
:101D100098E00E94E62687E798E00E94E6268FE09A
:101D20009AE00E9402296B017C0120E030E040E44F
:101D300050E46091BE0B7091BF0B8091C00B9091ED
:101D4000C10B0E94844D9B01AC01C701B6010E94EA
:101D50008B4F18160CF073C087E899E00E94022997
:101D60006B017C0120E030E040E450E46091C20B64
:101D70007091C30B8091C40B9091C50B0E94844D50
:101D80009B01AC01C701B6010E948B4F18160CF0E5
:101D900056C08FEF98E00E9402296B017C0120E081
:101DA00030E040E450E46091C60B7091C70B809125
:101DB000C80B9091C90B0E94844D9B01AC01C701D7
:101DC000B6010E948B4F1816D4F587E798E00E9461
:101DD00002296B017C0120E030E040E450E4609196
:101DE000CA0B7091CB0B8091CC0B9091CD0B0E94C4
:101DF000844D9B01AC01C701B6010E948B4F1816A0
:101E0000F4F461E070E08FEB9AE00E943C1E83E006
:101E100090E09093530B8093520B8AE296E090935C
:101E20006705809366050E94AE32809166059091A9
:101E30006705FF90EF90DF90CF900C942E31FF90CC
:101E4000EF90DF90CF900895CF92DF92EF92FF92C4
:101E500060E373E083E09FE00E94CC4B0E949A46CF
:101E600060935E0570935F058093600590936105B4
:101E70000E94864E6B017C0120E030E040E752E496
:101E80006091BA0B7091BB0B8091BC0B9091BD0B14
:101E90000E948F4F20E030E04AE754E40E948F4FC9
:101EA0009B01AC01C701B6010E94854D0E945A4EAC
:101EB00060935A0570935B0580935C0590935D0574
:101EC00084E090E09093530B8093520BFF90EF903F
:101ED000DF90CF90089540919C0B50919D0B6091A5
:101EE0009E0B70919F0B83E698E00C949E3E82EBD4
:101EF00097E00E942D364091A00B5091A10B60916C
:101F0000A20B7091A30B82EB97E00C940536CF9255
:101F1000DF92EF92FF9280910002882381F120E00E
:101F200030E0A90160919C0B70919D0B80919E0BFC
:101F300090919F0B0E948B4F1816FCF480914405E2
:101F400081111BC08DE497E00E94BC3A83E698E0C3
:101F50000E94D93E81E08093440581E090E0909317
:101F60004305809342050E949A4660933E05709314
:101F70003F058093400590934105109200028091A7
:101F80004405882309F46BC00E949A46C0903E0520
:101F9000D0903F05E0904005F09041056C157D051F
:101FA0008E059F0508F45BC0809142059091430522
:101FB000803991400CF053C08FE09AE00E94E626F1
:101FC00087E899E00E94E6268FEF98E00E94E626D7
:101FD00087E798E00E94E62620E030E048EC53E4F2
:101FE00060919C0B70919D0B80919E0B90919F0B2B
:101FF0000E94ED4D6B017C0160914205709143059B
:10200000882777FD8095982F0E94884E9B01AC0110
:10201000C701B6010E948F4FAB01BC0183E698E077
:102020000E949E3E809142059091430501969093B7
:1020300043058093420580913E0590913F05A09114
:102040004005B09141050596A11DB11D80933E0547
:1020500090933F05A0934005B093410574C08091D3
:102060004405882341F080914205909143058039D1
:1020700091400CF468C01092440581E08093000206
:10208000C090A00BD090A10BE090A20BF090A30BFE
:1020900020E030E0A901C701B6010E948B4F18165D
:1020A000E4F4B701A60182EB97E00E94053660E0F8
:1020B00070E082EB97E00E94083682EB97E00E9486
:1020C0002D368EE797E00E94983B8EE797E00E94BE
:1020D0004B3C8EE797E00E94C43C0E949A466B01FD
:1020E0007C01609356057093570580935805909333
:1020F00059052091570D3091580D4091590D50912F
:102100005A0DA0E6BAEE0E948E516C0D7D1D8E1DFB
:102110009F1D6093520570935305809354059093CF
:10212000550586E090E09093530B8093520B89EC19
:1021300095E09093670580936605FF90EF90DF90A0
:10214000CF900C942E31FF90EF90DF90CF900895B8
:102150000F931F938FEB9AE00E94401E8FE09AE04E
:102160000E94E62687E899E00E94E6268FEF98E035
:102170000E94E6268FEF98E00E94E62682EB97E029
:102180000E944D360E949A460091520510915305C7
:102190002091540530915505005315472109310907
:1021A000061717072807390730F463E070E08FEB54
:1021B0009AE00E943C1E1F910F910C949A468AE36C
:1021C0009BE00E94814269E776E08AE39BE00E94FF
:1021D0007C4B64EF71E080E090E00E94C94686E7A6
:1021E0009BE00E94A9238AE39BE00E94814265E66E
:1021F00076E08AE39BE00E947C4B60ED77E080E034
:1022000090E00E94C9468CEE96E00C942E3160E07E
:1022100070E086E79BE00C94352461E070E086E78F
:102220009BE00C94352462E070E086E79BE00C9420
:10223000352463E070E086E79BE00C94352464E08D
:1022400070E086E79BE00C94352465E070E086E75B
:102250009BE00C94352466E070E086E79BE00C94EC
:10226000352467E070E086E79BE00C94352468E055
:1022700070E086E79BE00C94352469E070E086E727
:102280009BE00C94352486E79BE00C94D52060E419
:1022900076E083E09FE00E947C4B6091760B70912A
:1022A000770B4AE050E083E09FE00E94834C8AE392
:1022B0009BE00E9481426EE276E08AE39BE00E940E
:1022C0007C4B86E79BE00E94E82364EF71E080E0AE
:1022D00090E00E94C9468AE39BE00E94814260E24E
:1022E00076E08AE39BE00E947C4B60ED77E080E043
:1022F00090E00C94C94687E99AE00E942A3E109229
:10230000530B1092520B0895809140028636F9F4D7
:102310006BE373E08FE392E00E94E95161E070E0CB
:102320008FE09AE00E94FF2861E070E087E899E082
:102330000E94FF2861E070E08FEF98E00E94FF2884
:1023400061E070E087E798E00E94FF283AC06EE302
:1023500073E08FE392E00E94E95160E070E08FE06B
:102360009AE00E94FF2860E070E087E899E00E9410
:10237000FF2860E070E08FEF98E00E94FF2860E0A7
:1023800070E087E798E00E94FF2840E050E0BA0143
:102390008FE09AE00E947F2840E050E0BA0187E891
:1023A00099E00E947F2840E050E0BA018FEF98E06A
:1023B0000E947F2840E050E0BA0187E798E00E9441
:1023C0007F2880916605909167050C942E3180914D
:1023D0003C028636B9F46BE373E08BE392E00E9433
:1023E000E9514091620B5091630B6091640B7091C5
:1023F000650B82EB97E00E94053682EB97E00E9426
:102400002D360AC06EE373E08BE392E00E94E9513F
:1024100082EB97E00E942A368091660590916705CD
:102420000C942E3187E99AE00E94863E67E372E0C1
:1024300087E99AE00E94D03C67E573E083E09FE083
:102440000E94CC4B62E473E083E09FE00E94A14BCA
:1024500067E372E083E09FE00E94CC4B67E573E0A6
:1024600083E09FE00C94CC4B87E99AE00E94D53C36
:1024700087E99AE00C94593D87E99AE00C946C3D09
:102480004091980B5091990B60919A0B70919B0B16
:1024900087E99AE00C947F3D82EB97E00C940B3631
:1024A00040E050E060E271E48EE797E00E94C23CB9
:1024B0008EE797E00E94C43C60E777E180E090E01F
:1024C0000E94C9468EE797E00E94C63C809166054F
:1024D000909167050C942E3187E99AE00E94D53CD3
:1024E000609131027091320287E99AE00C94A93D23
:1024F00087E99AE00E94D53CA0912F02B09130026A
:1025000020E63AEE0E948851AB01BC0187E99AE0CF
:102510000C94DA3D0E949A466093460570934705F5
:1025200080934805909349058FEB9AE00E94401EE6
:102530008FE09AE00E94E62687E899E00E94E6266E
:102540008FEF98E00E94E62687E798E00E94E62653
:1025500080915A0590915B05A0915C05B0915D0555
:1025600088589341A109B10940914605509147050A
:102570006091480570914905481759076A077B071C
:1025800068F080914505811109C062E070E08FEB31
:102590009AE00E943C1E81E08093450540914605EB
:1025A00050914705609148057091490580915A0501
:1025B00090915B05A0915C05B0915D0548175907A6
:1025C0006A077B0740F11092450567E573E083E0F9
:1025D0009FE00E94CC4B63E876E083E09FE00E949E
:1025E000BC4B67E573E083E09FE00E94CC4B87E043
:1025F00090E09093530B8093520B88E695E0909374
:102600006705809366050E94AE32809166059091C1
:1026100067050C942E3108950F931F938FEB9AE06A
:102620000E94401E8FE09AE00E94E62687E899E02B
:102630000E94E6268FEF98E00E94E62682EB97E064
:102640000E944D360E949A4600913A0510913B0532
:1026500020913C0530913D05601771078207930773
:10266000C0F08EE797E00E944B3C80913A05909134
:102670003B05A0913C05B0913D0588519C4FAF4F63
:10268000BF4F80933A0590933B05A0933C05B093D0
:102690003D051F910F91089587E99AE00E94673EDA
:1026A0008091BE0A882319F06BE373E002C06EE3E9
:1026B00073E08BE292E00C94E9516115710581F0B1
:1026C000DB010D900020E9F7AD0141505109461B97
:1026D000570BDC01ED91FC910280F381E02D199400
:1026E00080E090E0089564E976E083E09FE00C9458
:1026F000BC4B81DA91DAA1DAB1DA0E949A46609392
:10270000620570936305809364059093650540E0CE
:1027100050E064EB72E48FE09AE00E947F2840E092
:1027200050E064EB72E487E899E00E947F2840E083
:1027300050E06FE773E48FEF98E00E947F2840E05D
:1027400050E06FE773E487E798E00E947F2861E03C
:1027500070E08FE09AE00E94FF2861E070E087E877
:1027600099E00E94FF2861E070E08FEF98E00E94FE
:10277000FF2861E070E087E798E00E94FF28B3DF60
:1027800082E090E09093530B8093520B089583E680
:1027900098E00E94D93E40919C0B50919D0B609116
:1027A0009E0B70919F0B83E698E00E949E3E4091A5
:1027B000A00B5091A10B6091A20B7091A30B82EB27
:1027C00097E00E94053660E070E082EB97E00E949F
:1027D000083682EB97E00E942D368FEB9AE00E943C
:1027E000961E0E949A4660934E0570934F05809303
:1027F00050059093510577DF82EB97E00E943836C1
:1028000088E090E09093530B8093520B089526E05C
:1028100040E052EC61E070E083E09FE00E943C4ABF
:102820008AE39EE00E940D4420E044E064E18AE3F4
:102830009BE00E949E428AE39BE00E9481428CEED4
:1028400096E0909367058093660566E070E08FEBF5
:102850009AE00E943C1E1092530B1092520B83E69A
:1028600098E00E94123F80916605909167050C9454
:10287000AE32CF92DF92EF92FF920F931F93CF93DE
:10288000DF9300D000D0CDB7DEB76C01CB01BA0129
:1028900028EE33E040E050E00E946051C9016CE353
:1028A00070E00E944D517C01882777FD8095982F1C
:1028B0000E94884E8E010C5F1F4F20E042E00E9474
:1028C000BF51B701882777FD8095982F0E94884EC9
:1028D0000350110920E042E00E94BF51BE016C5F2D
:1028E0007F4FC6010E94E951C601FC01019620817B
:1028F0002111FBCF8AE381938AE0E816F10414F4F6
:1029000080E38983DE0111968D91882311F08193F4
:10291000FBCFC60126960FB6F894DEBF0FBECDBF23
:10292000DF91CF911F910F91FF90EF90DF90CF90AB
:102930000895CF92EF920F931F9386E79BE00E943A
:102940007A2480E2C82E9EE1E92E0CE12AE148E1DA
:1029500066E18AE39BE00E94414324E0E22E04E02A
:1029600021E132E045E152E061E072E08CEC9AE076
:102970000E9419298FEB9AE00E94301E66E77BE0E7
:1029800087E99AE00E94C83C63E97CE08FE09AE026
:102990000E942B2661EC7CE087E899E00E942B26C0
:1029A0006FEE7CE08FEF98E00E942B266DE17DE0DA
:1029B00087E798E00E942B264091610C5091620CB1
:1029C00066E77BE083E698E00E94553F66E77BE0A0
:1029D00082EB97E00E94833542EB57E066E77BE0AD
:1029E0008EE797E00E94C83A66E77BE08DE497E0C7
:1029F0000E94B63A0CEC1AE02AE33BE049E750E0CB
:102A000069E37CE08CEE96E00E94002C2AE33BE038
:102A100045E150E063E17BE08BE896E00E94002C0A
:102A20002AE33BE04AE150E067EA79E08AE296E097
:102A30000E94002C2AE33BE048E150E067E578E0A3
:102A400089EC95E00E94002C2AE33BE047E150E04E
:102A500065E177E088E695E00E94002C1F910F91D8
:102A6000EF90CF9008958F929F92AF92BF92CF92A6
:102A7000DF92EF92FF9240E050E060E271E482EB7F
:102A800097E00E9405368EE797E00E944B3C82EB70
:102A900097E00E942D368EE797E00E94C43C83E0C9
:102AA0009FE00E942D491816190684F482EB97E0E6
:102AB0000E942A368EE797E0FF90EF90DF90CF904C
:102AC000BF90AF909F908F900C94C63C0E949A4606
:102AD0006B017C0186169706A806B90600F761E02F
:102AE00070E082EB97E00E94F135AB01BC0122E07F
:102AF00030E083E09FE00E94734D65E573E083E082
:102B00009FE00E94A14B62E070E082EB97E00E94A0
:102B1000F135AB01BC0122E030E083E09FE00E9490
:102B2000734D65E573E083E09FE00E94A14B82EB6B
:102B300097E00E94EB35AB01BC0122E030E083E07E
:102B40009FE00E94734D4601570188EE880E83E096
:102B5000981EA11CB11CA3CFCF92DF92EF92FF92DF
:102B60000F931F938CEC9AE00E94E32B8093CB0A87
:102B700083E09FE00E942D491816190634F483E083
:102B80009FE00E9446498093CB0A8091CB0A833410
:102B900089F1ACF48433E1F16CF48A3209F43FC07A
:102BA000813309F049C080916605909167050E94C4
:102BB000F42C42C0813481F08234A9F03DC08137C9
:102BC00059F02CF48434E9F08536A1F035C0823711
:102BD000C1F0873741F030C080916605909167055C
:102BE0000E94173229C080916605909167050E9466
:102BF0004A3222C080916605909167050E9429356E
:102C00001BC080916605909167050E94793214C0BF
:102C100080916605909167050E94752D0DC020E09A
:102C200044E064E18AE39BE00E949E428091660555
:102C3000909167050E942E31E091520BF091530B59
:102C4000EE0FFF1FE75EFD4F0190F081E02D19951B
:102C50008FE09AE00E94E62687E899E00E94E62647
:102C60008FEF98E00E94E62687E798E00E94E6262C
:102C70000E949A4660933605709337058093380515
:102C800090933905C0904A05D0904B05E0904C05D3
:102C9000F0904D056C157D058E059F0508F494C0D8
:102CA0008FE09AE00E9402296093720B7093730B7D
:102CB0008093740B9093750B87E899E00E9402292A
:102CC00060936E0B70936F0B8093700B9093710BEE
:102CD0008FEF98E00E94022960936A0B70936B0B50
:102CE00080936C0B90936D0B87E798E00E9402290C
:102CF0006093660B7093670B8093680B9093690BDE
:102D000068E573E083E09FE00E94A14B61E070E022
:102D100082EB97E00E94F135AB01BC0122E030E08C
:102D200083E09FE00E94734D8091520B9091530B72
:102D30000497A9F4C0905A05D0905B05E0905C051B
:102D4000F0905D050E949A4697018601061B170BBD
:102D5000280B390BB901A80186E59BE08ADD80913B
:102D6000520B9091530B0697A9F4C0905205D09046
:102D70005305E0905405F09055050E949A4697013E
:102D80008601061B170B280B390BB901A8018CE52E
:102D90009BE06FDD0E949A4668517C4F8F4F9F4F9A
:102DA00060934A0570934B0580934C0590934D05B5
:102DB00080916605909167051F910F91FF90EF90AC
:102DC000DF90CF900C942E311F910F91FF90EF90D8
:102DD000DF90CF900895CF93DF936DEC75E083E0A3
:102DE0009FE00E94BC4B8AE39BE00E94814268EB1B
:102DF00075E08AE39BE00E947C4B41E060E08AE35F
:102E00009BE00E94864264EA75E08AE39BE00E94B0
:102E10007C4B42E060E08AE39BE00E9486426FE8E0
:102E200075E08AE39BE00E947C4B43E060E08AE32C
:102E30009BE00E9486426AE775E08AE39BE00E947D
:102E40007C4B68E873E180E090E00E94C9468AE329
:102E50009BE00E9481426FE575E08AE39BE00E945F
:102E60007C4B41E060E08AE39BE00E94864268E59B
:102E700075E08AE39BE00E947C4B42E060E08AE3DD
:102E80009BE00E94864262E575E08AE39BE00E9437
:102E90007C4B8CEC9AE00E94E32B8093CB0A83E07E
:102EA0009FE00E942D491816190634F483E09FE034
:102EB0000E9446498093CB0A8091CB0A813459F510
:102EC0006AE375E083E09FE00E94BC4B8AE39BE0ED
:102ED0000E94814266E275E08AE39BE00E947C4B9F
:102EE00086E79BE00E94752186E79BE00E94A9236C
:102EF00086E79BE00E94D520C0E0D0E0D093770B1E
:102F0000C093760B86E79BE00E94E8232196CA30A7
:102F1000D105A1F702C081E001C080E09091CB0A09
:102F2000923411F08111B5CF8CEE96E0DF91CF9104
:102F30000C942E31CF93DF938AE39BE00E94814271
:102F400066E175E08AE39BE00E947C4B41E060E033
:102F50008AE39BE00E9486426FE075E08AE39BE093
:102F60000E947C4B42E060E08AE39BE00E94864244
:102F700069E075E08AE39BE00E947C4BCCEED6E0F2
:102F80008CEC9AE00E94E32B8093CB0A83E09FE0D5
:102F90000E942D491816190634F483E09FE00E9420
:102FA00046498093CB0A8091CB0A893711F081344E
:102FB00051F583E698E00E94123F82EB97E00E9471
:102FC0002A3687E99AE00E942A3E8FE09AE00E9422
:102FD000D42887E899E00E94D4288FEF98E00E94D7
:102FE000D42887E798E00E94D4288EE797E00E94D3
:102FF000C63C1092530B1092520BD0936705C093AE
:10300000660580E001C081E09091CB0A9E3621F0F8
:10301000923411F08111B4CFDF91CF9108958ACF0E
:1030200089CF88CF87CFCF93DF938AE39BE00E943D
:10303000814266EF74E08AE39BE00E947C4B41E0B2
:1030400060E08AE39BE00E94864261EE74E08AE3DE
:103050009BE00E947C4B42E060E08AE39BE00E94A0
:10306000864262ED74E08AE39BE00E947C4B43E081
:1030700060E08AE39BE00E94864261EC74E08AE3B0
:103080009BE00E947C4B68E873E180E090E00E9446
:10309000C9468AE39BE00E94814267EB74E08AE3C1
:1030A0009BE00E947C4B41E060E08AE39BE00E9451
:1030B000864260EB74E08AE39BE00E947C4B42E036
:1030C00060E08AE39BE00E9486426AEA74E08AE359
:1030D0009BE00E947C4B8CEC9AE00E94E32B809357
:1030E000CB0A83E09FE00E942D491816190634F49C
:1030F00083E09FE00E9446498093CB0A8091CB0AEF
:10310000813439F1823439F71CC0813409F445C067
:103110008CEC9AE00E94E32B8093CB0A83E09FE043
:103120000E942D491816190634F483E09FE00E948E
:1031300046498093CB0A8091CB0A8334C9F1843409
:1031400021F78091660590916705DF91CF910C94EE
:103150002E318AE39BE00E94814268E974E08AE3B1
:103160009BE00E947C4B41E060E08AE39BE00E9490
:10317000864267E874E08AE39BE00E947C4B42E071
:1031800060E08AE39BE00E9486426FE774E08AE396
:103190009BE00E947C4BC1E0BBCF83E698E0CC2350
:1031A00021F00E94D93EC0E0B3CF0E94123FF3CF7E
:1031B000C11106C08091660C91E089278093660C4E
:1031C0008AE39BE00E9481426AE674E08AE39BE026
:1031D0000E947C4B68E873E180E090E00E94C94661
:1031E0008AE39BE00E94814260E674E08AE39BE010
:1031F0000E947C4B41E060E08AE39BE00E948642B3
:1032000069E574E08AE39BE00E947C4B42E060E069
:103210008AE39BE00E94864263E574E08AE39BE0D8
:103220000E947C4B8CEC9AE00E94E32B8093CB0AAB
:1032300083E09FE00E942D491816190634F483E0BC
:103240009FE00E9446498093CB0A8091CB0A81344B
:1032500019F0823439F775CF83E698E00E94D93EA1
:1032600040E050E060E87FE383E698E00E949E3E05
:103270008AE39BE00E9481426FE374E08AE39BE073
:103280000E947C4B41E060E08AE39BE00E94864222
:1032900068E374E08AE39BE00E947C4B42E060E0DC
:1032A0008AE39BE00E94864262E374E08AE39BE04B
:1032B0000E947C4B43E060E08AE39BE00E948642F0
:1032C0006AE274E08AE39BE00E947C4BD1E08CECE4
:1032D0009AE00E94E32B8093CB0A83E09FE00E9458
:1032E0002D491816190634F483E09FE00E944649E0
:1032F0008093CB0A8091CB0A823409F44AC084348B
:1033000009F451C0813419F7CC2309F383E698E01E
:103310000E94123F8AE39BE00E94814268E174E0D0
:103320008AE39BE00E947C4B68E873E180E090E0D8
:103330000E94C9468AE39BE00E94814267E074E0F4
:103340008AE39BE00E947C4B41E060E08AE39BE0E3
:103350000E94864266EF73E08AE39BE00E947C4B0A
:1033600042E060E08AE39BE00E9486426DEE73E0FB
:103370008AE39BE00E947C4B43E060E08AE39BE0B1
:103380000E94864265EE73E08AE39BE00E947C4BDC
:1033900016C08091650C8D278093650C83E698E0BC
:1033A0000E94EB3F94CF83E698E00E94123FC9CE83
:1033B0008091CB0A8134B9F0823409F4C2CE8CEC0E
:1033C0009AE00E94E32B8093CB0A83E09FE00E9467
:1033D0002D491816190664F783E09FE00E944649BC
:1033E0008093CB0AE5CF8AE39BE00E94814263EDA4
:1033F00073E08AE39BE00E947C4B83E698E00E94A6
:10340000D93E61E086E00E94974883E698E00E94FA
:10341000D93E40E050E060E271E483E698E00E942B
:103420009E3E60E777E180E090E00E94C94683E637
:1034300098E00E94123F8AE39BE00E9481426FEB7A
:1034400073E08AE39BE00E947C4B41E060E08AE30A
:103450009BE00E9486426DEA73E08AE39BE00E9453
:103460007C4B42E060E08AE39BE00E9486426EE98A
:1034700073E08AE39BE00E947C4B43E060E08AE3D8
:103480009BE00E9486426BE873E08AE39BE00E9427
:103490007C4B68E873E180E090E00E94C9468AE3D3
:1034A0009BE00E9481426CE773E08AE39BE00E940C
:1034B0007C4B41E060E08AE39BE00E94864265E746
:1034C00073E08AE39BE00E947C4B42E060E08AE389
:1034D0009BE00E9486426FE673E08AE39BE00E94D5
:1034E0007C4B8CEC9AE00E94E32B8093CB0A83E028
:1034F0009FE00E942D491816190634F483E09FE0DE
:103500000E9446498093CB0A8091CB0A813431F4E2
:1035100086E79BE00E94A92380E001C081E09091B2
:10352000CB0A923409F40DCE8111DBCF0ACEBF92C3
:10353000CF92DF92EF92FF920F931F93CF93DF937F
:1035400000D000D0CDB7DEB77C018B018AE39BE0D1
:103550000E948142B7018AE39BE0AFD841E060E07E
:103560008AE39BE00E948642B8018AE39BE0A5D8EB
:1035700043E060E08AE39BE00E94864262E673E0FB
:103580008AE39BE09AD842E060E08AE39BE00E94F5
:103590008642DD24D3948E010F5F1F4F78014EE2E7
:1035A000B42E8CEC9AE00E94F62B8093CB0A83E039
:1035B0009FE00E942D491816190634F483E09FE01D
:1035C0000E9446498093CB0A6091CB0A6134E9F0AE
:1035D00044F46A32F1F16E32E1F1633209F04CC029
:1035E000E0CF6434F4F2643409F046C0C7010E94AD
:1035F000DF5120E030E0A9010E94E94D882309F461
:1036000049C0C7010E94DF5149C0E016F10608F029
:1036100041C0B8016E197F09CC24CA94C60E42E09D
:103620006C2D8AE39BE00E94864260E28AE39BE085
:103630000E94734342E06C2D8AE39BE00E94864225
:10364000F80182918F018E3209F0ABCFDD24D39443
:10365000A8CFC8018E199F0905970CF0A2CFDD20D5
:1036600009F49FCFF801B1928F016EE28AE39BE0EB
:103670000E947343D12C95CFC8018E199F090597DD
:103680000CF08FCFF80161938F018AE39BE00E94D9
:10369000734387CF60E070E080E89FEB26960FB61B
:1036A000F894DEBF0FBECDBFDF91CF911F910F9178
:1036B000FF90EF90DF90CF90BF900895CF92DF9270
:1036C000EF92FF920F931F93CF93DF93CDB7DEB7A7
:1036D000CA55D1090FB6F894DEBF0FBECDBF8AE33D
:1036E0009BE00E9481426BE573E08AE39BE00E94CD
:1036F0007C4B67E473E083E09FE00E94BC4B60EA90
:103700007FE080E090E00E94C9468AE39BE00E944F
:10371000814240E060E08AE39BE00E94864262E3EF
:1037200073E08AE39BE00E947C4B41E060E08AE327
:103730009BE00E9486426DE173E08AE39BE00E9479
:103740007C4B43E060E08AE39BE00E9486426FE0AE
:1037500073E08AE39BE00E947C4B63EE72E083E0BF
:103760009FE00E94BC4B8CEC9AE00E94E32B182F48
:1037700083E09FE00E942D49181619062CF483E07F
:103780009FE00E944649182F143419F0113459F75C
:1037900057C28AE39BE00E94814260ED72E08AE3B7
:1037A0009BE00E947C4B41E060E08AE39BE00E944A
:1037B000864261E773E08AE39BE00E945D1342E08A
:1037C00060E08AE39BE00E94864264E873E08AE35B
:1037D0009BE00E945D1343E060E08AE39BE00E946F
:1037E000864269E973E08AE39BE00E945D1366E923
:1037F00072E083E09FE00E94BC4B63E872E083E0EC
:103800009FE00E94BC4B60EA7FE080E090E00E9475
:10381000C9468AE39BE00E9481426DEA73E08AE335
:103820009BE00E945D1362E070E082EB97E00E94F3
:10383000F1356B017C0141E067E08AE39BE00E9487
:10384000864222E030E0B701A6018AE39BE00E94B5
:10385000724D22E030E0B701A60183E09FE00E94B4
:10386000734D68EE73E080E090E00E94C94620E06E
:1038700030E849E054E4C701B6010E94E94D87FFF2
:1038800016C020E030E041EE53E4C701B6010E94CB
:103890008B4F181664F443E060E08AE39BE00E94DB
:1038A00086426BEB73E08AE39BE00E945D138CEC35
:1038B0009AE00E94E32B182F83E09FE00E942D499D
:1038C000181619062CF483E09FE00E944649182F31
:1038D000143421F0113409F0A6CFB2C18AE39BE081
:1038E0000E94814269EC73E08AE39BE00E945D13D1
:1038F00041E060E08AE39BE00E9486426EED73E067
:103900008AE39BE00E945D1342E060E08AE39BE073
:103910000E94864263EF73E08AE39BE00E945D139E
:1039200043E060E08AE39BE00E94864260E074E04E
:103930008AE39BE00E945D1365E372E083E09FE011
:103940000E94BC4B60EA7FE080E090E00E94C946A4
:103950006B961FAE1EAE6B976B968EAD9FAD6B9741
:103960000A970CF052C08AE39BE00E94814265E115
:1039700074E08AE39BE00E945D136B966EAD7FADB1
:103980006B976F5F7F4F4AE050E08AE39BE00E94B5
:103990007C4C42E060E08AE39BE00E94864262E267
:1039A00074E08AE39BE00E945D1343E060E08AE3F9
:1039B0009BE00E9486426FE274E08AE39BE00E94F3
:1039C0005D1364E072E083E09FE00E94BC4B8CECEE
:1039D0009AE00E94E32B182F83E09FE00E942D497C
:1039E000181619062CF483E09FE00E944649182F10
:1039F000143409F485C0133409F07EC06B968EAD83
:103A00009FAD6B9702970CF41BC18E01075A1F4F95
:103A10009E01275D3F4FAE014F5F5F4FBE016F5A62
:103A20007F4F82EB97E00E94FD3565968CAD9DAD92
:103A3000AEADBFAD659780934B0D90934C0DA093A9
:103A40004D0DB0934E0D69968CAD9DADAEADBFAD35
:103A5000699780934F0D9093500DA093510DB093A3
:103A6000520D8AE39BE00E94814263E474E08AE3A2
:103A70009BE00E945D1341E060E08AE39BE00E94CE
:103A8000864268E574E08AE39BE00E945D13409102
:103A90004B0D50914C0D60914D0D70914E0D24E0E9
:103AA00030E08AE39BE00E94724D42E060E08AE3EE
:103AB0009BE00E94864260E674E08AE39BE00E94FD
:103AC0005D1340914F0D5091500D6091510D7091CB
:103AD000520D24E030E08AE39BE00E94724D43E007
:103AE00060E08AE39BE00E9486426BEB73E08AE32E
:103AF0009BE00E945D139EC0113409F068CFA0C006
:103B00006B96EEACFFAC6B9762E070E082EB97E0F7
:103B10000E94F135F701EE0FFF1FEE0FFF1F21E0AE
:103B200030E02C0F3D1FE20FF31F6083718382830F
:103B300093838AE39BE00E94814267E674E083E01E
:103B40009FE00E94CC4B6B96EEADFFAD6B97EE0FF6
:103B5000FF1FEE0FFF1F81E090E08C0F9D1FE80F0D
:103B6000F91F408151816281738122E030E083E05E
:103B70009FE00E94734D6B96EEADFFAD6B97EE0F1D
:103B8000FF1FEE0FFF1F21E030E02C0F3D1FE20F63
:103B9000F31F408151816281738122E030E08AE32A
:103BA0009BE00E94724D6CE47DE180E090E00E9419
:103BB000C9468AE39BE00E9481426B96EEACFFAC63
:103BC0006B9765E774E085E894E0B1DCF701EE0FF0
:103BD000FF1FEE0FFF1F21E030E02C0F3D1FE20F13
:103BE000F31F60A771A782A793A76B96EEACFFACFB
:103BF0006B97F701EE0FFF1FEE0FFF1FE20FF31F92
:103C000020E030E040E85FEB60A571A582A593A5B8
:103C10000E94E94D811106C032E0E316F1040CF078
:103C2000F4CE0EC08FEFE81AF80A6B96FFAEEEAE38
:103C30006B9792CE8CEC9AE00E94E32B8823D1F311
:103C4000C65ADF4F0FB6F894DEBF0FBECDBFDF916F
:103C5000CF911F910F91FF90EF90DF90CF9008953B
:103C6000CF93DF93EC0161E081E10E9497481B86CE
:103C70001A86DF91CF910895FC01738762870895BA
:103C8000CF92DF92EF92FF92CF93DF93EC018A8580
:103C90009B85892B09F443C0CC80DD80EE80FF80BA
:103CA0000E949A466C157D058E059F05C0F188859A
:103CB000998580FD0BC00A972CF0198618861B8603
:103CC0001A862DC080910201816003C0809102019B
:103CD0008E7F809302010E949A46288539854A8505
:103CE0005B85AAE0A49FF001A59FF00D1124E20FCF
:103CF000F31FEE0FFF1FED5BFD4FC080D180EE2460
:103D0000D7FCE094FE2C6C0D7D1D8E1D9F1D6C83D9
:103D10007D838E839F832F5F3F4F39872887DF9175
:103D2000CF91FF90EF90DF90CF900895FC01118626
:103D30001086138612860895FC01CB018B529E4F8C
:103D4000938B828B67527E4F758B648B558744872C
:103D500008952F923F924F925F926F927F928F922F
:103D60009F92AF92BF92CF92DF92EF92FF920F930A
:103D70001F93CF93DF93CDB7DEB7A2970FB6F8941A
:103D8000DEBF0FBECDBF7E8B6D8B342E252E2F8FC9
:103D900038A3F8010190F081E02DF88FEF8B2D838F
:103DA0003E8349835A831AA219A21B8E1C8E1D8E34
:103DB0001E8E198A1A8A1B8A1C8A1D861E861F86D9
:103DC000188A19861A861B861C86412C512C3201B2
:103DD00089A19AA1EF89F88D8E179F070CF061C019
:103DE000E981FA8181909190A190B190FA83E98361
:103DF000A5019401C301B2010E94854D2B013C0134
:103E0000ED81FE81C190D190E190F190FE83ED8330
:103E1000A701960169857A858B859C850E94854DD1
:103E200069877A878B879C87A7019601C501B401B2
:103E30000E948F4F9B01AC016D857E858F8598898F
:103E40000E94854D6D877E878F87988BA501940191
:103E5000C501B4010E948F4F9B01AC0169897A8929
:103E60008B899C890E94854D698B7A8B8B8B9C8B6F
:103E7000A7019601C701B6010E948F4F9B01AC01BB
:103E80006B8D7C8D8D8D9E8D0E94854D6B8F7C8F73
:103E90008D8F9E8F29A13AA12F5F3F4F3AA329A36F
:103EA00097CFBF01882777FD8095982F0E94884E75
:103EB0006B017C0129853A854B855C85C301B20184
:103EC0000E948F4FA70196010E94ED4D9B01AC010E
:103ED0006D857E858F8598890E94844D69837A835C
:103EE0008B839C83A3019201C301B2010E948F4F77
:103EF000A70196010E94ED4D9B01AC0169897A8969
:103F00008B899C890E94844D6D837E838F839887E3
:103F10009B01AC0169817A818B819C810E94ED4D6E
:103F20004B015C01ED89FE896083718382839383F9
:103F3000A701960169857A858B859C850E94ED4D48
:103F40006F8B788F898F9A8FA7019601C301B20179
:103F50000E94ED4D9B01AC01C501B4010E948F4F41
:103F60009B01AC016F89788D898D9A8D0E94844D5B
:103F7000ED89FE89648375838683978364E974E0A1
:103F800083E09FE00E94CC4BEF8CF8A0C32CD22C96
:103F9000A12CB12CF80180819181A816B90614F5E5
:103FA000F60141915191619171916F0122E030E0F0
:103FB00083E09FE00E94724D65E573E083E09FE03F
:103FC0000E94A14BF70141915191619171917F0143
:103FD00022E030E083E09FE00E94734DFFEFAF1AD4
:103FE000BF0AD8CF83E09FE00E94AA4B60EA74E04A
:103FF00083E09FE00E94A14B22E030E0B301A201E8
:1040000083E09FE00E94734D67EA74E083E09FE0E5
:104010000E94A14B22E030E049855A856B857C8562
:1040200083E09FE00E94734D6EEA74E083E09FE0BE
:104030000E94A14B22E030E04D855E856F85788936
:1040400083E09FE00E94734D66EB74E083E09FE0A5
:104050000E94A14B22E030E049895A896B897C8912
:1040600083E09FE00E94734D6EEB74E083E09FE07D
:104070000E94A14B22E030E04B8D5C8D6D8D7E8DDA
:1040800083E09FE00E94734D83E09FE00E94AA4B73
:1040900066EC74E083E09FE00E94A14B22E030E0F8
:1040A00049815A816B817C8183E09FE00E94734D3E
:1040B0006CEC74E083E09FE00E94A14B22E030E0D2
:1040C0004D815E816F81788583E09FE00E94734D12
:1040D00062ED74E083E09FE00E94A14BED89FE89D0
:1040E000408151816281738126E030E083E09FE06E
:1040F0000E94734D6AED74E083E09FE00E94A14B43
:10410000ED89FE89448155816681778126E030E022
:1041100083E09FE0A2960FB6F894DEBF0FBECDBF3E
:10412000DF91CF911F910F91FF90EF90DF90CF9093
:10413000BF90AF909F908F907F906F905F904F90C7
:104140003F902F900C94734D0F931F93CF93DF9359
:10415000EC0144E050E063E070E08AE39EE00E94FE
:10416000224400E010E08AE39EE00E947843892B1D
:1041700059F08AE39EE00E948043FE01E00FF11FA8
:1041800080870F5F1F4FEFCF8AE39EE00E9441447C
:10419000688579858A859B856C837D838E839F83E3
:1041A000DF91CF911F910F910895CF93DF93EC0191
:1041B0002FEF3FEFFC0121933193CF0166EE74E0C6
:1041C0000E94E9514DEC5CEC6CEE7FE34E8B5F8B13
:1041D000688F798F47ED53EA60EB7FE34A8F5B8FFF
:1041E0006C8F7D8F4DEC5CEC6CE47DE34E8F5F8FCC
:1041F00068A379A340E050E060EA70E44AA35BA3BF
:104200006CA37DA340E050E060EF71E44EA35FA398
:1042100068A779A740E050E060E772E44AA75BA78F
:104220006CA77DA71AAA1BAA1CAA1DAA40E050E0F1
:1042300060E470E44EA75FA768AB79AB1EAA1FAA23
:1042400018AE19AE40E050E068E473E44AAF5BAFEB
:104250006CAF7DAFFE01FE96108211821282138236
:10426000349680ED97E091838083329640E050E071
:1042700060E071E44083518362837383349640E04D
:1042800050E864E873E44083518362837383349617
:104290004083518362837383349640835183628366
:1042A000738334964083518362837383349640E0F2
:1042B00050E064E373E440835183628373833496F4
:1042C00040E050E86EE873E4408351836283738377
:1042D000C05ADF4F4FE050E060E070E04883598300
:1042E0006A837B83DF91CF9108952F923F924F9203
:1042F0005F926F927F928F929F92AF92BF92CF9276
:10430000DF92EF92FF920F931F93CF93DF931F9251
:104310001F92CDB7DEB7FC01E753FF4F10823196F5
:1043200002E010E011830083329640E050E060E844
:104330007FE34083518362837383349624E630E0C5
:1043400031832083329620E436E031832083329615
:104350002BE430E031832083329620ED422E27E09B
:10436000522E5182408232962AE530E031832083FA
:10437000329611E0108331962FE530E031832083AF
:1043800032962EE630E031832083329620EA30E008
:1043900031832083349638EE632E33E0732E71829E
:1043A0006082329620E137E231832083329628EC16
:1043B00030E031832083329620E530E03183208362
:1043C000329611821082329620E130E031832083D0
:1043D00032961082319610833196C12CD12CA0E4F4
:1043E000EA2EFE2CC082D182E282F3823496A1E0D2
:1043F000B0E0B183A083329631832083329610825D
:10440000319610823196B8E4CB2EB1EEDB2EBEEAA7
:10441000EB2EB0E4FB2EC082D182E282F38234968E
:10442000C12CD12C18E4E12E13E4F12EC082D182EC
:10443000E282F382349610821182128213823496C1
:1044400002E010E01183008332963183208332969C
:10445000108231961082319602E518EB22EE31E49B
:104460000083118322833383349600E010E020EF31
:1044700031E40083118322833383349600E010E01B
:1044800026E932E400831183228333833496408308
:10449000518362837383B89627E030E031832083B1
:1044A0007297108211821282138234970AE919E9F5
:1044B00029E13EE3008311832283338334974AE961
:1044C00059E969E570E440835183628373833897C7
:1044D000C12CD12CA8ECEA2EA2E4FA2EC082D18203
:1044E000E282F382349610821182128213827896CD
:1044F000BEE62B2EBFE03B2E318220823297A4E114
:10450000B0E0B183A0833696118210823C97A0EA76
:104510008A2EA6E89A2EAA24A394B12C8082918296
:10452000A282B3823A9671826082B09751824082B1
:10453000B8961082118212821382349610823196BC
:104540001082B596A4E0B0E0B183A0837297108288
:104550001182128213823497008311832283338362
:10456000349740835183628373833897C082D182AA
:10457000E282F3823496108211821282138278963C
:10458000318220823297A4E1B0E0B183A0833696D5
:10459000A1E0B0E0B183A0833C9780829182A282A7
:1045A000B3823A9671826082B09751824082B89607
:1045B00010821182128213823496108231961082F8
:1045C000B596A5E0B0E0B183A08372971082118206
:1045D00012821382349700831183228333833497AA
:1045E00040835183628373833897C12CD12CBFE7FA
:1045F000EB2EB3E4FB2EC082D182E282F3823496AA
:104600001082118212821382789631822082329730
:10461000A4E1B0E0B183A0833696A2E0B0E0B1831C
:10462000A0833C9780829182A282B3823A96718263
:104630006082B09751824082B896108211821282B5
:1046400013823496B1E0B08331961082DC01A55319
:10465000BE4FE3E0F0E01196FC93EE9352971D926B
:104660001D921D921C92139714970D931D932D93D9
:104670003C93139714974D935D936D937C9313978D
:104680001897CD92DD92ED92FC92139714961D929D
:104690001D921D921C921397589611963C922E9241
:1046A000129704E110E011961C930E931696ED9369
:1046B000FC93FC01E354FE4F80829182A282B3827C
:1046C0003A9671826082B09751824082B896108289
:1046D000118212821382349611E010833196108277
:1046E000319646EC54E464E17AE34083518362837B
:1046F0007383349649EA54EA66EC7FE3408351833E
:1047000062837383349640E050E06CE873E4408346
:10471000518362837383349642E050E060E070E03E
:1047200040835183628373830F900F90DF91CF9109
:104730001F910F91FF90EF90DF90CF90BF90AF90BF
:104740009F908F907F906F905F904F903F902F90B1
:1047500008950F931F93CF93DF93EC016DE278E1FF
:1047600083E09FE00E94BC4BC853DF4F81E0888309
:1047700060E070E049918B010F5F1F4F89E39EE07D
:104780000E94E6410D3181E0180711F0B801F2CF27
:10479000DF91CF911F910F9108950F931F93CF93A6
:1047A000DF938C0108531F4FC0E0D0E0BE0189E3C6
:1047B0009EE00E94E341F80181938F012196CD3163
:1047C000F1E0DF0799F7DF91CF911F910F910895E5
:1047D000EF92FF920F931F93CF93DF93FC014081E1
:1047E000518164E6649F9001659F300D1124B901E9
:1047F000635E7E4FEC017901FFE7EF1AFEEFFF0ADF
:1048000049918B010F5F1F4F89E39EE00E94E641B3
:104810000E151F0511F0B801F3CFDF91CF911F9155
:104820000F91FF90EF900895EF92FF920F931F93D7
:10483000CF93DF937C018B01C0E0D0E0BE016E0D11
:104840007F1D89E39EE00E94E341F80181938F017F
:104850002196C436D10591F784E690E0DF91CF919F
:104860001F910F91FF90EF90089544E6469F9001AD
:10487000479F300D1124BC01C901835E9E4FD4CFE8
:1048800008950F931F93CF93DF93EC018B01BC012D
:104890006C597F4F24E6249FC001259F900D112461
:1048A000835E9E4FC1DFBE016A597F4FC801DF9111
:1048B000CF911F910F910C94E951EF92FF920F93BA
:1048C0001F93CF93DF937C018C010B511E4FC0E0EF
:1048D000D0E0AE01B801C701D4DF21960C5E1F4FB6
:1048E000CA30D105B1F7DF91CF911F910F91FF90A1
:1048F000EF900895CF93DF93EC01DFDFCE01DF91DE
:10490000CF914BCFFC01778366836130710581F0D5
:104910001CF4672B41F008956230710549F0633053
:10492000710531F0089584E090E0918380830895CB
:104930007183608308954F925F926F927F928F92FE
:104940009F92AF92BF92CF92DF92EF92FF920F931E
:104950001F93CF93DF93CDB7DEB72E970FB6F894A2
:10496000DEBF0FBECDBFFC01CB01BA0162837383F2
:1049700084839583E080F18022E0E216F10409F05F
:1049800083C02EE0E0EDF2E0DE01119601900D9281
:104990002A95E1F79B01AC010E94854D2B013C015A
:1049A000CE0101967C015E019FE0A90EB11CF701CA
:1049B000C190D1907F01B601882777FD8095982F0F
:1049C0000E94884E9B01AC01C301B2010E948F4F2F
:1049D0009B01AC0160E074E284E79BE40E94ED4D32
:1049E00020E030E04FE753E40E94E94D87FD04C02A
:1049F000EA14FB04E1F601C0860100341105E9F078
:104A00005CF408301105A9F000321105A1F0013065
:104A10001105C9F481E018C00115F1E01F0779F014
:104A2000011524E0120769F00038110561F485E0F2
:104A30000BC082E009C083E007C084E005C086E0C7
:104A400003C087E001C080E093E49093B0008860E9
:104A50008093B100B801882777FD8095982F0E9438
:104A6000884E9B01AC01C301B2010E948F4F9B0194
:104A7000AC0160E074E284E79BE40E94ED4D0E948B
:104A80005A4E6093B300D0C02AE0EEEDF2E0DE01B2
:104A9000119601900D922A95E1F79B01AC010E94BD
:104AA000854D2B013C01CE0101966C014E019BE02E
:104AB000890E911CF601A190B1906F01B501882774
:104AC00077FD8095982F0E94884E9B01AC01C30111
:104AD000B2010E948F4F9B01AC0160E074E284E759
:104AE0009BE40E94ED4D20E03FEF4FE757E40E942A
:104AF000E94D87FD04C0C814D904E1F601C0850161
:104B000000341105A1F03CF40130110571F00830BA
:104B10001105A9F010C00115F1E01F0751F00115B2
:104B200024E0120741F485E00DC081E00BC083E072
:104B300009C084E007C017FD04C080E003C082E024
:104B400001C087E093E0E916F10459F1E4E0EE16C4
:104B5000F10409F448C0EA94EF2809F065C093E431
:104B600090938000886180938100B801882777FD49
:104B70008095982F0E94884E9B01AC01C301B20121
:104B80000E948F4F9B01AC0160E074E284E79BE4DC
:104B90000E94ED4D0E94554E7093890060938800ED
:104BA00043C093E490939000886180939100B80192
:104BB000882777FD8095982F0E94884E9B01AC0135
:104BC000C301B2010E948F4F9B01AC0160E074E20F
:104BD00084E79BE40E94ED4D0E94554E709399002E
:104BE0006093980021C093E49093A0008861809323
:104BF000A100B801882777FD8095982F0E94884EE4
:104C00009B01AC01C301B2010E948F4F9B01AC011B
:104C100060E074E284E79BE40E94ED4D0E94554EF3
:104C20007093A9006093A8002E960FB6F894DEBF8B
:104C30000FBECDBFDF91CF911F910F91FF90EF90ED
:104C4000DF90CF90BF90AF909F908F907F906F90AC
:104C50005F904F9008954F925F926F927F928F92E4
:104C60009F92AF92BF92CF92DF92EF92FF920F93FB
:104C70001F93CF93DF934C01EB01A8A0B9A0CE8C7A
:104C8000DF8CEC8CFD8C0A8D1B8D2E893F89488D25
:104C9000598D6AA17BA10E942A4034018EE2680EE0
:104CA000711CAE84BF84C888D988EA84FB840C85D3
:104CB0001D859E01285D3F4F2401E9E64E0E511CE3
:104CC0001F921F928D898F938C898F938B898F93DD
:104CD0008A898F93A201B401C3010E94473AF4016B
:104CE000E959FF4FD183C0833696918280826881D3
:104CF0007981C3010E94EC38CA88DB88EC88FD8882
:104D00000E851F85288939894A855B856C857D8557
:104D1000C3010E9439380A811B812C813D814E815B
:104D20005F8168857985C3010E943A3960E070E04F
:104D3000C3010E94F639F20110821182128213829D
:104D40007E01F4E2EF0EF11C840101591F4FF801BE
:104D5000F182E082CE018D963696918380830F900A
:104D60000F900F900F900F900F90009741F0349795
:104D700007979183808361E08EA10E949748F80194
:104D8000F182E08261E08CA10E949748F401ED5825
:104D9000FF4FCE018C969183808334968A979183BE
:104DA000808332962696D183C083DF91CF911F9165
:104DB0000F91FF90EF90DF90CF90BF90AF909F90BA
:104DC0008F907F906F905F904F9008954F925F9279
:104DD0006F927F928F929F92AF92BF92CF92DF920B
:104DE000EF92FF920F931F93CF93DF93EC010E94FA
:104DF0009A468E0105581F4FD8016D937D938D9370
:104E00009C931397CE010E946F41F801408151811C
:104E1000628173815E01F7E6AF0EB11CD501ED91A1
:104E2000FC9180819181AA2797FDA095BA2F7E01E0
:104E3000E3E8EE0EF11CF701408051806280738040
:104E4000840D951DA61DB71D9E012D583F4F69016C
:104E5000481759076A077B0708F4FEC0408351834F
:104E6000628373837697D183C083CE018E960E942E
:104E70001937D601ED91FC918081FE01E759FF4F72
:104E80004F01811137C040805180628073804E0194
:104E9000FFE78F0E911CD501ED91FC91608171812E
:104EA000882777FD8095982F0E94884EA301920154
:104EB0000E948F4F20E030E048EC52E40E94ED4D1C
:104EC0000E945A4EF401608371838283938320E0B1
:104ED00030E040E85FE3C301B2010E948B4F181637
:104EE0000CF0BAC0FE01E159FF4F0190F081E02DB6
:104EF00061E02DC0FE01EB58FF4F0190F081E02DE5
:104F00008081882309F498C0D4014D905D906D9004
:104F10007C9020E030E040E85FE3C301B2010E94F2
:104F20008B4F87FD18C0C301B2010E94554EFE0190
:104F3000E159FF4F0190F081E02D80810E947F4771
:104F4000FE01EF58FF4F0190F081E02D60E080817D
:104F50000E94D04881C020E030E040E85FEBC30110
:104F6000B2010E94E94D1816C4F13E01B7E86B0E7C
:104F7000711CF30180819E012F583F4F59018823F6
:104F800081F0D901ED91FC9162E370E080810E9493
:104F90007F47F301108264E670E080E090E00E94B9
:104FA000C946FE01E159FF4F0190F081E02D60E01C
:104FB00070E080810E947F47D4012D913D914D91F9
:104FC0005C9160E070E080E291E40E94844D0E9478
:104FD000554ED501ED91FC913CC020E030E040E819
:104FE0005FE3C301B2010E94E94D87FF35C020E0B5
:104FF00030E040E85FEBC301B2010E948B4F18160E
:105000005CF5FE01E159FF4F0190F081E02D60E079
:1050100070E080810E947F47FE01EF58FF4F0190B2
:10502000F081E02D60E080810E94D04881E0FE01A7
:10503000E957FF4F808310C0F40160817181828144
:1050400093810E94554EFE01E159FF4F0190F0817E
:10505000E02D80810E947F47D601ED91FC918081F7
:1050600081113CC06E01BFE6CB0ED11CD601ED9183
:10507000FC9180810E940549892B81F1C158DF4F45
:1050800088819981AA81BB81F70140815181628128
:105090007381840F951FA61FB71FF80140815181AE
:1050A00062817381481759076A077B07B8F0D601F8
:1050B000ED91FC9160E08081DF91CF911F910F9184
:1050C000FF90EF90DF90CF90BF90AF909F908F9028
:1050D0007F906F905F904F900C94D048DF91CF916C
:1050E0001F910F91FF90EF90DF90CF90BF90AF9006
:1050F0009F908F907F906F905F904F900895AF92A8
:10510000BF92CF92DF92EF92FF920F931F93CF93B4
:10511000DF93EC015A016B018C01025D1F4FC80146
:105120000E94B23A019729F460E070E0C8010E9441
:10513000F639FE01E758FF4F0190F081E02DE08045
:10514000F180028113819701A801B501C6010E9477
:10515000E94D87FD02C075018601FE01E958FF4F48
:105160000190F081E02DA080B180C280D3809501B4
:10517000A601B701C8010E948B4F181614F0570101
:105180006801C759DF4FC501D60188839983AA8377
:10519000BB83DF91CF911F910F91FF90EF90DF9034
:1051A000CF90BF90AF900895CF93DF93EC0160E074
:1051B00070E08E960E94F639FE01E759FF4F10828B
:1051C00011821282138236960190F081E02D60E008
:1051D00080810E94D048FE01EB58FF4F8081918171
:1051E000892B51F0CF58DF4FE881F98160E0808151
:1051F000DF91CF910C94D048DF91CF9108958E9696
:105200000C94F639FC01608171818281938108954B
:10521000FC0110821482138215820895862F642F58
:105220000C949748862F642F0C94D048862F0C94AA
:1052300005494F925F926F927F928F929F92AF92A9
:10524000BF92CF92DF92EF920F93CF93DF93EC0157
:105250004B013A0159010296DBDF85EF94E0998317
:1052600088836E018CE1C80ED11C26018CE3480EA8
:10527000511CC601CDDF86E0C80ED11CC414D50474
:10528000C1F7FE01EE59FF4F718260823296B18202
:10529000A082329600833196E08237979182808295
:1052A00038968AE090E091838083329684EF91E093
:1052B00091838083329611821082C45ADF4F188204
:1052C00019821A821B82DF91CF910F91EF90DF90AC
:1052D000CF90BF90AF909F908F907F906F905F9096
:1052E0004F9008952F923F924F925F926F927F92CC
:1052F0008F929F92AF92BF92CF92DF92EF92FF92E6
:105300000F931F93CF93DF93CDB7DEB728970FB6D8
:10531000F894DEBF0FBECDBF98878F83F12C4C0170
:1053200086E6880E911C0F8118850E591F4FD401F7
:105330008C91F816A0F4AF81B8858D919C91F801FD
:10534000A081B181AF0DB11DFC012081318142E00E
:105350006C918F819885F9011995F394E8CF512CC0
:10536000EF81F885E959FF4FFA83E9830F811885AA
:105370000C591F4FC12CD12C7601C3948F81988575
:105380008E599F4F9C838B83A981BA818C9158162B
:1053900008F088C0A52CB12CAF81B8858D919C9167
:1053A000F801A081B181AA0DBB1DFC0120813181D2
:1053B00041E06C918F819885F9011995AF81B8858D
:1053C0008D919C91F801A081B181AA0DBB1DFC01BA
:1053D0002281338140E06C918F819885F901199584
:1053E000D701C601052C04C0880F991FAA1FBB1F37
:1053F0000A94D2F79C011C0120943094412CD401D2
:105400008C91EF81F88540815181481648F5642CD4
:10541000712CEB81FC81A081B181A60DB71DFA0131
:10542000448155816C918F8198852D833E83FA014B
:105430001995660C771C2D813E81EF81F885E60D6C
:10544000F71D892B29F480859185822B932B04C02D
:105450008085918582219321918780874394CFCF46
:10546000F801A081B181AA0DBB1DFA01228133810F
:1054700041E06C918F819885F9011995AF81B885CC
:105480008D919C91F801A081B181AA0DBB1DFC01F9
:105490002081318140E06C918F819885F9011995C7
:1054A000539472CF28960FB6F894DEBF0FBECDBFCF
:1054B000DF91CF911F910F91FF90EF90DF90CF90F0
:1054C000BF90AF909F908F907F906F905F904F9024
:1054D0003F902F900895FC0180E090E0258D368D5F
:1054E0002617370739F0019636968A309105B1F7BD
:1054F0008FEF9FEF0895FC0126E0629FE00DF11D04
:10550000112450A3478F21E021A3FC01E459FF4F50
:105510000190F081E02D309721F0DC015C968C91B8
:1055200019940895CF92DF92FF920F931F93CF9318
:10553000DF931F92CDB7DEB76C01F62EFC0186E03B
:10554000689FE00DF11D112411A2878D90A181307B
:105550009105E9F01CF4892B51F044C0823091058B
:1055600091F1039709F03EC040E050E030C0442381
:10557000C9F141E050E0C601BEDF0E949A46F60143
:10558000E85AFF4F60837183828393832BC04983E2
:105590000E949A46F601E85AFF4F0081118122814C
:1055A0003381601B710B820B930B7296008111810A
:1055B00020E030E04981061717072807390718F45B
:1055C00042E050E004C041110DC043E050E06F2DB7
:1055D000C6010F90DF91CF911F910F91FF90DF9047
:1055E000CF9089CF0F90DF91CF911F910F91FF90B6
:1055F000DF90CF9008952F923F924F925F926F92DB
:105600007F928F929F92AF92BF92CF92DF92EF9252
:10561000FF920F931F93CF93DF931F92CDB7DEB707
:105620001C01FC014AE08FEF9FEF278D30A1232B57
:1056300021F4148E968F858F11A241503696411118
:10564000F4CF712C610126E6C20ED11C510187E610
:10565000A80EB11C4101A0E68A0E911C46E0442E22
:10566000D6018C91781608F053C0612C8101070D8A
:10567000111D070D111D085F1F4FF501E0806E140D
:1056800008F044C0F80140815181062C02C05695B3
:1056900047950A94E2F741707E9C70011124E60C54
:1056A000F11CD401ED91FC91EE0DFF1D5080B7016E
:1056B000C101498310DF498197FD02C0682F1BC0DB
:1056C000019611F5442301F180E090E060E070E084
:1056D000F101E80FF91F248D211110C0469EF00141
:1056E000479EF00D1124E20DF31D548EF68EE58ECB
:1056F00010A2178E41E0C10115DF06C06F5F7F4F1A
:1057000006966A30710521F76394B7CF7394A8CFDA
:1057100020E030E080E0F101E20FF31F91A1911150
:1057200081E02A5F3F4F2C333105A9F70F90DF91BD
:10573000CF911F910F91FF90EF90DF90CF90BF908E
:10574000AF909F908F907F906F905F904F903F9021
:105750002F900895CF92DF92EF92FF920F931F93B5
:10576000CF93DF938C010E949A46E801C45ADF4F21
:10577000C880D980EA80FB806C197D098E099F0959
:10578000F801E859FF4FC080D180E12CF12CC616FA
:10579000D706E806F90660F4C801A4DDC8012BDFCE
:1057A000182F0E949A46688379838A839B8301C05D
:1057B00010E0812FDF91CF911F910F91FF90EF901B
:1057C000DF90CF900895CF93DF93EC01C3DF882360
:1057D00039F089A1882321F08F8D98A1019711F0CC
:1057E00080E001C08C8DDF91CF910895CF93DF933E
:1057F000EC01CE01E8DF8823E1F3DF91CF9108953A
:105800000F931F93FC01DC01A05ABF4F1C925183E0
:10581000408375836483358F248F178F068F158A95
:10582000148A81E090E097838683978B868B978795
:105830008687938782871F910F910895FC01CB0182
:10584000019620813181821793071CF08FEF9FEF23
:105850000895A481B5812EE0269FA001279F500DB9
:1058600011249D01240F351F2E5F3F4FF9016591D3
:105870007491FD01E40FF51F709625913491621724
:10588000730721F7089516161706E4F4FC01448106
:1058900055818EE0869F9001879F300D1124CA01AB
:1058A000820F931F0296FC01A591B491FA01E20FB9
:1058B000F31F3C9785919491A817B90719F4CB0170
:1058C000019708958FEF9FEF08954EE0469F900156
:1058D000479F300D1124DC011496ED91FC91159732
:1058E000E20FF31F32968591949108954EE0469F02
:1058F0009001479F300D1124DC011496ED91FC912D
:105900001597E20FF31F3496859194910895CF93E4
:10591000DF93EB016EE0649F9001659F300D1124D1
:10592000DC011496ED91FC911597E20FF31F659140
:105930007491CE010E94E251CE01DF91CF91089582
:10594000CF93DF93EC016C857D857D8B6C8B888993
:1059500099896817790719F4CE01C8DF02C0CE0112
:105960006DDF9F8B8E8B6E897F89CE0167DF998F6C
:10597000888FBC01CE0162DF9B8F8A8FDF91CF9130
:1059800008954EE0469F9001479F300D1124DC01A1
:105990001496ED91FC911597E20FF31F3A968591BD
:1059A000949108954EE0469F9001479F300D112439
:1059B000DC011496ED91FC911597E20FF31F3896D8
:1059C0008591949108954EE0469F9001479F300D38
:1059D0001124DC011496ED91FC911597E20FF31F51
:1059E00036968591949108950F931F93CF93DF93EB
:1059F0008C01FC0162857385C4DF86309105E9F076
:105A0000A4F4049709F06CC0F80162857385C8019D
:105A1000DADFEC01F80162857385C801D4DFFC018F
:105A2000808191E0892788835BC08A30910509F4E1
:105A30003DC00C9709F43AC053C0F80162857385E4
:105A4000C801C1DFFC0180819181F8016285738505
:105A50000B9784F4C801B7DFEC01F8016285738508
:105A6000C801B1DFFC01208131812F5F3F4F3983B5
:105A7000288336C0C801A7DFEC01F8016285738571
:105A8000C801A1DFFC0160817181882777FD8095C5
:105A9000982F0E94884E2DEC3CEC4CE85FE30E946E
:105AA0008F4F0E94554E798368831AC0F801628532
:105AB0007385C80188DFEC01F80162857385C80130
:105AC00082DF2DEC3CEC4CE85FE3FC0160817181EE
:105AD000828193810E948F4F688379838A839B831D
