:100000000C94880D0C94B90D0C94B90D0C94B90D89
:100010000C94B90D0C94B90D0C94B90D0C94B90D48
:100020000C94B90D0C94B90D0C94B90D0C94B90D38
:100030000C94B90D0C94B90D0C94B90D0C94B90D28
:100040000C94B90D0C94B90D0C94B90D0C94B90D18
:100050000C94B90D0C94B90D0C94B90D0C9479470E
:100060000C94B90D0C94C54B0C94FB4B0C94B90D2E
:100070000C94B90D0C94B90D0C94B90D0C94B90DE8
:100080000C94B90D0C94B90D0C94B90D0C94B90DD8
:100090000C94B90D0C94B90D0C94B90D0C944B46FD
:1000A0000C94B90D0C94B90D0C94B90D0C94B90DB8
:1000B0000C94B90D0C94B90D0C94B90D0C94B90DA8
:1000C0000C94B90D0C94B90D0C94B90D0C94B90D98
:1000D0000C94B90D0C94B90D0C94B90D0C94B90D88
:1000E0000C94B90D6E2F7B2F7B2F422F422F4B2F5D
:1000F0004B2F5A2F5A2F652F652F652F652F6E2F87
:100100006E2FA331AA31AA3115301530223022309A
:100110002C302C309E309E309E309E30A331A33147
:10012000D135D635D135D635D135D635D135D6358B
:10013000D135D635D135D635D435CC48D148D64849
:10014000E048EA486349F448FC4804490E49184924
:10015000224931493B49634945494F4959498549F4
:10016000884977497B498149BF498C4990499649DB
:100170009A499E49A449A849AC49BF49B249B649E0
:10018000BA4907634236B79BD8A71A39685618AEE2
:10019000BAAB558C1D3CB7CC5763BD6DEDFD753EBC
:1001A000F6177231BF000000803F08000000BE92C9
:1001B0002449123EABAAAA2ABECDCCCC4C3E0000AC
:1001C0000080BEABAAAAAA3E00000000BF0000004B
:1001D000803F0000000000084178D3BB4387D11363
:1001E0003D190E3CC3BD4282AD2B3E68EC8276BE0B
:1001F000D98FE1A93E4C80EFFFBE01C4FF7F3F00D5
:10020000000000004C6F61642073616D706C6520AC
:100210007468656E207072657373202744272E20E2
:10022000507265737320274327207768656E2044DA
:100230006F6E652E005374657020333A204C6F61E9
:10024000642073616D706C65732077697468206BCE
:100250006E6F776E204469616D657465722E204DF6
:10026000696E696D756D206F6620332E2054686548
:100270006E205265636F7264204469616D657465B8
:10028000722E005468656E205072657373203C6551
:100290006E7465723E0053746570323A2041646A30
:1002A000757374207468652073656E736F72207542
:1002B0006E74696C20697420697320626574776557
:1002C000656E2034353020616E64203535302E0067
:1002D0005374657020323A2041646A7573742074D7
:1002E0006865005374657020313A204C6F6164205A
:1002F00066696C616D656E742077697468207461DD
:1003000072676574206469616D657465722E005052
:1003100072657373203C656E7465723E0077697414
:100320006820746172676574204469616D657465E5
:1003300072005374657020313A4C6F6164206669B5
:100340006C616D656E740043616C69706572204309
:10035000616C6962726174696F6E0043616C69708F
:1003600065722043616C6962726174696F6E0042EC
:1003700029204E6F0041292059657300536176652D
:100380002053657474696E67733F006D6963726FA3
:10039000737465702073657474696E677300746834
:1003A0006520776972696E6720616E64006D616BAC
:1003B000652031207265762C20636865636B004987
:1003C0006620746865206175676572206469646E73
:1003D000277400526F746174696E672031207265F2
:1003E000762E2E2E0042292045786974004129205E
:1003F000426567696E00417474656D7074696E67FB
:10040000203120726576004D61726B207468652022
:1004100073686166742E20004D6963726F73746532
:1004200070696E67205465737400442920457869AB
:1004300074004229204E6F00412920596573004104
:100440007567657220646972656374696F6E204FA9
:100450004B3F004229204E6F00412920596573000F
:10046000436F6E74696E75653F00417567657220F4
:10047000446972656374696F6E20546573740044D7
:10048000292045584954004329205768656E204467
:10049000697361626C656400412920456E61626C1C
:1004A000652F44697361626C65004229204E6F00BC
:1004B00041292059657300436F6E74696E75653FFD
:1004C00000666F6C6C6F77696E6720746573747308
:1004D0002E00746F20706572666F726D207468658F
:1004E000006D757374206265206672656520746F97
:1004F000206D6F7665005741524E494E473A205461
:100500006865204175676572004229204E6F004181
:1005100029205965730053746F7020457874727583
:1005200064696E673F00526573657474696E672015
:10053000454550524F4D2E2E2E00526573657474F2
:10054000696E672074686520454550524F4D2E2EC8
:100550002E004229204E6F00412920596573005713
:100560006F756C6420796F75206C696B6520746F92
:100570002070726F636565643F0074686520646510
:100580006661756C742073657474696E677300734B
:10059000746F7265642070726F66696C6573207722
:1005A0006974680077696C6C206F76657277726920
:1005B000746520616C6C20005741524E494E473A99
:1005C000205468697320616374696F6E00574152EB
:1005D0004E494E473A205468697320616374696FCD
:1005E0006E2077696C6C206F7665727769727465BE
:1005F00020616C6C2073746F7265642070726F661A
:10060000696C657320776974682074686520646517
:100610006661756C742053657474696E67732E001F
:1006200050726F66696C6520536176656400536132
:1006300076696E672070726F66696C652E2E2E006B
:10064000536176696E672053657474696E677320B1
:10065000666F722070726F66696C65206E756D6270
:1006600065723A2000436F6E6669677572617469DE
:100670006F6E20536176656400536176696E672EF4
:100680002E2E0046696E697368656420536F616B36
:10069000696E670054696D652873292C204469616F
:1006A000286D6D292C206F75746665656452504DF8
:1006B0002C2073746172766546656564657252506C
:1006C0004D2C2020617567657252504D2C204D6F66
:1006D00064652C206F7574666565644B702C206FA3
:1006E0007574666565644B692C206F757466656505
:1006F000644B642C206665656452617465286D2FB7
:100700006D696E292C206D657465727345787472FD
:100710007564656400EF12FFFF0100000000000037
:10072000007518E6120000FFFF330200000F000002
:100730000092170000FFFFC20B02000A004012D710
:10074000120000FFFF7E0B0000070000006915008B
:1007500000FFFF9C0B01000D0000005D150000FF75
:10076000FF980B01000D00000051150000FFFF94E1
:100770000B01000D00000045150000FFFF900B016C
:10078000000D00000041170000FFFFE80B00000C07
:1007900000FB0D31170000FFFFEC0B00000C000CFC
:1007A0000E21170000FFFFF00B00000C001D0E11C2
:1007B000170000FFFFF40B00000C002E0E8817003E
:1007C00000FFFFC60B01000A006B0F7C170000FF43
:1007D000FFCA0B01000C00770FFE120000FFFF376D
:1007E0000200000F001212B6160000FFFF2B0200DD
:1007F000000F004C13B7170000FFFFA20B00000E04
:10080000000000AE170000FFFFB60B02000C000056
:10081000009C170000FFFFBE0B02000A00000071E1
:10082000170000FFFFD20B02000C004C12661700ED
:1008300000FFFFCE0B02000C004C125B170000FF04
:10084000FFD60B02000C004C1251170000FFFFE412
:100850000B00000C0000003413FFFF01000000003B
:10086000000000781825130000FFFF860B00000F22
:1008700000000015130000FFFF00000000030069E6
:100880000E0C130000FFFF000000000300E60DFE49
:10089000120000FFFF370200000F0012126915005E
:1008A00000FFFF9C0B01000D0000005D150000FF24
:1008B000FF980B01000D00000051150000FFFF9490
:1008C0000B01000D00000045150000FFFF900B011B
:1008D000000D00000041170000FFFFE80B00000CB6
:1008E00000FB0D31170000FFFFEC0B00000C000CAB
:1008F0000E21170000FFFFF00B00000C001D0E1171
:10090000170000FFFFF40B00000C002E0EB71700BD
:1009100000FFFFA20B00000E000000AE170000FF5A
:10092000FFB60B02000C0000009C170000FFFFBE8A
:100930000B02000A00000092170000FFFFC20B022A
:10094000000A004012B6160000FFFF2B0200000F45
:10095000004C1388170000FFFFC60B01000A006B54
:100960000F7C170000FFFFCA0B01000C00770F710E
:10097000170000FFFFD20B02000C004C126617009C
:1009800000FFFFCE0B02000C004C125B170000FFB3
:10099000FFD60B02000C004C1251170000FFFFE4C1
:1009A0000B00000C0000008613FFFF010000000098
:1009B000000000771877130000FFFF800B00000F86
:1009C00000000069150000FFFF9C0B01000D0000F6
:1009D000005D150000FFFF980B01000D00000051A5
:1009E000150000FFFF940B01000D000000451500ED
:1009F00000FFFF900B01000D00000041170000FFF9
:100A0000FFE80B00000C00FB0D31170000FFFFECAE
:100A10000B00000C000C0E21170000FFFFF00B0074
:100A2000000C001D0E11170000FFFFF40B00000C5E
:100A3000002E0E64130000FFFF000000000300BC46
:100A40000D51130000FFFF000000000300D10D470F
:100A5000130000FFFF0000000003005B0EC816003B
:100A600000FFFF0000000003003412C3160000FF67
:100A7000FF0000000003003C12B6160000FFFF2B31
:100A80000200000F004C13B7170000FFFFA20B007D
:100A9000000E000000AE170000FFFFB60B02000CB6
:100AA0000000009C170000FFFFBE0B02000A0000C0
:100AB0000092170000FFFFC20B02000A000000882E
:100AC000170000FFFFC60B01000A0000007C1700A2
:100AD00000FFFFCA0B01000C00000071170000FFAF
:100AE000FFD20B02000C00000066170000FFFFCED3
:100AF0000B02000C0000005B170000FFFFD60B028A
:100B0000000C00000051170000FFFFE40B00000C78
:100B1000000000A013FFFF010000000000000076AD
:100B20001869150000FFFF9C0B01000D0000005D1F
:100B3000150000FFFF980B01000D0000005115008B
:100B400000FFFF940B01000D00000045150000FFA1
:100B5000FF900B01000D00000041170000FFFFE8AF
:100B60000B00000C00FB0D31170000FFFFEC0B0029
:100B7000000C000C0E21170000FFFFF00B00000C12
:100B8000001D0E11170000FFFFF40B00000C002EDB
:100B90000E93130000FFFF0000000003004D0EB78E
:100BA000170000FFFFA20B00000E000000AE1700B0
:100BB00000FFFFB60B02000C0000009C170000FFB6
:100BC000FFBE0B02000A00000092170000FFFFC2E8
:100BD0000B02000A000000B6160000FFFF2B020007
:100BE000000F004C1388170000FFFFC60B01000A1E
:100BF0000000007C170000FFFFCA0B01000C000082
:100C00000071170000FFFFD20B02000C000000660D
:100C1000170000FFFFCE0B02000C0000005B170066
:100C200000FFFFD60B02000C00000051170000FF70
:100C3000FFE40B00000C0000002318FFFF01000080
:100C40000000000000000014180000040000000074
:100C500000000000000A1800002000000000000052
:100C600000000000180000760000000000000000F6
:100C700000FD1701000F00850D000001000711FAAB
:100C80001701000F00990D000001000D11F7170169
:100C9000000F00AD0D000001001311F41701000F4B
:100CA00000C10D000001001911F11701000F00D55E
:100CB0000D000001001F11EE1701000F00E90D00EB
:100CC0000001002511EB1701000F00FD0D000001D0
:100CD000002B11E81701000F00110E000001003178
:100CE00011E51701000F00250E000001003711E18A
:100CF0001701000F00390E000001003D11D117014E
:100D0000000F000000000000004311C9170400FF9D
:100D1000FF0000000000003F0EBC170400FFFF00B2
:100D200000000000004711B7170400FFFFA20B00EE
:100D3000000E000000AE170400FFFFB60B02000C0F
:100D4000000000A6170400FFFFBA0B02000C000011
:100D5000009C170400FFFFBE0B02000A0000009277
:100D6000170400FFFFC20B02000A000000881704EE
:100D700000FFFFC60B01000A0000007C170400FF03
:100D8000FFCA0B01000C00000071170400FFFFD226
:100D90000B02000C00000066170400FFFFCE0B02E0
:100DA000000C0000005B170400FFFFD60B02000CD4
:100DB00000000051170400FFFFE40B00000C0000CE
:100DC0000041170400FFFFE80B00000C0000003199
:100DD000170400FFFFEC0B00000C000000211704BB
:100DE00000FFFFF00B00000C00000011170400FFD3
:100DF000FFF40B00000C000000FE160200FFFF00D5
:100E00000000000300DF10F11602002600000000C1
:100E10000000000000EB1602003E00000000000091
:100E2000000000DD16020044000000000000000089
:100E300000D516020063000000000000000000CD95
:100E40001602006D000000000000000000C816211E
:100E500000FFFF0000000003003412C3162100FF52
:100E6000FF0000000003003C12B6162100FFFF2B1C
:100E70000200000F004C13AA162100FFFF00000023
:100E80000003006C129B162100FFFF3102000006D8
:100E900000000091162100FFFF0000000003007811
:100EA0001284162100FFFF2F0200000600000092AE
:100EB000172100FFFFC20B02000A0000007F16216D
:100EC00000FFFF0000000003007B1171162100FFEE
:100ED000FF6A0C00000600000067162100FFFF6C8F
:100EE0000C02000A00000059162100FFFF700C00E0
:100EF00000060000004B162100FFFF720C000006E8
:100F000000000040162100FFFF740C0000060000E6
:100F10000033162100FFFF760C00000600000025BC
:100F2000162100FFFF780C0000060000001B1621B0
:100F300000FFFF7A0C00000400000011162100FFE2
:100F4000FF7B0C000006000000FF152100FFFF7D65
:100F50000C000006000000F2152100FFFF7F0C00CE
:100F60000006000000E6152100FFFF830C000006CC
:100F7000000000DA152100FFFF850C0000060000CC
:100F800000CD152100FFFF870C000006000000BF08
:100F9000152100FFFF890C000006000000B4152297
:100FA00000FFFF0000000003007918AC152200FFCD
:100FB000FF8B0C000006000000A2152200FFFF8D31
:100FC0000C00000600000098152200FFFF8F0C00A7
:100FD000000400000091152200FFFF900C000004A7
:100FE00000000086152200FFFF910C02000A00009D
:100FF0000075152300FFFF3F0200000F00841169F8
:10100000152300FFFF9C0B01000D0000005D152360
:1010100000FFFF980B01000D00000051152300FF99
:10102000FF940B01000D00000045152300FFFF9009
:101030000B01000D00000041172300FFFFE50C002D
:10104000000C00000031172300FFFF130D00000CFF
:1010500000000021172300FFFF410D00000C0000DD
:101060000011172300FFFF6F0D00000C0000003877
:10107000152300FFFFBD0C0000060000002E152305
:1010800000FFFFBF0C00000C00000024152300FF30
:10109000FFC30C00000C0000001E152300FFFFC75B
:1010A0000C02000C00000018152300FFFFCB0C02FF
:1010B000000C00000012152300FFFFCF0C02000CF3
:1010C00000000005152300FFFFEB0C0000060000E8
:1010D00000FB142300FFFFED0C00000C000000F1EA
:1010E000142300FFFFF10C00000C000000EB1423A0
:1010F00000FFFFF50C02000C000000E5142300FFC8
:10110000FFF90C02000C000000DF142300FFFFFDBC
:101110000C02000C000000D5142300FFFF1B0D0083
:10112000000C000000CB142300FFFF1F0D00000C7B
:10113000000000C5142300FFFF230D02000C000077
:1011400000BF142300FFFF270D02000C000000B9B0
:10115000142300FFFF2B0D02000C000000AF14232E
:1011600000FFFF490D00000C000000A5142300FF44
:10117000FF4D0D00000C0000009F142300FFFF51E5
:101180000D02000C00000099142300FFFF550D0212
:10119000000C00000093142300FFFF590D02000C07
:1011A00000000087142400FFFF3B0200000F00E74F
:1011B0001183142400FFFF8C0B00000A000000784C
:1011C000142400FFFF000000000300C41B7014245F
:1011D00000FFFF950C00000600000066142400FFCD
:1011E000FF970C0000060000005C142400FFFF992C
:1011F0000C0000040000004F142400FFFF9A0C00B4
:10120000000400000041142400FFFF9B0C02000AB0
:1012100000000039142400FFFF9F0C02000C0000A6
:101220000031142400FFFFA30C02000C0000002476
:10123000142500FFFF00000000030050121C1425BD
:1012400000FFFFA70C00000600000012142500FF9D
:10125000FFA90C00000600000008142500FFFFABEA
:101260000C00000400000001142500FFFFAC0C007E
:101270000004000000F5132500FFFFAD0C02000A7A
:10128000000000E9132500FFFFB10C02000A000076
:1012900000DC132500FFFFB50C02000A000000CEA1
:1012A000132500FFFFB90C02000A000000B6160368
:1012B00000FFFF2B0200000F004C13BD130300FFC3
:1012C000FF0000FFFF03005F15B0130300FFFF00E6
:1012D000000000030051174772616D732045787458
:1012E0007275646564004469616D6574657200457A
:1012F0007874727564696E672E202E202E005374E8
:10130000617276652046656564657200416464209B
:1013100054696D650046696C616D656E74204C6F33
:10132000616465640054696D652052656D61696E24
:10133000696E67004C6F61642046696C616D656E13
:10134000742E202E202E00536B697020536F616B1A
:1013500000446563726561736520536F616B20544F
:10136000696D6500496E63726561736520536F61D5
:101370006B2054696D650054696D652052656D611F
:10138000696E696E6700536F616B696E672E202E00
:10139000202E00536B69702050726568656174007F
:1013A00050726568656174696E672E202E202E006C
:1013B000526573657420454550524F4D004D65612F
:1013C000737572652046696C616D656E7400526F4D
:1013D0006C6C657220526164697573005472617639
:1013E00065727365204C656E00436F7265205261B3
:1013F00064697573004469736B2052616469757325
:1014000000456E61626C6500446972656374696F62
:101410006E0053746570204D6F64650050696E20D6
:1014200053657400546573742053706F6F6C6572EC
:10143000004D696E2052504D004D61782052504D44
:1014400000526F6C6C65722052616469757300455F
:101450006E61626C65204C6F6769630044697265F8
:101460006374696F6E0053746570204D6F6465001E
:1014700050696E205365740053656E6420312052AC
:1014800065760052504D0052756E204F757466653A
:101490006564005A34204B64005A34204B69005A6A
:1014A00034204B70005A34204D696E204443005A5A
:1014B00034204D6178204443005A33204B64005A55
:1014C00033204B69005A33204B70005A33204D694A
:1014D0006E204443005A33204D6178204443005A23
:1014E00032204B64005A32204B69005A32204B7034
:1014F000005A32204D696E204443005A32204D611B
:1015000078204443005A322054696D65206261732B
:1015100065005A31204B64005A31204B69005A3122
:10152000204B70005A31204D696E204443005A31DF
:10153000204D6178204443005A312054696D652064
:1015400062617365005A6F6E6520342054656D705A
:10155000005A6F6E6520332054656D70005A6F6EAF
:101560006520322054656D70005A6F6E6520312001
:1015700054656D70004163746976617465204865D7
:101580006174657273004765617220526174696F9E
:1015900000456E61626C6500446972656374696FD1
:1015A0006E0053746570204D6F64650050696E2045
:1015B0005365740054657374204175676572004407
:1015C00065626F756E63652054696D650053746163
:1015D000727475702054696D65004D617846696C50
:1015E0006C54696D65004D696E46696C6C54696D2B
:1015F00065004D6178447574794379636C65005377
:1016000074617274757020447574794379636C6584
:1016100000447574794379636C650044697265634D
:1016200074696F6E004F76657220526F74617469D1
:101630006F6E00486F6D696E672044656C6179005C
:10164000537465702044656C61790044756D702039
:10165000506F736974696F6E00486F6D6520506FCD
:10166000736974696F6E004C756D70204D61737392
:1016700000536C6176652041646472657373005336
:10168000746F700054696D6520746F2073656E64AB
:101690000053656E642054696D65004379636C6521
:1016A0007320746F2073656E640053656E6420430D
:1016B00079636C6573004665656420506C61737472
:1016C00069630044756D7000486F6D650053706FFD
:1016D0006F6C6572004F757466656564004865617E
:1016E00074657220436F6E66696700417567657245
:1016F0000053746172766546656564657200536176
:10170000766520436F6E66696775726174696F6E86
:10171000005A6F6E652034205365742054656D70D7
:10172000005A6F6E652033205365742054656D70C8
:10173000005A6F6E652032205365742054656D70B9
:10174000005A6F6E652031205365742054656D70AA
:1017500000536F616B2054696D65004F7574666549
:101760006564205064004F757466656564204B693C
:10177000004F757466656564204B70004F75746624
:101780006565642052504D00417567657220525066
:101790004D004772616D732F4D696E00546F6C651B
:1017A00072616E63650044656E73697479004469A3
:1017B000616D65746572004E616D6500536176659B
:1017C0002050726F66696C65004578747275646547
:1017D0000044656661756C742050726F66696C6553
:1017E00000313029003929003829003729003629ED
:1017F000003529003429003329003229003129001D
:10180000417578696C696172790043616C696272D3
:101810006174650053656C6563742050726F66690E
:101820006C65004D61696E204D656E750053617683
:10183000696E6720436F6E6669672E00F5031600B8
:10184000F3031900F1031E00E9032800E20332004C
:10185000D2033C00C2034600AD03500091035A007E
:101860006F03640048036E0016037800E4028200F0
:10187000AA028C00710296004302A0000102AA0095
:10188000CA01B4008B01BE005201C8002C01D20075
:101890000901DC00EB00E600C800F000AC00FA0033
:1018A0009600040182000E017200180163002201FB
:1018B00053002C0100000A0B02090C0D0E0807034F
:1018C0000401000000000000000000000000000013
:1018D0000000000000000000000000000000000008
:1018E00012111000000000000000000000000000C5
:1018F000000000000000000000000102102020088D
:10190000081020401020408002010201080402015A
:1019100001020408102040808040201008040201C9
:101920008004020180402010080402010804020122
:1019300001020408102040800102040810204080A9
:1019400005050505070508080808020202020A0A3B
:101950000808040404040101010101010101030359
:10196000030303030303040707070C0C0C0C0C0C04
:101970000C0C0202020206060606060606060B0B01
:101980000B0B0B0B0B0B0000200023002600290083
:101990002C002F00320000010000030106010901A4
:1019A00000002200250028002B002E00310034000A
:1019B00002010000050108010B01000021002400C4
:1019C00027002A002D00300033000101000004012F
:1019D00007010A014E414E494E495459494E46CDE0
:1019E000CCCC3D0AD7233C17B7D13877CC2B3295D6
:1019F00095E6241FB14F0A000020410000C84200B4
:101A0000401C4620BCBE4CCA1B0E5AAEC59D74007D
:101A1000407A10F35A00A0724E18090010A5D4E8BD
:101A20000000E87648170000E40B54020000CA9A50
:101A30003B000000E1F505000080969800000040A2
:101A4000420F000000A086010000001027000000E7
:101A500000E803000000006400000000000A00002D
:101A60000000000100000000002C76D888DC674FE1
:101A70000823DFC1DFAE59E1B1B796E5E3E453C611
:101A80003AE651997696E8E6C28426EB898C9B6209
:101A9000ED407C6FFCEFBC9C9F40F2BAA56FA5F4B3
:101AA00090055A2AF75C936B6CF9676DC11BFCE0DB
:101AB000E40D47FEF520E6B500D0ED902E0300942E
:101AC0003577050080841E080000204E0A000000C3
:101AD000C80C333333330F986E12831141EF8D21CD
:101AE00014893BE65516CFFEE6DB18D1844B381B34
:101AF000F77C1D901DA4BBE424203284725E2281F9
:101B000000C9F124ECA1E53D2700C5146C452D4C1E
:101B100011241FBECFEFD1E2DEBFCDBF00E00CBF6E
:101B200015E0A0E0B2E0ECE9FEEA00E00BBF02C085
:101B300007900D92AC35B107D9F72FE0ACE5B5E0D1
:101B400001C01D92AC3CB207E1F71BE1C0E1DBE153
:101B500000E006C022970109FE010BBF0E94C1529E
:101B6000CA30D10780E00807A9F70E94714C0C9495
:101B70004C570C9400000895809180059091810548
:101B8000A0918205B0918305805A9541AF4FBF4F18
:101B90008093800590938105A0938205B09383057F
:101BA00008958091800590918105A0918205B09162
:101BB000830580569A4EA109B109809380059093C0
:101BC0008105A0938205B0938305089580917805DF
:101BD00090917905A0917A05B0917B05805A954145
:101BE000AF4FBF4F8093780590937905A0937A0506
:101BF000B0937B0508958091E80B9091E90BA0913B
:101C0000EA0BB091EB0B8093E50C9093E60CA0935C
:101C1000E70CB093E80C08958091EC0B9091ED0BDC
:101C2000A091EE0BB091EF0B8093130D9093140DD8
:101C3000A093150DB093160D08958091F00B90911F
:101C4000F10BA091F20BB091F30B8093410D9093A7
:101C5000420DA093430DB093440D08958091F40B71
:101C60009091F50BA091F60BB091F70B80936F0D4F
:101C70009093700DA093710DB093720D089581E053
:101C800090E090937D0B80937C0B81EB96E090939A
:101C90008D0580938C050C94443383E090E0909301
:101CA0007D0B80937C0B80E596E090938D0580936F
:101CB0008C050C94443387E090E090937D0B8093E7
:101CC0007C0B8EE895E090938D0580938C050C94A9
:101CD000443387E090E090937D0B80937C0B8EE8FB
:101CE00095E090938D0580938C050C944433CF92AE
:101CF000DF92EF92FF9289EE9AE00E94A91E89E39B
:101D00009AE00E947C2781EB99E00E947C2789E27F
:101D100099E00E947C2781EA98E00E947C2789E371
:101D20009AE00E9498296B017C0120E030E040E4B9
:101D300050E46091E80B7091E90B8091EA0B90916F
:101D4000EB0B0E94AD4E9B01AC01C701B6010E9496
:101D5000B45018160CF073C081EB99E00E949829DA
:101D60006B017C0120E030E040E450E46091EC0B3A
:101D70007091ED0B8091EE0B9091EF0B0E94AD4EA8
:101D80009B01AC01C701B6010E94B45018160CF0BB
:101D900056C089E299E00E9498296B017C0120E0FD
:101DA00030E040E450E46091F00B7091F10B8091D1
:101DB000F20B9091F30B0E94AD4E9B01AC01C70159
:101DC000B6010E94B4501816D4F581EA98E00E943A
:101DD00098296B017C0120E030E040E450E4609100
:101DE000F40B7091F50B8091F60B9091F70B0E941C
:101DF000AD4E9B01AC01C701B6010E94B45018164C
:101E0000F4F461E070E089EE9AE00E94A51E83E0A0
:101E100090E090937D0B80937C0B80E596E090930F
:101E20008D0580938C050E94443380918C059091A0
:101E30008D05FF90EF90DF90CF900C94C431FF9010
:101E4000EF90DF90CF900895CF92DF92EF92FF92C4
:101E500060E373E08DE29FE00E94F54C0E94C3476F
:101E6000609384057093850580938605909387051C
:101E70000E94AF4F6B017C0120E030E040E752E46C
:101E80006091E40B7091E50B8091E60B9091E70B6C
:101E90000E94B85020E030E04AE754E40E94B85075
:101EA0009B01AC01C701B6010E94AE4E0E94834F58
:101EB00060938005709381058093820590938305DC
:101EC00084E090E090937D0B80937C0BFF90EF90EB
:101ED000DF90CF9008954091C60B5091C70B609151
:101EE000C80B7091C90B8DE898E00C94C73F8CED3E
:101EF00097E00E940E374091CA0B5091CB0B609136
:101F0000CC0B7091CD0B8CED97E00C94A236CF9258
:101F1000DF92EF92FF9280910002882381F120E00E
:101F200030E0A9016091C60B7091C70B8091C80B7E
:101F30009091C90B0E94B4501816FCF480916A0568
:101F400081111BC083E797E00E94C23B8DE898E0B7
:101F50000E94024081E080936A0581E090E09093C6
:101F60006905809368050E94C34760936405709378
:101F70006505809366059093670510920002809135
:101F80006A05882309F46BC00E94C347C0906405AA
:101F9000D0906505E0906605F09067056C157D05AD
:101FA0008E059F0508F45BC08091680590916905D6
:101FB000803991400CF053C089E39AE00E947C275D
:101FC00081EB99E00E947C2789E299E00E947C27BE
:101FD00081EA98E00E947C2720E030E048EC53E45E
:101FE0006091C60B7091C70B8091C80B9091C90B83
:101FF0000E94164F6B017C01609168057091690524
:10200000882777FD8095982F0E94B14F9B01AC01E6
:10201000C701B6010E94B850AB01BC018DE898E041
:102020000E94C73F80916805909169050196909341
:102030006905809368058091640590916505A0917C
:102040006605B09167050596A11DB11D80936405D5
:1020500090936505A0936605B093670574C0809161
:102060006A05882341F0809168059091690580395F
:1020700091400CF468C010926A0581E080930002E0
:10208000C090CA0BD090CB0BE090CC0BF090CD0B56
:1020900020E030E0A901C701B6010E94B450181633
:1020A000E4F4B701A6018CED97E00E94A23660E04F
:1020B00070E08CED97E00E94A5368CED97E00E94D1
:1020C0000E3784EA97E00E949E3C84EA97E00E94E3
:1020D000513D84EA97E00E94ED3D0E94C3476B01A9
:1020E0007C0160937C0570937D0580937E059093C1
:1020F0007F052091810D3091820D4091830D50918B
:10210000840DA0E6BAEE0E94B7526C0D7D1D8E1DA7
:102110009F1D609378057093790580937A0590935D
:102120007B0586E090E090937D0B80937C0B8FEE97
:1021300095E090938D0580938C05FF90EF90DF9054
:10214000CF900C94C431FF90EF90DF90CF90089522
:102150000F931F9389EE9AE00E94A91E89E39AE0EB
:102160000E947C2781EB99E00E947C2789E299E01C
:102170000E947C2789E299E00E947C278CED97E001
:102180000E9451370E94C34700917805109179054C
:1021900020917A0530917B050053154721093109BB
:1021A000061717072807390730F463E070E089EE57
:1021B0009AE00E94A51E1F910F910C94C34784E6DC
:1021C0009BE00E94AA4369E776E084E69BE00E94D8
:1021D000A54C64EF71E080E090E00E94F24780EA55
:1021E0009BE00E943F2484E69BE00E94AA4365E6B0
:1021F00076E084E69BE00E94A54C60ED77E080E00D
:1022000090E00E94F24782E197E00C94C43160E0D4
:1022100070E080EA9BE00C94CB2461E070E080EAFF
:102220009BE00C94CB2462E070E080EA9BE00C948D
:10223000CB2463E070E080EA9BE00C94CB2464E064
:1022400070E080EA9BE00C94CB2465E070E080EACB
:102250009BE00C94CB2466E070E080EA9BE00C9459
:10226000CB2467E070E080EA9BE00C94CB2468E02C
:1022700070E080EA9BE00C94CB2469E070E080EA97
:102280009BE00C94CB2480EA9BE00C94652160E4F5
:1022900076E08DE29FE00E94A54C6091A00B7091CA
:1022A000A10B4AE050E08DE29FE00E94AC4D84E635
:1022B0009BE00E94AA436EE276E084E69BE00E94E7
:1022C000A54C80EA9BE00E947E2464EF71E080E0F0
:1022D00090E00E94F24784E69BE00E94AA4360E2FD
:1022E00076E084E69BE00E94A54C60ED77E080E01C
:1022F00090E00C94F24781EC9AE00E94533F1092D8
:102300007D0B10927C0B0895809140028636F9F483
:102310006BE373E08FE392E00E94125361E070E0A0
:1023200089E39AE00E94952961E070E081EB99E0F1
:102330000E94952961E070E089E299E00E94952968
:1023400061E070E081EA98E00E9495293AC06EE36E
:1023500073E08FE392E00E94125360E070E089E343
:102360009AE00E94952960E070E081EB99E00E947C
:10237000952960E070E089E299E00E94952960E08B
:1023800070E081EA98E00E94952940E050E0BA01AF
:1023900089E39AE00E94152940E050E0BA0181EB00
:1023A00099E00E94152940E050E0BA0189E299E0E5
:1023B0000E94152940E050E0BA0181EA98E00E94AD
:1023C000152980918C0590918D050C94C4318091D4
:1023D0003C028636B9F46BE373E08BE392E00E9433
:1023E000125340918C0B50918D0B60918E0B70911C
:1023F0008F0B8CED97E00E94A2368CED97E00E9447
:102400000E370AC06EE373E08BE392E00E94125332
:102410008CED97E00E940B3780918C0590918D0593
:102420000C94C43181EC9AE00E94AF3F67E372E004
:1024300081EC9AE00E94F93D67E573E08DE29FE050
:102440000E94F54C62E473E08DE29FE00E94CA4C6A
:1024500067E372E08DE29FE00E94F54C67E573E070
:102460008DE29FE00C94F54C81EC9AE00E94FE3DD9
:1024700081EC9AE00C94823E81EC9AE00C94953EBB
:102480004091C20B5091C30B6091C40B7091C50B6E
:1024900081EC9AE00C94A83E8CED97E00C94A83661
:1024A00040E050E060E271E484EA97E00E94EB3D96
:1024B00084EA97E00E94ED3D60E777E180E090E0FC
:1024C0000E94F24784EA97E00E94EF3D80918C05DC
:1024D00090918D050C94C43181EC9AE00E94FE3DF0
:1024E000609131027091320281EC9AE00C94D23EFC
:1024F00081EC9AE00E94FE3DA0912F02B091300243
:1025000020E63AEE0E94B152AB01BC0181EC9AE0A8
:102510000C94033F0E94C34760936C0570936D0554
:1025200080936E0590936F0589EE9AE00E94A91E34
:1025300089E39AE00E947C2781EB99E00E947C2746
:1025400089E299E00E947C2781EA98E00E947C273A
:102550008091800590918105A0918205B0918305BD
:1025600088589341A109B10940916C0550916D05BE
:1025700060916E0570916F05481759076A077B07D0
:1025800068F080916B05811109C062E070E089EE0E
:102590009AE00E94A51E81E080936B0540916C0536
:1025A00050916D0560916E0570916F058091800569
:1025B00090918105A0918205B09183054817590734
:1025C0006A077B0740F110926B0567E573E08DE2C7
:1025D0009FE00E94F54C63E876E08DE29FE00E9468
:1025E000E54C67E573E08DE29FE00E94F54C87E0E3
:1025F00090E090937D0B80937C0B8EE895E0909318
:102600008D0580938C050E94443380918C059091B8
:102610008D050C94C43108950F931F9389EE9AE0B1
:102620000E94A91E89E39AE00E947C2781EB99E031
:102630000E947C2789E299E00E947C278CED97E03C
:102640000E9451370E94C3470091600510916105B7
:102650002091620530916305601771078207930727
:10266000C0F084EA97E00E94513D8091600590910E
:102670006105A0916205B091630588519C4FAF4FF1
:10268000BF4F8093600590936105A0936205B0935E
:1026900063051F910F91089581EC9AE00E94903F8D
:1026A0008091E80A882319F06BE373E002C06EE3BF
:1026B00073E08BE292E00C9412536115710581F086
:1026C000DB010D900020E9F7AD0141505109461B97
:1026D000570BDC01ED91FC910280F381E02D199400
:1026E00080E090E0089564E976E08DE29FE00C944C
:1026F000E54C81DA91DAA1DAB1DA0E94C34760933E
:1027000088057093890580938A0590938B0540E036
:1027100050E064EB72E489E39AE00E94152940E0FE
:1027200050E064EB72E481EB99E00E94152940E0EF
:1027300050E06FE773E489E299E00E94152940E0D8
:1027400050E06FE773E481EA98E00E94152961E0A8
:1027500070E089E39AE00E94952961E070E081EBE6
:1027600099E00E94952961E070E089E299E00E9479
:10277000952961E070E081EA98E00E949529B3DF35
:1027800082E090E090937D0B80937C0B08958DE820
:1027900098E00E9402404091C60B5091C70B609197
:1027A000C80B7091C90B8DE898E00E94C73F40911B
:1027B000CA0B5091CB0B6091CC0B7091CD0B8CED73
:1027C00097E00E94A23660E070E08CED97E00E94F6
:1027D000A5368CED97E00E940E3789EE9AE00E94B4
:1027E000FF1E0E94C3476093740570937505809324
:1027F00076059093770577DF8CED97E00E943C3764
:1028000088E090E090937D0B80937C0B089526E008
:1028100040E052EC61E070E08DE29FE00E94654B89
:1028200084E69EE00E94364520E044E064E184E6D0
:102830009BE00E94C74384E69BE00E94AA4382E19A
:1028400097E090938D0580938C0566E070E089EEAB
:102850009AE00E94A51E10927D0B10927C0B8DE8D1
:1028600098E00E943B4080EA9BE00E9463248091B4
:102870008C0590918D050E94443368E573E08DE2EC
:102880009FE00E94CA4C4091750D5091760D609169
:10289000770D7091780D26E030E08DE29FE00E9488
:1028A0009C4E67E773E08DE29FE00E94CA4C409126
:1028B000790D50917A0D60917B0D70917C0D24E023
:1028C00030E08DE29FE00C949C4ECF92DF92EF922D
:1028D000FF920F931F93CF93DF9300D000D0CDB71B
:1028E000DEB76C01CB01BA0128EE33E040E050E0E6
:1028F0000E948952C9016CE370E00E9476527C010B
:10290000882777FD8095982F0E94B14F8E010C5F2C
:102910001F4F20E042E00E94E852B701882777FD70
:102920008095982F0E94B14F0350110920E042E09A
:102930000E94E852BE016C5F7F4FC6010E94125395
:10294000C601FC01019620812111FBCF8AE381930E
:102950008AE0E816F10414F480E38983DE0111961D
:102960008D91882311F08193FBCFC60126960FB677
:10297000F894DEBF0FBECDBFDF91CF911F910F91B5
:10298000FF90EF90DF90CF900895CF92EF920F934A
:102990001F9380EA9BE00E94102580E2C82E9EE1F2
:1029A000E92E0CE12AE148E166E184E69BE00E9421
:1029B0006A4424E0E22E04E021E132E045E152E005
:1029C00061E072E086EF9AE00E94AF2989EE9AE01A
:1029D0000E94991E60EA7BE081EC9AE00E94F13D42
:1029E0006DEB7CE089E39AE00E94C1266BEE7CE00F
:1029F00081EB99E00E94C12669E17DE089E299E0DE
:102A00000E94C12667E47DE081EA98E00E94C12629
:102A100040918B0C50918C0C60EA7BE08DE898E043
:102A20000E947E4060EA7BE08CED97E00E941936C0
:102A30004CED57E060EA7BE084EA97E00E94CE3BF1
:102A400060EA7BE083E797E00E94BC3B06EF1AE078
:102A500024E63BE049E750E069E37CE082E197E06F
:102A60000E94962C24E63BE045E150E063E17BE0E8
:102A700081EB96E00E94962C24E63BE04AE150E090
:102A800067EA79E080E596E00E94962C24E63BE038
:102A900048E150E067E578E08FEE95E00E94962CE3
:102AA00024E63BE047E150E065E177E08EE895E021
:102AB0000E94962C1F910F91EF90CF9008958F92C6
:102AC0009F92AF92BF92CF92DF92EF92FF920E94BD
:102AD000C3470E94C3474B015C0184E69BE00E9410
:102AE000AA438CED97E00E94C73640E050E060E2D8
:102AF00071E48CED97E00E94A23684EA97E00E9490
:102B0000513D8CED97E00E940E3784EA97E00E94D9
:102B1000ED3D8CED97E00E943C3761E070E08CED7C
:102B200097E00E94A5368DE29FE00E94564A181653
:102B30001906B4F48CED97E00E940B3784EA97E015
:102B40000E94EF3D80918C0590918D05FF90EF9054
:102B5000DF90CF90BF90AF909F908F900C94C43136
:102B60000E94C3476B017C018CED97E00E945137B6
:102B700084EA97E00E94513DC814D904EA04FB049A
:102B800090F261E070E08CED97E00E948E369B0140
:102B9000AC0160E070E080E894E40E94AD4EAB01CF
:102BA000BC0122E030E08DE29FE00E949B4E65E593
:102BB00073E08DE29FE00E94CA4C62E070E08CED11
:102BC00097E00E948E36AB01BC0122E030E08DE23E
:102BD0009FE00E949B4E65E573E08DE29FE00E94BE
:102BE000CA4C8CED97E00E948136AB01BC0122E01B
:102BF00030E08DE29FE00E949B4E65E573E08DE240
:102C00009FE00E94CA4C8CED97E00E941937AB01FF
:102C1000BC0122E030E08DE29FE00E949C4E460124
:102C2000570184EF880E81E0981EA11CB11C7BCF58
:102C3000CF92DF92EF92FF920F931F9386EF9AE06D
:102C40000E94792C8093F50A8DE29FE00E94564AFB
:102C50001816190634F48DE29FE00E946F4A8093A3
:102C6000F50A8091F50A833489F1ACF48433E1F1FB
:102C70006CF48A3209F43FC0813309F049C0809175
:102C80008C0590918D050E948A2D42C0813481F07F
:102C90008234A9F03DC0813759F02CF48434E9F036
:102CA0008536A1F035C08237C1F0873741F030C09A
:102CB00080918C0590918D050E94AD3229C0809144
:102CC0008C0590918D050E94E03222C080918C0588
:102CD00090918D050E94BF351BC080918C0590910D
:102CE0008D050E940F3314C080918C0590918D0545
:102CF0000E940B2E0DC020E044E064E184E69BE0DE
:102D00000E94C74380918C0590918D050E94C4312B
:102D1000E0917C0BF0917D0BEE0FFF1FE75EFD4F06
:102D20000190F081E02D199589E39AE00E947C27BB
:102D300081EB99E00E947C2789E299E00E947C2740
:102D400081EA98E00E947C270E94C34760935C055B
:102D500070935D0580935E0590935F05C09070054C
:102D6000D0907105E0907205F09073056C157D05AB
:102D70008E059F0508F48EC089E39AE00E94982989
:102D800060939C0B70939D0B80939E0B90939F0B75
:102D900081EB99E00E9498296093980B7093990BAE
:102DA00080939A0B90939B0B89E299E00E9498295B
:102DB0006093940B7093950B8093960B9093970B65
:102DC00081EA98E00E9498296093900B7093910B90
:102DD0008093920B9093930B61E070E08CED97E001
:102DE0000E948E36AB01BC0122E030E08DE29FE014
:102DF0000E949C4E80917C0B90917D0B0497A9F4CE
:102E0000C0908005D0908105E0908205F090830508
:102E10000E94C34797018601061B170B280B390B2D
:102E2000B901A80180E89BE050DD80917C0B909176
:102E30007D0B0697A9F4C0907805D0907905E090B5
:102E40007A05F0907B050E94C34797018601061B17
:102E5000170B280B390BB901A80186E89BE035DD7B
:102E60000E94C34768517C4F8F4F9F4F60937005FE
:102E700070937105809372059093730580918C0512
:102E800090918D051F910F91FF90EF90DF90CF9063
:102E90000C94C4311F910F91FF90EF90DF90CF9071
:102EA0000895CF93DF936DEC75E08DE29FE00E9473
:102EB000E54C84E69BE00E94AA4368EB75E084E65B
:102EC0009BE00E94A54C41E060E084E69BE00E940C
:102ED000AF4364EA75E084E69BE00E94A54C42E0C3
:102EE00060E084E69BE00E94AF436FE875E084E613
:102EF0009BE00E94A54C43E060E084E69BE00E94DA
:102F0000AF436AE775E084E69BE00E94A54C68E861
:102F100073E180E090E00E94F24784E69BE00E942B
:102F2000AA436FE575E084E69BE00E94A54C41E072
:102F300060E084E69BE00E94AF4368E575E084E6CC
:102F40009BE00E94A54C42E060E084E69BE00E948A
:102F5000AF4362E575E084E69BE00E94A54C86EFF6
:102F60009AE00E94792C8093F50A8DE29FE00E94FE
:102F7000564A1816190634F48DE29FE00E946F4AF3
:102F80008093F50A8091F50A813459F56AE375E07A
:102F90008DE29FE00E94E54C84E69BE00E94AA43FC
:102FA00066E275E084E69BE00E94A54C80EA9BE027
:102FB0000E940D2280EA9BE00E943F2480EA9BE071
:102FC0000E946521C0E0D0E0D093A10BC093A00B7C
:102FD00080EA9BE00E947E242196CA30D105A1F7A9
:102FE00002C081E001C080E09091F50A923411F0B6
:102FF0008111B5CF82E197E0DF91CF910C94C4317C
:10300000CF93DF9384E69BE00E94AA4366E175E0DC
:1030100084E69BE00E94A54C41E060E084E69BE0F2
:103020000E94AF436FE075E084E69BE00E94A54CF0
:1030300042E060E084E69BE00E94AF4369E075E017
:1030400084E69BE00E94A54CC2E1D7E086EF9AE0BF
:103050000E94792C8093F50A8DE29FE00E94564AE7
:103060001816190634F48DE29FE00E946F4A80938F
:10307000F50A8091F50A893711F0813451F58DE810
:1030800098E00E943B408CED97E00E940B3781EC6A
:103090009AE00E94533F89E39AE00E946A2981EBFB
:1030A00099E00E946A2989E299E00E946A2981EAEE
:1030B00098E00E946A2984EA97E00E94EF3D10920E
:1030C0007D0B10927C0BD0938D05C0938C0580E016
:1030D00001C081E09091F50A9E3621F0923411F002
:1030E0008111B4CFDF91CF9108958ACF89CF88CF56
:1030F00087CFCF93DF9384E69BE00E94AA4366EFDD
:1031000074E084E69BE00E94A54C41E060E084E628
:103110009BE00E94AF4361EE74E084E69BE00E9476
:10312000A54C42E060E084E69BE00E94AF4362ED84
:1031300074E084E69BE00E94A54C43E060E084E6F6
:103140009BE00E94AF4361EC74E084E69BE00E9448
:10315000A54C68E873E180E090E00E94F24784E6C5
:103160009BE00E94AA4367EB74E084E69BE00E9428
:10317000A54C41E060E084E69BE00E94AF4360EB39
:1031800074E084E69BE00E94A54C42E060E084E6A7
:103190009BE00E94AF436AEA74E084E69BE00E94F1
:1031A000A54C86EF9AE00E94792C8093F50A8DE277
:1031B0009FE00E94564A1816190634F48DE29FE0EB
:1031C0000E946F4A8093F50A8091F50A813439F1A3
:1031D000823439F71CC0813409F445C086EF9AE087
:1031E0000E94792C8093F50A8DE29FE00E94564A56
:1031F0001816190634F48DE29FE00E946F4A8093FE
:10320000F50A8091F50A8334C9F1843421F780915D
:103210008C0590918D05DF91CF910C94C43184E69B
:103220009BE00E94AA4368E974E084E69BE00E9468
:10323000A54C41E060E084E69BE00E94AF4367E874
:1032400074E084E69BE00E94A54C42E060E084E6E6
:103250009BE00E94AF436FE774E084E69BE00E942E
:10326000A54CC1E0BBCF8DE898E0CC2321F00E94B3
:103270000240C0E0B3CF0E943B40F3CFC11106C073
:103280008091900C91E089278093900C84E69BE0DC
:103290000E94AA436AE674E084E69BE00E94A54C83
:1032A00068E873E180E090E00E94F24784E69BE0EA
:1032B0000E94AA4360E674E084E69BE00E94A54C6D
:1032C00041E060E084E69BE00E94AF4369E574E082
:1032D00084E69BE00E94A54C42E060E084E69BE02F
:1032E0000E94AF4363E574E084E69BE00E94A54C36
:1032F00086EF9AE00E94792C8093F50A8DE29FE098
:103300000E94564A1816190634F48DE29FE00E9476
:103310006F4A8093F50A8091F50A813419F082345E
:1033200039F775CF8DE898E00E94024040E050E008
:1033300060E87FE38DE898E00E94C73F84E69BE069
:103340000E94AA436FE374E084E69BE00E94A54CD0
:1033500041E060E084E69BE00E94AF4368E374E0F4
:1033600084E69BE00E94A54C42E060E084E69BE09E
:103370000E94AF4362E374E084E69BE00E94A54CA8
:1033800043E060E084E69BE00E94AF436AE274E0C1
:1033900084E69BE00E94A54CD1E086EF9AE00E9473
:1033A000792C8093F50A8DE29FE00E94564A181608
:1033B000190634F48DE29FE00E946F4A8093F50A6B
:1033C0008091F50A823409F44AC0843409F451C06A
:1033D000813419F7CC2309F38DE898E00E943B4033
:1033E00084E69BE00E94AA4368E174E084E69BE0E7
:1033F0000E94A54C68E873E180E090E00E94F247EB
:1034000084E69BE00E94AA4367E074E084E69BE0C8
:103410000E94A54C41E060E084E69BE00E94AF433F
:1034200066EF73E084E69BE00E94A54C42E060E01A
:1034300084E69BE00E94AF436DEE73E084E69BE080
:103440000E94A54C43E060E084E69BE00E94AF430D
:1034500065EE73E084E69BE00E94A54C16C0809167
:103460008F0C8D2780938F0C8DE898E00E9414417B
:1034700094CF8DE898E00E943B40C9CE8091F50A38
:103480008134B9F0823409F4C2CE86EF9AE00E940A
:10349000792C8093F50A8DE29FE00E94564A181617
:1034A000190664F78DE29FE00E946F4A8093F50A47
:1034B000E5CF84E69BE00E94AA4363ED73E084E6D7
:1034C0009BE00E94A54C8DE898E00E94024061E0DC
:1034D00086E00E94C0498DE898E00E94024040E0EA
:1034E00050E060E271E48DE898E00E94C73F60E739
:1034F00077E180E090E00E94F2478DE898E00E943A
:103500003B4084E69BE00E94AA436FEB73E084E6B5
:103510009BE00E94A54C41E060E084E69BE00E94B5
:10352000AF436DEA73E084E69BE00E94A54C42E065
:1035300060E084E69BE00E94AF436EE973E084E6BE
:103540009BE00E94A54C43E060E084E69BE00E9483
:10355000AF436BE873E084E69BE00E94A54C68E80B
:1035600073E180E090E00E94F24784E69BE00E94D5
:10357000AA436CE773E084E69BE00E94A54C41E01F
:1035800060E084E69BE00E94AF4365E773E084E679
:103590009BE00E94A54C42E060E084E69BE00E9434
:1035A000AF436FE673E084E69BE00E94A54C86EF94
:1035B0009AE00E94792C8093F50A8DE29FE00E94A8
:1035C000564A1816190634F48DE29FE00E946F4A9D
:1035D0008093F50A8091F50A813431F480EA9BE00A
:1035E0000E943F2480E001C081E09091F50A92346E
:1035F00009F40DCE8111DBCF0ACEBF92CF92DF92BC
:10360000EF92FF920F931F93CF93DF9300D000D0E0
:10361000CDB7DEB77C018B0184E69BE00E94AA4314
:10362000B70184E69BE049D841E060E084E69BE096
:103630000E94AF43B80184E69BE03FD843E060E0DE
:1036400084E69BE00E94AF436BE973E084E69BE075
:1036500034D842E060E084E69BE00E94AF43DD2482
:10366000D3948E010F5F1F4F78014EE2B42E86EF88
:103670009AE00E948C2C8093F50A8DE29FE00E94D4
:10368000564A1816190634F48DE29FE00E946F4ADC
:103690008093F50A6091F50A6134E9F044F46A32E6
:1036A000F1F16E32E1F1633209F04CC0E0CF6434E5
:1036B000F4F2643409F046C0C7010E94085320E0C8
:1036C00030E0A9010E94124F882309F449C0C701C4
:1036D0000E94085349C0E016F10608F041C0B80145
:1036E0006E197F09CC24CA94C60E42E06C2D84E684
:1036F0009BE00E94AF4360E284E69BE00E949C4412
:1037000042E06C2D84E69BE00E94AF43F801829179
:103710008F018E3209F0ABCFDD24D394A8CFC8013E
:103720008E199F0905970CF0A2CFDD2009F49FCFD9
:10373000F801B1928F016EE284E69BE00E949C4406
:10374000D12C95CFC8018E199F0905970CF08FCF0A
:10375000F80161938F0184E69BE00E949C4487CF2F
:1037600060E070E080E89FEB26960FB6F894DEBF2D
:103770000FBECDBFDF91CF911F910F91FF90EF90C2
:10378000DF90CF90BF900895CF92DF92EF92FF929B
:103790000F931F93CF93DF93CDB7DEB7CA55D109EF
:1037A0000FB6F894DEBF0FBECDBF84E69BE00E944B
:1037B000AA436BE573E084E69BE00E94A54C67E4B6
:1037C00073E08DE29FE00E94E54C60EA7FE080E0DC
:1037D00090E00E94F24784E69BE00E94AA4340E00A
:1037E00060E084E69BE00E94AF4362E373E084E61E
:1037F0009BE00E94A54C41E060E084E69BE00E94D3
:10380000AF436DE173E084E69BE00E94A54C43E08A
:1038100060E084E69BE00E94AF436FE073E084E6E3
:103820009BE00E94A54C63EE72E08DE29FE00E9457
:10383000E54C86EF9AE00E94792C182F8DE29FE0EC
:103840000E94564A181619062CF48DE29FE00E9439
:103850006F4A182F143419F0113459F75AC284E6FC
:103860009BE00E94AA4360ED72E084E69BE00E9428
:10387000A54C41E060E084E69BE00E94AF436AEA29
:1038800073E084E69BE00E945D1342E060E084E622
:103890009BE00E94AF436DEB73E084E69BE00E94E7
:1038A0005D1343E060E084E69BE00E94AF4362ED7D
:1038B00073E084E69BE00E945D1366E972E08DE2AE
:1038C0009FE00E94E54C63E872E08DE29FE00E9479
:1038D000E54C60EA7FE080E090E00E94F24784E6F9
:1038E0009BE00E94AA4366EE73E084E69BE00E94A0
:1038F0005D1362E070E08CED97E00E948E366B0104
:103900007C0141E067E084E69BE00E94AF4322E057
:1039100030E0B701A60184E69BE00E949B4E22E0C6
:1039200030E0B701A6018DE29FE00E949C4E68EE58
:1039300073E080E090E00E94F24720E030E849E048
:1039400054E4C701B6010E94124F87FF16C020E061
:1039500030E041EE53E4C701B6010E94B45018169E
:1039600064F443E060E084E69BE00E94AF4364EFD0
:1039700073E084E69BE00E945D1386EF9AE00E946C
:10398000792C182F8DE29FE00E94564A18161906CE
:103990002CF48DE29FE00E946F4A182F143421F01E
:1039A000113409F0A6CFB5C184E69BE00E94AA437A
:1039B00062E074E084E69BE00E945D1341E060E019
:1039C00084E69BE00E94AF4367E174E084E69BE0FD
:1039D0000E945D1342E060E084E69BE00E94AF43FA
:1039E0006CE274E084E69BE00E945D1343E060E0DB
:1039F00084E69BE00E94AF4369E374E084E69BE0C9
:103A00000E945D1365E372E08DE29FE00E94E54C49
:103A100060EA7FE080E090E00E94F2476B961FAE84
:103A20001EAE6B976B968EAD9FAD6B970A970CF0A1
:103A300052C084E69BE00E94AA436EE474E084E6F0
:103A40009BE00E945D136B966EAD7FAD6B976F5FD1
:103A50007F4F4AE050E084E69BE00E94A54D42E0A3
:103A600060E084E69BE00E94AF436BE574E084E68F
:103A70009BE00E945D1343E060E084E69BE00E94CF
:103A8000AF4368E674E084E69BE00E945D1364E067
:103A900072E08DE29FE00E94E54C86EF9AE00E9482
:103AA000792C182F8DE29FE00E94564A18161906AD
:103AB0002CF48DE29FE00E946F4A182F143409F411
:103AC00088C0133409F081C06B968EAD9FAD6B97A3
:103AD00002970CF41EC18E01075A1F4F9E01275DED
:103AE0003F4FAE014F5F5F4FBE016F5A7F4F8CED6E
:103AF00097E00E949A3665968CAD9DADAEADBFAD98
:103B000065978093750D9093760DA093770DB09384
:103B1000780D69968CAD9DADAEADBFAD69978093C4
:103B2000790D90937A0DA0937B0DB0937C0D84E674
:103B30009BE00E94AA436CE774E084E69BE00E944D
:103B40005D1341E060E084E69BE00E94AF4361E9E1
:103B500074E084E69BE00E945D134091750D5091E6
:103B6000760D6091770D7091780D26E030E084E657
:103B70009BE00E949B4E42E060E084E69BE00E9456
:103B8000AF4369E974E084E69BE00E945D134091D5
:103B9000790D50917A0D60917B0D70917C0D24E030
:103BA00030E084E69BE00E949B4E43E060E084E6C8
:103BB0009BE00E94AF4364EF73E084E69BE00E94C9
:103BC0005D1380EA9BE05BD69EC0113409F065CF9F
:103BD000A0C06B96EEACFFAC6B9762E070E08CED32
:103BE00097E00E948E36F701EE0FFF1FEE0FFF1FCA
:103BF00021E030E02C0F3D1FE20FF31F6083718343
:103C00008283938384E69BE00E94AA4360EA74E087
:103C10008DE29FE00E94F54C6B96EEADFFAD6B9789
:103C2000EE0FFF1FEE0FFF1F81E090E08C0F9D1F36
:103C3000E80FF91F408151816281738122E030E0F9
:103C40008DE29FE00E949C4E6B96EEADFFAD6B97B0
:103C5000EE0FFF1FEE0FFF1F21E030E02C0F3D1F86
:103C6000E20FF31F408151816281738122E030E0D5
:103C700084E69BE00E949B4E6CE47DE180E090E056
:103C80000E94F24784E69BE00E94AA436B96EEAC4A
:103C9000FFAC6B976EEA74E08EEB94E0AEDCF7015C
:103CA000EE0FFF1FEE0FFF1F21E030E02C0F3D1F36
:103CB000E20FF31F60A771A782A793A76B96EEACE4
:103CC000FFAC6B97F701EE0FFF1FEE0FFF1FE20F28
:103CD000F31F20E030E040E85FEB60A571A582A50E
:103CE00093A50E94124F811106C032E0E316F10441
:103CF0000CF0F1CE0EC08FEFE81AF80A6B96FFAE0B
:103D0000EEAE6B978FCE86EF9AE00E94792C8823D7
:103D1000D1F3C65ADF4F0FB6F894DEBF0FBECDBF4A
:103D2000DF91CF911F910F91FF90EF90DF90CF9097
:103D30000895CF93DF93EC0161E081E10E94C049D7
:103D40001B861A86DF91CF910895FC0173876287E5
:103D50000895CF92DF92EF92FF92CF93DF93EC0121
:103D60008A859B85892B09F443C0CC80DD80EE8059
:103D7000FF800E94C3476C157D058E059F05C0F12D
:103D80008885998580FD0BC00A972CF019861886C6
:103D90001B861A862DC080910201816003C080912C
:103DA00002018E7F809302010E94C34728853985D6
:103DB0004A855B85AAE0A49FF001A59FF00D112420
:103DC000E20FF31FEE0FFF1FED5BFD4FC080D180B0
:103DD000EE24D7FCE094FE2C6C0D7D1D8E1D9F1DE6
:103DE0006C837D838E839F832F5F3F4F3987288726
:103DF000DF91CF91FF90EF90DF90CF900895FC017D
:103E000011861086138612860895FC01CB018B5211
:103E10009E4F938B828B67527E4F758B648B558739
:103E2000448708952F923F924F925F926F927F92B4
:103E30008F929F92AF92BF92CF92DF92EF92FF92BA
:103E40000F931F93CF93DF93CDB7DEB7A2970FB633
:103E5000F894DEBF0FBECDBF7E8B6D8B342E252E2A
:103E60002F8F38A3F8010190F081E02DF88FEF8BB0
:103E70002D833E8349835A831AA219A21B8E1C8E5E
:103E80001D8E1E8E198A1A8A1B8A1C8A1D861E8602
:103E90001F86188A19861A861B861C86412C512C6F
:103EA000320189A19AA1EF89F88D8E179F070CF036
:103EB00061C0E981FA8181909190A190B190FA83DB
:103EC000E983A5019401C301B2010E94AE4E2B010A
:103ED0003C01ED81FE81C190D190E190F190FE8393
:103EE000ED83A701960169857A858B859C850E9463
:103EF000AE4E69877A878B879C87A7019601C5019B
:103F0000B4010E94B8509B01AC016D857E858F8500
:103F100098890E94AE4E6D877E878F87988BA5010A
:103F20009401C501B4010E94B8509B01AC0169899C
:103F30007A898B899C890E94AE4E698B7A8B8B8B98
:103F40009C8BA7019601C701B6010E94B8509B0146
:103F5000AC016B8D7C8D8D8D9E8D0E94AE4E6B8FD6
:103F60007C8F8D8F9E8F29A13AA12F5F3F4F3AA35F
:103F700029A397CFBF01882777FD8095982F0E94AE
:103F8000B14F6B017C0129853A854B855C85C30166
:103F9000B2010E94B850A70196010E94164F9B01E2
:103FA000AC016D857E858F8598890E94AD4E6983B1
:103FB0007A838B839C83A3019201C301B2010E9487
:103FC000B850A70196010E94164F9B01AC01698968
:103FD0007A898B899C890E94AD4E6D837E838F8305
:103FE00098879B01AC0169817A818B819C810E94B9
:103FF000164F4B015C01ED89FE89608371838283DA
:104000009383A701960169857A858B859C850E949B
:10401000164F6F8B788F898F9A8FA7019601C301F6
:10402000B2010E94164F9B01AC01C501B4010E9470
:10403000B8509B01AC016F89788D898D9A8D0E9453
:10404000AD4EED89FE8964837583868397836DEC1D
:1040500074E08DE29FE00E94F54CEF8CF8A0C32C39
:10406000D22CA12CB12CF80180819181A816B9061F
:1040700014F5F60141915191619171916F0122E026
:1040800030E08DE29FE00E949B4E65E573E08DE29B
:104090009FE00E94CA4CF701419151916191719149
:1040A0007F0122E030E08DE29FE00E949C4EFFEF16
:1040B000AF1ABF0AD8CF8DE29FE00E94D34C69EDC2
:1040C00074E08DE29FE00E94CA4C22E030E0B30130
:1040D000A2018DE29FE00E949C4E60EE74E08DE2B2
:1040E0009FE00E94CA4C22E030E049855A856B85EA
:1040F0007C858DE29FE00E949C4E67EE74E08DE22D
:104100009FE00E94CA4C22E030E04D855E856F85BD
:1041100078898DE29FE00E949C4E6FEE74E08DE204
:104120009FE00E94CA4C22E030E049895A896B899D
:104130007C898DE29FE00E949C4E67EF74E08DE2E7
:104140009FE00E94CA4C22E030E04B8D5C8D6D8D6B
:104150007E8D8DE29FE00E949C4E8DE29FE00E944A
:10416000D34C6FEF74E08DE29FE00E94CA4C22E0D6
:1041700030E049815A816B817C818DE29FE00E9411
:104180009C4E65E075E08DE29FE00E94CA4C22E003
:1041900030E04D815E816F8178858DE29FE00E94E5
:1041A0009C4E6FE673E08DE29FE00E94CA4CED8961
:1041B000FE89408151816281738126E030E08DE289
:1041C0009FE00E949C4E6FE873E08DE29FE00E94AA
:1041D000CA4CED89FE89448155816681778126E04C
:1041E00030E08DE29FE0A2960FB6F894DEBF0FBEDE
:1041F000CDBFDF91CF911F910F91FF90EF90DF9096
:10420000CF90BF90AF909F908F907F906F905F9076
:104210004F903F902F900C949C4E0F931F93CF93F1
:10422000DF93EC016C857D8544E050E084E69EE000
:104230000E944B4500E010E084E69EE00E94A1440D
:10424000892B59F084E69EE00E94A944FE01E00F0C
:10425000F11F80870F5F1F4FEFCF84E69EE00E9423
:104260006A45688579858A859B856C837D838E8385
:104270009F83DF91CF911F910F910895CF92DF928D
:10428000EF92FF92CF93DF93EC01EA89FB89C08024
:10429000D180E280F380C1DF9B01AC01C701B60190
:1042A0000E94B850EC89FD8920813181428153817F
:1042B0000E94AE4E688379838A839B83DF91CF917E
:1042C000FF90EF90DF90CF9008950F931F93CF93BF
:1042D000DF93EC012FEF3FEFFC0121933193CF01EE
:1042E0006BE075E00E94125340E050E864E074E433
:1042F0004E8B5F8B688F798F47ED53EA60EB7FE3DE
:104300004A8F5B8F6C8F7D8F4DEC5CEC6CE47DE3B2
:104310004E8F5F8F68A379A340E050E060EA70E4BD
:104320004AA35BA36CA37DA300E010E020EF31E47F
:104330000EA31FA328A739A700E010E020E732E46E
:104340000AA71BA72CA73DA700E010E020E231E45C
:104350000AAB1BAB2CAB3DAB00E010E020E83FE329
:104360000EA71FA728AB39AB1EAA1FAA18AE19AEFD
:1043700000E010E020E731E40AAF1BAF2CAF3DAF07
:10438000FE01FE964083518362837383349684E6F4
:1043900090E091838083329640E050E060E071E4E9
:1043A0004083518362837383349640E050E864E82D
:1043B00073E44083518362837383349640835183D3
:1043C000628373833496408351836283738334960C
:1043D0004083518362837383349640E050E064E30A
:1043E00073E44083518362837383349640E050E8E2
:1043F0006EE873E44083518362837383C05ADF4F56
:104400004FE050E060E070E0488359836A837B832B
:10441000DF91CF911F910F9108952F923F924F926C
:104420005F926F927F928F929F92AF92BF92CF9244
:10443000DF92EF92FF920F931F93CF93DF931F9220
:104440001F92CDB7DEB7FC01E753FF4F10823196C4
:1044500022E030E031832083329640E050E060E893
:104460007FE34083518362837383349624E630E094
:1044700031832083329620E436E0318320833296E4
:104480002BE430E031832083329620ED422E27E06A
:10449000522E5182408232962AE530E031832083C9
:1044A000329631E0308331962FE530E0318320833E
:1044B00032962EE630E031832083329620EA30E0D7
:1044C00031832083349638EE632E33E0732E71826D
:1044D0006082329620E137E231832083329628ECE5
:1044E00030E031832083329620E530E03183208331
:1044F000329611821082329620E130E0318320839F
:1045000032961082319641E04083319640E050E08F
:1045100060E470E440835183628373833496A1E046
:10452000B0E0B183A083329631832083329610822B
:104530003196108231964FE852E460E972E440838C
:10454000518362837383349640E050E068E473E4FF
:104550004083518362837383349610821182128266
:104560001382349642E050E0518340833296318387
:1045700020833296108231961082319640E050E0CE
:104580006CE073E44083518362837383349640E02C
:1045900050E060EF71E4408351836283738334960B
:1045A00040E050E066E972E44083518362837383A4
:1045B000349642E558EB62E271E4408351836283B2
:1045C0007383B89627E030E031832083729710829E
:1045D00011821282138234970AE919E929E13EE334
:1045E000008311832283338334974AE959E969E5CB
:1045F00070E440835183628373833897C12CD12C3C
:10460000A8ECEA2EA2E4FA2EC082D182E282F382E2
:10461000349610821182128213827896BEE62B2E77
:10462000BFE03B2E318220823297A4E1B0E0B1831B
:10463000A0833696118210823C97A0EA8A2EA6E8C3
:104640009A2EAA24A394B12C80829182A282B38252
:104650003A9671826082B09751824082B8961082F9
:104660001182128213823496108231961082B5968E
:10467000A4E0B0E0B183A08372971082118212820D
:1046800013823497008311832283338334974083CA
:104690005183628373833897C082D182E282F3822E
:1046A000349610821182128213827896318220828F
:1046B0003297A4E1B0E0B183A0833696A1E0B0E0E8
:1046C000B183A0833C9780829182A282B3823A9682
:1046D00071826082B09751824082B89610821182B6
:1046E000128213823496108231961082B596A5E01C
:1046F000B0E0B183A083729710821182128213827C
:10470000349700831183228333833497408351830A
:10471000628373833897C12CD12CBFE7EB2EB3E4AF
:10472000FB2EC082D182E282F38234961082118203
:10473000128213827896318220823297A4E1B0E00F
:10474000B183A0833696A2E0B0E0B183A0833C970A
:1047500080829182A282B3823A9671826082B097FF
:1047600051824082B896108211821282138234964E
:10477000B1E0B08331961082DC01A553BE4FE3E077
:10478000F0E01196FC93EE9352971D921D921D92AC
:104790001C92139714970D931D932D933C9313978D
:1047A00014974D935D936D937C9313971897CD92C7
:1047B000DD92ED92FC92139714961D921D921D921C
:1047C0001C921397589611963C922E92129724E1C0
:1047D00030E011963C932E931696ED93FC93FC01DA
:1047E000E354FE4F80829182A282B3823A96718214
:1047F0006082B09751824082B896108211821282F4
:104800001382349631E0308331961082319646EC33
:1048100054E464E17AE34083518362837383349682
:1048200049EA54EA66EC7FE34083518362837383F1
:10483000349640E050E06CE873E440835183628337
:104840007383349642E050E060E070E0408351832F
:10485000628373830F900F90DF91CF911F910F911F
:10486000FF90EF90DF90CF90BF90AF909F908F9090
:104870007F906F905F904F903F902F9008950F938F
:104880001F93CF93DF93EC016DE278E18DE29FE01F
:104890000E94E54CC853DF4F81E0888360E070E000
:1048A00049918B010F5F1F4F83E69EE00E940F43EB
:1048B0000D3181E0180711F0B801F2CFDF91CF91EF
:1048C0001F910F9108950F931F93CF93DF938C0146
:1048D00008531F4FC0E0D0E0BE0183E69EE00E9477
:1048E0000C43F80181938F012196CD31F1E0DF0770
:1048F00099F7DF91CF911F910F910895EF92FF9259
:104900000F931F93CF93DF93FC014081518164E6A5
:10491000649F9001659F300D1124B901635E7E4F45
:10492000EC017901FFE7EF1AFEEFFF0A49918B01D5
:104930000F5F1F4F83E69EE00E940F430E151F0579
:1049400011F0B801F3CFDF91CF911F910F91FF903C
:10495000EF900895EF92FF920F931F93CF93DF9301
:104960007C018B01C0E0D0E0BE016E0D7F1D83E6AF
:104970009EE00E940C43F80181938F012196C4367A
:10498000D10591F784E690E0DF91CF911F910F91CF
:10499000FF90EF90089544E6469F9001479F300DA9
:1049A0001124BC01C901835E9E4FD4CF08950F939B
:1049B0001F93CF93DF93EC018B01BC016C597F4FA8
:1049C00024E6249FC001259F900D1124835E9E4FF5
:1049D000C1DFBE016A597F4FC801DF91CF911F919E
:1049E0000F910C941253EF92FF920F931F93CF935A
:1049F000DF937C018C010B511E4FC0E0D0E0AE0173
:104A0000B801C701D4DF21960C5E1F4FCA30D10513
:104A1000B1F7DF91CF911F910F91FF90EF90089523
:104A2000CF93DF93EC01DFDFCE01DF91CF914BCF4E
:104A3000FC01778366836130710581F01CF4672B7C
:104A400041F008956230710549F06330710531F02D
:104A5000089584E090E0918380830895718360835A
:104A600008954F925F926F927F928F929F92AF9232
:104A7000BF92CF92DF92EF92FF920F931F93CF934B
:104A8000DF93CDB7DEB72E970FB6F894DEBF0FBE1B
:104A9000CDBFFC01CB01BA0162837383848395830C
:104AA000E080F18022E0E216F10409F083C02EE0FC
:104AB000E0EDF2E0DE01119601900D922A95E1F70A
:104AC0009B01AC010E94AE4E2B013C01CE01019630
:104AD0007C015E019FE0A90EB11CF701C190D1904D
:104AE0007F01B601882777FD8095982F0E94B14FEE
:104AF0009B01AC01C301B2010E94B8509B01AC0103
:104B000060E074E284E79BE40E94164F20E030E00E
:104B10004FE753E40E94124F87FD04C0EA14FB04E0
:104B2000E1F601C0860100341105E9F05CF40830BB
:104B30001105A9F000321105A1F001301105C9F4E9
:104B400081E018C00115F1E01F0779F0011524E09C
:104B5000120769F00038110561F485E00BC082E0AE
:104B600009C083E007C084E005C086E003C087E099
:104B700001C080E093E49093B00088608093B1001E
:104B8000B801882777FD8095982F0E94B14F9B012F
:104B9000AC01C301B2010E94B8509B01AC0160E0BE
:104BA00074E284E79BE40E94164F0E94834F609357
:104BB000B300D0C02AE0EEEDF2E0DE0111960190E4
:104BC0000D922A95E1F79B01AC010E94AE4E2B019C
:104BD0003C01CE0101966C014E019BE0890E911CB7
:104BE000F601A190B1906F01B501882777FD8095FE
:104BF000982F0E94B14F9B01AC01C301B2010E94EA
:104C0000B8509B01AC0160E074E284E79BE40E9431
:104C1000164F20E03FEF4FE757E40E94124F87FD09
:104C200004C0C814D904E1F601C08501003411059F
:104C3000A1F03CF40130110571F008301105A9F024
:104C400010C00115F1E01F0751F0011524E0120713
:104C500041F485E00DC081E00BC083E009C084E031
:104C600007C017FD04C080E003C082E001C087E0F8
:104C700093E0E916F10459F1E4E0EE16F10409F4C9
:104C800048C0EA94EF2809F065C093E4909380004F
:104C9000886180938100B801882777FD8095982FDF
:104CA0000E94B14F9B01AC01C301B2010E94B850F8
:104CB0009B01AC0160E074E284E79BE40E94164F24
:104CC0000E947E4F709389006093880043C093E4F4
:104CD00090939000886180939100B801882777FDB8
:104CE0008095982F0E94B14F9B01AC01C301B20186
:104CF0000E94B8509B01AC0160E074E284E79BE441
:104D00000E94164F0E947E4F709399006093980006
:104D100021C093E49093A00088618093A100B80122
:104D2000882777FD8095982F0E94B14F9B01AC0199
:104D3000C301B2010E94B8509B01AC0160E074E273
:104D400084E79BE40E94164F0E947E4F7093A90057
:104D50006093A8002E960FB6F894DEBF0FBECDBFAD
:104D6000DF91CF911F910F91FF90EF90DF90CF9047
:104D7000BF90AF909F908F907F906F905F904F907B
:104D800008954F925F926F927F928F929F92AF920F
:104D9000BF92CF92DF92EF92FF920F931F93CF9328
:104DA000DF934C01EB01A8A0B9A0CE8CDF8CEC8C7A
:104DB000FD8C0A8D1B8D2E893F89488D598D6AA1E6
:104DC0007BA10E94534134018EE2680E711CAE84B7
:104DD000BF84C888D988EA84FB840C851D859E0120
:104DE000285D3F4F2401E9E64E0E511C1F921F9291
:104DF0008D898F938C898F938B898F938A898F93D9
:104E0000A201B401C3010E944D3BF401E959FF4FD7
:104E1000D183C08336969182808268817981C30173
:104E20000E94F239CA88DB88EC88FD880E851F85D0
:104E3000288939894A855B856C857D85C3010E94F7
:104E40003F390A811B812C813D814E815F816885BC
:104E50007985C3010E94403A60E070E0C3010E947E
:104E6000FC3AF20110821182128213827E01F4E276
:104E7000EF0EF11C840101591F4FF801F182E0820D
:104E8000CE018D963696918380830F900F900F9070
:104E90000F900F900F90009741F0349707979183F0
:104EA000808361E08EA10E94C049F801F182E08216
:104EB00061E08CA10E94C049F401ED58FF4FCE0182
:104EC0008C969183808334968A97918380833296DF
:104ED0002696D183C083DF91CF911F910F91FF90D0
:104EE000EF90DF90CF90BF90AF909F908F907F908A
:104EF0006F905F904F9008954F925F926F927F9264
:104F00008F929F92AF92BF92CF92DF92EF92FF92D9
:104F10000F931F93CF93DF93EC010E94C3478E0141
:104F200005581F4FD8016D937D938D939C931397D4
:104F3000CE010E949842F8014081518162817381C3
:104F40005E01F7E6AF0EB11CD501ED91FC918081B9
:104F50009181AA2797FDA095BA2F7E01E3E8EE0E76
:104F6000F11CF7014080518062807380840D951D93
:104F7000A61DB71D9E012D583F4F690148175907BF
:104F80006A077B0708F4FEC0408351836283738302
:104F90007697D183C083CE018E960E941F38D601AA
:104FA000ED91FC918081FE01E759FF4F4F01811186
:104FB00037C040805180628073804E01FFE78F0EC2
:104FC000911CD501ED91FC9160817181882777FD5D
:104FD0008095982F0E94B14FA30192010E94B85072
:104FE00020E030E048EC52E40E94164F0E94834FCC
:104FF000F401608371838283938320E030E040E892
:105000005FE3C301B2010E94B45018160CF0BAC09D
:10501000FE01E159FF4F0190F081E02D61E02DC0CC
:10502000FE01EB58FF4F0190F081E02D8081882335
:1050300009F498C0D4014D905D906D907C9020E073
:1050400030E040E85FE3C301B2010E94B45087FD45
:1050500018C0C301B2010E947E4FFE01E159FF4F0B
:105060000190F081E02D80810E94A848FE01EF5858
:10507000FF4F0190F081E02D60E080810E94F949AE
:1050800081C020E030E040E85FEBC301B2010E9444
:10509000124F1816C4F13E01B7E86B0E711CF301F4
:1050A00080819E012F583F4F5901882381F0D901FB
:1050B000ED91FC9162E370E080810E94A848F301C9
:1050C000108264E670E080E090E00E94F247FE010A
:1050D000E159FF4F0190F081E02D60E070E08081A8
:1050E0000E94A848D4012D913D914D915C9160E0C2
:1050F00070E080E291E40E94AD4E0E947E4FD501A7
:10510000ED91FC913CC020E030E040E85FE3C3015A
:10511000B2010E94124F87FF35C020E030E040E826
:105120005FEBC301B2010E94B45018165CF5FE019A
:10513000E159FF4F0190F081E02D60E070E0808147
:105140000E94A848FE01EF58FF4F0190F081E02D2A
:1051500060E080810E94F94981E0FE01E957FF4F3C
:10516000808310C0F40160817181828193810E94EB
:105170007E4FFE01E159FF4F0190F081E02D8081CB
:105180000E94A848D601ED91FC91808181113CC01C
:105190006E01BFE6CB0ED11CD601ED91FC91808152
:1051A0000E942E4A892B81F1C158DF4F8881998155
:1051B000AA81BB81F7014081518162817381840F93
:1051C000951FA61FB71FF80140815181628173812D
:1051D000481759076A077B07B8F0D601ED91FC9193
:1051E00060E08081DF91CF911F910F91FF90EF9050
:1051F000DF90CF90BF90AF909F908F907F906F90F7
:105200005F904F900C94F949DF91CF911F910F91CE
:10521000FF90EF90DF90CF90BF90AF909F908F90D6
:105220007F906F905F904F900895AF92BF92CF9212
:10523000DF92EF92FF920F931F93CF93DF93EC01D6
:105240005A016B018C01025D1F4FC8010E94B83BDF
:10525000019729F460E070E0C8010E94FC3AFE0169
:10526000E758FF4F0190F081E02DE080F18002814E
:1052700013819701A801B501C6010E94124F87FD55
:1052800002C075018601FE01E958FF4F0190F081CF
:10529000E02DA080B180C280D3809501A601B70126
:1052A000C8010E94B450181614F057016801C7597C
:1052B000DF4FC501D60188839983AA83BB83DF9121
:1052C000CF911F910F91FF90EF90DF90CF90BF9003
:1052D000AF900895CF93DF93EC0160E070E08E967D
:1052E0000E94FC3AFE01E759FF4F108211821282A0
:1052F000138236960190F081E02D60E080810E945B
:10530000F949FE01EB58FF4F80819181892B51F0C3
:10531000CF58DF4FE881F98160E08081DF91CF9144
:105320000C94F949DF91CF9108958E960C94FC3A34
:10533000FC0160817181828193810895FC0110825A
:105340001482138215820895862F642F0C94C0490D
:10535000862F642F0C94F949862F0C942E4A4F9275
:105360005F926F927F928F929F92AF92BF92CF92F5
:10537000DF92EF920F93CF93DF93EC014B013A0151
:1053800059010296DBDF8AE195E0998388836E01FB
:105390008CE1C80ED11C26018CE3480E511CC601BD
:1053A000CDDF86E0C80ED11CC414D504C1F7FE01C0
:1053B000EE59FF4F718260823296B182A08232969E
:1053C00000833196E08237979182808238968AE016
:1053D00090E091838083329684EF91E09183808383
:1053E000329611821082C45ADF4F188219821A82B3
:1053F0001B82DF91CF910F91EF90DF90CF90BF9004
:10540000AF909F908F907F906F905F904F90089596
:105410002F923F924F925F926F927F928F929F92C4
:10542000AF92BF92CF92DF92EF92FF920F931F93B2
:10543000CF93DF93CDB7DEB728970FB6F894DEBFD2
:105440000FBECDBF98878F83F12C4C0186E6880E66
:10545000911C0F8118850E591F4FD4018C91F8169D
:10546000A0F4AF81B8858D919C91F801A081B181A4
:10547000AF0DB11DFC012081318142E06C918F8123
:105480009885F9011995F394E8CF512CEF81F885AF
:10549000E959FF4FFA83E9830F8118850C591F4F93
:1054A000C12CD12C7601C3948F8198858E599F4F42
:1054B0009C838B83A981BA818C91581608F088C08F
:1054C000A52CB12CAF81B8858D919C91F801A0815C
:1054D000B181AA0DBB1DFC012081318141E06C919D
:1054E0008F819885F9011995AF81B8858D919C912F
:1054F000F801A081B181AA0DBB1DFC01228133817D
:1055000040E06C918F819885F9011995D701C6010A
:10551000052C04C0880F991FAA1FBB1F0A94D2F73D
:105520009C011C0120943094412CD4018C91EF817A
:10553000F88540815181481648F5642C712CEB8127
:10554000FC81A081B181A60DB71DFA01448155816E
:105550006C918F8198852D833E83FA011995660C95
:10556000771C2D813E81EF81F885E60DF71D892B93
:1055700029F480859185822B932B04C080859185A9
:1055800082219321918780874394CFCFF801A08116
:10559000B181AA0DBB1DFA012281338141E06C91DA
:1055A0008F819885F9011995AF81B8858D919C916E
:1055B000F801A081B181AA0DBB1DFC0120813181C0
:1055C00040E06C918F819885F9011995539472CFC1
:1055D00028960FB6F894DEBF0FBECDBFDF91CF91F6
:1055E0001F910F91FF90EF90DF90CF90BF90AF9001
:1055F0009F908F907F906F905F904F903F902F90F3
:105600000895FC0180E090E0258D368D2617370740
:1056100039F0019636968A309105B1F78FEF9FEFFA
:105620000895FC0126E0629FE00DF11D112450A3B6
:10563000478F21E021A3FC01E459FF4F0190F08145
:10564000E02D309721F0DC015C968C91199408953F
:10565000CF92DF92FF920F931F93CF93DF931F920E
:10566000CDB7DEB76C01F62EFC0186E0689FE00D39
:10567000F11D112411A2878D90A181309105E9F0CF
:105680001CF4892B51F044C08230910591F10397AD
:1056900009F03EC040E050E030C04423C9F141E091
:1056A00050E0C601BEDF0E94C347F601E85AFF4F33
:1056B00060837183828393832BC049830E94C34795
:1056C000F601E85AFF4F0081118122813381601B6E
:1056D000710B820B930B72960081118120E030E0F8
:1056E0004981061717072807390718F442E050E0E8
:1056F00004C041110DC043E050E06F2DC6010F9072
:10570000DF91CF911F910F91FF90DF90CF9089CFC4
:105710000F90DF91CF911F910F91FF90DF90CF906D
:1057200008952F923F924F925F926F927F928F9245
:105730009F92AF92BF92CF92DF92EF92FF920F9320
:105740001F93CF93DF931F92CDB7DEB71C01FC01EF
:105750004AE08FEF9FEF278D30A1232B21F4148E89
:10576000968F858F11A2415036964111F4CF712C3E
:10577000610126E6C20ED11C510187E6A80EB11CBC
:105780004101A0E68A0E911C46E0442ED6018C9180
:10579000781608F053C0612C8101070D111D070D0B
:1057A000111D085F1F4FF501E0806E1408F044C022
:1057B000F80140815181062C02C0569547950A9404
:1057C000E2F741707E9C70011124E60CF11CD401BB
:1057D000ED91FC91EE0DFF1D5080B701C101498391
:1057E00010DF498197FD02C0682F1BC0019611F59B
:1057F000442301F180E090E060E070E0F101E80F07
:10580000F91F248D211110C0469EF001479EF00D16
:105810001124E20DF31D548EF68EE58E10A2178E24
:1058200041E0C10115DF06C06F5F7F4F06966A3009
:10583000710521F76394B7CF7394A8CF20E030E0CF
:1058400080E0F101E20FF31F91A1911181E02A5F45
:105850003F4F2C333105A9F70F90DF91CF911F9166
:105860000F91FF90EF90DF90CF90BF90AF909F90FF
:105870008F907F906F905F904F903F902F90089502
:10588000CF92DF92EF92FF920F931F93CF93DF930C
:105890008C010E94C347E801C45ADF4FC880D980F9
:1058A000EA80FB806C197D098E099F09F801E8598F
:1058B000FF4FC080D180E12CF12CC616D706E80638
:1058C000F90660F4C801A4DDC8012BDF182F0E947F
:1058D000C347688379838A839B8301C010E0812F4B
:1058E000DF91CF911F910F91FF90EF90DF90CF90BC
:1058F0000895CF93DF93EC01C3DF882339F089A1AA
:10590000882321F08F8D98A1019711F080E001C0CC
:105910008C8DDF91CF910895CF93DF93EC01CE0171
:10592000E8DF8823E1F3DF91CF9108950F931F9370
:10593000FC01DC01A05ABF4F1C9251834083758348
:105940006483358F248F178F068F158A148A81E020
:1059500090E097838683978B868B9787868793873C
:1059600082871F910F910895FC01CB010196208140
:105970003181821793071CF08FEF9FEF0895A48168
:10598000B5812EE0269FA001279F500D11249D0177
:10599000240F351F2E5F3F4FF90165917491FD0172
:1059A000E40FF51F7096259134916217730721F764
:1059B000089516161706E4F4FC01448155818EE023
:1059C000869F9001879F300D1124CA01820F931F7B
:1059D0000296FC01A591B491FA01E20FF31F3C97E6
:1059E00085919491A817B90719F4CB0101970895EF
:1059F0008FEF9FEF08954EE0469F9001479F300D37
:105A00001124DC011496ED91FC911597E20FF31F20
:105A100032968591949108954EE0469F9001479F5C
:105A2000300D1124DC011496ED91FC911597E20FD5
:105A3000F31F3496859194910895CF93DF93EB01F2
:105A40006EE0649F9001659F300D1124DC01149677
:105A5000ED91FC911597E20FF31F65917491CE01C2
:105A60000E940B53CE01DF91CF910895CF93DF9326
:105A7000EC016C857D857D8B6C8B88899989681795
:105A8000790719F4CE01C8DF02C0CE016DDF9F8B0C
:105A90008E8B6E897F89CE0167DF998F888FBC01DD
:105AA000CE0162DF9B8F8A8FDF91CF9108954EE008
:105AB000469F9001479F300D1124DC011496ED9113
:105AC000FC911597E20FF31F3A96859194910895F2
:105AD0004EE0469F9001479F300D1124DC01149643
