:100000000C94650D0C94960D0C94960D0C94960D15
:100010000C94960D0C94960D0C94960D0C94960DD4
:100020000C94960D0C94960D0C94960D0C94960DC4
:100030000C94960D0C94960D0C94960D0C94960DB4
:100040000C94960D0C94960D0C94960D0C94960DA4
:100050000C94960D0C94960D0C94960D0C945D4298
:100060000C94960D0C94A9460C94DF460C94960DB6
:100070000C94960D0C94960D0C94960D0C94960D74
:100080000C94960D0C94960D0C94960D0C94960D64
:100090000C94960D0C94960D0C94960D0C942F4187
:1000A0000C94960D0C94960D0C94960D0C94960D44
:1000B0000C94960D0C94960D0C94960D0C94960D34
:1000C0000C94960D0C94960D0C94960D0C94960D24
:1000D0000C94960D0C94960D0C94960D0C94960D14
:1000E0000C94960D2B2B382B382BFF2AFF2A082B2C
:1000F000082B172B172B222B222B222B222B2B2BBF
:100100002B2B602D672D672DD22BD22BDF2BDF2BD6
:10011000E92BE92B5B2C5B2C5B2C5B2C602D602D81
:100120006C3171316C3171316C3171316C317131D3
:100130006C3171316C3171316F31B043B543BA43B9
:10014000C443CE434744D843E043E843F243FC432F
:10015000064415441F444744294433443D446944FC
:100160006C445B445F446544A344704474447A44E3
:100170007E44824488448C449044A34496449A44E8
:100180009E4407634236B79BD8A71A39685618AE03
:10019000BAAB558C1D3CB7CC5763BD6DEDFD753EBC
:1001A000F6177231BF000000803F08000000BE92C9
:1001B0002449123EABAAAA2ABECDCCCC4C3E0000AC
:1001C0000080BEABAAAAAA3E00000000BF0000004B
:1001D000803F0000000000084178D3BB4387D11363
:1001E0003D190E3CC3BD4282AD2B3E68EC8276BE0B
:1001F000D98FE1A93E4C80EFFFBE01C4FF7F3F00D5
:10020000000000004229204E6F00412920596573EB
:1002100000536176652053657474696E67733F009F
:10022000696E207468652073706F6F6C6572206DE5
:10023000656E75007468652073706F6F6C2044691B
:100240006D656E73696F6E7300446F6E2774206600
:100250006F7267657420746F207365742000422983
:1002600020457869740041292053746F70007072C2
:100270006573732053746F70206174203120726530
:10028000762E004229204578697400412920426574
:1002900067696E0070726573732053746F702061AC
:1002A000742031207265762E00506C616365207277
:1002B0006F6C6C6572206F6E204469736B00526FB7
:1002C0006C6C65722F4469736B2054657374006D98
:1002D0006963726F737465702073657474696E6797
:1002E000730074686520776972696E6720616E6457
:1002F000006D616B652031207265762C2063686526
:10030000636B0049662073706F6F6C65722064695F
:10031000646E277400526F746174696E67203120B7
:100320007265762E2E2E0042292045786974004190
:100330002920426567696E00417474656D70746947
:100340006E67203120726576004D61726B20746893
:100350006520526F6C6C65722E20004D6963726F60
:1003600073746570696E6720546573740044292046
:1003700045786974004229204E6F00412920596553
:10038000730073706F6F6C657220646972204F4BDD
:100390003F004229204E6F004129205965730043D8
:1003A0006F6E74696E75653F0073706F6F6C657208
:1003B00020446972656374696F6E2E2E2E00442985
:1003C0002045584954004329205768656E204469E8
:1003D0007361626C656400412920456E61626C65E1
:1003E0002F44697361626C65004229204E6F0041A1
:1003F000292059657300436F6E74696E75653F00FF
:10040000666F6C6C6F77696E672074657374732E9A
:1004100000746F20706572666F726D20746865007D
:100420006D757374206265206672656520746F2037
:100430006D6F7665005741524E494E473A205468D9
:10044000652053706F6F6C6572004229204E6F00FB
:100450004129205965730053617665205365747492
:10046000696E67733F006D6963726F7374657020A6
:1004700073657474696E6773007468652077697258
:10048000696E6720616E64006D616B65203120725A
:1004900065762C20636865636B0049662074686527
:1004A000206175676572206469646E277400526FFD
:1004B000746174696E672031207265762E2E2E006D
:1004C0004229204578697400412920426567696E98
:1004D00000417474656D7074696E672031207265B7
:1004E00076004D61726B2074686520736861667474
:1004F0002E20004D6963726F73746570696E67209A
:100500005465737400442920457869740042292099
:100510004E6F00412920596573004175676572204F
:10052000646972656374696F6E204F4B3F004229A6
:10053000204E6F0041292059657300436F6E746926
:100540006E75653F00417567657220446972656329
:1005500074696F6E205465737400442920455849AE
:1005600054004329205768656E2044697361626CAA
:10057000656400412920456E61626C652F44697392
:1005800061626C65004229204E6F00412920596547
:100590007300436F6E74696E75653F00666F6C6CB7
:1005A0006F77696E672074657374732E00746F20A3
:1005B000706572666F726D20746865006D75737416
:1005C000206265206672656520746F206D6F7665A8
:1005D000005741524E494E473A20546865204175B4
:1005E000676572004229204E6F00412920596573CA
:1005F0000053746F7020457874727564696E673F3C
:1006000000526573657474696E6720454550524F9A
:100610004D2E2E2E00526573657474696E672074BA
:10062000686520454550524F4D2E2E2E0042292000
:100630004E6F0041292059657300576F756C642017
:10064000796F75206C696B6520746F2070726F63B1
:100650006565643F007468652064656661756C74E7
:100660002073657474696E67730073746F72656468
:100670002070726F66696C657320776974680077A3
:10068000696C6C206F766572777269746520616C35
:100690006C20005741524E494E473A2054686973C6
:1006A00020616374696F6E005741524E494E473A5C
:1006B000205468697320616374696F6E2077696C78
:1006C0006C206F766572776972746520616C6C203E
:1006D00073746F7265642070726F66696C657320E5
:1006E00077697468207468652064656661756C74E8
:1006F0002053657474696E67732E0050726F66695B
:100700006C6520536176656400536176696E67207D
:1007100070726F66696C652E2E2E00536176696E5D
:10072000672053657474696E677320666F722070FA
:10073000726F66696C65206E756D6265723A200035
:10074000436F6E66696775726174696F6E2053617D
:1007500076656400536176696E672E2E2E004669B9
:100760006E697368656420536F616B696E670054CE
:10077000696D652873292C20446961286D6D292CC9
:10078000206F75746665656452504D2C20737461DA
:1007900072766546656564657252504D2C20206105
:1007A0007567657252504D2C204D6F64652C206F1B
:1007B0007574666565644B702C206F75746665652D
:1007C000644B692C206F7574666565644B642C20DE
:1007D0006665656452617465286D2F6D696E292C9C
:1007E000206D657465727345787472756465640014
:1007F000EA12FFFF0100000000000000F216E11203
:100800000000FFFF330200000F0000004C17000043
:10081000FFFF7F0A02000A004911D2120000FFFF09
:100820003F0A00000700000032150000FFFF590AD0
:1008300001000D00000026150000FFFF550A010011
:100840000D0000001A150000FFFF510A01000D0005
:100850000000FB160000FFFFA50A00000C00D90DE8
:10086000EB160000FFFFA90A00000C00EA0DDB16E2
:100870000000FFFFAD0A00000C00FB0D4217000056
:10088000FFFF830A01000A008B0E36170000FFFFEE
:10089000870A01000C00970EF9120000FFFF3702D3
:1008A00000000F00171180160000FFFF2B02000050
:1008B0000F00E71271170000FFFF5F0A00000E0033
:1008C000000068170000FFFF730A02000C00000020
:1008D00056170000FFFF7B0A02000A0000002B17DA
:1008E0000000FFFF8F0A02000C00551120170000C6
:1008F000FFFF8B0A02000C00551115170000FFFFC7
:10090000930A02000C0055110B170000FFFFA10A0B
:1009100000000C0000002F13FFFF0100000000008A
:100920000000F51620130000FFFF470A00000F002B
:10093000000010130000FFFF000000000300360E4F
:1009400007130000FFFF000000000300C40DF912B0
:100950000000FFFF370200000F00171132150000E2
:10096000FFFF590A01000D00000026150000FFFFDF
:10097000550A01000D0000001A150000FFFF510A82
:1009800001000D000000FB160000FFFFA50A00009B
:100990000C00D90DEB160000FFFFA90A00000C00A7
:1009A000EA0DDB160000FFFFAD0A00000C00FB0D96
:1009B00071170000FFFF5F0A00000E0000006817BB
:1009C0000000FFFF730A02000C0000005617000031
:1009D000FFFF7B0A02000A0000004C170000FFFF27
:1009E0007F0A02000A00491180160000FFFF2B0257
:1009F00000000F00E71242170000FFFF830A01000A
:100A00000A008B0E36170000FFFF870A01000C005A
:100A1000970E2B170000FFFF8F0A02000C005511E4
:100A200020170000FFFF8B0A02000C00551115175C
:100A30000000FFFF930A02000C0055110B17000085
:100A4000FFFFA10A00000C0000008113FFFF01005E
:100A5000000000000000F41672130000FFFF410ABE
:100A600000000F00000032150000FFFF590A0100CE
:100A70000D00000026150000FFFF550A01000D00C3
:100A800000001A150000FFFF510A01000D000000D0
:100A9000FB160000FFFFA50A00000C00D90DEB16A5
:100AA0000000FFFFA90A00000C00EA0DDB160000A1
:100AB000FFFFAD0A00000C00FB0D5F130000FFFFFD
:100AC0000000000003009A0D4C130000FFFF00001F
:100AD00000000300AF0D42130000FFFF0000000004
:100AE0000300280E92160000FFFF00000000030024
:100AF0003D118D160000FFFF0000000003004511AE
:100B000080160000FFFF2B0200000F00E712711794
:100B10000000FFFF5F0A00000E00000068170000E1
:100B2000FFFF730A02000C00000056170000FFFFD1
:100B30007B0A02000A0000004C170000FFFF7F0A3A
:100B400002000A00000042170000FFFF830A0100B4
:100B50000A00000036170000FFFF870A01000C00A2
:100B600000002B170000FFFF8F0A02000C0000009E
:100B700020170000FFFF8B0A02000C000000151771
:100B80000000FFFF930A02000C0000000B1700009A
:100B9000FFFFA10A00000C0000009B13FFFF0100F3
:100BA000000000000000F31632150000FFFF590A94
:100BB00001000D00000026150000FFFF550A01008E
:100BC0000D0000001A150000FFFF510A01000D0082
:100BD0000000FB160000FFFFA50A00000C00D90D65
:100BE000EB160000FFFFA90A00000C00EA0DDB165F
:100BF0000000FFFFAD0A00000C00FB0D8E1300008B
:100C0000FFFF0000000003001A0E71170000FFFF35
:100C10005F0A00000E00000068170000FFFF730A63
:100C200002000C00000056170000FFFF7B0A0200C4
:100C30000A0000004C170000FFFF7F0A02000A00B4
:100C4000000080160000FFFF2B0200000F00E712DB
:100C500042170000FFFF830A01000A000000361758
:100C60000000FFFF870A01000C0000002B170000A6
:100C7000FFFF8F0A02000C00000020170000FFFF9A
:100C80008B0A02000C00000015170000FFFF930AFA
:100C900002000C0000000B170000FFFFA10A00007B
:100CA0000C000000DD17FFFF010000000000000045
:100CB0000000CE170000040000000000000000004B
:100CC000C41700001F000000000000000000BA1759
:100CD00000006E000000000000000000B7170100D7
:100CE0000F000C0C000001001F10B41701000F00D2
:100CF000200C000001002510B11701000F00340C7A
:100D0000000001002B10AE1701000F00480C00007E
:100D100001003110AB1701000F005C0C0000010056
:100D20003710A81701000F00700C000001003D10E3
:100D3000A51701000F00840C000001004310A2174A
:100D400001000F00980C0000010049109F170100DE
:100D50000F00AC0C000001004F109B1701000F00AA
:100D6000C00C0000010055108B1701000F0000009F
:100D7000000000005B1083170400FFFF000000006C
:100D800000000C0E76170400FFFF000000000000BA
:100D90005F1071170400FFFF5F0A00000E000000E3
:100DA00068170400FFFF730A02000C0000006017C0
:100DB0000400FFFF770A02000C0000005617040031
:100DC000FFFF7B0A02000A0000004C170400FFFF2F
:100DD0007F0A02000A00000042170400FFFF830A96
:100DE00001000A00000036170400FFFF870A010017
:100DF0000C0000002B170400FFFF8F0A02000C00FC
:100E0000000020170400FFFF8B0A02000C00000006
:100E100015170400FFFF930A02000C0000000B17D7
:100E20000400FFFFA10A00000C000000FB160400F4
:100E3000FFFFA50A00000C000000EB160400FFFFF6
:100E4000A90A00000C000000DB160400FFFFAD0A39
:100E500000000C000000C8160200FFFF00000000A8
:100E60000300F70FBB160200250000000000000081
:100E70000000B51602003D00000000000000000068
:100E8000A7160200430000000000000000009F16AB
:100E900002005B0000000000000000009716020046
:100EA0006500000000000000000092162000FFFF17
:100EB0000000000003003D118D162000FFFF000020
:100EC00000000300451180162000FFFF2B020000E8
:100ED0000F00E71274162000FFFF0000000003005F
:100EE0007F1165162000FFFF3102000006000000A0
:100EF0005B162000FFFF0000000003008B114E1660
:100F00002000FFFF2F020000060000004C17200009
:100F1000FFFF7F0A02000A00391149162000FFFF77
:100F200000000000030093103B162000FFFF1F0B82
:100F300000000600000031162000FFFF210B020018
:100F40000A00000023162000FFFF250B000006000A
:100F5000000015162000FFFF270B00000600000010
:100F60000A162000FFFF290B000006000000FD15F7
:100F70002000FFFF2B0B000006000000EF152000F3
:100F8000FFFF2D0B000006000000E5152000FFFF0D
:100F90002F0B000004000000DB152000FFFF300BCA
:100FA000000006000000C9152000FFFF320B000002
:100FB00006000000BC152000FFFF340B00000600F7
:100FC0000000B0152000FFFF380B000006000000F5
:100FD000A4152000FFFF3A0B000006000000971543
:100FE0002000FFFF3C0B00000600000089152000D8
:100FF000FFFF3E0B0000060000007E152100FFFFF2
:10100000000000000300F61676152100FFFF400BDC
:101010000000060000006C152100FFFF420B0000DD
:101020000600000062152100FFFF440B00000400D1
:1010300000005B152100FFFF450B000004000000CD
:101040004F152100FFFF460B02000A0000003E156D
:101050002200FFFF3F0200000F009C10321522000B
:10106000FFFF590A01000D00000026152200FFFFB6
:10107000550A01000D0000001A152200FFFF510A59
:1010800001000D000000FB162200FFFF9A0B00007C
:101090000C000000EB162200FFFFC80B00000C0044
:1010A0000000DB162200FFFFF60B00000C00000022
:1010B0000D152200FFFF720B000006000000031553
:1010C0002200FFFF740B00000C000000F914220046
:1010D000FFFF780B00000C000000F3142200FFFF5C
:1010E0007C0B02000C000000ED142200FFFF800BBF
:1010F00002000C000000E7142200FFFF840B020036
:101100000C000000DA142200FFFFA00B0000060014
:101110000000D0142200FFFFA20B00000C00000012
:10112000C6142200FFFFA60B00000C000000C01434
:101130002200FFFFAA0B02000C000000BA142200DC
:10114000FFFFAE0B02000C000000B4142200FFFFF2
:10115000B20B02000C000000AA142200FFFFD00B0B
:1011600000000C000000A0142200FFFFD40B0000C0
:101170000C0000009A142200FFFFD80B02000C00A4
:10118000000094142200FFFFDC0B02000C000000A2
:101190008E142200FFFFE00B02000C0000008214FE
:1011A0002300FFFF3B0200000F00EC107E14230021
:1011B000FFFF4D0A00000A00000073142300FFFF28
:1011C00000000000030059116B142300FFFF4A0BBD
:1011D00000000600000061142300FFFF4C0B00001C
:1011E0000600000057142300FFFF4E0B0000040010
:1011F00000004A142300FFFF4F0B00000400000012
:101200003C142300FFFF500B02000A0000003414BE
:101210002300FFFF540B02000C0000002C142300DD
:10122000FFFF580B02000C0000001F142400FFFFFA
:10123000000000000300791917142400FFFF5C0B65
:101240000000060000000D142400FFFF5E0B0000EC
:101250000600000003142400FFFF600B00000400E0
:101260000000FC132400FFFF610B000004000000DD
:10127000F0132400FFFF620B02000A000000E413D9
:101280002400FFFF660B02000A000000D7132400B1
:10129000FFFF6A0B02000A000000C9132400FFFFD1
:1012A0006E0B02000A00000080160300FFFF2B02F5
:1012B00000000F00E712B8130300FFFF0000FFFF5C
:1012C0000300980DAB130300FFFF000000000300B4
:1012D000D4154772616D73204578747275646564C6
:1012E000004469616D657465720045787472756457
:1012F000696E672E202E202E005374617276652051
:10130000466565646572004164642054696D6500DA
:1013100046696C616D656E74204C6F616465640034
:1013200054696D652052656D61696E696E67004C28
:101330006F61642046696C616D656E742E202E208D
:101340002E00536B697020536F616B0044656372AC
:101350006561736520536F616B2054696D65004949
:101360006E63726561736520536F616B2054696DA4
:10137000650054696D652052656D61696E696E67BF
:1013800000536F616B696E672E202E202E00536B09
:101390006970205072656865617400507265686597
:1013A0006174696E672E202E202E0052657365745D
:1013B00020454550524F4D004D6561737572652053
:1013C00046696C616D656E7400526F6C6C6572205D
:1013D0005261646975730054726176657273652039
:1013E0004C656E00436F72652052616469757300CD
:1013F0004469736B2052616469757300456E616264
:101400006C6500446972656374696F6E005374653E
:1014100070204D6F64650050696E205365740054F0
:101420006573742053706F6F6C6572004D696E2028
:1014300052504D004D61782052504D00526F6C6CEF
:1014400065722052616469757300456E61626C65F6
:10145000204C6F67696300446972656374696F6EDD
:101460000053746570204D6F64650050696E2053A1
:1014700065740053656E64203120526576005250C9
:101480004D0052756E204F757466656564005A3361
:10149000204B64005A33204B69005A33204B7000B4
:1014A0005A33204D696E204443005A33204D6178F1
:1014B000204443005A32204B64005A32204B6900CA
:1014C0005A32204B70005A32204D696E204443003E
:1014D0005A32204D6178204443005A322054696DBD
:1014E000652062617365005A31204B64005A3120D7
:1014F0004B69005A31204B70005A31204D696E20E3
:101500004443005A31204D6178204443005A312031
:1015100054696D652062617365005A6F6E65203392
:101520002054656D70005A6F6E6520322054656DD1
:1015300070005A6F6E6520312054656D70004163F4
:1015400074697661746520486561746572730047DB
:1015500065617220526174696F6E00456E61626CE4
:101560006500446972656374696F6E0053746570D9
:10157000204D6F64650050696E205365740054659A
:101580007374204175676572004465626F756E63A0
:10159000652054696D6500537461727475702054D0
:1015A000696D65004D617846696C6C54696D6500C4
:1015B0004D696E46696C6C54696D65004D61784487
:1015C0007574794379636C650053746172747570D6
:1015D00020447574794379636C650044757479436C
:1015E00079636C6500446972656374696F6E004F5E
:1015F00076657220526F746174696F6E00486F6D0A
:10160000696E672044656C6179005374657020448D
:10161000656C61790044756D7020506F73697469F1
:101620006F6E00486F6D6520506F736974696F6EDF
:10163000004C756D70204D61737300536C6176655D
:1016400020416464726573730053746F7000546951
:101650006D6520746F2073656E640053656E642041
:1016600054696D65004379636C657320746F2073F2
:10167000656E640053656E64204379636C65730026
:101680004665656420506C61737469630044756DD0
:101690007000486F6D650053706F6F6C6572004F1E
:1016A0007574666565640048656174657220436F92
:1016B0006E66696700417567657200537461727682
:1016C00065466565646572005361766520436F6E9B
:1016D00066696775726174696F6E005A6F6E652016
:1016E00033205365742054656D70005A6F6E652009
:1016F00032205365742054656D70005A6F6E6520FA
:1017000031205365742054656D7000536F616B20F8
:1017100054696D65004F757466656564205064009A
:101720004F757466656564204B69004F7574666516
:101730006564204B70004F75746665656420525077
:101740004D0041756765722052504D004772616DC2
:10175000732F4D696E00546F6C6572616E63650026
:1017600044656E73697479004469616D657465726E
:10177000004E616D6500536176652050726F666939
:101780006C650045787472756465004465666175C2
:101790006C742050726F66696C65003130290039B5
:1017A0002900382900372900362900352900342935
:1017B00000332900322900312900417578696C69AC
:1017C0006172790043616C6962726174650053658E
:1017D0006C6563742050726F66696C65004D616959
:1017E0006E204D656E7500536176696E6720436F9C
:1017F0006E6669672E00F5031600F3031900F10306
:101800001E00E9032800E2033200D2033C00C203B9
:101810004600AD03500091035A006F036400480373
:101820006E0016037800E4028200AA028C007102A6
:1018300096004302A0000102AA00CA01B4008B0175
:10184000BE005201C8002C01D2000901DC00EB00EF
:10185000E600C800F000AC00FA0096000401820027
:101860000E01720018016300220153002C010000D8
:101870000A0B02090C0D0E0807030401000000000A
:101880000000000000000000000000000000000058
:101890000000000000000000000012111000000015
:1018A0000000000000000000000000000000000038
:1018B0000000000001021020200808102040102025
:1018C0004080020102010804020101020408102004
:1018D0004080804020100804020180040201804002
:1018E000201008040201080402010102040810206B
:1018F0004080010204081020408005050505070509
:1019000008080808020202020A0A0808040404047B
:1019100001010101010101010303030303030303A7
:10192000040707070C0C0C0C0C0C0C0C0202020236
:1019300006060606060606060B0B0B0B0B0B0B0B1F
:10194000000020002300260029002C002F00320078
:10195000000100000301060109010000220025002A
:1019600028002B002E003100340002010000050188
:1019700008010B0100002100240027002A002D008F
:101980003000330001010000040107010A014E414B
:101990004E494E495459494E46CDCCCC3D0AD723E9
:1019A0003C17B7D13877CC2B329595E6241FB14F31
:1019B0000A000020410000C84200401C4620BCBE76
:1019C0004CCA1B0E5AAEC59D7400407A10F35A00E3
:1019D000A0724E18090010A5D4E80000E876481758
:1019E0000000E40B54020000CA9A3B000000E1F53D
:1019F00005000080969800000040420F000000A003
:101A00008601000000102700000000E8030000002D
:101A1000006400000000000A000000000001000057
:101A20000000002C76D888DC674F0823DFC1DFAECA
:101A300059E1B1B796E5E3E453C63AE65199769693
:101A4000E8E6C28426EB898C9B62ED407C6FFCEF5C
:101A5000BC9C9F40F2BAA56FA5F490055A2AF75C8A
:101A6000936B6CF9676DC11BFCE0E40D47FEF5203C
:101A7000E6B500D0ED902E03009435770500808404
:101A80001E080000204E0A000000C80C3333333318
:101A90000F986E12831141EF8D2114893BE6551684
:101AA000CFFEE6DB18D1844B381BF77C1D901DA4BC
:101AB000BBE424203284725E228100C9F124ECA1AF
:101AC000E53D270025145040114711241FBECFEFDC
:101AD000D1E2DEBFCDBF00E00CBF14E0A0E0B2E079
:101AE000E4E5F4EA00E00BBF02C007900D92AA3DC6
:101AF000B107D9F72EE0AAEDB4E001C01D92A335DD
:101B0000B207E1F71AE1CAECDAE100E006C0229779
:101B10000109FE010BBF0E949D4DC43CD10780E02E
:101B20000807A9F70E9455470C9428520C9400000E
:101B3000089508958091FE049091FF04A0910005FE
:101B4000B0910105805A9541AF4FBF4F8093FE047D
:101B50009093FF04A0930005B09301050895809130
:101B6000FE049091FF04A0910005B09101058056FC
:101B70009A4EA109B1098093FE049093FF04A093AB
:101B80000005B093010508958091F6049091F70443
:101B9000A091F804B091F904805A9541AF4FBF4F1E
:101BA0008093F6049093F704A093F804B093F9049B
:101BB00008958091A50A9091A60AA091A70AB091D4
:101BC000A80A80939A0B90939B0BA0939C0BB093C5
:101BD0009D0B08958091A90A9091AA0AA091AB0A41
:101BE000B091AC0A8093C80B9093C90BA093CA0B19
:101BF000B093CB0B08958091AD0A9091AE0AA0915D
:101C0000AF0AB091B00A8093F60B9093F70BA093B4
:101C1000F80BB093F90B089581E090E090933E0AA1
:101C200080933D0A8CE296E090930B0580930A0521
:101C30000C94DF2E83E090E090933E0A80933D0A5F
:101C40008CEC95E090930B0580930A050C94DF2EA5
:101C500087E090E090933E0A80933D0A8CE095E007
:101C600090930B0580930A050C94DF2E87E090E09B
:101C700090933E0A80933D0A8CE095E090930B058B
:101C800080930A050C94DF2ECF92DF92EF92FF92A1
:101C900060E373E084EB9DE00E94D9470E94A74275
:101CA00060930205709303058093040590930505E6
:101CB0000E948B4A6B017C0120E030E040E752E457
:101CC0006091A10A7091A20A8091A30A9091A40A3E
:101CD0000E94944B20E030E04AE754E40E94944B89
:101CE0009B01AC01C701B6010E948A490E945F4A6C
:101CF0006093FE047093FF048093000590930105A8
:101D000084E090E090933E0A80933D0AFF90EF902C
:101D1000DF90CF9008954091830A5091840A60919A
:101D2000850A7091860A86ED97E00C94AB3A81E5BE
:101D300097E00E9438324091870A5091880A60915A
:101D4000890A70918A0A81E597E00C941232CF9249
:101D5000DF92EF92FF9280910002882381F120E0D0
:101D600030E0A9016091830A7091840A8091850A0C
:101D70009091860A0E94904B1816FCF48091E8041A
:101D800081111BC08CEE96E00E94C73686ED97E06D
:101D90000E94E63A81E08093E80481E090E090932D
:101DA000E7048093E6040E94A7426093E2047093E4
:101DB000E3048093E4049093E50410920002809180
:101DC000E804882309F467C00E94A742C090E20497
:101DD000D090E304E090E404F090E5046C157D05F8
:101DE0008E059F0508F457C08091E6049091E704A2
:101DF000803991400CF04FC08AEF98E00E94472351
:101E000082E798E00E9447238AEE97E00E944723EA
:101E100020E030E048EC53E46091830A7091840A3A
:101E20008091850A9091860A0E94F2496B017C019B
:101E30006091E6047091E704882777FD8095982FDC
:101E40000E948D4A9B01AC01C701B6010E94944BD0
:101E5000AB01BC0186ED97E00E94AB3A8091E604AD
:101E60009091E70401969093E7048093E6048091B3
:101E7000E2049091E304A091E404B091E504059696
:101E8000A11DB11D8093E2049093E304A093E404A8
:101E9000B093E50474C08091E804882341F08091F8
:101EA000E6049091E704803991400CF468C01092E8
:101EB000E80481E080930002C090870AD090880AED
:101EC000E090890AF0908A0A20E030E0A901C70179
:101ED000B6010E94904B1816E4F4B701A60181E503
:101EE00097E00E94123260E070E081E597E00E9486
:101EF000153281E597E00E9438328DE197E00E942B
:101F0000A3378DE197E00E9456388DE197E00E945B
:101F1000CF380E94A7426B017C016093FA04709352
:101F2000FB048093FC049093FD042091080C3091F5
:101F3000090C40910A0C50910B0CA0E6BAEE0E94DD
:101F4000934D6C0D7D1D8E1D9F1D6093F604709347
:101F5000F7048093F8049093F90486E090E090935E
:101F60003E0A80933D0A8CE695E090930B058093A2
:101F70000A05FF90EF90DF90CF900C94812DFF9099
:101F8000EF90DF90CF9008950F931F938AEA99E026
:101F90000E94101D8AEF98E00E94472382E798E094
:101FA0000E9447238AEE97E00E94472381E597E04D
:101FB0000E9458320E94A7420091F6041091F70443
:101FC0002091F8043091F904005315472109310993
:101FD000061717072807390730F463E070E08AEA2C
:101FE00099E00E940C1D1F910F910C94A74285E26D
:101FF0009AE00E948E3E64E577E085E29AE00E94D6
:10200000894764EF71E080E090E00E94D6428DE560
:102010009AE00E940C2085E29AE00E948E3E60E4E5
:1020200077E085E29AE00E94894760ED77E080E002
:1020300090E00E94D6428CE896E00C94812D60E0FE
:1020400070E08DE59AE00C94962061E070E08DE5FB
:102050009AE00C94962062E070E08DE59AE00C9492
:10206000962063E070E08DE59AE00C94962064E0A1
:1020700070E08DE59AE00C94962065E070E08DE5C7
:102080009AE00C94962066E070E08DE59AE00C945E
:10209000962067E070E08DE59AE00C94962068E069
:1020A00070E08DE59AE00C94962069E070E08DE593
:1020B0009AE00C9496208DE59AE00C94771D6BE1E4
:1020C00077E084EB9DE00E94894760915D0A709102
:1020D0005E0A4AE050E084EB9DE00E94894885E278
:1020E0009AE00E948E3E69E077E085E29AE00E94E5
:1020F00089478DE59AE00E94492064EF71E080E015
:1021000090E00E94D64285E29AE00E948E3E6BEFFC
:1021100076E085E29AE00E94894760ED77E080E012
:1021200090E00C94D64282E899E00E94373A1092EF
:102130003E0A10923D0A0895809140028636C9F405
:102140006BE373E08FE392E00E94EE4D61E070E09C
:102150008AEF98E00E94602561E070E082E798E0F5
:102160000E94602561E070E08AEE97E00E946025A1
:102170002DC06EE373E08FE392E00E94EE4D60E0CD
:1021800070E08AEF98E00E94602560E070E082E7EE
:1021900098E00E94602560E070E08AEE97E00E947F
:1021A000602540E050E0BA018AEF98E00E94E02408
:1021B00040E050E0BA0182E798E00E94E02440E06D
:1021C00050E0BA018AEE97E00E94E02480910A056F
:1021D00090910B050C94812D80913C028636B9F4C8
:1021E0006BE373E08BE392E00E94EE4D40914D0A69
:1021F00050914E0A60914F0A7091500A81E597E024
:102200000E94123281E597E00E9438320AC06EE3E4
:1022100073E08BE392E00E94EE4D81E597E00E942F
:10222000353280910A0590910B050C94812D82E83E
:1022300099E00E94933A67E372E082E899E00E9495
:10224000DD3867E573E084EB9DE00E94D94762E4E6
:1022500073E084EB9DE00E94AE4767E372E084EB9D
:102260009DE00E94D94767E573E084EB9DE00C9404
:10227000D94782E899E00C94E23882E899E00E941C
:10228000E23882E899E00C94663982E899E00C948F
:10229000793940917F0A5091800A6091810A70914A
:1022A000820A82E899E00C948C3981E597E00C94DD
:1022B0001732CF93DF9381E597E00E943832C0E870
:1022C000DCE061E08BE00E94DD4488EE93E00E9458
:1022D000FB4260E08BE00E94DD4488EE93E00E94C8
:1022E000FB42219771F781E597E00E94353280919A
:1022F0000A0590910B05DF91CF910C94812D82E816
:1023000099E00E94E238609131027091320282E8D5
:1023100099E00C94B63982E899E00E94E238A091E5
:102320002F02B091300220E63AEE0E948D4DAB01B3
:10233000BC0182E899E00C94E739CF92DF92EF92EA
:10234000FF928AEA99E00E94101D8AEF98E00E94AD
:10235000472382E798E00E9447238AEE97E00E9495
:1023600047238AEF98E00E9463256B017C0120E0FF
:1023700030E040E450E46091A50A7091A60A809193
:10238000A70A9091A80A0E9489499B01AC01C70144
:10239000B6010E94904B18160CF056C082E798E0E8
:1023A0000E9463256B017C0120E030E040E450E4B2
:1023B0006091A90A7091AA0A8091AB0A9091AC0A27
:1023C0000E9489499B01AC01C701B6010E94904B54
:1023D0001816D4F58AEE97E00E9463256B017C0104
:1023E00020E030E040E450E46091AD0A7091AE0A24
:1023F0008091AF0A9091B00A0E9489499B01AC017B
:10240000C701B6010E94904B1816F4F461E070E029
:102410008AEA99E00E940C1D83E090E090933E0AC6
:1024200080933D0A8CEC95E090930B0580930A0510
:102430000E94DF2E80910A0590910B05FF90EF908E
:10244000DF90CF900C94812DFF90EF90DF90CF9094
:1024500008950E94A7426093EA047093EB0480936E
:10246000EC049093ED048AEA99E00E94101D8AEF33
:1024700098E00E94472382E798E00E9447238AEE73
:1024800097E00E9447238091FE049091FF04A09161
:102490000005B091010588589341A109B109409107
:1024A000EA045091EB046091EC047091ED0448173C
:1024B00059076A077B0768F08091E904811109C018
:1024C00062E070E08AEA99E00E940C1D81E080934E
:1024D000E9044091EA045091EB046091EC0470919E
:1024E000ED048091FE049091FF04A0910005B0914D
:1024F0000105481759076A077B0740F11092E90464
:1025000067E573E084EB9DE00E94D9476EE577E0D4
:1025100084EB9DE00E94C94767E573E084EB9DE092
:102520000E94D94787E090E090933E0A80933D0A4D
:102530008CE095E090930B0580930A050E94DF2EB6
:1025400080910A0590910B050C94812D08950F93AD
:102550001F938AEA99E00E94101D8AEF98E00E947A
:10256000472382E798E00E9447238AEE97E00E9483
:10257000472381E597E00E9458320E94A7420091CC
:10258000DE041091DF042091E0043091E104601733
:10259000710782079307C0F08DE197E00E945638DB
:1025A0008091DE049091DF04A091E004B091E104F9
:1025B00088519C4FAF4FBF4F8093DE049093DF0450
:1025C000A093E004B093E1041F910F91089582E875
:1025D00099E00E94743A8091A909882319F06BE36D
:1025E00073E002C06EE373E08BE292E00C94EE4D78
:1025F0006115710581F0DB010D900020E9F7AD0157
:1026000041505109461B570BDC01ED91FC910280B2
:10261000F381E02D199480E090E008956FE677E073
:1026200084EB9DE00C94C947C4DAD4DAE4DA0E9462
:10263000A742609306057093070580930805909361
:10264000090540E050E064EB72E48AEF98E00E94F4
:10265000E02440E050E064EB72E482E798E00E94FE
:10266000E02440E050E06FE773E48AEE97E00E94D8
:10267000E02461E070E08AEF98E00E94602561E06C
:1026800070E082E798E00E94602561E070E08AEEE9
:1026900097E00E946025C2DF82E090E090933E0ABE
:1026A00080933D0A089586ED97E00E94E63A4091B6
:1026B000830A5091840A6091850A7091860A86ED9A
:1026C00097E00E94AB3A4091870A5091880A609146
:1026D000890A70918A0A81E597E00E94123260E0CF
:1026E00070E081E597E00E94153281E597E00E9455
:1026F00038328AEA99E00E94661D0E94A7426093E0
:10270000F2047093F3048093F4049093F50486DF4D
:1027100081E597E00E94433288E090E090933E0A82
:1027200080933D0A089526E040E052EC61E070E0BD
:1027300084EB9DE00E9449468BEE9CE00E941A408B
:1027400020E044E064E185E29AE00E94AB3E85E24D
:102750009AE00E948E3E8CE896E090930B05809361
:102760000A0566E070E08AEA99E00E940C1D10926A
:102770003E0A10923D0A86ED97E00E941F3B809131
:102780000A0590910B050C94DF2ECF92DF92EF9209
:10279000FF920F931F93CF93DF9300D000D0CDB75C
:1027A000DEB76C01CB01BA0128EE33E040E050E027
:1027B0000E94654DC9016CE370E00E94524D7C019E
:1027C000882777FD8095982F0E948D4A8E010C5F97
:1027D0001F4F20E042E00E94C44DB701882777FDDB
:1027E0008095982F0E948D4A0350110920E042E005
:1027F0000E94C44DBE016C5F7F4FC6010E94EE4D2A
:10280000C601FC01019620812111FBCF8AE381934F
:102810008AE0E816F10414F480E38983DE0111965E
:102820008D91882311F08193FBCFC60126960FB6B8
:10283000F894DEBF0FBECDBFDF91CF911F910F91F6
:10284000FF90EF90DF90CF900895CF92EF920F938B
:102850001F938DE59AE00E94DB2080E2C82E9EE166
:10286000E92E0CE12AE148E166E185E29AE00E9466
:102870004E3F24E0E22E04E021E132E045E152E067
:1028800061E072E087EB99E00E947A258AEA99E09C
:102890000E94001D6DE57AE082E899E00E94D5383B
:1028A00062E77BE08AEF98E00E948C2260EA7BE09E
:1028B00082E798E00E948C226EEC7BE08AEE97E043
:1028C0000E948C224091400B5091410B6DE57AE0C3
:1028D00086ED97E00E94623B6DE57AE081E597E046
:1028E0000E94B43141E557E06DE57AE08DE197E073
:1028F0000E94D3366DE57AE08CEE96E00E94C136F8
:1029000007EB19E025E23AE041E750E064EA7CE0B9
:102910008CE896E00E94572825E23AE043E150E037
:102920006AE97BE08CE296E00E94572825E23AE0D3
:1029300048E150E06AE47AE08CEC95E00E94572888
:1029400025E23AE046E150E066E179E08CE695E088
:102950000E94572825E23AE045E150E060EF77E039
:102960008CE095E00E9457281F910F91EF90CF9037
:102970000895CF92DF92EF92FF920F931F9387EB10
:1029800099E00E9444288093B60984EB9DE00E9460
:102990003A451816190634F484EB9DE00E9453451D
:1029A0008093B6098091B609833489F1ACF48433FD
:1029B000E1F16CF48A3209F43FC0813309F049C077
:1029C00080910A0590910B050E94472942C08134ED
:1029D00081F08234A9F03DC0813759F02CF4843461
:1029E000E9F08536A1F035C08237C1F0873741F074
:1029F00030C080910A0590910B050E94482E29C095
:102A000080910A0590910B050E947B2E22C0809137
:102A10000A0590910B050E945A311BC080910A054E
:102A200090910B050E94AA2E14C080910A059091E6
:102A30000B050E94C8290DC020E044E064E185E256
:102A40009AE00E94AB3E80910A0590910B050E948E
:102A5000812DE0913D0AF0913E0AEE0FFF1FE75EE7
:102A6000FD4F0190F081E02D19958AEF98E00E94CA
:102A7000472382E798E00E9447238AEE97E00E946E
:102A800047230E94A7426093DA047093DB0480938B
:102A9000DC049093DD04C090EE04D090EF04E0904D
:102AA000F004F090F1046C157D058E059F0508F487
:102AB00074C08AEF98E00E9463256093590A70936E
:102AC0005A0A80935B0A90935C0A82E798E00E941E
:102AD00063256093550A7093560A8093570A909322
:102AE000580A8AEE97E00E9463256093510A70931A
:102AF000520A8093530A9093540A80913D0A909110
:102B00003E0A0497A9F4C090FE04D090FF04E09020
:102B10000005F09001050E94A74297018601061B5F
:102B2000170B280B390BB901A80181E49AE02DDEBF
:102B300080913D0A90913E0A0697A9F4C090F60450
:102B4000D090F704E090F804F090F9040E94A742B6
:102B500097018601061B170B280B390BB901A80139
:102B600087E49AE012DE0E94A74268517C4F8F4FA3
:102B70009F4F6093EE047093EF048093F004909362
:102B8000F10480910A0590910B051F910F91FF9020
:102B9000EF90DF90CF900C94812D1F910F91FF90BB
:102BA000EF90DF90CF900895CF93DF9368EA76E0BF
:102BB00084EB9DE00E94C94785E29AE00E948E3E28
:102BC00063E976E085E29AE00E94894741E060E0AF
:102BD00085E29AE00E94933E6FE776E085E29AE014
:102BE0000E94894742E060E085E29AE00E94933EBD
:102BF0006AE676E085E29AE00E94894743E060E079
:102C000085E29AE00E94933E65E576E085E29AE0EF
:102C10000E94894768E873E180E090E00E94D64214
:102C200085E29AE00E948E3E6AE376E085E29AE0D1
:102C30000E94894741E060E085E29AE00E94933E6D
:102C400063E376E085E29AE00E94894742E060E033
:102C500085E29AE00E94933E6DE276E085E29AE09A
:102C60000E94894787EB99E00E9444288093B60927
:102C700084EB9DE00E943A451816190634F484EB63
:102C80009DE00E9453458093B6098091B609813436
:102C900049F565E176E084EB9DE00E94C94785E255
:102CA0009AE00E948E3E61E076E085E29AE00E9422
:102CB00089478DE59AE0B6D78DE59AE00E940C2011
:102CC0008DE59AE014D7C0E0D0E0D0935E0AC093BF
:102CD0005D0A8DE59AE00E9449202196CA30D1050F
:102CE000A1F702C081E001C080E09091B609923462
:102CF00011F08111B7CF8CE896E0DF91CF910C9461
:102D0000812DCF93DF9385E29AE00E948E3E61EFA2
:102D100075E085E29AE00E94894741E060E085E243
:102D20009AE00E94933E6AEE75E085E29AE00E9486
:102D3000894742E060E085E29AE00E94933E64EEBB
:102D400075E085E29AE00E948947CCE8D6E087EBFF
:102D500099E00E9444288093B60984EB9DE00E948C
:102D60003A451816190634F484EB9DE00E94534549
:102D70008093B6098091B609893711F0813431F515
:102D800086ED97E00E941F3B81E597E00E94353277
:102D900082E899E00E94373A8AEF98E00E94352550
:102DA00082E798E00E9435258AEE97E00E9435255B
:102DB0008DE197E00E94D13810923E0A10923D0AB0
:102DC000D0930B05C0930A0580E001C081E090918B
:102DD000B6099E3621F0923411F08111B8CFDF91FF
:102DE000CF9108958ECF8DCF8CCF8BCFCF93DF93A4
:102DF00085E29AE00E948E3E61ED75E085E29AE000
:102E00000E94894741E060E085E29AE00E94933E9B
:102E10006CEB75E085E29AE00E94894742E060E051
:102E200085E29AE00E94933E6DEA75E085E29AE0C1
:102E30000E94894743E060E085E29AE00E94933E69
:102E40006CE975E085E29AE00E94894768E873E1E1
:102E500080E090E00E94D64285E29AE00E948E3E99
:102E600062E975E085E29AE00E94894741E060E00E
:102E700085E29AE00E94933E6BE875E085E29AE075
:102E80000E94894742E060E085E29AE00E94933E1A
:102E900065E875E085E29AE00E94894787EB99E052
:102EA0000E9444288093B60984EB9DE00E943A4535
:102EB0001816190634F484EB9DE00E945345809364
:102EC000B6098091B609813439F1823439F71CC0D2
:102ED000813409F445C087EB99E00E94442880932F
:102EE000B60984EB9DE00E943A451816190634F4A1
:102EF00084EB9DE00E9453458093B6098091B6090A
:102F00008334C9F1843421F780910A0590910B052F
:102F1000DF91CF910C94812D85E29AE00E948E3E44
:102F200063E775E085E29AE00E94894741E060E04E
:102F300085E29AE00E94933E62E675E085E29AE0BF
:102F40000E94894742E060E085E29AE00E94933E59
:102F50006AE575E085E29AE00E948947C1E0BBCF4F
:102F600086ED97E0CC2321F00E94E63AC0E0B3CF93
:102F70000E941F3BF3CFC11106C08091450B91E029
:102F800089278093450B85E29AE00E948E3E65E496
:102F900075E085E29AE00E94894768E873E180E085
:102FA00090E00E94D64285E29AE00E948E3E6BE35A
:102FB00075E085E29AE00E94894741E060E085E2A1
:102FC0009AE00E94933E64E375E085E29AE00E94F5
:102FD000894742E060E085E29AE00E94933E6EE21B
:102FE00075E085E29AE00E94894787EB99E00E94AC
:102FF00044288093B60984EB9DE00E943A45181658
:10300000190634F484EB9DE00E9453458093B60981
:103010008091B609813419F0823439F775CF86ED85
:1030200097E00E94E63A40E050E060E87FE386EDFA
:1030300097E00E94AB3A85E29AE00E948E3E6AE1F8
:1030400075E085E29AE00E94894741E060E085E210
:103050009AE00E94933E63E175E085E29AE00E9467
:10306000894742E060E085E29AE00E94933E6DE08D
:1030700075E085E29AE00E94894743E060E085E2DE
:103080009AE00E94933E65E075E085E29AE00E9436
:103090008947D1E087EB99E00E9444288093B609E4
:1030A00084EB9DE00E943A451816190634F484EB2F
:1030B0009DE00E9453458093B6098091B609823401
:1030C00009F44AC0843409F451C0813419F7CC237F
:1030D00009F386ED97E00E941F3B85E29AE00E948B
:1030E0008E3E63EF74E085E29AE00E94894768E8CB
:1030F00073E180E090E00E94D64285E29AE00E946F
:103100008E3E62EE74E085E29AE00E94894741E0DB
:1031100060E085E29AE00E94933E61ED74E085E212
:103120009AE00E94894742E060E085E29AE00E94CE
:10313000933E68EC74E085E29AE00E94894743E0A0
:1031400060E085E29AE00E94933E60EC74E085E2E4
:103150009AE00E94894716C08091440B8D27809386
:10316000440B86ED97E00E94F83B94CF86ED97E004
:103170000E941F3BC9CE8091B6098134B9F08234D8
:1031800009F4C2CE87EB99E00E9444288093B609E7
:1031900084EB9DE00E943A451816190664F784EB0B
:1031A0009DE00E9453458093B609E5CF85E29AE001
:1031B0000E948E3E6EEA74E085E29AE00E948947A2
:1031C00086ED97E00E94E63A61E086E00E94A44422
:1031D00086ED97E00E94E63A40E050E060E271E45C
:1031E00086ED97E00E94AB3A60E777E180E090E0FF
:1031F0000E94D64286ED97E00E941F3B85E29AE04E
:103200000E948E3E6AE974E085E29AE00E94894756
:1032100041E060E085E29AE00E94933E68E874E055
:1032200085E29AE00E94894742E060E085E29AE008
:103230000E94933E69E774E085E29AE00E94894724
:1032400043E060E085E29AE00E94933E66E674E027
:1032500085E29AE00E94894768E873E180E090E0A7
:103260000E94D64285E29AE00E948E3E67E574E0B5
:1032700085E29AE00E94894741E060E085E29AE0B9
:103280000E94933E60E574E085E29AE00E948947DF
:1032900042E060E085E29AE00E94933E6AE474E0D6
:1032A00085E29AE00E94894787EB99E00E944428D2
:1032B0008093B60984EB9DE00E943A4518161906E2
:1032C00034F484EB9DE00E9453458093B6098091CD
:1032D000B609813429F48DE59AE09ED680E001C0DC
:1032E00081E09091B609923409F40ECE8111DCCFC1
:1032F0000BCECF92DF92EF92FF920F931F9385E256
:103300009AE00E948E3E65E374E085E29AE00E94B6
:10331000894741E060E085E29AE00E94933E60E2E6
:1033200074E085E29AE00E94894742E060E085E22D
:103330009AE00E94933E61E174E085E29AE00E9487
:10334000894743E060E085E29AE00E94933E60E0B6
:1033500074E085E29AE00E94894768E873E180E0C2
:1033600090E00E94D64285E29AE00E948E3E66EF8F
:1033700073E085E29AE00E94894741E060E085E2DF
:103380009AE00E94933E6FEE73E085E29AE00E941D
:10339000894742E060E085E29AE00E94933E69EE50
:1033A00073E085E29AE00E94894787EB99E00E94EA
:1033B00044288093B60984EB9DE00E943A45181694
:1033C000190634F484EB9DE00E9453458093B609BE
:1033D0008091B609813459F1823439F71CC08134A7
:1033E00009F449C087EB99E00E9444288093B6090C
:1033F00084EB9DE00E943A451816190634F484EBDC
:103400009DE00E9453458093B6098091B6098334AC
:10341000E9F1843421F780910A0590910B051F9101
:103420000F91FF90EF90DF90CF900C94812D85E26B
:103430009AE00E948E3E67ED73E085E29AE00E947A
:10344000894741E060E085E29AE00E94933E66ECA5
:1034500073E085E29AE00E94894742E060E085E2FD
:103460009AE00E94933E6EEB73E085E29AE00E9440
:10347000894711E0B7CF8DE197E0112321F00E9439
:10348000CF3810E0AFCF0E94D138F3CF111106C072
:103490008091610B91E089278093610B85E29AE02E
:1034A0000E948E3E69EA73E085E29AE00E948947B5
:1034B00068E873E180E090E00E94D64285E29AE0FD
:1034C0000E948E3E6FE973E085E29AE00E94894790
:1034D00041E060E085E29AE00E94933E68E973E093
:1034E00085E29AE00E94894742E060E085E29AE046
:1034F0000E94933E62E973E085E29AE00E94894768
:1035000087EB99E00E9444288093B60984EB9DE004
:103510000E943A451816190634F484EB9DE00E9487
:1035200053458093B6098091B609813419F08234ED
:1035300039F771CF8DE197E00E94CF3840E050E03D
:1035400060E87FE38DE197E00E94CD3885E29AE064
:103550000E948E3E62E873E085E29AE00E9489470D
:1035600041E060E085E29AE00E94933E6BE773E001
:1035700085E29AE00E94894742E060E085E29AE0B5
:103580000E94933E65E773E085E29AE00E948947D6
:1035900043E060E085E29AE00E94933E6DE673E0CE
:1035A00085E29AE00E94894701E087EB99E00E945A
:1035B00044288093B60984EB9DE00E943A45181692
:1035C000190634F484EB9DE00E9453458093B609BC
:1035D0008091B609823409F44AC0843409F451C098
:1035E000813419F7112309F38DE197E00E94D13856
:1035F00085E29AE00E948E3E6BE573E085E29AE0F8
:103600000E94894768E873E180E090E00E94D6421A
:1036100085E29AE00E948E3E69E473E085E29AE0DA
:103620000E94894741E060E085E29AE00E94933E73
:1036300068E373E085E29AE00E94894742E060E037
:1036400085E29AE00E94933E6FE273E085E29AE0A1
:103650000E94894743E060E085E29AE00E94933E41
:1036600067E273E085E29AE00E94894716C0809184
:10367000600B80278093600B8DE197E00E94D33828
:1036800094CF8DE197E00E94D138C5CE8091B609E4
:103690008134B9F0823409F4BECE87EB99E00E9400
:1036A00044288093B60984EB9DE00E943A451816A1
:1036B000190664F784EB9DE00E9453458093B60998
:1036C000E5CF85E29AE00E948E3E65E173E085E2F7
:1036D0009AE00E9489478DE197E00E94CF3861E02F
:1036E00086E00E94A4448DE197E00E94CF3840E03C
:1036F00050E060E271E48DE197E00E94CD3860E730
:1037000077E180E090E00E94D6428DE197E00E9450
:10371000D13885E29AE00E948E3E63E073E085E254
:103720009AE00E94894741E060E085E29AE00E94C9
:10373000933E61EF72E085E29AE00E94894742E0A1
:1037400060E085E29AE00E94933E62EE72E085E2DC
:103750009AE00E94894743E060E085E29AE00E9497
:10376000933E6FEC72E085E29AE00E94894768E838
:1037700073E180E090E00E94D64285E29AE00E94E8
:103780008E3E6EEB72E085E29AE00E94894768E81F
:1037900073E180E090E00E94D64285E29AE00E94C8
:1037A0008E3E69EA72E085E29AE00E94894741E034
:1037B00060E085E29AE00E94933E64E972E085E26F
:1037C0009AE00E94894742E060E085E29AE00E9428
:1037D000933E6BE872E085E29AE00E94894743E0FD
:1037E00060E085E29AE00E94933E63E872E085E241
:1037F0009AE00E94894787EB99E00E9444288093D1
:10380000B60984EB9DE00E943A451816190634F477
:1038100084EB9DE00E9453458093B6098091B609E0
:10382000813419F0823439F7F6CD8DE197E00E94AA
:10383000CF3840E050E060EA71E48DE197E00E940B
:10384000CD380E94A7426B017C0185E29AE00E947C
:103850008E3E6EE672E085E29AE00E94894741E082
:1038600060E085E29AE00E94933E66E672E085E2BF
:103870009AE00E94894742E060E085E29AE00E9477
:10388000933E6EE572E085E29AE00E94894787EBFD
:1038900099E00E9444288093B60984EB9DE00E9441
:1038A0003A451816190634F484EB9DE00E945345FE
:1038B0008093B6098091B609813439F0823439F7A2
:1038C00081E597E00E943532A6CD8DE197E00E9418
:1038D000D1380E94A74200E010E020E83FE30093C7
:1038E0006E0B10936F0B2093700B3093710B6C1950
:1038F0007D098E099F090E948B4A20E030E040EA52
:1039000051E40E94944B20E030E64AE657E40E94DE
:10391000F2496093620B7093630B8093640B9093F6
:10392000650B85E29AE00E948E3E69E472E085E2D2
:103930009AE00E94894741E060E085E29AE00E94B7
:10394000933E64E372E085E29AE00E94894742E098
:1039500060E085E29AE00E94933E60E272E085E2D8
:103960009AE00E94894768E873E180E090E00E9455
:10397000D64285E29AE00E948E3E61E172E085E2E5
:103980009AE00E94894741E060E085E29AE00E9467
:10399000933E6AE072E085E29AE00E94894742E045
:1039A00060E085E29AE00E94933E64E072E085E286
:1039B0009AE00E94894787EB99E00E94442880930F
:1039C000B60984EB9DE00E943A451816190634F4B6
:1039D00084EB9DE00E9453458093B6098091B6091F
:1039E000813429F48DE59AE017D380E001C081E0AD
:1039F0009091B609923409F40ECD8111DCCF0BCD34
:103A0000CF93DF93EC0161E081E10E94A4441B8627
:103A10001A86DF91CF910895FC017387628708951C
:103A2000CF92DF92EF92FF92CF93DF93EC018A85E2
:103A30009B85892B09F443C0CC80DD80EE80FF801C
:103A40000E94A7426C157D058E059F05C0F18885F3
:103A5000998580FD0BC00A972CF0198618861B8665
:103A60001A862DC080910201816003C080910201FD
:103A70008E7F809302010E94A742288539854A855E
:103A80005B85AAE0A49FF001A59FF00D1124E20F31
:103A9000F31FEE0FFF1FED5BFD4FC080D180EE24C2
:103AA000D7FCE094FE2C6C0D7D1D8E1D9F1D6C833C
:103AB0007D838E839F832F5F3F4F39872887DF91D8
:103AC000CF91FF90EF90DF90CF900895FC01118689
:103AD00010861386128608959B0121563E4FFC01E5
:103AE000358724876D557E4F778766870895CF93F6
:103AF000DF93EC012FEF3FEFFC0121933193CF01D6
:103B00006AE874E00E94EE4D4DEC5CEC6CEE7FE3F5
:103B10004E8B5F8B688F798F47ED53EA60EB7FE3C5
:103B20004A8F5B8F6C8F7D8F4DEC5CEC6CE47DE39A
:103B30004E8F5F8F68A379A340E050E060EA70E4A5
:103B40004AA35BA36CA37DA340E050E060EF71E467
:103B50004EA35FA368A779A740E050E060E772E456
:103B60004AA75BA76CA77DA71AAA1BAA1CAA1DAA15
:103B700040E050E060E470E44EA75FA768AB79AB2B
:103B80001EAA1FAA18AE19AE40E050E068E473E424
:103B90004AAF5BAF6CAF7DAFFE01FE961082118223
:103BA00012821382349680ED97E09183808332965F
:103BB00040E050E060E071E44083518362837383AE
:103BC000349640E050E864E873E4408351836283B4
:103BD0007383349640835183628373833496408326
:103BE000518362837383349640E050E064E373E46E
:103BF0004083518362837383349640E050E86EE8DB
:103C000073E44083518362837383C45ADF4F4FE070
:103C100050E060E070E0488359836A837B83DF91E2
:103C2000CF9108952F923F924F925F926F927F9221
:103C30008F929F92AF92BF92CF92DF92EF92FF92BC
:103C40000F931F93CF93DF931F921F92CDB7DEB7D1
:103C5000FC01EF53FF4F1082319622E0A22EB12CCF
:103C6000B182A082329640E050E060E87FE340837A
:103C7000518362837383349624E630E0318320835A
:103C8000329620E436E03183208332962BE430E014
:103C900031832083329630ED432E37E0532E51820C
:103CA000408232962AE530E0318320833296BB246D
:103CB000B394B08231962FE530E031832083329681
:103CC0002EE630E031832083329620EA30E03183E3
:103CD00020833496A8EE6A2EA3E07A2E7182608249
:103CE000329620E137E231832083329628EC30E0AF
:103CF00031832083329620E530E031832083329671
:103D000011821082329620E130E031832083329696
:103D100010823196B0823196C12CD12CB0E4EB2EBA
:103D2000FE2CC082D182E282F3823496EE24E394A8
:103D3000F12CF182E0823296318320833296108218
:103D400031961082319608E4C02E01EED02E0EEA94
:103D5000E02E00E4F02EC082D182E282F38234961B
:103D6000C12CD12CA8E4EA2EA3E4FA2EC082D18281
:103D7000E282F38234961082118212821382349688
:103D8000A2E0B0E0B183A0833296318320833296E3
:103D9000108231961082319602E518EB22EE31E462
:103DA0000083118322833383349600E010E020EFF8
:103DB00031E40083118322833383349600E010E0E2
:103DC00026E932E4008311832283338334964083CF
:103DD000518362837383B89627E030E03183208378
:103DE0007297108211821282138234970AE919E9BC
:103DF00029E13EE3008311832283338334974AE928
:103E000059E969E570E4408351836283738338978D
:103E1000812C912CB8ECAB2EB2E4BB2E8082918227
:103E2000A282B38234961082118212821382789613
:103E3000AEE62A2EAFE03A2E318220823297B4E1EC
:103E4000EB2EF12CF182E0823696118210823C97A3
:103E5000A0EACA2EA6E8DA2EEE24E394F12CC08262
:103E6000D182E282F3823A9671826082B097518267
:103E70004082B89610821182128213823496108288
:103E800031961082DC01A959BE4FE4E0F0E0ED93D9
:103E9000FC93FC01EB5AFE4F1082118212821382B6
:103EA0003497008311832283338334974083518373
:103EB00062837383389780829182A282B382349620
:103EC0001082118212821382789631822082329778
:103ED000B4E1AB2EB12CB182A0823696A1E0B0E065
:103EE000B183A0833C97C082D182E282F3823A966A
:103EF00071826082B09751824082B896108211829E
:103F0000128213823496108231961082B596A5E003
:103F1000B0E0B183A0837297108211821282138263
:103F200034970083118322833383349740835183F2
:103F300062837383389740E050E06FE773E4408317
:103F4000518362837383349640E050E065E773ECFD
:103F500040835183628373837896318220823297C3
:103F6000B182A082369612E0A12EB12CB182A0823D
:103F7000349623E030E0318320837097C082D18271
:103F8000E282F3823A9671826082B09751824082D7
:103F9000B89610821182128213823496BB24B39495
:103FA000B0823196B082319646EC54E464E17AE313
:103FB0004083518362837383349649EA54EA66EC02
:103FC0007FE34083518362837383349640E050E003
:103FD0006CE873E44083518362837383349642E0D8
:103FE00050E060E070E040835183628373830F9000
:103FF0000F90DF91CF911F910F91FF90EF90DF9085
:10400000CF90BF90AF909F908F907F906F905F9078
:104010004F903F902F9008950F931F93CF93DF936E
:10402000EC0167EE77E184EB9DE00E94C947C05444
:10403000DF4F81E0888360E070E049918B010F5F82
:104040001F4F8AEE9CE00E94F33D0F3E110511F0D8
:10405000B801F3CFDF91CF911F910F9108950F9386
:104060001F93CF93DF938C0100541F4FC0E0D0E02B
:10407000BE018AEE9CE00E94F03DF80181938F0121
:104080002196CF3ED105A1F7DF91CF911F910F91DE
:104090000895EF92FF920F931F93CF93DF93FC014C
:1040A0004081518160E6649F9001659F300D11242D
:1040B000B90161517F4FEC017901F1EBEF1AFEEF8D
:1040C000FF0A49918B010F5F1F4F8AEE9CE00E940F
:1040D000F33D0E151F0511F0B801F3CFDF91CF911D
:1040E0001F910F91FF90EF900895EF92FF920F9321
:1040F0001F93CF93DF937C018B01C0E0D0E0BE0122
:104100006E0D7F1D8AEE9CE00E94F03DF8018193C8
:104110008F012196C036D10591F780E690E0DF91BE
:10412000CF911F910F91FF90EF90089540E6469F29
:104130009001479F300D1124BC01C90181519F4F4F
:10414000D4CF08950F931F93CF93DF93EC018B018E
:10415000BC01605A7F4F20E6249FC001259F900D2F
:10416000112481519F4FC1DFBE016E597F4FC8019D
:10417000DF91CF911F910F910C94EE4DEF92FF9232
:104180000F931F93CF93DF937C018C0101551E4F3A
:10419000C0E0D0E0AE01B801C701D4DF21960C5ECB
:1041A0001F4FCA30D105B1F7DF91CF911F910F9109
:1041B000FF90EF900895CF93DF93EC01DFDFCE0106
:1041C000DF91CF914CCFFC0177836683613071051D
:1041D00081F01CF4672B41F008956230710549F0BD
:1041E0006330710531F0089584E090E0918380831D
:1041F00008957183608308954F925F926F927F92CA
:104200008F929F92AF92BF92CF92DF92EF92FF92E6
:104210000F931F93CF93DF93CDB7DEB72E970FB6D3
:10422000F894DEBF0FBECDBFFC01CB01BA016283A3
:10423000738384839583E080F18022E0E216F104A9
:1042400009F083C02EE0E0EDF2E0DE01119601906E
:104250000D922A95E1F79B01AC010E948A492B013E
:104260003C01CE0101967C015E019FE0A90EB11CCC
:10427000F701C190D1907F01B601882777FD809525
:10428000982F0E948D4A9B01AC01C301B2010E948C
:10429000944B9B01AC0160E074E284E79BE40E94D4
:1042A000F24920E030E04FE753E40E94EE4987FDF9
:1042B00004C0EA14FB04E1F601C0860100341105D4
:1042C000E9F05CF408301105A9F000321105A1F005
:1042D00001301105C9F481E018C00115F1E01F0794
:1042E00079F0011524E0120769F00038110561F436
:1042F00085E00BC082E009C083E007C084E005C010
:1043000086E003C087E001C080E093E49093B000B2
:1043100088608093B100B801882777FD8095982F39
:104320000E948D4A9B01AC01C301B2010E94944BD3
:104330009B01AC0160E074E284E79BE40E94F249D7
:104340000E945F4A6093B300D0C02AE0EEEDF2E035
:10435000DE01119601900D922A95E1F79B01AC01C7
:104360000E948A492B013C01CE0101966C014E014D
:104370009BE0890E911CF601A190B1906F01B501EF
:10438000882777FD8095982F0E948D4A9B01AC016C
:10439000C301B2010E94944B9B01AC0160E074E246
:1043A00084E79BE40E94F24920E03FEF4FE757E4A7
:1043B0000E94EE4987FD04C0C814D904E1F601C08B
:1043C000850100341105A1F03CF40130110571F0B4
:1043D00008301105A9F010C00115F1E01F0751F0D8
:1043E000011524E0120741F485E00DC081E00BC007
:1043F00083E009C084E007C017FD04C080E003C06B
:1044000082E001C087E093E0E916F10459F1E4E0AD
:10441000EE16F10409F448C0EA94EF2809F065C0EB
:1044200093E490938000886180938100B80188278D
:1044300077FD8095982F0E948D4A9B01AC01C301A6
:10444000B2010E94944B9B01AC0160E074E284E7EE
:104450009BE40E94F2490E945A4A7093890060933B
:10446000880043C093E4909390008861809391000A
:10447000B801882777FD8095982F0E948D4A9B016F
:10448000AC01C301B2010E94944B9B01AC0160E0FE
:1044900074E284E79BE40E94F2490E945A4A7093B6
:1044A00099006093980021C093E49093A0008861E4
:1044B0008093A100B801882777FD8095982F0E94EE
:1044C0008D4A9B01AC01C301B2010E94944B9B0138
:1044D000AC0160E074E284E79BE40E94F2490E9430
:1044E0005A4A7093A9006093A8002E960FB6F894CC
:1044F000DEBF0FBECDBFDF91CF911F910F91FF9017
:10450000EF90DF90CF90BF90AF909F908F907F9073
:104510006F905F904F9008954F925F926F927F924D
:104520008F929F92AF92BF92CF92DF92EF92FF92C3
:104530000F931F93CF93DF934C01EB01A8A0B9A079
:10454000CE8CDF8CEC8CFD8C0A8D1B8D2E893F89E7
:10455000488D598D6AA17BA10E94373C34018EE2BF
:10456000680E711CAE84BF84C888D988EA84FB8435
:104570000C851D859E01285D3F4F2401E9E64E0E06
:10458000511C1F921F928D898F938C898F938B89D9
:104590008F938A898F93A201B401C3010E9452367E
:1045A000F401E959FF4FD183C0833696918280820E
:1045B00068817981C3010E94F734CA88DB88EC885E
:1045C000FD880E851F85288939894A855B856C851C
:1045D0007D85C3010E9444340A811B812C813D8169
:1045E0004E815F8168857985C3010E94453560E011
:1045F00070E0C3010E940136F20110821182128222
:1046000013827E01F4E2EF0EF11C840101591F4F69
:10461000F801F182E082CE018D96369691838083F7
:104620000F900F900F900F900F900F90009741F008
:10463000349707979183808361E08EA10E94A44400
:10464000F801F182E08261E08CA10E94A444F401AF
:10465000ED58FF4FCE018C969183808334968A97D4
:104660009183808332962696D183C083DF91CF9148
:104670001F910F91FF90EF90DF90CF90BF90AF9080
:104680009F908F907F906F905F904F9008954F9282
:104690005F926F927F928F929F92AF92BF92CF92D2
:1046A000DF92EF92FF920F931F93CF93DF93EC0172
:1046B0000E94A7428E0105581F4FD8016D937D932C
:1046C0008D939C931397CE010E947C3DF80140810D
:1046D0005181628173815E01F7E6AF0EB11CD50195
:1046E000ED91FC9180819181AA2797FDA095BA2F29
:1046F0007E01E3E8EE0EF11CF701408051806280FC
:104700007380840D951DA61DB71D9E012D583F4F2A
:104710006901481759076A077B0708F4FEC0408300
:104720005183628373837697D183C083CE018E9643
:104730000E942433D601ED91FC918081FE01E7595E
:10474000FF4F4F01811137C04080518062807380DC
:104750004E01FFE78F0E911CD501ED91FC91608118
:104760007181882777FD8095982F0E948D4AA3013B
:1047700092010E94944B20E030E048EC52E40E9409
:10478000F2490E945F4AF4016083718382839383BC
:1047900020E030E040E85FE3C301B2010E94904BAB
:1047A00018160CF0BAC0FE01E159FF4F0190F081DC
:1047B000E02D61E02DC0FE01EB58FF4F0190F0812C
:1047C000E02D8081882309F498C0D4014D905D903C
:1047D0006D907C9020E030E040E85FE3C301B201DF
:1047E0000E94904B87FD18C0C301B2010E945A4A33
:1047F000FE01E159FF4F0190F081E02D80810E9480
:104800008C43FE01EF58FF4F0190F081E02D60E0F6
:1048100080810E94DD4481C020E030E040E85FEB11
:10482000C301B2010E94EE491816C4F13E01B7E877
:104830006B0E711CF30180819E012F583F4F59016F
:10484000882381F0D901ED91FC9162E370E08081D1
:104850000E948C43F301108264E670E080E090E0F7
:104860000E94D642FE01E159FF4F0190F081E02DF8
:1048700060E070E080810E948C43D4012D913D91D5
:104880004D915C9160E070E080E291E40E94894982
:104890000E945A4AD501ED91FC913CC020E030E0E5
:1048A00040E85FE3C301B2010E94EE4987FF35C0D3
:1048B00020E030E040E85FEBC301B2010E94904B82
:1048C00018165CF5FE01E159FF4F0190F081E02DD3
:1048D00060E070E080810E948C43FE01EF58FF4F42
:1048E0000190F081E02D60E080810E94DD4481E054
:1048F000FE01E957FF4F808310C0F4016081718190
:10490000828193810E945A4AFE01E159FF4F019032
:10491000F081E02D80810E948C43D601ED91FC91C5
:10492000808181113CC06E01BFE6CB0ED11CD60147
:10493000ED91FC9180810E941245892B81F1C15833
:10494000DF4F88819981AA81BB81F7014081518124
:1049500062817381840F951FA61FB71FF8014081E4
:10496000518162817381481759076A077B07B8F044
:10497000D601ED91FC9160E08081DF91CF911F9194
:104980000F91FF90EF90DF90CF90BF90AF909F90EE
:104990008F907F906F905F904F900C94DD44DF91EB
:1049A000CF911F910F91FF90EF90DF90CF90BF902C
:1049B000AF909F908F907F906F905F904F900895F1
:1049C000AF92BF92CF92DF92EF92FF920F931F931D
:1049D000CF93DF93EC015A016B018C01025D1F4FF5
:1049E000C8010E94BD36019729F460E070E0C8015B
:1049F0000E940136FE01E758FF4F0190F081E02D43
:104A0000E080F180028113819701A801B501C60100
:104A10000E94EE4987FD02C075018601FE01E9583A
:104A2000FF4F0190F081E02DA080B180C280D38043
:104A30009501A601B701C8010E94904B181614F009
:104A400057016801C759DF4FC501D6018883998393
:104A5000AA83BB83DF91CF911F910F91FF90EF90BD
:104A6000DF90CF90BF90AF900895CF93DF93EC018C
:104A700060E070E08E960E940136FE01E759FF4F1C
:104A8000108211821282138236960190F081E02DFD
:104A900060E080810E94DD44FE01EB58FF4F808181
:104AA0009181892B51F0CF58DF4FE881F98160E087
:104AB0008081DF91CF910C94DD44DF91CF910895F7
:104AC0008E960C940136FC01608171818281938104
:104AD0000895FC0110821482138215820895862F96
:104AE000642F0C94A444862F642F0C94DD44862FED
:104AF0000C9412454F925F926F927F928F929F9289
:104B0000AF92BF92CF92DF92EF920F93CF93DF934A
:104B1000EC014B013A0159010296DBDF89E994E08F
:104B2000998388836E018CE1C80ED11C26018CE329
:104B3000480E511CC601CDDF86E0C80ED11CC4143E
:104B4000D504C1F7FE01EE59FF4F718260823296A3
:104B5000B182A082329600833196E08237979182AB
:104B6000808238968AE090E091838083329684EF49
:104B700091E091838083329611821082C45ADF4F74
:104B8000188219821A821B82DF91CF910F91EF90C8
:104B9000DF90CF90BF90AF909F908F907F906F905D
:104BA0005F904F9008952F923F924F925F926F9235
:104BB0007F928F929F92AF92BF92CF92DF92EF92AD
:104BC000FF920F931F93CF93DF93CDB7DEB7289754
:104BD0000FB6F894DEBF0FBECDBF98878F83F12C40
:104BE0004C0186E6880E911C0F8118850E591F4FC7
:104BF000D4018C91F816A0F4AF81B8858D919C9169
:104C0000F801A081B181AF0DB11DFC01208131817E
:104C100042E06C918F819885F9011995F394E8CF62
:104C2000512CEF81F885E959FF4FFA83E9830F8111
:104C300018850C591F4FC12CD12C7601C3948F813C
:104C400098858E599F4F9C838B83A981BA818C91C3
:104C5000581608F088C0A52CB12CAF81B8858D916D
:104C60009C91F801A081B181AA0DBB1DFC0120819E
:104C7000318141E06C918F819885F9011995AF815F
:104C8000B8858D919C91F801A081B181AA0DBB1DC1
:104C9000FC012281338140E06C918F819885F9017C
:104CA0001995D701C601052C04C0880F991FAA1FAA
:104CB000BB1F0A94D2F79C011C0120943094412C14
:104CC000D4018C91EF81F88540815181481648F5D7
:104CD000642C712CEB81FC81A081B181A60DB71DE4
:104CE000FA01448155816C918F8198852D833E8393
:104CF000FA011995660C771C2D813E81EF81F885AC
:104D0000E60DF71D892B29F480859185822B932B45
:104D100004C0808591858221932191878087439467
:104D2000CFCFF801A081B181AA0DBB1DFA0122816C
:104D3000338141E06C918F819885F9011995AF819C
:104D4000B8858D919C91F801A081B181AA0DBB1D00
:104D5000FC012081318140E06C918F819885F901BF
:104D60001995539472CF28960FB6F894DEBF0FBEF4
:104D7000CDBFDF91CF911F910F91FF90EF90DF900A
:104D8000CF90BF90AF909F908F907F906F905F90EB
:104D90004F903F902F900895FC0180E090E0258D8A
:104DA000368D2617370739F0019636968A309105E9
:104DB000B1F78FEF9FEF0895FC0126E0629FE00DB1
:104DC000F11D112450A3478F21E021A3FC01E459D8
:104DD000FF4F0190F081E02D309721F0DC015C96CF
:104DE0008C9119940895CF92DF92FF920F931F93A5
:104DF000CF93DF931F92CDB7DEB76C01F62EFC0187
:104E000086E0689FE00DF11D112411A2878D90A10D
:104E100081309105E9F01CF4892B51F044C08230B7
:104E2000910591F1039709F03EC040E050E030C099
:104E30004423C9F141E050E0C601BEDF0E94A74211
:104E4000F601E85AFF4F60837183828393832BC0FE
:104E500049830E94A742F601E85AFF4F0081118161
:104E600022813381601B710B820B930B7296008140
:104E7000118120E030E0498106171707280739071C
:104E800018F442E050E004C041110DC043E050E08E
:104E90006F2DC6010F90DF91CF911F910F91FF9061
:104EA000DF90CF9089CF0F90DF91CF911F910F911D
:104EB000FF90DF90CF9008952F923F924F925F9294
:104EC0006F927F928F929F92AF92BF92CF92DF921A
:104ED000EF92FF920F931F93CF93DF931F92CDB763
:104EE000DEB71C01FC014AE08FEF9FEF278D30A158
:104EF000232B21F4148E968F858F11A24150369664
:104F00004111F4CF712C610126E6C20ED11C510172
:104F100087E6A80EB11C4101A0E68A0E911C46E06E
:104F2000442ED6018C91781608F053C0612C810173
:104F3000070D111D070D111D085F1F4FF501E080C2
:104F40006E1408F044C0F80140815181062C02C063
:104F5000569547950A94E2F741707E9C70011124A2
:104F6000E60CF11CD401ED91FC91EE0DFF1D50807B
:104F7000B701C101498310DF498197FD02C0682F45
:104F80001BC0019611F5442301F180E090E060E040
:104F900070E0F101E80FF91F248D211110C0469E29
:104FA000F001479EF00D1124E20DF31D548EF68E94
:104FB000E58E10A2178E41E0C10115DF06C06F5FBC
:104FC0007F4F06966A30710521F76394B7CF7394CB
:104FD000A8CF20E030E080E0F101E20FF31F91A1C3
:104FE000911181E02A5F3F4F2C333105A9F70F90D3
:104FF000DF91CF911F910F91FF90EF90DF90CF90B5
:10500000BF90AF909F908F907F906F905F904F90E8
:105010003F902F900895CF92DF92EF92FF920F93DF
:105020001F93CF93DF938C010E94A742E801C45ADB
:10503000DF4FC880D980EA80FB806C197D098E091A
:105040009F09F801E859FF4FC080D180E12CF12C75
:10505000C616D706E806F90660F4C801A4DDC80143
:105060002BDF182F0E94A742688379838A839B8352
:1050700001C010E0812FDF91CF911F910F91FF9020
:10508000EF90DF90CF900895CF93DF93EC01C3DFD3
:10509000882339F089A1882321F08F8D98A1019769
:1050A00011F080E001C08C8DDF91CF9108950F93B6
:1050B0001F93FC015183408375836483358F248F54
:1050C000178F068F158A148A81E090E09783868374
:1050D000978B868B97878687938782871F910F91FF
:1050E0000895FC01CB01019620813181821793073D
:1050F0001CF08FEF9FEF0895A481B5812EE0269FCD
:10510000A001279F500D11249D01240F351F2E5FF4
:105110003F4FF90165917491FD01E40FF51F709601
:10512000259134916217730721F708951616170613
:10513000E4F4FC01448155818EE0869F9001879FB5
:10514000300D1124CA01820F931F0296FC01A59114
:10515000B491FA01E20FF31F3C9785919491A8173F
:10516000B90719F4CB01019708958FEF9FEF0895C8
:105170004EE0469F9001479F300D1124DC011496AC
:10518000ED91FC911597E20FF31F32968591949162
:1051900008954EE0469F9001479F300D1124DC0199
:1051A0001496ED91FC911597E20FF31F34968591BB
:1051B00094910895CF93DF93EB016EE0649F90018B
:1051C000659F300D1124DC011496ED91FC9115972B
:1051D000E20FF31F65917491CE010E94E74DCE015D
:1051E000DF91CF910895CF93DF93EC016C857D859E
:1051F0007D8B6C8B888999896817790719F4CE01A2
:10520000C8DF02C0CE016DDF9F8B8E8B6E897F89D8
:10521000CE0167DF998F888FBC01CE0162DF9B8F43
:105220008A8FDF91CF9108954EE0469F9001479F6E
:10523000300D1124DC011496ED91FC911597E20FCD
:10524000F31F3A968591949108954EE0469F900100
:10525000479F300D1124DC011496ED91FC911597B8
:10526000E20FF31F38968591949108954EE0469F82
:105270009001479F300D1124DC011496ED91FC91B3
:105280001597E20FF31F36968591949108950F9329
:105290001F93CF93DF938C01FC0162857385C4DF7C
:1052A00086309105E9F0A4F4049709F06CC0F80188
:1052B00062857385C801DADFEC01F80162857385C8
:1052C000C801D4DFFC01808191E0892788835BC01D
:1052D0008A30910509F43DC00C9709F43AC053C0D7
:1052E000F80162857385C801C1DFFC01808191816D
:1052F000F801628573850B9784F4C801B7DFEC0170
:10530000F80162857385C801B1DFFC01208131811C
:105310002F5F3F4F3983288336C0C801A7DFEC01D8
:10532000F80162857385C801A1DFFC01608171818C
:10533000882777FD8095982F0E948D4A2DEC3CECB4
:105340004CE85FE30E94944B0E945A4A7983688339
:105350001AC0F80162857385C80188DFEC01F80185
:1053600062857385C80182DF2DEC3CEC4CE85FE37D
:10537000FC0160817181828193810E94944B6883DA
:1053800079838A839B83DF91CF911F910F91089539
:105390000F931F93CF93DF938C01FC01628573857C
:1053A00043DF86309105E9F0A4F4049709F06CC05E
:1053B000F80162857385C80159DFEC01F801628547
:1053C0007385C80153DFFC01808191E089278883C0
:1053D0005BC08A30910509F43DC00C9709F43AC0CE
:1053E00053C0F80162857385C80140DFFC018081EC
:1053F0009181F801628573850B9784F4C80136DFCB
:10540000EC01F80162857385C80130DFFC01208161
:105410003181215031093983288336C0C80126DF04
:10542000EC01F80162857385C80120DFFC01608111
:105430007181882777FD8095982F0E948D4A2DECE9
:105440003CEC4CE85FE30E94F2490E945A4A79839F
:1054500068831AC0F80162857385C80107DFEC0113
:10546000F80162857385C80101DF2DEC3CEC4CE846
:105470005FE3FC0160817181828193810E94F24926
:10548000688379838A839B83DF91CF911F910F91EA
:105490000895EF92FF920F931F93CF93DF93EC0148
:1054A0008B017A01C1DE8830910509F450C0A4F463
:1054B00084309105C1F1069709F073C0B801CE019F
:1054C000D5DEEC01F70160817181828193810E94B8
:1054D0005A4A7983688365C08C30910509F447C0C6
:1054E0008E30910509F451C00A9709F05AC0B801ED
:1054F000CE01BCDEF7014081518162817381FC01E4
:105500004083518362837383B801CE01AFDEFC0117
:10551000408151816281738122E030E084EB9DE023
:105520000E94784924C0B801CE01A0DEEC0111E050
:1055300020E030E0A901F7016081718182819381CF
:105540000E94EE49811101C010E018832AC0B80101
:10555000CE018CDEEC01F701608171818281938143
:105560000E945F4A688379838A839B831AC0B8014B
:10557000CE017CDEF7014081518162817381FC01A3
:1055800040835183628373830CC0B801CE016EDE09
:10559000B701DF91CF911F910F91FF90EF900C9485
:1055A000EE4DDF91CF911F910F91FF90EF900895F5
:1055B0002F923F924F925F926F927F928F929F9223
:1055C000AF92BF92CF92DF92EF92FF920F931F9311
:1055D000CF93DF93CDB7DEB7A8970FB6F894DEBFB1
:1055E0000FBECDBF8C015B011FDE01978F3091058F
:1055F00008F03EC08E589F4FFC010C94874DB501BA
:10560000C80134DEDC016C9170E080E090E017C0EE
:10561000B501C8012BDEFC0160817181882777FD0F
:105620008095982F0E948D4A6B017C0121C0B501A5
:10563000C8011CDEDC016D917D918D919C910E94D1
:105640008B4AF2CFB501C80111DEFC01C080D180C8
:10565000E280F3800DC0B501C80108DEFC01DC0169
:105660000D900020E9F7CD0101978E1B9F0B58C0CC
:1056700084E2E8EEF2E0DE01119601900D928A9547
:10568000E1F720E030E0A901C701B6010E94904B8C
:1056900026013701181624F077FA709477F8709481
:1056A0001E01B5E02B0E311C88248394912CF1014E
:1056B00021913191419151911F01C301B2012DA35B
:1056C0003EA34FA358A70E945F4A2DA13EA14FA120
:1056D00058A50E94654D232B242B252B39F0FFEF75
:1056E0008F1A9F0A89E08816910409F720E030E0BC
:1056F000A901C701B6010E94EE4987FF03C0AFEFC1
:105700008A1A9A0AB501C801A0DD181619063CF4D8
:10571000B501C8019ADD880D991D019601C0C4012B
:10572000A8960FB6F894DEBF0FBECDBFDF91CF9124
:105730001F910F91FF90EF90DF90CF90BF90AF90AF
:105740009F908F907F906F905F904F903F902F90A1
:1057500008952F923F924F925F926F927F928F9215
:105760009F92AF92BF92CF92DF92EF92FF920F93F0
:105770001F93CF93DF93CDB7DEB7AA970FB6F894F8
:10578000DEBF0FBECDBF8C016B017A01BA014CDDCB
:1057900001978F30910508F09AC18F579F4FFC01F8
:1057A0000C94874DB701C80161DDFC01808188231D
:1057B00011F081E301C080E3F601808388C1B70165
:1057C000C80154DD4AE050E0B601FC0180819181BE
:1057D00074C1B701C8014ADDFC01208131814281D9
:1057E0005381B701C8012FA338A749A75AA73EDDA7
:1057F000FC0180809180A280B38081E02FA138A538
:1058000049A55AA5211531054105510509F080E04A
:1058100000E010E0E82EF12C6AE0462E512C612CBD
:10582000712CC8018E0D9F1D0F5F1F4F2115310573
:105830004105510539F0CA01B901A30192010E9445
:10584000654DEFCF7601E80EF91EF7011082C50114
:10585000B4012AE030E040E050E00E94654D2901AB
:105860003A01AAE0B0E00E94934D95018401061B25
:10587000170B280B390BB901A8010A3011052105B6
:10588000310510F480E30AC0D901C8010A97A109C3
:10589000B1090697A105B10528F487E3840FF70144
:1058A00082937F01411451046104710409F40FC112
:1058B00053014201CCCF84E2ECE0F3E0DE0111962B
:1058C00001900D928A95E1F7B701C801CFDCFC0188
:1058D00060817181828193810E945A4A2B013C012F
:1058E0004AE050E0B601C2010E94F54DC6015C01DC
:1058F0000196F50120812111FACFB701C801A5DC7D
:10590000892B09F4E4C01501FFEF2F1A3F0A8EE23C
:10591000F5018083B701C801A9DC5C01C301B201B4
:105920000E948D4A2B013C019B01AC01F501608175
:105930007181828193810E9489494B015C01B70189
:10594000C80183DCFC01EE0FFF1FEE0FFF1F21E0FB
:1059500030E02C0F3D1FE20FF31F608171818281C7
:1059600093810E948D4A9B01AC01C501B4010E9444
:10597000944B20E030E0A9010E94904BB70118162B
:1059800074F5C80173DCA3019201FC01608171818F
:10599000828193810E9489494B015C01B701C80152
:1059A00054DCFC01EE0FFF1FEE0FFF1F21E030E083
:1059B0002C0F3D1FE20FF31F608171818281938163
:1059C0000E948D4A9B01AC01C501B4010E94944B19
:1059D00020E030E040E05FE30E948A492FC0C80128
:1059E00045DCA3019201FC01608171818281938178
:1059F0000E9489494B015C01B701C80126DCFC010A
:105A0000EE0FFF1FEE0FFF1F21E030E02C0F3D1FB8
:105A1000E20FF31F60817181828193810E948D4A20
:105A20009B01AC01C501B4010E94944B9B01AC01E8
:105A300060E070E080E09FE30E9489490E94C84ACC
:105A40000E945A4A2B013C017EA36DA3B701C801F5
:105A5000FCDBB101AC01440F551F440F551FE1E0C1
:105A6000F0E0EC0FFD1F4E0F5F1F20E030E0EDA1D6
:105A7000FEA17F010027F7FC0095102FA0E3FA019B
:105A8000E20FF31F349780809180A280B3808E1440
:105A90009F04A006B10644F40DA11EA1012BB9F08C
:105AA0004AE050E0C20109C024503109019797FD36
:105AB000F3CFFB01A193BF01E2CF0E94F54D07C0D8
:105AC000B701C801D3DBBC01C6010E94EE4DC6017F
:105AD000AA960FB6F894DEBF0FBECDBFDF91CF916F
