:100000000C940A0E0C943B0E0C943B0E0C943B0E7D
:100010000C943B0E0C943B0E0C943B0E0C943B0E3C
:100020000C943B0E0C943B0E0C943B0E0C943B0E2C
:100030000C943B0E0C943B0E0C943B0E0C943B0E1C
:100040000C943B0E0C943B0E0C943B0E0C943B0E0C
:100050000C943B0E0C943B0E0C943B0E0C947F4581
:100060000C943B0E0C94CB490C94014A0C943B0E1F
:100070000C943B0E0C943B0E0C943B0E0C943B0EDC
:100080000C943B0E0C943B0E0C943B0E0C943B0ECC
:100090000C943B0E0C943B0E0C943B0E0C94514470
:1000A0000C943B0E0C943B0E0C943B0E0C943B0EAC
:1000B0000C943B0E0C943B0E0C943B0E0C943B0E9C
:1000C0000C943B0E0C943B0E0C943B0E0C943B0E8C
:1000D0000C943B0E0C943B0E0C943B0E0C943B0E7C
:1000E0000C943B0E4A2E572E572E1E2E1E2E272EB8
:1000F000272E362E362E412E412E412E412E4A2EAF
:100100004A2E7F3086308630F12EF12EFE2EFE2EC6
:10011000082F082F7A2F7A2F7A2F7A2F7F307F306F
:100120008B3490348B3490348B3490348B349034C3
:100130008B3490348B3490348E34D246D746DC46A0
:10014000E646F0466947FA4602470A4714471E4703
:1001500028473747414769474B4755475F478B47D4
:100160008E477D4781478747C547924796479C47BB
:10017000A047A447AA47AE47B247C547B847BC47C0
:10018000C04707634236B79BD8A71A39685618AEDE
:10019000BAAB558C1D3CB7CC5763BD6DEDFD753EBC
:1001A000F6177231BF000000803F08000000BE92C9
:1001B0002449123EABAAAA2ABECDCCCC4C3E0000AC
:1001C0000080BEABAAAAAA3E00000000BF0000004B
:1001D000803F0000000000084178D3BB4387D11363
:1001E0003D190E3CC3BD4282AD2B3E68EC8276BE0B
:1001F000D98FE1A93E4C80EFFFBE01C4FF7F3F00D5
:10020000000000004229204E6F00412920596573EB
:1002100000536176652053657474696E67733F009F
:10022000696E207468652073706F6F6C6572206DE5
:10023000656E75007468652073706F6F6C2044691B
:100240006D656E73696F6E7300446F6E2774206600
:100250006F7267657420746F207365742000422983
:1002600020457869740041292053746F70007072C2
:100270006573732053746F70206174203120726530
:10028000762E004229204578697400412920426574
:1002900067696E0070726573732053746F702061AC
:1002A000742031207265762E00506C616365207277
:1002B0006F6C6C6572206F6E204469736B00526FB7
:1002C0006C6C65722F4469736B2054657374006D98
:1002D0006963726F737465702073657474696E6797
:1002E000730074686520776972696E6720616E6457
:1002F000006D616B652031207265762C2063686526
:10030000636B0049662073706F6F6C65722064695F
:10031000646E277400526F746174696E67203120B7
:100320007265762E2E2E0042292045786974004190
:100330002920426567696E00417474656D70746947
:100340006E67203120726576004D61726B20746893
:100350006520526F6C6C65722E20004D6963726F60
:1003600073746570696E6720546573740044292046
:1003700045786974004229204E6F00412920596553
:10038000730073706F6F6C657220646972204F4BDD
:100390003F004229204E6F004129205965730043D8
:1003A0006F6E74696E75653F0073706F6F6C657208
:1003B00020446972656374696F6E2E2E2E00442985
:1003C0002045584954004329205768656E204469E8
:1003D0007361626C656400412920456E61626C65E1
:1003E0002F44697361626C65004229204E6F0041A1
:1003F000292059657300436F6E74696E75653F00FF
:10040000666F6C6C6F77696E672074657374732E9A
:1004100000746F20706572666F726D20746865007D
:100420006D757374206265206672656520746F2037
:100430006D6F7665005741524E494E473A205468D9
:10044000652053706F6F6C6572004C6F6164207330
:10045000616D706C65207468656E20706F72657375
:1004600073202744272E205072657373202743275B
:10047000207768656E20446F6E652E00537465703A
:1004800020333A204C6F61642073616D706C65732A
:100490002077697468206B6E6F776E204469616D98
:1004A000657465722E204D696E696D756D206F667D
:1004B00020332E205468656E205265636F7264206D
:1004C0004469616D657465722E005468656E2050D4
:1004D00072657373203C656E7465723E005374657B
:1004E00070323A2041646A757374207468652073B1
:1004F000656E736F7220756E74696C206974206903
:1005000073206265747765656E2034353020616EC6
:1005100064203535302E005374657020323A204106
:10052000646A757374207468650053746570203153
:100530003A204C6F61642066696C616D656E742051
:100540007769746820746172676574206469616D8D
:10055000657465722E005072657373203C656E740D
:1005600065723E00776974682074617267657420F3
:100570004469616D65746572005374657020313A29
:100580004C6F61642066696C616D656E74004361D7
:100590006C697065722043616C6962726174696F25
:1005A0006E0043616C697065722043616C696272B0
:1005B0006174696F6E004229204E6F0041292059F5
:1005C000657300536176652053657474696E677353
:1005D0003F006D6963726F73746570207365747426
:1005E000696E67730074686520776972696E672049
:1005F000616E64006D616B652031207265762C2020
:10060000636865636B00496620746865206175677F
:100610006572206469646E277400526F7461746936
:100620006E672031207265762E2E2E0042292045DD
:1006300078697400412920426567696E00417474CD
:10064000656D7074696E67203120726576004D614A
:10065000726B207468652073686166742E20004D8B
:100660006963726F73746570696E67205465737423
:100670000044292045786974004229204E6F0041CA
:100680002920596573004175676572206469726538
:100690006374696F6E204F4B3F004229204E6F00FC
:1006A00041292059657300436F6E74696E75653F0B
:1006B00000417567657220446972656374696F6E85
:1006C0002054657374004429204558495400432937
:1006D000205768656E2044697361626C65640041EF
:1006E0002920456E61626C652F44697361626C6597
:1006F000004229204E6F0041292059657300436F45
:100700006E74696E75653F00666F6C6C6F77696EAD
:10071000672074657374732E00746F207065726641
:100720006F726D20746865006D757374206265204A
:100730006672656520746F206D6F76650057415253
:100740004E494E473A2054686520417567657200EE
:100750004229204E6F004129205965730053746F60
:100760007020457874727564696E673F00526573D6
:10077000657474696E6720454550524F4D2E2E2E7C
:1007800000526573657474696E67207468652045EE
:100790004550524F4D2E2E2E004229204E6F0041C3
:1007A000292059657300576F756C6420796F752027
:1007B0006C696B6520746F2070726F636565643F50
:1007C000007468652064656661756C742073657477
:1007D00074696E67730073746F7265642070726FF2
:1007E00066696C657320776974680077696C6C2042
:1007F0006F766572777269746520616C6C20005742
:1008000041524E494E473A205468697320616374DF
:10081000696F6E005741524E494E473A20546869FD
:100820007320616374696F6E2077696C6C206F76DA
:100830006572776972746520616C6C2073746F7275
:1008400065642070726F66696C657320776974687F
:10085000207468652064656661756C7420536574E6
:1008600074696E67732E0050726F66696C652053F1
:100870006176656400536176696E672070726F6699
:10088000696C652E2E2E00536176696E6720536564
:100890007474696E677320666F722070726F666918
:1008A0006C65206E756D6265723A2000436F6E66EE
:1008B000696775726174696F6E2053617665640053
:1008C000536176696E672E2E2E0046696E697368D5
:1008D000656420536F616B696E670054696D6528AC
:1008E00073292C20446961286D6D292C206F757443
:1008F0006665656452504D2C20737461727665464E
:10090000656564657252504D2C2020617567657273
:1009100052504D2C204D6F64652C206F75746665A8
:1009200065644B702C206F7574666565644B692C2B
:10093000206F7574666565644B642C20666565641C
:1009400052617465286D2F6D696E292C206D657458
:100950006572734578747275646564003A14FFFFBC
:100960000100000000000000E41631140000FFFF49
:10097000330200000F00000096180000FFFF930AEA
:1009800002000A008C1122140000FFFF570A000029
:10099000070000006E160000FFFF6D0A01000D0049
:1009A000000062160000FFFF690A01000D00000050
:1009B00056160000FFFF650A01000D0000004518F3
:1009C0000000FFFFB90A00000C000000351800000D
:1009D000FFFFBD0A00000C00000025180000FFFF0B
:1009E000C10A00000C0000008C180000FFFF970AED
:1009F00001000A00FD0E80180000FFFF9B0A0100A5
:100A00000C00090F49140000FFFF370200000F001F
:100A10005E11BC170000FFFF2B0200000F00001347
:100A2000BB180000FFFF730A00000E000000B218A0
:100A30000000FFFF870A02000C000000A018000061
:100A4000FFFF8F0A02000A00000075180000FFFF78
:100A5000A30A02000C0098116A180000FFFF9F0A09
:100A600002000C0098115F180000FFFFA70A0200A7
:100A70000C00981155180000FFFFB50A00000C008B
:100A800000007F14FFFF0100000000000000E716D7
:100A900070140000FFFF5F0A00000F0000006014E8
:100AA0000000FFFF000000000300A80E5714000024
:100AB000FFFF000000000300690E49140000FFFF63
:100AC000370200000F005E116E160000FFFF6D0A76
:100AD00001000D00000062160000FFFF690A01001E
:100AE0000D00000056160000FFFF650A01000D0012
:100AF000000045180000FFFFB90A00000C000000CC
:100B000035180000FFFFBD0A00000C00000025188A
:100B10000000FFFFC10A00000C000000BB1800002D
:100B2000FFFF730A00000E000000B2180000FFFF74
:100B3000870A02000C000000A0180000FFFF8F0AC7
:100B400002000A00000096180000FFFF930A02004E
:100B50000A008C11BC170000FFFF2B0200000F00E1
:100B600000138C180000FFFF970A01000A00FD0E19
:100B700080180000FFFF9B0A01000C00090F751888
:100B80000000FFFFA30A02000C0098116A18000081
:100B9000FFFF9F0A02000C0098115F180000FFFF82
:100BA000A70A02000C00981155180000FFFFB50AB3
:100BB00000000C000000D114FFFF01000000000045
:100BC0000000E616C2140000FFFF590A00000F00E3
:100BD00000006E160000FFFF6D0A01000D0000000E
:100BE00062160000FFFF690A01000D0000005616A2
:100BF0000000FFFF650A01000D000000451800001D
:100C0000FFFFB90A00000C00000035180000FFFFCC
:100C1000BD0A00000C00000025180000FFFFC10AFB
:100C200000000C000000AF140000FFFF00000000F7
:100C300003003F0E9C140000FFFF000000000300B3
:100C4000540E92140000FFFF0000000003009A0EF3
:100C5000CE170000FFFF0000000003008011C9173D
:100C60000000FFFF0000000003008811BC17000017
:100C7000FFFF2B0200000F000013BB180000FFFF56
:100C8000730A00000E000000B2180000FFFF870A80
:100C900002000C000000A0180000FFFF8F0A0200F5
:100CA0000A00000096180000FFFF930A02000A00E5
:100CB00000008C180000FFFF970A01000A000000E6
:100CC00080180000FFFF9B0A01000C00000075184F
:100CD0000000FFFFA30A02000C0000006A180000D9
:100CE000FFFF9F0A02000C0000005F180000FFFFDA
:100CF000A70A02000C00000055180000FFFFB50A0B
:100D000000000C000000EB14FFFF010000000000D9
:100D10000000E5166E160000FFFF6D0A01000D00D1
:100D2000000062160000FFFF690A01000D000000CC
:100D300056160000FFFF650A01000D00000045186F
:100D40000000FFFFB90A00000C0000003518000089
:100D5000FFFFBD0A00000C00000025180000FFFF87
:100D6000C10A00000C000000DE140000FFFF0000BC
:100D7000000003008C0EBB180000FFFF730A000088
:100D80000E000000B2180000FFFF870A02000C00EE
:100D90000000A0180000FFFF8F0A02000A000000F8
:100DA00096180000FFFF930A02000A000000BC171B
:100DB0000000FFFF2B0200000F0000138C18000042
:100DC000FFFF970A01000A00000080180000FFFFE3
:100DD0009B0A01000C00000075180000FFFFA30A29
:100DE00002000C0000006A180000FFFF9F0A0200CA
:100DF0000C0000005F180000FFFFA70A02000C00B3
:100E0000000055180000FFFFB50A00000C000000AC
:100E10002719FFFF01000000000000000000181962
:100E20000000040000000000000000000E19000097
:100E30001F000000000000000000041900006C000A
:100E40000000000000000000011901000F00200C4C
:100E5000000001009110FE1801000F00340C00008A
:100E600001009710FB1801000F00480C0000010062
:100E70009D10F81801000F005C0C00000100A31089
:100E8000F51801000F00700C00000100A910F21805
:100E900001000F00840C00000100AF10EF180100EA
:100EA0000F00980C00000100B510EC1801000F00B5
:100EB000AC0C00000100BB10E91801000F00C00CD1
:100EC00000000100C110E51801000F00D40C000063
:100ED0000100C710D51801000F000000000000003D
:100EE000CD10CD180400FFFF0000000000007E0EB2
:100EF000C0180400FFFF000000000000D110BB1864
:100F00000400FFFF730A00000E000000B218040086
:100F1000FFFF870A02000C000000AA180400FFFF70
:100F20008B0A02000C000000A0180400FFFF8F0ACB
:100F300002000A00000096180400FFFF930A020056
:100F40000A0000008C180400FFFF970A01000A0045
:100F5000000080180400FFFF9B0A01000C00000045
:100F600075180400FFFFA30A02000C0000006A18B5
:100F70000400FFFF9F0A02000C0000005F1804003D
:100F8000FFFFA70A02000C00000055180400FFFF35
:100F9000B50A00000C00000045180400FFFFB90A64
:100FA00000000C00000035180400FFFFBD0A00001F
:100FB0000C00000025180400FFFFC10A00000C000F
:100FC000000012180200FFFF00000000030069107B
:100FD0000518020025000000000000000000FF17B7
:100FE00002003D000000000000000000F1170200B8
:100FF00043000000000000000000E91702005B0051
:101000000000000000000000E11702006300000083
:10101000000000000000CE172000FFFF00000000CD
:1010200003008011C9172000FFFF0000000003002B
:101030008811BC172000FFFF2B0200000F000013D7
:10104000B0172000FFFF0000000003009C11A11753
:101050002000FFFF3102000006000000971720006B
:10106000FFFF000000000300A8118A172000FFFF07
:101070002F0200000600000096182000FFFF930AD0
:1010800002000A00000085172000FFFF000000009A
:101090000300051177172000FFFF330B0000060047
:1010A00000006D172000FFFF350B02000A00000052
:1010B0005F172000FFFF390B0000060000005117EA
:1010C0002000FFFF3B0B0000060000004617200039
:1010D000FFFF3D0B00000600000039172000FFFF56
:1010E0003F0B0000060000002B172000FFFF410B04
:1010F00000000600000021172000FFFF430B000046
:101100000400000017172000FFFF440B000006003A
:10111000000005172000FFFF460B0000060000003E
:10112000F8162000FFFF480B000006000000EC1638
:101130002000FFFF4C0B000006000000E01620001E
:10114000FFFF4E0B000006000000D3162000FFFF3B
:10115000500B000006000000C5162000FFFF520BD8
:10116000000006000000BA162100FFFF000000008A
:101170000300E816B2162100FFFF540B0000060022
:101180000000A8162100FFFF560B0000060000001B
:101190009E162100FFFF580B000004000000971668
:1011A0002100FFFF590B0000040000008B162100F6
:1011B000FFFF5A0B02000A0000007A162200FFFF10
:1011C0003B0200000F000E116E162200FFFF6D0A99
:1011D00001000D00000062162200FFFF690A0100F5
:1011E0000D00000056162200FFFF650A01000D00E9
:1011F000000045182200FFFFAE0B00000C000000AD
:1012000035182200FFFFDC0B00000C000000251841
:101210002200FFFF0A0C00000C000000491622000B
:10122000FFFF860B0000060000003F162200FFFFB4
:10123000880B00000C00000035162200FFFF8C0B0D
:1012400000000C0000002F162200FFFF900B020090
:101250000C00000029162200FFFF940B02000C0076
:10126000000023162200FFFF980B02000C00000074
:1012700016162200FFFFB40B0000060000000C163B
:101280002200FFFFB60B00000C0000000216220037
:10129000FFFFBA0B00000C000000FC152200FFFF4E
:1012A000BE0B02000C000000F6152200FFFFC20B6F
:1012B00002000C000000F0152200FFFFC60B020028
:1012C0000C000000E6152200FFFFE40B00000C00FC
:1012D0000000DC152200FFFFE80B00000C000000FE
:1012E000D6152200FFFFEC0B02000C000000D01509
:1012F0002200FFFFF00B02000C000000CA152200C4
:10130000FFFFF40B02000C000000BD152300FFFFDF
:10131000000000000300D91FB5152300FFFF5E0B7E
:10132000000006000000AB152300FFFF600B00006B
:1013300006000000A1152300FFFF620B000004005F
:1013400000009A152300FFFF630B0000040000005B
:101350008C152300FFFF640B02000A0000008415B7
:101360002300FFFF680B02000C0000007C15230027
:10137000FFFF6C0B02000C0000006F152400FFFF44
:101380000000000003006C1967152400FFFF700BBC
:101390000000060000005D152400FFFF720B000036
:1013A0000600000053152400FFFF740B000004002A
:1013B00000004C152400FFFF750B00000400000026
:1013C00040152400FFFF760B02000A0000003415D0
:1013D0002400FFFF7A0B02000A00000027152400FA
:1013E000FFFF7E0B02000A00000019152400FFFF1A
:1013F000820B02000A000000BC170300FFFF2B0253
:1014000000000F00001308150300FFFF0000FFFF9E
:1014100003003D0EFB140300FFFF0000000003006B
:10142000C4154772616D7320457874727564656484
:10143000004469616D657465720045787472756405
:10144000696E672E202E202E0053746172766520FF
:10145000466565646572004164642054696D650089
:1014600046696C616D656E74204C6F6164656400E3
:1014700054696D652052656D61696E696E67004CD7
:101480006F61642046696C616D656E742E202E203C
:101490002E00536B697020536F616B00446563725B
:1014A0006561736520536F616B2054696D650049F8
:1014B0006E63726561736520536F616B2054696D53
:1014C000650054696D652052656D61696E696E676E
:1014D00000536F616B696E672E202E202E00536BB8
:1014E0006970205072656865617400507265686546
:1014F0006174696E672E202E202E0052657365740C
:1015000020454550524F4D004D6561737572652001
:1015100046696C616D656E7400526F6C6C6572200B
:1015200052616469757300547261766572736520E7
:101530004C656E00436F726520526164697573007B
:101540004469736B2052616469757300456E616212
:101550006C6500446972656374696F6E00537465ED
:1015600070204D6F64650050696E2053657400549F
:101570006573742053706F6F6C6572004D696E20D7
:1015800052504D004D61782052504D00526F6C6C9E
:1015900065722052616469757300456E61626C65A5
:1015A00000446972656374696F6E005374657020DE
:1015B0004D6F64650050696E205365740054657307
:1015C00074204F757466656564005A33204B64005F
:1015D0005A33204B69005A33204B70005A33204D48
:1015E000696E204443005A33204D61782044430003
:1015F0005A32204B64005A32204B69005A32204B39
:1016000070005A32204D696E204443005A32204DFA
:101610006178204443005A322054696D652062612C
:101620007365005A31204B64005A31204B69005ACF
:1016300031204B70005A31204D696E204443005ACE
:1016400031204D6178204443005A312054696D6542
:101650002062617365005A6F6E6520332054656D9A
:1016600070005A6F6E6520322054656D70005A6F9D
:101670006E6520312054656D700041637469766138
:1016800074652048656174657273004765617220F6
:10169000526174696F6E00456E61626C65004469E9
:1016A00072656374696F6E0053746570204D6F646A
:1016B000650050696E205365740054657374204151
:1016C00075676572004465626F756E636520546965
:1016D0006D6500537461727475702054696D650096
:1016E0004D617846696C6C54696D65004D696E4654
:1016F000696C6C54696D65004D617844757479430B
:1017000079636C65005374617274757020447574EC
:10171000794379636C6500447574794379636C65CA
:1017200000446972656374696F6E004F766572205C
:10173000526F746174696F6E00486F6D696E6720D7
:1017400044656C617900537465702044656C6179FF
:101750000044756D7020506F736974696F6E004836
:101760006F6D6520506F736974696F6E004C756D95
:1017700070204D61737300536C6176652041646421
:10178000726573730053746F700054696D652074D3
:101790006F2073656E640053656E642054696D65D7
:1017A000004379636C657320746F2073656E640009
:1017B00053656E64204379636C65730046656564A8
:1017C00020506C61737469630044756D70005465DA
:1017D0007374205374617276652046656564657222
:1017E0000053706F6F6C6572004F75746665656449
:1017F0000048656174657220436F6E6669670041D9
:1018000075676572005374617276654665656465D7
:1018100072005361766520436F6E66696775726109
:1018200074696F6E005A6F6E6520332053657420A3
:1018300054656D70005A6F6E6520322053657420B8
:1018400054656D70005A6F6E6520312053657420A9
:1018500054656D7000536F616B2054696D65004F66
:10186000757466656564205064004F7574666565BF
:1018700064204B69004F757466656564204B700089
:101880004F7574666565642052504D0041756765FB
:10189000722052504D004772616D732F4D696E007A
:1018A000546F6C6572616E63650044656E73697434
:1018B00079004469616D65746572004E616D650003
:1018C000536176652050726F66696C650045787467
:1018D000727564650044656661756C742050726F42
:1018E00066696C65003130290039290038290037D4
:1018F00029003629003529003429003329003229EE
:1019000000312900417578696C6961727900436121
:101910006C6962726174650053656C656374205014
:10192000726F66696C65004D61696E204D656E75FC
:1019300000536176696E6720436F6E6669672E009B
:10194000F5031600F3031900F1031E00E903280054
:10195000E2033200D2033C00C2034600AD03500054
:1019600091035A006F03640048036E001603780069
:10197000E4028200AA028C00710296004302A000D9
:101980000102AA00CA01B4008B01BE005201C800C6
:101990002C01D2000901DC00EB00E600C800F000D9
:1019A000AC00FA009600040182000E0172001801DA
:1019B0006300220153002C0100000A0B02090C0DE8
:1019C0000E080703040100000000000000000000F2
:1019D0000000000000000000000000000000000007
:1019E00000000000121110000000000000000000C4
:1019F00000000000000000000000000000000102E4
:101A00001020200808102040102040800201020110
:101A100008040201010204081020408080402010C8
:101A20000804020180040201804020100804020121
:101A30000804020101020408102040800102040889
:101A40001020408005050505070508080808020262
:101A500002020A0A08080404040401010101010148
:101A600001010303030303030303040707070C0C2B
:101A70000C0C0C0C0C0C02020202060606060606F2
:101A800006060B0B0B0B0B0B0B0B000020002300AF
:101A9000260029002C002F00320000010000030165
:101AA0000601090100002200250028002B002E005D
:101AB0003100340002010000050108010B010000A3
:101AC0002100240027002A002D00300033000101EE
:101AD0000000040107010A014E414E494E49545984
:101AE000494E46CDCCCC3D0AD7233C17B7D13877E9
:101AF000CC2B329595E6241FB14F0A0000204100FF
:101B000000C84200401C4620BCBE4CCA1B0E5AAE48
:101B1000C59D7400407A10F35A00A0724E18090057
:101B200010A5D4E80000E87648170000E40B540242
:101B30000000CA9A3B000000E1F50500008096987D
:101B400000000040420F000000A0860100000010CD
:101B50002700000000E8030000000064000000000F
:101B6000000A00000000000100000000002C76D8F0
:101B700088DC674F0823DFC1DFAE59E1B1B796E5D6
:101B8000E3E453C63AE651997696E8E6C28426EB3A
:101B9000898C9B62ED407C6FFCEFBC9C9F40F2BA4D
:101BA000A56FA5F490055A2AF75C936B6CF9676DE5
:101BB000C11BFCE0E40D47FEF520E6B500D0ED903A
:101BC0002E0300943577050080841E080000204E07
:101BD0000A000000C80C333333330F986E128311A0
:101BE00041EF8D2114893BE65516CFFEE6DB18D177
:101BF000844B381BF77C1D901DA4BBE42420328449
:101C0000725E228100C9F124ECA1E53D2700151484
:101C10007243334A11241FBECFEFD1E2DEBFCDBFE6
:101C200000E00CBF14E0A0E0B2E0EAEEFAEA00E067
:101C30000BBF02C007900D92A23FB107D9F72EE06B
:101C4000A2EFB4E001C01D92A736B207E1F71CE194
:101C5000C4E1DCE100E006C022970109FE010BBFF0
:101C60000E94E850CE30D10780E00807A9F70E9413
:101C7000774A0C9473550C94000008950895809150
:101C8000160590911705A0911805B0911905805A75
:101C90009541AF4FBF4F8093160590931705A093C2
:101CA0001805B093190508958091160590911705B0
:101CB000A0911805B091190580569A4EA109B10955
:101CC0008093160590931705A0931805B0931905F6
:101CD000089580910E0590910F05A0911005B09187
:101CE0001105805A9541AF4FBF4F80930E059093D9
:101CF0000F05A0931005B0931105089581E090E0C1
:101D00009093560A8093550A84E496E090932305B5
:101D1000809322050C94FE3183E090E09093560A64
:101D20008093550A84EE95E09093230580932205D5
:101D30000C94FE3185E090E09093560A8093550A0A
:101D400084E895E090932305809322050C94FE315E
:101D500087E090E09093560A8093550A84E295E0DC
:101D600090932305809322050C94FE31CF92DF924D
:101D7000EF92FF926CE273E088EC9DE00E94FB4AD8
:101D80000E94C94560931A0570931B0580931C053A
:101D900090931D050E94D64D6B017C0120E030E040
:101DA00040E752E46091B50A7091B60A8091B70A93
:101DB0009091B80A0E94DF4E20E030E04AE754E4F8
:101DC0000E94DF4E9B01AC01C701B6010E94D54CB9
:101DD0000E94AA4D6093160570931705809318050D
:101DE0009093190584E090E09093560A8093550AE9
:101DF000FF90EF90DF90CF9008954091970A509117
:101E0000980A6091990A70919A0A8EEE97E00C9464
:101E1000CD3D89E697E00E945A3540919B0A50914A
:101E20009C0A60919D0A70919E0A89E697E00C9445
:101E30003435CF92DF92EF92FF9280910002882397
:101E400081F120E030E0A9016091970A7091980A31
:101E50008091990A90919A0A0E94DB4E1816FCF420
:101E60008091000581111BC084E097E00E94E93950
:101E70008EEE97E00E94083E81E08093000581E0AD
:101E800090E09093FF048093FE040E94C945609304
:101E9000FA047093FB048093FC049093FD04109269
:101EA000000280910005882309F467C00E94C9459B
:101EB000C090FA04D090FB04E090FC04F090FD0484
:101EC0006C157D058E059F0508F457C08091FE04B2
:101ED0009091FF04803991400CF04FC082E199E06D
:101EE0000E9459268AE898E00E94592682E098E0EC
:101EF0000E94592620E030E048EC53E46091970AB4
:101F00007091980A8091990A90919A0A0E943D4D89
:101F10006B017C016091FE047091FF04882777FDBE
:101F20008095982F0E94D84D9B01AC01C701B60146
:101F30000E94DF4EAB01BC018EEE97E00E94CD3DCA
:101F40008091FE049091FF0401969093FF0480938A
:101F5000FE048091FA049091FB04A091FC04B091DE
:101F6000FD040596A11DB11D8093FA049093FB0416
:101F7000A093FC04B093FD0474C0809100058823F5
:101F800041F08091FE049091FF04803991400CF45F
:101F900068C01092000581E080930002C0909B0A07
:101FA000D0909C0AE0909D0AF0909E0A20E030E0DC
:101FB000A901C701B6010E94DB4E1816E4F4B7016F
:101FC000A60189E697E00E94343560E070E089E67A
:101FD00097E00E94373589E697E00E945A3585E3FD
:101FE00097E00E94C53A85E397E00E94783B85E33D
:101FF00097E00E94F13B0E94C9456B017C01609310
:102000001205709313058093140590931505209184
:102010001C0C30911D0C40911E0C50911F0CA0E621
:10202000BAEE0E94DE506C0D7D1D8E1D9F1D6093CB
:102030000E0570930F05809310059093110586E0AF
:1020400090E09093560A8093550A84E895E0909327
:10205000230580932205FF90EF90DF90CF900C94A2
:10206000A030FF90EF90DF90CF9008950F931F93D3
:1020700082EC99E00E94EA1F82E199E00E945926D1
:102080008AE898E00E94592682E098E00E9459264A
:1020900089E697E00E947A350E94C94500910E05B5
:1020A00010910F052091100530911105005315472F
:1020B00021093109061717072807390730F463E0AB
:1020C00070E082EC99E00E94E61F1F910F910C9442
:1020D000C9458DE39AE00E94B04160EC78E08DE361
:1020E0009AE00E94AB4A64EF71E080E090E00E94C9
:1020F000F84581E79AE00E941E238DE39AE00E9452
:10210000B0416CEA78E08DE39AE00E94AB4A60ED62
:1021100077E080E090E00E94F84584EA96E00C9435
:10212000A03060E070E081E79AE00C94A82361E0C1
:1021300070E081E79AE00C94A82362E070E081E708
:102140009AE00C94A82363E070E081E79AE00C9495
:10215000A82364E070E081E79AE00C94A82365E08E
:1021600070E081E79AE00C94A82366E070E081E7D4
:102170009AE00C94A82367E070E081E79AE00C9461
:10218000A82368E070E081E79AE00C94A82369E056
:1021900070E081E79AE00C94A82381E79AE00C9420
:1021A000892067E878E088EC9DE00E94AB4A609166
:1021B000710A7091720A4AE050E088EC9DE00E943A
:1021C000B24B8DE39AE00E94B04165E778E08DE381
:1021D0009AE00E94AB4A81E79AE00E945B2364EF99
:1021E00071E080E090E00E94F8458DE39AE00E9463
:1021F000B04167E678E08DE39AE00E94AB4A60ED7B
:1022000077E080E090E00C94F8458AE999E00E943C
:10221000593D1092560A1092550A089580913C0239
:102220008636C9F467E373E08BE392E00E9439518C
:1022300061E070E082E199E00E94752861E070E061
:102240008AE898E00E94752861E070E082E098E0FA
:102250000E9475282DC06AE373E08BE392E00E9430
:10226000395160E070E082E199E00E94752860E0F9
:1022700070E08AE898E00E94752860E070E082E0F3
:1022800098E00E94752840E050E0BA0182E199E0B0
:102290000E94172840E050E0BA018AE898E00E94C6
:1022A000172840E050E0BA0182E098E00E94172829
:1022B00080912205909123050C94A0308AE999E041
:1022C0000E94B53D67E372E08AE999E00E94FF3B16
:1022D00063E573E088EC9DE00E94FB4A6EE373E0E7
:1022E00088EC9DE00E94D04A67E372E088EC9DE0B4
:1022F0000E94FB4A63E573E088EC9DE00C94FB4A86
:102300008AE999E00E94043C8AE999E00C94883CAF
:102310008AE999E00C949B3C4091930A5091940A6D
:102320006091950A7091960A8AE999E00C94AE3C06
:1023300089E697E00C9439358AE999E00E94043CDB
:1023400060913102709132028AE999E00C94D83C94
:102350008AE999E00E94043CA0912F02B0913002DA
:1023600020E63AEE0E94D850AB01BC018AE999E020
:102370000C94093DCF92DF92EF92FF9282EC99E0AC
:102380000E94EA1F82E199E00E9459268AE898E0BB
:102390000E94592682E098E00E94592682E199E045
:1023A0000E9478286B017C0120E030E040E450E49A
:1023B0006091B90A7091BA0A8091BB0A9091BC0AE7
:1023C0000E94D44C9B01AC01C701B6010E94DB4EB8
:1023D00018160CF056C08AE898E00E9478286B0125
:1023E0007C0120E030E040E450E46091BD0A70914F
:1023F000BE0A8091BF0A9091C00A0E94D44C9B01F2
:10240000AC01C701B6010E94DB4E1816D4F582E07C
:1024100098E00E9478286B017C0120E030E040E4E5
:1024200050E46091C10A7091C20A8091C30A9091F0
:10243000C40A0E94D44C9B01AC01C701B6010E94A2
:10244000DB4E1816F4F461E070E082EC99E00E9433
:10245000E61F83E090E09093560A8093550A84EE3D
:1024600095E090932305809322050E94FE31809190
:10247000220590912305FF90EF90DF90CF900C9470
:10248000A030FF90EF90DF90CF9008950E94C94553
:1024900060930205709303058093040590930505EE
:1024A00082EC99E00E94EA1F82E199E00E9459269D
:1024B0008AE898E00E94592682E098E00E94592616
:1024C0008091160590911705A0911805B0911905F6
:1024D00088589341A109B109409102055091030523
:1024E0006091040570910505481759076A077B0735
:1024F00068F080910105811109C062E070E082EC12
:1025000099E00E94E61F81E0809301054091020559
:1025100050910305609104057091050580911605A1
:1025200090911705A0911805B09119054817590702
:102530006A077B0740F11092010563E573E088ECC0
:102540009DE00E94FB4A6AEC78E088EC9DE00E94E6
:10255000EB4A63E573E088EC9DE00E94FB4A85E06E
:1025600090E09093560A8093550A84E895E0909302
:102570002305809322050E94FE31809122059091CF
:1025800023050C94A03008950F931F9382E199E0E6
:102590000E9459268AE898E00E94592682E098E035
:1025A0000E94592689E697E00E947A350E94C94523
:1025B0000091F6041091F7042091F8043091F90489
:1025C0006017710782079307C0F085E397E00E94C8
:1025D000783B8091F6049091F704A091F804B091B3
:1025E000F90488519C4FAF4FBF4F8093F6049093EE
:1025F000F704A093F804B093F9041F910F91089584
:102600008AE999E00E94963D8091C109882319F0DA
:1026100067E373E002C06AE373E08BE292E00C943C
:1026200039516115710581F0DB010D900020E9F74A
:10263000AD0141505109461B570BDC01ED91FC9156
:102640000280F381E02D199480E090E008956BED15
:1026500078E088EC9DE00C94EB4A0E94C9456093B9
:102660001E0570931F05809320059093210540E07F
:1026700050E064EB72E482E199E00E94172840E0A8
:1026800050E064EB72E48AE898E00E94172840E08A
:1026900050E06FE773E482E098E00E94172861E061
:1026A00070E082E199E00E94752861E070E08AE8BC
:1026B00098E00E94752861E070E082E098E00E9456
:1026C0007528C5DF82E090E09093560A8093550A02
:1026D000089582EC99E00E9440200E94C9456093D1
:1026E0000A0570930B0580930C0590930D05AFDFE1
:1026F00089E697E00E94653588E090E09093560A5D
:102700008093550A089526E040E052EC61E070E0C5
:1027100088EC9DE00E946B498FEF9CE00E943C4357
:1027200020E044E064E18DE39AE00E94CD418DE336
:102730009AE00E94B04184EA96E09093230580934A
:10274000220566E070E082EC99E00E94E61F10929C
:10275000560A1092550A8EEE97E00E94413E8091F3
:102760002205909123050C94FE31CF92DF92EF92D7
:10277000FF920F931F93CF93DF9300D000D0CDB77C
:10278000DEB76C01CB01BA0128EE33E040E050E047
:102790000E94B050C9016CE370E00E949D507C0122
:1027A000882777FD8095982F0E94D84D8E010C5F69
:1027B0001F4F20E042E00E940F51B701882777FDAC
:1027C0008095982F0E94D84D0350110920E042E0D7
:1027D0000E940F51BE016C5F7F4FC6010E943951AC
:1027E000C601FC01019620812111FBCF8AE3819370
:1027F0008AE0E816F10414F480E38983DE0111967F
:102800008D91882311F08193FBCFC60126960FB6D8
:10281000F894DEBF0FBECDBFDF91CF911F910F9116
:10282000FF90EF90DF90CF900895CF92EF920F93AB
:102830001F9381E79AE00E94ED2380E2C82E9EE17B
:10284000E92E0CE12AE148E166E18DE39AE00E947D
:10285000704224E0E22E04E021E132E045E152E062
:1028600061E072E08FEC99E00E948F2882EC99E0A1
:102870000E94DA1F61E77AE08AE999E00E94F73B5B
:1028800066E87BE082E199E00E949E2564EB7BE0B4
:102890008AE898E00E949E2562EE7BE082E098E064
:1028A0000E949E254091540B5091550B61E77AE0B0
:1028B0008EEE97E00E94843E61E77AE089E697E039
:1028C0000E94D33449E657E061E77AE085E397E078
:1028D0000E94F53961E77AE084E097E00E94E339ED
:1028E0000FEC19E02DE33AE04FE650E060E17EE0C6
:1028F00084EA96E00E94762B2DE33AE043E150E033
:1029000066E07DE084E496E00E94762B2DE33AE0D9
:1029100048E150E066EB7BE084EE95E00E94762B88
:102920002DE33AE046E150E062E87AE084E895E0A1
:102930000E94762B2DE33AE045E150E06CE579E02A
:1029400084E295E00E94762B1F910F91EF90CF903B
:102950000895CF92DF92EF92FF920F931F938FEC27
:1029600099E00E94592B8093CE0988EC9DE00E944B
:102970005C481816190634F488EC9DE00E947548EE
:102980008093CE098091CE09833489F1ACF48433ED
:10299000E1F16CF48A3209F43FC0813309F049C097
:1029A00080912205909123050E94662C42C08134BB
:1029B00081F08234A9F03DC0813759F02CF4843481
:1029C000E9F08536A1F035C08237C1F0873741F094
:1029D00030C080912205909123050E94673129C063
:1029E00080912205909123050E949A3122C0809106
:1029F0002205909123050E9479341BC08091220505
:102A0000909123050E94C93114C0809122059091B4
:102A100023050E94E72C0DC020E044E064E18DE333
:102A20009AE00E94CD4180912205909123050E9459
:102A3000A030E091550AF091560AEE0FFF1FE75EB5
:102A4000FD4F0190F081E02D199582E199E00E94FF
:102A500059268AE898E00E94592682E098E00E9470
:102A600059260E94C9456093F2047093F304809341
:102A7000F4049093F504C0900605D0900705E0900B
:102A80000805F09009056C157D058E059F0508F475
:102A900074C082E199E00E94782860936D0A709377
:102AA0006E0A80936F0A9093700A8AE898E00E94F9
:102AB00078286093690A70936A0A80936B0A9093EE
:102AC0006C0A82E098E00E9478286093650A70930F
:102AD000660A8093670A9093680A8091550A9091DC
:102AE000560A0497A9F4C0901605D0901705E090F7
:102AF0001805F09019050E94C94597018601061B2B
:102B0000170B280B390BB901A80189E59AE02DDED6
:102B10008091550A9091560A0697A9F4C0900E0527
:102B2000D0900F05E0901005F09011050E94C94566
:102B300097018601061B170B280B390BB901A80159
:102B40008FE59AE012DE0E94C94568517C4F8F4F95
:102B50009F4F609306057093070580930805909337
:102B6000090580912205909123051F910F91FF90F7
:102B7000EF90DF90CF900C94A0301F910F91FF90B9
:102B8000EF90DF90CF900895CF93DF9364E178E0EA
:102B900088EC9DE00E94EB4A8DE39AE00E94B041F0
:102BA0006FEF77E08DE39AE00E94AB4A41E060E08E
:102BB0008DE39AE00E94B5416BEE77E08DE39AE0F9
:102BC0000E94AB4A42E060E08DE39AE00E94B5418A
:102BD00066ED77E08DE39AE00E94AB4A43E060E067
:102BE0008DE39AE00E94B54161EC77E08DE39AE0D5
:102BF0000E94AB4A68E873E180E090E00E94F845EB
:102C00008DE39AE00E94B04166EA77E08DE39AE0B6
:102C10000E94AB4A41E060E08DE39AE00E94B5413A
:102C20006FE977E08DE39AE00E94AB4A42E060E012
:102C30008DE39AE00E94B54169E977E08DE39AE07F
:102C40000E94AB4A8FEC99E00E94592B8093CE09E9
:102C500088EC9DE00E945C481816190634F488EC54
:102C60009DE00E9475488093CE098091CE09813401
:102C700059F561E877E088EC9DE00E94EB4A8DE32E
:102C80009AE00E94B0416DE677E08DE39AE00E9401
:102C9000AB4A81E79AE00E94242181E79AE00E94F2
:102CA0001E2381E79AE00E948920C0E0D0E0D09303
:102CB000720AC093710A81E79AE00E945B23219611
:102CC000CA30D105A1F702C081E001C080E0909137
:102CD000CE09923411F08111B5CF84EA96E0DF91EC
:102CE000CF910C94A030CF93DF938DE39AE00E94B4
:102CF000B0416DE577E08DE39AE00E94AB4A41E098
:102D000060E08DE39AE00E94B54166E577E08DE3EF
:102D10009AE00E94AB4A42E060E08DE39AE00E94B4
:102D2000B54160E577E08DE39AE00E94AB4AC4EAE2
:102D3000D6E08FEC99E00E94592B8093CE0988EC65
:102D40009DE00E945C481816190634F488EC9DE05A
:102D50000E9475488093CE098091CE09893711F081
:102D6000813431F58EEE97E00E94413E89E697E08E
:102D70000E9457358AE999E00E94593D82E199E025
:102D80000E946C288AE898E00E946C2882E098E013
:102D90000E946C2885E397E00E94F33B1092560A4C
:102DA0001092550AD0932305C093220580E001C0FC
:102DB00081E09091CE099E3621F0923411F081117C
:102DC000B8CFDF91CF9108958ECF8DCF8CCF8BCFA1
:102DD000CF93DF938DE39AE00E94B0416DE377E0FB
:102DE0008DE39AE00E94AB4A41E060E08DE39AE017
:102DF0000E94B54168E277E08DE39AE00E94AB4A19
:102E000042E060E08DE39AE00E94B54169E177E03D
:102E10008DE39AE00E94AB4A43E060E08DE39AE0E4
:102E20000E94B54168E077E08DE39AE00E94AB4AEA
:102E300068E873E180E090E00E94F8458DE39AE055
:102E40000E94B0416EEF76E08DE39AE00E94AB4ABB
:102E500041E060E08DE39AE00E94B54167EF76E0E3
:102E60008DE39AE00E94AB4A42E060E08DE39AE095
:102E70000E94B54161EF76E08DE39AE00E94AB4A93
:102E80008FEC99E00E94592B8093CE0988EC9DE04D
:102E90000E945C481816190634F488EC9DE00E94E4
:102EA00075488093CE098091CE09813439F18234FE
:102EB00039F71CC0813409F445C08FEC99E00E94B9
:102EC000592B8093CE0988EC9DE00E945C4818162F
:102ED000190634F488EC9DE00E9475488093CE0971
:102EE0008091CE098334C9F1843421F78091220581
:102EF00090912305DF91CF910C94A0308DE39AE05F
:102F00000E94B0416FED76E08DE39AE00E94AB4AFB
:102F100041E060E08DE39AE00E94B5416EEC76E01E
:102F20008DE39AE00E94AB4A42E060E08DE39AE0D4
:102F30000E94B54166EC76E08DE39AE00E94AB4AD0
:102F4000C1E0BBCF8EEE97E0CC2321F00E94083E7B
:102F5000C0E0B3CF0E94413EF3CFC11106C08091C3
:102F6000590B91E089278093590B8DE39AE00E94D9
:102F7000B04161EB76E08DE39AE00E94AB4A68E8ED
:102F800073E180E090E00E94F8458DE39AE00E94B2
:102F9000B04167EA76E08DE39AE00E94AB4A41E0F7
:102FA00060E08DE39AE00E94B54160EA76E08DE34F
:102FB0009AE00E94AB4A42E060E08DE39AE00E9412
:102FC000B5416AE976E08DE39AE00E94AB4A8FEC66
:102FD00099E00E94592B8093CE0988EC9DE00E94D5
:102FE0005C481816190634F488EC9DE00E94754878
:102FF0008093CE098091CE09813419F0823439F75B
:1030000075CF8EEE97E00E94083E40E050E060E809
:103010007FE38EEE97E00E94CD3D8DE39AE00E9423
:10302000B04166E876E08DE39AE00E94AB4A41E069
:1030300060E08DE39AE00E94B5416FE776E08DE3B2
:103040009AE00E94AB4A42E060E08DE39AE00E9481
:10305000B54169E776E08DE39AE00E94AB4A43E030
:1030600060E08DE39AE00E94B54161E776E08DE390
:103070009AE00E94AB4AD1E08FEC99E00E94592B74
:103080008093CE0988EC9DE00E945C4818161906D2
:1030900034F488EC9DE00E9475488093CE098091BD
:1030A000CE09823409F44AC0843409F451C0813411
:1030B00019F7CC2309F38EEE97E00E94413E8DE391
:1030C0009AE00E94B0416FE576E08DE39AE00E94BD
:1030D000AB4A68E873E180E090E00E94F8458DE338
:1030E0009AE00E94B0416EE476E08DE39AE00E949F
:1030F000AB4A41E060E08DE39AE00E94B5416DE3A8
:1031000076E08DE39AE00E94AB4A42E060E08DE316
:103110009AE00E94B54164E376E08DE39AE00E9474
:10312000AB4A43E060E08DE39AE00E94B5416CE277
:1031300076E08DE39AE00E94AB4A16C08091580B6E
:103140008D278093580B8EEE97E00E941A3F94CF04
:103150008EEE97E00E94413EC9CE8091CE09813427
:10316000B9F0823409F4C2CE8FEC99E00E94592B59
:103170008093CE0988EC9DE00E945C4818161906E1
:1031800064F788EC9DE00E9475488093CE09E5CFF6
:103190008DE39AE00E94B0416AE176E08DE39AE027
:1031A0000E94AB4A8EEE97E00E94083E61E086E006
:1031B0000E94C6478EEE97E00E94083E40E050E035
:1031C00060E271E48EEE97E00E94CD3D60E777E12A
:1031D00080E090E00E94F8458EEE97E00E94413E2C
:1031E0008DE39AE00E94B04166E076E08DE39AE0DC
:1031F0000E94AB4A41E060E08DE39AE00E94B54155
:1032000064EF75E08DE39AE00E94AB4A42E060E033
:103210008DE39AE00E94B54165EE75E08DE39AE09A
:103220000E94AB4A43E060E08DE39AE00E94B54122
:1032300062ED75E08DE39AE00E94AB4A68E873E1C5
:1032400080E090E00E94F8458DE39AE00E94B04152
:1032500063EC75E08DE39AE00E94AB4A41E060E0E8
:103260008DE39AE00E94B5416CEB75E08DE39AE046
:103270000E94AB4A42E060E08DE39AE00E94B541D3
:1032800066EB75E08DE39AE00E94AB4A8FEC99E023
:103290000E94592B8093CE0988EC9DE00E945C48E7
:1032A0001816190634F488EC9DE00E947548809346
:1032B000CE098091CE09813431F481E79AE00E94F1
:1032C0001E2380E001C081E09091CE09923409F480
:1032D0000DCE8111DBCF0ACECF92DF92EF92FF921B
:1032E0000F931F938DE39AE00E94B04165E374E071
:1032F0008DE39AE00E94AB4A41E060E08DE39AE002
:103300000E94B54160E274E08DE39AE00E94AB4A0E
:1033100042E060E08DE39AE00E94B54161E174E033
:103320008DE39AE00E94AB4A43E060E08DE39AE0CF
:103330000E94B54160E074E08DE39AE00E94AB4AE0
:1033400068E873E180E090E00E94F8458DE39AE040
:103350000E94B04166EF73E08DE39AE00E94AB4AB1
:1033600041E060E08DE39AE00E94B5416FEE73E0CA
:103370008DE39AE00E94AB4A42E060E08DE39AE080
:103380000E94B54169EE73E08DE39AE00E94AB4A7A
:103390008FEC99E00E94592B8093CE0988EC9DE038
:1033A0000E945C481816190634F488EC9DE00E94CF
:1033B00075488093CE098091CE09813459F18234C9
:1033C00039F71CC0813409F449C08FEC99E00E94A0
:1033D000592B8093CE0988EC9DE00E945C4818161A
:1033E000190634F488EC9DE00E9475488093CE095C
:1033F0008091CE098334E9F1843421F7809122054C
:10340000909123051F910F91FF90EF90DF90CF9047
:103410000C94A0308DE39AE00E94B04167ED73E018
:103420008DE39AE00E94AB4A41E060E08DE39AE0D0
:103430000E94B54166EC73E08DE39AE00E94AB4ACE
:1034400042E060E08DE39AE00E94B5416EEB73E0EC
:103450008DE39AE00E94AB4A11E0B7CF85E397E095
:10346000112321F00E94F13B10E0AFCF0E94F33B0B
:10347000F3CF111106C08091750B91E089278093DD
:10348000750B8DE39AE00E94B04169EA73E08DE329
:103490009AE00E94AB4A68E873E180E090E00E9405
:1034A000F8458DE39AE00E94B0416FE973E08DE347
:1034B0009AE00E94AB4A41E060E08DE39AE00E940E
:1034C000B54168E973E08DE39AE00E94AB4A42E0BF
:1034D00060E08DE39AE00E94B54162E973E08DE31C
:1034E0009AE00E94AB4A8FEC99E00E94592B80939E
:1034F000CE0988EC9DE00E945C481816190634F449
:1035000088EC9DE00E9475488093CE098091CE0999
:10351000813419F0823439F771CF85E397E00E9446
:10352000F13B40E050E060E87FE385E397E00E94F4
:10353000EF3B8DE39AE00E94B04162E873E08DE3D7
:103540009AE00E94AB4A41E060E08DE39AE00E947D
:10355000B5416BE773E08DE39AE00E94AB4A42E02D
:1035600060E08DE39AE00E94B54165E773E08DE38A
:103570009AE00E94AB4A43E060E08DE39AE00E944B
:10358000B5416DE673E08DE39AE00E94AB4A01E03D
:103590008FEC99E00E94592B8093CE0988EC9DE036
:1035A0000E945C481816190634F488EC9DE00E94CD
:1035B00075488093CE098091CE09823409F44AC0BF
:1035C000843409F451C0813419F7112309F385E3D8
:1035D00097E00E94F33B8DE39AE00E94B0416BE5D7
:1035E00073E08DE39AE00E94AB4A68E873E180E003
:1035F00090E00E94F8458DE39AE00E94B04169E4B2
:1036000073E08DE39AE00E94AB4A41E060E08DE315
:103610009AE00E94B54168E373E08DE39AE00E946E
:10362000AB4A42E060E08DE39AE00E94B5416FE270
:1036300073E08DE39AE00E94AB4A43E060E08DE3E3
:103640009AE00E94B54167E273E08DE39AE00E9440
:10365000AB4A16C08091740B80278093740B85E36E
:1036600097E00E94F53B94CF85E397E00E94F33BFF
:10367000C5CE8091CE098134B9F0823409F4BECE32
:103680008FEC99E00E94592B8093CE0988EC9DE045
:103690000E945C481816190664F788EC9DE00E94A9
:1036A00075488093CE09E5CF8DE39AE00E94B04142
:1036B00065E173E08DE39AE00E94AB4A85E397E011
:1036C0000E94F13B61E086E00E94C64785E397E0F7
:1036D0000E94F13B40E050E060E271E485E397E056
:1036E0000E94EF3B60E777E180E090E00E94F845C0
:1036F00085E397E00E94F33B8DE39AE00E94B0419E
:1037000063E073E08DE39AE00E94AB4A41E060E041
:103710008DE39AE00E94B54161EF72E08DE39AE09B
:103720000E94AB4A42E060E08DE39AE00E94B5411E
:1037300062EE72E08DE39AE00E94AB4A43E060E003
:103740008DE39AE00E94B5416FEC72E08DE39AE060
:103750000E94AB4A68E873E180E090E00E94F8457F
:103760008DE39AE00E94B0416EEB72E08DE39AE047
:103770000E94AB4A68E873E180E090E00E94F8455F
:103780008DE39AE00E94B04169EA72E08DE39AE02D
:103790000E94AB4A41E060E08DE39AE00E94B541AF
:1037A00064E972E08DE39AE00E94AB4A42E060E097
:1037B0008DE39AE00E94B5416BE872E08DE39AE0F8
:1037C0000E94AB4A43E060E08DE39AE00E94B5417D
:1037D00063E872E08DE39AE00E94AB4A8FEC99E0D7
:1037E0000E94592B8093CE0988EC9DE00E945C4892
:1037F0001816190634F488EC9DE00E9475488093F1
:10380000CE098091CE09813419F0823439F7F6CD92
:1038100085E397E00E94F13B40E050E060EA71E40C
:1038200085E397E00E94EF3B0E94C9456B017C0154
:103830008DE39AE00E94B0416EE672E08DE39AE07B
:103840000E94AB4A41E060E08DE39AE00E94B541FE
:1038500066E672E08DE39AE00E94AB4A42E060E0E7
:103860008DE39AE00E94B5416EE572E08DE39AE047
:103870000E94AB4A8FEC99E00E94592B8093CE09AD
:1038800088EC9DE00E945C481816190634F488EC18
:103890009DE00E9475488093CE098091CE098134C5
:1038A00039F0823439F789E697E00E945735A6CD82
:1038B00085E397E00E94F33B0E94C94500E010E0D9
:1038C00020E83FE30093820B1093830B2093840B3B
:1038D0003093850B6C197D098E099F090E94D64D86
:1038E00020E030E040EA51E40E94DF4E20E030E684
:1038F0004AE657E40E943D4D6093760B7093770B38
:103900008093780B9093790B8DE39AE00E94B041FD
:1039100069E472E08DE39AE00E94AB4A41E060E026
:103920008DE39AE00E94B54164E372E08DE39AE092
:103930000E94AB4A42E060E08DE39AE00E94B5410C
:1039400060E272E08DE39AE00E94AB4A68E873E1BE
:1039500080E090E00E94F8458DE39AE00E94B0413B
:1039600061E172E08DE39AE00E94AB4A41E060E0E1
:103970008DE39AE00E94B5416AE072E08DE39AE03F
:103980000E94AB4A42E060E08DE39AE00E94B541BC
:1039900064E072E08DE39AE00E94AB4A8FEC99E01C
:1039A0000E94592B8093CE0988EC9DE00E945C48D0
:1039B0001816190634F488EC9DE00E94754880932F
:1039C000CE098091CE09813429F481E79AE036D678
:1039D00080E001C081E09091CE09923409F40ECDCF
:1039E0008111DCCF0BCDBF92CF92DF92EF92FF928D
:1039F0000F931F93CF93DF9300D000D0CDB7DEB7E6
:103A00007C018B018DE39AE00E94B041B7018DE308
:103A10009AE00E94111341E060E08DE39AE00E9479
:103A2000B541B8018DE39AE00E94111343E060E0D4
:103A30008DE39AE00E94B54164E573E08DE39AE07E
:103A40000E94111342E060E08DE39AE00E94B541CC
:103A5000DD24D3948E010F5F1F4F78014EE2B42E08
:103A60008FEC99E00E946C2B8093CE0988EC9DE04E
:103A70000E945C481816190634F488EC9DE00E94F8
:103A800075488093CE096091CE096134E9F044F421
:103A90006A32F1F16E32E1F1633209F04CC0E0CFED
:103AA0006434F4F2643409F046C0C7010E942F5117
:103AB00020E030E0A9010E94394D882309F449C073
:103AC000C7010E942F5149C0E016F10608F041C01D
:103AD000B8016E197F09CC24CA94C60E42E06C2D41
:103AE0008DE39AE00E94B54160E28DE39AE00E9486
:103AF000A24242E06C2D8DE39AE00E94B541F801AC
:103B000082918F018E3209F0ABCFDD24D394A8CF00
:103B1000C8018E199F0905970CF0A2CFDD2009F48A
:103B20009FCFF801B1928F016EE28DE39AE00E947F
:103B3000A242D12C95CFC8018E199F0905970CF090
:103B40008FCFF80161938F018DE39AE00E94A2422A
:103B500087CF60E070E080E89FEB26960FB6F89480
:103B6000DEBF0FBECDBFDF91CF911F910F91FF90B0
:103B7000EF90DF90CF90BF900895AF92BF92CF9219
:103B8000DF92EF92FF920F931F93CF93DF931F92D9
:103B9000CDB7DEB78DE39AE00E94B04162EA75E0EE
:103BA0008DE39AE00E94AB4A6EE875E088EC9DE0F8
:103BB0000E94EB4A60EA7FE080E090E00E94F845D6
:103BC0008DE39AE00E94B04140E060E08DE39AE02E
:103BD0000E94B54169E775E08DE39AE00E94AB4A27
:103BE00041E060E08DE39AE00E94B54164E675E053
:103BF0008DE39AE00E94AB4A43E060E08DE39AE0F7
:103C00000E94B54166E575E08DE39AE00E94AB4AFB
:103C10006AE275E088EC9DE00E94EB4A8FEC99E047
:103C20000E94592B182F88EC9DE00E945C481816C2
:103C300019062CF488EC9DE00E947548182F143466
:103C400019F0113459F7A9C18DE39AE00E94B041EF
:103C500067E175E08DE39AE00E94AB4A41E060E0E5
:103C60008DE39AE00E94B54163E673E08DE39AE04C
:103C70000E94111342E060E08DE39AE00E94B5419A
:103C800066E773E08DE39AE00E94111343E060E081
:103C90008DE39AE00E94B5416BE873E08DE39AE012
:103CA0000E9411136DED74E088EC9DE00E94EB4AD8
:103CB0006AEC74E088EC9DE00E94EB4A60EA7FE0E9
:103CC00080E090E00E94F8458DE39AE00E94B041C8
:103CD0006FE973E08DE39AE00E94111389E697E0A3
:103CE0000E9431356B017C0141E067E08DE39AE091
:103CF0000E94B54122E030E0B701A6018DE39AE0D1
:103D00000E94C24C22E030E0B701A60188EC9DE0A1
:103D10000E94C34C68EE73E080E090E00E94F8459A
:103D200020E030E849E054E4C701B6010E94394D73
:103D300087FF16C020E030E041EE53E4C701B60132
:103D40000E94DB4E181664F443E060E08DE39AE0D5
:103D50000E94B5416DEA73E08DE39AE00E94111371
:103D60008FEC99E00E94592B182F88EC9DE00E945F
:103D70005C48181619062CF488EC9DE00E947548E2
:103D8000182F143421F0113409F0A8CF06C18DE3A7
:103D90009AE00E94B0416BEB73E08DE39AE00E94E1
:103DA000111341E060E08DE39AE00E94B54160EDBF
:103DB00073E08DE39AE00E94111342E060E08DE32E
:103DC0009AE00E94B54165EE73E08DE39AE00E94AF
:103DD000111343E060E08DE39AE00E94B54162EF89
:103DE00073E08DE39AE00E9411136CE774E088ECB5
:103DF0009DE00E94EB4A60EA7FE080E090E00E9454
:103E0000F845A12CB12C8DE39AE00E94B04167E007
:103E100074E08DE39AE00E94111385010F5F1F4F3C
:103E20004AE050E0B8018DE39AE00E94AB4B42E0DB
:103E300060E08DE39AE00E94B54164E174E08DE3B7
:103E40009AE00E94111343E060E08DE39AE00E9443
:103E5000B54161E274E08DE39AE00E9411136AE4D7
:103E600074E088EC9DE00E94EB4A8FEC99E00E94A0
:103E7000592B282F88EC9DE029830E945C482981DA
:103E8000181619062CF488EC9DE00E947548282F1E
:103E90002434D1F12334A1F582E0A816B1040CF446
:103EA0007CC08DE39AE00E94B04165E374E08DE34D
:103EB0009AE00E94111341E060E08DE39AE00E94D5
:103EC000B5416AE474E08DE39AE00E94111342E088
:103ED00060E08DE39AE00E94B54162E574E08DE315
:103EE0009AE00E94111343E060E08DE39AE00E94A3
:103EF000B5416DEA73E08DE39AE00E94111347C06B
:103F0000213409F0B2CF49C089E697E00E943135EB
:103F10006B017C018DE39AE00E94B04169E574E099
:103F200088EC9DE00E94FB4A22E030E0B701A60148
:103F300088EC9DE00E94C34C22E030E0B701A6016E
:103F40008DE39AE00E94C24C6CE47DE180E090E059
:103F50000E94F8458DE39AE00E94B04167E674E064
:103F600087E794E040DD20E030E040E85FEB0E942E
:103F7000394D811106C0E2E0AE16B1040CF091CFCC
:103F80000CC00A30110509F48CCF58013CCF8FECDE
:103F900099E00E94592B8823D1F30F90DF91CF91A4
:103FA0001F910F91FF90EF90DF90CF90BF90AF9057
:103FB0000895E3CDCF93DF93EC0161E081E10E94AE
:103FC000C6471B861A86DF91CF910895FC0173873F
:103FD00062870895CF92DF92EF92FF92CF93DF93A3
:103FE000EC018A859B85892B09F443C0CC80DD8058
:103FF000EE80FF800E94C9456C157D058E059F05EA
:10400000C0F18885998580FD0BC00A972CF0198630
:1040100018861B861A862DC080910201816003C01C
:10402000809102018E7F809302010E94C9452885FC
:1040300039854A855B85AAE0A49FF001A59FF00D14
:104040001124E20FF31FEE0FFF1FE15CFD4FC08054
:10405000D180EE24D7FCE094FE2C6C0D7D1D8E1DCE
:104060009F1D6C837D838E839F832F5F3F4F398796
:104070002887DF91CF91FF90EF90DF90CF90089548
:10408000FC01118610861386128608959B01215625
:104090003E4FFC01358724876D557E4F77876687B5
:1040A00008950F931F93CF93DF938C0144E050E06A
:1040B00063E070E08FEF9CE00E945143C0E0D0E0ED
:1040C0008FEF9CE00E94A742892B89F08FEF9CE044
:1040D0000E94AF42F801EC0FFD1F84834AE050E0DC
:1040E000682F88EC9DE00E94D44B2196E9CF88ECA4
:1040F0009DE00E94D94A8FEF9CE00E947043F80136
:104100006481758186819781DF91CF911F910F9195
:104110000895CF93DF93EC012FEF3FEFFC01219344
:104120003193CF0166E874E00E9439514DEC5CECAC
:104130006CEE7FE34E8B5F8B688F798F47ED53EA90
:1041400060EB7FE34A8F5B8F6C8F7D8F4DEC5CEC77
:104150006CE47DE34E8F5F8F68A379A340E050E06D
:1041600060EA70E44AA35BA36CA37DA340E050E047
:1041700060EF71E44EA35FA368A779A740E050E029
:1041800060E772E44AA75BA76CA77DA71AAA1BAADF
:104190001CAA1DAA40E050E060E470E44EA75FA7AF
:1041A00068AB79AB1EAA1FAA18AE19AE40E050E06A
:1041B00068E473E44AAF5BAF6CAF7DAFFE01FE967F
:1041C0001082118212821382349680ED97E09183DF
:1041D0008083329640E050E060E071E44083518398
:1041E00062837383349640E050E864E873E440836C
:1041F00051836283738334964083518362837383D4
:1042000034964083518362837383349640E050E058
:1042100064E373E44083518362837383349640E0A4
:1042200050E86EE873E44083518362837383C45A19
:10423000DF4F4FE050E060E070E0488359836A83CD
:104240007B83DF91CF9108952F923F924F925F929F
:104250006F927F928F929F92AF92BF92CF92DF9296
:10426000EF92FF920F931F93CF93DF931F921F92B2
:10427000CDB7DEB7FC01EF53FF4F1082319622E03D
:10428000A22EB12CB182A082329640E050E060E8CC
:104290007FE34083518362837383349624E630E066
:1042A00031832083329620E436E0318320833296B6
:1042B0002BE430E031832083329630ED432E37E01B
:1042C000532E5182408232962AE530E0318320839A
:1042D0003296BB24B394B08231962FE530E031831F
:1042E000208332962EE630E031832083329620EA16
:1042F00030E0318320833496A8EE6A2EA3E07A2E34
:1043000071826082329620E137E2318320833296D7
:1043100028EC30E031832083329620E530E0318391
:104320002083329611821082329620E130E0318370
:104330002083329610823196B0823196C12CD12CD6
:10434000B0E4EB2EFE2CC082D182E282F38234965E
:10435000EE24E394F12CF182E082329631832083C3
:104360003296108231961082319608E4C02E01EE0A
:10437000D02E0EEAE02E00E4F02EC082D182E2823E
:10438000F3823496C12CD12CA8E4EA2EA3E4FA2EB1
:10439000C082D182E282F38234961082118212822C
:1043A00013823496A2E0B0E0B183A08332963183C9
:1043B00020833296108231961082319602E518EBF6
:1043C00022EE31E40083118322833383349600E0AC
:1043D00010E020EF31E4008311832283338334968D
:1043E00000E010E026E932E4008311832283338366
:1043F00034964083518362837383B89627E030E01C
:104400003183208372971082118212821382349733
:104410000AE919E929E13EE300831183228333830A
:1044200034974AE959E969E570E44083518362832E
:1044300073833897812C912CB8ECAB2EB2E4BB2E51
:1044400080829182A282B38234961082118212827B
:1044500013827896AEE62A2EAFE03A2E3182208281
:104460003297B4E1EB2EF12CF182E0823696118284
:1044700010823C97A0EACA2EA6E8DA2EEE24E39436
:10448000F12CC082D182E282F3823A9671826082FC
:10449000B09751824082B8961082118212821382A4
:1044A0003496108231961082DC01A959BE4FE4E0A7
:1044B000F0E0ED93FC93FC01EB5AFE4F1082118269
:1044C00012821382349700831183228333833497BB
:1044D0004083518362837383389780829182A28262
:1044E000B3823496108211821282138278963182BE
:1044F00020823297B4E1AB2EB12CB182A0823696E5
:10450000A1E0B0E0B183A0833C97C082D182E28277
:10451000F3823A9671826082B09751824082B89657
:104520001082118212821382349610823196108288
:10453000B596A5E0B0E0B183A08372971082118296
:10454000128213823497008311832283338334973A
:104550004083518362837383389740E050E06FE774
:1045600073E44083518362837383349640E050E068
:1045700065E773EC4083518362837383789631825D
:1045800020823297B182A082369612E0A12EB12C01
:10459000B182A082349623E030E03183208370978B
:1045A000C082D182E282F3823A9671826082B097B1
:1045B00051824082B8961082118212821382349600
:1045C000BB24B394B0823196B082319646EC54E469
:1045D00064E17AE34083518362837383349649EACA
:1045E00054EA66EC7FE3408351836283738334969D
:1045F00040E050E06CE873E440835183628373834E
:10460000349642E050E060E070E040835183628382
:1046100073830F900F90DF91CF911F910F91FF90B7
:10462000EF90DF90CF90BF90AF909F908F907F9052
:104630006F905F904F903F902F9008950F931F932E
:10464000CF93DF93EC0161E379E188EC9DE00E9478
:10465000EB4AC054DF4F81E0888360E070E049910D
:104660008B010F5F1F4F8EEF9CE00E9415410F3EA4
:10467000110511F0B801F3CFDF91CF911F910F9188
:1046800008950F931F93CF93DF938C0100541F4F16
:10469000C0E0D0E0BE018EEF9CE00E941241F80124
:1046A00081938F012196CF3ED105A1F7DF91CF9164
:1046B0001F910F910895EF92FF920F931F93CF9345
:1046C000DF93FC014081518160E6649F9001659F0A
:1046D000300D1124B90161517F4FEC017901F1EBEB
:1046E000EF1AFEEFFF0A49918B010F5F1F4F8EEF0C
:1046F0009CE00E9415410E151F0511F0B801F3CF83
:10470000DF91CF911F910F91FF90EF900895EF925D
:10471000FF920F931F93CF93DF937C018B01C0E037
:10472000D0E0BE016E0D7F1D8EEF9CE00E94124115
:10473000F80181938F012196C036D10591F780E66B
:1047400090E0DF91CF911F910F91FF90EF9008952E
:1047500040E6469F9001479F300D1124BC01C901DE
:1047600081519F4FD4CF08950F931F93CF93DF9321
:10477000EC018B01BC01605A7F4F20E6249FC001F1
:10478000259F900D112481519F4FC1DFBE016E59AD
:104790007F4FC801DF91CF911F910F910C94395138
:1047A000EF92FF920F931F93CF93DF937C018C01C5
:1047B00001551E4FC0E0D0E0AE01B801C701D4DF03
:1047C00021960C5E1F4FCA30D105B1F7DF91CF9112
:1047D0001F910F91FF90EF900895CF93DF93EC011D
:1047E000DFDFCE01DF91CF914CCFFC017783668371
:1047F0006130710581F01CF4672B41F0089562303F
:10480000710549F06330710531F0089584E090E05E
:104810009183808308957183608308954F925F929E
:104820006F927F928F929F92AF92BF92CF92DF92C0
:10483000EF92FF920F931F93CF93DF93CDB7DEB725
:104840002E970FB6F894DEBF0FBECDBFFC01CB0193
:10485000BA016283738384839583E080F18022E0D0
:10486000E216F10409F083C02EE0ECECF2E0DE0188
:10487000119601900D922A95E1F79B01AC010E94DF
:10488000D54C2B013C01CE0101967C015E019FE0DD
:10489000A90EB11CF701C190D1907F01B601882704
:1048A00077FD8095982F0E94D84D9B01AC01C301E4
:1048B000B2010E94DF4E9B01AC0160E074E284E72C
:1048C0009BE40E943D4D20E030E04FE753E40E941E
:1048D000394D87FD04C0EA14FB04E1F601C08601EE
:1048E00000341105E9F05CF408301105A9F000323C
:1048F0001105A1F001301105C9F481E018C00115BE
:10490000F1E01F0779F0011524E0120769F0003883
:10491000110561F485E00BC082E009C083E007C0A7
:1049200084E005C086E003C087E001C080E093E436
:104930009093B00088608093B100B801882777FD1C
:104940008095982F0E94D84D9B01AC01C301B20104
:104950000E94DF4E9B01AC0160E074E284E79BE4BF
:104960000E943D4D0E94AA4D6093B300D0C02AE042
:10497000EAEDF2E0DE01119601900D922A95E1F741
:104980009B01AC010E94D54C2B013C01CE0101964C
:104990006C014E019BE0890E911CF601A190B19033
:1049A0006F01B501882777FD8095982F0E94D84D1B
:1049B0009B01AC01C301B2010E94DF4E9B01AC011F
:1049C00060E074E284E79BE40E943D4D20E03FEF0D
:1049D0004FE757E40E94394D87FD04C0C814D9043D
:1049E000E1F601C0850100341105A1F03CF401306D
:1049F000110571F008301105A9F010C00115F1E0A2
:104A00001F0751F0011524E0120741F485E00DC0A5
:104A100081E00BC083E009C084E007C017FD04C03B
:104A200080E003C082E001C087E093E0E916F10472
:104A300059F1E4E0EE16F10409F448C0EA94EF28D5
:104A400009F065C093E490938000886180938100B1
:104A5000B801882777FD8095982F0E94D84D9B013B
:104A6000AC01C301B2010E94DF4E9B01AC0160E0CA
:104A700074E284E79BE40E943D4D0E94A54D709333
:104A800089006093880043C093E49093900088610C
:104A900080939100B801882777FD8095982F0E9418
:104AA000D84D9B01AC01C301B2010E94DF4E9B01B6
:104AB000AC0160E074E284E79BE40E943D4D0E94FB
:104AC000A54D709399006093980021C093E4909352
:104AD000A00088618093A100B801882777FD8095A8
:104AE000982F0E94D84D9B01AC01C301B2010E94D6
:104AF000DF4E9B01AC0160E074E284E79BE40E941E
:104B00003D4D0E94A54D7093A9006093A8002E967C
:104B10000FB6F894DEBF0FBECDBFDF91CF911F91CE
:104B20000F91FF90EF90DF90CF90BF90AF909F904C
:104B30008F907F906F905F904F9008954F925F920B
:104B40006F927F928F929F92AF92BF92CF92DF929D
:104B5000EF92FF920F931F93CF93DF934C01EB01E2
:104B6000A8A0B9A0CE8CDF8CEC8CFD8C0A8D1B8D9F
:104B70002E893F89488D598D6AA17BA10E94593F9A
:104B800034018EE2680E711CAE84BF84C888D98857
:104B9000EA84FB840C851D859E01285D3F4F24011E
:104BA000E9E64E0E511C1F921F928D898F938C89BE
:104BB0008F938B898F938A898F93A201B401C3014C
:104BC0000E947439F401E959FF4FD183C0833696AE
:104BD0009182808268817981C3010E941938CA88D4
:104BE000DB88EC88FD880E851F85288939894A85F0
:104BF0005B856C857D85C3010E9466370A811B81B8
:104C00002C813D814E815F8168857985C3010E9439
:104C1000673860E070E0C3010E942339F20110821E
:104C20001182128213827E01F4E2EF0EF11C8401E4
:104C300001591F4FF801F182E082CE018D96369620
:104C4000918380830F900F900F900F900F900F9093
:104C5000009741F0349707979183808361E08EA19C
:104C60000E94C647F801F182E08261E08CA10E94B7
:104C7000C647F401ED58FF4FCE018C969183808397
:104C800034968A979183808332962696D183C08307
:104C9000DF91CF911F910F91FF90EF90DF90CF9018
:104CA000BF90AF909F908F907F906F905F904F904C
:104CB00008954F925F926F927F928F929F92AF92E0
:104CC000BF92CF92DF92EF92FF920F931F93CF93F9
:104CD000DF93EC010E94C9458E0105581F4FD80192
:104CE0006D937D938D939C931397CE010E949E406C
:104CF000F80140815181628173815E01F7E6AF0E58
:104D0000B11CD501ED91FC9180819181AA2797FD7D
:104D1000A095BA2F7E01E3E8EE0EF11CF70140806A
:104D2000518062807380840D951DA61DB71D9E0164
:104D30002D583F4F6901481759076A077B0708F448
:104D400023C140835183628373837697D183C08369
:104D5000CE018E960E944636D601ED91FC9180815F
:104D6000FE01E759FF4F4F01811137C0408051804C
:104D7000628073804E01FFE78F0E911CD501ED918B
:104D8000FC9160817181882777FD8095982F0E9422
:104D9000D84DA30192010E94DF4E20E030E048ECA4
:104DA00052E40E943D4D0E94AA4DF401608371833C
:104DB0008283938320E030E040E85FE3C301B201E7
:104DC0000E94DB4E18160CF0DFC0FE01E159FF4FC8
:104DD0000190F081E02D61E03EC0FE01EB58FF4FF5
:104DE0000190F081E02D8081882309F4ACC061E955
:104DF00074E088EC9DE00E94D04AD4014D915D9111
:104E00006D917C9122E030E088EC9DE00E94C34CE3
:104E1000F401408051806280738020E030E040E8FF
:104E20005FE3C301B2010E94DB4E87FD18C0C301DE
:104E3000B2010E94A54DFE01E159FF4F0190F081A2
:104E4000E02D80810E94AE46FE01EF58FF4F019099
:104E5000F081E02D60E080810E94FF4795C020E056
:104E600030E040E85FEBC301B2010E94394D1816F3
:104E7000DCF13E01F7E86F0E711CD3018C91FE014D
:104E8000EF58FF4F5F01882381F00190F081E02D02
:104E900062E370E080810E94AE46D3011C9264E61A
:104EA00070E080E090E00E94F845FE01E159FF4F7C
:104EB0000190F081E02D60E070E080810E94AE46BC
:104EC000F401208131814281538160E070E080E211
:104ED00091E40E94D44C0E94A54DD501ED91FC9126
:104EE00080810E94AE4650C020E030E040E85FE3A1
:104EF000C301B2010E94394D87FF46C020E030E077
:104F000040E85FEBC301B2010E94DB4E1816E4F5E6
:104F1000FE01E159FF4F0190F081E02D60E070E06B
:104F200080810E94AE46FE01EF58FF4F0190F08154
:104F3000E02D60E080810E94FF4781E0FE01E9579B
:104F4000FF4F808321C0F401608171818281938150
:104F50000E94A54DFE01E159FF4F0190F081E02D27
:104F600080810E94AE4661E974E088EC9DE00E9479
:104F7000D04AD4014D915D916D917C9122E030E059
:104F800088EC9DE00E94C34CD601ED91FC9180819C
:104F900081113CC06E01BFE6CB0ED11CD601ED9154
:104FA000FC9180810E943448892B81F1C158DF4FE8
:104FB00088819981AA81BB81F701408151816281F9
:104FC0007381840F951FA61FB71FF801408151817F
:104FD00062817381481759076A077B07B8F0D601C9
:104FE000ED91FC9160E08081DF91CF911F910F9155
:104FF000FF90EF90DF90CF90BF90AF909F908F90F9
:105000007F906F905F904F900C94FF47DF91CF910E
:105010001F910F91FF90EF90DF90CF90BF90AF90D6
:105020009F908F907F906F905F904F900895AF9278
:10503000BF92CF92DF92EF92FF920F931F93CF9385
:10504000DF93EC015A016B018C01025D1F4FC80117
:105050000E94DF39019729F460E070E0C8010E94E6
:105060002339FE01E758FF4F0190F081E02DE080E9
:10507000F180028113819701A801B501C6010E9448
:10508000394D87FD02C075018601FE01E958FF4FC9
:105090000190F081E02DA080B180C280D380950185
:1050A000A601B701C8010E94DB4E181614F0570183
:1050B0006801C759DF4FC501D60188839983AA8348
:1050C000BB83DF91CF911F910F91FF90EF90DF9005
:1050D000CF90BF90AF90089581599F4FDC01ED9123
:1050E000FC9160E080810C94FF478E960C942339EC
:1050F000FC0160817181828193810895FC0110829D
:105100001482138215820895862F642F0C94C6474B
:10511000862F642F0C94FF47862F0C9434484F92AF
:105120005F926F927F928F929F92AF92BF92CF9237
:10513000DF92EF920F93CF93DF93EC014B013A0193
:1051400059010296DBDF81EB94E0998388836E013D
:105150008CE1C80ED11C26018CE3480E511CC601FF
:10516000CDDF86E0C80ED11CC414D504C1F7FE0102
:10517000EE59FF4F718260823296B182A0823296E0
:1051800000833196E08237979182808238968AE058
:1051900090E091838083329684EF91E091838083C5
:1051A000329611821082C45ADF4F188219821A82F5
:1051B0001B82DF91CF910F91EF90DF90CF90BF9046
:1051C000AF909F908F907F906F905F904F900895D9
:1051D0002F923F924F925F926F927F928F929F9207
:1051E000AF92BF92CF92DF92EF92FF920F931F93F5
:1051F000CF93DF93CDB7DEB728970FB6F894DEBF15
:105200000FBECDBF98878F83F12C4C0186E6880EA8
:10521000911C0F8118850E591F4FD4018C91F816DF
:10522000A0F4AF81B8858D919C91F801A081B181E6
:10523000AF0DB11DFC012081318142E06C918F8165
:105240009885F9011995F394E8CF512CEF81F885F1
:10525000E959FF4FFA83E9830F8118850C591F4FD5
:10526000C12CD12C7601C3948F8198858E599F4F84
:105270009C838B83A981BA818C91581608F088C0D1
:10528000A52CB12CAF81B8858D919C91F801A0819E
:10529000B181AA0DBB1DFC012081318141E06C91DF
:1052A0008F819885F9011995AF81B8858D919C9171
:1052B000F801A081B181AA0DBB1DFC0122813381BF
:1052C00040E06C918F819885F9011995D701C6014D
:1052D000052C04C0880F991FAA1FBB1F0A94D2F780
:1052E0009C011C0120943094412CD4018C91EF81BD
:1052F000F88540815181481648F5642C712CEB816A
:10530000FC81A081B181A60DB71DFA0144815581B0
:105310006C918F8198852D833E83FA011995660CD7
:10532000771C2D813E81EF81F885E60DF71D892BD5
:1053300029F480859185822B932B04C080859185EB
:1053400082219321918780874394CFCFF801A08158
:10535000B181AA0DBB1DFA012281338141E06C911C
:105360008F819885F9011995AF81B8858D919C91B0
:10537000F801A081B181AA0DBB1DFC012081318102
:1053800040E06C918F819885F9011995539472CF03
:1053900028960FB6F894DEBF0FBECDBFDF91CF9138
:1053A0001F910F91FF90EF90DF90CF90BF90AF9043
:1053B0009F908F907F906F905F904F903F902F9035
:1053C0000895FC0180E090E0258D368D2617370783
:1053D00039F0019636968A309105B1F78FEF9FEF3D
:1053E0000895FC0126E0629FE00DF11D112450A3F9
:1053F000478F21E021A3FC01E459FF4F0190F08188
:10540000E02D309721F0DC015C968C911994089581
:10541000CF92DF92FF920F931F93CF93DF931F9250
:10542000CDB7DEB76C01F62EFC0186E0689FE00D7B
:10543000F11D112411A2878D90A181309105E9F011
:105440001CF4892B51F044C08230910591F10397EF
:1054500009F03EC040E050E030C04423C9F141E0D3
:1054600050E0C601BEDF0E94C945F601E85AFF4F71
:1054700060837183828393832BC049830E94C945D3
:10548000F601E85AFF4F0081118122813381601BB0
:10549000710B820B930B72960081118120E030E03A
:1054A0004981061717072807390718F442E050E02A
:1054B00004C041110DC043E050E06F2DC6010F90B4
:1054C000DF91CF911F910F91FF90DF90CF9089CF07
:1054D0000F90DF91CF911F910F91FF90DF90CF90B0
:1054E00008952F923F924F925F926F927F928F9288
:1054F0009F92AF92BF92CF92DF92EF92FF920F9363
:105500001F93CF93DF931F92CDB7DEB71C01FC0131
:105510004AE08FEF9FEF278D30A1232B21F4148ECB
:10552000968F858F11A2415036964111F4CF712C80
:10553000610126E6C20ED11C510187E6A80EB11CFE
:105540004101A0E68A0E911C46E0442ED6018C91C2
:10555000781608F053C0612C8101070D111D070D4D
:10556000111D085F1F4FF501E0806E1408F044C064
:10557000F80140815181062C02C0569547950A9446
:10558000E2F741707E9C70011124E60CF11CD401FD
:10559000ED91FC91EE0DFF1D5080B701C1014983D3
:1055A00010DF498197FD02C0682F1BC0019611F5DD
:1055B000442301F180E090E060E070E0F101E80F49
:1055C000F91F248D211110C0469EF001479EF00D59
:1055D0001124E20DF31D548EF68EE58E10A2178E67
:1055E00041E0C10115DF06C06F5F7F4F06966A304C
:1055F000710521F76394B7CF7394A8CF20E030E012
:1056000080E0F101E20FF31F91A1911181E02A5F87
:105610003F4F2C333105A9F70F90DF91CF911F91A8
:105620000F91FF90EF90DF90CF90BF90AF909F9041
:105630008F907F906F905F904F903F902F90089544
:10564000CF92DF92EF92FF920F931F93CF93DF934E
:105650008C010E94C945E801C45ADF4FC880D98037
:10566000EA80FB806C197D098E099F09F801E859D1
:10567000FF4FC080D180E12CF12CC616D706E8067A
:10568000F90660F4C801A4DDC8012BDF182F0E94C1
:10569000C945688379838A839B8301C010E0812F89
:1056A000DF91CF911F910F91FF90EF90DF90CF90FE
:1056B0000895CF93DF93EC01C3DF882339F089A1EC
:1056C000882321F08F8D98A1019711F080E001C00F
:1056D0008C8DDF91CF910895CF93DF93EC01CE01B4
:1056E000E8DF8823E1F3DF91CF9108950F931F93B3
:1056F000FC015183408375836483358F248F178F1A
:10570000068F158A148A81E090E097838683978BB1
:10571000868B97878687938782871F910F9108953D
:10572000FC01CB01019620813181821793071CF087
:105730008FEF9FEF0895A481B5812EE0269FA001F1
:10574000279F500D11249D01240F351F2E5F3F4FC1
:10575000F90165917491FD01E40FF51F7096259193
:1057600034916217730721F7089516161706E4F4AB
:10577000FC01448155818EE0869F9001879F300D0A
:105780001124CA01820F931F0296FC01A591B491C6
:10579000FA01E20FF31F3C9785919491A817B9077E
:1057A00019F4CB01019708958FEF9FEF08954EE014
:1057B000469F9001479F300D1124DC011496ED9116
:1057C000FC911597E20FF31F3296859194910895FD
:1057D0004EE0469F9001479F300D1124DC01149646
:1057E000ED91FC911597E20FF31F349685919491FA
:1057F0000895CF93DF93EB016EE0649F9001659F66
:10580000300D1124DC011496ED91FC911597E20FF7
:10581000F31F65917491CE010E943251CE01DF9148
:10582000CF910895CF93DF93EC016C857D857D8BBF
:105830006C8B888999896817790719F4CE01C8DFBC
:1058400002C0CE016DDF9F8B8E8B6E897F89CE016A
:1058500067DF998F888FBC01CE0162DF9B8F8A8FB3
:10586000DF91CF9108954EE0469F9001479F300D04
:105870001124DC011496ED91FC911597E20FF31FB2
:105880003A968591949108954EE0469F9001479FE6
:10589000300D1124DC011496ED91FC911597E20F67
:1058A000F31F38968591949108954EE0469F90019C
:1058B000479F300D1124DC011496ED91FC91159752
:1058C000E20FF31F36968591949108950F931F93DD
:1058D000CF93DF938C01FC0162857385C4DF863032
:1058E0009105E9F0A4F4049709F06CC0F801628511
:1058F0007385C801DADFEC01F80162857385C801A0
:10590000D4DFFC01808191E0892788835BC08A30E5
:10591000910509F43DC00C9709F43AC053C0F80151
:1059200062857385C801C1DFFC0180819181F80126
:10593000628573850B9784F4C801B7DFEC01F80129
:1059400062857385C801B1DFFC01208131812F5F41
:105950003F4F3983288336C0C801A7DFEC01F80127
:1059600062857385C801A1DFFC0160817181882790
:1059700077FD8095982F0E94D84D2DEC3CEC4CE89B
:105980005FE30E94DF4E0E94A54D798368831AC0B1
:10599000F80162857385C80188DFEC01F801628532
:1059A0007385C80182DF2DEC3CEC4CE85FE3FC0121
:1059B00060817181828193810E94DF4E6883798347
:1059C0008A839B83DF91CF911F910F9108950F934D
:1059D0001F93CF93DF938C01FC016285738543DFB6
:1059E00086309105E9F0A4F4049709F06CC0F80141
:1059F00062857385C80159DFEC01F8016285738502
:105A0000C80153DFFC01808191E0892788835BC056
:105A10008A30910509F43DC00C9709F43AC053C08F
:105A2000F80162857385C80140DFFC0180819181A6
:105A3000F801628573850B9784F4C80136DFEC01A9
:105A4000F80162857385C80130DFFC012081318156
:105A5000215031093983288336C0C80126DFEC0183
:105A6000F80162857385C80120DFFC0160817181C6
:105A7000882777FD8095982F0E94D84D2DEC3CEC1F
:105A80004CE85FE30E943D4D0E94A54D79836883F9
:105A90001AC0F80162857385C80107DFEC01F801BF
:105AA00062857385C80101DF2DEC3CEC4CE85FE3B7
:105AB000FC0160817181828193810E943D4D6883E8
:105AC00079838A839B83DF91CF911F910F910895F2
:105AD000EF92FF920F931F93CF93DF93EC018B0113
